{
  "_format": "hh-sol-artifact-1",
  "contractName": "GrayblockPool",
  "sourceName": "contracts/Exchange.sol",
  "abi": [
    {
      "inputs": [
        {
          "internalType": "address",
          "name": "tokenA_address",
          "type": "address"
        },
        {
          "internalType": "address",
          "name": "tokenB_address",
          "type": "address"
        }
      ],
      "stateMutability": "payable",
      "type": "constructor"
    },
    {
      "anonymous": false,
      "inputs": [
        {
          "indexed": true,
          "internalType": "address",
          "name": "owner",
          "type": "address"
        },
        {
          "indexed": true,
          "internalType": "address",
          "name": "spender",
          "type": "address"
        },
        {
          "indexed": false,
          "internalType": "uint256",
          "name": "value",
          "type": "uint256"
        }
      ],
      "name": "Approval",
      "type": "event"
    },
    {
      "anonymous": false,
      "inputs": [
        {
          "indexed": true,
          "internalType": "address",
          "name": "previousOwner",
          "type": "address"
        },
        {
          "indexed": true,
          "internalType": "address",
          "name": "newOwner",
          "type": "address"
        }
      ],
      "name": "OwnershipTransferred",
      "type": "event"
    },
    {
      "anonymous": false,
      "inputs": [
        {
          "indexed": true,
          "internalType": "address",
          "name": "from",
          "type": "address"
        },
        {
          "indexed": true,
          "internalType": "address",
          "name": "to",
          "type": "address"
        },
        {
          "indexed": false,
          "internalType": "uint256",
          "name": "value",
          "type": "uint256"
        }
      ],
      "name": "Transfer",
      "type": "event"
    },
    {
      "inputs": [],
      "name": "MINIMUM_LIQUIDITY",
      "outputs": [
        {
          "internalType": "uint256",
          "name": "",
          "type": "uint256"
        }
      ],
      "stateMutability": "view",
      "type": "function"
    },
    {
      "inputs": [
        {
          "internalType": "address",
          "name": "",
          "type": "address"
        }
      ],
      "name": "admins",
      "outputs": [
        {
          "internalType": "bool",
          "name": "",
          "type": "bool"
        }
      ],
      "stateMutability": "view",
      "type": "function"
    },
    {
      "inputs": [
        {
          "internalType": "address",
          "name": "owner",
          "type": "address"
        },
        {
          "internalType": "address",
          "name": "spender",
          "type": "address"
        }
      ],
      "name": "allowance",
      "outputs": [
        {
          "internalType": "uint256",
          "name": "",
          "type": "uint256"
        }
      ],
      "stateMutability": "view",
      "type": "function"
    },
    {
      "inputs": [
        {
          "internalType": "address",
          "name": "spender",
          "type": "address"
        },
        {
          "internalType": "uint256",
          "name": "amount",
          "type": "uint256"
        }
      ],
      "name": "approve",
      "outputs": [
        {
          "internalType": "bool",
          "name": "",
          "type": "bool"
        }
      ],
      "stateMutability": "nonpayable",
      "type": "function"
    },
    {
      "inputs": [
        {
          "internalType": "address",
          "name": "account",
          "type": "address"
        }
      ],
      "name": "balanceOf",
      "outputs": [
        {
          "internalType": "uint256",
          "name": "",
          "type": "uint256"
        }
      ],
      "stateMutability": "view",
      "type": "function"
    },
    {
      "inputs": [],
      "name": "decimals",
      "outputs": [
        {
          "internalType": "uint8",
          "name": "",
          "type": "uint8"
        }
      ],
      "stateMutability": "view",
      "type": "function"
    },
    {
      "inputs": [
        {
          "internalType": "address",
          "name": "spender",
          "type": "address"
        },
        {
          "internalType": "uint256",
          "name": "subtractedValue",
          "type": "uint256"
        }
      ],
      "name": "decreaseAllowance",
      "outputs": [
        {
          "internalType": "bool",
          "name": "",
          "type": "bool"
        }
      ],
      "stateMutability": "nonpayable",
      "type": "function"
    },
    {
      "inputs": [
        {
          "internalType": "uint256",
          "name": "tokensA",
          "type": "uint256"
        },
        {
          "internalType": "uint256",
          "name": "tokensB",
          "type": "uint256"
        },
        {
          "internalType": "uint256",
          "name": "MinimumA",
          "type": "uint256"
        },
        {
          "internalType": "uint256",
          "name": "MinimumB",
          "type": "uint256"
        },
        {
          "internalType": "address",
          "name": "_tokenA",
          "type": "address"
        },
        {
          "internalType": "address",
          "name": "_tokenB",
          "type": "address"
        }
      ],
      "name": "depositLiquidity",
      "outputs": [
        {
          "internalType": "uint256",
          "name": "amountA",
          "type": "uint256"
        },
        {
          "internalType": "uint256",
          "name": "amountB",
          "type": "uint256"
        }
      ],
      "stateMutability": "payable",
      "type": "function"
    },
    {
      "inputs": [
        {
          "internalType": "uint256",
          "name": "input_amount",
          "type": "uint256"
        },
        {
          "internalType": "address",
          "name": "_tokenFrom",
          "type": "address"
        },
        {
          "internalType": "address",
          "name": "_tokenTo",
          "type": "address"
        }
      ],
      "name": "getAmountsOut",
      "outputs": [
        {
          "internalType": "uint256",
          "name": "",
          "type": "uint256"
        }
      ],
      "stateMutability": "view",
      "type": "function"
    },
    {
      "inputs": [],
      "name": "getOwner",
      "outputs": [
        {
          "internalType": "address",
          "name": "",
          "type": "address"
        }
      ],
      "stateMutability": "view",
      "type": "function"
    },
    {
      "inputs": [
        {
          "internalType": "uint256",
          "name": "tokensA",
          "type": "uint256"
        },
        {
          "internalType": "uint256",
          "name": "tokensB",
          "type": "uint256"
        },
        {
          "internalType": "uint256",
          "name": "MinimumA",
          "type": "uint256"
        },
        {
          "internalType": "uint256",
          "name": "MinimumB",
          "type": "uint256"
        },
        {
          "internalType": "uint256",
          "name": "token_reserveA",
          "type": "uint256"
        },
        {
          "internalType": "uint256",
          "name": "token_reserveB",
          "type": "uint256"
        }
      ],
      "name": "getRatio",
      "outputs": [
        {
          "internalType": "uint256",
          "name": "amountA",
          "type": "uint256"
        },
        {
          "internalType": "uint256",
          "name": "amountB",
          "type": "uint256"
        }
      ],
      "stateMutability": "payable",
      "type": "function"
    },
    {
      "inputs": [
        {
          "internalType": "address",
          "name": "spender",
          "type": "address"
        },
        {
          "internalType": "uint256",
          "name": "addedValue",
          "type": "uint256"
        }
      ],
      "name": "increaseAllowance",
      "outputs": [
        {
          "internalType": "bool",
          "name": "",
          "type": "bool"
        }
      ],
      "stateMutability": "nonpayable",
      "type": "function"
    },
    {
      "inputs": [
        {
          "internalType": "address",
          "name": "",
          "type": "address"
        }
      ],
      "name": "liquidity",
      "outputs": [
        {
          "internalType": "uint256",
          "name": "",
          "type": "uint256"
        }
      ],
      "stateMutability": "view",
      "type": "function"
    },
    {
      "inputs": [
        {
          "internalType": "uint256",
          "name": "amount",
          "type": "uint256"
        }
      ],
      "name": "mint",
      "outputs": [
        {
          "internalType": "bool",
          "name": "",
          "type": "bool"
        }
      ],
      "stateMutability": "nonpayable",
      "type": "function"
    },
    {
      "inputs": [],
      "name": "name",
      "outputs": [
        {
          "internalType": "string",
          "name": "",
          "type": "string"
        }
      ],
      "stateMutability": "view",
      "type": "function"
    },
    {
      "inputs": [],
      "name": "owner",
      "outputs": [
        {
          "internalType": "address",
          "name": "",
          "type": "address"
        }
      ],
      "stateMutability": "view",
      "type": "function"
    },
    {
      "inputs": [
        {
          "internalType": "uint256",
          "name": "input_amount",
          "type": "uint256"
        },
        {
          "internalType": "uint256",
          "name": "input_reserve",
          "type": "uint256"
        },
        {
          "internalType": "uint256",
          "name": "output_reserve",
          "type": "uint256"
        }
      ],
      "name": "price",
      "outputs": [
        {
          "internalType": "uint256",
          "name": "",
          "type": "uint256"
        }
      ],
      "stateMutability": "pure",
      "type": "function"
    },
    {
      "inputs": [],
      "name": "renounceOwnership",
      "outputs": [],
      "stateMutability": "nonpayable",
      "type": "function"
    },
    {
      "inputs": [
        {
          "internalType": "uint256",
          "name": "tokens",
          "type": "uint256"
        },
        {
          "internalType": "address",
          "name": "_tokenFrom",
          "type": "address"
        },
        {
          "internalType": "address",
          "name": "_tokenTo",
          "type": "address"
        }
      ],
      "name": "swap",
      "outputs": [
        {
          "internalType": "uint256",
          "name": "",
          "type": "uint256"
        }
      ],
      "stateMutability": "payable",
      "type": "function"
    },
    {
      "inputs": [],
      "name": "symbol",
      "outputs": [
        {
          "internalType": "string",
          "name": "",
          "type": "string"
        }
      ],
      "stateMutability": "view",
      "type": "function"
    },
    {
      "inputs": [],
      "name": "totalLiquidity",
      "outputs": [
        {
          "internalType": "uint256",
          "name": "",
          "type": "uint256"
        }
      ],
      "stateMutability": "view",
      "type": "function"
    },
    {
      "inputs": [],
      "name": "totalSupply",
      "outputs": [
        {
          "internalType": "uint256",
          "name": "",
          "type": "uint256"
        }
      ],
      "stateMutability": "view",
      "type": "function"
    },
    {
      "inputs": [
        {
          "internalType": "address",
          "name": "recipient",
          "type": "address"
        },
        {
          "internalType": "uint256",
          "name": "amount",
          "type": "uint256"
        }
      ],
      "name": "transfer",
      "outputs": [
        {
          "internalType": "bool",
          "name": "",
          "type": "bool"
        }
      ],
      "stateMutability": "nonpayable",
      "type": "function"
    },
    {
      "inputs": [
        {
          "internalType": "address",
          "name": "sender",
          "type": "address"
        },
        {
          "internalType": "address",
          "name": "recipient",
          "type": "address"
        },
        {
          "internalType": "uint256",
          "name": "amount",
          "type": "uint256"
        }
      ],
      "name": "transferFrom",
      "outputs": [
        {
          "internalType": "bool",
          "name": "",
          "type": "bool"
        }
      ],
      "stateMutability": "nonpayable",
      "type": "function"
    },
    {
      "inputs": [
        {
          "internalType": "address",
          "name": "newOwner",
          "type": "address"
        }
      ],
      "name": "transferOwnership",
      "outputs": [],
      "stateMutability": "nonpayable",
      "type": "function"
    },
    {
      "inputs": [
        {
          "internalType": "uint256",
          "name": "amount",
          "type": "uint256"
        }
      ],
      "name": "withdrawLiquidity",
      "outputs": [
        {
          "internalType": "uint256",
          "name": "amount0",
          "type": "uint256"
        },
        {
          "internalType": "uint256",
          "name": "amount1",
          "type": "uint256"
        }
      ],
      "stateMutability": "nonpayable",
      "type": "function"
    }
  ],
  "bytecode": "0x60806040819052600b80546001600160a01b031990811673c5b0d73a7c0e4eaf66babf7ee16a2096447f7ad617909155600c805490911673bb4cdb9cbd36b01bd1cbaebf2de08d9173bc095c17905562002344388190039081908339810160408190526200006d916200025e565b604051806040016040528060088152602001670a0e4ded4cac6e8b60c31b8152506040518060400160405280600381526020016247564d60e81b8152506000620000bc6200019760201b60201c565b600080546001600160a01b0319166001600160a01b0383169081178255604051929350917f8be0079c531659141344cd1fd0a4f28419497f9722a3daafe3b4186f6b6457e0908290a35081516200011b9060049060208501906200019b565b508051620001319060059060208401906200019b565b505060068054601260ff1991821617610100600160a81b0319166101006001600160a01b039687160217909155600780546001600160a01b0319169390941692909217909255336000908152600a602052604090208054909116600117905550620002d2565b3390565b828054620001a99062000295565b90600052602060002090601f016020900481019282620001cd576000855562000218565b82601f10620001e857805160ff191683800117855562000218565b8280016001018555821562000218579182015b8281111562000218578251825591602001919060010190620001fb565b50620002269291506200022a565b5090565b5b808211156200022657600081556001016200022b565b80516001600160a01b03811681146200025957600080fd5b919050565b6000806040838503121562000271578182fd5b6200027c8362000241565b91506200028c6020840162000241565b90509250929050565b600281046001821680620002aa57607f821691505b60208210811415620002cc57634e487b7160e01b600052602260045260246000fd5b50919050565b61206280620002e26000396000f3fe6080604052600436106101a15760003560e01c8063715018a6116100e1578063a457c2d71161008a578063ba9a7a5611610064578063ba9a7a5614610441578063baf7fa9914610456578063dd62ed3e14610476578063f2fde38b14610496576101a1565b8063a457c2d7146103e1578063a9059cbb14610401578063b8c876b114610421576101a1565b806395d89b41116100bb57806395d89b4114610399578063a0712d68146103ae578063a0c31c5c146103ce576101a1565b8063715018a61461034b578063893d20e8146103625780638da5cb5b14610384576101a1565b806323b872dd1161014e578063395093511161012857806339509351146102d8578063429b62e5146102f8578063552d260d1461031857806370a082311461032b576101a1565b806323b872dd146102835780632b7f0923146102a3578063313ce567146102b6576101a1565b806315770f921161017f57806315770f921461022c57806318160ddd1461024e5780632071a9f414610263576101a1565b806306fdde03146101a6578063095ea7b3146101d15780630a861f2a146101fe575b600080fd5b3480156101b257600080fd5b506101bb6104b6565b6040516101c891906119c7565b60405180910390f35b3480156101dd57600080fd5b506101f16101ec3660046117f0565b610548565b6040516101c891906119bc565b34801561020a57600080fd5b5061021e610219366004611839565b610566565b6040516101c8929190611e8c565b34801561023857600080fd5b50610241610746565b6040516101c89190611e83565b34801561025a57600080fd5b5061024161074c565b34801561026f57600080fd5b5061024161027e3660046118a4565b610752565b34801561028f57600080fd5b506101f161029e3660046117b5565b6107a0565b6102416102b1366004611869565b610827565b3480156102c257600080fd5b506102cb6109d9565b6040516101c89190611e9a565b3480156102e457600080fd5b506101f16102f33660046117f0565b6109e2565b34801561030457600080fd5b506101f1610313366004611769565b610a30565b61021e610326366004611926565b610a45565b34801561033757600080fd5b50610241610346366004611769565b610b10565b34801561035757600080fd5b50610360610b2f565b005b34801561036e57600080fd5b50610377610bbb565b6040516101c89190611984565b34801561039057600080fd5b50610377610bca565b3480156103a557600080fd5b506101bb610bd9565b3480156103ba57600080fd5b506101f16103c9366004611839565b610be8565b61021e6103dc3660046118cf565b610c38565b3480156103ed57600080fd5b506101f16103fc3660046117f0565b610e75565b34801561040d57600080fd5b506101f161041c3660046117f0565b610edd565b34801561042d57600080fd5b5061024161043c366004611769565b610ef1565b34801561044d57600080fd5b50610241610f03565b34801561046257600080fd5b50610241610471366004611869565b610f09565b34801561048257600080fd5b50610241610491366004611783565b611027565b3480156104a257600080fd5b506103606104b1366004611769565b611052565b6060600480546104c590611f46565b80601f01602080910402602001604051908101604052809291908181526020018280546104f190611f46565b801561053e5780601f106105135761010080835404028352916020019161053e565b820191906000526020600020905b81548152906001019060200180831161052157829003601f168201915b5050505050905090565b600061055c610555611093565b8484611097565b5060015b92915050565b6000808261057333610b10565b101561059a5760405162461bcd60e51b815260040161059190611b7d565b60405180910390fd5b6105a63033308661114b565b60006105b130610b10565b6006546040516370a0823160e01b81529192506000916101009091046001600160a01b0316906370a08231906105eb903090600401611984565b60206040518083038186803b15801561060357600080fd5b505afa158015610617573d6000803e3d6000fd5b505050506040513d601f19601f8201168201806040525081019061063b9190611851565b6007546040516370a0823160e01b81529192506000916001600160a01b03909116906370a0823190610671903090600401611984565b60206040518083038186803b15801561068957600080fd5b505afa15801561069d573d6000803e3d6000fd5b505050506040513d601f19601f820116820180604052508101906106c19190611851565b90506106cb61074c565b6106d58484611250565b6106df9190611ec0565b94506106e961074c565b6106f38483611250565b6106fd9190611ec0565b9350610709308461129c565b6006546107269061010090046001600160a01b031630338861114b565b60075461073e906001600160a01b031630338761114b565b505050915091565b60085481565b60035490565b600080610761856103e5611250565b9050600061076f8285611250565b9050600061078983610783886103e8611250565b90611372565b90506107958183611ec0565b979650505050505050565b60006107ad8484846113a1565b61081d846107b9611093565b61081885604051806060016040528060288152602001611f98602891396001600160a01b038a166000908152600260205260408120906107f7611093565b6001600160a01b0316815260208101919091526040016000205491906114ab565b611097565b5060019392505050565b6006546000906001600160a01b038481166101009092041614801561085957506007546001600160a01b038381169116145b8061088e57506007546001600160a01b03848116911614801561088e57506006546001600160a01b0383811661010090920416145b6108aa5760405162461bcd60e51b815260040161059190611bda565b82826108b88233308961114b565b6040516370a0823160e01b81526000906001600160a01b038316906370a08231906108e7903090600401611984565b60206040518083038186803b1580156108ff57600080fd5b505afa158015610913573d6000803e3d6000fd5b505050506040513d601f19601f820116820180604052508101906109379190611851565b905060006109cb886109c58a876001600160a01b03166370a08231306040518263ffffffff1660e01b815260040161096f9190611984565b60206040518083038186803b15801561098757600080fd5b505afa15801561099b573d6000803e3d6000fd5b505050506040513d601f19601f820116820180604052508101906109bf9190611851565b906114e5565b84610752565b90506107958630338461114b565b60065460ff1690565b600061055c6109ef611093565b846108188560026000610a00611093565b6001600160a01b03908116825260208083019390935260409182016000908120918c168152925290205490611372565b600a6020526000908152604090205460ff1681565b60008083158015610a54575082155b15610a63575086905085610b05565b6000610a7985610a738b87611250565b90611527565b9050878111610aad5785811015610aa25760405162461bcd60e51b815260040161059190611b11565b889250905080610b03565b6000610abd85610a738b89611250565b905089811115610add57634e487b7160e01b600052600160045260246000fd5b87811015610afd5760405162461bcd60e51b815260040161059190611d94565b92508791505b505b965096945050505050565b6001600160a01b0381166000908152600160205260409020545b919050565b610b37611093565b6000546001600160a01b03908116911614610b645760405162461bcd60e51b815260040161059190611ca5565b600080546040516001600160a01b03909116907f8be0079c531659141344cd1fd0a4f28419497f9722a3daafe3b4186f6b6457e0908390a36000805473ffffffffffffffffffffffffffffffffffffffff19169055565b6000610bc5610bca565b905090565b6000546001600160a01b031690565b6060600580546104c590611f46565b6000610bf2611093565b6000546001600160a01b03908116911614610c1f5760405162461bcd60e51b815260040161059190611ca5565b610c30610c2a611093565b83611569565b506001919050565b60065460009081906001600160a01b0385811661010090920416148015610c6c57506007546001600160a01b038481169116145b80610ca157506007546001600160a01b038581169116148015610ca157506006546001600160a01b0384811661010090920416145b610cbd5760405162461bcd60e51b815260040161059190611bda565b6040516370a0823160e01b8152849084906000906001600160a01b038416906370a0823190610cf0903090600401611984565b60206040518083038186803b158015610d0857600080fd5b505afa158015610d1c573d6000803e3d6000fd5b505050506040513d601f19601f82011682018060405250810190610d409190611851565b90506000826001600160a01b03166370a08231306040518263ffffffff1660e01b8152600401610d709190611984565b60206040518083038186803b158015610d8857600080fd5b505afa158015610d9c573d6000803e3d6000fd5b505050506040513d601f19601f82011682018060405250810190610dc09190611851565b9050610dd08c8c8c8c8686610a45565b9096509450610de18833308961114b565b610ded8733308861114b565b6000610df761074c565b610e1e57610e0d610e088888611611565b611627565b9050610e193382611569565b610e65565b610e5983610e34610e2d61074c565b8a90611250565b610e3e9190611ec0565b83610e4a610e2d61074c565b610e549190611ec0565b611611565b9050610e653382611569565b5050505050965096945050505050565b600061055c610e82611093565b8461081885604051806060016040528060258152602001611fe66025913960026000610eac611093565b6001600160a01b03908116825260208083019390935260409182016000908120918d168152925290205491906114ab565b600061055c610eea611093565b84846113a1565b60096020526000908152604090205481565b6103e881565b6040516370a0823160e01b81526000908390839083906001600160a01b038416906370a0823190610f3e903090600401611984565b60206040518083038186803b158015610f5657600080fd5b505afa158015610f6a573d6000803e3d6000fd5b505050506040513d601f19601f82011682018060405250810190610f8e9190611851565b90506000826001600160a01b03166370a08231306040518263ffffffff1660e01b8152600401610fbe9190611984565b60206040518083038186803b158015610fd657600080fd5b505afa158015610fea573d6000803e3d6000fd5b505050506040513d601f19601f8201168201806040525081019061100e9190611851565b905061101b888383610752565b98975050505050505050565b6001600160a01b03918216600090815260026020908152604080832093909416825291909152205490565b61105a611093565b6000546001600160a01b039081169116146110875760405162461bcd60e51b815260040161059190611ca5565b61109081611696565b50565b3390565b6001600160a01b0383166110bd5760405162461bcd60e51b815260040161059190611a57565b6001600160a01b0382166110e35760405162461bcd60e51b815260040161059190611e26565b6001600160a01b0380841660008181526002602090815260408083209487168084529490915290819020849055517f8c5be1e5ebec7d5bd14f71427d1e84f3dd0314c0f7b2291e5b200ac8c7c3b9259061113e908590611e83565b60405180910390a3505050565b600080856001600160a01b03166323b872dd86868660405160240161117293929190611998565b6040516020818303038152906040529060e01b6020820180517bffffffffffffffffffffffffffffffffffffffffffffffffffffffff83818316178352505050506040516111c09190611968565b6000604051808303816000865af19150503d80600081146111fd576040519150601f19603f3d011682016040523d82523d6000602084013e611202565b606091505b509150915081801561122c57508051158061122c57508080602001905181019061122c9190611819565b6112485760405162461bcd60e51b815260040161059190611dc9565b505050505050565b60008261125f57506000610560565b600061126b8385611ee0565b9050826112788583611ec0565b146112955760405162461bcd60e51b815260040161059190611c11565b9392505050565b6001600160a01b0382166112c25760405162461bcd60e51b815260040161059190611d37565b6112ff8160405180606001604052806022815260200161200b602291396001600160a01b03851660009081526001602052604090205491906114ab565b6001600160a01b03831660009081526001602052604090205560035461132590826114e5565b6003556040516000906001600160a01b038416907fddf252ad1be2c89b69c2b068fc378daa952ba7f163c4a11628f55a4df523b3ef90611366908590611e83565b60405180910390a35050565b60008061137f8385611ea8565b9050838110156112955760405162461bcd60e51b815260040161059190611b46565b6001600160a01b0383166113c75760405162461bcd60e51b8152600401610591906119fa565b6001600160a01b0382166113ed5760405162461bcd60e51b815260040161059190611cda565b61142a81604051806060016040528060268152602001611fc0602691396001600160a01b03861660009081526001602052604090205491906114ab565b6001600160a01b0380851660009081526001602052604080822093909355908416815220546114599082611372565b6001600160a01b0380841660008181526001602052604090819020939093559151908516907fddf252ad1be2c89b69c2b068fc378daa952ba7f163c4a11628f55a4df523b3ef9061113e908590611e83565b600081848411156114cf5760405162461bcd60e51b815260040161059191906119c7565b5060006114dc8486611eff565b95945050505050565b600061129583836040518060400160405280601e81526020017f536166654d6174683a207375627472616374696f6e206f766572666c6f7700008152506114ab565b600061129583836040518060400160405280601a81526020017f536166654d6174683a206469766973696f6e206279207a65726f000000000000815250611724565b6001600160a01b03821661158f5760405162461bcd60e51b815260040161059190611c6e565b60035461159c9082611372565b6003556001600160a01b0382166000908152600160205260409020546115c29082611372565b6001600160a01b0383166000818152600160205260408082209390935591519091907fddf252ad1be2c89b69c2b068fc378daa952ba7f163c4a11628f55a4df523b3ef90611366908590611e83565b60008183106116205781611295565b5090919050565b600060038211156116885750806000611641600283611ec0565b61164c906001611ea8565b90505b81811015611682579050806002816116678186611ec0565b6116719190611ea8565b61167b9190611ec0565b905061164f565b50610b2a565b8115610b2a57506001919050565b6001600160a01b0381166116bc5760405162461bcd60e51b815260040161059190611ab4565b600080546040516001600160a01b03808516939216917f8be0079c531659141344cd1fd0a4f28419497f9722a3daafe3b4186f6b6457e091a36000805473ffffffffffffffffffffffffffffffffffffffff19166001600160a01b0392909216919091179055565b600081836117455760405162461bcd60e51b815260040161059191906119c7565b5060006114dc8486611ec0565b80356001600160a01b0381168114610b2a57600080fd5b60006020828403121561177a578081fd5b61129582611752565b60008060408385031215611795578081fd5b61179e83611752565b91506117ac60208401611752565b90509250929050565b6000806000606084860312156117c9578081fd5b6117d284611752565b92506117e060208501611752565b9150604084013590509250925092565b60008060408385031215611802578182fd5b61180b83611752565b946020939093013593505050565b60006020828403121561182a578081fd5b81518015158114611295578182fd5b60006020828403121561184a578081fd5b5035919050565b600060208284031215611862578081fd5b5051919050565b60008060006060848603121561187d578283fd5b8335925061188d60208501611752565b915061189b60408501611752565b90509250925092565b6000806000606084860312156118b8578283fd5b505081359360208301359350604090920135919050565b60008060008060008060c087890312156118e7578182fd5b8635955060208701359450604087013593506060870135925061190c60808801611752565b915061191a60a08801611752565b90509295509295509295565b60008060008060008060c0878903121561193e578182fd5b505084359660208601359650604086013595606081013595506080810135945060a0013592509050565b6000825161197a818460208701611f16565b9190910192915050565b6001600160a01b0391909116815260200190565b6001600160a01b039384168152919092166020820152604081019190915260600190565b901515815260200190565b60006020825282518060208401526119e6816040850160208701611f16565b601f01601f19169190910160400192915050565b60208082526025908201527f42455032303a207472616e736665722066726f6d20746865207a65726f20616460408201527f6472657373000000000000000000000000000000000000000000000000000000606082015260800190565b60208082526024908201527f42455032303a20617070726f76652066726f6d20746865207a65726f2061646460408201527f7265737300000000000000000000000000000000000000000000000000000000606082015260800190565b60208082526026908201527f4f776e61626c653a206e6577206f776e657220697320746865207a65726f206160408201527f6464726573730000000000000000000000000000000000000000000000000000606082015260800190565b6020808252818101527f47726179626c6f636b3a20494e53554646494349454e545f425f414d4f554e54604082015260600190565b6020808252601b908201527f536166654d6174683a206164646974696f6e206f766572666c6f770000000000604082015260600190565b60208082526036908201527f504f4f4c3a546865207573657220646964206e6f742070726f7669646520746860408201527f617420616d6f756e74206f66206c697175696469747900000000000000000000606082015260800190565b60208082526015908201527f77726f6e6720746f6b656e206f7220746f6b656e730000000000000000000000604082015260600190565b60208082526021908201527f536166654d6174683a206d756c7469706c69636174696f6e206f766572666c6f60408201527f7700000000000000000000000000000000000000000000000000000000000000606082015260800190565b6020808252601f908201527f42455032303a206d696e7420746f20746865207a65726f206164647265737300604082015260600190565b6020808252818101527f4f776e61626c653a2063616c6c6572206973206e6f7420746865206f776e6572604082015260600190565b60208082526023908201527f42455032303a207472616e7366657220746f20746865207a65726f206164647260408201527f6573730000000000000000000000000000000000000000000000000000000000606082015260800190565b60208082526021908201527f42455032303a206275726e2066726f6d20746865207a65726f2061646472657360408201527f7300000000000000000000000000000000000000000000000000000000000000606082015260800190565b6020808252818101527f47726179626c6f636b3a20494e53554646494349454e545f415f414d4f554e54604082015260600190565b60208082526024908201527f5472616e7366657248656c7065723a205452414e534645525f46524f4d5f464160408201527f494c454400000000000000000000000000000000000000000000000000000000606082015260800190565b60208082526022908201527f42455032303a20617070726f766520746f20746865207a65726f20616464726560408201527f7373000000000000000000000000000000000000000000000000000000000000606082015260800190565b90815260200190565b918252602082015260400190565b60ff91909116815260200190565b60008219821115611ebb57611ebb611f81565b500190565b600082611edb57634e487b7160e01b81526012600452602481fd5b500490565b6000816000190483118215151615611efa57611efa611f81565b500290565b600082821015611f1157611f11611f81565b500390565b60005b83811015611f31578181015183820152602001611f19565b83811115611f40576000848401525b50505050565b600281046001821680611f5a57607f821691505b60208210811415611f7b57634e487b7160e01b600052602260045260246000fd5b50919050565b634e487b7160e01b600052601160045260246000fdfe42455032303a207472616e7366657220616d6f756e74206578636565647320616c6c6f77616e636542455032303a207472616e7366657220616d6f756e7420657863656564732062616c616e636542455032303a2064656372656173656420616c6c6f77616e63652062656c6f77207a65726f42455032303a206275726e20616d6f756e7420657863656564732062616c616e6365a2646970667358221220b251d1eaccec3bf6ec0992aaee2107093b46925148ad666d26528aa5474c2c2164736f6c63430008000033",
  "linkReferences": {},
  "deployedLinkReferences": {}
}