{
  "_format": "hh-sol-artifact-1",
  "contractName": "StringsMock",
  "sourceName": "contracts/IDO_basedon_Openzeppelin/mocks/StringsMock.sol",
  "abi": [
    {
      "constant": true,
      "inputs": [
        {
          "internalType": "uint256",
          "name": "value",
          "type": "uint256"
        }
      ],
      "name": "fromUint256",
      "outputs": [
        {
          "internalType": "string",
          "name": "",
          "type": "string"
        }
      ],
      "payable": false,
      "stateMutability": "pure",
      "type": "function"
    }
  ],
  "bytecode": "0x608060405234801561001057600080fd5b50610202806100206000396000f3fe608060405234801561001057600080fd5b506004361061002b5760003560e01c8063a2bd364414610030575b600080fd5b61004d6004803603602081101561004657600080fd5b50356100c2565b6040805160208082528351818301528351919283929083019185019080838360005b8381101561008757818101518382015260200161006f565b50505050905090810190601f1680156100b45780820380516001836020036101000a031916815260200191505b509250505060405180910390f35b60606100cd826100d5565b90505b919050565b606081610116575060408051808201909152600181527f300000000000000000000000000000000000000000000000000000000000000060208201526100d0565b8160005b811561012e57600101600a8204915061011a565b6060816040519080825280601f01601f19166020018201604052801561015b576020820181803883390190505b50859350905060001982015b83156101c457600a840660300160f81b8282806001900393508151811061018a57fe5b60200101907effffffffffffffffffffffffffffffffffffffffffffffffffffffffffffff1916908160001a905350600a84049350610167565b5094935050505056fea265627a7a723158206112c02d4cf504e044aa91344c922148277240330b5de4932dc3130ba29806d064736f6c63430005100032",
  "linkReferences": {},
  "deployedLinkReferences": {}
}