{
  "_format": "hh-sol-artifact-1",
  "contractName": "ERC20Mock",
  "sourceName": "contracts/IDO_basedon_Openzeppelin/mocks/ERC20Mock.sol",
  "abi": [
    {
      "inputs": [
        {
          "internalType": "address",
          "name": "initialAccount",
          "type": "address"
        },
        {
          "internalType": "uint256",
          "name": "initialBalance",
          "type": "uint256"
        }
      ],
      "payable": false,
      "stateMutability": "nonpayable",
      "type": "constructor"
    },
    {
      "anonymous": false,
      "inputs": [
        {
          "indexed": true,
          "internalType": "address",
          "name": "owner",
          "type": "address"
        },
        {
          "indexed": true,
          "internalType": "address",
          "name": "spender",
          "type": "address"
        },
        {
          "indexed": false,
          "internalType": "uint256",
          "name": "value",
          "type": "uint256"
        }
      ],
      "name": "Approval",
      "type": "event"
    },
    {
      "anonymous": false,
      "inputs": [
        {
          "indexed": true,
          "internalType": "address",
          "name": "from",
          "type": "address"
        },
        {
          "indexed": true,
          "internalType": "address",
          "name": "to",
          "type": "address"
        },
        {
          "indexed": false,
          "internalType": "uint256",
          "name": "value",
          "type": "uint256"
        }
      ],
      "name": "Transfer",
      "type": "event"
    },
    {
      "constant": true,
      "inputs": [
        {
          "internalType": "address",
          "name": "owner",
          "type": "address"
        },
        {
          "internalType": "address",
          "name": "spender",
          "type": "address"
        }
      ],
      "name": "allowance",
      "outputs": [
        {
          "internalType": "uint256",
          "name": "",
          "type": "uint256"
        }
      ],
      "payable": false,
      "stateMutability": "view",
      "type": "function"
    },
    {
      "constant": false,
      "inputs": [
        {
          "internalType": "address",
          "name": "spender",
          "type": "address"
        },
        {
          "internalType": "uint256",
          "name": "amount",
          "type": "uint256"
        }
      ],
      "name": "approve",
      "outputs": [
        {
          "internalType": "bool",
          "name": "",
          "type": "bool"
        }
      ],
      "payable": false,
      "stateMutability": "nonpayable",
      "type": "function"
    },
    {
      "constant": false,
      "inputs": [
        {
          "internalType": "address",
          "name": "owner",
          "type": "address"
        },
        {
          "internalType": "address",
          "name": "spender",
          "type": "address"
        },
        {
          "internalType": "uint256",
          "name": "value",
          "type": "uint256"
        }
      ],
      "name": "approveInternal",
      "outputs": [],
      "payable": false,
      "stateMutability": "nonpayable",
      "type": "function"
    },
    {
      "constant": true,
      "inputs": [
        {
          "internalType": "address",
          "name": "account",
          "type": "address"
        }
      ],
      "name": "balanceOf",
      "outputs": [
        {
          "internalType": "uint256",
          "name": "",
          "type": "uint256"
        }
      ],
      "payable": false,
      "stateMutability": "view",
      "type": "function"
    },
    {
      "constant": false,
      "inputs": [
        {
          "internalType": "address",
          "name": "account",
          "type": "address"
        },
        {
          "internalType": "uint256",
          "name": "amount",
          "type": "uint256"
        }
      ],
      "name": "burn",
      "outputs": [],
      "payable": false,
      "stateMutability": "nonpayable",
      "type": "function"
    },
    {
      "constant": false,
      "inputs": [
        {
          "internalType": "address",
          "name": "account",
          "type": "address"
        },
        {
          "internalType": "uint256",
          "name": "amount",
          "type": "uint256"
        }
      ],
      "name": "burnFrom",
      "outputs": [],
      "payable": false,
      "stateMutability": "nonpayable",
      "type": "function"
    },
    {
      "constant": false,
      "inputs": [
        {
          "internalType": "address",
          "name": "spender",
          "type": "address"
        },
        {
          "internalType": "uint256",
          "name": "subtractedValue",
          "type": "uint256"
        }
      ],
      "name": "decreaseAllowance",
      "outputs": [
        {
          "internalType": "bool",
          "name": "",
          "type": "bool"
        }
      ],
      "payable": false,
      "stateMutability": "nonpayable",
      "type": "function"
    },
    {
      "constant": false,
      "inputs": [
        {
          "internalType": "address",
          "name": "spender",
          "type": "address"
        },
        {
          "internalType": "uint256",
          "name": "addedValue",
          "type": "uint256"
        }
      ],
      "name": "increaseAllowance",
      "outputs": [
        {
          "internalType": "bool",
          "name": "",
          "type": "bool"
        }
      ],
      "payable": false,
      "stateMutability": "nonpayable",
      "type": "function"
    },
    {
      "constant": false,
      "inputs": [
        {
          "internalType": "address",
          "name": "account",
          "type": "address"
        },
        {
          "internalType": "uint256",
          "name": "amount",
          "type": "uint256"
        }
      ],
      "name": "mint",
      "outputs": [],
      "payable": false,
      "stateMutability": "nonpayable",
      "type": "function"
    },
    {
      "constant": true,
      "inputs": [],
      "name": "totalSupply",
      "outputs": [
        {
          "internalType": "uint256",
          "name": "",
          "type": "uint256"
        }
      ],
      "payable": false,
      "stateMutability": "view",
      "type": "function"
    },
    {
      "constant": false,
      "inputs": [
        {
          "internalType": "address",
          "name": "recipient",
          "type": "address"
        },
        {
          "internalType": "uint256",
          "name": "amount",
          "type": "uint256"
        }
      ],
      "name": "transfer",
      "outputs": [
        {
          "internalType": "bool",
          "name": "",
          "type": "bool"
        }
      ],
      "payable": false,
      "stateMutability": "nonpayable",
      "type": "function"
    },
    {
      "constant": false,
      "inputs": [
        {
          "internalType": "address",
          "name": "sender",
          "type": "address"
        },
        {
          "internalType": "address",
          "name": "recipient",
          "type": "address"
        },
        {
          "internalType": "uint256",
          "name": "amount",
          "type": "uint256"
        }
      ],
      "name": "transferFrom",
      "outputs": [
        {
          "internalType": "bool",
          "name": "",
          "type": "bool"
        }
      ],
      "payable": false,
      "stateMutability": "nonpayable",
      "type": "function"
    },
    {
      "constant": false,
      "inputs": [
        {
          "internalType": "address",
          "name": "from",
          "type": "address"
        },
        {
          "internalType": "address",
          "name": "to",
          "type": "address"
        },
        {
          "internalType": "uint256",
          "name": "value",
          "type": "uint256"
        }
      ],
      "name": "transferInternal",
      "outputs": [],
      "payable": false,
      "stateMutability": "nonpayable",
      "type": "function"
    }
  ],
  "bytecode": "0x608060405234801561001057600080fd5b50604051610e6a380380610e6a8339818101604052604081101561003357600080fd5b50805160209091015161004f82826001600160e01b0361005616565b50506101b1565b6001600160a01b0382166100b1576040805162461bcd60e51b815260206004820152601f60248201527f45524332303a206d696e7420746f20746865207a65726f206164647265737300604482015290519081900360640190fd5b6100ca8160025461015060201b61082a1790919060201c565b6002556001600160a01b038216600090815260208181526040909120546100fa91839061082a610150821b17901c565b6001600160a01b0383166000818152602081815260408083209490945583518581529351929391927fddf252ad1be2c89b69c2b068fc378daa952ba7f163c4a11628f55a4df523b3ef9281900390910190a35050565b6000828201838110156101aa576040805162461bcd60e51b815260206004820152601b60248201527f536166654d6174683a206164646974696f6e206f766572666c6f770000000000604482015290519081900360640190fd5b9392505050565b610caa806101c06000396000f3fe608060405234801561001057600080fd5b50600436106100df5760003560e01c806356189cb41161008c5780639dc29fac116100665780639dc29fac1461028c578063a457c2d7146102b8578063a9059cbb146102e4578063dd62ed3e14610310576100df565b806356189cb41461020457806370a082311461023a57806379cc679014610260576100df565b806323b872dd116100bd57806323b872dd1461017657806339509351146101ac57806340c10f19146101d8576100df565b8063095ea7b3146100e457806318160ddd14610124578063222f5be01461013e575b600080fd5b610110600480360360408110156100fa57600080fd5b506001600160a01b03813516906020013561033e565b604080519115158252519081900360200190f35b61012c61035b565b60408051918252519081900360200190f35b6101746004803603606081101561015457600080fd5b506001600160a01b03813581169160208101359091169060400135610361565b005b6101106004803603606081101561018c57600080fd5b506001600160a01b03813581169160208101359091169060400135610371565b610110600480360360408110156101c257600080fd5b506001600160a01b0381351690602001356103fe565b610174600480360360408110156101ee57600080fd5b506001600160a01b038135169060200135610452565b6101746004803603606081101561021a57600080fd5b506001600160a01b03813581169160208101359091169060400135610460565b61012c6004803603602081101561025057600080fd5b50356001600160a01b031661046b565b6101746004803603604081101561027657600080fd5b506001600160a01b038135169060200135610486565b610174600480360360408110156102a257600080fd5b506001600160a01b038135169060200135610490565b610110600480360360408110156102ce57600080fd5b506001600160a01b03813516906020013561049a565b610110600480360360408110156102fa57600080fd5b506001600160a01b038135169060200135610508565b61012c6004803603604081101561032657600080fd5b506001600160a01b038135811691602001351661051c565b600061035261034b610547565b848461054b565b50600192915050565b60025490565b61036c838383610637565b505050565b600061037e848484610637565b6103f48461038a610547565b6103ef85604051806060016040528060288152602001610b9b602891396001600160a01b038a166000908152600160205260408120906103c8610547565b6001600160a01b03168152602081019190915260400160002054919063ffffffff61079316565b61054b565b5060019392505050565b600061035261040b610547565b846103ef856001600061041c610547565b6001600160a01b03908116825260208083019390935260409182016000908120918c16815292529020549063ffffffff61082a16565b61045c828261088b565b5050565b61036c83838361054b565b6001600160a01b031660009081526020819052604090205490565b61045c828261097b565b61045c82826109cf565b60006103526104a7610547565b846103ef85604051806060016040528060258152602001610c5160259139600160006104d1610547565b6001600160a01b03908116825260208083019390935260409182016000908120918d1681529252902054919063ffffffff61079316565b6000610352610515610547565b8484610637565b6001600160a01b03918216600090815260016020908152604080832093909416825291909152205490565b3390565b6001600160a01b0383166105905760405162461bcd60e51b8152600401808060200182810382526024815260200180610c2d6024913960400191505060405180910390fd5b6001600160a01b0382166105d55760405162461bcd60e51b8152600401808060200182810382526022815260200180610b536022913960400191505060405180910390fd5b6001600160a01b03808416600081815260016020908152604080832094871680845294825291829020859055815185815291517f8c5be1e5ebec7d5bd14f71427d1e84f3dd0314c0f7b2291e5b200ac8c7c3b9259281900390910190a3505050565b6001600160a01b03831661067c5760405162461bcd60e51b8152600401808060200182810382526025815260200180610c086025913960400191505060405180910390fd5b6001600160a01b0382166106c15760405162461bcd60e51b8152600401808060200182810382526023815260200180610b0e6023913960400191505060405180910390fd5b61070481604051806060016040528060268152602001610b75602691396001600160a01b038616600090815260208190526040902054919063ffffffff61079316565b6001600160a01b038085166000908152602081905260408082209390935590841681522054610739908263ffffffff61082a16565b6001600160a01b038084166000818152602081815260409182902094909455805185815290519193928716927fddf252ad1be2c89b69c2b068fc378daa952ba7f163c4a11628f55a4df523b3ef92918290030190a3505050565b600081848411156108225760405162461bcd60e51b81526004018080602001828103825283818151815260200191508051906020019080838360005b838110156107e75781810151838201526020016107cf565b50505050905090810190601f1680156108145780820380516001836020036101000a031916815260200191505b509250505060405180910390fd5b505050900390565b600082820183811015610884576040805162461bcd60e51b815260206004820152601b60248201527f536166654d6174683a206164646974696f6e206f766572666c6f770000000000604482015290519081900360640190fd5b9392505050565b6001600160a01b0382166108e6576040805162461bcd60e51b815260206004820152601f60248201527f45524332303a206d696e7420746f20746865207a65726f206164647265737300604482015290519081900360640190fd5b6002546108f9908263ffffffff61082a16565b6002556001600160a01b038216600090815260208190526040902054610925908263ffffffff61082a16565b6001600160a01b0383166000818152602081815260408083209490945583518581529351929391927fddf252ad1be2c89b69c2b068fc378daa952ba7f163c4a11628f55a4df523b3ef9281900390910190a35050565b61098582826109cf565b61045c82610991610547565b6103ef84604051806060016040528060248152602001610bc3602491396001600160a01b0388166000908152600160205260408120906103c8610547565b6001600160a01b038216610a145760405162461bcd60e51b8152600401808060200182810382526021815260200180610be76021913960400191505060405180910390fd5b610a5781604051806060016040528060228152602001610b31602291396001600160a01b038516600090815260208190526040902054919063ffffffff61079316565b6001600160a01b038316600090815260208190526040902055600254610a83908263ffffffff610acb16565b6002556040805182815290516000916001600160a01b038516917fddf252ad1be2c89b69c2b068fc378daa952ba7f163c4a11628f55a4df523b3ef9181900360200190a35050565b600061088483836040518060400160405280601e81526020017f536166654d6174683a207375627472616374696f6e206f766572666c6f77000081525061079356fe45524332303a207472616e7366657220746f20746865207a65726f206164647265737345524332303a206275726e20616d6f756e7420657863656564732062616c616e636545524332303a20617070726f766520746f20746865207a65726f206164647265737345524332303a207472616e7366657220616d6f756e7420657863656564732062616c616e636545524332303a207472616e7366657220616d6f756e74206578636565647320616c6c6f77616e636545524332303a206275726e20616d6f756e74206578636565647320616c6c6f77616e636545524332303a206275726e2066726f6d20746865207a65726f206164647265737345524332303a207472616e736665722066726f6d20746865207a65726f206164647265737345524332303a20617070726f76652066726f6d20746865207a65726f206164647265737345524332303a2064656372656173656420616c6c6f77616e63652062656c6f77207a65726fa265627a7a72315820b9778e429a0e43a4847b24a8d7d996681161478b0c258522c05b1a41df79829964736f6c63430005100032",
  "linkReferences": {},
  "deployedLinkReferences": {}
}