{
  "_format": "hh-sol-artifact-1",
  "contractName": "PullPaymentMock",
  "sourceName": "contracts/IDO_basedon_Openzeppelin/mocks/PullPaymentMock.sol",
  "abi": [
    {
      "inputs": [],
      "payable": true,
      "stateMutability": "payable",
      "type": "constructor"
    },
    {
      "constant": false,
      "inputs": [
        {
          "internalType": "address",
          "name": "dest",
          "type": "address"
        },
        {
          "internalType": "uint256",
          "name": "amount",
          "type": "uint256"
        }
      ],
      "name": "callTransfer",
      "outputs": [],
      "payable": false,
      "stateMutability": "nonpayable",
      "type": "function"
    },
    {
      "constant": true,
      "inputs": [
        {
          "internalType": "address",
          "name": "dest",
          "type": "address"
        }
      ],
      "name": "payments",
      "outputs": [
        {
          "internalType": "uint256",
          "name": "",
          "type": "uint256"
        }
      ],
      "payable": false,
      "stateMutability": "view",
      "type": "function"
    },
    {
      "constant": false,
      "inputs": [
        {
          "internalType": "address payable",
          "name": "payee",
          "type": "address"
        }
      ],
      "name": "withdrawPayments",
      "outputs": [],
      "payable": false,
      "stateMutability": "nonpayable",
      "type": "function"
    },
    {
      "constant": false,
      "inputs": [
        {
          "internalType": "address payable",
          "name": "payee",
          "type": "address"
        }
      ],
      "name": "withdrawPaymentsWithGas",
      "outputs": [],
      "payable": false,
      "stateMutability": "nonpayable",
      "type": "function"
    }
  ],
  "bytecode": "0x608060405260405161001090610052565b604051809103906000f08015801561002c573d6000803e3d6000fd5b50600080546001600160a01b0319166001600160a01b039290921691909117905561005f565b6107f9806103b383390190565b6103458061006e6000396000f3fe608060405234801561001057600080fd5b506004361061004c5760003560e01c806331b3eb9414610051578063653cfa5914610079578063d44409911461009f578063e2982c21146100cb575b600080fd5b6100776004803603602081101561006757600080fd5b50356001600160a01b0316610103565b005b6100776004803603602081101561008f57600080fd5b50356001600160a01b0316610182565b610077600480360360408110156100b557600080fd5b506001600160a01b0381351690602001356101e6565b6100f1600480360360208110156100e157600080fd5b50356001600160a01b03166101f4565b60408051918252519081900360200190f35b60008054604080517f51cff8d90000000000000000000000000000000000000000000000000000000081526001600160a01b038581166004830152915191909216926351cff8d9926024808201939182900301818387803b15801561016757600080fd5b505af115801561017b573d6000803e3d6000fd5b5050505050565b60008054604080517f6809691a0000000000000000000000000000000000000000000000000000000081526001600160a01b03858116600483015291519190921692636809691a926024808201939182900301818387803b15801561016757600080fd5b6101f0828261028d565b5050565b60008054604080517fe3a9db1a0000000000000000000000000000000000000000000000000000000081526001600160a01b0385811660048301529151919092169163e3a9db1a916024808301926020929190829003018186803b15801561025b57600080fd5b505afa15801561026f573d6000803e3d6000fd5b505050506040513d602081101561028557600080fd5b505192915050565b60008054604080517ff340fa010000000000000000000000000000000000000000000000000000000081526001600160a01b0386811660048301529151919092169263f340fa019285926024808301939282900301818588803b1580156102f357600080fd5b505af1158015610307573d6000803e3d6000fd5b5050505050505056fea265627a7a72315820b57c2de60ddb0189bffc3a908b162e3bee4478227e97e0cfe0d428dbe3bb942a64736f6c63430005100032608060405260006100176001600160e01b0361007216565b600080546001600160a01b0383166001600160a01b0319909116811790915560408051918252519192507f4101e71e974f68df5e9730cc223280b41654676bbb052cdcc735c3337e64d2d9919081900360200190a150610076565b3390565b610774806100856000396000f3fe6080604052600436106100655760003560e01c8063c6dbdf6111610043578063c6dbdf6114610105578063e3a9db1a14610136578063f340fa011461017b57610065565b80632348238c1461006a57806351cff8d91461009f5780636809691a146100d2575b600080fd5b34801561007657600080fd5b5061009d6004803603602081101561008d57600080fd5b50356001600160a01b03166101a1565b005b3480156100ab57600080fd5b5061009d600480360360208110156100c257600080fd5b50356001600160a01b03166102ab565b3480156100de57600080fd5b5061009d600480360360208110156100f557600080fd5b50356001600160a01b0316610392565b34801561011157600080fd5b5061011a61045c565b604080516001600160a01b039092168252519081900360200190f35b34801561014257600080fd5b506101696004803603602081101561015957600080fd5b50356001600160a01b031661046b565b60408051918252519081900360200190f35b61009d6004803603602081101561019157600080fd5b50356001600160a01b0316610486565b6000546001600160a01b03166101b5610560565b6001600160a01b0316146101fa5760405162461bcd60e51b815260040180806020018281038252602c815260200180610714602c913960400191505060405180910390fd5b6001600160a01b03811661023f5760405162461bcd60e51b815260040180806020018281038252602a8152602001806106ea602a913960400191505060405180910390fd5b600080546001600160a01b0383167fffffffffffffffffffffffff0000000000000000000000000000000000000000909116811790915560408051918252517f4101e71e974f68df5e9730cc223280b41654676bbb052cdcc735c3337e64d2d99181900360200190a150565b6000546001600160a01b03166102bf610560565b6001600160a01b0316146103045760405162461bcd60e51b815260040180806020018281038252602c815260200180610714602c913960400191505060405180910390fd5b6001600160a01b038116600081815260016020526040808220805490839055905190929183156108fc02918491818181858888f1935050505015801561034e573d6000803e3d6000fd5b506040805182815290516001600160a01b038416917f7084f5476618d8e60b11ef0d7d3f06914655adb8793e28ff7f018d4c76d505d5919081900360200190a25050565b6000546001600160a01b03166103a6610560565b6001600160a01b0316146103eb5760405162461bcd60e51b815260040180806020018281038252602c815260200180610714602c913960400191505060405180910390fd5b6001600160a01b0381166000818152600160205260408120805491905590610419908263ffffffff61056416565b6040805182815290516001600160a01b038416917f7084f5476618d8e60b11ef0d7d3f06914655adb8793e28ff7f018d4c76d505d5919081900360200190a25050565b6000546001600160a01b031690565b6001600160a01b031660009081526001602052604090205490565b6000546001600160a01b031661049a610560565b6001600160a01b0316146104df5760405162461bcd60e51b815260040180806020018281038252602c815260200180610714602c913960400191505060405180910390fd5b6001600160a01b038116600090815260016020526040902054349061050a908263ffffffff61064e16565b6001600160a01b038316600081815260016020908152604091829020939093558051848152905191927f2da466a7b24304f47e87fa2e1e5a81b9831ce54fec19055ce277ca2f39ba42c492918290030190a25050565b3390565b804710156105b9576040805162461bcd60e51b815260206004820152601d60248201527f416464726573733a20696e73756666696369656e742062616c616e6365000000604482015290519081900360640190fd5b6040516000906001600160a01b0384169083908381818185875af1925050503d8060008114610604576040519150601f19603f3d011682016040523d82523d6000602084013e610609565b606091505b50509050806106495760405162461bcd60e51b815260040180806020018281038252603a8152602001806106b0603a913960400191505060405180910390fd5b505050565b6000828201838110156106a8576040805162461bcd60e51b815260206004820152601b60248201527f536166654d6174683a206164646974696f6e206f766572666c6f770000000000604482015290519081900360640190fd5b939250505056fe416464726573733a20756e61626c6520746f2073656e642076616c75652c20726563697069656e74206d617920686176652072657665727465645365636f6e646172793a206e6577207072696d61727920697320746865207a65726f20616464726573735365636f6e646172793a2063616c6c6572206973206e6f7420746865207072696d617279206163636f756e74a265627a7a72315820632285d811df9109b8c4ea112d511ad9109fc4eb44345d9f4a4cfe607d8c759764736f6c63430005100032",
  "linkReferences": {},
  "deployedLinkReferences": {}
}