{
  "_format": "hh-sol-artifact-1",
  "contractName": "IncreasingPriceCrowdsaleImpl",
  "sourceName": "contracts/IDO_basedon_Openzeppelin/mocks/IncreasingPriceCrowdsaleImpl.sol",
  "abi": [
    {
      "inputs": [
        {
          "internalType": "uint256",
          "name": "openingTime",
          "type": "uint256"
        },
        {
          "internalType": "uint256",
          "name": "closingTime",
          "type": "uint256"
        },
        {
          "internalType": "address payable",
          "name": "wallet",
          "type": "address"
        },
        {
          "internalType": "contract IERC20",
          "name": "token",
          "type": "address"
        },
        {
          "internalType": "uint256",
          "name": "initialRate",
          "type": "uint256"
        },
        {
          "internalType": "uint256",
          "name": "finalRate",
          "type": "uint256"
        }
      ],
      "payable": false,
      "stateMutability": "nonpayable",
      "type": "constructor"
    },
    {
      "anonymous": false,
      "inputs": [
        {
          "indexed": false,
          "internalType": "uint256",
          "name": "prevClosingTime",
          "type": "uint256"
        },
        {
          "indexed": false,
          "internalType": "uint256",
          "name": "newClosingTime",
          "type": "uint256"
        }
      ],
      "name": "TimedCrowdsaleExtended",
      "type": "event"
    },
    {
      "anonymous": false,
      "inputs": [
        {
          "indexed": true,
          "internalType": "address",
          "name": "purchaser",
          "type": "address"
        },
        {
          "indexed": true,
          "internalType": "address",
          "name": "beneficiary",
          "type": "address"
        },
        {
          "indexed": false,
          "internalType": "uint256",
          "name": "value",
          "type": "uint256"
        },
        {
          "indexed": false,
          "internalType": "uint256",
          "name": "amount",
          "type": "uint256"
        }
      ],
      "name": "TokensPurchased",
      "type": "event"
    },
    {
      "payable": true,
      "stateMutability": "payable",
      "type": "fallback"
    },
    {
      "constant": false,
      "inputs": [
        {
          "internalType": "address",
          "name": "beneficiary",
          "type": "address"
        }
      ],
      "name": "buyTokens",
      "outputs": [],
      "payable": true,
      "stateMutability": "payable",
      "type": "function"
    },
    {
      "constant": true,
      "inputs": [],
      "name": "closingTime",
      "outputs": [
        {
          "internalType": "uint256",
          "name": "",
          "type": "uint256"
        }
      ],
      "payable": false,
      "stateMutability": "view",
      "type": "function"
    },
    {
      "constant": true,
      "inputs": [],
      "name": "finalRate",
      "outputs": [
        {
          "internalType": "uint256",
          "name": "",
          "type": "uint256"
        }
      ],
      "payable": false,
      "stateMutability": "view",
      "type": "function"
    },
    {
      "constant": true,
      "inputs": [],
      "name": "getCurrentRate",
      "outputs": [
        {
          "internalType": "uint256",
          "name": "",
          "type": "uint256"
        }
      ],
      "payable": false,
      "stateMutability": "view",
      "type": "function"
    },
    {
      "constant": true,
      "inputs": [],
      "name": "hasClosed",
      "outputs": [
        {
          "internalType": "bool",
          "name": "",
          "type": "bool"
        }
      ],
      "payable": false,
      "stateMutability": "view",
      "type": "function"
    },
    {
      "constant": true,
      "inputs": [],
      "name": "initialRate",
      "outputs": [
        {
          "internalType": "uint256",
          "name": "",
          "type": "uint256"
        }
      ],
      "payable": false,
      "stateMutability": "view",
      "type": "function"
    },
    {
      "constant": true,
      "inputs": [],
      "name": "isOpen",
      "outputs": [
        {
          "internalType": "bool",
          "name": "",
          "type": "bool"
        }
      ],
      "payable": false,
      "stateMutability": "view",
      "type": "function"
    },
    {
      "constant": true,
      "inputs": [],
      "name": "openingTime",
      "outputs": [
        {
          "internalType": "uint256",
          "name": "",
          "type": "uint256"
        }
      ],
      "payable": false,
      "stateMutability": "view",
      "type": "function"
    },
    {
      "constant": true,
      "inputs": [],
      "name": "rate",
      "outputs": [
        {
          "internalType": "uint256",
          "name": "",
          "type": "uint256"
        }
      ],
      "payable": false,
      "stateMutability": "view",
      "type": "function"
    },
    {
      "constant": true,
      "inputs": [],
      "name": "token",
      "outputs": [
        {
          "internalType": "contract IERC20",
          "name": "",
          "type": "address"
        }
      ],
      "payable": false,
      "stateMutability": "view",
      "type": "function"
    },
    {
      "constant": true,
      "inputs": [],
      "name": "wallet",
      "outputs": [
        {
          "internalType": "address payable",
          "name": "",
          "type": "address"
        }
      ],
      "payable": false,
      "stateMutability": "view",
      "type": "function"
    },
    {
      "constant": true,
      "inputs": [],
      "name": "weiRaised",
      "outputs": [
        {
          "internalType": "uint256",
          "name": "",
          "type": "uint256"
        }
      ],
      "payable": false,
      "stateMutability": "view",
      "type": "function"
    }
  ],
  "bytecode": "0x608060405234801561001057600080fd5b50604051610f6d380380610f6d833981810160405260c081101561003357600080fd5b508051602082015160408301516060840151608085015160a0909501516000805460ff19166001179055939492939192909181818787838888826100be576040805162461bcd60e51b815260206004820152601460248201527f43726f776473616c653a20726174652069732030000000000000000000000000604482015290519081900360640190fd5b6001600160a01b0382166101035760405162461bcd60e51b8152600401808060200182810382526025815260200180610f486025913960400191505060405180910390fd5b6001600160a01b0381166101485760405162461bcd60e51b8152600401808060200182810382526024815260200180610f246024913960400191505060405180910390fd5b600292909255600180546001600160a01b039283166001600160a01b0319909116179055600080549190921661010002610100600160a81b0319909116179055428210156101c75760405162461bcd60e51b8152600401808060200182810382526033815260200180610e4c6033913960400191505060405180910390fd5b8181116102055760405162461bcd60e51b8152600401808060200182810382526037815260200180610ec46037913960400191505060405180910390fd5b6004919091556005558061024a5760405162461bcd60e51b8152600401808060200182810382526029815260200180610efb6029913960400191505060405180910390fd5b8082116102885760405162461bcd60e51b8152600401808060200182810382526045815260200180610e7f6045913960600191505060405180910390fd5b600691909155600755505050505050610ba6806102a66000396000f3fe6080604052600436106100c75760003560e01c8063521eb27311610074578063ec8ac4d81161004e578063ec8ac4d8146101d8578063f7fb07b0146101fe578063fc0c546a14610213576100c7565b8063521eb2731461017d5780639e51051f146101ae578063b7a8807c146101c3576100c7565b80634042b66f116100a55780634042b66f1461013e57806347535d7b146101535780634b6753bc14610168576100c7565b80631515bc2b146100d957806321106109146101025780632c4e722e14610129575b6100d76100d2610228565b61022d565b005b3480156100e557600080fd5b506100ee61034f565b604080519115158252519081900360200190f35b34801561010e57600080fd5b50610117610357565b60408051918252519081900360200190f35b34801561013557600080fd5b5061011761035d565b34801561014a57600080fd5b50610117610396565b34801561015f57600080fd5b506100ee61039c565b34801561017457600080fd5b506101176103b7565b34801561018957600080fd5b506101926103bd565b604080516001600160a01b039092168252519081900360200190f35b3480156101ba57600080fd5b506101176103cc565b3480156101cf57600080fd5b506101176103d2565b6100d7600480360360208110156101ee57600080fd5b50356001600160a01b031661022d565b34801561020a57600080fd5b506101176103d8565b34801561021f57600080fd5b50610192610482565b335b90565b60005460ff16610284576040805162461bcd60e51b815260206004820152601f60248201527f5265656e7472616e637947756172643a207265656e7472616e742063616c6c00604482015290519081900360640190fd5b6000805460ff19169055346102998282610496565b60006102a4826104fd565b6003549091506102ba908363ffffffff61052116565b6003556102c78382610584565b826001600160a01b03166102d9610228565b6001600160a01b03167f6faf93231a456e552dbc9961f58d9713ee4f2e69d15f1975b050ef0911053a7b8484604051808381526020018281526020019250505060405180910390a361032b83836104f9565b61033361058e565b61033d83836104f9565b50506000805460ff1916600117905550565b600554421190565b60075490565b600060405162461bcd60e51b8152600401808060200182810382526027815260200180610ad66027913960400191505060405180910390fd5b60035490565b600060045442101580156103b257506005544211155b905090565b60055490565b6001546001600160a01b031690565b60065490565b60045490565b60006103e261039c565b6103ee5750600061022a565b60006104086103fb6103d2565b429063ffffffff6105ca16565b9050600061042b6104176103d2565b61041f6103b7565b9063ffffffff6105ca16565b905060006104466007546006546105ca90919063ffffffff16565b905061047a61046b8361045f868563ffffffff61060c16565b9063ffffffff61066516565b6006549063ffffffff6105ca16565b935050505090565b60005461010090046001600160a01b031690565b61049e61039c565b6104ef576040805162461bcd60e51b815260206004820152601860248201527f54696d656443726f776473616c653a206e6f74206f70656e0000000000000000604482015290519081900360640190fd5b6104f982826106a7565b5050565b6000806105086103d8565b905061051a818463ffffffff61060c16565b9392505050565b60008282018381101561057b576040805162461bcd60e51b815260206004820152601b60248201527f536166654d6174683a206164646974696f6e206f766572666c6f770000000000604482015290519081900360640190fd5b90505b92915050565b6104f9828261073e565b6001546040516001600160a01b03909116903480156108fc02916000818181858888f193505050501580156105c7573d6000803e3d6000fd5b50565b600061057b83836040518060400160405280601e81526020017f536166654d6174683a207375627472616374696f6e206f766572666c6f77000081525061075a565b60008261061b5750600061057e565b8282028284828161062857fe5b041461057b5760405162461bcd60e51b8152600401808060200182810382526021815260200180610afd6021913960400191505060405180910390fd5b600061057b83836040518060400160405280601a81526020017f536166654d6174683a206469766973696f6e206279207a65726f0000000000008152506107f1565b6001600160a01b0382166106ec5760405162461bcd60e51b815260040180806020018281038252602a815260200180610b1e602a913960400191505060405180910390fd5b806104f9576040805162461bcd60e51b815260206004820152601960248201527f43726f776473616c653a20776569416d6f756e74206973203000000000000000604482015290519081900360640190fd5b6000546104f99061010090046001600160a01b03168383610856565b600081848411156107e95760405162461bcd60e51b81526004018080602001828103825283818151815260200191508051906020019080838360005b838110156107ae578181015183820152602001610796565b50505050905090810190601f1680156107db5780820380516001836020036101000a031916815260200191505b509250505060405180910390fd5b505050900390565b600081836108405760405162461bcd60e51b81526020600482018181528351602484015283519092839260449091019190850190808383600083156107ae578181015183820152602001610796565b50600083858161084c57fe5b0495945050505050565b604080516001600160a01b038416602482015260448082018490528251808303909101815260649091019091526020810180517bffffffffffffffffffffffffffffffffffffffffffffffffffffffff167fa9059cbb000000000000000000000000000000000000000000000000000000001790526108d69084906108db565b505050565b6108ed826001600160a01b0316610a99565b61093e576040805162461bcd60e51b815260206004820152601f60248201527f5361666545524332303a2063616c6c20746f206e6f6e2d636f6e747261637400604482015290519081900360640190fd5b60006060836001600160a01b0316836040518082805190602001908083835b6020831061097c5780518252601f19909201916020918201910161095d565b6001836020036101000a0380198251168184511680821785525050505050509050019150506000604051808303816000865af19150503d80600081146109de576040519150601f19603f3d011682016040523d82523d6000602084013e6109e3565b606091505b509150915081610a3a576040805162461bcd60e51b815260206004820181905260248201527f5361666545524332303a206c6f772d6c6576656c2063616c6c206661696c6564604482015290519081900360640190fd5b805115610a9357808060200190516020811015610a5657600080fd5b5051610a935760405162461bcd60e51b815260040180806020018281038252602a815260200180610b48602a913960400191505060405180910390fd5b50505050565b6000813f7fc5d2460186f7233c927e7db2dcc703c0e500b653ca82273b7bfad8045d85a470818114801590610acd57508115155b94935050505056fe496e6372656173696e67507269636543726f776473616c653a207261746528292063616c6c6564536166654d6174683a206d756c7469706c69636174696f6e206f766572666c6f7743726f776473616c653a2062656e656669636961727920697320746865207a65726f20616464726573735361666545524332303a204552433230206f7065726174696f6e20646964206e6f742073756363656564a265627a7a723158206378b64857ec6a2425b4087570a64366cfdc303decd693a31a5e45f775d4c21764736f6c6343000510003254696d656443726f776473616c653a206f70656e696e672074696d65206973206265666f72652063757272656e742074696d65496e6372656173696e67507269636543726f776473616c653a20696e697469616c2072617465206973206e6f742067726561746572207468616e2066696e616c207261746554696d656443726f776473616c653a206f70656e696e672074696d65206973206e6f74206265666f726520636c6f73696e672074696d65496e6372656173696e67507269636543726f776473616c653a2066696e616c2072617465206973203043726f776473616c653a20746f6b656e20697320746865207a65726f206164647265737343726f776473616c653a2077616c6c657420697320746865207a65726f2061646472657373",
  "linkReferences": {},
  "deployedLinkReferences": {}
}