{
  "contracts/IDO_basedon_Openzeppelin/mocks/ERC165CheckerMock.sol": {
    "ERC165CheckerMock": {
      "abi": [
        {
          "constant": true,
          "inputs": [
            {
              "internalType": "address",
              "name": "account",
              "type": "address"
            },
            {
              "internalType": "bytes4[]",
              "name": "interfaceIds",
              "type": "bytes4[]"
            }
          ],
          "name": "supportsAllInterfaces",
          "outputs": [
            {
              "internalType": "bool",
              "name": "",
              "type": "bool"
            }
          ],
          "payable": false,
          "stateMutability": "view",
          "type": "function"
        },
        {
          "constant": true,
          "inputs": [
            {
              "internalType": "address",
              "name": "account",
              "type": "address"
            }
          ],
          "name": "supportsERC165",
          "outputs": [
            {
              "internalType": "bool",
              "name": "",
              "type": "bool"
            }
          ],
          "payable": false,
          "stateMutability": "view",
          "type": "function"
        },
        {
          "constant": true,
          "inputs": [
            {
              "internalType": "address",
              "name": "account",
              "type": "address"
            },
            {
              "internalType": "bytes4",
              "name": "interfaceId",
              "type": "bytes4"
            }
          ],
          "name": "supportsInterface",
          "outputs": [
            {
              "internalType": "bool",
              "name": "",
              "type": "bool"
            }
          ],
          "payable": false,
          "stateMutability": "view",
          "type": "function"
        }
      ],
      "evm": {
        "bytecode": {
          "linkReferences": {},
          "object": "608060405234801561001057600080fd5b50610453806100206000396000f3fe608060405234801561001057600080fd5b50600436106100415760003560e01c80634b9dd90414610046578063c398a9251461010d578063d905700714610133575b600080fd5b6100f96004803603604081101561005c57600080fd5b6001600160a01b03823516919081019060408101602082013564010000000081111561008757600080fd5b82018360208201111561009957600080fd5b803590602001918460208302840111640100000000831117156100bb57600080fd5b919080806020026020016040519081016040528093929190818152602001838360200280828437600092019190915250929550610181945050505050565b604080519115158252519081900360200190f35b6100f96004803603602081101561012357600080fd5b50356001600160a01b03166101a5565b6100f96004803603604081101561014957600080fd5b5080356001600160a01b031690602001357fffffffff00000000000000000000000000000000000000000000000000000000166101b9565b600061019c6001600160a01b0384168363ffffffff6101d416565b90505b92915050565b600061019f826001600160a01b0316610234565b600061019c6001600160a01b0384168363ffffffff61027f16565b60006101df83610234565b6101eb5750600061019f565b60005b825181101561022a576102148484838151811061020757fe5b6020026020010151610297565b61022257600091505061019f565b6001016101ee565b5060019392505050565b6000610247826301ffc9a760e01b610297565b801561019f5750610278827fffffffff00000000000000000000000000000000000000000000000000000000610297565b1592915050565b600061028a83610234565b801561019c575061019c83835b60008060006102a685856102bd565b915091508180156102b45750805b95945050505050565b604080517fffffffff00000000000000000000000000000000000000000000000000000000831660248083019190915282518083039091018152604490910182526020810180517bffffffffffffffffffffffffffffffffffffffffffffffffffffffff166301ffc9a760e01b1781529151815160009384939284926060926001600160a01b038a169261753092879282918083835b602083106103725780518252601f199092019160209182019101610353565b6001836020036101000a0380198251168184511680821785525050505050509050019150506000604051808303818686fa925050503d80600081146103d3576040519150601f19603f3d011682016040523d82523d6000602084013e6103d8565b606091505b50915091506020815110156103f65760008094509450505050610417565b8181806020019051602081101561040c57600080fd5b505190955093505050505b925092905056fea265627a7a7231582070838c80d63918734972851f6a8c95529446de45630a3767b286e056abfecb0364736f6c63430005100032",
          "opcodes": "PUSH1 0x80 PUSH1 0x40 MSTORE CALLVALUE DUP1 ISZERO PUSH2 0x10 JUMPI PUSH1 0x0 DUP1 REVERT JUMPDEST POP PUSH2 0x453 DUP1 PUSH2 0x20 PUSH1 0x0 CODECOPY PUSH1 0x0 RETURN INVALID PUSH1 0x80 PUSH1 0x40 MSTORE CALLVALUE DUP1 ISZERO PUSH2 0x10 JUMPI PUSH1 0x0 DUP1 REVERT JUMPDEST POP PUSH1 0x4 CALLDATASIZE LT PUSH2 0x41 JUMPI PUSH1 0x0 CALLDATALOAD PUSH1 0xE0 SHR DUP1 PUSH4 0x4B9DD904 EQ PUSH2 0x46 JUMPI DUP1 PUSH4 0xC398A925 EQ PUSH2 0x10D JUMPI DUP1 PUSH4 0xD9057007 EQ PUSH2 0x133 JUMPI JUMPDEST PUSH1 0x0 DUP1 REVERT JUMPDEST PUSH2 0xF9 PUSH1 0x4 DUP1 CALLDATASIZE SUB PUSH1 0x40 DUP2 LT ISZERO PUSH2 0x5C JUMPI PUSH1 0x0 DUP1 REVERT JUMPDEST PUSH1 0x1 PUSH1 0x1 PUSH1 0xA0 SHL SUB DUP3 CALLDATALOAD AND SWAP2 SWAP1 DUP2 ADD SWAP1 PUSH1 0x40 DUP2 ADD PUSH1 0x20 DUP3 ADD CALLDATALOAD PUSH5 0x100000000 DUP2 GT ISZERO PUSH2 0x87 JUMPI PUSH1 0x0 DUP1 REVERT JUMPDEST DUP3 ADD DUP4 PUSH1 0x20 DUP3 ADD GT ISZERO PUSH2 0x99 JUMPI PUSH1 0x0 DUP1 REVERT JUMPDEST DUP1 CALLDATALOAD SWAP1 PUSH1 0x20 ADD SWAP2 DUP5 PUSH1 0x20 DUP4 MUL DUP5 ADD GT PUSH5 0x100000000 DUP4 GT OR ISZERO PUSH2 0xBB JUMPI PUSH1 0x0 DUP1 REVERT JUMPDEST SWAP2 SWAP1 DUP1 DUP1 PUSH1 0x20 MUL PUSH1 0x20 ADD PUSH1 0x40 MLOAD SWAP1 DUP2 ADD PUSH1 0x40 MSTORE DUP1 SWAP4 SWAP3 SWAP2 SWAP1 DUP2 DUP2 MSTORE PUSH1 0x20 ADD DUP4 DUP4 PUSH1 0x20 MUL DUP1 DUP3 DUP5 CALLDATACOPY PUSH1 0x0 SWAP3 ADD SWAP2 SWAP1 SWAP2 MSTORE POP SWAP3 SWAP6 POP PUSH2 0x181 SWAP5 POP POP POP POP POP JUMP JUMPDEST PUSH1 0x40 DUP1 MLOAD SWAP2 ISZERO ISZERO DUP3 MSTORE MLOAD SWAP1 DUP2 SWAP1 SUB PUSH1 0x20 ADD SWAP1 RETURN JUMPDEST PUSH2 0xF9 PUSH1 0x4 DUP1 CALLDATASIZE SUB PUSH1 0x20 DUP2 LT ISZERO PUSH2 0x123 JUMPI PUSH1 0x0 DUP1 REVERT JUMPDEST POP CALLDATALOAD PUSH1 0x1 PUSH1 0x1 PUSH1 0xA0 SHL SUB AND PUSH2 0x1A5 JUMP JUMPDEST PUSH2 0xF9 PUSH1 0x4 DUP1 CALLDATASIZE SUB PUSH1 0x40 DUP2 LT ISZERO PUSH2 0x149 JUMPI PUSH1 0x0 DUP1 REVERT JUMPDEST POP DUP1 CALLDATALOAD PUSH1 0x1 PUSH1 0x1 PUSH1 0xA0 SHL SUB AND SWAP1 PUSH1 0x20 ADD CALLDATALOAD PUSH32 0xFFFFFFFF00000000000000000000000000000000000000000000000000000000 AND PUSH2 0x1B9 JUMP JUMPDEST PUSH1 0x0 PUSH2 0x19C PUSH1 0x1 PUSH1 0x1 PUSH1 0xA0 SHL SUB DUP5 AND DUP4 PUSH4 0xFFFFFFFF PUSH2 0x1D4 AND JUMP JUMPDEST SWAP1 POP JUMPDEST SWAP3 SWAP2 POP POP JUMP JUMPDEST PUSH1 0x0 PUSH2 0x19F DUP3 PUSH1 0x1 PUSH1 0x1 PUSH1 0xA0 SHL SUB AND PUSH2 0x234 JUMP JUMPDEST PUSH1 0x0 PUSH2 0x19C PUSH1 0x1 PUSH1 0x1 PUSH1 0xA0 SHL SUB DUP5 AND DUP4 PUSH4 0xFFFFFFFF PUSH2 0x27F AND JUMP JUMPDEST PUSH1 0x0 PUSH2 0x1DF DUP4 PUSH2 0x234 JUMP JUMPDEST PUSH2 0x1EB JUMPI POP PUSH1 0x0 PUSH2 0x19F JUMP JUMPDEST PUSH1 0x0 JUMPDEST DUP3 MLOAD DUP2 LT ISZERO PUSH2 0x22A JUMPI PUSH2 0x214 DUP5 DUP5 DUP4 DUP2 MLOAD DUP2 LT PUSH2 0x207 JUMPI INVALID JUMPDEST PUSH1 0x20 MUL PUSH1 0x20 ADD ADD MLOAD PUSH2 0x297 JUMP JUMPDEST PUSH2 0x222 JUMPI PUSH1 0x0 SWAP2 POP POP PUSH2 0x19F JUMP JUMPDEST PUSH1 0x1 ADD PUSH2 0x1EE JUMP JUMPDEST POP PUSH1 0x1 SWAP4 SWAP3 POP POP POP JUMP JUMPDEST PUSH1 0x0 PUSH2 0x247 DUP3 PUSH4 0x1FFC9A7 PUSH1 0xE0 SHL PUSH2 0x297 JUMP JUMPDEST DUP1 ISZERO PUSH2 0x19F JUMPI POP PUSH2 0x278 DUP3 PUSH32 0xFFFFFFFF00000000000000000000000000000000000000000000000000000000 PUSH2 0x297 JUMP JUMPDEST ISZERO SWAP3 SWAP2 POP POP JUMP JUMPDEST PUSH1 0x0 PUSH2 0x28A DUP4 PUSH2 0x234 JUMP JUMPDEST DUP1 ISZERO PUSH2 0x19C JUMPI POP PUSH2 0x19C DUP4 DUP4 JUMPDEST PUSH1 0x0 DUP1 PUSH1 0x0 PUSH2 0x2A6 DUP6 DUP6 PUSH2 0x2BD JUMP JUMPDEST SWAP2 POP SWAP2 POP DUP2 DUP1 ISZERO PUSH2 0x2B4 JUMPI POP DUP1 JUMPDEST SWAP6 SWAP5 POP POP POP POP POP JUMP JUMPDEST PUSH1 0x40 DUP1 MLOAD PUSH32 0xFFFFFFFF00000000000000000000000000000000000000000000000000000000 DUP4 AND PUSH1 0x24 DUP1 DUP4 ADD SWAP2 SWAP1 SWAP2 MSTORE DUP3 MLOAD DUP1 DUP4 SUB SWAP1 SWAP2 ADD DUP2 MSTORE PUSH1 0x44 SWAP1 SWAP2 ADD DUP3 MSTORE PUSH1 0x20 DUP2 ADD DUP1 MLOAD PUSH28 0xFFFFFFFFFFFFFFFFFFFFFFFFFFFFFFFFFFFFFFFFFFFFFFFFFFFFFFFF AND PUSH4 0x1FFC9A7 PUSH1 0xE0 SHL OR DUP2 MSTORE SWAP2 MLOAD DUP2 MLOAD PUSH1 0x0 SWAP4 DUP5 SWAP4 SWAP3 DUP5 SWAP3 PUSH1 0x60 SWAP3 PUSH1 0x1 PUSH1 0x1 PUSH1 0xA0 SHL SUB DUP11 AND SWAP3 PUSH2 0x7530 SWAP3 DUP8 SWAP3 DUP3 SWAP2 DUP1 DUP4 DUP4 JUMPDEST PUSH1 0x20 DUP4 LT PUSH2 0x372 JUMPI DUP1 MLOAD DUP3 MSTORE PUSH1 0x1F NOT SWAP1 SWAP3 ADD SWAP2 PUSH1 0x20 SWAP2 DUP3 ADD SWAP2 ADD PUSH2 0x353 JUMP JUMPDEST PUSH1 0x1 DUP4 PUSH1 0x20 SUB PUSH2 0x100 EXP SUB DUP1 NOT DUP3 MLOAD AND DUP2 DUP5 MLOAD AND DUP1 DUP3 OR DUP6 MSTORE POP POP POP POP POP POP SWAP1 POP ADD SWAP2 POP POP PUSH1 0x0 PUSH1 0x40 MLOAD DUP1 DUP4 SUB DUP2 DUP7 DUP7 STATICCALL SWAP3 POP POP POP RETURNDATASIZE DUP1 PUSH1 0x0 DUP2 EQ PUSH2 0x3D3 JUMPI PUSH1 0x40 MLOAD SWAP2 POP PUSH1 0x1F NOT PUSH1 0x3F RETURNDATASIZE ADD AND DUP3 ADD PUSH1 0x40 MSTORE RETURNDATASIZE DUP3 MSTORE RETURNDATASIZE PUSH1 0x0 PUSH1 0x20 DUP5 ADD RETURNDATACOPY PUSH2 0x3D8 JUMP JUMPDEST PUSH1 0x60 SWAP2 POP JUMPDEST POP SWAP2 POP SWAP2 POP PUSH1 0x20 DUP2 MLOAD LT ISZERO PUSH2 0x3F6 JUMPI PUSH1 0x0 DUP1 SWAP5 POP SWAP5 POP POP POP POP PUSH2 0x417 JUMP JUMPDEST DUP2 DUP2 DUP1 PUSH1 0x20 ADD SWAP1 MLOAD PUSH1 0x20 DUP2 LT ISZERO PUSH2 0x40C JUMPI PUSH1 0x0 DUP1 REVERT JUMPDEST POP MLOAD SWAP1 SWAP6 POP SWAP4 POP POP POP POP JUMPDEST SWAP3 POP SWAP3 SWAP1 POP JUMP INVALID LOG2 PUSH6 0x627A7A723158 KECCAK256 PUSH17 0x838C80D63918734972851F6A8C95529446 0xDE GASLIMIT PUSH4 0xA3767B2 DUP7 0xE0 JUMP 0xAB INVALID 0xCB SUB PUSH5 0x736F6C6343 STOP SDIV LT STOP ORIGIN "
        },
        "methodIdentifiers": {
          "supportsAllInterfaces(address,bytes4[])": "4b9dd904",
          "supportsERC165(address)": "c398a925",
          "supportsInterface(address,bytes4)": "d9057007"
        }
      }
    }
  }
}