{
  "contracts/IDO_basedon_Openzeppelin/IDO2_FLattened.sol": {
    "__unstable__TokenVault": {
      "abi": [
        {
          "anonymous": false,
          "inputs": [
            {
              "indexed": false,
              "internalType": "address",
              "name": "recipient",
              "type": "address"
            }
          ],
          "name": "PrimaryTransferred",
          "type": "event"
        },
        {
          "constant": true,
          "inputs": [],
          "name": "primary",
          "outputs": [
            {
              "internalType": "address",
              "name": "",
              "type": "address"
            }
          ],
          "payable": false,
          "stateMutability": "view",
          "type": "function"
        },
        {
          "constant": false,
          "inputs": [
            {
              "internalType": "contract IERC20",
              "name": "token",
              "type": "address"
            },
            {
              "internalType": "address",
              "name": "to",
              "type": "address"
            },
            {
              "internalType": "uint256",
              "name": "amount",
              "type": "uint256"
            }
          ],
          "name": "transfer",
          "outputs": [],
          "payable": false,
          "stateMutability": "nonpayable",
          "type": "function"
        },
        {
          "constant": false,
          "inputs": [
            {
              "internalType": "address",
              "name": "recipient",
              "type": "address"
            }
          ],
          "name": "transferPrimary",
          "outputs": [],
          "payable": false,
          "stateMutability": "nonpayable",
          "type": "function"
        }
      ],
      "evm": {
        "bytecode": {
          "linkReferences": {},
          "object": "608060405260006100176001600160e01b0361007216565b600080546001600160a01b0383166001600160a01b0319909116811790915560408051918252519192507f4101e71e974f68df5e9730cc223280b41654676bbb052cdcc735c3337e64d2d9919081900360200190a150610076565b3390565b61035a806100856000396000f3fe608060405234801561001057600080fd5b50600436106100415760003560e01c80632348238c14610046578063beabacc81461006e578063c6dbdf61146100a4575b600080fd5b61006c6004803603602081101561005c57600080fd5b50356001600160a01b03166100c8565b005b61006c6004803603606081101561008457600080fd5b506001600160a01b038135811691602081013590911690604001356101d2565b6100ac6102bc565b604080516001600160a01b039092168252519081900360200190f35b6000546001600160a01b03166100dc6102cb565b6001600160a01b0316146101215760405162461bcd60e51b815260040180806020018281038252602c8152602001806102fa602c913960400191505060405180910390fd5b6001600160a01b0381166101665760405162461bcd60e51b815260040180806020018281038252602a8152602001806102d0602a913960400191505060405180910390fd5b600080546001600160a01b0383167fffffffffffffffffffffffff0000000000000000000000000000000000000000909116811790915560408051918252517f4101e71e974f68df5e9730cc223280b41654676bbb052cdcc735c3337e64d2d99181900360200190a150565b6000546001600160a01b03166101e66102cb565b6001600160a01b03161461022b5760405162461bcd60e51b815260040180806020018281038252602c8152602001806102fa602c913960400191505060405180910390fd5b826001600160a01b031663a9059cbb83836040518363ffffffff1660e01b815260040180836001600160a01b03166001600160a01b0316815260200182815260200192505050602060405180830381600087803b15801561028b57600080fd5b505af115801561029f573d6000803e3d6000fd5b505050506040513d60208110156102b557600080fd5b5050505050565b6000546001600160a01b031690565b339056fe5365636f6e646172793a206e6577207072696d61727920697320746865207a65726f20616464726573735365636f6e646172793a2063616c6c6572206973206e6f7420746865207072696d617279206163636f756e74a265627a7a72315820295b994da806ed730eeefca3472331f441508e81fffed185f5360e5698d75f4064736f6c63430005100032",
          "opcodes": "PUSH1 0x80 PUSH1 0x40 MSTORE PUSH1 0x0 PUSH2 0x17 PUSH1 0x1 PUSH1 0x1 PUSH1 0xE0 SHL SUB PUSH2 0x72 AND JUMP JUMPDEST PUSH1 0x0 DUP1 SLOAD PUSH1 0x1 PUSH1 0x1 PUSH1 0xA0 SHL SUB DUP4 AND PUSH1 0x1 PUSH1 0x1 PUSH1 0xA0 SHL SUB NOT SWAP1 SWAP2 AND DUP2 OR SWAP1 SWAP2 SSTORE PUSH1 0x40 DUP1 MLOAD SWAP2 DUP3 MSTORE MLOAD SWAP2 SWAP3 POP PUSH32 0x4101E71E974F68DF5E9730CC223280B41654676BBB052CDCC735C3337E64D2D9 SWAP2 SWAP1 DUP2 SWAP1 SUB PUSH1 0x20 ADD SWAP1 LOG1 POP PUSH2 0x76 JUMP JUMPDEST CALLER SWAP1 JUMP JUMPDEST PUSH2 0x35A DUP1 PUSH2 0x85 PUSH1 0x0 CODECOPY PUSH1 0x0 RETURN INVALID PUSH1 0x80 PUSH1 0x40 MSTORE CALLVALUE DUP1 ISZERO PUSH2 0x10 JUMPI PUSH1 0x0 DUP1 REVERT JUMPDEST POP PUSH1 0x4 CALLDATASIZE LT PUSH2 0x41 JUMPI PUSH1 0x0 CALLDATALOAD PUSH1 0xE0 SHR DUP1 PUSH4 0x2348238C EQ PUSH2 0x46 JUMPI DUP1 PUSH4 0xBEABACC8 EQ PUSH2 0x6E JUMPI DUP1 PUSH4 0xC6DBDF61 EQ PUSH2 0xA4 JUMPI JUMPDEST PUSH1 0x0 DUP1 REVERT JUMPDEST PUSH2 0x6C PUSH1 0x4 DUP1 CALLDATASIZE SUB PUSH1 0x20 DUP2 LT ISZERO PUSH2 0x5C JUMPI PUSH1 0x0 DUP1 REVERT JUMPDEST POP CALLDATALOAD PUSH1 0x1 PUSH1 0x1 PUSH1 0xA0 SHL SUB AND PUSH2 0xC8 JUMP JUMPDEST STOP JUMPDEST PUSH2 0x6C PUSH1 0x4 DUP1 CALLDATASIZE SUB PUSH1 0x60 DUP2 LT ISZERO PUSH2 0x84 JUMPI PUSH1 0x0 DUP1 REVERT JUMPDEST POP PUSH1 0x1 PUSH1 0x1 PUSH1 0xA0 SHL SUB DUP2 CALLDATALOAD DUP2 AND SWAP2 PUSH1 0x20 DUP2 ADD CALLDATALOAD SWAP1 SWAP2 AND SWAP1 PUSH1 0x40 ADD CALLDATALOAD PUSH2 0x1D2 JUMP JUMPDEST PUSH2 0xAC PUSH2 0x2BC JUMP JUMPDEST PUSH1 0x40 DUP1 MLOAD PUSH1 0x1 PUSH1 0x1 PUSH1 0xA0 SHL SUB SWAP1 SWAP3 AND DUP3 MSTORE MLOAD SWAP1 DUP2 SWAP1 SUB PUSH1 0x20 ADD SWAP1 RETURN JUMPDEST PUSH1 0x0 SLOAD PUSH1 0x1 PUSH1 0x1 PUSH1 0xA0 SHL SUB AND PUSH2 0xDC PUSH2 0x2CB JUMP JUMPDEST PUSH1 0x1 PUSH1 0x1 PUSH1 0xA0 SHL SUB AND EQ PUSH2 0x121 JUMPI PUSH1 0x40 MLOAD PUSH3 0x461BCD PUSH1 0xE5 SHL DUP2 MSTORE PUSH1 0x4 ADD DUP1 DUP1 PUSH1 0x20 ADD DUP3 DUP2 SUB DUP3 MSTORE PUSH1 0x2C DUP2 MSTORE PUSH1 0x20 ADD DUP1 PUSH2 0x2FA PUSH1 0x2C SWAP2 CODECOPY PUSH1 0x40 ADD SWAP2 POP POP PUSH1 0x40 MLOAD DUP1 SWAP2 SUB SWAP1 REVERT JUMPDEST PUSH1 0x1 PUSH1 0x1 PUSH1 0xA0 SHL SUB DUP2 AND PUSH2 0x166 JUMPI PUSH1 0x40 MLOAD PUSH3 0x461BCD PUSH1 0xE5 SHL DUP2 MSTORE PUSH1 0x4 ADD DUP1 DUP1 PUSH1 0x20 ADD DUP3 DUP2 SUB DUP3 MSTORE PUSH1 0x2A DUP2 MSTORE PUSH1 0x20 ADD DUP1 PUSH2 0x2D0 PUSH1 0x2A SWAP2 CODECOPY PUSH1 0x40 ADD SWAP2 POP POP PUSH1 0x40 MLOAD DUP1 SWAP2 SUB SWAP1 REVERT JUMPDEST PUSH1 0x0 DUP1 SLOAD PUSH1 0x1 PUSH1 0x1 PUSH1 0xA0 SHL SUB DUP4 AND PUSH32 0xFFFFFFFFFFFFFFFFFFFFFFFF0000000000000000000000000000000000000000 SWAP1 SWAP2 AND DUP2 OR SWAP1 SWAP2 SSTORE PUSH1 0x40 DUP1 MLOAD SWAP2 DUP3 MSTORE MLOAD PUSH32 0x4101E71E974F68DF5E9730CC223280B41654676BBB052CDCC735C3337E64D2D9 SWAP2 DUP2 SWAP1 SUB PUSH1 0x20 ADD SWAP1 LOG1 POP JUMP JUMPDEST PUSH1 0x0 SLOAD PUSH1 0x1 PUSH1 0x1 PUSH1 0xA0 SHL SUB AND PUSH2 0x1E6 PUSH2 0x2CB JUMP JUMPDEST PUSH1 0x1 PUSH1 0x1 PUSH1 0xA0 SHL SUB AND EQ PUSH2 0x22B JUMPI PUSH1 0x40 MLOAD PUSH3 0x461BCD PUSH1 0xE5 SHL DUP2 MSTORE PUSH1 0x4 ADD DUP1 DUP1 PUSH1 0x20 ADD DUP3 DUP2 SUB DUP3 MSTORE PUSH1 0x2C DUP2 MSTORE PUSH1 0x20 ADD DUP1 PUSH2 0x2FA PUSH1 0x2C SWAP2 CODECOPY PUSH1 0x40 ADD SWAP2 POP POP PUSH1 0x40 MLOAD DUP1 SWAP2 SUB SWAP1 REVERT JUMPDEST DUP3 PUSH1 0x1 PUSH1 0x1 PUSH1 0xA0 SHL SUB AND PUSH4 0xA9059CBB DUP4 DUP4 PUSH1 0x40 MLOAD DUP4 PUSH4 0xFFFFFFFF AND PUSH1 0xE0 SHL DUP2 MSTORE PUSH1 0x4 ADD DUP1 DUP4 PUSH1 0x1 PUSH1 0x1 PUSH1 0xA0 SHL SUB AND PUSH1 0x1 PUSH1 0x1 PUSH1 0xA0 SHL SUB AND DUP2 MSTORE PUSH1 0x20 ADD DUP3 DUP2 MSTORE PUSH1 0x20 ADD SWAP3 POP POP POP PUSH1 0x20 PUSH1 0x40 MLOAD DUP1 DUP4 SUB DUP2 PUSH1 0x0 DUP8 DUP1 EXTCODESIZE ISZERO DUP1 ISZERO PUSH2 0x28B JUMPI PUSH1 0x0 DUP1 REVERT JUMPDEST POP GAS CALL ISZERO DUP1 ISZERO PUSH2 0x29F JUMPI RETURNDATASIZE PUSH1 0x0 DUP1 RETURNDATACOPY RETURNDATASIZE PUSH1 0x0 REVERT JUMPDEST POP POP POP POP PUSH1 0x40 MLOAD RETURNDATASIZE PUSH1 0x20 DUP2 LT ISZERO PUSH2 0x2B5 JUMPI PUSH1 0x0 DUP1 REVERT JUMPDEST POP POP POP POP POP JUMP JUMPDEST PUSH1 0x0 SLOAD PUSH1 0x1 PUSH1 0x1 PUSH1 0xA0 SHL SUB AND SWAP1 JUMP JUMPDEST CALLER SWAP1 JUMP INVALID MSTORE8 PUSH6 0x636F6E646172 PUSH26 0x3A206E6577207072696D61727920697320746865207A65726F20 PUSH2 0x6464 PUSH19 0x6573735365636F6E646172793A2063616C6C65 PUSH19 0x206973206E6F7420746865207072696D617279 KECCAK256 PUSH2 0x6363 PUSH16 0x756E74A265627A7A72315820295B994D 0xA8 MOD 0xED PUSH20 0xEEEFCA3472331F441508E81FFFED185F5360E56 SWAP9 0xD7 0x5F BLOCKHASH PUSH5 0x736F6C6343 STOP SDIV LT STOP ORIGIN "
        },
        "methodIdentifiers": {
          "primary()": "c6dbdf61",
          "transfer(address,address,uint256)": "beabacc8",
          "transferPrimary(address)": "2348238c"
        }
      }
    }
  }
}