{
  "contracts/IDO.sol": {
    "IDO": {
      "abi": [
        {
          "inputs": [
            {
              "internalType": "address",
              "name": "_projectToken",
              "type": "address"
            },
            {
              "internalType": "address",
              "name": "_tradeToken",
              "type": "address"
            },
            {
              "internalType": "uint256",
              "name": "_goal",
              "type": "uint256"
            }
          ],
          "stateMutability": "nonpayable",
          "type": "constructor"
        },
        {
          "anonymous": false,
          "inputs": [
            {
              "indexed": true,
              "internalType": "address",
              "name": "previousOwner",
              "type": "address"
            },
            {
              "indexed": true,
              "internalType": "address",
              "name": "newOwner",
              "type": "address"
            }
          ],
          "name": "OwnershipTransferred",
          "type": "event"
        },
        {
          "inputs": [
            {
              "internalType": "uint256",
              "name": "amount",
              "type": "uint256"
            }
          ],
          "name": "buy",
          "outputs": [
            {
              "internalType": "bool",
              "name": "success",
              "type": "bool"
            }
          ],
          "stateMutability": "payable",
          "type": "function"
        },
        {
          "inputs": [],
          "name": "claim",
          "outputs": [
            {
              "internalType": "bool",
              "name": "success",
              "type": "bool"
            }
          ],
          "stateMutability": "payable",
          "type": "function"
        },
        {
          "inputs": [],
          "name": "getOwner",
          "outputs": [
            {
              "internalType": "address",
              "name": "",
              "type": "address"
            }
          ],
          "stateMutability": "view",
          "type": "function"
        },
        {
          "inputs": [],
          "name": "getRatio",
          "outputs": [
            {
              "internalType": "uint256",
              "name": "",
              "type": "uint256"
            }
          ],
          "stateMutability": "view",
          "type": "function"
        },
        {
          "inputs": [],
          "name": "owner",
          "outputs": [
            {
              "internalType": "address",
              "name": "",
              "type": "address"
            }
          ],
          "stateMutability": "view",
          "type": "function"
        },
        {
          "inputs": [],
          "name": "projectTokens",
          "outputs": [
            {
              "internalType": "address",
              "name": "",
              "type": "address"
            }
          ],
          "stateMutability": "view",
          "type": "function"
        },
        {
          "inputs": [],
          "name": "renounceOwnership",
          "outputs": [],
          "stateMutability": "nonpayable",
          "type": "function"
        },
        {
          "inputs": [],
          "name": "returnTokens",
          "outputs": [
            {
              "internalType": "bool",
              "name": "",
              "type": "bool"
            }
          ],
          "stateMutability": "nonpayable",
          "type": "function"
        },
        {
          "inputs": [],
          "name": "saleStatus",
          "outputs": [
            {
              "internalType": "bool",
              "name": "",
              "type": "bool"
            }
          ],
          "stateMutability": "view",
          "type": "function"
        },
        {
          "inputs": [
            {
              "internalType": "uint256",
              "name": "_cap",
              "type": "uint256"
            }
          ],
          "name": "setCap",
          "outputs": [
            {
              "internalType": "bool",
              "name": "",
              "type": "bool"
            }
          ],
          "stateMutability": "nonpayable",
          "type": "function"
        },
        {
          "inputs": [
            {
              "internalType": "uint256",
              "name": "_ratio",
              "type": "uint256"
            }
          ],
          "name": "setRatio",
          "outputs": [
            {
              "internalType": "bool",
              "name": "",
              "type": "bool"
            }
          ],
          "stateMutability": "nonpayable",
          "type": "function"
        },
        {
          "inputs": [
            {
              "internalType": "uint256",
              "name": "_time",
              "type": "uint256"
            },
            {
              "internalType": "uint256",
              "name": "_totalTokens",
              "type": "uint256"
            }
          ],
          "name": "startSale",
          "outputs": [],
          "stateMutability": "nonpayable",
          "type": "function"
        },
        {
          "inputs": [],
          "name": "tokensLeft",
          "outputs": [
            {
              "internalType": "uint256",
              "name": "",
              "type": "uint256"
            }
          ],
          "stateMutability": "view",
          "type": "function"
        },
        {
          "inputs": [],
          "name": "tradedTokens",
          "outputs": [
            {
              "internalType": "address",
              "name": "",
              "type": "address"
            }
          ],
          "stateMutability": "view",
          "type": "function"
        },
        {
          "inputs": [
            {
              "internalType": "address",
              "name": "newOwner",
              "type": "address"
            }
          ],
          "name": "transferOwnership",
          "outputs": [],
          "stateMutability": "nonpayable",
          "type": "function"
        },
        {
          "inputs": [],
          "name": "withdrawTokens",
          "outputs": [
            {
              "internalType": "bool",
              "name": "",
              "type": "bool"
            }
          ],
          "stateMutability": "nonpayable",
          "type": "function"
        }
      ],
      "evm": {
        "bytecode": {
          "linkReferences": {},
          "object": "60806040523480156200001157600080fd5b506040516200133838038062001338833981016040819052620000349162000101565b620000486200004262000090565b62000094565b600280546001600160a01b039485166001600160a01b031991821617909155600380549390941692169190911790915560006005556006805460ff1916905560085562000141565b3390565b600080546001600160a01b038381166001600160a01b0319831681178455604051919092169283917f8be0079c531659141344cd1fd0a4f28419497f9722a3daafe3b4186f6b6457e09190a35050565b80516001600160a01b0381168114620000fc57600080fd5b919050565b60008060006060848603121562000116578283fd5b6200012184620000e4565b92506200013160208501620000e4565b9150604084015190509250925092565b6111e780620001516000396000f3fe6080604052600436106100f35760003560e01c8063b2237ba31161008a578063f2fde38b11610059578063f2fde38b1461022d578063f4f3122e1461024d578063f9020e331461026d578063f9718fc814610282576100f3565b8063b2237ba3146101c3578063b31f8f93146101e3578063d96a094a14610205578063ec1ebd7a14610218576100f3565b8063893d20e8116100c6578063893d20e81461016f5780638d8f2adb146101845780638da5cb5b146101995780639c188426146101ae576100f3565b806317888efc146100f857806347786d37146101235780634e71d92d14610150578063715018a614610158575b600080fd5b34801561010457600080fd5b5061010d610297565b60405161011a9190610dbb565b60405180910390f35b34801561012f57600080fd5b5061014361013e366004610d6a565b6102a7565b60405161011a9190610e0c565b6101436102fa565b34801561016457600080fd5b5061016d61059e565b005b34801561017b57600080fd5b5061010d6105e9565b34801561019057600080fd5b506101436105f8565b3480156101a557600080fd5b5061010d61074b565b3480156101ba57600080fd5b5061010d61075a565b3480156101cf57600080fd5b506101436101de366004610d6a565b610769565b3480156101ef57600080fd5b506101f86107b3565b60405161011a919061113b565b610143610213366004610d6a565b610834565b34801561022457600080fd5b506101f8610abe565b34801561023957600080fd5b5061016d610248366004610d23565b610ac4565b34801561025957600080fd5b5061016d610268366004610d9a565b610b35565b34801561027957600080fd5b50610143610b8c565b34801561028e57600080fd5b50610143610b95565b6002546001600160a01b03165b90565b60006102b1610bf0565b6001600160a01b03166102c261074b565b6001600160a01b0316146102f15760405162461bcd60e51b81526004016102e89061104c565b60405180910390fd5b50600555600190565b6000600754421161031d5760405162461bcd60e51b81526004016102e890611104565b6008546002546040516370a0823160e01b81526001600160a01b03909116906370a0823190610350903090600401610dbb565b60206040518083038186803b15801561036857600080fd5b505afa15801561037c573d6000803e3d6000fd5b505050506040513d601f19601f820116820180604052508101906103a09190610d82565b11156104655760006103bf600854600954610bf490919063ffffffff16565b600254336000818152600a60205260409020549293506001600160a01b039091169163a9059cbb91906103f3908590610c3f565b6040518363ffffffff1660e01b8152600401610410929190610df3565b602060405180830381600087803b15801561042a57600080fd5b505af115801561043e573d6000803e3d6000fd5b505050506040513d601f19601f820116820180604052508101906104629190610d4a565b50505b6008546002546040516370a0823160e01b81526001600160a01b03909116906370a0823190610498903090600401610dbb565b60206040518083038186803b1580156104b057600080fd5b505afa1580156104c4573d6000803e3d6000fd5b505050506040513d601f19601f820116820180604052508101906104e89190610d82565b10156102a457600354336000818152600a6020526040908190205490517fa9059cbb0000000000000000000000000000000000000000000000000000000081526001600160a01b039093169263a9059cbb92610548929091600401610df3565b602060405180830381600087803b15801561056257600080fd5b505af1158015610576573d6000803e3d6000fd5b505050506040513d601f19601f8201168201806040525081019061059a9190610d4a565b5090565b6105a6610bf0565b6001600160a01b03166105b761074b565b6001600160a01b0316146105dd5760405162461bcd60e51b81526004016102e89061104c565b6105e76000610c84565b565b60006105f361074b565b905090565b6000610602610bf0565b6001600160a01b031661061361074b565b6001600160a01b0316146106395760405162461bcd60e51b81526004016102e89061104c565b6003546001600160a01b03166323b872dd3061065361074b565b6002546040516370a0823160e01b81526001600160a01b03909116906370a0823190610683903090600401610dbb565b60206040518083038186803b15801561069b57600080fd5b505afa1580156106af573d6000803e3d6000fd5b505050506040513d601f19601f820116820180604052508101906106d39190610d82565b6040518463ffffffff1660e01b81526004016106f193929190610dcf565b602060405180830381600087803b15801561070b57600080fd5b505af115801561071f573d6000803e3d6000fd5b505050506040513d601f19601f820116820180604052508101906107439190610d4a565b506001905090565b6000546001600160a01b031690565b6003546001600160a01b031690565b6000610773610bf0565b6001600160a01b031661078461074b565b6001600160a01b0316146107aa5760405162461bcd60e51b81526004016102e89061104c565b50600455600190565b6002546040516370a0823160e01b81526000916001600160a01b0316906370a08231906107e4903090600401610dbb565b60206040518083038186803b1580156107fc57600080fd5b505afa158015610810573d6000803e3d6000fd5b505050506040513d601f19601f820116820180604052508101906105f39190610d82565b600060075442106108575760405162461bcd60e51b81526004016102e890610e6a565b6008546002546040516370a0823160e01b81526001600160a01b03909116906370a082319061088a903090600401610dbb565b60206040518083038186803b1580156108a257600080fd5b505afa1580156108b6573d6000803e3d6000fd5b505050506040513d601f19601f820116820180604052508101906108da9190610d82565b106108f75760405162461bcd60e51b81526004016102e890610f5b565b60065460ff166109195760405162461bcd60e51b81526004016102e890610f92565b6003546040516370a0823160e01b815283916001600160a01b0316906370a0823190610949903390600401610dbb565b60206040518083038186803b15801561096157600080fd5b505afa158015610975573d6000803e3d6000fd5b505050506040513d601f19601f820116820180604052508101906109999190610d82565b101580156109a657508115155b6109c25760405162461bcd60e51b81526004016102e890610ea1565b600554156109eb5760055482106109eb5760405162461bcd60e51b81526004016102e890611081565b6003546040517f23b872dd0000000000000000000000000000000000000000000000000000000081526001600160a01b03909116906323b872dd90610a3890339030908790600401610dcf565b602060405180830381600087803b158015610a5257600080fd5b505af1158015610a66573d6000803e3d6000fd5b505050506040513d601f19601f82011682018060405250810190610a8a9190610d4a565b50336000908152600a6020526040902054610aa6908390611144565b336000908152600a6020526040902055506001919050565b60045490565b610acc610bf0565b6001600160a01b0316610add61074b565b6001600160a01b031614610b035760405162461bcd60e51b81526004016102e89061104c565b6001600160a01b038116610b295760405162461bcd60e51b81526004016102e890610efe565b610b3281610c84565b50565b610b3d610bf0565b6001600160a01b0316610b4e61074b565b6001600160a01b031614610b745760405162461bcd60e51b81526004016102e89061104c565b6007919091556009556006805460ff19166001179055565b60065460ff1690565b6000610b9f610bf0565b6001600160a01b0316610bb061074b565b6001600160a01b031614610bd65760405162461bcd60e51b81526004016102e89061104c565b6002546001600160a01b03166323b872dd3061065361074b565b3390565b6000610c3683836040518060400160405280601a81526020017f536166654d6174683a206469766973696f6e206279207a65726f000000000000815250610cec565b90505b92915050565b600082610c4e57506000610c39565b6000610c5a838561117c565b905082610c67858361115c565b14610c365760405162461bcd60e51b81526004016102e890610fef565b600080546001600160a01b038381167fffffffffffffffffffffffff0000000000000000000000000000000000000000831681178455604051919092169283917f8be0079c531659141344cd1fd0a4f28419497f9722a3daafe3b4186f6b6457e09190a35050565b60008183610d0d5760405162461bcd60e51b81526004016102e89190610e17565b506000610d1a848661115c565b95945050505050565b600060208284031215610d34578081fd5b81356001600160a01b0381168114610c36578182fd5b600060208284031215610d5b578081fd5b81518015158114610c36578182fd5b600060208284031215610d7b578081fd5b5035919050565b600060208284031215610d93578081fd5b5051919050565b60008060408385031215610dac578081fd5b50508035926020909101359150565b6001600160a01b0391909116815260200190565b6001600160a01b039384168152919092166020820152604081019190915260600190565b6001600160a01b03929092168252602082015260400190565b901515815260200190565b6000602080835283518082850152825b81811015610e4357858101830151858201604001528201610e27565b81811115610e545783604083870101525b50601f01601f1916929092016040019392505050565b6020808252600f908201527f7468652049444f206973206f7665720000000000000000000000000000000000604082015260600190565b6020808252603b908201527f5468652073656e64657220646f6573206e6f742068617665207468652072657160408201527f75657374656420747261646520746f6b656e7320746f2073656e640000000000606082015260800190565b60208082526026908201527f4f776e61626c653a206e6577206f776e657220697320746865207a65726f206160408201527f6464726573730000000000000000000000000000000000000000000000000000606082015260800190565b60208082526019908201527f54686520676f616c20686173206265656e207265616368656400000000000000604082015260600190565b60208082526029908201527f5468652070726f6a65637420746f6b656e2049444f20686173206e6f7420737460408201527f6172746564207965740000000000000000000000000000000000000000000000606082015260800190565b60208082526021908201527f536166654d6174683a206d756c7469706c69636174696f6e206f766572666c6f60408201527f7700000000000000000000000000000000000000000000000000000000000000606082015260800190565b6020808252818101527f4f776e61626c653a2063616c6c6572206973206e6f7420746865206f776e6572604082015260600190565b60208082526047908201527f54686572652069732061206c696d697420666f7220656163682075736572207460408201527f6f2062757920616e64207468697320616d6f756e74206973206f76657220746860608201527f65206c696d697400000000000000000000000000000000000000000000000000608082015260a00190565b60208082526017908201527f7468652049444f206973206e6f74206f76657220796574000000000000000000604082015260600190565b90815260200190565b600082198211156111575761115761119b565b500190565b60008261117757634e487b7160e01b81526012600452602481fd5b500490565b60008160001904831182151516156111965761119661119b565b500290565b634e487b7160e01b600052601160045260246000fdfea2646970667358221220ae3550340791b00e5045e6e66d616843e2925f65ae4cd027d1a1a17fc3d8611264736f6c63430008000033",
          "opcodes": "PUSH1 0x80 PUSH1 0x40 MSTORE CALLVALUE DUP1 ISZERO PUSH3 0x11 JUMPI PUSH1 0x0 DUP1 REVERT JUMPDEST POP PUSH1 0x40 MLOAD PUSH3 0x1338 CODESIZE SUB DUP1 PUSH3 0x1338 DUP4 CODECOPY DUP2 ADD PUSH1 0x40 DUP2 SWAP1 MSTORE PUSH3 0x34 SWAP2 PUSH3 0x101 JUMP JUMPDEST PUSH3 0x48 PUSH3 0x42 PUSH3 0x90 JUMP JUMPDEST PUSH3 0x94 JUMP JUMPDEST PUSH1 0x2 DUP1 SLOAD PUSH1 0x1 PUSH1 0x1 PUSH1 0xA0 SHL SUB SWAP5 DUP6 AND PUSH1 0x1 PUSH1 0x1 PUSH1 0xA0 SHL SUB NOT SWAP2 DUP3 AND OR SWAP1 SWAP2 SSTORE PUSH1 0x3 DUP1 SLOAD SWAP4 SWAP1 SWAP5 AND SWAP3 AND SWAP2 SWAP1 SWAP2 OR SWAP1 SWAP2 SSTORE PUSH1 0x0 PUSH1 0x5 SSTORE PUSH1 0x6 DUP1 SLOAD PUSH1 0xFF NOT AND SWAP1 SSTORE PUSH1 0x8 SSTORE PUSH3 0x141 JUMP JUMPDEST CALLER SWAP1 JUMP JUMPDEST PUSH1 0x0 DUP1 SLOAD PUSH1 0x1 PUSH1 0x1 PUSH1 0xA0 SHL SUB DUP4 DUP2 AND PUSH1 0x1 PUSH1 0x1 PUSH1 0xA0 SHL SUB NOT DUP4 AND DUP2 OR DUP5 SSTORE PUSH1 0x40 MLOAD SWAP2 SWAP1 SWAP3 AND SWAP3 DUP4 SWAP2 PUSH32 0x8BE0079C531659141344CD1FD0A4F28419497F9722A3DAAFE3B4186F6B6457E0 SWAP2 SWAP1 LOG3 POP POP JUMP JUMPDEST DUP1 MLOAD PUSH1 0x1 PUSH1 0x1 PUSH1 0xA0 SHL SUB DUP2 AND DUP2 EQ PUSH3 0xFC JUMPI PUSH1 0x0 DUP1 REVERT JUMPDEST SWAP2 SWAP1 POP JUMP JUMPDEST PUSH1 0x0 DUP1 PUSH1 0x0 PUSH1 0x60 DUP5 DUP7 SUB SLT ISZERO PUSH3 0x116 JUMPI DUP3 DUP4 REVERT JUMPDEST PUSH3 0x121 DUP5 PUSH3 0xE4 JUMP JUMPDEST SWAP3 POP PUSH3 0x131 PUSH1 0x20 DUP6 ADD PUSH3 0xE4 JUMP JUMPDEST SWAP2 POP PUSH1 0x40 DUP5 ADD MLOAD SWAP1 POP SWAP3 POP SWAP3 POP SWAP3 JUMP JUMPDEST PUSH2 0x11E7 DUP1 PUSH3 0x151 PUSH1 0x0 CODECOPY PUSH1 0x0 RETURN INVALID PUSH1 0x80 PUSH1 0x40 MSTORE PUSH1 0x4 CALLDATASIZE LT PUSH2 0xF3 JUMPI PUSH1 0x0 CALLDATALOAD PUSH1 0xE0 SHR DUP1 PUSH4 0xB2237BA3 GT PUSH2 0x8A JUMPI DUP1 PUSH4 0xF2FDE38B GT PUSH2 0x59 JUMPI DUP1 PUSH4 0xF2FDE38B EQ PUSH2 0x22D JUMPI DUP1 PUSH4 0xF4F3122E EQ PUSH2 0x24D JUMPI DUP1 PUSH4 0xF9020E33 EQ PUSH2 0x26D JUMPI DUP1 PUSH4 0xF9718FC8 EQ PUSH2 0x282 JUMPI PUSH2 0xF3 JUMP JUMPDEST DUP1 PUSH4 0xB2237BA3 EQ PUSH2 0x1C3 JUMPI DUP1 PUSH4 0xB31F8F93 EQ PUSH2 0x1E3 JUMPI DUP1 PUSH4 0xD96A094A EQ PUSH2 0x205 JUMPI DUP1 PUSH4 0xEC1EBD7A EQ PUSH2 0x218 JUMPI PUSH2 0xF3 JUMP JUMPDEST DUP1 PUSH4 0x893D20E8 GT PUSH2 0xC6 JUMPI DUP1 PUSH4 0x893D20E8 EQ PUSH2 0x16F JUMPI DUP1 PUSH4 0x8D8F2ADB EQ PUSH2 0x184 JUMPI DUP1 PUSH4 0x8DA5CB5B EQ PUSH2 0x199 JUMPI DUP1 PUSH4 0x9C188426 EQ PUSH2 0x1AE JUMPI PUSH2 0xF3 JUMP JUMPDEST DUP1 PUSH4 0x17888EFC EQ PUSH2 0xF8 JUMPI DUP1 PUSH4 0x47786D37 EQ PUSH2 0x123 JUMPI DUP1 PUSH4 0x4E71D92D EQ PUSH2 0x150 JUMPI DUP1 PUSH4 0x715018A6 EQ PUSH2 0x158 JUMPI JUMPDEST PUSH1 0x0 DUP1 REVERT JUMPDEST CALLVALUE DUP1 ISZERO PUSH2 0x104 JUMPI PUSH1 0x0 DUP1 REVERT JUMPDEST POP PUSH2 0x10D PUSH2 0x297 JUMP JUMPDEST PUSH1 0x40 MLOAD PUSH2 0x11A SWAP2 SWAP1 PUSH2 0xDBB JUMP JUMPDEST PUSH1 0x40 MLOAD DUP1 SWAP2 SUB SWAP1 RETURN JUMPDEST CALLVALUE DUP1 ISZERO PUSH2 0x12F JUMPI PUSH1 0x0 DUP1 REVERT JUMPDEST POP PUSH2 0x143 PUSH2 0x13E CALLDATASIZE PUSH1 0x4 PUSH2 0xD6A JUMP JUMPDEST PUSH2 0x2A7 JUMP JUMPDEST PUSH1 0x40 MLOAD PUSH2 0x11A SWAP2 SWAP1 PUSH2 0xE0C JUMP JUMPDEST PUSH2 0x143 PUSH2 0x2FA JUMP JUMPDEST CALLVALUE DUP1 ISZERO PUSH2 0x164 JUMPI PUSH1 0x0 DUP1 REVERT JUMPDEST POP PUSH2 0x16D PUSH2 0x59E JUMP JUMPDEST STOP JUMPDEST CALLVALUE DUP1 ISZERO PUSH2 0x17B JUMPI PUSH1 0x0 DUP1 REVERT JUMPDEST POP PUSH2 0x10D PUSH2 0x5E9 JUMP JUMPDEST CALLVALUE DUP1 ISZERO PUSH2 0x190 JUMPI PUSH1 0x0 DUP1 REVERT JUMPDEST POP PUSH2 0x143 PUSH2 0x5F8 JUMP JUMPDEST CALLVALUE DUP1 ISZERO PUSH2 0x1A5 JUMPI PUSH1 0x0 DUP1 REVERT JUMPDEST POP PUSH2 0x10D PUSH2 0x74B JUMP JUMPDEST CALLVALUE DUP1 ISZERO PUSH2 0x1BA JUMPI PUSH1 0x0 DUP1 REVERT JUMPDEST POP PUSH2 0x10D PUSH2 0x75A JUMP JUMPDEST CALLVALUE DUP1 ISZERO PUSH2 0x1CF JUMPI PUSH1 0x0 DUP1 REVERT JUMPDEST POP PUSH2 0x143 PUSH2 0x1DE CALLDATASIZE PUSH1 0x4 PUSH2 0xD6A JUMP JUMPDEST PUSH2 0x769 JUMP JUMPDEST CALLVALUE DUP1 ISZERO PUSH2 0x1EF JUMPI PUSH1 0x0 DUP1 REVERT JUMPDEST POP PUSH2 0x1F8 PUSH2 0x7B3 JUMP JUMPDEST PUSH1 0x40 MLOAD PUSH2 0x11A SWAP2 SWAP1 PUSH2 0x113B JUMP JUMPDEST PUSH2 0x143 PUSH2 0x213 CALLDATASIZE PUSH1 0x4 PUSH2 0xD6A JUMP JUMPDEST PUSH2 0x834 JUMP JUMPDEST CALLVALUE DUP1 ISZERO PUSH2 0x224 JUMPI PUSH1 0x0 DUP1 REVERT JUMPDEST POP PUSH2 0x1F8 PUSH2 0xABE JUMP JUMPDEST CALLVALUE DUP1 ISZERO PUSH2 0x239 JUMPI PUSH1 0x0 DUP1 REVERT JUMPDEST POP PUSH2 0x16D PUSH2 0x248 CALLDATASIZE PUSH1 0x4 PUSH2 0xD23 JUMP JUMPDEST PUSH2 0xAC4 JUMP JUMPDEST CALLVALUE DUP1 ISZERO PUSH2 0x259 JUMPI PUSH1 0x0 DUP1 REVERT JUMPDEST POP PUSH2 0x16D PUSH2 0x268 CALLDATASIZE PUSH1 0x4 PUSH2 0xD9A JUMP JUMPDEST PUSH2 0xB35 JUMP JUMPDEST CALLVALUE DUP1 ISZERO PUSH2 0x279 JUMPI PUSH1 0x0 DUP1 REVERT JUMPDEST POP PUSH2 0x143 PUSH2 0xB8C JUMP JUMPDEST CALLVALUE DUP1 ISZERO PUSH2 0x28E JUMPI PUSH1 0x0 DUP1 REVERT JUMPDEST POP PUSH2 0x143 PUSH2 0xB95 JUMP JUMPDEST PUSH1 0x2 SLOAD PUSH1 0x1 PUSH1 0x1 PUSH1 0xA0 SHL SUB AND JUMPDEST SWAP1 JUMP JUMPDEST PUSH1 0x0 PUSH2 0x2B1 PUSH2 0xBF0 JUMP JUMPDEST PUSH1 0x1 PUSH1 0x1 PUSH1 0xA0 SHL SUB AND PUSH2 0x2C2 PUSH2 0x74B JUMP JUMPDEST PUSH1 0x1 PUSH1 0x1 PUSH1 0xA0 SHL SUB AND EQ PUSH2 0x2F1 JUMPI PUSH1 0x40 MLOAD PUSH3 0x461BCD PUSH1 0xE5 SHL DUP2 MSTORE PUSH1 0x4 ADD PUSH2 0x2E8 SWAP1 PUSH2 0x104C JUMP JUMPDEST PUSH1 0x40 MLOAD DUP1 SWAP2 SUB SWAP1 REVERT JUMPDEST POP PUSH1 0x5 SSTORE PUSH1 0x1 SWAP1 JUMP JUMPDEST PUSH1 0x0 PUSH1 0x7 SLOAD TIMESTAMP GT PUSH2 0x31D JUMPI PUSH1 0x40 MLOAD PUSH3 0x461BCD PUSH1 0xE5 SHL DUP2 MSTORE PUSH1 0x4 ADD PUSH2 0x2E8 SWAP1 PUSH2 0x1104 JUMP JUMPDEST PUSH1 0x8 SLOAD PUSH1 0x2 SLOAD PUSH1 0x40 MLOAD PUSH4 0x70A08231 PUSH1 0xE0 SHL DUP2 MSTORE PUSH1 0x1 PUSH1 0x1 PUSH1 0xA0 SHL SUB SWAP1 SWAP2 AND SWAP1 PUSH4 0x70A08231 SWAP1 PUSH2 0x350 SWAP1 ADDRESS SWAP1 PUSH1 0x4 ADD PUSH2 0xDBB JUMP JUMPDEST PUSH1 0x20 PUSH1 0x40 MLOAD DUP1 DUP4 SUB DUP2 DUP7 DUP1 EXTCODESIZE ISZERO DUP1 ISZERO PUSH2 0x368 JUMPI PUSH1 0x0 DUP1 REVERT JUMPDEST POP GAS STATICCALL ISZERO DUP1 ISZERO PUSH2 0x37C JUMPI RETURNDATASIZE PUSH1 0x0 DUP1 RETURNDATACOPY RETURNDATASIZE PUSH1 0x0 REVERT JUMPDEST POP POP POP POP PUSH1 0x40 MLOAD RETURNDATASIZE PUSH1 0x1F NOT PUSH1 0x1F DUP3 ADD AND DUP3 ADD DUP1 PUSH1 0x40 MSTORE POP DUP2 ADD SWAP1 PUSH2 0x3A0 SWAP2 SWAP1 PUSH2 0xD82 JUMP JUMPDEST GT ISZERO PUSH2 0x465 JUMPI PUSH1 0x0 PUSH2 0x3BF PUSH1 0x8 SLOAD PUSH1 0x9 SLOAD PUSH2 0xBF4 SWAP1 SWAP2 SWAP1 PUSH4 0xFFFFFFFF AND JUMP JUMPDEST PUSH1 0x2 SLOAD CALLER PUSH1 0x0 DUP2 DUP2 MSTORE PUSH1 0xA PUSH1 0x20 MSTORE PUSH1 0x40 SWAP1 KECCAK256 SLOAD SWAP3 SWAP4 POP PUSH1 0x1 PUSH1 0x1 PUSH1 0xA0 SHL SUB SWAP1 SWAP2 AND SWAP2 PUSH4 0xA9059CBB SWAP2 SWAP1 PUSH2 0x3F3 SWAP1 DUP6 SWAP1 PUSH2 0xC3F JUMP JUMPDEST PUSH1 0x40 MLOAD DUP4 PUSH4 0xFFFFFFFF AND PUSH1 0xE0 SHL DUP2 MSTORE PUSH1 0x4 ADD PUSH2 0x410 SWAP3 SWAP2 SWAP1 PUSH2 0xDF3 JUMP JUMPDEST PUSH1 0x20 PUSH1 0x40 MLOAD DUP1 DUP4 SUB DUP2 PUSH1 0x0 DUP8 DUP1 EXTCODESIZE ISZERO DUP1 ISZERO PUSH2 0x42A JUMPI PUSH1 0x0 DUP1 REVERT JUMPDEST POP GAS CALL ISZERO DUP1 ISZERO PUSH2 0x43E JUMPI RETURNDATASIZE PUSH1 0x0 DUP1 RETURNDATACOPY RETURNDATASIZE PUSH1 0x0 REVERT JUMPDEST POP POP POP POP PUSH1 0x40 MLOAD RETURNDATASIZE PUSH1 0x1F NOT PUSH1 0x1F DUP3 ADD AND DUP3 ADD DUP1 PUSH1 0x40 MSTORE POP DUP2 ADD SWAP1 PUSH2 0x462 SWAP2 SWAP1 PUSH2 0xD4A JUMP JUMPDEST POP POP JUMPDEST PUSH1 0x8 SLOAD PUSH1 0x2 SLOAD PUSH1 0x40 MLOAD PUSH4 0x70A08231 PUSH1 0xE0 SHL DUP2 MSTORE PUSH1 0x1 PUSH1 0x1 PUSH1 0xA0 SHL SUB SWAP1 SWAP2 AND SWAP1 PUSH4 0x70A08231 SWAP1 PUSH2 0x498 SWAP1 ADDRESS SWAP1 PUSH1 0x4 ADD PUSH2 0xDBB JUMP JUMPDEST PUSH1 0x20 PUSH1 0x40 MLOAD DUP1 DUP4 SUB DUP2 DUP7 DUP1 EXTCODESIZE ISZERO DUP1 ISZERO PUSH2 0x4B0 JUMPI PUSH1 0x0 DUP1 REVERT JUMPDEST POP GAS STATICCALL ISZERO DUP1 ISZERO PUSH2 0x4C4 JUMPI RETURNDATASIZE PUSH1 0x0 DUP1 RETURNDATACOPY RETURNDATASIZE PUSH1 0x0 REVERT JUMPDEST POP POP POP POP PUSH1 0x40 MLOAD RETURNDATASIZE PUSH1 0x1F NOT PUSH1 0x1F DUP3 ADD AND DUP3 ADD DUP1 PUSH1 0x40 MSTORE POP DUP2 ADD SWAP1 PUSH2 0x4E8 SWAP2 SWAP1 PUSH2 0xD82 JUMP JUMPDEST LT ISZERO PUSH2 0x2A4 JUMPI PUSH1 0x3 SLOAD CALLER PUSH1 0x0 DUP2 DUP2 MSTORE PUSH1 0xA PUSH1 0x20 MSTORE PUSH1 0x40 SWAP1 DUP2 SWAP1 KECCAK256 SLOAD SWAP1 MLOAD PUSH32 0xA9059CBB00000000000000000000000000000000000000000000000000000000 DUP2 MSTORE PUSH1 0x1 PUSH1 0x1 PUSH1 0xA0 SHL SUB SWAP1 SWAP4 AND SWAP3 PUSH4 0xA9059CBB SWAP3 PUSH2 0x548 SWAP3 SWAP1 SWAP2 PUSH1 0x4 ADD PUSH2 0xDF3 JUMP JUMPDEST PUSH1 0x20 PUSH1 0x40 MLOAD DUP1 DUP4 SUB DUP2 PUSH1 0x0 DUP8 DUP1 EXTCODESIZE ISZERO DUP1 ISZERO PUSH2 0x562 JUMPI PUSH1 0x0 DUP1 REVERT JUMPDEST POP GAS CALL ISZERO DUP1 ISZERO PUSH2 0x576 JUMPI RETURNDATASIZE PUSH1 0x0 DUP1 RETURNDATACOPY RETURNDATASIZE PUSH1 0x0 REVERT JUMPDEST POP POP POP POP PUSH1 0x40 MLOAD RETURNDATASIZE PUSH1 0x1F NOT PUSH1 0x1F DUP3 ADD AND DUP3 ADD DUP1 PUSH1 0x40 MSTORE POP DUP2 ADD SWAP1 PUSH2 0x59A SWAP2 SWAP1 PUSH2 0xD4A JUMP JUMPDEST POP SWAP1 JUMP JUMPDEST PUSH2 0x5A6 PUSH2 0xBF0 JUMP JUMPDEST PUSH1 0x1 PUSH1 0x1 PUSH1 0xA0 SHL SUB AND PUSH2 0x5B7 PUSH2 0x74B JUMP JUMPDEST PUSH1 0x1 PUSH1 0x1 PUSH1 0xA0 SHL SUB AND EQ PUSH2 0x5DD JUMPI PUSH1 0x40 MLOAD PUSH3 0x461BCD PUSH1 0xE5 SHL DUP2 MSTORE PUSH1 0x4 ADD PUSH2 0x2E8 SWAP1 PUSH2 0x104C JUMP JUMPDEST PUSH2 0x5E7 PUSH1 0x0 PUSH2 0xC84 JUMP JUMPDEST JUMP JUMPDEST PUSH1 0x0 PUSH2 0x5F3 PUSH2 0x74B JUMP JUMPDEST SWAP1 POP SWAP1 JUMP JUMPDEST PUSH1 0x0 PUSH2 0x602 PUSH2 0xBF0 JUMP JUMPDEST PUSH1 0x1 PUSH1 0x1 PUSH1 0xA0 SHL SUB AND PUSH2 0x613 PUSH2 0x74B JUMP JUMPDEST PUSH1 0x1 PUSH1 0x1 PUSH1 0xA0 SHL SUB AND EQ PUSH2 0x639 JUMPI PUSH1 0x40 MLOAD PUSH3 0x461BCD PUSH1 0xE5 SHL DUP2 MSTORE PUSH1 0x4 ADD PUSH2 0x2E8 SWAP1 PUSH2 0x104C JUMP JUMPDEST PUSH1 0x3 SLOAD PUSH1 0x1 PUSH1 0x1 PUSH1 0xA0 SHL SUB AND PUSH4 0x23B872DD ADDRESS PUSH2 0x653 PUSH2 0x74B JUMP JUMPDEST PUSH1 0x2 SLOAD PUSH1 0x40 MLOAD PUSH4 0x70A08231 PUSH1 0xE0 SHL DUP2 MSTORE PUSH1 0x1 PUSH1 0x1 PUSH1 0xA0 SHL SUB SWAP1 SWAP2 AND SWAP1 PUSH4 0x70A08231 SWAP1 PUSH2 0x683 SWAP1 ADDRESS SWAP1 PUSH1 0x4 ADD PUSH2 0xDBB JUMP JUMPDEST PUSH1 0x20 PUSH1 0x40 MLOAD DUP1 DUP4 SUB DUP2 DUP7 DUP1 EXTCODESIZE ISZERO DUP1 ISZERO PUSH2 0x69B JUMPI PUSH1 0x0 DUP1 REVERT JUMPDEST POP GAS STATICCALL ISZERO DUP1 ISZERO PUSH2 0x6AF JUMPI RETURNDATASIZE PUSH1 0x0 DUP1 RETURNDATACOPY RETURNDATASIZE PUSH1 0x0 REVERT JUMPDEST POP POP POP POP PUSH1 0x40 MLOAD RETURNDATASIZE PUSH1 0x1F NOT PUSH1 0x1F DUP3 ADD AND DUP3 ADD DUP1 PUSH1 0x40 MSTORE POP DUP2 ADD SWAP1 PUSH2 0x6D3 SWAP2 SWAP1 PUSH2 0xD82 JUMP JUMPDEST PUSH1 0x40 MLOAD DUP5 PUSH4 0xFFFFFFFF AND PUSH1 0xE0 SHL DUP2 MSTORE PUSH1 0x4 ADD PUSH2 0x6F1 SWAP4 SWAP3 SWAP2 SWAP1 PUSH2 0xDCF JUMP JUMPDEST PUSH1 0x20 PUSH1 0x40 MLOAD DUP1 DUP4 SUB DUP2 PUSH1 0x0 DUP8 DUP1 EXTCODESIZE ISZERO DUP1 ISZERO PUSH2 0x70B JUMPI PUSH1 0x0 DUP1 REVERT JUMPDEST POP GAS CALL ISZERO DUP1 ISZERO PUSH2 0x71F JUMPI RETURNDATASIZE PUSH1 0x0 DUP1 RETURNDATACOPY RETURNDATASIZE PUSH1 0x0 REVERT JUMPDEST POP POP POP POP PUSH1 0x40 MLOAD RETURNDATASIZE PUSH1 0x1F NOT PUSH1 0x1F DUP3 ADD AND DUP3 ADD DUP1 PUSH1 0x40 MSTORE POP DUP2 ADD SWAP1 PUSH2 0x743 SWAP2 SWAP1 PUSH2 0xD4A JUMP JUMPDEST POP PUSH1 0x1 SWAP1 POP SWAP1 JUMP JUMPDEST PUSH1 0x0 SLOAD PUSH1 0x1 PUSH1 0x1 PUSH1 0xA0 SHL SUB AND SWAP1 JUMP JUMPDEST PUSH1 0x3 SLOAD PUSH1 0x1 PUSH1 0x1 PUSH1 0xA0 SHL SUB AND SWAP1 JUMP JUMPDEST PUSH1 0x0 PUSH2 0x773 PUSH2 0xBF0 JUMP JUMPDEST PUSH1 0x1 PUSH1 0x1 PUSH1 0xA0 SHL SUB AND PUSH2 0x784 PUSH2 0x74B JUMP JUMPDEST PUSH1 0x1 PUSH1 0x1 PUSH1 0xA0 SHL SUB AND EQ PUSH2 0x7AA JUMPI PUSH1 0x40 MLOAD PUSH3 0x461BCD PUSH1 0xE5 SHL DUP2 MSTORE PUSH1 0x4 ADD PUSH2 0x2E8 SWAP1 PUSH2 0x104C JUMP JUMPDEST POP PUSH1 0x4 SSTORE PUSH1 0x1 SWAP1 JUMP JUMPDEST PUSH1 0x2 SLOAD PUSH1 0x40 MLOAD PUSH4 0x70A08231 PUSH1 0xE0 SHL DUP2 MSTORE PUSH1 0x0 SWAP2 PUSH1 0x1 PUSH1 0x1 PUSH1 0xA0 SHL SUB AND SWAP1 PUSH4 0x70A08231 SWAP1 PUSH2 0x7E4 SWAP1 ADDRESS SWAP1 PUSH1 0x4 ADD PUSH2 0xDBB JUMP JUMPDEST PUSH1 0x20 PUSH1 0x40 MLOAD DUP1 DUP4 SUB DUP2 DUP7 DUP1 EXTCODESIZE ISZERO DUP1 ISZERO PUSH2 0x7FC JUMPI PUSH1 0x0 DUP1 REVERT JUMPDEST POP GAS STATICCALL ISZERO DUP1 ISZERO PUSH2 0x810 JUMPI RETURNDATASIZE PUSH1 0x0 DUP1 RETURNDATACOPY RETURNDATASIZE PUSH1 0x0 REVERT JUMPDEST POP POP POP POP PUSH1 0x40 MLOAD RETURNDATASIZE PUSH1 0x1F NOT PUSH1 0x1F DUP3 ADD AND DUP3 ADD DUP1 PUSH1 0x40 MSTORE POP DUP2 ADD SWAP1 PUSH2 0x5F3 SWAP2 SWAP1 PUSH2 0xD82 JUMP JUMPDEST PUSH1 0x0 PUSH1 0x7 SLOAD TIMESTAMP LT PUSH2 0x857 JUMPI PUSH1 0x40 MLOAD PUSH3 0x461BCD PUSH1 0xE5 SHL DUP2 MSTORE PUSH1 0x4 ADD PUSH2 0x2E8 SWAP1 PUSH2 0xE6A JUMP JUMPDEST PUSH1 0x8 SLOAD PUSH1 0x2 SLOAD PUSH1 0x40 MLOAD PUSH4 0x70A08231 PUSH1 0xE0 SHL DUP2 MSTORE PUSH1 0x1 PUSH1 0x1 PUSH1 0xA0 SHL SUB SWAP1 SWAP2 AND SWAP1 PUSH4 0x70A08231 SWAP1 PUSH2 0x88A SWAP1 ADDRESS SWAP1 PUSH1 0x4 ADD PUSH2 0xDBB JUMP JUMPDEST PUSH1 0x20 PUSH1 0x40 MLOAD DUP1 DUP4 SUB DUP2 DUP7 DUP1 EXTCODESIZE ISZERO DUP1 ISZERO PUSH2 0x8A2 JUMPI PUSH1 0x0 DUP1 REVERT JUMPDEST POP GAS STATICCALL ISZERO DUP1 ISZERO PUSH2 0x8B6 JUMPI RETURNDATASIZE PUSH1 0x0 DUP1 RETURNDATACOPY RETURNDATASIZE PUSH1 0x0 REVERT JUMPDEST POP POP POP POP PUSH1 0x40 MLOAD RETURNDATASIZE PUSH1 0x1F NOT PUSH1 0x1F DUP3 ADD AND DUP3 ADD DUP1 PUSH1 0x40 MSTORE POP DUP2 ADD SWAP1 PUSH2 0x8DA SWAP2 SWAP1 PUSH2 0xD82 JUMP JUMPDEST LT PUSH2 0x8F7 JUMPI PUSH1 0x40 MLOAD PUSH3 0x461BCD PUSH1 0xE5 SHL DUP2 MSTORE PUSH1 0x4 ADD PUSH2 0x2E8 SWAP1 PUSH2 0xF5B JUMP JUMPDEST PUSH1 0x6 SLOAD PUSH1 0xFF AND PUSH2 0x919 JUMPI PUSH1 0x40 MLOAD PUSH3 0x461BCD PUSH1 0xE5 SHL DUP2 MSTORE PUSH1 0x4 ADD PUSH2 0x2E8 SWAP1 PUSH2 0xF92 JUMP JUMPDEST PUSH1 0x3 SLOAD PUSH1 0x40 MLOAD PUSH4 0x70A08231 PUSH1 0xE0 SHL DUP2 MSTORE DUP4 SWAP2 PUSH1 0x1 PUSH1 0x1 PUSH1 0xA0 SHL SUB AND SWAP1 PUSH4 0x70A08231 SWAP1 PUSH2 0x949 SWAP1 CALLER SWAP1 PUSH1 0x4 ADD PUSH2 0xDBB JUMP JUMPDEST PUSH1 0x20 PUSH1 0x40 MLOAD DUP1 DUP4 SUB DUP2 DUP7 DUP1 EXTCODESIZE ISZERO DUP1 ISZERO PUSH2 0x961 JUMPI PUSH1 0x0 DUP1 REVERT JUMPDEST POP GAS STATICCALL ISZERO DUP1 ISZERO PUSH2 0x975 JUMPI RETURNDATASIZE PUSH1 0x0 DUP1 RETURNDATACOPY RETURNDATASIZE PUSH1 0x0 REVERT JUMPDEST POP POP POP POP PUSH1 0x40 MLOAD RETURNDATASIZE PUSH1 0x1F NOT PUSH1 0x1F DUP3 ADD AND DUP3 ADD DUP1 PUSH1 0x40 MSTORE POP DUP2 ADD SWAP1 PUSH2 0x999 SWAP2 SWAP1 PUSH2 0xD82 JUMP JUMPDEST LT ISZERO DUP1 ISZERO PUSH2 0x9A6 JUMPI POP DUP2 ISZERO ISZERO JUMPDEST PUSH2 0x9C2 JUMPI PUSH1 0x40 MLOAD PUSH3 0x461BCD PUSH1 0xE5 SHL DUP2 MSTORE PUSH1 0x4 ADD PUSH2 0x2E8 SWAP1 PUSH2 0xEA1 JUMP JUMPDEST PUSH1 0x5 SLOAD ISZERO PUSH2 0x9EB JUMPI PUSH1 0x5 SLOAD DUP3 LT PUSH2 0x9EB JUMPI PUSH1 0x40 MLOAD PUSH3 0x461BCD PUSH1 0xE5 SHL DUP2 MSTORE PUSH1 0x4 ADD PUSH2 0x2E8 SWAP1 PUSH2 0x1081 JUMP JUMPDEST PUSH1 0x3 SLOAD PUSH1 0x40 MLOAD PUSH32 0x23B872DD00000000000000000000000000000000000000000000000000000000 DUP2 MSTORE PUSH1 0x1 PUSH1 0x1 PUSH1 0xA0 SHL SUB SWAP1 SWAP2 AND SWAP1 PUSH4 0x23B872DD SWAP1 PUSH2 0xA38 SWAP1 CALLER SWAP1 ADDRESS SWAP1 DUP8 SWAP1 PUSH1 0x4 ADD PUSH2 0xDCF JUMP JUMPDEST PUSH1 0x20 PUSH1 0x40 MLOAD DUP1 DUP4 SUB DUP2 PUSH1 0x0 DUP8 DUP1 EXTCODESIZE ISZERO DUP1 ISZERO PUSH2 0xA52 JUMPI PUSH1 0x0 DUP1 REVERT JUMPDEST POP GAS CALL ISZERO DUP1 ISZERO PUSH2 0xA66 JUMPI RETURNDATASIZE PUSH1 0x0 DUP1 RETURNDATACOPY RETURNDATASIZE PUSH1 0x0 REVERT JUMPDEST POP POP POP POP PUSH1 0x40 MLOAD RETURNDATASIZE PUSH1 0x1F NOT PUSH1 0x1F DUP3 ADD AND DUP3 ADD DUP1 PUSH1 0x40 MSTORE POP DUP2 ADD SWAP1 PUSH2 0xA8A SWAP2 SWAP1 PUSH2 0xD4A JUMP JUMPDEST POP CALLER PUSH1 0x0 SWAP1 DUP2 MSTORE PUSH1 0xA PUSH1 0x20 MSTORE PUSH1 0x40 SWAP1 KECCAK256 SLOAD PUSH2 0xAA6 SWAP1 DUP4 SWAP1 PUSH2 0x1144 JUMP JUMPDEST CALLER PUSH1 0x0 SWAP1 DUP2 MSTORE PUSH1 0xA PUSH1 0x20 MSTORE PUSH1 0x40 SWAP1 KECCAK256 SSTORE POP PUSH1 0x1 SWAP2 SWAP1 POP JUMP JUMPDEST PUSH1 0x4 SLOAD SWAP1 JUMP JUMPDEST PUSH2 0xACC PUSH2 0xBF0 JUMP JUMPDEST PUSH1 0x1 PUSH1 0x1 PUSH1 0xA0 SHL SUB AND PUSH2 0xADD PUSH2 0x74B JUMP JUMPDEST PUSH1 0x1 PUSH1 0x1 PUSH1 0xA0 SHL SUB AND EQ PUSH2 0xB03 JUMPI PUSH1 0x40 MLOAD PUSH3 0x461BCD PUSH1 0xE5 SHL DUP2 MSTORE PUSH1 0x4 ADD PUSH2 0x2E8 SWAP1 PUSH2 0x104C JUMP JUMPDEST PUSH1 0x1 PUSH1 0x1 PUSH1 0xA0 SHL SUB DUP2 AND PUSH2 0xB29 JUMPI PUSH1 0x40 MLOAD PUSH3 0x461BCD PUSH1 0xE5 SHL DUP2 MSTORE PUSH1 0x4 ADD PUSH2 0x2E8 SWAP1 PUSH2 0xEFE JUMP JUMPDEST PUSH2 0xB32 DUP2 PUSH2 0xC84 JUMP JUMPDEST POP JUMP JUMPDEST PUSH2 0xB3D PUSH2 0xBF0 JUMP JUMPDEST PUSH1 0x1 PUSH1 0x1 PUSH1 0xA0 SHL SUB AND PUSH2 0xB4E PUSH2 0x74B JUMP JUMPDEST PUSH1 0x1 PUSH1 0x1 PUSH1 0xA0 SHL SUB AND EQ PUSH2 0xB74 JUMPI PUSH1 0x40 MLOAD PUSH3 0x461BCD PUSH1 0xE5 SHL DUP2 MSTORE PUSH1 0x4 ADD PUSH2 0x2E8 SWAP1 PUSH2 0x104C JUMP JUMPDEST PUSH1 0x7 SWAP2 SWAP1 SWAP2 SSTORE PUSH1 0x9 SSTORE PUSH1 0x6 DUP1 SLOAD PUSH1 0xFF NOT AND PUSH1 0x1 OR SWAP1 SSTORE JUMP JUMPDEST PUSH1 0x6 SLOAD PUSH1 0xFF AND SWAP1 JUMP JUMPDEST PUSH1 0x0 PUSH2 0xB9F PUSH2 0xBF0 JUMP JUMPDEST PUSH1 0x1 PUSH1 0x1 PUSH1 0xA0 SHL SUB AND PUSH2 0xBB0 PUSH2 0x74B JUMP JUMPDEST PUSH1 0x1 PUSH1 0x1 PUSH1 0xA0 SHL SUB AND EQ PUSH2 0xBD6 JUMPI PUSH1 0x40 MLOAD PUSH3 0x461BCD PUSH1 0xE5 SHL DUP2 MSTORE PUSH1 0x4 ADD PUSH2 0x2E8 SWAP1 PUSH2 0x104C JUMP JUMPDEST PUSH1 0x2 SLOAD PUSH1 0x1 PUSH1 0x1 PUSH1 0xA0 SHL SUB AND PUSH4 0x23B872DD ADDRESS PUSH2 0x653 PUSH2 0x74B JUMP JUMPDEST CALLER SWAP1 JUMP JUMPDEST PUSH1 0x0 PUSH2 0xC36 DUP4 DUP4 PUSH1 0x40 MLOAD DUP1 PUSH1 0x40 ADD PUSH1 0x40 MSTORE DUP1 PUSH1 0x1A DUP2 MSTORE PUSH1 0x20 ADD PUSH32 0x536166654D6174683A206469766973696F6E206279207A65726F000000000000 DUP2 MSTORE POP PUSH2 0xCEC JUMP JUMPDEST SWAP1 POP JUMPDEST SWAP3 SWAP2 POP POP JUMP JUMPDEST PUSH1 0x0 DUP3 PUSH2 0xC4E JUMPI POP PUSH1 0x0 PUSH2 0xC39 JUMP JUMPDEST PUSH1 0x0 PUSH2 0xC5A DUP4 DUP6 PUSH2 0x117C JUMP JUMPDEST SWAP1 POP DUP3 PUSH2 0xC67 DUP6 DUP4 PUSH2 0x115C JUMP JUMPDEST EQ PUSH2 0xC36 JUMPI PUSH1 0x40 MLOAD PUSH3 0x461BCD PUSH1 0xE5 SHL DUP2 MSTORE PUSH1 0x4 ADD PUSH2 0x2E8 SWAP1 PUSH2 0xFEF JUMP JUMPDEST PUSH1 0x0 DUP1 SLOAD PUSH1 0x1 PUSH1 0x1 PUSH1 0xA0 SHL SUB DUP4 DUP2 AND PUSH32 0xFFFFFFFFFFFFFFFFFFFFFFFF0000000000000000000000000000000000000000 DUP4 AND DUP2 OR DUP5 SSTORE PUSH1 0x40 MLOAD SWAP2 SWAP1 SWAP3 AND SWAP3 DUP4 SWAP2 PUSH32 0x8BE0079C531659141344CD1FD0A4F28419497F9722A3DAAFE3B4186F6B6457E0 SWAP2 SWAP1 LOG3 POP POP JUMP JUMPDEST PUSH1 0x0 DUP2 DUP4 PUSH2 0xD0D JUMPI PUSH1 0x40 MLOAD PUSH3 0x461BCD PUSH1 0xE5 SHL DUP2 MSTORE PUSH1 0x4 ADD PUSH2 0x2E8 SWAP2 SWAP1 PUSH2 0xE17 JUMP JUMPDEST POP PUSH1 0x0 PUSH2 0xD1A DUP5 DUP7 PUSH2 0x115C JUMP JUMPDEST SWAP6 SWAP5 POP POP POP POP POP JUMP JUMPDEST PUSH1 0x0 PUSH1 0x20 DUP3 DUP5 SUB SLT ISZERO PUSH2 0xD34 JUMPI DUP1 DUP2 REVERT JUMPDEST DUP2 CALLDATALOAD PUSH1 0x1 PUSH1 0x1 PUSH1 0xA0 SHL SUB DUP2 AND DUP2 EQ PUSH2 0xC36 JUMPI DUP2 DUP3 REVERT JUMPDEST PUSH1 0x0 PUSH1 0x20 DUP3 DUP5 SUB SLT ISZERO PUSH2 0xD5B JUMPI DUP1 DUP2 REVERT JUMPDEST DUP2 MLOAD DUP1 ISZERO ISZERO DUP2 EQ PUSH2 0xC36 JUMPI DUP2 DUP3 REVERT JUMPDEST PUSH1 0x0 PUSH1 0x20 DUP3 DUP5 SUB SLT ISZERO PUSH2 0xD7B JUMPI DUP1 DUP2 REVERT JUMPDEST POP CALLDATALOAD SWAP2 SWAP1 POP JUMP JUMPDEST PUSH1 0x0 PUSH1 0x20 DUP3 DUP5 SUB SLT ISZERO PUSH2 0xD93 JUMPI DUP1 DUP2 REVERT JUMPDEST POP MLOAD SWAP2 SWAP1 POP JUMP JUMPDEST PUSH1 0x0 DUP1 PUSH1 0x40 DUP4 DUP6 SUB SLT ISZERO PUSH2 0xDAC JUMPI DUP1 DUP2 REVERT JUMPDEST POP POP DUP1 CALLDATALOAD SWAP3 PUSH1 0x20 SWAP1 SWAP2 ADD CALLDATALOAD SWAP2 POP JUMP JUMPDEST PUSH1 0x1 PUSH1 0x1 PUSH1 0xA0 SHL SUB SWAP2 SWAP1 SWAP2 AND DUP2 MSTORE PUSH1 0x20 ADD SWAP1 JUMP JUMPDEST PUSH1 0x1 PUSH1 0x1 PUSH1 0xA0 SHL SUB SWAP4 DUP5 AND DUP2 MSTORE SWAP2 SWAP1 SWAP3 AND PUSH1 0x20 DUP3 ADD MSTORE PUSH1 0x40 DUP2 ADD SWAP2 SWAP1 SWAP2 MSTORE PUSH1 0x60 ADD SWAP1 JUMP JUMPDEST PUSH1 0x1 PUSH1 0x1 PUSH1 0xA0 SHL SUB SWAP3 SWAP1 SWAP3 AND DUP3 MSTORE PUSH1 0x20 DUP3 ADD MSTORE PUSH1 0x40 ADD SWAP1 JUMP JUMPDEST SWAP1 ISZERO ISZERO DUP2 MSTORE PUSH1 0x20 ADD SWAP1 JUMP JUMPDEST PUSH1 0x0 PUSH1 0x20 DUP1 DUP4 MSTORE DUP4 MLOAD DUP1 DUP3 DUP6 ADD MSTORE DUP3 JUMPDEST DUP2 DUP2 LT ISZERO PUSH2 0xE43 JUMPI DUP6 DUP2 ADD DUP4 ADD MLOAD DUP6 DUP3 ADD PUSH1 0x40 ADD MSTORE DUP3 ADD PUSH2 0xE27 JUMP JUMPDEST DUP2 DUP2 GT ISZERO PUSH2 0xE54 JUMPI DUP4 PUSH1 0x40 DUP4 DUP8 ADD ADD MSTORE JUMPDEST POP PUSH1 0x1F ADD PUSH1 0x1F NOT AND SWAP3 SWAP1 SWAP3 ADD PUSH1 0x40 ADD SWAP4 SWAP3 POP POP POP JUMP JUMPDEST PUSH1 0x20 DUP1 DUP3 MSTORE PUSH1 0xF SWAP1 DUP3 ADD MSTORE PUSH32 0x7468652049444F206973206F7665720000000000000000000000000000000000 PUSH1 0x40 DUP3 ADD MSTORE PUSH1 0x60 ADD SWAP1 JUMP JUMPDEST PUSH1 0x20 DUP1 DUP3 MSTORE PUSH1 0x3B SWAP1 DUP3 ADD MSTORE PUSH32 0x5468652073656E64657220646F6573206E6F7420686176652074686520726571 PUSH1 0x40 DUP3 ADD MSTORE PUSH32 0x75657374656420747261646520746F6B656E7320746F2073656E640000000000 PUSH1 0x60 DUP3 ADD MSTORE PUSH1 0x80 ADD SWAP1 JUMP JUMPDEST PUSH1 0x20 DUP1 DUP3 MSTORE PUSH1 0x26 SWAP1 DUP3 ADD MSTORE PUSH32 0x4F776E61626C653A206E6577206F776E657220697320746865207A65726F2061 PUSH1 0x40 DUP3 ADD MSTORE PUSH32 0x6464726573730000000000000000000000000000000000000000000000000000 PUSH1 0x60 DUP3 ADD MSTORE PUSH1 0x80 ADD SWAP1 JUMP JUMPDEST PUSH1 0x20 DUP1 DUP3 MSTORE PUSH1 0x19 SWAP1 DUP3 ADD MSTORE PUSH32 0x54686520676F616C20686173206265656E207265616368656400000000000000 PUSH1 0x40 DUP3 ADD MSTORE PUSH1 0x60 ADD SWAP1 JUMP JUMPDEST PUSH1 0x20 DUP1 DUP3 MSTORE PUSH1 0x29 SWAP1 DUP3 ADD MSTORE PUSH32 0x5468652070726F6A65637420746F6B656E2049444F20686173206E6F74207374 PUSH1 0x40 DUP3 ADD MSTORE PUSH32 0x6172746564207965740000000000000000000000000000000000000000000000 PUSH1 0x60 DUP3 ADD MSTORE PUSH1 0x80 ADD SWAP1 JUMP JUMPDEST PUSH1 0x20 DUP1 DUP3 MSTORE PUSH1 0x21 SWAP1 DUP3 ADD MSTORE PUSH32 0x536166654D6174683A206D756C7469706C69636174696F6E206F766572666C6F PUSH1 0x40 DUP3 ADD MSTORE PUSH32 0x7700000000000000000000000000000000000000000000000000000000000000 PUSH1 0x60 DUP3 ADD MSTORE PUSH1 0x80 ADD SWAP1 JUMP JUMPDEST PUSH1 0x20 DUP1 DUP3 MSTORE DUP2 DUP2 ADD MSTORE PUSH32 0x4F776E61626C653A2063616C6C6572206973206E6F7420746865206F776E6572 PUSH1 0x40 DUP3 ADD MSTORE PUSH1 0x60 ADD SWAP1 JUMP JUMPDEST PUSH1 0x20 DUP1 DUP3 MSTORE PUSH1 0x47 SWAP1 DUP3 ADD MSTORE PUSH32 0x54686572652069732061206C696D697420666F72206561636820757365722074 PUSH1 0x40 DUP3 ADD MSTORE PUSH32 0x6F2062757920616E64207468697320616D6F756E74206973206F766572207468 PUSH1 0x60 DUP3 ADD MSTORE PUSH32 0x65206C696D697400000000000000000000000000000000000000000000000000 PUSH1 0x80 DUP3 ADD MSTORE PUSH1 0xA0 ADD SWAP1 JUMP JUMPDEST PUSH1 0x20 DUP1 DUP3 MSTORE PUSH1 0x17 SWAP1 DUP3 ADD MSTORE PUSH32 0x7468652049444F206973206E6F74206F76657220796574000000000000000000 PUSH1 0x40 DUP3 ADD MSTORE PUSH1 0x60 ADD SWAP1 JUMP JUMPDEST SWAP1 DUP2 MSTORE PUSH1 0x20 ADD SWAP1 JUMP JUMPDEST PUSH1 0x0 DUP3 NOT DUP3 GT ISZERO PUSH2 0x1157 JUMPI PUSH2 0x1157 PUSH2 0x119B JUMP JUMPDEST POP ADD SWAP1 JUMP JUMPDEST PUSH1 0x0 DUP3 PUSH2 0x1177 JUMPI PUSH4 0x4E487B71 PUSH1 0xE0 SHL DUP2 MSTORE PUSH1 0x12 PUSH1 0x4 MSTORE PUSH1 0x24 DUP2 REVERT JUMPDEST POP DIV SWAP1 JUMP JUMPDEST PUSH1 0x0 DUP2 PUSH1 0x0 NOT DIV DUP4 GT DUP3 ISZERO ISZERO AND ISZERO PUSH2 0x1196 JUMPI PUSH2 0x1196 PUSH2 0x119B JUMP JUMPDEST POP MUL SWAP1 JUMP JUMPDEST PUSH4 0x4E487B71 PUSH1 0xE0 SHL PUSH1 0x0 MSTORE PUSH1 0x11 PUSH1 0x4 MSTORE PUSH1 0x24 PUSH1 0x0 REVERT INVALID LOG2 PUSH5 0x6970667358 0x22 SLT KECCAK256 0xAE CALLDATALOAD POP CALLVALUE SMOD SWAP2 0xB0 0xE POP GASLIMIT 0xE6 0xE6 PUSH14 0x616843E2925F65AE4CD027D1A1A1 PUSH32 0xC3D8611264736F6C634300080000330000000000000000000000000000000000 "
        },
        "methodIdentifiers": {
          "buy(uint256)": "d96a094a",
          "claim()": "4e71d92d",
          "getOwner()": "893d20e8",
          "getRatio()": "ec1ebd7a",
          "owner()": "8da5cb5b",
          "projectTokens()": "17888efc",
          "renounceOwnership()": "715018a6",
          "returnTokens()": "f9718fc8",
          "saleStatus()": "f9020e33",
          "setCap(uint256)": "47786d37",
          "setRatio(uint256)": "b2237ba3",
          "startSale(uint256,uint256)": "f4f3122e",
          "tokensLeft()": "b31f8f93",
          "tradedTokens()": "9c188426",
          "transferOwnership(address)": "f2fde38b",
          "withdrawTokens()": "8d8f2adb"
        }
      }
    }
  }
}