{
  "contracts/Staking.sol": {
    "GrayblockStaking": {
      "abi": [
        {
          "inputs": [
            {
              "internalType": "address",
              "name": "_owner",
              "type": "address"
            },
            {
              "internalType": "address",
              "name": "_rewardsToken",
              "type": "address"
            },
            {
              "internalType": "address",
              "name": "_stakingToken",
              "type": "address"
            }
          ],
          "stateMutability": "nonpayable",
          "type": "constructor"
        },
        {
          "anonymous": false,
          "inputs": [
            {
              "indexed": false,
              "internalType": "address",
              "name": "oldOwner",
              "type": "address"
            },
            {
              "indexed": false,
              "internalType": "address",
              "name": "newOwner",
              "type": "address"
            }
          ],
          "name": "OwnerChanged",
          "type": "event"
        },
        {
          "anonymous": false,
          "inputs": [
            {
              "indexed": false,
              "internalType": "address",
              "name": "newOwner",
              "type": "address"
            }
          ],
          "name": "OwnerNominated",
          "type": "event"
        },
        {
          "anonymous": false,
          "inputs": [
            {
              "indexed": false,
              "internalType": "bool",
              "name": "isPaused",
              "type": "bool"
            }
          ],
          "name": "PauseChanged",
          "type": "event"
        },
        {
          "anonymous": false,
          "inputs": [
            {
              "indexed": false,
              "internalType": "uint256",
              "name": "reward",
              "type": "uint256"
            }
          ],
          "name": "RewardAdded",
          "type": "event"
        },
        {
          "anonymous": false,
          "inputs": [
            {
              "indexed": true,
              "internalType": "address",
              "name": "user",
              "type": "address"
            },
            {
              "indexed": false,
              "internalType": "uint256",
              "name": "reward",
              "type": "uint256"
            }
          ],
          "name": "RewardPaid",
          "type": "event"
        },
        {
          "anonymous": false,
          "inputs": [
            {
              "indexed": false,
              "internalType": "uint256",
              "name": "rewardsPerInterval",
              "type": "uint256"
            },
            {
              "indexed": false,
              "internalType": "uint256",
              "name": "interval",
              "type": "uint256"
            },
            {
              "indexed": false,
              "internalType": "uint256",
              "name": "rewardRate",
              "type": "uint256"
            }
          ],
          "name": "RewardRateUpdated",
          "type": "event"
        },
        {
          "anonymous": false,
          "inputs": [
            {
              "indexed": true,
              "internalType": "address",
              "name": "user",
              "type": "address"
            },
            {
              "indexed": false,
              "internalType": "uint256",
              "name": "amount",
              "type": "uint256"
            }
          ],
          "name": "Staked",
          "type": "event"
        },
        {
          "anonymous": false,
          "inputs": [
            {
              "indexed": true,
              "internalType": "address",
              "name": "user",
              "type": "address"
            },
            {
              "indexed": false,
              "internalType": "uint256",
              "name": "amount",
              "type": "uint256"
            }
          ],
          "name": "Withdrawn",
          "type": "event"
        },
        {
          "inputs": [],
          "name": "acceptOwnership",
          "outputs": [],
          "stateMutability": "nonpayable",
          "type": "function"
        },
        {
          "inputs": [
            {
              "internalType": "address",
              "name": "account",
              "type": "address"
            }
          ],
          "name": "balanceOf",
          "outputs": [
            {
              "internalType": "uint256",
              "name": "",
              "type": "uint256"
            }
          ],
          "stateMutability": "view",
          "type": "function"
        },
        {
          "inputs": [
            {
              "internalType": "address",
              "name": "account",
              "type": "address"
            }
          ],
          "name": "earned",
          "outputs": [
            {
              "internalType": "uint256",
              "name": "",
              "type": "uint256"
            }
          ],
          "stateMutability": "view",
          "type": "function"
        },
        {
          "inputs": [],
          "name": "exit",
          "outputs": [],
          "stateMutability": "nonpayable",
          "type": "function"
        },
        {
          "inputs": [],
          "name": "getDelay",
          "outputs": [
            {
              "internalType": "uint256",
              "name": "",
              "type": "uint256"
            }
          ],
          "stateMutability": "view",
          "type": "function"
        },
        {
          "inputs": [],
          "name": "getFee",
          "outputs": [
            {
              "internalType": "uint256",
              "name": "",
              "type": "uint256"
            }
          ],
          "stateMutability": "view",
          "type": "function"
        },
        {
          "inputs": [],
          "name": "getMinimumTime",
          "outputs": [
            {
              "internalType": "uint256",
              "name": "",
              "type": "uint256"
            }
          ],
          "stateMutability": "view",
          "type": "function"
        },
        {
          "inputs": [],
          "name": "getReward",
          "outputs": [],
          "stateMutability": "nonpayable",
          "type": "function"
        },
        {
          "inputs": [],
          "name": "getfeeOwner",
          "outputs": [
            {
              "internalType": "address",
              "name": "",
              "type": "address"
            }
          ],
          "stateMutability": "view",
          "type": "function"
        },
        {
          "inputs": [],
          "name": "lastBalance",
          "outputs": [
            {
              "internalType": "uint256",
              "name": "",
              "type": "uint256"
            }
          ],
          "stateMutability": "view",
          "type": "function"
        },
        {
          "inputs": [],
          "name": "lastPauseTime",
          "outputs": [
            {
              "internalType": "uint256",
              "name": "",
              "type": "uint256"
            }
          ],
          "stateMutability": "view",
          "type": "function"
        },
        {
          "inputs": [],
          "name": "lastTimeRewardApplicable",
          "outputs": [
            {
              "internalType": "uint256",
              "name": "",
              "type": "uint256"
            }
          ],
          "stateMutability": "view",
          "type": "function"
        },
        {
          "inputs": [],
          "name": "lastUpdateTime",
          "outputs": [
            {
              "internalType": "uint256",
              "name": "",
              "type": "uint256"
            }
          ],
          "stateMutability": "view",
          "type": "function"
        },
        {
          "inputs": [
            {
              "internalType": "address",
              "name": "_owner",
              "type": "address"
            }
          ],
          "name": "nominateNewOwner",
          "outputs": [],
          "stateMutability": "nonpayable",
          "type": "function"
        },
        {
          "inputs": [],
          "name": "nominatedOwner",
          "outputs": [
            {
              "internalType": "address",
              "name": "",
              "type": "address"
            }
          ],
          "stateMutability": "view",
          "type": "function"
        },
        {
          "inputs": [
            {
              "internalType": "uint256",
              "name": "reward",
              "type": "uint256"
            }
          ],
          "name": "notifyRewardAmount",
          "outputs": [],
          "stateMutability": "nonpayable",
          "type": "function"
        },
        {
          "inputs": [],
          "name": "owner",
          "outputs": [
            {
              "internalType": "address",
              "name": "",
              "type": "address"
            }
          ],
          "stateMutability": "view",
          "type": "function"
        },
        {
          "inputs": [],
          "name": "paused",
          "outputs": [
            {
              "internalType": "bool",
              "name": "",
              "type": "bool"
            }
          ],
          "stateMutability": "view",
          "type": "function"
        },
        {
          "inputs": [],
          "name": "periodFinish",
          "outputs": [
            {
              "internalType": "uint256",
              "name": "",
              "type": "uint256"
            }
          ],
          "stateMutability": "view",
          "type": "function"
        },
        {
          "inputs": [],
          "name": "rewardPerToken",
          "outputs": [
            {
              "internalType": "uint256",
              "name": "",
              "type": "uint256"
            }
          ],
          "stateMutability": "view",
          "type": "function"
        },
        {
          "inputs": [],
          "name": "rewardPerTokenStored",
          "outputs": [
            {
              "internalType": "uint256",
              "name": "",
              "type": "uint256"
            }
          ],
          "stateMutability": "view",
          "type": "function"
        },
        {
          "inputs": [],
          "name": "rewardRate",
          "outputs": [
            {
              "internalType": "uint256",
              "name": "",
              "type": "uint256"
            }
          ],
          "stateMutability": "view",
          "type": "function"
        },
        {
          "inputs": [],
          "name": "rewardsDuration",
          "outputs": [
            {
              "internalType": "uint256",
              "name": "",
              "type": "uint256"
            }
          ],
          "stateMutability": "view",
          "type": "function"
        },
        {
          "inputs": [],
          "name": "rewardsToken",
          "outputs": [
            {
              "internalType": "contract IERC20",
              "name": "",
              "type": "address"
            }
          ],
          "stateMutability": "view",
          "type": "function"
        },
        {
          "inputs": [
            {
              "internalType": "uint256",
              "name": "_delay",
              "type": "uint256"
            }
          ],
          "name": "setDelay",
          "outputs": [
            {
              "internalType": "uint256",
              "name": "",
              "type": "uint256"
            }
          ],
          "stateMutability": "nonpayable",
          "type": "function"
        },
        {
          "inputs": [
            {
              "internalType": "uint256",
              "name": "_fee",
              "type": "uint256"
            }
          ],
          "name": "setFee",
          "outputs": [
            {
              "internalType": "uint256",
              "name": "",
              "type": "uint256"
            }
          ],
          "stateMutability": "nonpayable",
          "type": "function"
        },
        {
          "inputs": [
            {
              "internalType": "uint256",
              "name": "_minimumTime",
              "type": "uint256"
            }
          ],
          "name": "setMinimumTime",
          "outputs": [
            {
              "internalType": "uint256",
              "name": "",
              "type": "uint256"
            }
          ],
          "stateMutability": "nonpayable",
          "type": "function"
        },
        {
          "inputs": [
            {
              "internalType": "bool",
              "name": "_paused",
              "type": "bool"
            }
          ],
          "name": "setPaused",
          "outputs": [],
          "stateMutability": "nonpayable",
          "type": "function"
        },
        {
          "inputs": [
            {
              "internalType": "uint256",
              "name": "rewardsPerInterval",
              "type": "uint256"
            },
            {
              "internalType": "uint256",
              "name": "interval",
              "type": "uint256"
            }
          ],
          "name": "setRewardRate",
          "outputs": [],
          "stateMutability": "nonpayable",
          "type": "function"
        },
        {
          "inputs": [
            {
              "internalType": "address",
              "name": "_feeOwner",
              "type": "address"
            }
          ],
          "name": "setfeeOwner",
          "outputs": [
            {
              "internalType": "address",
              "name": "",
              "type": "address"
            }
          ],
          "stateMutability": "nonpayable",
          "type": "function"
        },
        {
          "inputs": [
            {
              "internalType": "uint256",
              "name": "amount",
              "type": "uint256"
            }
          ],
          "name": "stake",
          "outputs": [],
          "stateMutability": "nonpayable",
          "type": "function"
        },
        {
          "inputs": [],
          "name": "stakingToken",
          "outputs": [
            {
              "internalType": "contract IERC20",
              "name": "",
              "type": "address"
            }
          ],
          "stateMutability": "view",
          "type": "function"
        },
        {
          "inputs": [],
          "name": "totalSupply",
          "outputs": [
            {
              "internalType": "uint256",
              "name": "",
              "type": "uint256"
            }
          ],
          "stateMutability": "view",
          "type": "function"
        },
        {
          "inputs": [
            {
              "internalType": "uint256",
              "name": "amount",
              "type": "uint256"
            }
          ],
          "name": "withdraw",
          "outputs": [],
          "stateMutability": "nonpayable",
          "type": "function"
        }
      ],
      "evm": {
        "bytecode": {
          "linkReferences": {},
          "object": "6080604052620151806012556000601355600a601455601580546001600160a01b031916738d76b11f924cad777ad789f7629b20eee67c8b8e1790553480156200004857600080fd5b5060405162001c6938038062001c698339810160408190526200006b9162000179565b600160005582806001600160a01b038116620000a45760405162461bcd60e51b81526004016200009b9062000207565b60405180910390fd5b600180546001600160a01b0319166001600160a01b0383161790556040517fb532073b38c83145e3e5135377a08bf9aab55bc0fd7c1179cd4fb995d2a5159c90620000f4906000908490620001c2565b60405180910390a1506001546001600160a01b0316620001285760405162461bcd60e51b81526004016200009b90620001dc565b50600c80546001600160a01b039384166001600160a01b031991821617909155600d8054929093169116179055506200023e565b80516001600160a01b03811681146200017457600080fd5b919050565b6000806000606084860312156200018e578283fd5b62000199846200015c565b9250620001a9602085016200015c565b9150620001b9604085016200015c565b90509250925092565b6001600160a01b0392831681529116602082015260400190565b60208082526011908201527013dddb995c881b5d5cdd081899481cd95d607a1b604082015260600190565b60208082526019908201527f4f776e657220616464726573732063616e6e6f74206265203000000000000000604082015260600190565b611a1b806200024e6000396000f3fe608060405234801561001057600080fd5b50600436106102255760003560e01c806372f702f31161012a578063c8f33c91116100bd578063d1af0c7d1161008c578063e177246e11610071578063e177246e146103cd578063e9fad8ee146103e0578063ebe2b12b146103e857610225565b8063d1af0c7d146103bd578063df136d65146103c557610225565b8063c8f33c911461039d578063cd3daf9d146103a5578063cebc9a82146103ad578063ced72f87146103b557610225565b80638da5cb5b116100f95780638da5cb5b146103725780638f1c56bd1461037a57806391b4ded914610382578063a694fc3a1461038a57610225565b806372f702f31461035257806379ba50971461035a5780637b0a47ee1461036257806380faa57d1461036a57610225565b80633462e0a8116101bd57806353a47bb71161018c5780635ccab739116101715780635ccab7391461031957806369fe0e2d1461032c57806370a082311461033f57610225565b806353a47bb7146102fc5780635c975abb1461030457610225565b80633462e0a8146102c6578063386a9525146102d95780633c6b16ab146102e15780633d18b912146102f457610225565b806316c38b3c116101f957806316c38b3c1461029057806318160ddd146102a3578063256645ca146102ab5780632e1a7d4d146102b357610225565b80628cc2621461022a578063026c24461461025357806310292b00146102735780631627540c1461027b575b600080fd5b61023d6102383660046112a7565b6103f0565b60405161024a9190611908565b60405180910390f35b6102666102613660046112a7565b61046e565b60405161024a9190611373565b6102666104a8565b61028e6102893660046112a7565b6104b8565b005b61028e61029e3660046112ce565b610523565b61023d610598565b61023d61059e565b61028e6102c1366004611306565b6105a4565b61028e6102d4366004611336565b610737565b61023d6107d9565b61028e6102ef366004611306565b6107df565b61028e6109ec565b610266610b37565b61030c610b46565b60405161024a91906113de565b61023d610327366004611306565b610b4f565b61023d61033a366004611306565b610b62565b61023d61034d3660046112a7565b610b75565b610266610b90565b61028e610b9f565b61023d610c48565b61023d610c4e565b610266610c61565b61023d610c70565b61023d610c76565b61028e610398366004611306565b610c7c565b61023d610e31565b61023d610e37565b61023d610e85565b61023d610e8b565b610266610e91565b61023d610ea0565b61023d6103db366004611306565b610ea6565b61028e610eb9565b61023d610edc565b6001600160a01b0381166000908152600f6020908152604080832054600e909252822054610468919061046290670de0b6b3a76400009061045c9061043d90610437610e37565b90610ee2565b6001600160a01b03881660009081526010602052604090205490610f2b565b90610f70565b90610fb2565b92915050565b6000610478610fe1565b506015805473ffffffffffffffffffffffffffffffffffffffff19166001600160a01b0392831617908190551690565b6015546001600160a01b03165b90565b6104c0610fe1565b6002805473ffffffffffffffffffffffffffffffffffffffff19166001600160a01b0383161790556040517f906a1c6bd7e3091ea86693dd029a831c19049ce77f1dce2ce0bab1cacbabce2290610518908390611373565b60405180910390a150565b61052b610fe1565b60045460ff161515811515141561054157610595565b6004805460ff1916821515179081905560ff161561055e57426003555b6004546040517f8fb6c181ee25a520cf3dd6565006ef91229fcfe5a989566c2a3b8c115570cec5916105189160ff909116906113de565b50565b600b5481565b60135490565b600260005414156105d05760405162461bcd60e51b81526004016105c7906118d1565b60405180910390fd5b6002600055336105de610e37565b6009556105e9610c4e565b6008556001600160a01b0381161561063057610604816103f0565b6001600160a01b0382166000908152600f6020908152604080832093909355600954600e909152919020555b600082116106505760405162461bcd60e51b81526004016105c7906116b8565b601354156106975733600090815260116020526040812054610672904261197e565b905060135481116106955760405162461bcd60e51b81526004016105c790611544565b505b600b546106a49083610ee2565b600b55336000908152601060205260409020546106c19083610ee2565b33600081815260106020526040902091909155600d546106ed916001600160a01b03909116908461100b565b336001600160a01b03167f7084f5476618d8e60b11ef0d7d3f06914655adb8793e28ff7f018d4c76d505d5836040516107269190611908565b60405180910390a250506001600055565b61073f610fe1565b60008211801561074f5750600081115b61076b5760405162461bcd60e51b81526004016105c7906114b0565b600554421161078c5760405162461bcd60e51b81526004016105c7906115a1565b6107968282610f70565b60068190556040517f69155044ae1e4cf9acf985cae44e0d86b5e592e3fb029bc9b39f63b0bdaa4a62916107cd9185918591611911565b60405180910390a15050565b60075481565b6107e7610fe1565b60006107f1610e37565b6009556107fc610c4e565b6008556001600160a01b0381161561084357610817816103f0565b6001600160a01b0382166000908152600f6020908152604080832093909355600954600e909152919020555b6000600654116108655760405162461bcd60e51b81526004016105c790611624565b60055442106108845760065461087c908390610f70565b6007556108c7565b6005546000906108949042610ee2565b905060006108ad60065483610f2b90919063ffffffff16565b6006549091506108c19061045c8684610fb2565b60075550505b600c546040517f70a082310000000000000000000000000000000000000000000000000000000081526000916001600160a01b0316906370a0823190610911903090600401611373565b60206040518083038186803b15801561092957600080fd5b505afa15801561093d573d6000803e3d6000fd5b505050506040513d601f19601f82011682018060405250810190610961919061131e565b905061097860075482610f7090919063ffffffff16565b60065411156109995760405162461bcd60e51b81526004016105c7906117a9565b4260088190556007546109ac9190610fb2565b6005556040517fde88a922e0d3b88b24e9623efeb464919c6bf9f66857a65e2bfcf2ce87a9433d906109df908590611908565b60405180910390a1505050565b60026000541415610a0f5760405162461bcd60e51b81526004016105c7906118d1565b600260005533610a1d610e37565b600955610a28610c4e565b6008556001600160a01b03811615610a6f57610a43816103f0565b6001600160a01b0382166000908152600f6020908152604080832093909355600954600e909152919020555b336000908152600f602052604090205460125415610ac65733600090815260116020526040812054610aa1904261197e565b90506012548111610ac45760405162461bcd60e51b81526004016105c79061174c565b505b8015610b2e57336000818152600f6020526040812055600c54610af5916001600160a01b03909116908361100b565b336001600160a01b03167fe2403640ba68fed3a2f88b7557551d1993f84b99bb10ff833f0cf8db0c5e0486826040516107269190611908565b50506001600055565b6002546001600160a01b031681565b60045460ff1681565b6000610b59610fe1565b50601381905590565b6000610b6c610fe1565b50601481905590565b6001600160a01b031660009081526010602052604090205490565b600d546001600160a01b031681565b6002546001600160a01b03163314610bc95760405162461bcd60e51b81526004016105c79061141c565b6001546002546040517fb532073b38c83145e3e5135377a08bf9aab55bc0fd7c1179cd4fb995d2a5159c92610c0c926001600160a01b0391821692911690611387565b60405180910390a1600280546001805473ffffffffffffffffffffffffffffffffffffffff199081166001600160a01b03841617909155169055565b60065481565b6000610c5c42600554611093565b905090565b6001546001600160a01b031681565b600a5481565b60035481565b60026000541415610c9f5760405162461bcd60e51b81526004016105c7906118d1565b600260005560045460ff1615610cc75760405162461bcd60e51b81526004016105c7906117e0565b33610cd0610e37565b600955610cdb610c4e565b6008556001600160a01b03811615610d2257610cf6816103f0565b6001600160a01b0382166000908152600f6020908152604080832093909355600954600e909152919020555b60008211610d425760405162461bcd60e51b81526004016105c790611479565b600d54610d5a906001600160a01b03163330856110a9565b601454600090610d6c906103e8610f70565b9050610d788184610f2b565b9050610d84818461197e565b601554600d54919450610da6916001600160a01b0390811691309116846110a9565b600b54610db39084610fb2565b600b5533600090815260106020526040902054610dd09084610fb2565b336000818152601060209081526040808320949094556011905282902042905590517f9e71bc8eea02a63969f509818f2dafb9254532904319f9dbda79b67bd34a5f3d90610e1f908690611908565b60405180910390a25050600160005550565b60085481565b6000600b5460001415610e4d57506009546104b5565b610c5c610e7c600b5461045c670de0b6b3a7640000610e76600654610e76600854610437610c4e565b90610f2b565b60095490610fb2565b60125490565b60145490565b600c546001600160a01b031681565b60095481565b6000610eb0610fe1565b50601281905590565b33600090815260106020526040902054610ed2906105a4565b610eda6109ec565b565b60055481565b6000610f2483836040518060400160405280601e81526020017f536166654d6174683a207375627472616374696f6e206f766572666c6f7700008152506110d0565b9392505050565b600082610f3a57506000610468565b6000610f46838561195f565b905082610f53858361193f565b14610f245760405162461bcd60e51b81526004016105c7906116ef565b6000610f2483836040518060400160405280601a81526020017f536166654d6174683a206469766973696f6e206279207a65726f00000000000081525061110a565b600080610fbf8385611927565b905083811015610f245760405162461bcd60e51b81526004016105c79061150d565b6001546001600160a01b03163314610eda5760405162461bcd60e51b81526004016105c79061165b565b61108e8363a9059cbb60e01b848460405160240161102a9291906113c5565b60408051601f198184030181529190526020810180517bffffffffffffffffffffffffffffffffffffffffffffffffffffffff167fffffffff0000000000000000000000000000000000000000000000000000000090931692909217909152611138565b505050565b60008183106110a25781610f24565b5090919050565b6110ca846323b872dd60e01b85858560405160240161102a939291906113a1565b50505050565b600081848411156110f45760405162461bcd60e51b81526004016105c791906113e9565b506000611101848661197e565b95945050505050565b6000818361112b5760405162461bcd60e51b81526004016105c791906113e9565b506000611101848661193f565b600061118d826040518060400160405280602081526020017f5361666545524332303a206c6f772d6c6576656c2063616c6c206661696c6564815250856001600160a01b03166111c79092919063ffffffff16565b80519091501561108e57808060200190518101906111ab91906112ea565b61108e5760405162461bcd60e51b81526004016105c790611874565b60606111d684846000856111de565b949350505050565b60606111e9856112a1565b6112055760405162461bcd60e51b81526004016105c79061183d565b600080866001600160a01b031685876040516112219190611357565b60006040518083038185875af1925050503d806000811461125e576040519150601f19603f3d011682016040523d82523d6000602084013e611263565b606091505b509150915081156112775791506111d69050565b8051156112875780518082602001fd5b8360405162461bcd60e51b81526004016105c791906113e9565b3b151590565b6000602082840312156112b8578081fd5b81356001600160a01b0381168114610f24578182fd5b6000602082840312156112df578081fd5b8135610f24816119d7565b6000602082840312156112fb578081fd5b8151610f24816119d7565b600060208284031215611317578081fd5b5035919050565b60006020828403121561132f578081fd5b5051919050565b60008060408385031215611348578081fd5b50508035926020909101359150565b60008251611369818460208701611995565b9190910192915050565b6001600160a01b0391909116815260200190565b6001600160a01b0392831681529116602082015260400190565b6001600160a01b039384168152919092166020820152604081019190915260600190565b6001600160a01b03929092168252602082015260400190565b901515815260200190565b6000602082528251806020840152611408816040850160208701611995565b601f01601f19169190910160400192915050565b60208082526035908201527f596f75206d757374206265206e6f6d696e61746564206265666f726520796f7560408201527f2063616e20616363657074206f776e6572736869700000000000000000000000606082015260800190565b6020808252600e908201527f43616e6e6f74207374616b652030000000000000000000000000000000000000604082015260600190565b60208082526038908201527f72657761726473506572496e74657276616c20616e6420696e74657276616c2060408201527f73686f756c642062652067726561746572207468616e20300000000000000000606082015260800190565b6020808252601b908201527f536166654d6174683a206164646974696f6e206f766572666c6f770000000000604082015260600190565b60208082526029908201527f4e65656420746f2077616974206d696e696d756d2074696d65206265666f726560408201527f2077697468647261770000000000000000000000000000000000000000000000606082015260800190565b60208082526048908201527f50726576696f7573207265776172647320706572696f64206d7573742062652060408201527f636f6d706c657465206265666f7265206368616e67696e67207468652072657760608201527f6172642072617465000000000000000000000000000000000000000000000000608082015260a00190565b6020808252601a908201527f5265776172642052617465206973206e6f742079657420736574000000000000604082015260600190565b6020808252602f908201527f4f6e6c792074686520636f6e7472616374206f776e6572206d6179207065726660408201527f6f726d207468697320616374696f6e0000000000000000000000000000000000606082015260800190565b60208082526011908201527f43616e6e6f742077697468647261772030000000000000000000000000000000604082015260600190565b60208082526021908201527f536166654d6174683a206d756c7469706c69636174696f6e206f766572666c6f60408201527f7700000000000000000000000000000000000000000000000000000000000000606082015260800190565b60208082526023908201527f4e65656420746f2077616974206265666f72652067657474696e67207265776160408201527f7264730000000000000000000000000000000000000000000000000000000000606082015260800190565b60208082526018908201527f50726f76696465642072657761726420746f6f20686967680000000000000000604082015260600190565b6020808252603c908201527f5468697320616374696f6e2063616e6e6f7420626520706572666f726d65642060408201527f7768696c652074686520636f6e74726163742069732070617573656400000000606082015260800190565b6020808252601d908201527f416464726573733a2063616c6c20746f206e6f6e2d636f6e7472616374000000604082015260600190565b6020808252602a908201527f5361666545524332303a204552433230206f7065726174696f6e20646964206e60408201527f6f74207375636365656400000000000000000000000000000000000000000000606082015260800190565b6020808252601f908201527f5265656e7472616e637947756172643a207265656e7472616e742063616c6c00604082015260600190565b90815260200190565b9283526020830191909152604082015260600190565b6000821982111561193a5761193a6119c1565b500190565b60008261195a57634e487b7160e01b81526012600452602481fd5b500490565b6000816000190483118215151615611979576119796119c1565b500290565b600082821015611990576119906119c1565b500390565b60005b838110156119b0578181015183820152602001611998565b838111156110ca5750506000910152565b634e487b7160e01b600052601160045260246000fd5b801515811461059557600080fdfea2646970667358221220c7ab38afc6be8171e144733784184224edd9b3c9becfab5eadd66f25ee11faa364736f6c63430008000033",
          "opcodes": "PUSH1 0x80 PUSH1 0x40 MSTORE PUSH3 0x15180 PUSH1 0x12 SSTORE PUSH1 0x0 PUSH1 0x13 SSTORE PUSH1 0xA PUSH1 0x14 SSTORE PUSH1 0x15 DUP1 SLOAD PUSH1 0x1 PUSH1 0x1 PUSH1 0xA0 SHL SUB NOT AND PUSH20 0x8D76B11F924CAD777AD789F7629B20EEE67C8B8E OR SWAP1 SSTORE CALLVALUE DUP1 ISZERO PUSH3 0x48 JUMPI PUSH1 0x0 DUP1 REVERT JUMPDEST POP PUSH1 0x40 MLOAD PUSH3 0x1C69 CODESIZE SUB DUP1 PUSH3 0x1C69 DUP4 CODECOPY DUP2 ADD PUSH1 0x40 DUP2 SWAP1 MSTORE PUSH3 0x6B SWAP2 PUSH3 0x179 JUMP JUMPDEST PUSH1 0x1 PUSH1 0x0 SSTORE DUP3 DUP1 PUSH1 0x1 PUSH1 0x1 PUSH1 0xA0 SHL SUB DUP2 AND PUSH3 0xA4 JUMPI PUSH1 0x40 MLOAD PUSH3 0x461BCD PUSH1 0xE5 SHL DUP2 MSTORE PUSH1 0x4 ADD PUSH3 0x9B SWAP1 PUSH3 0x207 JUMP JUMPDEST PUSH1 0x40 MLOAD DUP1 SWAP2 SUB SWAP1 REVERT JUMPDEST PUSH1 0x1 DUP1 SLOAD PUSH1 0x1 PUSH1 0x1 PUSH1 0xA0 SHL SUB NOT AND PUSH1 0x1 PUSH1 0x1 PUSH1 0xA0 SHL SUB DUP4 AND OR SWAP1 SSTORE PUSH1 0x40 MLOAD PUSH32 0xB532073B38C83145E3E5135377A08BF9AAB55BC0FD7C1179CD4FB995D2A5159C SWAP1 PUSH3 0xF4 SWAP1 PUSH1 0x0 SWAP1 DUP5 SWAP1 PUSH3 0x1C2 JUMP JUMPDEST PUSH1 0x40 MLOAD DUP1 SWAP2 SUB SWAP1 LOG1 POP PUSH1 0x1 SLOAD PUSH1 0x1 PUSH1 0x1 PUSH1 0xA0 SHL SUB AND PUSH3 0x128 JUMPI PUSH1 0x40 MLOAD PUSH3 0x461BCD PUSH1 0xE5 SHL DUP2 MSTORE PUSH1 0x4 ADD PUSH3 0x9B SWAP1 PUSH3 0x1DC JUMP JUMPDEST POP PUSH1 0xC DUP1 SLOAD PUSH1 0x1 PUSH1 0x1 PUSH1 0xA0 SHL SUB SWAP4 DUP5 AND PUSH1 0x1 PUSH1 0x1 PUSH1 0xA0 SHL SUB NOT SWAP2 DUP3 AND OR SWAP1 SWAP2 SSTORE PUSH1 0xD DUP1 SLOAD SWAP3 SWAP1 SWAP4 AND SWAP2 AND OR SWAP1 SSTORE POP PUSH3 0x23E JUMP JUMPDEST DUP1 MLOAD PUSH1 0x1 PUSH1 0x1 PUSH1 0xA0 SHL SUB DUP2 AND DUP2 EQ PUSH3 0x174 JUMPI PUSH1 0x0 DUP1 REVERT JUMPDEST SWAP2 SWAP1 POP JUMP JUMPDEST PUSH1 0x0 DUP1 PUSH1 0x0 PUSH1 0x60 DUP5 DUP7 SUB SLT ISZERO PUSH3 0x18E JUMPI DUP3 DUP4 REVERT JUMPDEST PUSH3 0x199 DUP5 PUSH3 0x15C JUMP JUMPDEST SWAP3 POP PUSH3 0x1A9 PUSH1 0x20 DUP6 ADD PUSH3 0x15C JUMP JUMPDEST SWAP2 POP PUSH3 0x1B9 PUSH1 0x40 DUP6 ADD PUSH3 0x15C JUMP JUMPDEST SWAP1 POP SWAP3 POP SWAP3 POP SWAP3 JUMP JUMPDEST PUSH1 0x1 PUSH1 0x1 PUSH1 0xA0 SHL SUB SWAP3 DUP4 AND DUP2 MSTORE SWAP2 AND PUSH1 0x20 DUP3 ADD MSTORE PUSH1 0x40 ADD SWAP1 JUMP JUMPDEST PUSH1 0x20 DUP1 DUP3 MSTORE PUSH1 0x11 SWAP1 DUP3 ADD MSTORE PUSH17 0x13DDDB995C881B5D5CDD081899481CD95D PUSH1 0x7A SHL PUSH1 0x40 DUP3 ADD MSTORE PUSH1 0x60 ADD SWAP1 JUMP JUMPDEST PUSH1 0x20 DUP1 DUP3 MSTORE PUSH1 0x19 SWAP1 DUP3 ADD MSTORE PUSH32 0x4F776E657220616464726573732063616E6E6F74206265203000000000000000 PUSH1 0x40 DUP3 ADD MSTORE PUSH1 0x60 ADD SWAP1 JUMP JUMPDEST PUSH2 0x1A1B DUP1 PUSH3 0x24E PUSH1 0x0 CODECOPY PUSH1 0x0 RETURN INVALID PUSH1 0x80 PUSH1 0x40 MSTORE CALLVALUE DUP1 ISZERO PUSH2 0x10 JUMPI PUSH1 0x0 DUP1 REVERT JUMPDEST POP PUSH1 0x4 CALLDATASIZE LT PUSH2 0x225 JUMPI PUSH1 0x0 CALLDATALOAD PUSH1 0xE0 SHR DUP1 PUSH4 0x72F702F3 GT PUSH2 0x12A JUMPI DUP1 PUSH4 0xC8F33C91 GT PUSH2 0xBD JUMPI DUP1 PUSH4 0xD1AF0C7D GT PUSH2 0x8C JUMPI DUP1 PUSH4 0xE177246E GT PUSH2 0x71 JUMPI DUP1 PUSH4 0xE177246E EQ PUSH2 0x3CD JUMPI DUP1 PUSH4 0xE9FAD8EE EQ PUSH2 0x3E0 JUMPI DUP1 PUSH4 0xEBE2B12B EQ PUSH2 0x3E8 JUMPI PUSH2 0x225 JUMP JUMPDEST DUP1 PUSH4 0xD1AF0C7D EQ PUSH2 0x3BD JUMPI DUP1 PUSH4 0xDF136D65 EQ PUSH2 0x3C5 JUMPI PUSH2 0x225 JUMP JUMPDEST DUP1 PUSH4 0xC8F33C91 EQ PUSH2 0x39D JUMPI DUP1 PUSH4 0xCD3DAF9D EQ PUSH2 0x3A5 JUMPI DUP1 PUSH4 0xCEBC9A82 EQ PUSH2 0x3AD JUMPI DUP1 PUSH4 0xCED72F87 EQ PUSH2 0x3B5 JUMPI PUSH2 0x225 JUMP JUMPDEST DUP1 PUSH4 0x8DA5CB5B GT PUSH2 0xF9 JUMPI DUP1 PUSH4 0x8DA5CB5B EQ PUSH2 0x372 JUMPI DUP1 PUSH4 0x8F1C56BD EQ PUSH2 0x37A JUMPI DUP1 PUSH4 0x91B4DED9 EQ PUSH2 0x382 JUMPI DUP1 PUSH4 0xA694FC3A EQ PUSH2 0x38A JUMPI PUSH2 0x225 JUMP JUMPDEST DUP1 PUSH4 0x72F702F3 EQ PUSH2 0x352 JUMPI DUP1 PUSH4 0x79BA5097 EQ PUSH2 0x35A JUMPI DUP1 PUSH4 0x7B0A47EE EQ PUSH2 0x362 JUMPI DUP1 PUSH4 0x80FAA57D EQ PUSH2 0x36A JUMPI PUSH2 0x225 JUMP JUMPDEST DUP1 PUSH4 0x3462E0A8 GT PUSH2 0x1BD JUMPI DUP1 PUSH4 0x53A47BB7 GT PUSH2 0x18C JUMPI DUP1 PUSH4 0x5CCAB739 GT PUSH2 0x171 JUMPI DUP1 PUSH4 0x5CCAB739 EQ PUSH2 0x319 JUMPI DUP1 PUSH4 0x69FE0E2D EQ PUSH2 0x32C JUMPI DUP1 PUSH4 0x70A08231 EQ PUSH2 0x33F JUMPI PUSH2 0x225 JUMP JUMPDEST DUP1 PUSH4 0x53A47BB7 EQ PUSH2 0x2FC JUMPI DUP1 PUSH4 0x5C975ABB EQ PUSH2 0x304 JUMPI PUSH2 0x225 JUMP JUMPDEST DUP1 PUSH4 0x3462E0A8 EQ PUSH2 0x2C6 JUMPI DUP1 PUSH4 0x386A9525 EQ PUSH2 0x2D9 JUMPI DUP1 PUSH4 0x3C6B16AB EQ PUSH2 0x2E1 JUMPI DUP1 PUSH4 0x3D18B912 EQ PUSH2 0x2F4 JUMPI PUSH2 0x225 JUMP JUMPDEST DUP1 PUSH4 0x16C38B3C GT PUSH2 0x1F9 JUMPI DUP1 PUSH4 0x16C38B3C EQ PUSH2 0x290 JUMPI DUP1 PUSH4 0x18160DDD EQ PUSH2 0x2A3 JUMPI DUP1 PUSH4 0x256645CA EQ PUSH2 0x2AB JUMPI DUP1 PUSH4 0x2E1A7D4D EQ PUSH2 0x2B3 JUMPI PUSH2 0x225 JUMP JUMPDEST DUP1 PUSH3 0x8CC262 EQ PUSH2 0x22A JUMPI DUP1 PUSH4 0x26C2446 EQ PUSH2 0x253 JUMPI DUP1 PUSH4 0x10292B00 EQ PUSH2 0x273 JUMPI DUP1 PUSH4 0x1627540C EQ PUSH2 0x27B JUMPI JUMPDEST PUSH1 0x0 DUP1 REVERT JUMPDEST PUSH2 0x23D PUSH2 0x238 CALLDATASIZE PUSH1 0x4 PUSH2 0x12A7 JUMP JUMPDEST PUSH2 0x3F0 JUMP JUMPDEST PUSH1 0x40 MLOAD PUSH2 0x24A SWAP2 SWAP1 PUSH2 0x1908 JUMP JUMPDEST PUSH1 0x40 MLOAD DUP1 SWAP2 SUB SWAP1 RETURN JUMPDEST PUSH2 0x266 PUSH2 0x261 CALLDATASIZE PUSH1 0x4 PUSH2 0x12A7 JUMP JUMPDEST PUSH2 0x46E JUMP JUMPDEST PUSH1 0x40 MLOAD PUSH2 0x24A SWAP2 SWAP1 PUSH2 0x1373 JUMP JUMPDEST PUSH2 0x266 PUSH2 0x4A8 JUMP JUMPDEST PUSH2 0x28E PUSH2 0x289 CALLDATASIZE PUSH1 0x4 PUSH2 0x12A7 JUMP JUMPDEST PUSH2 0x4B8 JUMP JUMPDEST STOP JUMPDEST PUSH2 0x28E PUSH2 0x29E CALLDATASIZE PUSH1 0x4 PUSH2 0x12CE JUMP JUMPDEST PUSH2 0x523 JUMP JUMPDEST PUSH2 0x23D PUSH2 0x598 JUMP JUMPDEST PUSH2 0x23D PUSH2 0x59E JUMP JUMPDEST PUSH2 0x28E PUSH2 0x2C1 CALLDATASIZE PUSH1 0x4 PUSH2 0x1306 JUMP JUMPDEST PUSH2 0x5A4 JUMP JUMPDEST PUSH2 0x28E PUSH2 0x2D4 CALLDATASIZE PUSH1 0x4 PUSH2 0x1336 JUMP JUMPDEST PUSH2 0x737 JUMP JUMPDEST PUSH2 0x23D PUSH2 0x7D9 JUMP JUMPDEST PUSH2 0x28E PUSH2 0x2EF CALLDATASIZE PUSH1 0x4 PUSH2 0x1306 JUMP JUMPDEST PUSH2 0x7DF JUMP JUMPDEST PUSH2 0x28E PUSH2 0x9EC JUMP JUMPDEST PUSH2 0x266 PUSH2 0xB37 JUMP JUMPDEST PUSH2 0x30C PUSH2 0xB46 JUMP JUMPDEST PUSH1 0x40 MLOAD PUSH2 0x24A SWAP2 SWAP1 PUSH2 0x13DE JUMP JUMPDEST PUSH2 0x23D PUSH2 0x327 CALLDATASIZE PUSH1 0x4 PUSH2 0x1306 JUMP JUMPDEST PUSH2 0xB4F JUMP JUMPDEST PUSH2 0x23D PUSH2 0x33A CALLDATASIZE PUSH1 0x4 PUSH2 0x1306 JUMP JUMPDEST PUSH2 0xB62 JUMP JUMPDEST PUSH2 0x23D PUSH2 0x34D CALLDATASIZE PUSH1 0x4 PUSH2 0x12A7 JUMP JUMPDEST PUSH2 0xB75 JUMP JUMPDEST PUSH2 0x266 PUSH2 0xB90 JUMP JUMPDEST PUSH2 0x28E PUSH2 0xB9F JUMP JUMPDEST PUSH2 0x23D PUSH2 0xC48 JUMP JUMPDEST PUSH2 0x23D PUSH2 0xC4E JUMP JUMPDEST PUSH2 0x266 PUSH2 0xC61 JUMP JUMPDEST PUSH2 0x23D PUSH2 0xC70 JUMP JUMPDEST PUSH2 0x23D PUSH2 0xC76 JUMP JUMPDEST PUSH2 0x28E PUSH2 0x398 CALLDATASIZE PUSH1 0x4 PUSH2 0x1306 JUMP JUMPDEST PUSH2 0xC7C JUMP JUMPDEST PUSH2 0x23D PUSH2 0xE31 JUMP JUMPDEST PUSH2 0x23D PUSH2 0xE37 JUMP JUMPDEST PUSH2 0x23D PUSH2 0xE85 JUMP JUMPDEST PUSH2 0x23D PUSH2 0xE8B JUMP JUMPDEST PUSH2 0x266 PUSH2 0xE91 JUMP JUMPDEST PUSH2 0x23D PUSH2 0xEA0 JUMP JUMPDEST PUSH2 0x23D PUSH2 0x3DB CALLDATASIZE PUSH1 0x4 PUSH2 0x1306 JUMP JUMPDEST PUSH2 0xEA6 JUMP JUMPDEST PUSH2 0x28E PUSH2 0xEB9 JUMP JUMPDEST PUSH2 0x23D PUSH2 0xEDC JUMP JUMPDEST PUSH1 0x1 PUSH1 0x1 PUSH1 0xA0 SHL SUB DUP2 AND PUSH1 0x0 SWAP1 DUP2 MSTORE PUSH1 0xF PUSH1 0x20 SWAP1 DUP2 MSTORE PUSH1 0x40 DUP1 DUP4 KECCAK256 SLOAD PUSH1 0xE SWAP1 SWAP3 MSTORE DUP3 KECCAK256 SLOAD PUSH2 0x468 SWAP2 SWAP1 PUSH2 0x462 SWAP1 PUSH8 0xDE0B6B3A7640000 SWAP1 PUSH2 0x45C SWAP1 PUSH2 0x43D SWAP1 PUSH2 0x437 PUSH2 0xE37 JUMP JUMPDEST SWAP1 PUSH2 0xEE2 JUMP JUMPDEST PUSH1 0x1 PUSH1 0x1 PUSH1 0xA0 SHL SUB DUP9 AND PUSH1 0x0 SWAP1 DUP2 MSTORE PUSH1 0x10 PUSH1 0x20 MSTORE PUSH1 0x40 SWAP1 KECCAK256 SLOAD SWAP1 PUSH2 0xF2B JUMP JUMPDEST SWAP1 PUSH2 0xF70 JUMP JUMPDEST SWAP1 PUSH2 0xFB2 JUMP JUMPDEST SWAP3 SWAP2 POP POP JUMP JUMPDEST PUSH1 0x0 PUSH2 0x478 PUSH2 0xFE1 JUMP JUMPDEST POP PUSH1 0x15 DUP1 SLOAD PUSH20 0xFFFFFFFFFFFFFFFFFFFFFFFFFFFFFFFFFFFFFFFF NOT AND PUSH1 0x1 PUSH1 0x1 PUSH1 0xA0 SHL SUB SWAP3 DUP4 AND OR SWAP1 DUP2 SWAP1 SSTORE AND SWAP1 JUMP JUMPDEST PUSH1 0x15 SLOAD PUSH1 0x1 PUSH1 0x1 PUSH1 0xA0 SHL SUB AND JUMPDEST SWAP1 JUMP JUMPDEST PUSH2 0x4C0 PUSH2 0xFE1 JUMP JUMPDEST PUSH1 0x2 DUP1 SLOAD PUSH20 0xFFFFFFFFFFFFFFFFFFFFFFFFFFFFFFFFFFFFFFFF NOT AND PUSH1 0x1 PUSH1 0x1 PUSH1 0xA0 SHL SUB DUP4 AND OR SWAP1 SSTORE PUSH1 0x40 MLOAD PUSH32 0x906A1C6BD7E3091EA86693DD029A831C19049CE77F1DCE2CE0BAB1CACBABCE22 SWAP1 PUSH2 0x518 SWAP1 DUP4 SWAP1 PUSH2 0x1373 JUMP JUMPDEST PUSH1 0x40 MLOAD DUP1 SWAP2 SUB SWAP1 LOG1 POP JUMP JUMPDEST PUSH2 0x52B PUSH2 0xFE1 JUMP JUMPDEST PUSH1 0x4 SLOAD PUSH1 0xFF AND ISZERO ISZERO DUP2 ISZERO ISZERO EQ ISZERO PUSH2 0x541 JUMPI PUSH2 0x595 JUMP JUMPDEST PUSH1 0x4 DUP1 SLOAD PUSH1 0xFF NOT AND DUP3 ISZERO ISZERO OR SWAP1 DUP2 SWAP1 SSTORE PUSH1 0xFF AND ISZERO PUSH2 0x55E JUMPI TIMESTAMP PUSH1 0x3 SSTORE JUMPDEST PUSH1 0x4 SLOAD PUSH1 0x40 MLOAD PUSH32 0x8FB6C181EE25A520CF3DD6565006EF91229FCFE5A989566C2A3B8C115570CEC5 SWAP2 PUSH2 0x518 SWAP2 PUSH1 0xFF SWAP1 SWAP2 AND SWAP1 PUSH2 0x13DE JUMP JUMPDEST POP JUMP JUMPDEST PUSH1 0xB SLOAD DUP2 JUMP JUMPDEST PUSH1 0x13 SLOAD SWAP1 JUMP JUMPDEST PUSH1 0x2 PUSH1 0x0 SLOAD EQ ISZERO PUSH2 0x5D0 JUMPI PUSH1 0x40 MLOAD PUSH3 0x461BCD PUSH1 0xE5 SHL DUP2 MSTORE PUSH1 0x4 ADD PUSH2 0x5C7 SWAP1 PUSH2 0x18D1 JUMP JUMPDEST PUSH1 0x40 MLOAD DUP1 SWAP2 SUB SWAP1 REVERT JUMPDEST PUSH1 0x2 PUSH1 0x0 SSTORE CALLER PUSH2 0x5DE PUSH2 0xE37 JUMP JUMPDEST PUSH1 0x9 SSTORE PUSH2 0x5E9 PUSH2 0xC4E JUMP JUMPDEST PUSH1 0x8 SSTORE PUSH1 0x1 PUSH1 0x1 PUSH1 0xA0 SHL SUB DUP2 AND ISZERO PUSH2 0x630 JUMPI PUSH2 0x604 DUP2 PUSH2 0x3F0 JUMP JUMPDEST PUSH1 0x1 PUSH1 0x1 PUSH1 0xA0 SHL SUB DUP3 AND PUSH1 0x0 SWAP1 DUP2 MSTORE PUSH1 0xF PUSH1 0x20 SWAP1 DUP2 MSTORE PUSH1 0x40 DUP1 DUP4 KECCAK256 SWAP4 SWAP1 SWAP4 SSTORE PUSH1 0x9 SLOAD PUSH1 0xE SWAP1 SWAP2 MSTORE SWAP2 SWAP1 KECCAK256 SSTORE JUMPDEST PUSH1 0x0 DUP3 GT PUSH2 0x650 JUMPI PUSH1 0x40 MLOAD PUSH3 0x461BCD PUSH1 0xE5 SHL DUP2 MSTORE PUSH1 0x4 ADD PUSH2 0x5C7 SWAP1 PUSH2 0x16B8 JUMP JUMPDEST PUSH1 0x13 SLOAD ISZERO PUSH2 0x697 JUMPI CALLER PUSH1 0x0 SWAP1 DUP2 MSTORE PUSH1 0x11 PUSH1 0x20 MSTORE PUSH1 0x40 DUP2 KECCAK256 SLOAD PUSH2 0x672 SWAP1 TIMESTAMP PUSH2 0x197E JUMP JUMPDEST SWAP1 POP PUSH1 0x13 SLOAD DUP2 GT PUSH2 0x695 JUMPI PUSH1 0x40 MLOAD PUSH3 0x461BCD PUSH1 0xE5 SHL DUP2 MSTORE PUSH1 0x4 ADD PUSH2 0x5C7 SWAP1 PUSH2 0x1544 JUMP JUMPDEST POP JUMPDEST PUSH1 0xB SLOAD PUSH2 0x6A4 SWAP1 DUP4 PUSH2 0xEE2 JUMP JUMPDEST PUSH1 0xB SSTORE CALLER PUSH1 0x0 SWAP1 DUP2 MSTORE PUSH1 0x10 PUSH1 0x20 MSTORE PUSH1 0x40 SWAP1 KECCAK256 SLOAD PUSH2 0x6C1 SWAP1 DUP4 PUSH2 0xEE2 JUMP JUMPDEST CALLER PUSH1 0x0 DUP2 DUP2 MSTORE PUSH1 0x10 PUSH1 0x20 MSTORE PUSH1 0x40 SWAP1 KECCAK256 SWAP2 SWAP1 SWAP2 SSTORE PUSH1 0xD SLOAD PUSH2 0x6ED SWAP2 PUSH1 0x1 PUSH1 0x1 PUSH1 0xA0 SHL SUB SWAP1 SWAP2 AND SWAP1 DUP5 PUSH2 0x100B JUMP JUMPDEST CALLER PUSH1 0x1 PUSH1 0x1 PUSH1 0xA0 SHL SUB AND PUSH32 0x7084F5476618D8E60B11EF0D7D3F06914655ADB8793E28FF7F018D4C76D505D5 DUP4 PUSH1 0x40 MLOAD PUSH2 0x726 SWAP2 SWAP1 PUSH2 0x1908 JUMP JUMPDEST PUSH1 0x40 MLOAD DUP1 SWAP2 SUB SWAP1 LOG2 POP POP PUSH1 0x1 PUSH1 0x0 SSTORE JUMP JUMPDEST PUSH2 0x73F PUSH2 0xFE1 JUMP JUMPDEST PUSH1 0x0 DUP3 GT DUP1 ISZERO PUSH2 0x74F JUMPI POP PUSH1 0x0 DUP2 GT JUMPDEST PUSH2 0x76B JUMPI PUSH1 0x40 MLOAD PUSH3 0x461BCD PUSH1 0xE5 SHL DUP2 MSTORE PUSH1 0x4 ADD PUSH2 0x5C7 SWAP1 PUSH2 0x14B0 JUMP JUMPDEST PUSH1 0x5 SLOAD TIMESTAMP GT PUSH2 0x78C JUMPI PUSH1 0x40 MLOAD PUSH3 0x461BCD PUSH1 0xE5 SHL DUP2 MSTORE PUSH1 0x4 ADD PUSH2 0x5C7 SWAP1 PUSH2 0x15A1 JUMP JUMPDEST PUSH2 0x796 DUP3 DUP3 PUSH2 0xF70 JUMP JUMPDEST PUSH1 0x6 DUP2 SWAP1 SSTORE PUSH1 0x40 MLOAD PUSH32 0x69155044AE1E4CF9ACF985CAE44E0D86B5E592E3FB029BC9B39F63B0BDAA4A62 SWAP2 PUSH2 0x7CD SWAP2 DUP6 SWAP2 DUP6 SWAP2 PUSH2 0x1911 JUMP JUMPDEST PUSH1 0x40 MLOAD DUP1 SWAP2 SUB SWAP1 LOG1 POP POP JUMP JUMPDEST PUSH1 0x7 SLOAD DUP2 JUMP JUMPDEST PUSH2 0x7E7 PUSH2 0xFE1 JUMP JUMPDEST PUSH1 0x0 PUSH2 0x7F1 PUSH2 0xE37 JUMP JUMPDEST PUSH1 0x9 SSTORE PUSH2 0x7FC PUSH2 0xC4E JUMP JUMPDEST PUSH1 0x8 SSTORE PUSH1 0x1 PUSH1 0x1 PUSH1 0xA0 SHL SUB DUP2 AND ISZERO PUSH2 0x843 JUMPI PUSH2 0x817 DUP2 PUSH2 0x3F0 JUMP JUMPDEST PUSH1 0x1 PUSH1 0x1 PUSH1 0xA0 SHL SUB DUP3 AND PUSH1 0x0 SWAP1 DUP2 MSTORE PUSH1 0xF PUSH1 0x20 SWAP1 DUP2 MSTORE PUSH1 0x40 DUP1 DUP4 KECCAK256 SWAP4 SWAP1 SWAP4 SSTORE PUSH1 0x9 SLOAD PUSH1 0xE SWAP1 SWAP2 MSTORE SWAP2 SWAP1 KECCAK256 SSTORE JUMPDEST PUSH1 0x0 PUSH1 0x6 SLOAD GT PUSH2 0x865 JUMPI PUSH1 0x40 MLOAD PUSH3 0x461BCD PUSH1 0xE5 SHL DUP2 MSTORE PUSH1 0x4 ADD PUSH2 0x5C7 SWAP1 PUSH2 0x1624 JUMP JUMPDEST PUSH1 0x5 SLOAD TIMESTAMP LT PUSH2 0x884 JUMPI PUSH1 0x6 SLOAD PUSH2 0x87C SWAP1 DUP4 SWAP1 PUSH2 0xF70 JUMP JUMPDEST PUSH1 0x7 SSTORE PUSH2 0x8C7 JUMP JUMPDEST PUSH1 0x5 SLOAD PUSH1 0x0 SWAP1 PUSH2 0x894 SWAP1 TIMESTAMP PUSH2 0xEE2 JUMP JUMPDEST SWAP1 POP PUSH1 0x0 PUSH2 0x8AD PUSH1 0x6 SLOAD DUP4 PUSH2 0xF2B SWAP1 SWAP2 SWAP1 PUSH4 0xFFFFFFFF AND JUMP JUMPDEST PUSH1 0x6 SLOAD SWAP1 SWAP2 POP PUSH2 0x8C1 SWAP1 PUSH2 0x45C DUP7 DUP5 PUSH2 0xFB2 JUMP JUMPDEST PUSH1 0x7 SSTORE POP POP JUMPDEST PUSH1 0xC SLOAD PUSH1 0x40 MLOAD PUSH32 0x70A0823100000000000000000000000000000000000000000000000000000000 DUP2 MSTORE PUSH1 0x0 SWAP2 PUSH1 0x1 PUSH1 0x1 PUSH1 0xA0 SHL SUB AND SWAP1 PUSH4 0x70A08231 SWAP1 PUSH2 0x911 SWAP1 ADDRESS SWAP1 PUSH1 0x4 ADD PUSH2 0x1373 JUMP JUMPDEST PUSH1 0x20 PUSH1 0x40 MLOAD DUP1 DUP4 SUB DUP2 DUP7 DUP1 EXTCODESIZE ISZERO DUP1 ISZERO PUSH2 0x929 JUMPI PUSH1 0x0 DUP1 REVERT JUMPDEST POP GAS STATICCALL ISZERO DUP1 ISZERO PUSH2 0x93D JUMPI RETURNDATASIZE PUSH1 0x0 DUP1 RETURNDATACOPY RETURNDATASIZE PUSH1 0x0 REVERT JUMPDEST POP POP POP POP PUSH1 0x40 MLOAD RETURNDATASIZE PUSH1 0x1F NOT PUSH1 0x1F DUP3 ADD AND DUP3 ADD DUP1 PUSH1 0x40 MSTORE POP DUP2 ADD SWAP1 PUSH2 0x961 SWAP2 SWAP1 PUSH2 0x131E JUMP JUMPDEST SWAP1 POP PUSH2 0x978 PUSH1 0x7 SLOAD DUP3 PUSH2 0xF70 SWAP1 SWAP2 SWAP1 PUSH4 0xFFFFFFFF AND JUMP JUMPDEST PUSH1 0x6 SLOAD GT ISZERO PUSH2 0x999 JUMPI PUSH1 0x40 MLOAD PUSH3 0x461BCD PUSH1 0xE5 SHL DUP2 MSTORE PUSH1 0x4 ADD PUSH2 0x5C7 SWAP1 PUSH2 0x17A9 JUMP JUMPDEST TIMESTAMP PUSH1 0x8 DUP2 SWAP1 SSTORE PUSH1 0x7 SLOAD PUSH2 0x9AC SWAP2 SWAP1 PUSH2 0xFB2 JUMP JUMPDEST PUSH1 0x5 SSTORE PUSH1 0x40 MLOAD PUSH32 0xDE88A922E0D3B88B24E9623EFEB464919C6BF9F66857A65E2BFCF2CE87A9433D SWAP1 PUSH2 0x9DF SWAP1 DUP6 SWAP1 PUSH2 0x1908 JUMP JUMPDEST PUSH1 0x40 MLOAD DUP1 SWAP2 SUB SWAP1 LOG1 POP POP POP JUMP JUMPDEST PUSH1 0x2 PUSH1 0x0 SLOAD EQ ISZERO PUSH2 0xA0F JUMPI PUSH1 0x40 MLOAD PUSH3 0x461BCD PUSH1 0xE5 SHL DUP2 MSTORE PUSH1 0x4 ADD PUSH2 0x5C7 SWAP1 PUSH2 0x18D1 JUMP JUMPDEST PUSH1 0x2 PUSH1 0x0 SSTORE CALLER PUSH2 0xA1D PUSH2 0xE37 JUMP JUMPDEST PUSH1 0x9 SSTORE PUSH2 0xA28 PUSH2 0xC4E JUMP JUMPDEST PUSH1 0x8 SSTORE PUSH1 0x1 PUSH1 0x1 PUSH1 0xA0 SHL SUB DUP2 AND ISZERO PUSH2 0xA6F JUMPI PUSH2 0xA43 DUP2 PUSH2 0x3F0 JUMP JUMPDEST PUSH1 0x1 PUSH1 0x1 PUSH1 0xA0 SHL SUB DUP3 AND PUSH1 0x0 SWAP1 DUP2 MSTORE PUSH1 0xF PUSH1 0x20 SWAP1 DUP2 MSTORE PUSH1 0x40 DUP1 DUP4 KECCAK256 SWAP4 SWAP1 SWAP4 SSTORE PUSH1 0x9 SLOAD PUSH1 0xE SWAP1 SWAP2 MSTORE SWAP2 SWAP1 KECCAK256 SSTORE JUMPDEST CALLER PUSH1 0x0 SWAP1 DUP2 MSTORE PUSH1 0xF PUSH1 0x20 MSTORE PUSH1 0x40 SWAP1 KECCAK256 SLOAD PUSH1 0x12 SLOAD ISZERO PUSH2 0xAC6 JUMPI CALLER PUSH1 0x0 SWAP1 DUP2 MSTORE PUSH1 0x11 PUSH1 0x20 MSTORE PUSH1 0x40 DUP2 KECCAK256 SLOAD PUSH2 0xAA1 SWAP1 TIMESTAMP PUSH2 0x197E JUMP JUMPDEST SWAP1 POP PUSH1 0x12 SLOAD DUP2 GT PUSH2 0xAC4 JUMPI PUSH1 0x40 MLOAD PUSH3 0x461BCD PUSH1 0xE5 SHL DUP2 MSTORE PUSH1 0x4 ADD PUSH2 0x5C7 SWAP1 PUSH2 0x174C JUMP JUMPDEST POP JUMPDEST DUP1 ISZERO PUSH2 0xB2E JUMPI CALLER PUSH1 0x0 DUP2 DUP2 MSTORE PUSH1 0xF PUSH1 0x20 MSTORE PUSH1 0x40 DUP2 KECCAK256 SSTORE PUSH1 0xC SLOAD PUSH2 0xAF5 SWAP2 PUSH1 0x1 PUSH1 0x1 PUSH1 0xA0 SHL SUB SWAP1 SWAP2 AND SWAP1 DUP4 PUSH2 0x100B JUMP JUMPDEST CALLER PUSH1 0x1 PUSH1 0x1 PUSH1 0xA0 SHL SUB AND PUSH32 0xE2403640BA68FED3A2F88B7557551D1993F84B99BB10FF833F0CF8DB0C5E0486 DUP3 PUSH1 0x40 MLOAD PUSH2 0x726 SWAP2 SWAP1 PUSH2 0x1908 JUMP JUMPDEST POP POP PUSH1 0x1 PUSH1 0x0 SSTORE JUMP JUMPDEST PUSH1 0x2 SLOAD PUSH1 0x1 PUSH1 0x1 PUSH1 0xA0 SHL SUB AND DUP2 JUMP JUMPDEST PUSH1 0x4 SLOAD PUSH1 0xFF AND DUP2 JUMP JUMPDEST PUSH1 0x0 PUSH2 0xB59 PUSH2 0xFE1 JUMP JUMPDEST POP PUSH1 0x13 DUP2 SWAP1 SSTORE SWAP1 JUMP JUMPDEST PUSH1 0x0 PUSH2 0xB6C PUSH2 0xFE1 JUMP JUMPDEST POP PUSH1 0x14 DUP2 SWAP1 SSTORE SWAP1 JUMP JUMPDEST PUSH1 0x1 PUSH1 0x1 PUSH1 0xA0 SHL SUB AND PUSH1 0x0 SWAP1 DUP2 MSTORE PUSH1 0x10 PUSH1 0x20 MSTORE PUSH1 0x40 SWAP1 KECCAK256 SLOAD SWAP1 JUMP JUMPDEST PUSH1 0xD SLOAD PUSH1 0x1 PUSH1 0x1 PUSH1 0xA0 SHL SUB AND DUP2 JUMP JUMPDEST PUSH1 0x2 SLOAD PUSH1 0x1 PUSH1 0x1 PUSH1 0xA0 SHL SUB AND CALLER EQ PUSH2 0xBC9 JUMPI PUSH1 0x40 MLOAD PUSH3 0x461BCD PUSH1 0xE5 SHL DUP2 MSTORE PUSH1 0x4 ADD PUSH2 0x5C7 SWAP1 PUSH2 0x141C JUMP JUMPDEST PUSH1 0x1 SLOAD PUSH1 0x2 SLOAD PUSH1 0x40 MLOAD PUSH32 0xB532073B38C83145E3E5135377A08BF9AAB55BC0FD7C1179CD4FB995D2A5159C SWAP3 PUSH2 0xC0C SWAP3 PUSH1 0x1 PUSH1 0x1 PUSH1 0xA0 SHL SUB SWAP2 DUP3 AND SWAP3 SWAP2 AND SWAP1 PUSH2 0x1387 JUMP JUMPDEST PUSH1 0x40 MLOAD DUP1 SWAP2 SUB SWAP1 LOG1 PUSH1 0x2 DUP1 SLOAD PUSH1 0x1 DUP1 SLOAD PUSH20 0xFFFFFFFFFFFFFFFFFFFFFFFFFFFFFFFFFFFFFFFF NOT SWAP1 DUP2 AND PUSH1 0x1 PUSH1 0x1 PUSH1 0xA0 SHL SUB DUP5 AND OR SWAP1 SWAP2 SSTORE AND SWAP1 SSTORE JUMP JUMPDEST PUSH1 0x6 SLOAD DUP2 JUMP JUMPDEST PUSH1 0x0 PUSH2 0xC5C TIMESTAMP PUSH1 0x5 SLOAD PUSH2 0x1093 JUMP JUMPDEST SWAP1 POP SWAP1 JUMP JUMPDEST PUSH1 0x1 SLOAD PUSH1 0x1 PUSH1 0x1 PUSH1 0xA0 SHL SUB AND DUP2 JUMP JUMPDEST PUSH1 0xA SLOAD DUP2 JUMP JUMPDEST PUSH1 0x3 SLOAD DUP2 JUMP JUMPDEST PUSH1 0x2 PUSH1 0x0 SLOAD EQ ISZERO PUSH2 0xC9F JUMPI PUSH1 0x40 MLOAD PUSH3 0x461BCD PUSH1 0xE5 SHL DUP2 MSTORE PUSH1 0x4 ADD PUSH2 0x5C7 SWAP1 PUSH2 0x18D1 JUMP JUMPDEST PUSH1 0x2 PUSH1 0x0 SSTORE PUSH1 0x4 SLOAD PUSH1 0xFF AND ISZERO PUSH2 0xCC7 JUMPI PUSH1 0x40 MLOAD PUSH3 0x461BCD PUSH1 0xE5 SHL DUP2 MSTORE PUSH1 0x4 ADD PUSH2 0x5C7 SWAP1 PUSH2 0x17E0 JUMP JUMPDEST CALLER PUSH2 0xCD0 PUSH2 0xE37 JUMP JUMPDEST PUSH1 0x9 SSTORE PUSH2 0xCDB PUSH2 0xC4E JUMP JUMPDEST PUSH1 0x8 SSTORE PUSH1 0x1 PUSH1 0x1 PUSH1 0xA0 SHL SUB DUP2 AND ISZERO PUSH2 0xD22 JUMPI PUSH2 0xCF6 DUP2 PUSH2 0x3F0 JUMP JUMPDEST PUSH1 0x1 PUSH1 0x1 PUSH1 0xA0 SHL SUB DUP3 AND PUSH1 0x0 SWAP1 DUP2 MSTORE PUSH1 0xF PUSH1 0x20 SWAP1 DUP2 MSTORE PUSH1 0x40 DUP1 DUP4 KECCAK256 SWAP4 SWAP1 SWAP4 SSTORE PUSH1 0x9 SLOAD PUSH1 0xE SWAP1 SWAP2 MSTORE SWAP2 SWAP1 KECCAK256 SSTORE JUMPDEST PUSH1 0x0 DUP3 GT PUSH2 0xD42 JUMPI PUSH1 0x40 MLOAD PUSH3 0x461BCD PUSH1 0xE5 SHL DUP2 MSTORE PUSH1 0x4 ADD PUSH2 0x5C7 SWAP1 PUSH2 0x1479 JUMP JUMPDEST PUSH1 0xD SLOAD PUSH2 0xD5A SWAP1 PUSH1 0x1 PUSH1 0x1 PUSH1 0xA0 SHL SUB AND CALLER ADDRESS DUP6 PUSH2 0x10A9 JUMP JUMPDEST PUSH1 0x14 SLOAD PUSH1 0x0 SWAP1 PUSH2 0xD6C SWAP1 PUSH2 0x3E8 PUSH2 0xF70 JUMP JUMPDEST SWAP1 POP PUSH2 0xD78 DUP2 DUP5 PUSH2 0xF2B JUMP JUMPDEST SWAP1 POP PUSH2 0xD84 DUP2 DUP5 PUSH2 0x197E JUMP JUMPDEST PUSH1 0x15 SLOAD PUSH1 0xD SLOAD SWAP2 SWAP5 POP PUSH2 0xDA6 SWAP2 PUSH1 0x1 PUSH1 0x1 PUSH1 0xA0 SHL SUB SWAP1 DUP2 AND SWAP2 ADDRESS SWAP2 AND DUP5 PUSH2 0x10A9 JUMP JUMPDEST PUSH1 0xB SLOAD PUSH2 0xDB3 SWAP1 DUP5 PUSH2 0xFB2 JUMP JUMPDEST PUSH1 0xB SSTORE CALLER PUSH1 0x0 SWAP1 DUP2 MSTORE PUSH1 0x10 PUSH1 0x20 MSTORE PUSH1 0x40 SWAP1 KECCAK256 SLOAD PUSH2 0xDD0 SWAP1 DUP5 PUSH2 0xFB2 JUMP JUMPDEST CALLER PUSH1 0x0 DUP2 DUP2 MSTORE PUSH1 0x10 PUSH1 0x20 SWAP1 DUP2 MSTORE PUSH1 0x40 DUP1 DUP4 KECCAK256 SWAP5 SWAP1 SWAP5 SSTORE PUSH1 0x11 SWAP1 MSTORE DUP3 SWAP1 KECCAK256 TIMESTAMP SWAP1 SSTORE SWAP1 MLOAD PUSH32 0x9E71BC8EEA02A63969F509818F2DAFB9254532904319F9DBDA79B67BD34A5F3D SWAP1 PUSH2 0xE1F SWAP1 DUP7 SWAP1 PUSH2 0x1908 JUMP JUMPDEST PUSH1 0x40 MLOAD DUP1 SWAP2 SUB SWAP1 LOG2 POP POP PUSH1 0x1 PUSH1 0x0 SSTORE POP JUMP JUMPDEST PUSH1 0x8 SLOAD DUP2 JUMP JUMPDEST PUSH1 0x0 PUSH1 0xB SLOAD PUSH1 0x0 EQ ISZERO PUSH2 0xE4D JUMPI POP PUSH1 0x9 SLOAD PUSH2 0x4B5 JUMP JUMPDEST PUSH2 0xC5C PUSH2 0xE7C PUSH1 0xB SLOAD PUSH2 0x45C PUSH8 0xDE0B6B3A7640000 PUSH2 0xE76 PUSH1 0x6 SLOAD PUSH2 0xE76 PUSH1 0x8 SLOAD PUSH2 0x437 PUSH2 0xC4E JUMP JUMPDEST SWAP1 PUSH2 0xF2B JUMP JUMPDEST PUSH1 0x9 SLOAD SWAP1 PUSH2 0xFB2 JUMP JUMPDEST PUSH1 0x12 SLOAD SWAP1 JUMP JUMPDEST PUSH1 0x14 SLOAD SWAP1 JUMP JUMPDEST PUSH1 0xC SLOAD PUSH1 0x1 PUSH1 0x1 PUSH1 0xA0 SHL SUB AND DUP2 JUMP JUMPDEST PUSH1 0x9 SLOAD DUP2 JUMP JUMPDEST PUSH1 0x0 PUSH2 0xEB0 PUSH2 0xFE1 JUMP JUMPDEST POP PUSH1 0x12 DUP2 SWAP1 SSTORE SWAP1 JUMP JUMPDEST CALLER PUSH1 0x0 SWAP1 DUP2 MSTORE PUSH1 0x10 PUSH1 0x20 MSTORE PUSH1 0x40 SWAP1 KECCAK256 SLOAD PUSH2 0xED2 SWAP1 PUSH2 0x5A4 JUMP JUMPDEST PUSH2 0xEDA PUSH2 0x9EC JUMP JUMPDEST JUMP JUMPDEST PUSH1 0x5 SLOAD DUP2 JUMP JUMPDEST PUSH1 0x0 PUSH2 0xF24 DUP4 DUP4 PUSH1 0x40 MLOAD DUP1 PUSH1 0x40 ADD PUSH1 0x40 MSTORE DUP1 PUSH1 0x1E DUP2 MSTORE PUSH1 0x20 ADD PUSH32 0x536166654D6174683A207375627472616374696F6E206F766572666C6F770000 DUP2 MSTORE POP PUSH2 0x10D0 JUMP JUMPDEST SWAP4 SWAP3 POP POP POP JUMP JUMPDEST PUSH1 0x0 DUP3 PUSH2 0xF3A JUMPI POP PUSH1 0x0 PUSH2 0x468 JUMP JUMPDEST PUSH1 0x0 PUSH2 0xF46 DUP4 DUP6 PUSH2 0x195F JUMP JUMPDEST SWAP1 POP DUP3 PUSH2 0xF53 DUP6 DUP4 PUSH2 0x193F JUMP JUMPDEST EQ PUSH2 0xF24 JUMPI PUSH1 0x40 MLOAD PUSH3 0x461BCD PUSH1 0xE5 SHL DUP2 MSTORE PUSH1 0x4 ADD PUSH2 0x5C7 SWAP1 PUSH2 0x16EF JUMP JUMPDEST PUSH1 0x0 PUSH2 0xF24 DUP4 DUP4 PUSH1 0x40 MLOAD DUP1 PUSH1 0x40 ADD PUSH1 0x40 MSTORE DUP1 PUSH1 0x1A DUP2 MSTORE PUSH1 0x20 ADD PUSH32 0x536166654D6174683A206469766973696F6E206279207A65726F000000000000 DUP2 MSTORE POP PUSH2 0x110A JUMP JUMPDEST PUSH1 0x0 DUP1 PUSH2 0xFBF DUP4 DUP6 PUSH2 0x1927 JUMP JUMPDEST SWAP1 POP DUP4 DUP2 LT ISZERO PUSH2 0xF24 JUMPI PUSH1 0x40 MLOAD PUSH3 0x461BCD PUSH1 0xE5 SHL DUP2 MSTORE PUSH1 0x4 ADD PUSH2 0x5C7 SWAP1 PUSH2 0x150D JUMP JUMPDEST PUSH1 0x1 SLOAD PUSH1 0x1 PUSH1 0x1 PUSH1 0xA0 SHL SUB AND CALLER EQ PUSH2 0xEDA JUMPI PUSH1 0x40 MLOAD PUSH3 0x461BCD PUSH1 0xE5 SHL DUP2 MSTORE PUSH1 0x4 ADD PUSH2 0x5C7 SWAP1 PUSH2 0x165B JUMP JUMPDEST PUSH2 0x108E DUP4 PUSH4 0xA9059CBB PUSH1 0xE0 SHL DUP5 DUP5 PUSH1 0x40 MLOAD PUSH1 0x24 ADD PUSH2 0x102A SWAP3 SWAP2 SWAP1 PUSH2 0x13C5 JUMP JUMPDEST PUSH1 0x40 DUP1 MLOAD PUSH1 0x1F NOT DUP2 DUP5 SUB ADD DUP2 MSTORE SWAP2 SWAP1 MSTORE PUSH1 0x20 DUP2 ADD DUP1 MLOAD PUSH28 0xFFFFFFFFFFFFFFFFFFFFFFFFFFFFFFFFFFFFFFFFFFFFFFFFFFFFFFFF AND PUSH32 0xFFFFFFFF00000000000000000000000000000000000000000000000000000000 SWAP1 SWAP4 AND SWAP3 SWAP1 SWAP3 OR SWAP1 SWAP2 MSTORE PUSH2 0x1138 JUMP JUMPDEST POP POP POP JUMP JUMPDEST PUSH1 0x0 DUP2 DUP4 LT PUSH2 0x10A2 JUMPI DUP2 PUSH2 0xF24 JUMP JUMPDEST POP SWAP1 SWAP2 SWAP1 POP JUMP JUMPDEST PUSH2 0x10CA DUP5 PUSH4 0x23B872DD PUSH1 0xE0 SHL DUP6 DUP6 DUP6 PUSH1 0x40 MLOAD PUSH1 0x24 ADD PUSH2 0x102A SWAP4 SWAP3 SWAP2 SWAP1 PUSH2 0x13A1 JUMP JUMPDEST POP POP POP POP JUMP JUMPDEST PUSH1 0x0 DUP2 DUP5 DUP5 GT ISZERO PUSH2 0x10F4 JUMPI PUSH1 0x40 MLOAD PUSH3 0x461BCD PUSH1 0xE5 SHL DUP2 MSTORE PUSH1 0x4 ADD PUSH2 0x5C7 SWAP2 SWAP1 PUSH2 0x13E9 JUMP JUMPDEST POP PUSH1 0x0 PUSH2 0x1101 DUP5 DUP7 PUSH2 0x197E JUMP JUMPDEST SWAP6 SWAP5 POP POP POP POP POP JUMP JUMPDEST PUSH1 0x0 DUP2 DUP4 PUSH2 0x112B JUMPI PUSH1 0x40 MLOAD PUSH3 0x461BCD PUSH1 0xE5 SHL DUP2 MSTORE PUSH1 0x4 ADD PUSH2 0x5C7 SWAP2 SWAP1 PUSH2 0x13E9 JUMP JUMPDEST POP PUSH1 0x0 PUSH2 0x1101 DUP5 DUP7 PUSH2 0x193F JUMP JUMPDEST PUSH1 0x0 PUSH2 0x118D DUP3 PUSH1 0x40 MLOAD DUP1 PUSH1 0x40 ADD PUSH1 0x40 MSTORE DUP1 PUSH1 0x20 DUP2 MSTORE PUSH1 0x20 ADD PUSH32 0x5361666545524332303A206C6F772D6C6576656C2063616C6C206661696C6564 DUP2 MSTORE POP DUP6 PUSH1 0x1 PUSH1 0x1 PUSH1 0xA0 SHL SUB AND PUSH2 0x11C7 SWAP1 SWAP3 SWAP2 SWAP1 PUSH4 0xFFFFFFFF AND JUMP JUMPDEST DUP1 MLOAD SWAP1 SWAP2 POP ISZERO PUSH2 0x108E JUMPI DUP1 DUP1 PUSH1 0x20 ADD SWAP1 MLOAD DUP2 ADD SWAP1 PUSH2 0x11AB SWAP2 SWAP1 PUSH2 0x12EA JUMP JUMPDEST PUSH2 0x108E JUMPI PUSH1 0x40 MLOAD PUSH3 0x461BCD PUSH1 0xE5 SHL DUP2 MSTORE PUSH1 0x4 ADD PUSH2 0x5C7 SWAP1 PUSH2 0x1874 JUMP JUMPDEST PUSH1 0x60 PUSH2 0x11D6 DUP5 DUP5 PUSH1 0x0 DUP6 PUSH2 0x11DE JUMP JUMPDEST SWAP5 SWAP4 POP POP POP POP JUMP JUMPDEST PUSH1 0x60 PUSH2 0x11E9 DUP6 PUSH2 0x12A1 JUMP JUMPDEST PUSH2 0x1205 JUMPI PUSH1 0x40 MLOAD PUSH3 0x461BCD PUSH1 0xE5 SHL DUP2 MSTORE PUSH1 0x4 ADD PUSH2 0x5C7 SWAP1 PUSH2 0x183D JUMP JUMPDEST PUSH1 0x0 DUP1 DUP7 PUSH1 0x1 PUSH1 0x1 PUSH1 0xA0 SHL SUB AND DUP6 DUP8 PUSH1 0x40 MLOAD PUSH2 0x1221 SWAP2 SWAP1 PUSH2 0x1357 JUMP JUMPDEST PUSH1 0x0 PUSH1 0x40 MLOAD DUP1 DUP4 SUB DUP2 DUP6 DUP8 GAS CALL SWAP3 POP POP POP RETURNDATASIZE DUP1 PUSH1 0x0 DUP2 EQ PUSH2 0x125E JUMPI PUSH1 0x40 MLOAD SWAP2 POP PUSH1 0x1F NOT PUSH1 0x3F RETURNDATASIZE ADD AND DUP3 ADD PUSH1 0x40 MSTORE RETURNDATASIZE DUP3 MSTORE RETURNDATASIZE PUSH1 0x0 PUSH1 0x20 DUP5 ADD RETURNDATACOPY PUSH2 0x1263 JUMP JUMPDEST PUSH1 0x60 SWAP2 POP JUMPDEST POP SWAP2 POP SWAP2 POP DUP2 ISZERO PUSH2 0x1277 JUMPI SWAP2 POP PUSH2 0x11D6 SWAP1 POP JUMP JUMPDEST DUP1 MLOAD ISZERO PUSH2 0x1287 JUMPI DUP1 MLOAD DUP1 DUP3 PUSH1 0x20 ADD REVERT JUMPDEST DUP4 PUSH1 0x40 MLOAD PUSH3 0x461BCD PUSH1 0xE5 SHL DUP2 MSTORE PUSH1 0x4 ADD PUSH2 0x5C7 SWAP2 SWAP1 PUSH2 0x13E9 JUMP JUMPDEST EXTCODESIZE ISZERO ISZERO SWAP1 JUMP JUMPDEST PUSH1 0x0 PUSH1 0x20 DUP3 DUP5 SUB SLT ISZERO PUSH2 0x12B8 JUMPI DUP1 DUP2 REVERT JUMPDEST DUP2 CALLDATALOAD PUSH1 0x1 PUSH1 0x1 PUSH1 0xA0 SHL SUB DUP2 AND DUP2 EQ PUSH2 0xF24 JUMPI DUP2 DUP3 REVERT JUMPDEST PUSH1 0x0 PUSH1 0x20 DUP3 DUP5 SUB SLT ISZERO PUSH2 0x12DF JUMPI DUP1 DUP2 REVERT JUMPDEST DUP2 CALLDATALOAD PUSH2 0xF24 DUP2 PUSH2 0x19D7 JUMP JUMPDEST PUSH1 0x0 PUSH1 0x20 DUP3 DUP5 SUB SLT ISZERO PUSH2 0x12FB JUMPI DUP1 DUP2 REVERT JUMPDEST DUP2 MLOAD PUSH2 0xF24 DUP2 PUSH2 0x19D7 JUMP JUMPDEST PUSH1 0x0 PUSH1 0x20 DUP3 DUP5 SUB SLT ISZERO PUSH2 0x1317 JUMPI DUP1 DUP2 REVERT JUMPDEST POP CALLDATALOAD SWAP2 SWAP1 POP JUMP JUMPDEST PUSH1 0x0 PUSH1 0x20 DUP3 DUP5 SUB SLT ISZERO PUSH2 0x132F JUMPI DUP1 DUP2 REVERT JUMPDEST POP MLOAD SWAP2 SWAP1 POP JUMP JUMPDEST PUSH1 0x0 DUP1 PUSH1 0x40 DUP4 DUP6 SUB SLT ISZERO PUSH2 0x1348 JUMPI DUP1 DUP2 REVERT JUMPDEST POP POP DUP1 CALLDATALOAD SWAP3 PUSH1 0x20 SWAP1 SWAP2 ADD CALLDATALOAD SWAP2 POP JUMP JUMPDEST PUSH1 0x0 DUP3 MLOAD PUSH2 0x1369 DUP2 DUP5 PUSH1 0x20 DUP8 ADD PUSH2 0x1995 JUMP JUMPDEST SWAP2 SWAP1 SWAP2 ADD SWAP3 SWAP2 POP POP JUMP JUMPDEST PUSH1 0x1 PUSH1 0x1 PUSH1 0xA0 SHL SUB SWAP2 SWAP1 SWAP2 AND DUP2 MSTORE PUSH1 0x20 ADD SWAP1 JUMP JUMPDEST PUSH1 0x1 PUSH1 0x1 PUSH1 0xA0 SHL SUB SWAP3 DUP4 AND DUP2 MSTORE SWAP2 AND PUSH1 0x20 DUP3 ADD MSTORE PUSH1 0x40 ADD SWAP1 JUMP JUMPDEST PUSH1 0x1 PUSH1 0x1 PUSH1 0xA0 SHL SUB SWAP4 DUP5 AND DUP2 MSTORE SWAP2 SWAP1 SWAP3 AND PUSH1 0x20 DUP3 ADD MSTORE PUSH1 0x40 DUP2 ADD SWAP2 SWAP1 SWAP2 MSTORE PUSH1 0x60 ADD SWAP1 JUMP JUMPDEST PUSH1 0x1 PUSH1 0x1 PUSH1 0xA0 SHL SUB SWAP3 SWAP1 SWAP3 AND DUP3 MSTORE PUSH1 0x20 DUP3 ADD MSTORE PUSH1 0x40 ADD SWAP1 JUMP JUMPDEST SWAP1 ISZERO ISZERO DUP2 MSTORE PUSH1 0x20 ADD SWAP1 JUMP JUMPDEST PUSH1 0x0 PUSH1 0x20 DUP3 MSTORE DUP3 MLOAD DUP1 PUSH1 0x20 DUP5 ADD MSTORE PUSH2 0x1408 DUP2 PUSH1 0x40 DUP6 ADD PUSH1 0x20 DUP8 ADD PUSH2 0x1995 JUMP JUMPDEST PUSH1 0x1F ADD PUSH1 0x1F NOT AND SWAP2 SWAP1 SWAP2 ADD PUSH1 0x40 ADD SWAP3 SWAP2 POP POP JUMP JUMPDEST PUSH1 0x20 DUP1 DUP3 MSTORE PUSH1 0x35 SWAP1 DUP3 ADD MSTORE PUSH32 0x596F75206D757374206265206E6F6D696E61746564206265666F726520796F75 PUSH1 0x40 DUP3 ADD MSTORE PUSH32 0x2063616E20616363657074206F776E6572736869700000000000000000000000 PUSH1 0x60 DUP3 ADD MSTORE PUSH1 0x80 ADD SWAP1 JUMP JUMPDEST PUSH1 0x20 DUP1 DUP3 MSTORE PUSH1 0xE SWAP1 DUP3 ADD MSTORE PUSH32 0x43616E6E6F74207374616B652030000000000000000000000000000000000000 PUSH1 0x40 DUP3 ADD MSTORE PUSH1 0x60 ADD SWAP1 JUMP JUMPDEST PUSH1 0x20 DUP1 DUP3 MSTORE PUSH1 0x38 SWAP1 DUP3 ADD MSTORE PUSH32 0x72657761726473506572496E74657276616C20616E6420696E74657276616C20 PUSH1 0x40 DUP3 ADD MSTORE PUSH32 0x73686F756C642062652067726561746572207468616E20300000000000000000 PUSH1 0x60 DUP3 ADD MSTORE PUSH1 0x80 ADD SWAP1 JUMP JUMPDEST PUSH1 0x20 DUP1 DUP3 MSTORE PUSH1 0x1B SWAP1 DUP3 ADD MSTORE PUSH32 0x536166654D6174683A206164646974696F6E206F766572666C6F770000000000 PUSH1 0x40 DUP3 ADD MSTORE PUSH1 0x60 ADD SWAP1 JUMP JUMPDEST PUSH1 0x20 DUP1 DUP3 MSTORE PUSH1 0x29 SWAP1 DUP3 ADD MSTORE PUSH32 0x4E65656420746F2077616974206D696E696D756D2074696D65206265666F7265 PUSH1 0x40 DUP3 ADD MSTORE PUSH32 0x2077697468647261770000000000000000000000000000000000000000000000 PUSH1 0x60 DUP3 ADD MSTORE PUSH1 0x80 ADD SWAP1 JUMP JUMPDEST PUSH1 0x20 DUP1 DUP3 MSTORE PUSH1 0x48 SWAP1 DUP3 ADD MSTORE PUSH32 0x50726576696F7573207265776172647320706572696F64206D75737420626520 PUSH1 0x40 DUP3 ADD MSTORE PUSH32 0x636F6D706C657465206265666F7265206368616E67696E672074686520726577 PUSH1 0x60 DUP3 ADD MSTORE PUSH32 0x6172642072617465000000000000000000000000000000000000000000000000 PUSH1 0x80 DUP3 ADD MSTORE PUSH1 0xA0 ADD SWAP1 JUMP JUMPDEST PUSH1 0x20 DUP1 DUP3 MSTORE PUSH1 0x1A SWAP1 DUP3 ADD MSTORE PUSH32 0x5265776172642052617465206973206E6F742079657420736574000000000000 PUSH1 0x40 DUP3 ADD MSTORE PUSH1 0x60 ADD SWAP1 JUMP JUMPDEST PUSH1 0x20 DUP1 DUP3 MSTORE PUSH1 0x2F SWAP1 DUP3 ADD MSTORE PUSH32 0x4F6E6C792074686520636F6E7472616374206F776E6572206D61792070657266 PUSH1 0x40 DUP3 ADD MSTORE PUSH32 0x6F726D207468697320616374696F6E0000000000000000000000000000000000 PUSH1 0x60 DUP3 ADD MSTORE PUSH1 0x80 ADD SWAP1 JUMP JUMPDEST PUSH1 0x20 DUP1 DUP3 MSTORE PUSH1 0x11 SWAP1 DUP3 ADD MSTORE PUSH32 0x43616E6E6F742077697468647261772030000000000000000000000000000000 PUSH1 0x40 DUP3 ADD MSTORE PUSH1 0x60 ADD SWAP1 JUMP JUMPDEST PUSH1 0x20 DUP1 DUP3 MSTORE PUSH1 0x21 SWAP1 DUP3 ADD MSTORE PUSH32 0x536166654D6174683A206D756C7469706C69636174696F6E206F766572666C6F PUSH1 0x40 DUP3 ADD MSTORE PUSH32 0x7700000000000000000000000000000000000000000000000000000000000000 PUSH1 0x60 DUP3 ADD MSTORE PUSH1 0x80 ADD SWAP1 JUMP JUMPDEST PUSH1 0x20 DUP1 DUP3 MSTORE PUSH1 0x23 SWAP1 DUP3 ADD MSTORE PUSH32 0x4E65656420746F2077616974206265666F72652067657474696E672072657761 PUSH1 0x40 DUP3 ADD MSTORE PUSH32 0x7264730000000000000000000000000000000000000000000000000000000000 PUSH1 0x60 DUP3 ADD MSTORE PUSH1 0x80 ADD SWAP1 JUMP JUMPDEST PUSH1 0x20 DUP1 DUP3 MSTORE PUSH1 0x18 SWAP1 DUP3 ADD MSTORE PUSH32 0x50726F76696465642072657761726420746F6F20686967680000000000000000 PUSH1 0x40 DUP3 ADD MSTORE PUSH1 0x60 ADD SWAP1 JUMP JUMPDEST PUSH1 0x20 DUP1 DUP3 MSTORE PUSH1 0x3C SWAP1 DUP3 ADD MSTORE PUSH32 0x5468697320616374696F6E2063616E6E6F7420626520706572666F726D656420 PUSH1 0x40 DUP3 ADD MSTORE PUSH32 0x7768696C652074686520636F6E74726163742069732070617573656400000000 PUSH1 0x60 DUP3 ADD MSTORE PUSH1 0x80 ADD SWAP1 JUMP JUMPDEST PUSH1 0x20 DUP1 DUP3 MSTORE PUSH1 0x1D SWAP1 DUP3 ADD MSTORE PUSH32 0x416464726573733A2063616C6C20746F206E6F6E2D636F6E7472616374000000 PUSH1 0x40 DUP3 ADD MSTORE PUSH1 0x60 ADD SWAP1 JUMP JUMPDEST PUSH1 0x20 DUP1 DUP3 MSTORE PUSH1 0x2A SWAP1 DUP3 ADD MSTORE PUSH32 0x5361666545524332303A204552433230206F7065726174696F6E20646964206E PUSH1 0x40 DUP3 ADD MSTORE PUSH32 0x6F74207375636365656400000000000000000000000000000000000000000000 PUSH1 0x60 DUP3 ADD MSTORE PUSH1 0x80 ADD SWAP1 JUMP JUMPDEST PUSH1 0x20 DUP1 DUP3 MSTORE PUSH1 0x1F SWAP1 DUP3 ADD MSTORE PUSH32 0x5265656E7472616E637947756172643A207265656E7472616E742063616C6C00 PUSH1 0x40 DUP3 ADD MSTORE PUSH1 0x60 ADD SWAP1 JUMP JUMPDEST SWAP1 DUP2 MSTORE PUSH1 0x20 ADD SWAP1 JUMP JUMPDEST SWAP3 DUP4 MSTORE PUSH1 0x20 DUP4 ADD SWAP2 SWAP1 SWAP2 MSTORE PUSH1 0x40 DUP3 ADD MSTORE PUSH1 0x60 ADD SWAP1 JUMP JUMPDEST PUSH1 0x0 DUP3 NOT DUP3 GT ISZERO PUSH2 0x193A JUMPI PUSH2 0x193A PUSH2 0x19C1 JUMP JUMPDEST POP ADD SWAP1 JUMP JUMPDEST PUSH1 0x0 DUP3 PUSH2 0x195A JUMPI PUSH4 0x4E487B71 PUSH1 0xE0 SHL DUP2 MSTORE PUSH1 0x12 PUSH1 0x4 MSTORE PUSH1 0x24 DUP2 REVERT JUMPDEST POP DIV SWAP1 JUMP JUMPDEST PUSH1 0x0 DUP2 PUSH1 0x0 NOT DIV DUP4 GT DUP3 ISZERO ISZERO AND ISZERO PUSH2 0x1979 JUMPI PUSH2 0x1979 PUSH2 0x19C1 JUMP JUMPDEST POP MUL SWAP1 JUMP JUMPDEST PUSH1 0x0 DUP3 DUP3 LT ISZERO PUSH2 0x1990 JUMPI PUSH2 0x1990 PUSH2 0x19C1 JUMP JUMPDEST POP SUB SWAP1 JUMP JUMPDEST PUSH1 0x0 JUMPDEST DUP4 DUP2 LT ISZERO PUSH2 0x19B0 JUMPI DUP2 DUP2 ADD MLOAD DUP4 DUP3 ADD MSTORE PUSH1 0x20 ADD PUSH2 0x1998 JUMP JUMPDEST DUP4 DUP2 GT ISZERO PUSH2 0x10CA JUMPI POP POP PUSH1 0x0 SWAP2 ADD MSTORE JUMP JUMPDEST PUSH4 0x4E487B71 PUSH1 0xE0 SHL PUSH1 0x0 MSTORE PUSH1 0x11 PUSH1 0x4 MSTORE PUSH1 0x24 PUSH1 0x0 REVERT JUMPDEST DUP1 ISZERO ISZERO DUP2 EQ PUSH2 0x595 JUMPI PUSH1 0x0 DUP1 REVERT INVALID LOG2 PUSH5 0x6970667358 0x22 SLT KECCAK256 0xC7 0xAB CODESIZE 0xAF 0xC6 0xBE DUP2 PUSH18 0xE144733784184224EDD9B3C9BECFAB5EADD6 PUSH16 0x25EE11FAA364736F6C63430008000033 "
        },
        "methodIdentifiers": {
          "acceptOwnership()": "79ba5097",
          "balanceOf(address)": "70a08231",
          "earned(address)": "008cc262",
          "exit()": "e9fad8ee",
          "getDelay()": "cebc9a82",
          "getFee()": "ced72f87",
          "getMinimumTime()": "256645ca",
          "getReward()": "3d18b912",
          "getfeeOwner()": "10292b00",
          "lastBalance()": "8f1c56bd",
          "lastPauseTime()": "91b4ded9",
          "lastTimeRewardApplicable()": "80faa57d",
          "lastUpdateTime()": "c8f33c91",
          "nominateNewOwner(address)": "1627540c",
          "nominatedOwner()": "53a47bb7",
          "notifyRewardAmount(uint256)": "3c6b16ab",
          "owner()": "8da5cb5b",
          "paused()": "5c975abb",
          "periodFinish()": "ebe2b12b",
          "rewardPerToken()": "cd3daf9d",
          "rewardPerTokenStored()": "df136d65",
          "rewardRate()": "7b0a47ee",
          "rewardsDuration()": "386a9525",
          "rewardsToken()": "d1af0c7d",
          "setDelay(uint256)": "e177246e",
          "setFee(uint256)": "69fe0e2d",
          "setMinimumTime(uint256)": "5ccab739",
          "setPaused(bool)": "16c38b3c",
          "setRewardRate(uint256,uint256)": "3462e0a8",
          "setfeeOwner(address)": "026c2446",
          "stake(uint256)": "a694fc3a",
          "stakingToken()": "72f702f3",
          "totalSupply()": "18160ddd",
          "withdraw(uint256)": "2e1a7d4d"
        }
      }
    }
  }
}