{
  "contracts/Exchange.sol": {
    "GrayblockPool": {
      "abi": [
        {
          "inputs": [
            {
              "internalType": "address",
              "name": "tokenA_address",
              "type": "address"
            },
            {
              "internalType": "address",
              "name": "tokenB_address",
              "type": "address"
            }
          ],
          "stateMutability": "payable",
          "type": "constructor"
        },
        {
          "anonymous": false,
          "inputs": [
            {
              "indexed": true,
              "internalType": "address",
              "name": "owner",
              "type": "address"
            },
            {
              "indexed": true,
              "internalType": "address",
              "name": "spender",
              "type": "address"
            },
            {
              "indexed": false,
              "internalType": "uint256",
              "name": "value",
              "type": "uint256"
            }
          ],
          "name": "Approval",
          "type": "event"
        },
        {
          "anonymous": false,
          "inputs": [
            {
              "indexed": true,
              "internalType": "address",
              "name": "previousOwner",
              "type": "address"
            },
            {
              "indexed": true,
              "internalType": "address",
              "name": "newOwner",
              "type": "address"
            }
          ],
          "name": "OwnershipTransferred",
          "type": "event"
        },
        {
          "anonymous": false,
          "inputs": [
            {
              "indexed": true,
              "internalType": "address",
              "name": "from",
              "type": "address"
            },
            {
              "indexed": true,
              "internalType": "address",
              "name": "to",
              "type": "address"
            },
            {
              "indexed": false,
              "internalType": "uint256",
              "name": "value",
              "type": "uint256"
            }
          ],
          "name": "Transfer",
          "type": "event"
        },
        {
          "inputs": [],
          "name": "MINIMUM_LIQUIDITY",
          "outputs": [
            {
              "internalType": "uint256",
              "name": "",
              "type": "uint256"
            }
          ],
          "stateMutability": "view",
          "type": "function"
        },
        {
          "inputs": [
            {
              "internalType": "address",
              "name": "",
              "type": "address"
            }
          ],
          "name": "admins",
          "outputs": [
            {
              "internalType": "bool",
              "name": "",
              "type": "bool"
            }
          ],
          "stateMutability": "view",
          "type": "function"
        },
        {
          "inputs": [
            {
              "internalType": "address",
              "name": "owner",
              "type": "address"
            },
            {
              "internalType": "address",
              "name": "spender",
              "type": "address"
            }
          ],
          "name": "allowance",
          "outputs": [
            {
              "internalType": "uint256",
              "name": "",
              "type": "uint256"
            }
          ],
          "stateMutability": "view",
          "type": "function"
        },
        {
          "inputs": [
            {
              "internalType": "address",
              "name": "spender",
              "type": "address"
            },
            {
              "internalType": "uint256",
              "name": "amount",
              "type": "uint256"
            }
          ],
          "name": "approve",
          "outputs": [
            {
              "internalType": "bool",
              "name": "",
              "type": "bool"
            }
          ],
          "stateMutability": "nonpayable",
          "type": "function"
        },
        {
          "inputs": [
            {
              "internalType": "address",
              "name": "account",
              "type": "address"
            }
          ],
          "name": "balanceOf",
          "outputs": [
            {
              "internalType": "uint256",
              "name": "",
              "type": "uint256"
            }
          ],
          "stateMutability": "view",
          "type": "function"
        },
        {
          "inputs": [],
          "name": "decimals",
          "outputs": [
            {
              "internalType": "uint8",
              "name": "",
              "type": "uint8"
            }
          ],
          "stateMutability": "view",
          "type": "function"
        },
        {
          "inputs": [
            {
              "internalType": "address",
              "name": "spender",
              "type": "address"
            },
            {
              "internalType": "uint256",
              "name": "subtractedValue",
              "type": "uint256"
            }
          ],
          "name": "decreaseAllowance",
          "outputs": [
            {
              "internalType": "bool",
              "name": "",
              "type": "bool"
            }
          ],
          "stateMutability": "nonpayable",
          "type": "function"
        },
        {
          "inputs": [
            {
              "internalType": "uint256",
              "name": "tokensA",
              "type": "uint256"
            },
            {
              "internalType": "uint256",
              "name": "tokensB",
              "type": "uint256"
            },
            {
              "internalType": "uint256",
              "name": "MinimumA",
              "type": "uint256"
            },
            {
              "internalType": "uint256",
              "name": "MinimumB",
              "type": "uint256"
            },
            {
              "internalType": "address",
              "name": "_tokenA",
              "type": "address"
            },
            {
              "internalType": "address",
              "name": "_tokenB",
              "type": "address"
            }
          ],
          "name": "depositLiquidity",
          "outputs": [
            {
              "internalType": "uint256",
              "name": "amountA",
              "type": "uint256"
            },
            {
              "internalType": "uint256",
              "name": "amountB",
              "type": "uint256"
            }
          ],
          "stateMutability": "payable",
          "type": "function"
        },
        {
          "inputs": [
            {
              "internalType": "uint256",
              "name": "input_amount",
              "type": "uint256"
            },
            {
              "internalType": "address",
              "name": "_tokenFrom",
              "type": "address"
            },
            {
              "internalType": "address",
              "name": "_tokenTo",
              "type": "address"
            }
          ],
          "name": "getAmountsOut",
          "outputs": [
            {
              "internalType": "uint256",
              "name": "",
              "type": "uint256"
            }
          ],
          "stateMutability": "view",
          "type": "function"
        },
        {
          "inputs": [],
          "name": "getOwner",
          "outputs": [
            {
              "internalType": "address",
              "name": "",
              "type": "address"
            }
          ],
          "stateMutability": "view",
          "type": "function"
        },
        {
          "inputs": [
            {
              "internalType": "uint256",
              "name": "tokensA",
              "type": "uint256"
            },
            {
              "internalType": "uint256",
              "name": "tokensB",
              "type": "uint256"
            },
            {
              "internalType": "uint256",
              "name": "MinimumA",
              "type": "uint256"
            },
            {
              "internalType": "uint256",
              "name": "MinimumB",
              "type": "uint256"
            },
            {
              "internalType": "uint256",
              "name": "token_reserveA",
              "type": "uint256"
            },
            {
              "internalType": "uint256",
              "name": "token_reserveB",
              "type": "uint256"
            }
          ],
          "name": "getRatio",
          "outputs": [
            {
              "internalType": "uint256",
              "name": "amountA",
              "type": "uint256"
            },
            {
              "internalType": "uint256",
              "name": "amountB",
              "type": "uint256"
            }
          ],
          "stateMutability": "payable",
          "type": "function"
        },
        {
          "inputs": [
            {
              "internalType": "address",
              "name": "spender",
              "type": "address"
            },
            {
              "internalType": "uint256",
              "name": "addedValue",
              "type": "uint256"
            }
          ],
          "name": "increaseAllowance",
          "outputs": [
            {
              "internalType": "bool",
              "name": "",
              "type": "bool"
            }
          ],
          "stateMutability": "nonpayable",
          "type": "function"
        },
        {
          "inputs": [
            {
              "internalType": "address",
              "name": "",
              "type": "address"
            }
          ],
          "name": "liquidity",
          "outputs": [
            {
              "internalType": "uint256",
              "name": "",
              "type": "uint256"
            }
          ],
          "stateMutability": "view",
          "type": "function"
        },
        {
          "inputs": [
            {
              "internalType": "uint256",
              "name": "amount",
              "type": "uint256"
            }
          ],
          "name": "mint",
          "outputs": [
            {
              "internalType": "bool",
              "name": "",
              "type": "bool"
            }
          ],
          "stateMutability": "nonpayable",
          "type": "function"
        },
        {
          "inputs": [],
          "name": "name",
          "outputs": [
            {
              "internalType": "string",
              "name": "",
              "type": "string"
            }
          ],
          "stateMutability": "view",
          "type": "function"
        },
        {
          "inputs": [],
          "name": "owner",
          "outputs": [
            {
              "internalType": "address",
              "name": "",
              "type": "address"
            }
          ],
          "stateMutability": "view",
          "type": "function"
        },
        {
          "inputs": [
            {
              "internalType": "uint256",
              "name": "input_amount",
              "type": "uint256"
            },
            {
              "internalType": "uint256",
              "name": "input_reserve",
              "type": "uint256"
            },
            {
              "internalType": "uint256",
              "name": "output_reserve",
              "type": "uint256"
            }
          ],
          "name": "price",
          "outputs": [
            {
              "internalType": "uint256",
              "name": "",
              "type": "uint256"
            }
          ],
          "stateMutability": "pure",
          "type": "function"
        },
        {
          "inputs": [],
          "name": "renounceOwnership",
          "outputs": [],
          "stateMutability": "nonpayable",
          "type": "function"
        },
        {
          "inputs": [
            {
              "internalType": "uint256",
              "name": "tokens",
              "type": "uint256"
            },
            {
              "internalType": "address",
              "name": "_tokenFrom",
              "type": "address"
            },
            {
              "internalType": "address",
              "name": "_tokenTo",
              "type": "address"
            }
          ],
          "name": "swap",
          "outputs": [
            {
              "internalType": "uint256",
              "name": "",
              "type": "uint256"
            }
          ],
          "stateMutability": "payable",
          "type": "function"
        },
        {
          "inputs": [],
          "name": "symbol",
          "outputs": [
            {
              "internalType": "string",
              "name": "",
              "type": "string"
            }
          ],
          "stateMutability": "view",
          "type": "function"
        },
        {
          "inputs": [],
          "name": "totalLiquidity",
          "outputs": [
            {
              "internalType": "uint256",
              "name": "",
              "type": "uint256"
            }
          ],
          "stateMutability": "view",
          "type": "function"
        },
        {
          "inputs": [],
          "name": "totalSupply",
          "outputs": [
            {
              "internalType": "uint256",
              "name": "",
              "type": "uint256"
            }
          ],
          "stateMutability": "view",
          "type": "function"
        },
        {
          "inputs": [
            {
              "internalType": "address",
              "name": "recipient",
              "type": "address"
            },
            {
              "internalType": "uint256",
              "name": "amount",
              "type": "uint256"
            }
          ],
          "name": "transfer",
          "outputs": [
            {
              "internalType": "bool",
              "name": "",
              "type": "bool"
            }
          ],
          "stateMutability": "nonpayable",
          "type": "function"
        },
        {
          "inputs": [
            {
              "internalType": "address",
              "name": "sender",
              "type": "address"
            },
            {
              "internalType": "address",
              "name": "recipient",
              "type": "address"
            },
            {
              "internalType": "uint256",
              "name": "amount",
              "type": "uint256"
            }
          ],
          "name": "transferFrom",
          "outputs": [
            {
              "internalType": "bool",
              "name": "",
              "type": "bool"
            }
          ],
          "stateMutability": "nonpayable",
          "type": "function"
        },
        {
          "inputs": [
            {
              "internalType": "address",
              "name": "newOwner",
              "type": "address"
            }
          ],
          "name": "transferOwnership",
          "outputs": [],
          "stateMutability": "nonpayable",
          "type": "function"
        },
        {
          "inputs": [
            {
              "internalType": "uint256",
              "name": "amount",
              "type": "uint256"
            }
          ],
          "name": "withdrawLiquidity",
          "outputs": [
            {
              "internalType": "uint256",
              "name": "amount0",
              "type": "uint256"
            },
            {
              "internalType": "uint256",
              "name": "amount1",
              "type": "uint256"
            }
          ],
          "stateMutability": "nonpayable",
          "type": "function"
        }
      ],
      "evm": {
        "bytecode": {
          "linkReferences": {},
          "object": "60806040819052600b80546001600160a01b031990811673c5b0d73a7c0e4eaf66babf7ee16a2096447f7ad617909155600c805490911673bb4cdb9cbd36b01bd1cbaebf2de08d9173bc095c17905562002344388190039081908339810160408190526200006d916200025e565b604051806040016040528060088152602001670a0e4ded4cac6e8b60c31b8152506040518060400160405280600381526020016247564d60e81b8152506000620000bc6200019760201b60201c565b600080546001600160a01b0319166001600160a01b0383169081178255604051929350917f8be0079c531659141344cd1fd0a4f28419497f9722a3daafe3b4186f6b6457e0908290a35081516200011b9060049060208501906200019b565b508051620001319060059060208401906200019b565b505060068054601260ff1991821617610100600160a81b0319166101006001600160a01b039687160217909155600780546001600160a01b0319169390941692909217909255336000908152600a602052604090208054909116600117905550620002d2565b3390565b828054620001a99062000295565b90600052602060002090601f016020900481019282620001cd576000855562000218565b82601f10620001e857805160ff191683800117855562000218565b8280016001018555821562000218579182015b8281111562000218578251825591602001919060010190620001fb565b50620002269291506200022a565b5090565b5b808211156200022657600081556001016200022b565b80516001600160a01b03811681146200025957600080fd5b919050565b6000806040838503121562000271578182fd5b6200027c8362000241565b91506200028c6020840162000241565b90509250929050565b600281046001821680620002aa57607f821691505b60208210811415620002cc57634e487b7160e01b600052602260045260246000fd5b50919050565b61206280620002e26000396000f3fe6080604052600436106101a15760003560e01c8063715018a6116100e1578063a457c2d71161008a578063ba9a7a5611610064578063ba9a7a5614610441578063baf7fa9914610456578063dd62ed3e14610476578063f2fde38b14610496576101a1565b8063a457c2d7146103e1578063a9059cbb14610401578063b8c876b114610421576101a1565b806395d89b41116100bb57806395d89b4114610399578063a0712d68146103ae578063a0c31c5c146103ce576101a1565b8063715018a61461034b578063893d20e8146103625780638da5cb5b14610384576101a1565b806323b872dd1161014e578063395093511161012857806339509351146102d8578063429b62e5146102f8578063552d260d1461031857806370a082311461032b576101a1565b806323b872dd146102835780632b7f0923146102a3578063313ce567146102b6576101a1565b806315770f921161017f57806315770f921461022c57806318160ddd1461024e5780632071a9f414610263576101a1565b806306fdde03146101a6578063095ea7b3146101d15780630a861f2a146101fe575b600080fd5b3480156101b257600080fd5b506101bb6104b6565b6040516101c891906119c7565b60405180910390f35b3480156101dd57600080fd5b506101f16101ec3660046117f0565b610548565b6040516101c891906119bc565b34801561020a57600080fd5b5061021e610219366004611839565b610566565b6040516101c8929190611e8c565b34801561023857600080fd5b50610241610746565b6040516101c89190611e83565b34801561025a57600080fd5b5061024161074c565b34801561026f57600080fd5b5061024161027e3660046118a4565b610752565b34801561028f57600080fd5b506101f161029e3660046117b5565b6107a0565b6102416102b1366004611869565b610827565b3480156102c257600080fd5b506102cb6109d9565b6040516101c89190611e9a565b3480156102e457600080fd5b506101f16102f33660046117f0565b6109e2565b34801561030457600080fd5b506101f1610313366004611769565b610a30565b61021e610326366004611926565b610a45565b34801561033757600080fd5b50610241610346366004611769565b610b10565b34801561035757600080fd5b50610360610b2f565b005b34801561036e57600080fd5b50610377610bbb565b6040516101c89190611984565b34801561039057600080fd5b50610377610bca565b3480156103a557600080fd5b506101bb610bd9565b3480156103ba57600080fd5b506101f16103c9366004611839565b610be8565b61021e6103dc3660046118cf565b610c38565b3480156103ed57600080fd5b506101f16103fc3660046117f0565b610e75565b34801561040d57600080fd5b506101f161041c3660046117f0565b610edd565b34801561042d57600080fd5b5061024161043c366004611769565b610ef1565b34801561044d57600080fd5b50610241610f03565b34801561046257600080fd5b50610241610471366004611869565b610f09565b34801561048257600080fd5b50610241610491366004611783565b611027565b3480156104a257600080fd5b506103606104b1366004611769565b611052565b6060600480546104c590611f46565b80601f01602080910402602001604051908101604052809291908181526020018280546104f190611f46565b801561053e5780601f106105135761010080835404028352916020019161053e565b820191906000526020600020905b81548152906001019060200180831161052157829003601f168201915b5050505050905090565b600061055c610555611093565b8484611097565b5060015b92915050565b6000808261057333610b10565b101561059a5760405162461bcd60e51b815260040161059190611b7d565b60405180910390fd5b6105a63033308661114b565b60006105b130610b10565b6006546040516370a0823160e01b81529192506000916101009091046001600160a01b0316906370a08231906105eb903090600401611984565b60206040518083038186803b15801561060357600080fd5b505afa158015610617573d6000803e3d6000fd5b505050506040513d601f19601f8201168201806040525081019061063b9190611851565b6007546040516370a0823160e01b81529192506000916001600160a01b03909116906370a0823190610671903090600401611984565b60206040518083038186803b15801561068957600080fd5b505afa15801561069d573d6000803e3d6000fd5b505050506040513d601f19601f820116820180604052508101906106c19190611851565b90506106cb61074c565b6106d58484611250565b6106df9190611ec0565b94506106e961074c565b6106f38483611250565b6106fd9190611ec0565b9350610709308461129c565b6006546107269061010090046001600160a01b031630338861114b565b60075461073e906001600160a01b031630338761114b565b505050915091565b60085481565b60035490565b600080610761856103e5611250565b9050600061076f8285611250565b9050600061078983610783886103e8611250565b90611372565b90506107958183611ec0565b979650505050505050565b60006107ad8484846113a1565b61081d846107b9611093565b61081885604051806060016040528060288152602001611f98602891396001600160a01b038a166000908152600260205260408120906107f7611093565b6001600160a01b0316815260208101919091526040016000205491906114ab565b611097565b5060019392505050565b6006546000906001600160a01b038481166101009092041614801561085957506007546001600160a01b038381169116145b8061088e57506007546001600160a01b03848116911614801561088e57506006546001600160a01b0383811661010090920416145b6108aa5760405162461bcd60e51b815260040161059190611bda565b82826108b88233308961114b565b6040516370a0823160e01b81526000906001600160a01b038316906370a08231906108e7903090600401611984565b60206040518083038186803b1580156108ff57600080fd5b505afa158015610913573d6000803e3d6000fd5b505050506040513d601f19601f820116820180604052508101906109379190611851565b905060006109cb886109c58a876001600160a01b03166370a08231306040518263ffffffff1660e01b815260040161096f9190611984565b60206040518083038186803b15801561098757600080fd5b505afa15801561099b573d6000803e3d6000fd5b505050506040513d601f19601f820116820180604052508101906109bf9190611851565b906114e5565b84610752565b90506107958630338461114b565b60065460ff1690565b600061055c6109ef611093565b846108188560026000610a00611093565b6001600160a01b03908116825260208083019390935260409182016000908120918c168152925290205490611372565b600a6020526000908152604090205460ff1681565b60008083158015610a54575082155b15610a63575086905085610b05565b6000610a7985610a738b87611250565b90611527565b9050878111610aad5785811015610aa25760405162461bcd60e51b815260040161059190611b11565b889250905080610b03565b6000610abd85610a738b89611250565b905089811115610add57634e487b7160e01b600052600160045260246000fd5b87811015610afd5760405162461bcd60e51b815260040161059190611d94565b92508791505b505b965096945050505050565b6001600160a01b0381166000908152600160205260409020545b919050565b610b37611093565b6000546001600160a01b03908116911614610b645760405162461bcd60e51b815260040161059190611ca5565b600080546040516001600160a01b03909116907f8be0079c531659141344cd1fd0a4f28419497f9722a3daafe3b4186f6b6457e0908390a36000805473ffffffffffffffffffffffffffffffffffffffff19169055565b6000610bc5610bca565b905090565b6000546001600160a01b031690565b6060600580546104c590611f46565b6000610bf2611093565b6000546001600160a01b03908116911614610c1f5760405162461bcd60e51b815260040161059190611ca5565b610c30610c2a611093565b83611569565b506001919050565b60065460009081906001600160a01b0385811661010090920416148015610c6c57506007546001600160a01b038481169116145b80610ca157506007546001600160a01b038581169116148015610ca157506006546001600160a01b0384811661010090920416145b610cbd5760405162461bcd60e51b815260040161059190611bda565b6040516370a0823160e01b8152849084906000906001600160a01b038416906370a0823190610cf0903090600401611984565b60206040518083038186803b158015610d0857600080fd5b505afa158015610d1c573d6000803e3d6000fd5b505050506040513d601f19601f82011682018060405250810190610d409190611851565b90506000826001600160a01b03166370a08231306040518263ffffffff1660e01b8152600401610d709190611984565b60206040518083038186803b158015610d8857600080fd5b505afa158015610d9c573d6000803e3d6000fd5b505050506040513d601f19601f82011682018060405250810190610dc09190611851565b9050610dd08c8c8c8c8686610a45565b9096509450610de18833308961114b565b610ded8733308861114b565b6000610df761074c565b610e1e57610e0d610e088888611611565b611627565b9050610e193382611569565b610e65565b610e5983610e34610e2d61074c565b8a90611250565b610e3e9190611ec0565b83610e4a610e2d61074c565b610e549190611ec0565b611611565b9050610e653382611569565b5050505050965096945050505050565b600061055c610e82611093565b8461081885604051806060016040528060258152602001611fe66025913960026000610eac611093565b6001600160a01b03908116825260208083019390935260409182016000908120918d168152925290205491906114ab565b600061055c610eea611093565b84846113a1565b60096020526000908152604090205481565b6103e881565b6040516370a0823160e01b81526000908390839083906001600160a01b038416906370a0823190610f3e903090600401611984565b60206040518083038186803b158015610f5657600080fd5b505afa158015610f6a573d6000803e3d6000fd5b505050506040513d601f19601f82011682018060405250810190610f8e9190611851565b90506000826001600160a01b03166370a08231306040518263ffffffff1660e01b8152600401610fbe9190611984565b60206040518083038186803b158015610fd657600080fd5b505afa158015610fea573d6000803e3d6000fd5b505050506040513d601f19601f8201168201806040525081019061100e9190611851565b905061101b888383610752565b98975050505050505050565b6001600160a01b03918216600090815260026020908152604080832093909416825291909152205490565b61105a611093565b6000546001600160a01b039081169116146110875760405162461bcd60e51b815260040161059190611ca5565b61109081611696565b50565b3390565b6001600160a01b0383166110bd5760405162461bcd60e51b815260040161059190611a57565b6001600160a01b0382166110e35760405162461bcd60e51b815260040161059190611e26565b6001600160a01b0380841660008181526002602090815260408083209487168084529490915290819020849055517f8c5be1e5ebec7d5bd14f71427d1e84f3dd0314c0f7b2291e5b200ac8c7c3b9259061113e908590611e83565b60405180910390a3505050565b600080856001600160a01b03166323b872dd86868660405160240161117293929190611998565b6040516020818303038152906040529060e01b6020820180517bffffffffffffffffffffffffffffffffffffffffffffffffffffffff83818316178352505050506040516111c09190611968565b6000604051808303816000865af19150503d80600081146111fd576040519150601f19603f3d011682016040523d82523d6000602084013e611202565b606091505b509150915081801561122c57508051158061122c57508080602001905181019061122c9190611819565b6112485760405162461bcd60e51b815260040161059190611dc9565b505050505050565b60008261125f57506000610560565b600061126b8385611ee0565b9050826112788583611ec0565b146112955760405162461bcd60e51b815260040161059190611c11565b9392505050565b6001600160a01b0382166112c25760405162461bcd60e51b815260040161059190611d37565b6112ff8160405180606001604052806022815260200161200b602291396001600160a01b03851660009081526001602052604090205491906114ab565b6001600160a01b03831660009081526001602052604090205560035461132590826114e5565b6003556040516000906001600160a01b038416907fddf252ad1be2c89b69c2b068fc378daa952ba7f163c4a11628f55a4df523b3ef90611366908590611e83565b60405180910390a35050565b60008061137f8385611ea8565b9050838110156112955760405162461bcd60e51b815260040161059190611b46565b6001600160a01b0383166113c75760405162461bcd60e51b8152600401610591906119fa565b6001600160a01b0382166113ed5760405162461bcd60e51b815260040161059190611cda565b61142a81604051806060016040528060268152602001611fc0602691396001600160a01b03861660009081526001602052604090205491906114ab565b6001600160a01b0380851660009081526001602052604080822093909355908416815220546114599082611372565b6001600160a01b0380841660008181526001602052604090819020939093559151908516907fddf252ad1be2c89b69c2b068fc378daa952ba7f163c4a11628f55a4df523b3ef9061113e908590611e83565b600081848411156114cf5760405162461bcd60e51b815260040161059191906119c7565b5060006114dc8486611eff565b95945050505050565b600061129583836040518060400160405280601e81526020017f536166654d6174683a207375627472616374696f6e206f766572666c6f7700008152506114ab565b600061129583836040518060400160405280601a81526020017f536166654d6174683a206469766973696f6e206279207a65726f000000000000815250611724565b6001600160a01b03821661158f5760405162461bcd60e51b815260040161059190611c6e565b60035461159c9082611372565b6003556001600160a01b0382166000908152600160205260409020546115c29082611372565b6001600160a01b0383166000818152600160205260408082209390935591519091907fddf252ad1be2c89b69c2b068fc378daa952ba7f163c4a11628f55a4df523b3ef90611366908590611e83565b60008183106116205781611295565b5090919050565b600060038211156116885750806000611641600283611ec0565b61164c906001611ea8565b90505b81811015611682579050806002816116678186611ec0565b6116719190611ea8565b61167b9190611ec0565b905061164f565b50610b2a565b8115610b2a57506001919050565b6001600160a01b0381166116bc5760405162461bcd60e51b815260040161059190611ab4565b600080546040516001600160a01b03808516939216917f8be0079c531659141344cd1fd0a4f28419497f9722a3daafe3b4186f6b6457e091a36000805473ffffffffffffffffffffffffffffffffffffffff19166001600160a01b0392909216919091179055565b600081836117455760405162461bcd60e51b815260040161059191906119c7565b5060006114dc8486611ec0565b80356001600160a01b0381168114610b2a57600080fd5b60006020828403121561177a578081fd5b61129582611752565b60008060408385031215611795578081fd5b61179e83611752565b91506117ac60208401611752565b90509250929050565b6000806000606084860312156117c9578081fd5b6117d284611752565b92506117e060208501611752565b9150604084013590509250925092565b60008060408385031215611802578182fd5b61180b83611752565b946020939093013593505050565b60006020828403121561182a578081fd5b81518015158114611295578182fd5b60006020828403121561184a578081fd5b5035919050565b600060208284031215611862578081fd5b5051919050565b60008060006060848603121561187d578283fd5b8335925061188d60208501611752565b915061189b60408501611752565b90509250925092565b6000806000606084860312156118b8578283fd5b505081359360208301359350604090920135919050565b60008060008060008060c087890312156118e7578182fd5b8635955060208701359450604087013593506060870135925061190c60808801611752565b915061191a60a08801611752565b90509295509295509295565b60008060008060008060c0878903121561193e578182fd5b505084359660208601359650604086013595606081013595506080810135945060a0013592509050565b6000825161197a818460208701611f16565b9190910192915050565b6001600160a01b0391909116815260200190565b6001600160a01b039384168152919092166020820152604081019190915260600190565b901515815260200190565b60006020825282518060208401526119e6816040850160208701611f16565b601f01601f19169190910160400192915050565b60208082526025908201527f42455032303a207472616e736665722066726f6d20746865207a65726f20616460408201527f6472657373000000000000000000000000000000000000000000000000000000606082015260800190565b60208082526024908201527f42455032303a20617070726f76652066726f6d20746865207a65726f2061646460408201527f7265737300000000000000000000000000000000000000000000000000000000606082015260800190565b60208082526026908201527f4f776e61626c653a206e6577206f776e657220697320746865207a65726f206160408201527f6464726573730000000000000000000000000000000000000000000000000000606082015260800190565b6020808252818101527f47726179626c6f636b3a20494e53554646494349454e545f425f414d4f554e54604082015260600190565b6020808252601b908201527f536166654d6174683a206164646974696f6e206f766572666c6f770000000000604082015260600190565b60208082526036908201527f504f4f4c3a546865207573657220646964206e6f742070726f7669646520746860408201527f617420616d6f756e74206f66206c697175696469747900000000000000000000606082015260800190565b60208082526015908201527f77726f6e6720746f6b656e206f7220746f6b656e730000000000000000000000604082015260600190565b60208082526021908201527f536166654d6174683a206d756c7469706c69636174696f6e206f766572666c6f60408201527f7700000000000000000000000000000000000000000000000000000000000000606082015260800190565b6020808252601f908201527f42455032303a206d696e7420746f20746865207a65726f206164647265737300604082015260600190565b6020808252818101527f4f776e61626c653a2063616c6c6572206973206e6f7420746865206f776e6572604082015260600190565b60208082526023908201527f42455032303a207472616e7366657220746f20746865207a65726f206164647260408201527f6573730000000000000000000000000000000000000000000000000000000000606082015260800190565b60208082526021908201527f42455032303a206275726e2066726f6d20746865207a65726f2061646472657360408201527f7300000000000000000000000000000000000000000000000000000000000000606082015260800190565b6020808252818101527f47726179626c6f636b3a20494e53554646494349454e545f415f414d4f554e54604082015260600190565b60208082526024908201527f5472616e7366657248656c7065723a205452414e534645525f46524f4d5f464160408201527f494c454400000000000000000000000000000000000000000000000000000000606082015260800190565b60208082526022908201527f42455032303a20617070726f766520746f20746865207a65726f20616464726560408201527f7373000000000000000000000000000000000000000000000000000000000000606082015260800190565b90815260200190565b918252602082015260400190565b60ff91909116815260200190565b60008219821115611ebb57611ebb611f81565b500190565b600082611edb57634e487b7160e01b81526012600452602481fd5b500490565b6000816000190483118215151615611efa57611efa611f81565b500290565b600082821015611f1157611f11611f81565b500390565b60005b83811015611f31578181015183820152602001611f19565b83811115611f40576000848401525b50505050565b600281046001821680611f5a57607f821691505b60208210811415611f7b57634e487b7160e01b600052602260045260246000fd5b50919050565b634e487b7160e01b600052601160045260246000fdfe42455032303a207472616e7366657220616d6f756e74206578636565647320616c6c6f77616e636542455032303a207472616e7366657220616d6f756e7420657863656564732062616c616e636542455032303a2064656372656173656420616c6c6f77616e63652062656c6f77207a65726f42455032303a206275726e20616d6f756e7420657863656564732062616c616e6365a2646970667358221220b251d1eaccec3bf6ec0992aaee2107093b46925148ad666d26528aa5474c2c2164736f6c63430008000033",
          "opcodes": "PUSH1 0x80 PUSH1 0x40 DUP2 SWAP1 MSTORE PUSH1 0xB DUP1 SLOAD PUSH1 0x1 PUSH1 0x1 PUSH1 0xA0 SHL SUB NOT SWAP1 DUP2 AND PUSH20 0xC5B0D73A7C0E4EAF66BABF7EE16A2096447F7AD6 OR SWAP1 SWAP2 SSTORE PUSH1 0xC DUP1 SLOAD SWAP1 SWAP2 AND PUSH20 0xBB4CDB9CBD36B01BD1CBAEBF2DE08D9173BC095C OR SWAP1 SSTORE PUSH3 0x2344 CODESIZE DUP2 SWAP1 SUB SWAP1 DUP2 SWAP1 DUP4 CODECOPY DUP2 ADD PUSH1 0x40 DUP2 SWAP1 MSTORE PUSH3 0x6D SWAP2 PUSH3 0x25E JUMP JUMPDEST PUSH1 0x40 MLOAD DUP1 PUSH1 0x40 ADD PUSH1 0x40 MSTORE DUP1 PUSH1 0x8 DUP2 MSTORE PUSH1 0x20 ADD PUSH8 0xA0E4DED4CAC6E8B PUSH1 0xC3 SHL DUP2 MSTORE POP PUSH1 0x40 MLOAD DUP1 PUSH1 0x40 ADD PUSH1 0x40 MSTORE DUP1 PUSH1 0x3 DUP2 MSTORE PUSH1 0x20 ADD PUSH3 0x47564D PUSH1 0xE8 SHL DUP2 MSTORE POP PUSH1 0x0 PUSH3 0xBC PUSH3 0x197 PUSH1 0x20 SHL PUSH1 0x20 SHR JUMP JUMPDEST PUSH1 0x0 DUP1 SLOAD PUSH1 0x1 PUSH1 0x1 PUSH1 0xA0 SHL SUB NOT AND PUSH1 0x1 PUSH1 0x1 PUSH1 0xA0 SHL SUB DUP4 AND SWAP1 DUP2 OR DUP3 SSTORE PUSH1 0x40 MLOAD SWAP3 SWAP4 POP SWAP2 PUSH32 0x8BE0079C531659141344CD1FD0A4F28419497F9722A3DAAFE3B4186F6B6457E0 SWAP1 DUP3 SWAP1 LOG3 POP DUP2 MLOAD PUSH3 0x11B SWAP1 PUSH1 0x4 SWAP1 PUSH1 0x20 DUP6 ADD SWAP1 PUSH3 0x19B JUMP JUMPDEST POP DUP1 MLOAD PUSH3 0x131 SWAP1 PUSH1 0x5 SWAP1 PUSH1 0x20 DUP5 ADD SWAP1 PUSH3 0x19B JUMP JUMPDEST POP POP PUSH1 0x6 DUP1 SLOAD PUSH1 0x12 PUSH1 0xFF NOT SWAP2 DUP3 AND OR PUSH2 0x100 PUSH1 0x1 PUSH1 0xA8 SHL SUB NOT AND PUSH2 0x100 PUSH1 0x1 PUSH1 0x1 PUSH1 0xA0 SHL SUB SWAP7 DUP8 AND MUL OR SWAP1 SWAP2 SSTORE PUSH1 0x7 DUP1 SLOAD PUSH1 0x1 PUSH1 0x1 PUSH1 0xA0 SHL SUB NOT AND SWAP4 SWAP1 SWAP5 AND SWAP3 SWAP1 SWAP3 OR SWAP1 SWAP3 SSTORE CALLER PUSH1 0x0 SWAP1 DUP2 MSTORE PUSH1 0xA PUSH1 0x20 MSTORE PUSH1 0x40 SWAP1 KECCAK256 DUP1 SLOAD SWAP1 SWAP2 AND PUSH1 0x1 OR SWAP1 SSTORE POP PUSH3 0x2D2 JUMP JUMPDEST CALLER SWAP1 JUMP JUMPDEST DUP3 DUP1 SLOAD PUSH3 0x1A9 SWAP1 PUSH3 0x295 JUMP JUMPDEST SWAP1 PUSH1 0x0 MSTORE PUSH1 0x20 PUSH1 0x0 KECCAK256 SWAP1 PUSH1 0x1F ADD PUSH1 0x20 SWAP1 DIV DUP2 ADD SWAP3 DUP3 PUSH3 0x1CD JUMPI PUSH1 0x0 DUP6 SSTORE PUSH3 0x218 JUMP JUMPDEST DUP3 PUSH1 0x1F LT PUSH3 0x1E8 JUMPI DUP1 MLOAD PUSH1 0xFF NOT AND DUP4 DUP1 ADD OR DUP6 SSTORE PUSH3 0x218 JUMP JUMPDEST DUP3 DUP1 ADD PUSH1 0x1 ADD DUP6 SSTORE DUP3 ISZERO PUSH3 0x218 JUMPI SWAP2 DUP3 ADD JUMPDEST DUP3 DUP2 GT ISZERO PUSH3 0x218 JUMPI DUP3 MLOAD DUP3 SSTORE SWAP2 PUSH1 0x20 ADD SWAP2 SWAP1 PUSH1 0x1 ADD SWAP1 PUSH3 0x1FB JUMP JUMPDEST POP PUSH3 0x226 SWAP3 SWAP2 POP PUSH3 0x22A JUMP JUMPDEST POP SWAP1 JUMP JUMPDEST JUMPDEST DUP1 DUP3 GT ISZERO PUSH3 0x226 JUMPI PUSH1 0x0 DUP2 SSTORE PUSH1 0x1 ADD PUSH3 0x22B JUMP JUMPDEST DUP1 MLOAD PUSH1 0x1 PUSH1 0x1 PUSH1 0xA0 SHL SUB DUP2 AND DUP2 EQ PUSH3 0x259 JUMPI PUSH1 0x0 DUP1 REVERT JUMPDEST SWAP2 SWAP1 POP JUMP JUMPDEST PUSH1 0x0 DUP1 PUSH1 0x40 DUP4 DUP6 SUB SLT ISZERO PUSH3 0x271 JUMPI DUP2 DUP3 REVERT JUMPDEST PUSH3 0x27C DUP4 PUSH3 0x241 JUMP JUMPDEST SWAP2 POP PUSH3 0x28C PUSH1 0x20 DUP5 ADD PUSH3 0x241 JUMP JUMPDEST SWAP1 POP SWAP3 POP SWAP3 SWAP1 POP JUMP JUMPDEST PUSH1 0x2 DUP2 DIV PUSH1 0x1 DUP3 AND DUP1 PUSH3 0x2AA JUMPI PUSH1 0x7F DUP3 AND SWAP2 POP JUMPDEST PUSH1 0x20 DUP3 LT DUP2 EQ ISZERO PUSH3 0x2CC JUMPI PUSH4 0x4E487B71 PUSH1 0xE0 SHL PUSH1 0x0 MSTORE PUSH1 0x22 PUSH1 0x4 MSTORE PUSH1 0x24 PUSH1 0x0 REVERT JUMPDEST POP SWAP2 SWAP1 POP JUMP JUMPDEST PUSH2 0x2062 DUP1 PUSH3 0x2E2 PUSH1 0x0 CODECOPY PUSH1 0x0 RETURN INVALID PUSH1 0x80 PUSH1 0x40 MSTORE PUSH1 0x4 CALLDATASIZE LT PUSH2 0x1A1 JUMPI PUSH1 0x0 CALLDATALOAD PUSH1 0xE0 SHR DUP1 PUSH4 0x715018A6 GT PUSH2 0xE1 JUMPI DUP1 PUSH4 0xA457C2D7 GT PUSH2 0x8A JUMPI DUP1 PUSH4 0xBA9A7A56 GT PUSH2 0x64 JUMPI DUP1 PUSH4 0xBA9A7A56 EQ PUSH2 0x441 JUMPI DUP1 PUSH4 0xBAF7FA99 EQ PUSH2 0x456 JUMPI DUP1 PUSH4 0xDD62ED3E EQ PUSH2 0x476 JUMPI DUP1 PUSH4 0xF2FDE38B EQ PUSH2 0x496 JUMPI PUSH2 0x1A1 JUMP JUMPDEST DUP1 PUSH4 0xA457C2D7 EQ PUSH2 0x3E1 JUMPI DUP1 PUSH4 0xA9059CBB EQ PUSH2 0x401 JUMPI DUP1 PUSH4 0xB8C876B1 EQ PUSH2 0x421 JUMPI PUSH2 0x1A1 JUMP JUMPDEST DUP1 PUSH4 0x95D89B41 GT PUSH2 0xBB JUMPI DUP1 PUSH4 0x95D89B41 EQ PUSH2 0x399 JUMPI DUP1 PUSH4 0xA0712D68 EQ PUSH2 0x3AE JUMPI DUP1 PUSH4 0xA0C31C5C EQ PUSH2 0x3CE JUMPI PUSH2 0x1A1 JUMP JUMPDEST DUP1 PUSH4 0x715018A6 EQ PUSH2 0x34B JUMPI DUP1 PUSH4 0x893D20E8 EQ PUSH2 0x362 JUMPI DUP1 PUSH4 0x8DA5CB5B EQ PUSH2 0x384 JUMPI PUSH2 0x1A1 JUMP JUMPDEST DUP1 PUSH4 0x23B872DD GT PUSH2 0x14E JUMPI DUP1 PUSH4 0x39509351 GT PUSH2 0x128 JUMPI DUP1 PUSH4 0x39509351 EQ PUSH2 0x2D8 JUMPI DUP1 PUSH4 0x429B62E5 EQ PUSH2 0x2F8 JUMPI DUP1 PUSH4 0x552D260D EQ PUSH2 0x318 JUMPI DUP1 PUSH4 0x70A08231 EQ PUSH2 0x32B JUMPI PUSH2 0x1A1 JUMP JUMPDEST DUP1 PUSH4 0x23B872DD EQ PUSH2 0x283 JUMPI DUP1 PUSH4 0x2B7F0923 EQ PUSH2 0x2A3 JUMPI DUP1 PUSH4 0x313CE567 EQ PUSH2 0x2B6 JUMPI PUSH2 0x1A1 JUMP JUMPDEST DUP1 PUSH4 0x15770F92 GT PUSH2 0x17F JUMPI DUP1 PUSH4 0x15770F92 EQ PUSH2 0x22C JUMPI DUP1 PUSH4 0x18160DDD EQ PUSH2 0x24E JUMPI DUP1 PUSH4 0x2071A9F4 EQ PUSH2 0x263 JUMPI PUSH2 0x1A1 JUMP JUMPDEST DUP1 PUSH4 0x6FDDE03 EQ PUSH2 0x1A6 JUMPI DUP1 PUSH4 0x95EA7B3 EQ PUSH2 0x1D1 JUMPI DUP1 PUSH4 0xA861F2A EQ PUSH2 0x1FE JUMPI JUMPDEST PUSH1 0x0 DUP1 REVERT JUMPDEST CALLVALUE DUP1 ISZERO PUSH2 0x1B2 JUMPI PUSH1 0x0 DUP1 REVERT JUMPDEST POP PUSH2 0x1BB PUSH2 0x4B6 JUMP JUMPDEST PUSH1 0x40 MLOAD PUSH2 0x1C8 SWAP2 SWAP1 PUSH2 0x19C7 JUMP JUMPDEST PUSH1 0x40 MLOAD DUP1 SWAP2 SUB SWAP1 RETURN JUMPDEST CALLVALUE DUP1 ISZERO PUSH2 0x1DD JUMPI PUSH1 0x0 DUP1 REVERT JUMPDEST POP PUSH2 0x1F1 PUSH2 0x1EC CALLDATASIZE PUSH1 0x4 PUSH2 0x17F0 JUMP JUMPDEST PUSH2 0x548 JUMP JUMPDEST PUSH1 0x40 MLOAD PUSH2 0x1C8 SWAP2 SWAP1 PUSH2 0x19BC JUMP JUMPDEST CALLVALUE DUP1 ISZERO PUSH2 0x20A JUMPI PUSH1 0x0 DUP1 REVERT JUMPDEST POP PUSH2 0x21E PUSH2 0x219 CALLDATASIZE PUSH1 0x4 PUSH2 0x1839 JUMP JUMPDEST PUSH2 0x566 JUMP JUMPDEST PUSH1 0x40 MLOAD PUSH2 0x1C8 SWAP3 SWAP2 SWAP1 PUSH2 0x1E8C JUMP JUMPDEST CALLVALUE DUP1 ISZERO PUSH2 0x238 JUMPI PUSH1 0x0 DUP1 REVERT JUMPDEST POP PUSH2 0x241 PUSH2 0x746 JUMP JUMPDEST PUSH1 0x40 MLOAD PUSH2 0x1C8 SWAP2 SWAP1 PUSH2 0x1E83 JUMP JUMPDEST CALLVALUE DUP1 ISZERO PUSH2 0x25A JUMPI PUSH1 0x0 DUP1 REVERT JUMPDEST POP PUSH2 0x241 PUSH2 0x74C JUMP JUMPDEST CALLVALUE DUP1 ISZERO PUSH2 0x26F JUMPI PUSH1 0x0 DUP1 REVERT JUMPDEST POP PUSH2 0x241 PUSH2 0x27E CALLDATASIZE PUSH1 0x4 PUSH2 0x18A4 JUMP JUMPDEST PUSH2 0x752 JUMP JUMPDEST CALLVALUE DUP1 ISZERO PUSH2 0x28F JUMPI PUSH1 0x0 DUP1 REVERT JUMPDEST POP PUSH2 0x1F1 PUSH2 0x29E CALLDATASIZE PUSH1 0x4 PUSH2 0x17B5 JUMP JUMPDEST PUSH2 0x7A0 JUMP JUMPDEST PUSH2 0x241 PUSH2 0x2B1 CALLDATASIZE PUSH1 0x4 PUSH2 0x1869 JUMP JUMPDEST PUSH2 0x827 JUMP JUMPDEST CALLVALUE DUP1 ISZERO PUSH2 0x2C2 JUMPI PUSH1 0x0 DUP1 REVERT JUMPDEST POP PUSH2 0x2CB PUSH2 0x9D9 JUMP JUMPDEST PUSH1 0x40 MLOAD PUSH2 0x1C8 SWAP2 SWAP1 PUSH2 0x1E9A JUMP JUMPDEST CALLVALUE DUP1 ISZERO PUSH2 0x2E4 JUMPI PUSH1 0x0 DUP1 REVERT JUMPDEST POP PUSH2 0x1F1 PUSH2 0x2F3 CALLDATASIZE PUSH1 0x4 PUSH2 0x17F0 JUMP JUMPDEST PUSH2 0x9E2 JUMP JUMPDEST CALLVALUE DUP1 ISZERO PUSH2 0x304 JUMPI PUSH1 0x0 DUP1 REVERT JUMPDEST POP PUSH2 0x1F1 PUSH2 0x313 CALLDATASIZE PUSH1 0x4 PUSH2 0x1769 JUMP JUMPDEST PUSH2 0xA30 JUMP JUMPDEST PUSH2 0x21E PUSH2 0x326 CALLDATASIZE PUSH1 0x4 PUSH2 0x1926 JUMP JUMPDEST PUSH2 0xA45 JUMP JUMPDEST CALLVALUE DUP1 ISZERO PUSH2 0x337 JUMPI PUSH1 0x0 DUP1 REVERT JUMPDEST POP PUSH2 0x241 PUSH2 0x346 CALLDATASIZE PUSH1 0x4 PUSH2 0x1769 JUMP JUMPDEST PUSH2 0xB10 JUMP JUMPDEST CALLVALUE DUP1 ISZERO PUSH2 0x357 JUMPI PUSH1 0x0 DUP1 REVERT JUMPDEST POP PUSH2 0x360 PUSH2 0xB2F JUMP JUMPDEST STOP JUMPDEST CALLVALUE DUP1 ISZERO PUSH2 0x36E JUMPI PUSH1 0x0 DUP1 REVERT JUMPDEST POP PUSH2 0x377 PUSH2 0xBBB JUMP JUMPDEST PUSH1 0x40 MLOAD PUSH2 0x1C8 SWAP2 SWAP1 PUSH2 0x1984 JUMP JUMPDEST CALLVALUE DUP1 ISZERO PUSH2 0x390 JUMPI PUSH1 0x0 DUP1 REVERT JUMPDEST POP PUSH2 0x377 PUSH2 0xBCA JUMP JUMPDEST CALLVALUE DUP1 ISZERO PUSH2 0x3A5 JUMPI PUSH1 0x0 DUP1 REVERT JUMPDEST POP PUSH2 0x1BB PUSH2 0xBD9 JUMP JUMPDEST CALLVALUE DUP1 ISZERO PUSH2 0x3BA JUMPI PUSH1 0x0 DUP1 REVERT JUMPDEST POP PUSH2 0x1F1 PUSH2 0x3C9 CALLDATASIZE PUSH1 0x4 PUSH2 0x1839 JUMP JUMPDEST PUSH2 0xBE8 JUMP JUMPDEST PUSH2 0x21E PUSH2 0x3DC CALLDATASIZE PUSH1 0x4 PUSH2 0x18CF JUMP JUMPDEST PUSH2 0xC38 JUMP JUMPDEST CALLVALUE DUP1 ISZERO PUSH2 0x3ED JUMPI PUSH1 0x0 DUP1 REVERT JUMPDEST POP PUSH2 0x1F1 PUSH2 0x3FC CALLDATASIZE PUSH1 0x4 PUSH2 0x17F0 JUMP JUMPDEST PUSH2 0xE75 JUMP JUMPDEST CALLVALUE DUP1 ISZERO PUSH2 0x40D JUMPI PUSH1 0x0 DUP1 REVERT JUMPDEST POP PUSH2 0x1F1 PUSH2 0x41C CALLDATASIZE PUSH1 0x4 PUSH2 0x17F0 JUMP JUMPDEST PUSH2 0xEDD JUMP JUMPDEST CALLVALUE DUP1 ISZERO PUSH2 0x42D JUMPI PUSH1 0x0 DUP1 REVERT JUMPDEST POP PUSH2 0x241 PUSH2 0x43C CALLDATASIZE PUSH1 0x4 PUSH2 0x1769 JUMP JUMPDEST PUSH2 0xEF1 JUMP JUMPDEST CALLVALUE DUP1 ISZERO PUSH2 0x44D JUMPI PUSH1 0x0 DUP1 REVERT JUMPDEST POP PUSH2 0x241 PUSH2 0xF03 JUMP JUMPDEST CALLVALUE DUP1 ISZERO PUSH2 0x462 JUMPI PUSH1 0x0 DUP1 REVERT JUMPDEST POP PUSH2 0x241 PUSH2 0x471 CALLDATASIZE PUSH1 0x4 PUSH2 0x1869 JUMP JUMPDEST PUSH2 0xF09 JUMP JUMPDEST CALLVALUE DUP1 ISZERO PUSH2 0x482 JUMPI PUSH1 0x0 DUP1 REVERT JUMPDEST POP PUSH2 0x241 PUSH2 0x491 CALLDATASIZE PUSH1 0x4 PUSH2 0x1783 JUMP JUMPDEST PUSH2 0x1027 JUMP JUMPDEST CALLVALUE DUP1 ISZERO PUSH2 0x4A2 JUMPI PUSH1 0x0 DUP1 REVERT JUMPDEST POP PUSH2 0x360 PUSH2 0x4B1 CALLDATASIZE PUSH1 0x4 PUSH2 0x1769 JUMP JUMPDEST PUSH2 0x1052 JUMP JUMPDEST PUSH1 0x60 PUSH1 0x4 DUP1 SLOAD PUSH2 0x4C5 SWAP1 PUSH2 0x1F46 JUMP JUMPDEST DUP1 PUSH1 0x1F ADD PUSH1 0x20 DUP1 SWAP2 DIV MUL PUSH1 0x20 ADD PUSH1 0x40 MLOAD SWAP1 DUP2 ADD PUSH1 0x40 MSTORE DUP1 SWAP3 SWAP2 SWAP1 DUP2 DUP2 MSTORE PUSH1 0x20 ADD DUP3 DUP1 SLOAD PUSH2 0x4F1 SWAP1 PUSH2 0x1F46 JUMP JUMPDEST DUP1 ISZERO PUSH2 0x53E JUMPI DUP1 PUSH1 0x1F LT PUSH2 0x513 JUMPI PUSH2 0x100 DUP1 DUP4 SLOAD DIV MUL DUP4 MSTORE SWAP2 PUSH1 0x20 ADD SWAP2 PUSH2 0x53E JUMP JUMPDEST DUP3 ADD SWAP2 SWAP1 PUSH1 0x0 MSTORE PUSH1 0x20 PUSH1 0x0 KECCAK256 SWAP1 JUMPDEST DUP2 SLOAD DUP2 MSTORE SWAP1 PUSH1 0x1 ADD SWAP1 PUSH1 0x20 ADD DUP1 DUP4 GT PUSH2 0x521 JUMPI DUP3 SWAP1 SUB PUSH1 0x1F AND DUP3 ADD SWAP2 JUMPDEST POP POP POP POP POP SWAP1 POP SWAP1 JUMP JUMPDEST PUSH1 0x0 PUSH2 0x55C PUSH2 0x555 PUSH2 0x1093 JUMP JUMPDEST DUP5 DUP5 PUSH2 0x1097 JUMP JUMPDEST POP PUSH1 0x1 JUMPDEST SWAP3 SWAP2 POP POP JUMP JUMPDEST PUSH1 0x0 DUP1 DUP3 PUSH2 0x573 CALLER PUSH2 0xB10 JUMP JUMPDEST LT ISZERO PUSH2 0x59A JUMPI PUSH1 0x40 MLOAD PUSH3 0x461BCD PUSH1 0xE5 SHL DUP2 MSTORE PUSH1 0x4 ADD PUSH2 0x591 SWAP1 PUSH2 0x1B7D JUMP JUMPDEST PUSH1 0x40 MLOAD DUP1 SWAP2 SUB SWAP1 REVERT JUMPDEST PUSH2 0x5A6 ADDRESS CALLER ADDRESS DUP7 PUSH2 0x114B JUMP JUMPDEST PUSH1 0x0 PUSH2 0x5B1 ADDRESS PUSH2 0xB10 JUMP JUMPDEST PUSH1 0x6 SLOAD PUSH1 0x40 MLOAD PUSH4 0x70A08231 PUSH1 0xE0 SHL DUP2 MSTORE SWAP2 SWAP3 POP PUSH1 0x0 SWAP2 PUSH2 0x100 SWAP1 SWAP2 DIV PUSH1 0x1 PUSH1 0x1 PUSH1 0xA0 SHL SUB AND SWAP1 PUSH4 0x70A08231 SWAP1 PUSH2 0x5EB SWAP1 ADDRESS SWAP1 PUSH1 0x4 ADD PUSH2 0x1984 JUMP JUMPDEST PUSH1 0x20 PUSH1 0x40 MLOAD DUP1 DUP4 SUB DUP2 DUP7 DUP1 EXTCODESIZE ISZERO DUP1 ISZERO PUSH2 0x603 JUMPI PUSH1 0x0 DUP1 REVERT JUMPDEST POP GAS STATICCALL ISZERO DUP1 ISZERO PUSH2 0x617 JUMPI RETURNDATASIZE PUSH1 0x0 DUP1 RETURNDATACOPY RETURNDATASIZE PUSH1 0x0 REVERT JUMPDEST POP POP POP POP PUSH1 0x40 MLOAD RETURNDATASIZE PUSH1 0x1F NOT PUSH1 0x1F DUP3 ADD AND DUP3 ADD DUP1 PUSH1 0x40 MSTORE POP DUP2 ADD SWAP1 PUSH2 0x63B SWAP2 SWAP1 PUSH2 0x1851 JUMP JUMPDEST PUSH1 0x7 SLOAD PUSH1 0x40 MLOAD PUSH4 0x70A08231 PUSH1 0xE0 SHL DUP2 MSTORE SWAP2 SWAP3 POP PUSH1 0x0 SWAP2 PUSH1 0x1 PUSH1 0x1 PUSH1 0xA0 SHL SUB SWAP1 SWAP2 AND SWAP1 PUSH4 0x70A08231 SWAP1 PUSH2 0x671 SWAP1 ADDRESS SWAP1 PUSH1 0x4 ADD PUSH2 0x1984 JUMP JUMPDEST PUSH1 0x20 PUSH1 0x40 MLOAD DUP1 DUP4 SUB DUP2 DUP7 DUP1 EXTCODESIZE ISZERO DUP1 ISZERO PUSH2 0x689 JUMPI PUSH1 0x0 DUP1 REVERT JUMPDEST POP GAS STATICCALL ISZERO DUP1 ISZERO PUSH2 0x69D JUMPI RETURNDATASIZE PUSH1 0x0 DUP1 RETURNDATACOPY RETURNDATASIZE PUSH1 0x0 REVERT JUMPDEST POP POP POP POP PUSH1 0x40 MLOAD RETURNDATASIZE PUSH1 0x1F NOT PUSH1 0x1F DUP3 ADD AND DUP3 ADD DUP1 PUSH1 0x40 MSTORE POP DUP2 ADD SWAP1 PUSH2 0x6C1 SWAP2 SWAP1 PUSH2 0x1851 JUMP JUMPDEST SWAP1 POP PUSH2 0x6CB PUSH2 0x74C JUMP JUMPDEST PUSH2 0x6D5 DUP5 DUP5 PUSH2 0x1250 JUMP JUMPDEST PUSH2 0x6DF SWAP2 SWAP1 PUSH2 0x1EC0 JUMP JUMPDEST SWAP5 POP PUSH2 0x6E9 PUSH2 0x74C JUMP JUMPDEST PUSH2 0x6F3 DUP5 DUP4 PUSH2 0x1250 JUMP JUMPDEST PUSH2 0x6FD SWAP2 SWAP1 PUSH2 0x1EC0 JUMP JUMPDEST SWAP4 POP PUSH2 0x709 ADDRESS DUP5 PUSH2 0x129C JUMP JUMPDEST PUSH1 0x6 SLOAD PUSH2 0x726 SWAP1 PUSH2 0x100 SWAP1 DIV PUSH1 0x1 PUSH1 0x1 PUSH1 0xA0 SHL SUB AND ADDRESS CALLER DUP9 PUSH2 0x114B JUMP JUMPDEST PUSH1 0x7 SLOAD PUSH2 0x73E SWAP1 PUSH1 0x1 PUSH1 0x1 PUSH1 0xA0 SHL SUB AND ADDRESS CALLER DUP8 PUSH2 0x114B JUMP JUMPDEST POP POP POP SWAP2 POP SWAP2 JUMP JUMPDEST PUSH1 0x8 SLOAD DUP2 JUMP JUMPDEST PUSH1 0x3 SLOAD SWAP1 JUMP JUMPDEST PUSH1 0x0 DUP1 PUSH2 0x761 DUP6 PUSH2 0x3E5 PUSH2 0x1250 JUMP JUMPDEST SWAP1 POP PUSH1 0x0 PUSH2 0x76F DUP3 DUP6 PUSH2 0x1250 JUMP JUMPDEST SWAP1 POP PUSH1 0x0 PUSH2 0x789 DUP4 PUSH2 0x783 DUP9 PUSH2 0x3E8 PUSH2 0x1250 JUMP JUMPDEST SWAP1 PUSH2 0x1372 JUMP JUMPDEST SWAP1 POP PUSH2 0x795 DUP2 DUP4 PUSH2 0x1EC0 JUMP JUMPDEST SWAP8 SWAP7 POP POP POP POP POP POP POP JUMP JUMPDEST PUSH1 0x0 PUSH2 0x7AD DUP5 DUP5 DUP5 PUSH2 0x13A1 JUMP JUMPDEST PUSH2 0x81D DUP5 PUSH2 0x7B9 PUSH2 0x1093 JUMP JUMPDEST PUSH2 0x818 DUP6 PUSH1 0x40 MLOAD DUP1 PUSH1 0x60 ADD PUSH1 0x40 MSTORE DUP1 PUSH1 0x28 DUP2 MSTORE PUSH1 0x20 ADD PUSH2 0x1F98 PUSH1 0x28 SWAP2 CODECOPY PUSH1 0x1 PUSH1 0x1 PUSH1 0xA0 SHL SUB DUP11 AND PUSH1 0x0 SWAP1 DUP2 MSTORE PUSH1 0x2 PUSH1 0x20 MSTORE PUSH1 0x40 DUP2 KECCAK256 SWAP1 PUSH2 0x7F7 PUSH2 0x1093 JUMP JUMPDEST PUSH1 0x1 PUSH1 0x1 PUSH1 0xA0 SHL SUB AND DUP2 MSTORE PUSH1 0x20 DUP2 ADD SWAP2 SWAP1 SWAP2 MSTORE PUSH1 0x40 ADD PUSH1 0x0 KECCAK256 SLOAD SWAP2 SWAP1 PUSH2 0x14AB JUMP JUMPDEST PUSH2 0x1097 JUMP JUMPDEST POP PUSH1 0x1 SWAP4 SWAP3 POP POP POP JUMP JUMPDEST PUSH1 0x6 SLOAD PUSH1 0x0 SWAP1 PUSH1 0x1 PUSH1 0x1 PUSH1 0xA0 SHL SUB DUP5 DUP2 AND PUSH2 0x100 SWAP1 SWAP3 DIV AND EQ DUP1 ISZERO PUSH2 0x859 JUMPI POP PUSH1 0x7 SLOAD PUSH1 0x1 PUSH1 0x1 PUSH1 0xA0 SHL SUB DUP4 DUP2 AND SWAP2 AND EQ JUMPDEST DUP1 PUSH2 0x88E JUMPI POP PUSH1 0x7 SLOAD PUSH1 0x1 PUSH1 0x1 PUSH1 0xA0 SHL SUB DUP5 DUP2 AND SWAP2 AND EQ DUP1 ISZERO PUSH2 0x88E JUMPI POP PUSH1 0x6 SLOAD PUSH1 0x1 PUSH1 0x1 PUSH1 0xA0 SHL SUB DUP4 DUP2 AND PUSH2 0x100 SWAP1 SWAP3 DIV AND EQ JUMPDEST PUSH2 0x8AA JUMPI PUSH1 0x40 MLOAD PUSH3 0x461BCD PUSH1 0xE5 SHL DUP2 MSTORE PUSH1 0x4 ADD PUSH2 0x591 SWAP1 PUSH2 0x1BDA JUMP JUMPDEST DUP3 DUP3 PUSH2 0x8B8 DUP3 CALLER ADDRESS DUP10 PUSH2 0x114B JUMP JUMPDEST PUSH1 0x40 MLOAD PUSH4 0x70A08231 PUSH1 0xE0 SHL DUP2 MSTORE PUSH1 0x0 SWAP1 PUSH1 0x1 PUSH1 0x1 PUSH1 0xA0 SHL SUB DUP4 AND SWAP1 PUSH4 0x70A08231 SWAP1 PUSH2 0x8E7 SWAP1 ADDRESS SWAP1 PUSH1 0x4 ADD PUSH2 0x1984 JUMP JUMPDEST PUSH1 0x20 PUSH1 0x40 MLOAD DUP1 DUP4 SUB DUP2 DUP7 DUP1 EXTCODESIZE ISZERO DUP1 ISZERO PUSH2 0x8FF JUMPI PUSH1 0x0 DUP1 REVERT JUMPDEST POP GAS STATICCALL ISZERO DUP1 ISZERO PUSH2 0x913 JUMPI RETURNDATASIZE PUSH1 0x0 DUP1 RETURNDATACOPY RETURNDATASIZE PUSH1 0x0 REVERT JUMPDEST POP POP POP POP PUSH1 0x40 MLOAD RETURNDATASIZE PUSH1 0x1F NOT PUSH1 0x1F DUP3 ADD AND DUP3 ADD DUP1 PUSH1 0x40 MSTORE POP DUP2 ADD SWAP1 PUSH2 0x937 SWAP2 SWAP1 PUSH2 0x1851 JUMP JUMPDEST SWAP1 POP PUSH1 0x0 PUSH2 0x9CB DUP9 PUSH2 0x9C5 DUP11 DUP8 PUSH1 0x1 PUSH1 0x1 PUSH1 0xA0 SHL SUB AND PUSH4 0x70A08231 ADDRESS PUSH1 0x40 MLOAD DUP3 PUSH4 0xFFFFFFFF AND PUSH1 0xE0 SHL DUP2 MSTORE PUSH1 0x4 ADD PUSH2 0x96F SWAP2 SWAP1 PUSH2 0x1984 JUMP JUMPDEST PUSH1 0x20 PUSH1 0x40 MLOAD DUP1 DUP4 SUB DUP2 DUP7 DUP1 EXTCODESIZE ISZERO DUP1 ISZERO PUSH2 0x987 JUMPI PUSH1 0x0 DUP1 REVERT JUMPDEST POP GAS STATICCALL ISZERO DUP1 ISZERO PUSH2 0x99B JUMPI RETURNDATASIZE PUSH1 0x0 DUP1 RETURNDATACOPY RETURNDATASIZE PUSH1 0x0 REVERT JUMPDEST POP POP POP POP PUSH1 0x40 MLOAD RETURNDATASIZE PUSH1 0x1F NOT PUSH1 0x1F DUP3 ADD AND DUP3 ADD DUP1 PUSH1 0x40 MSTORE POP DUP2 ADD SWAP1 PUSH2 0x9BF SWAP2 SWAP1 PUSH2 0x1851 JUMP JUMPDEST SWAP1 PUSH2 0x14E5 JUMP JUMPDEST DUP5 PUSH2 0x752 JUMP JUMPDEST SWAP1 POP PUSH2 0x795 DUP7 ADDRESS CALLER DUP5 PUSH2 0x114B JUMP JUMPDEST PUSH1 0x6 SLOAD PUSH1 0xFF AND SWAP1 JUMP JUMPDEST PUSH1 0x0 PUSH2 0x55C PUSH2 0x9EF PUSH2 0x1093 JUMP JUMPDEST DUP5 PUSH2 0x818 DUP6 PUSH1 0x2 PUSH1 0x0 PUSH2 0xA00 PUSH2 0x1093 JUMP JUMPDEST PUSH1 0x1 PUSH1 0x1 PUSH1 0xA0 SHL SUB SWAP1 DUP2 AND DUP3 MSTORE PUSH1 0x20 DUP1 DUP4 ADD SWAP4 SWAP1 SWAP4 MSTORE PUSH1 0x40 SWAP2 DUP3 ADD PUSH1 0x0 SWAP1 DUP2 KECCAK256 SWAP2 DUP13 AND DUP2 MSTORE SWAP3 MSTORE SWAP1 KECCAK256 SLOAD SWAP1 PUSH2 0x1372 JUMP JUMPDEST PUSH1 0xA PUSH1 0x20 MSTORE PUSH1 0x0 SWAP1 DUP2 MSTORE PUSH1 0x40 SWAP1 KECCAK256 SLOAD PUSH1 0xFF AND DUP2 JUMP JUMPDEST PUSH1 0x0 DUP1 DUP4 ISZERO DUP1 ISZERO PUSH2 0xA54 JUMPI POP DUP3 ISZERO JUMPDEST ISZERO PUSH2 0xA63 JUMPI POP DUP7 SWAP1 POP DUP6 PUSH2 0xB05 JUMP JUMPDEST PUSH1 0x0 PUSH2 0xA79 DUP6 PUSH2 0xA73 DUP12 DUP8 PUSH2 0x1250 JUMP JUMPDEST SWAP1 PUSH2 0x1527 JUMP JUMPDEST SWAP1 POP DUP8 DUP2 GT PUSH2 0xAAD JUMPI DUP6 DUP2 LT ISZERO PUSH2 0xAA2 JUMPI PUSH1 0x40 MLOAD PUSH3 0x461BCD PUSH1 0xE5 SHL DUP2 MSTORE PUSH1 0x4 ADD PUSH2 0x591 SWAP1 PUSH2 0x1B11 JUMP JUMPDEST DUP9 SWAP3 POP SWAP1 POP DUP1 PUSH2 0xB03 JUMP JUMPDEST PUSH1 0x0 PUSH2 0xABD DUP6 PUSH2 0xA73 DUP12 DUP10 PUSH2 0x1250 JUMP JUMPDEST SWAP1 POP DUP10 DUP2 GT ISZERO PUSH2 0xADD JUMPI PUSH4 0x4E487B71 PUSH1 0xE0 SHL PUSH1 0x0 MSTORE PUSH1 0x1 PUSH1 0x4 MSTORE PUSH1 0x24 PUSH1 0x0 REVERT JUMPDEST DUP8 DUP2 LT ISZERO PUSH2 0xAFD JUMPI PUSH1 0x40 MLOAD PUSH3 0x461BCD PUSH1 0xE5 SHL DUP2 MSTORE PUSH1 0x4 ADD PUSH2 0x591 SWAP1 PUSH2 0x1D94 JUMP JUMPDEST SWAP3 POP DUP8 SWAP2 POP JUMPDEST POP JUMPDEST SWAP7 POP SWAP7 SWAP5 POP POP POP POP POP JUMP JUMPDEST PUSH1 0x1 PUSH1 0x1 PUSH1 0xA0 SHL SUB DUP2 AND PUSH1 0x0 SWAP1 DUP2 MSTORE PUSH1 0x1 PUSH1 0x20 MSTORE PUSH1 0x40 SWAP1 KECCAK256 SLOAD JUMPDEST SWAP2 SWAP1 POP JUMP JUMPDEST PUSH2 0xB37 PUSH2 0x1093 JUMP JUMPDEST PUSH1 0x0 SLOAD PUSH1 0x1 PUSH1 0x1 PUSH1 0xA0 SHL SUB SWAP1 DUP2 AND SWAP2 AND EQ PUSH2 0xB64 JUMPI PUSH1 0x40 MLOAD PUSH3 0x461BCD PUSH1 0xE5 SHL DUP2 MSTORE PUSH1 0x4 ADD PUSH2 0x591 SWAP1 PUSH2 0x1CA5 JUMP JUMPDEST PUSH1 0x0 DUP1 SLOAD PUSH1 0x40 MLOAD PUSH1 0x1 PUSH1 0x1 PUSH1 0xA0 SHL SUB SWAP1 SWAP2 AND SWAP1 PUSH32 0x8BE0079C531659141344CD1FD0A4F28419497F9722A3DAAFE3B4186F6B6457E0 SWAP1 DUP4 SWAP1 LOG3 PUSH1 0x0 DUP1 SLOAD PUSH20 0xFFFFFFFFFFFFFFFFFFFFFFFFFFFFFFFFFFFFFFFF NOT AND SWAP1 SSTORE JUMP JUMPDEST PUSH1 0x0 PUSH2 0xBC5 PUSH2 0xBCA JUMP JUMPDEST SWAP1 POP SWAP1 JUMP JUMPDEST PUSH1 0x0 SLOAD PUSH1 0x1 PUSH1 0x1 PUSH1 0xA0 SHL SUB AND SWAP1 JUMP JUMPDEST PUSH1 0x60 PUSH1 0x5 DUP1 SLOAD PUSH2 0x4C5 SWAP1 PUSH2 0x1F46 JUMP JUMPDEST PUSH1 0x0 PUSH2 0xBF2 PUSH2 0x1093 JUMP JUMPDEST PUSH1 0x0 SLOAD PUSH1 0x1 PUSH1 0x1 PUSH1 0xA0 SHL SUB SWAP1 DUP2 AND SWAP2 AND EQ PUSH2 0xC1F JUMPI PUSH1 0x40 MLOAD PUSH3 0x461BCD PUSH1 0xE5 SHL DUP2 MSTORE PUSH1 0x4 ADD PUSH2 0x591 SWAP1 PUSH2 0x1CA5 JUMP JUMPDEST PUSH2 0xC30 PUSH2 0xC2A PUSH2 0x1093 JUMP JUMPDEST DUP4 PUSH2 0x1569 JUMP JUMPDEST POP PUSH1 0x1 SWAP2 SWAP1 POP JUMP JUMPDEST PUSH1 0x6 SLOAD PUSH1 0x0 SWAP1 DUP2 SWAP1 PUSH1 0x1 PUSH1 0x1 PUSH1 0xA0 SHL SUB DUP6 DUP2 AND PUSH2 0x100 SWAP1 SWAP3 DIV AND EQ DUP1 ISZERO PUSH2 0xC6C JUMPI POP PUSH1 0x7 SLOAD PUSH1 0x1 PUSH1 0x1 PUSH1 0xA0 SHL SUB DUP5 DUP2 AND SWAP2 AND EQ JUMPDEST DUP1 PUSH2 0xCA1 JUMPI POP PUSH1 0x7 SLOAD PUSH1 0x1 PUSH1 0x1 PUSH1 0xA0 SHL SUB DUP6 DUP2 AND SWAP2 AND EQ DUP1 ISZERO PUSH2 0xCA1 JUMPI POP PUSH1 0x6 SLOAD PUSH1 0x1 PUSH1 0x1 PUSH1 0xA0 SHL SUB DUP5 DUP2 AND PUSH2 0x100 SWAP1 SWAP3 DIV AND EQ JUMPDEST PUSH2 0xCBD JUMPI PUSH1 0x40 MLOAD PUSH3 0x461BCD PUSH1 0xE5 SHL DUP2 MSTORE PUSH1 0x4 ADD PUSH2 0x591 SWAP1 PUSH2 0x1BDA JUMP JUMPDEST PUSH1 0x40 MLOAD PUSH4 0x70A08231 PUSH1 0xE0 SHL DUP2 MSTORE DUP5 SWAP1 DUP5 SWAP1 PUSH1 0x0 SWAP1 PUSH1 0x1 PUSH1 0x1 PUSH1 0xA0 SHL SUB DUP5 AND SWAP1 PUSH4 0x70A08231 SWAP1 PUSH2 0xCF0 SWAP1 ADDRESS SWAP1 PUSH1 0x4 ADD PUSH2 0x1984 JUMP JUMPDEST PUSH1 0x20 PUSH1 0x40 MLOAD DUP1 DUP4 SUB DUP2 DUP7 DUP1 EXTCODESIZE ISZERO DUP1 ISZERO PUSH2 0xD08 JUMPI PUSH1 0x0 DUP1 REVERT JUMPDEST POP GAS STATICCALL ISZERO DUP1 ISZERO PUSH2 0xD1C JUMPI RETURNDATASIZE PUSH1 0x0 DUP1 RETURNDATACOPY RETURNDATASIZE PUSH1 0x0 REVERT JUMPDEST POP POP POP POP PUSH1 0x40 MLOAD RETURNDATASIZE PUSH1 0x1F NOT PUSH1 0x1F DUP3 ADD AND DUP3 ADD DUP1 PUSH1 0x40 MSTORE POP DUP2 ADD SWAP1 PUSH2 0xD40 SWAP2 SWAP1 PUSH2 0x1851 JUMP JUMPDEST SWAP1 POP PUSH1 0x0 DUP3 PUSH1 0x1 PUSH1 0x1 PUSH1 0xA0 SHL SUB AND PUSH4 0x70A08231 ADDRESS PUSH1 0x40 MLOAD DUP3 PUSH4 0xFFFFFFFF AND PUSH1 0xE0 SHL DUP2 MSTORE PUSH1 0x4 ADD PUSH2 0xD70 SWAP2 SWAP1 PUSH2 0x1984 JUMP JUMPDEST PUSH1 0x20 PUSH1 0x40 MLOAD DUP1 DUP4 SUB DUP2 DUP7 DUP1 EXTCODESIZE ISZERO DUP1 ISZERO PUSH2 0xD88 JUMPI PUSH1 0x0 DUP1 REVERT JUMPDEST POP GAS STATICCALL ISZERO DUP1 ISZERO PUSH2 0xD9C JUMPI RETURNDATASIZE PUSH1 0x0 DUP1 RETURNDATACOPY RETURNDATASIZE PUSH1 0x0 REVERT JUMPDEST POP POP POP POP PUSH1 0x40 MLOAD RETURNDATASIZE PUSH1 0x1F NOT PUSH1 0x1F DUP3 ADD AND DUP3 ADD DUP1 PUSH1 0x40 MSTORE POP DUP2 ADD SWAP1 PUSH2 0xDC0 SWAP2 SWAP1 PUSH2 0x1851 JUMP JUMPDEST SWAP1 POP PUSH2 0xDD0 DUP13 DUP13 DUP13 DUP13 DUP7 DUP7 PUSH2 0xA45 JUMP JUMPDEST SWAP1 SWAP7 POP SWAP5 POP PUSH2 0xDE1 DUP9 CALLER ADDRESS DUP10 PUSH2 0x114B JUMP JUMPDEST PUSH2 0xDED DUP8 CALLER ADDRESS DUP9 PUSH2 0x114B JUMP JUMPDEST PUSH1 0x0 PUSH2 0xDF7 PUSH2 0x74C JUMP JUMPDEST PUSH2 0xE1E JUMPI PUSH2 0xE0D PUSH2 0xE08 DUP9 DUP9 PUSH2 0x1611 JUMP JUMPDEST PUSH2 0x1627 JUMP JUMPDEST SWAP1 POP PUSH2 0xE19 CALLER DUP3 PUSH2 0x1569 JUMP JUMPDEST PUSH2 0xE65 JUMP JUMPDEST PUSH2 0xE59 DUP4 PUSH2 0xE34 PUSH2 0xE2D PUSH2 0x74C JUMP JUMPDEST DUP11 SWAP1 PUSH2 0x1250 JUMP JUMPDEST PUSH2 0xE3E SWAP2 SWAP1 PUSH2 0x1EC0 JUMP JUMPDEST DUP4 PUSH2 0xE4A PUSH2 0xE2D PUSH2 0x74C JUMP JUMPDEST PUSH2 0xE54 SWAP2 SWAP1 PUSH2 0x1EC0 JUMP JUMPDEST PUSH2 0x1611 JUMP JUMPDEST SWAP1 POP PUSH2 0xE65 CALLER DUP3 PUSH2 0x1569 JUMP JUMPDEST POP POP POP POP POP SWAP7 POP SWAP7 SWAP5 POP POP POP POP POP JUMP JUMPDEST PUSH1 0x0 PUSH2 0x55C PUSH2 0xE82 PUSH2 0x1093 JUMP JUMPDEST DUP5 PUSH2 0x818 DUP6 PUSH1 0x40 MLOAD DUP1 PUSH1 0x60 ADD PUSH1 0x40 MSTORE DUP1 PUSH1 0x25 DUP2 MSTORE PUSH1 0x20 ADD PUSH2 0x1FE6 PUSH1 0x25 SWAP2 CODECOPY PUSH1 0x2 PUSH1 0x0 PUSH2 0xEAC PUSH2 0x1093 JUMP JUMPDEST PUSH1 0x1 PUSH1 0x1 PUSH1 0xA0 SHL SUB SWAP1 DUP2 AND DUP3 MSTORE PUSH1 0x20 DUP1 DUP4 ADD SWAP4 SWAP1 SWAP4 MSTORE PUSH1 0x40 SWAP2 DUP3 ADD PUSH1 0x0 SWAP1 DUP2 KECCAK256 SWAP2 DUP14 AND DUP2 MSTORE SWAP3 MSTORE SWAP1 KECCAK256 SLOAD SWAP2 SWAP1 PUSH2 0x14AB JUMP JUMPDEST PUSH1 0x0 PUSH2 0x55C PUSH2 0xEEA PUSH2 0x1093 JUMP JUMPDEST DUP5 DUP5 PUSH2 0x13A1 JUMP JUMPDEST PUSH1 0x9 PUSH1 0x20 MSTORE PUSH1 0x0 SWAP1 DUP2 MSTORE PUSH1 0x40 SWAP1 KECCAK256 SLOAD DUP2 JUMP JUMPDEST PUSH2 0x3E8 DUP2 JUMP JUMPDEST PUSH1 0x40 MLOAD PUSH4 0x70A08231 PUSH1 0xE0 SHL DUP2 MSTORE PUSH1 0x0 SWAP1 DUP4 SWAP1 DUP4 SWAP1 DUP4 SWAP1 PUSH1 0x1 PUSH1 0x1 PUSH1 0xA0 SHL SUB DUP5 AND SWAP1 PUSH4 0x70A08231 SWAP1 PUSH2 0xF3E SWAP1 ADDRESS SWAP1 PUSH1 0x4 ADD PUSH2 0x1984 JUMP JUMPDEST PUSH1 0x20 PUSH1 0x40 MLOAD DUP1 DUP4 SUB DUP2 DUP7 DUP1 EXTCODESIZE ISZERO DUP1 ISZERO PUSH2 0xF56 JUMPI PUSH1 0x0 DUP1 REVERT JUMPDEST POP GAS STATICCALL ISZERO DUP1 ISZERO PUSH2 0xF6A JUMPI RETURNDATASIZE PUSH1 0x0 DUP1 RETURNDATACOPY RETURNDATASIZE PUSH1 0x0 REVERT JUMPDEST POP POP POP POP PUSH1 0x40 MLOAD RETURNDATASIZE PUSH1 0x1F NOT PUSH1 0x1F DUP3 ADD AND DUP3 ADD DUP1 PUSH1 0x40 MSTORE POP DUP2 ADD SWAP1 PUSH2 0xF8E SWAP2 SWAP1 PUSH2 0x1851 JUMP JUMPDEST SWAP1 POP PUSH1 0x0 DUP3 PUSH1 0x1 PUSH1 0x1 PUSH1 0xA0 SHL SUB AND PUSH4 0x70A08231 ADDRESS PUSH1 0x40 MLOAD DUP3 PUSH4 0xFFFFFFFF AND PUSH1 0xE0 SHL DUP2 MSTORE PUSH1 0x4 ADD PUSH2 0xFBE SWAP2 SWAP1 PUSH2 0x1984 JUMP JUMPDEST PUSH1 0x20 PUSH1 0x40 MLOAD DUP1 DUP4 SUB DUP2 DUP7 DUP1 EXTCODESIZE ISZERO DUP1 ISZERO PUSH2 0xFD6 JUMPI PUSH1 0x0 DUP1 REVERT JUMPDEST POP GAS STATICCALL ISZERO DUP1 ISZERO PUSH2 0xFEA JUMPI RETURNDATASIZE PUSH1 0x0 DUP1 RETURNDATACOPY RETURNDATASIZE PUSH1 0x0 REVERT JUMPDEST POP POP POP POP PUSH1 0x40 MLOAD RETURNDATASIZE PUSH1 0x1F NOT PUSH1 0x1F DUP3 ADD AND DUP3 ADD DUP1 PUSH1 0x40 MSTORE POP DUP2 ADD SWAP1 PUSH2 0x100E SWAP2 SWAP1 PUSH2 0x1851 JUMP JUMPDEST SWAP1 POP PUSH2 0x101B DUP9 DUP4 DUP4 PUSH2 0x752 JUMP JUMPDEST SWAP9 SWAP8 POP POP POP POP POP POP POP POP JUMP JUMPDEST PUSH1 0x1 PUSH1 0x1 PUSH1 0xA0 SHL SUB SWAP2 DUP3 AND PUSH1 0x0 SWAP1 DUP2 MSTORE PUSH1 0x2 PUSH1 0x20 SWAP1 DUP2 MSTORE PUSH1 0x40 DUP1 DUP4 KECCAK256 SWAP4 SWAP1 SWAP5 AND DUP3 MSTORE SWAP2 SWAP1 SWAP2 MSTORE KECCAK256 SLOAD SWAP1 JUMP JUMPDEST PUSH2 0x105A PUSH2 0x1093 JUMP JUMPDEST PUSH1 0x0 SLOAD PUSH1 0x1 PUSH1 0x1 PUSH1 0xA0 SHL SUB SWAP1 DUP2 AND SWAP2 AND EQ PUSH2 0x1087 JUMPI PUSH1 0x40 MLOAD PUSH3 0x461BCD PUSH1 0xE5 SHL DUP2 MSTORE PUSH1 0x4 ADD PUSH2 0x591 SWAP1 PUSH2 0x1CA5 JUMP JUMPDEST PUSH2 0x1090 DUP2 PUSH2 0x1696 JUMP JUMPDEST POP JUMP JUMPDEST CALLER SWAP1 JUMP JUMPDEST PUSH1 0x1 PUSH1 0x1 PUSH1 0xA0 SHL SUB DUP4 AND PUSH2 0x10BD JUMPI PUSH1 0x40 MLOAD PUSH3 0x461BCD PUSH1 0xE5 SHL DUP2 MSTORE PUSH1 0x4 ADD PUSH2 0x591 SWAP1 PUSH2 0x1A57 JUMP JUMPDEST PUSH1 0x1 PUSH1 0x1 PUSH1 0xA0 SHL SUB DUP3 AND PUSH2 0x10E3 JUMPI PUSH1 0x40 MLOAD PUSH3 0x461BCD PUSH1 0xE5 SHL DUP2 MSTORE PUSH1 0x4 ADD PUSH2 0x591 SWAP1 PUSH2 0x1E26 JUMP JUMPDEST PUSH1 0x1 PUSH1 0x1 PUSH1 0xA0 SHL SUB DUP1 DUP5 AND PUSH1 0x0 DUP2 DUP2 MSTORE PUSH1 0x2 PUSH1 0x20 SWAP1 DUP2 MSTORE PUSH1 0x40 DUP1 DUP4 KECCAK256 SWAP5 DUP8 AND DUP1 DUP5 MSTORE SWAP5 SWAP1 SWAP2 MSTORE SWAP1 DUP2 SWAP1 KECCAK256 DUP5 SWAP1 SSTORE MLOAD PUSH32 0x8C5BE1E5EBEC7D5BD14F71427D1E84F3DD0314C0F7B2291E5B200AC8C7C3B925 SWAP1 PUSH2 0x113E SWAP1 DUP6 SWAP1 PUSH2 0x1E83 JUMP JUMPDEST PUSH1 0x40 MLOAD DUP1 SWAP2 SUB SWAP1 LOG3 POP POP POP JUMP JUMPDEST PUSH1 0x0 DUP1 DUP6 PUSH1 0x1 PUSH1 0x1 PUSH1 0xA0 SHL SUB AND PUSH4 0x23B872DD DUP7 DUP7 DUP7 PUSH1 0x40 MLOAD PUSH1 0x24 ADD PUSH2 0x1172 SWAP4 SWAP3 SWAP2 SWAP1 PUSH2 0x1998 JUMP JUMPDEST PUSH1 0x40 MLOAD PUSH1 0x20 DUP2 DUP4 SUB SUB DUP2 MSTORE SWAP1 PUSH1 0x40 MSTORE SWAP1 PUSH1 0xE0 SHL PUSH1 0x20 DUP3 ADD DUP1 MLOAD PUSH28 0xFFFFFFFFFFFFFFFFFFFFFFFFFFFFFFFFFFFFFFFFFFFFFFFFFFFFFFFF DUP4 DUP2 DUP4 AND OR DUP4 MSTORE POP POP POP POP PUSH1 0x40 MLOAD PUSH2 0x11C0 SWAP2 SWAP1 PUSH2 0x1968 JUMP JUMPDEST PUSH1 0x0 PUSH1 0x40 MLOAD DUP1 DUP4 SUB DUP2 PUSH1 0x0 DUP7 GAS CALL SWAP2 POP POP RETURNDATASIZE DUP1 PUSH1 0x0 DUP2 EQ PUSH2 0x11FD JUMPI PUSH1 0x40 MLOAD SWAP2 POP PUSH1 0x1F NOT PUSH1 0x3F RETURNDATASIZE ADD AND DUP3 ADD PUSH1 0x40 MSTORE RETURNDATASIZE DUP3 MSTORE RETURNDATASIZE PUSH1 0x0 PUSH1 0x20 DUP5 ADD RETURNDATACOPY PUSH2 0x1202 JUMP JUMPDEST PUSH1 0x60 SWAP2 POP JUMPDEST POP SWAP2 POP SWAP2 POP DUP2 DUP1 ISZERO PUSH2 0x122C JUMPI POP DUP1 MLOAD ISZERO DUP1 PUSH2 0x122C JUMPI POP DUP1 DUP1 PUSH1 0x20 ADD SWAP1 MLOAD DUP2 ADD SWAP1 PUSH2 0x122C SWAP2 SWAP1 PUSH2 0x1819 JUMP JUMPDEST PUSH2 0x1248 JUMPI PUSH1 0x40 MLOAD PUSH3 0x461BCD PUSH1 0xE5 SHL DUP2 MSTORE PUSH1 0x4 ADD PUSH2 0x591 SWAP1 PUSH2 0x1DC9 JUMP JUMPDEST POP POP POP POP POP POP JUMP JUMPDEST PUSH1 0x0 DUP3 PUSH2 0x125F JUMPI POP PUSH1 0x0 PUSH2 0x560 JUMP JUMPDEST PUSH1 0x0 PUSH2 0x126B DUP4 DUP6 PUSH2 0x1EE0 JUMP JUMPDEST SWAP1 POP DUP3 PUSH2 0x1278 DUP6 DUP4 PUSH2 0x1EC0 JUMP JUMPDEST EQ PUSH2 0x1295 JUMPI PUSH1 0x40 MLOAD PUSH3 0x461BCD PUSH1 0xE5 SHL DUP2 MSTORE PUSH1 0x4 ADD PUSH2 0x591 SWAP1 PUSH2 0x1C11 JUMP JUMPDEST SWAP4 SWAP3 POP POP POP JUMP JUMPDEST PUSH1 0x1 PUSH1 0x1 PUSH1 0xA0 SHL SUB DUP3 AND PUSH2 0x12C2 JUMPI PUSH1 0x40 MLOAD PUSH3 0x461BCD PUSH1 0xE5 SHL DUP2 MSTORE PUSH1 0x4 ADD PUSH2 0x591 SWAP1 PUSH2 0x1D37 JUMP JUMPDEST PUSH2 0x12FF DUP2 PUSH1 0x40 MLOAD DUP1 PUSH1 0x60 ADD PUSH1 0x40 MSTORE DUP1 PUSH1 0x22 DUP2 MSTORE PUSH1 0x20 ADD PUSH2 0x200B PUSH1 0x22 SWAP2 CODECOPY PUSH1 0x1 PUSH1 0x1 PUSH1 0xA0 SHL SUB DUP6 AND PUSH1 0x0 SWAP1 DUP2 MSTORE PUSH1 0x1 PUSH1 0x20 MSTORE PUSH1 0x40 SWAP1 KECCAK256 SLOAD SWAP2 SWAP1 PUSH2 0x14AB JUMP JUMPDEST PUSH1 0x1 PUSH1 0x1 PUSH1 0xA0 SHL SUB DUP4 AND PUSH1 0x0 SWAP1 DUP2 MSTORE PUSH1 0x1 PUSH1 0x20 MSTORE PUSH1 0x40 SWAP1 KECCAK256 SSTORE PUSH1 0x3 SLOAD PUSH2 0x1325 SWAP1 DUP3 PUSH2 0x14E5 JUMP JUMPDEST PUSH1 0x3 SSTORE PUSH1 0x40 MLOAD PUSH1 0x0 SWAP1 PUSH1 0x1 PUSH1 0x1 PUSH1 0xA0 SHL SUB DUP5 AND SWAP1 PUSH32 0xDDF252AD1BE2C89B69C2B068FC378DAA952BA7F163C4A11628F55A4DF523B3EF SWAP1 PUSH2 0x1366 SWAP1 DUP6 SWAP1 PUSH2 0x1E83 JUMP JUMPDEST PUSH1 0x40 MLOAD DUP1 SWAP2 SUB SWAP1 LOG3 POP POP JUMP JUMPDEST PUSH1 0x0 DUP1 PUSH2 0x137F DUP4 DUP6 PUSH2 0x1EA8 JUMP JUMPDEST SWAP1 POP DUP4 DUP2 LT ISZERO PUSH2 0x1295 JUMPI PUSH1 0x40 MLOAD PUSH3 0x461BCD PUSH1 0xE5 SHL DUP2 MSTORE PUSH1 0x4 ADD PUSH2 0x591 SWAP1 PUSH2 0x1B46 JUMP JUMPDEST PUSH1 0x1 PUSH1 0x1 PUSH1 0xA0 SHL SUB DUP4 AND PUSH2 0x13C7 JUMPI PUSH1 0x40 MLOAD PUSH3 0x461BCD PUSH1 0xE5 SHL DUP2 MSTORE PUSH1 0x4 ADD PUSH2 0x591 SWAP1 PUSH2 0x19FA JUMP JUMPDEST PUSH1 0x1 PUSH1 0x1 PUSH1 0xA0 SHL SUB DUP3 AND PUSH2 0x13ED JUMPI PUSH1 0x40 MLOAD PUSH3 0x461BCD PUSH1 0xE5 SHL DUP2 MSTORE PUSH1 0x4 ADD PUSH2 0x591 SWAP1 PUSH2 0x1CDA JUMP JUMPDEST PUSH2 0x142A DUP2 PUSH1 0x40 MLOAD DUP1 PUSH1 0x60 ADD PUSH1 0x40 MSTORE DUP1 PUSH1 0x26 DUP2 MSTORE PUSH1 0x20 ADD PUSH2 0x1FC0 PUSH1 0x26 SWAP2 CODECOPY PUSH1 0x1 PUSH1 0x1 PUSH1 0xA0 SHL SUB DUP7 AND PUSH1 0x0 SWAP1 DUP2 MSTORE PUSH1 0x1 PUSH1 0x20 MSTORE PUSH1 0x40 SWAP1 KECCAK256 SLOAD SWAP2 SWAP1 PUSH2 0x14AB JUMP JUMPDEST PUSH1 0x1 PUSH1 0x1 PUSH1 0xA0 SHL SUB DUP1 DUP6 AND PUSH1 0x0 SWAP1 DUP2 MSTORE PUSH1 0x1 PUSH1 0x20 MSTORE PUSH1 0x40 DUP1 DUP3 KECCAK256 SWAP4 SWAP1 SWAP4 SSTORE SWAP1 DUP5 AND DUP2 MSTORE KECCAK256 SLOAD PUSH2 0x1459 SWAP1 DUP3 PUSH2 0x1372 JUMP JUMPDEST PUSH1 0x1 PUSH1 0x1 PUSH1 0xA0 SHL SUB DUP1 DUP5 AND PUSH1 0x0 DUP2 DUP2 MSTORE PUSH1 0x1 PUSH1 0x20 MSTORE PUSH1 0x40 SWAP1 DUP2 SWAP1 KECCAK256 SWAP4 SWAP1 SWAP4 SSTORE SWAP2 MLOAD SWAP1 DUP6 AND SWAP1 PUSH32 0xDDF252AD1BE2C89B69C2B068FC378DAA952BA7F163C4A11628F55A4DF523B3EF SWAP1 PUSH2 0x113E SWAP1 DUP6 SWAP1 PUSH2 0x1E83 JUMP JUMPDEST PUSH1 0x0 DUP2 DUP5 DUP5 GT ISZERO PUSH2 0x14CF JUMPI PUSH1 0x40 MLOAD PUSH3 0x461BCD PUSH1 0xE5 SHL DUP2 MSTORE PUSH1 0x4 ADD PUSH2 0x591 SWAP2 SWAP1 PUSH2 0x19C7 JUMP JUMPDEST POP PUSH1 0x0 PUSH2 0x14DC DUP5 DUP7 PUSH2 0x1EFF JUMP JUMPDEST SWAP6 SWAP5 POP POP POP POP POP JUMP JUMPDEST PUSH1 0x0 PUSH2 0x1295 DUP4 DUP4 PUSH1 0x40 MLOAD DUP1 PUSH1 0x40 ADD PUSH1 0x40 MSTORE DUP1 PUSH1 0x1E DUP2 MSTORE PUSH1 0x20 ADD PUSH32 0x536166654D6174683A207375627472616374696F6E206F766572666C6F770000 DUP2 MSTORE POP PUSH2 0x14AB JUMP JUMPDEST PUSH1 0x0 PUSH2 0x1295 DUP4 DUP4 PUSH1 0x40 MLOAD DUP1 PUSH1 0x40 ADD PUSH1 0x40 MSTORE DUP1 PUSH1 0x1A DUP2 MSTORE PUSH1 0x20 ADD PUSH32 0x536166654D6174683A206469766973696F6E206279207A65726F000000000000 DUP2 MSTORE POP PUSH2 0x1724 JUMP JUMPDEST PUSH1 0x1 PUSH1 0x1 PUSH1 0xA0 SHL SUB DUP3 AND PUSH2 0x158F JUMPI PUSH1 0x40 MLOAD PUSH3 0x461BCD PUSH1 0xE5 SHL DUP2 MSTORE PUSH1 0x4 ADD PUSH2 0x591 SWAP1 PUSH2 0x1C6E JUMP JUMPDEST PUSH1 0x3 SLOAD PUSH2 0x159C SWAP1 DUP3 PUSH2 0x1372 JUMP JUMPDEST PUSH1 0x3 SSTORE PUSH1 0x1 PUSH1 0x1 PUSH1 0xA0 SHL SUB DUP3 AND PUSH1 0x0 SWAP1 DUP2 MSTORE PUSH1 0x1 PUSH1 0x20 MSTORE PUSH1 0x40 SWAP1 KECCAK256 SLOAD PUSH2 0x15C2 SWAP1 DUP3 PUSH2 0x1372 JUMP JUMPDEST PUSH1 0x1 PUSH1 0x1 PUSH1 0xA0 SHL SUB DUP4 AND PUSH1 0x0 DUP2 DUP2 MSTORE PUSH1 0x1 PUSH1 0x20 MSTORE PUSH1 0x40 DUP1 DUP3 KECCAK256 SWAP4 SWAP1 SWAP4 SSTORE SWAP2 MLOAD SWAP1 SWAP2 SWAP1 PUSH32 0xDDF252AD1BE2C89B69C2B068FC378DAA952BA7F163C4A11628F55A4DF523B3EF SWAP1 PUSH2 0x1366 SWAP1 DUP6 SWAP1 PUSH2 0x1E83 JUMP JUMPDEST PUSH1 0x0 DUP2 DUP4 LT PUSH2 0x1620 JUMPI DUP2 PUSH2 0x1295 JUMP JUMPDEST POP SWAP1 SWAP2 SWAP1 POP JUMP JUMPDEST PUSH1 0x0 PUSH1 0x3 DUP3 GT ISZERO PUSH2 0x1688 JUMPI POP DUP1 PUSH1 0x0 PUSH2 0x1641 PUSH1 0x2 DUP4 PUSH2 0x1EC0 JUMP JUMPDEST PUSH2 0x164C SWAP1 PUSH1 0x1 PUSH2 0x1EA8 JUMP JUMPDEST SWAP1 POP JUMPDEST DUP2 DUP2 LT ISZERO PUSH2 0x1682 JUMPI SWAP1 POP DUP1 PUSH1 0x2 DUP2 PUSH2 0x1667 DUP2 DUP7 PUSH2 0x1EC0 JUMP JUMPDEST PUSH2 0x1671 SWAP2 SWAP1 PUSH2 0x1EA8 JUMP JUMPDEST PUSH2 0x167B SWAP2 SWAP1 PUSH2 0x1EC0 JUMP JUMPDEST SWAP1 POP PUSH2 0x164F JUMP JUMPDEST POP PUSH2 0xB2A JUMP JUMPDEST DUP2 ISZERO PUSH2 0xB2A JUMPI POP PUSH1 0x1 SWAP2 SWAP1 POP JUMP JUMPDEST PUSH1 0x1 PUSH1 0x1 PUSH1 0xA0 SHL SUB DUP2 AND PUSH2 0x16BC JUMPI PUSH1 0x40 MLOAD PUSH3 0x461BCD PUSH1 0xE5 SHL DUP2 MSTORE PUSH1 0x4 ADD PUSH2 0x591 SWAP1 PUSH2 0x1AB4 JUMP JUMPDEST PUSH1 0x0 DUP1 SLOAD PUSH1 0x40 MLOAD PUSH1 0x1 PUSH1 0x1 PUSH1 0xA0 SHL SUB DUP1 DUP6 AND SWAP4 SWAP3 AND SWAP2 PUSH32 0x8BE0079C531659141344CD1FD0A4F28419497F9722A3DAAFE3B4186F6B6457E0 SWAP2 LOG3 PUSH1 0x0 DUP1 SLOAD PUSH20 0xFFFFFFFFFFFFFFFFFFFFFFFFFFFFFFFFFFFFFFFF NOT AND PUSH1 0x1 PUSH1 0x1 PUSH1 0xA0 SHL SUB SWAP3 SWAP1 SWAP3 AND SWAP2 SWAP1 SWAP2 OR SWAP1 SSTORE JUMP JUMPDEST PUSH1 0x0 DUP2 DUP4 PUSH2 0x1745 JUMPI PUSH1 0x40 MLOAD PUSH3 0x461BCD PUSH1 0xE5 SHL DUP2 MSTORE PUSH1 0x4 ADD PUSH2 0x591 SWAP2 SWAP1 PUSH2 0x19C7 JUMP JUMPDEST POP PUSH1 0x0 PUSH2 0x14DC DUP5 DUP7 PUSH2 0x1EC0 JUMP JUMPDEST DUP1 CALLDATALOAD PUSH1 0x1 PUSH1 0x1 PUSH1 0xA0 SHL SUB DUP2 AND DUP2 EQ PUSH2 0xB2A JUMPI PUSH1 0x0 DUP1 REVERT JUMPDEST PUSH1 0x0 PUSH1 0x20 DUP3 DUP5 SUB SLT ISZERO PUSH2 0x177A JUMPI DUP1 DUP2 REVERT JUMPDEST PUSH2 0x1295 DUP3 PUSH2 0x1752 JUMP JUMPDEST PUSH1 0x0 DUP1 PUSH1 0x40 DUP4 DUP6 SUB SLT ISZERO PUSH2 0x1795 JUMPI DUP1 DUP2 REVERT JUMPDEST PUSH2 0x179E DUP4 PUSH2 0x1752 JUMP JUMPDEST SWAP2 POP PUSH2 0x17AC PUSH1 0x20 DUP5 ADD PUSH2 0x1752 JUMP JUMPDEST SWAP1 POP SWAP3 POP SWAP3 SWAP1 POP JUMP JUMPDEST PUSH1 0x0 DUP1 PUSH1 0x0 PUSH1 0x60 DUP5 DUP7 SUB SLT ISZERO PUSH2 0x17C9 JUMPI DUP1 DUP2 REVERT JUMPDEST PUSH2 0x17D2 DUP5 PUSH2 0x1752 JUMP JUMPDEST SWAP3 POP PUSH2 0x17E0 PUSH1 0x20 DUP6 ADD PUSH2 0x1752 JUMP JUMPDEST SWAP2 POP PUSH1 0x40 DUP5 ADD CALLDATALOAD SWAP1 POP SWAP3 POP SWAP3 POP SWAP3 JUMP JUMPDEST PUSH1 0x0 DUP1 PUSH1 0x40 DUP4 DUP6 SUB SLT ISZERO PUSH2 0x1802 JUMPI DUP2 DUP3 REVERT JUMPDEST PUSH2 0x180B DUP4 PUSH2 0x1752 JUMP JUMPDEST SWAP5 PUSH1 0x20 SWAP4 SWAP1 SWAP4 ADD CALLDATALOAD SWAP4 POP POP POP JUMP JUMPDEST PUSH1 0x0 PUSH1 0x20 DUP3 DUP5 SUB SLT ISZERO PUSH2 0x182A JUMPI DUP1 DUP2 REVERT JUMPDEST DUP2 MLOAD DUP1 ISZERO ISZERO DUP2 EQ PUSH2 0x1295 JUMPI DUP2 DUP3 REVERT JUMPDEST PUSH1 0x0 PUSH1 0x20 DUP3 DUP5 SUB SLT ISZERO PUSH2 0x184A JUMPI DUP1 DUP2 REVERT JUMPDEST POP CALLDATALOAD SWAP2 SWAP1 POP JUMP JUMPDEST PUSH1 0x0 PUSH1 0x20 DUP3 DUP5 SUB SLT ISZERO PUSH2 0x1862 JUMPI DUP1 DUP2 REVERT JUMPDEST POP MLOAD SWAP2 SWAP1 POP JUMP JUMPDEST PUSH1 0x0 DUP1 PUSH1 0x0 PUSH1 0x60 DUP5 DUP7 SUB SLT ISZERO PUSH2 0x187D JUMPI DUP3 DUP4 REVERT JUMPDEST DUP4 CALLDATALOAD SWAP3 POP PUSH2 0x188D PUSH1 0x20 DUP6 ADD PUSH2 0x1752 JUMP JUMPDEST SWAP2 POP PUSH2 0x189B PUSH1 0x40 DUP6 ADD PUSH2 0x1752 JUMP JUMPDEST SWAP1 POP SWAP3 POP SWAP3 POP SWAP3 JUMP JUMPDEST PUSH1 0x0 DUP1 PUSH1 0x0 PUSH1 0x60 DUP5 DUP7 SUB SLT ISZERO PUSH2 0x18B8 JUMPI DUP3 DUP4 REVERT JUMPDEST POP POP DUP2 CALLDATALOAD SWAP4 PUSH1 0x20 DUP4 ADD CALLDATALOAD SWAP4 POP PUSH1 0x40 SWAP1 SWAP3 ADD CALLDATALOAD SWAP2 SWAP1 POP JUMP JUMPDEST PUSH1 0x0 DUP1 PUSH1 0x0 DUP1 PUSH1 0x0 DUP1 PUSH1 0xC0 DUP8 DUP10 SUB SLT ISZERO PUSH2 0x18E7 JUMPI DUP2 DUP3 REVERT JUMPDEST DUP7 CALLDATALOAD SWAP6 POP PUSH1 0x20 DUP8 ADD CALLDATALOAD SWAP5 POP PUSH1 0x40 DUP8 ADD CALLDATALOAD SWAP4 POP PUSH1 0x60 DUP8 ADD CALLDATALOAD SWAP3 POP PUSH2 0x190C PUSH1 0x80 DUP9 ADD PUSH2 0x1752 JUMP JUMPDEST SWAP2 POP PUSH2 0x191A PUSH1 0xA0 DUP9 ADD PUSH2 0x1752 JUMP JUMPDEST SWAP1 POP SWAP3 SWAP6 POP SWAP3 SWAP6 POP SWAP3 SWAP6 JUMP JUMPDEST PUSH1 0x0 DUP1 PUSH1 0x0 DUP1 PUSH1 0x0 DUP1 PUSH1 0xC0 DUP8 DUP10 SUB SLT ISZERO PUSH2 0x193E JUMPI DUP2 DUP3 REVERT JUMPDEST POP POP DUP5 CALLDATALOAD SWAP7 PUSH1 0x20 DUP7 ADD CALLDATALOAD SWAP7 POP PUSH1 0x40 DUP7 ADD CALLDATALOAD SWAP6 PUSH1 0x60 DUP2 ADD CALLDATALOAD SWAP6 POP PUSH1 0x80 DUP2 ADD CALLDATALOAD SWAP5 POP PUSH1 0xA0 ADD CALLDATALOAD SWAP3 POP SWAP1 POP JUMP JUMPDEST PUSH1 0x0 DUP3 MLOAD PUSH2 0x197A DUP2 DUP5 PUSH1 0x20 DUP8 ADD PUSH2 0x1F16 JUMP JUMPDEST SWAP2 SWAP1 SWAP2 ADD SWAP3 SWAP2 POP POP JUMP JUMPDEST PUSH1 0x1 PUSH1 0x1 PUSH1 0xA0 SHL SUB SWAP2 SWAP1 SWAP2 AND DUP2 MSTORE PUSH1 0x20 ADD SWAP1 JUMP JUMPDEST PUSH1 0x1 PUSH1 0x1 PUSH1 0xA0 SHL SUB SWAP4 DUP5 AND DUP2 MSTORE SWAP2 SWAP1 SWAP3 AND PUSH1 0x20 DUP3 ADD MSTORE PUSH1 0x40 DUP2 ADD SWAP2 SWAP1 SWAP2 MSTORE PUSH1 0x60 ADD SWAP1 JUMP JUMPDEST SWAP1 ISZERO ISZERO DUP2 MSTORE PUSH1 0x20 ADD SWAP1 JUMP JUMPDEST PUSH1 0x0 PUSH1 0x20 DUP3 MSTORE DUP3 MLOAD DUP1 PUSH1 0x20 DUP5 ADD MSTORE PUSH2 0x19E6 DUP2 PUSH1 0x40 DUP6 ADD PUSH1 0x20 DUP8 ADD PUSH2 0x1F16 JUMP JUMPDEST PUSH1 0x1F ADD PUSH1 0x1F NOT AND SWAP2 SWAP1 SWAP2 ADD PUSH1 0x40 ADD SWAP3 SWAP2 POP POP JUMP JUMPDEST PUSH1 0x20 DUP1 DUP3 MSTORE PUSH1 0x25 SWAP1 DUP3 ADD MSTORE PUSH32 0x42455032303A207472616E736665722066726F6D20746865207A65726F206164 PUSH1 0x40 DUP3 ADD MSTORE PUSH32 0x6472657373000000000000000000000000000000000000000000000000000000 PUSH1 0x60 DUP3 ADD MSTORE PUSH1 0x80 ADD SWAP1 JUMP JUMPDEST PUSH1 0x20 DUP1 DUP3 MSTORE PUSH1 0x24 SWAP1 DUP3 ADD MSTORE PUSH32 0x42455032303A20617070726F76652066726F6D20746865207A65726F20616464 PUSH1 0x40 DUP3 ADD MSTORE PUSH32 0x7265737300000000000000000000000000000000000000000000000000000000 PUSH1 0x60 DUP3 ADD MSTORE PUSH1 0x80 ADD SWAP1 JUMP JUMPDEST PUSH1 0x20 DUP1 DUP3 MSTORE PUSH1 0x26 SWAP1 DUP3 ADD MSTORE PUSH32 0x4F776E61626C653A206E6577206F776E657220697320746865207A65726F2061 PUSH1 0x40 DUP3 ADD MSTORE PUSH32 0x6464726573730000000000000000000000000000000000000000000000000000 PUSH1 0x60 DUP3 ADD MSTORE PUSH1 0x80 ADD SWAP1 JUMP JUMPDEST PUSH1 0x20 DUP1 DUP3 MSTORE DUP2 DUP2 ADD MSTORE PUSH32 0x47726179626C6F636B3A20494E53554646494349454E545F425F414D4F554E54 PUSH1 0x40 DUP3 ADD MSTORE PUSH1 0x60 ADD SWAP1 JUMP JUMPDEST PUSH1 0x20 DUP1 DUP3 MSTORE PUSH1 0x1B SWAP1 DUP3 ADD MSTORE PUSH32 0x536166654D6174683A206164646974696F6E206F766572666C6F770000000000 PUSH1 0x40 DUP3 ADD MSTORE PUSH1 0x60 ADD SWAP1 JUMP JUMPDEST PUSH1 0x20 DUP1 DUP3 MSTORE PUSH1 0x36 SWAP1 DUP3 ADD MSTORE PUSH32 0x504F4F4C3A546865207573657220646964206E6F742070726F76696465207468 PUSH1 0x40 DUP3 ADD MSTORE PUSH32 0x617420616D6F756E74206F66206C697175696469747900000000000000000000 PUSH1 0x60 DUP3 ADD MSTORE PUSH1 0x80 ADD SWAP1 JUMP JUMPDEST PUSH1 0x20 DUP1 DUP3 MSTORE PUSH1 0x15 SWAP1 DUP3 ADD MSTORE PUSH32 0x77726F6E6720746F6B656E206F7220746F6B656E730000000000000000000000 PUSH1 0x40 DUP3 ADD MSTORE PUSH1 0x60 ADD SWAP1 JUMP JUMPDEST PUSH1 0x20 DUP1 DUP3 MSTORE PUSH1 0x21 SWAP1 DUP3 ADD MSTORE PUSH32 0x536166654D6174683A206D756C7469706C69636174696F6E206F766572666C6F PUSH1 0x40 DUP3 ADD MSTORE PUSH32 0x7700000000000000000000000000000000000000000000000000000000000000 PUSH1 0x60 DUP3 ADD MSTORE PUSH1 0x80 ADD SWAP1 JUMP JUMPDEST PUSH1 0x20 DUP1 DUP3 MSTORE PUSH1 0x1F SWAP1 DUP3 ADD MSTORE PUSH32 0x42455032303A206D696E7420746F20746865207A65726F206164647265737300 PUSH1 0x40 DUP3 ADD MSTORE PUSH1 0x60 ADD SWAP1 JUMP JUMPDEST PUSH1 0x20 DUP1 DUP3 MSTORE DUP2 DUP2 ADD MSTORE PUSH32 0x4F776E61626C653A2063616C6C6572206973206E6F7420746865206F776E6572 PUSH1 0x40 DUP3 ADD MSTORE PUSH1 0x60 ADD SWAP1 JUMP JUMPDEST PUSH1 0x20 DUP1 DUP3 MSTORE PUSH1 0x23 SWAP1 DUP3 ADD MSTORE PUSH32 0x42455032303A207472616E7366657220746F20746865207A65726F2061646472 PUSH1 0x40 DUP3 ADD MSTORE PUSH32 0x6573730000000000000000000000000000000000000000000000000000000000 PUSH1 0x60 DUP3 ADD MSTORE PUSH1 0x80 ADD SWAP1 JUMP JUMPDEST PUSH1 0x20 DUP1 DUP3 MSTORE PUSH1 0x21 SWAP1 DUP3 ADD MSTORE PUSH32 0x42455032303A206275726E2066726F6D20746865207A65726F20616464726573 PUSH1 0x40 DUP3 ADD MSTORE PUSH32 0x7300000000000000000000000000000000000000000000000000000000000000 PUSH1 0x60 DUP3 ADD MSTORE PUSH1 0x80 ADD SWAP1 JUMP JUMPDEST PUSH1 0x20 DUP1 DUP3 MSTORE DUP2 DUP2 ADD MSTORE PUSH32 0x47726179626C6F636B3A20494E53554646494349454E545F415F414D4F554E54 PUSH1 0x40 DUP3 ADD MSTORE PUSH1 0x60 ADD SWAP1 JUMP JUMPDEST PUSH1 0x20 DUP1 DUP3 MSTORE PUSH1 0x24 SWAP1 DUP3 ADD MSTORE PUSH32 0x5472616E7366657248656C7065723A205452414E534645525F46524F4D5F4641 PUSH1 0x40 DUP3 ADD MSTORE PUSH32 0x494C454400000000000000000000000000000000000000000000000000000000 PUSH1 0x60 DUP3 ADD MSTORE PUSH1 0x80 ADD SWAP1 JUMP JUMPDEST PUSH1 0x20 DUP1 DUP3 MSTORE PUSH1 0x22 SWAP1 DUP3 ADD MSTORE PUSH32 0x42455032303A20617070726F766520746F20746865207A65726F206164647265 PUSH1 0x40 DUP3 ADD MSTORE PUSH32 0x7373000000000000000000000000000000000000000000000000000000000000 PUSH1 0x60 DUP3 ADD MSTORE PUSH1 0x80 ADD SWAP1 JUMP JUMPDEST SWAP1 DUP2 MSTORE PUSH1 0x20 ADD SWAP1 JUMP JUMPDEST SWAP2 DUP3 MSTORE PUSH1 0x20 DUP3 ADD MSTORE PUSH1 0x40 ADD SWAP1 JUMP JUMPDEST PUSH1 0xFF SWAP2 SWAP1 SWAP2 AND DUP2 MSTORE PUSH1 0x20 ADD SWAP1 JUMP JUMPDEST PUSH1 0x0 DUP3 NOT DUP3 GT ISZERO PUSH2 0x1EBB JUMPI PUSH2 0x1EBB PUSH2 0x1F81 JUMP JUMPDEST POP ADD SWAP1 JUMP JUMPDEST PUSH1 0x0 DUP3 PUSH2 0x1EDB JUMPI PUSH4 0x4E487B71 PUSH1 0xE0 SHL DUP2 MSTORE PUSH1 0x12 PUSH1 0x4 MSTORE PUSH1 0x24 DUP2 REVERT JUMPDEST POP DIV SWAP1 JUMP JUMPDEST PUSH1 0x0 DUP2 PUSH1 0x0 NOT DIV DUP4 GT DUP3 ISZERO ISZERO AND ISZERO PUSH2 0x1EFA JUMPI PUSH2 0x1EFA PUSH2 0x1F81 JUMP JUMPDEST POP MUL SWAP1 JUMP JUMPDEST PUSH1 0x0 DUP3 DUP3 LT ISZERO PUSH2 0x1F11 JUMPI PUSH2 0x1F11 PUSH2 0x1F81 JUMP JUMPDEST POP SUB SWAP1 JUMP JUMPDEST PUSH1 0x0 JUMPDEST DUP4 DUP2 LT ISZERO PUSH2 0x1F31 JUMPI DUP2 DUP2 ADD MLOAD DUP4 DUP3 ADD MSTORE PUSH1 0x20 ADD PUSH2 0x1F19 JUMP JUMPDEST DUP4 DUP2 GT ISZERO PUSH2 0x1F40 JUMPI PUSH1 0x0 DUP5 DUP5 ADD MSTORE JUMPDEST POP POP POP POP JUMP JUMPDEST PUSH1 0x2 DUP2 DIV PUSH1 0x1 DUP3 AND DUP1 PUSH2 0x1F5A JUMPI PUSH1 0x7F DUP3 AND SWAP2 POP JUMPDEST PUSH1 0x20 DUP3 LT DUP2 EQ ISZERO PUSH2 0x1F7B JUMPI PUSH4 0x4E487B71 PUSH1 0xE0 SHL PUSH1 0x0 MSTORE PUSH1 0x22 PUSH1 0x4 MSTORE PUSH1 0x24 PUSH1 0x0 REVERT JUMPDEST POP SWAP2 SWAP1 POP JUMP JUMPDEST PUSH4 0x4E487B71 PUSH1 0xE0 SHL PUSH1 0x0 MSTORE PUSH1 0x11 PUSH1 0x4 MSTORE PUSH1 0x24 PUSH1 0x0 REVERT INVALID TIMESTAMP GASLIMIT POP ORIGIN ADDRESS GASPRICE KECCAK256 PUSH21 0x72616E7366657220616D6F756E7420657863656564 PUSH20 0x20616C6C6F77616E636542455032303A20747261 PUSH15 0x7366657220616D6F756E7420657863 PUSH6 0x656473206261 PUSH13 0x616E636542455032303A206465 PUSH4 0x72656173 PUSH6 0x6420616C6C6F PUSH24 0x616E63652062656C6F77207A65726F42455032303A206275 PUSH19 0x6E20616D6F756E742065786365656473206261 PUSH13 0x616E6365A26469706673582212 KECCAK256 0xB2 MLOAD 0xD1 0xEA 0xCC 0xEC EXTCODESIZE 0xF6 0xEC MULMOD SWAP3 0xAA 0xEE 0x21 SMOD MULMOD EXTCODESIZE CHAINID SWAP3 MLOAD 0x48 0xAD PUSH7 0x6D26528AA5474C 0x2C 0x21 PUSH5 0x736F6C6343 STOP ADDMOD STOP STOP CALLER "
        },
        "methodIdentifiers": {
          "MINIMUM_LIQUIDITY()": "ba9a7a56",
          "admins(address)": "429b62e5",
          "allowance(address,address)": "dd62ed3e",
          "approve(address,uint256)": "095ea7b3",
          "balanceOf(address)": "70a08231",
          "decimals()": "313ce567",
          "decreaseAllowance(address,uint256)": "a457c2d7",
          "depositLiquidity(uint256,uint256,uint256,uint256,address,address)": "a0c31c5c",
          "getAmountsOut(uint256,address,address)": "baf7fa99",
          "getOwner()": "893d20e8",
          "getRatio(uint256,uint256,uint256,uint256,uint256,uint256)": "552d260d",
          "increaseAllowance(address,uint256)": "39509351",
          "liquidity(address)": "b8c876b1",
          "mint(uint256)": "a0712d68",
          "name()": "06fdde03",
          "owner()": "8da5cb5b",
          "price(uint256,uint256,uint256)": "2071a9f4",
          "renounceOwnership()": "715018a6",
          "swap(uint256,address,address)": "2b7f0923",
          "symbol()": "95d89b41",
          "totalLiquidity()": "15770f92",
          "totalSupply()": "18160ddd",
          "transfer(address,uint256)": "a9059cbb",
          "transferFrom(address,address,uint256)": "23b872dd",
          "transferOwnership(address)": "f2fde38b",
          "withdrawLiquidity(uint256)": "0a861f2a"
        }
      }
    }
  }
}