{
  "contracts/IDO_basedon_Openzeppelin/mocks/SafeCastMock.sol": {
    "SafeCastMock": {
      "abi": [
        {
          "constant": true,
          "inputs": [
            {
              "internalType": "uint256",
              "name": "a",
              "type": "uint256"
            }
          ],
          "name": "toUint128",
          "outputs": [
            {
              "internalType": "uint128",
              "name": "",
              "type": "uint128"
            }
          ],
          "payable": false,
          "stateMutability": "pure",
          "type": "function"
        },
        {
          "constant": true,
          "inputs": [
            {
              "internalType": "uint256",
              "name": "a",
              "type": "uint256"
            }
          ],
          "name": "toUint16",
          "outputs": [
            {
              "internalType": "uint16",
              "name": "",
              "type": "uint16"
            }
          ],
          "payable": false,
          "stateMutability": "pure",
          "type": "function"
        },
        {
          "constant": true,
          "inputs": [
            {
              "internalType": "uint256",
              "name": "a",
              "type": "uint256"
            }
          ],
          "name": "toUint32",
          "outputs": [
            {
              "internalType": "uint32",
              "name": "",
              "type": "uint32"
            }
          ],
          "payable": false,
          "stateMutability": "pure",
          "type": "function"
        },
        {
          "constant": true,
          "inputs": [
            {
              "internalType": "uint256",
              "name": "a",
              "type": "uint256"
            }
          ],
          "name": "toUint64",
          "outputs": [
            {
              "internalType": "uint64",
              "name": "",
              "type": "uint64"
            }
          ],
          "payable": false,
          "stateMutability": "pure",
          "type": "function"
        },
        {
          "constant": true,
          "inputs": [
            {
              "internalType": "uint256",
              "name": "a",
              "type": "uint256"
            }
          ],
          "name": "toUint8",
          "outputs": [
            {
              "internalType": "uint8",
              "name": "",
              "type": "uint8"
            }
          ],
          "payable": false,
          "stateMutability": "pure",
          "type": "function"
        }
      ],
      "evm": {
        "bytecode": {
          "linkReferences": {},
          "object": "608060405234801561001057600080fd5b5061041d806100206000396000f3fe608060405234801561001057600080fd5b50600436106100675760003560e01c8063809fdd3311610050578063809fdd33146100d95780639374068f1461011b578063c81932551461014f57610067565b80630cc4681e1461006c5780632665fad01461009f575b600080fd5b6100896004803603602081101561008257600080fd5b5035610185565b6040805160ff9092168252519081900360200190f35b6100bc600480360360208110156100b557600080fd5b5035610196565b6040805167ffffffffffffffff9092168252519081900360200190f35b6100f6600480360360208110156100ef57600080fd5b50356101a1565b604080516fffffffffffffffffffffffffffffffff9092168252519081900360200190f35b6101386004803603602081101561013157600080fd5b50356101ac565b6040805161ffff9092168252519081900360200190f35b61016c6004803603602081101561016557600080fd5b50356101b7565b6040805163ffffffff9092168252519081900360200190f35b6000610190826101c2565b92915050565b600061019082610208565b600061019082610251565b6000610190826102a2565b6000610190826102e5565b600061010082106102045760405162461bcd60e51b81526004018080602001828103825260258152602001806103516025913960400191505060405180910390fd5b5090565b60006801000000000000000082106102045760405162461bcd60e51b815260040180806020018281038252602681526020018061039d6026913960400191505060405180910390fd5b600070010000000000000000000000000000000082106102045760405162461bcd60e51b81526004018080602001828103825260278152602001806103766027913960400191505060405180910390fd5b60006201000082106102045760405162461bcd60e51b815260040180806020018281038252602681526020018061032b6026913960400191505060405180910390fd5b600064010000000082106102045760405162461bcd60e51b81526004018080602001828103825260268152602001806103c36026913960400191505060405180910390fdfe53616665436173743a2076616c756520646f65736e27742066697420696e203136206269747353616665436173743a2076616c756520646f65736e27742066697420696e2038206269747353616665436173743a2076616c756520646f65736e27742066697420696e20313238206269747353616665436173743a2076616c756520646f65736e27742066697420696e203634206269747353616665436173743a2076616c756520646f65736e27742066697420696e2033322062697473a265627a7a723158200494f19e9ab8b63f7fcd24c826675d01444be7d3f4e09f715abf02630fb6a97d64736f6c63430005100032",
          "opcodes": "PUSH1 0x80 PUSH1 0x40 MSTORE CALLVALUE DUP1 ISZERO PUSH2 0x10 JUMPI PUSH1 0x0 DUP1 REVERT JUMPDEST POP PUSH2 0x41D DUP1 PUSH2 0x20 PUSH1 0x0 CODECOPY PUSH1 0x0 RETURN INVALID PUSH1 0x80 PUSH1 0x40 MSTORE CALLVALUE DUP1 ISZERO PUSH2 0x10 JUMPI PUSH1 0x0 DUP1 REVERT JUMPDEST POP PUSH1 0x4 CALLDATASIZE LT PUSH2 0x67 JUMPI PUSH1 0x0 CALLDATALOAD PUSH1 0xE0 SHR DUP1 PUSH4 0x809FDD33 GT PUSH2 0x50 JUMPI DUP1 PUSH4 0x809FDD33 EQ PUSH2 0xD9 JUMPI DUP1 PUSH4 0x9374068F EQ PUSH2 0x11B JUMPI DUP1 PUSH4 0xC8193255 EQ PUSH2 0x14F JUMPI PUSH2 0x67 JUMP JUMPDEST DUP1 PUSH4 0xCC4681E EQ PUSH2 0x6C JUMPI DUP1 PUSH4 0x2665FAD0 EQ PUSH2 0x9F JUMPI JUMPDEST PUSH1 0x0 DUP1 REVERT JUMPDEST PUSH2 0x89 PUSH1 0x4 DUP1 CALLDATASIZE SUB PUSH1 0x20 DUP2 LT ISZERO PUSH2 0x82 JUMPI PUSH1 0x0 DUP1 REVERT JUMPDEST POP CALLDATALOAD PUSH2 0x185 JUMP JUMPDEST PUSH1 0x40 DUP1 MLOAD PUSH1 0xFF SWAP1 SWAP3 AND DUP3 MSTORE MLOAD SWAP1 DUP2 SWAP1 SUB PUSH1 0x20 ADD SWAP1 RETURN JUMPDEST PUSH2 0xBC PUSH1 0x4 DUP1 CALLDATASIZE SUB PUSH1 0x20 DUP2 LT ISZERO PUSH2 0xB5 JUMPI PUSH1 0x0 DUP1 REVERT JUMPDEST POP CALLDATALOAD PUSH2 0x196 JUMP JUMPDEST PUSH1 0x40 DUP1 MLOAD PUSH8 0xFFFFFFFFFFFFFFFF SWAP1 SWAP3 AND DUP3 MSTORE MLOAD SWAP1 DUP2 SWAP1 SUB PUSH1 0x20 ADD SWAP1 RETURN JUMPDEST PUSH2 0xF6 PUSH1 0x4 DUP1 CALLDATASIZE SUB PUSH1 0x20 DUP2 LT ISZERO PUSH2 0xEF JUMPI PUSH1 0x0 DUP1 REVERT JUMPDEST POP CALLDATALOAD PUSH2 0x1A1 JUMP JUMPDEST PUSH1 0x40 DUP1 MLOAD PUSH16 0xFFFFFFFFFFFFFFFFFFFFFFFFFFFFFFFF SWAP1 SWAP3 AND DUP3 MSTORE MLOAD SWAP1 DUP2 SWAP1 SUB PUSH1 0x20 ADD SWAP1 RETURN JUMPDEST PUSH2 0x138 PUSH1 0x4 DUP1 CALLDATASIZE SUB PUSH1 0x20 DUP2 LT ISZERO PUSH2 0x131 JUMPI PUSH1 0x0 DUP1 REVERT JUMPDEST POP CALLDATALOAD PUSH2 0x1AC JUMP JUMPDEST PUSH1 0x40 DUP1 MLOAD PUSH2 0xFFFF SWAP1 SWAP3 AND DUP3 MSTORE MLOAD SWAP1 DUP2 SWAP1 SUB PUSH1 0x20 ADD SWAP1 RETURN JUMPDEST PUSH2 0x16C PUSH1 0x4 DUP1 CALLDATASIZE SUB PUSH1 0x20 DUP2 LT ISZERO PUSH2 0x165 JUMPI PUSH1 0x0 DUP1 REVERT JUMPDEST POP CALLDATALOAD PUSH2 0x1B7 JUMP JUMPDEST PUSH1 0x40 DUP1 MLOAD PUSH4 0xFFFFFFFF SWAP1 SWAP3 AND DUP3 MSTORE MLOAD SWAP1 DUP2 SWAP1 SUB PUSH1 0x20 ADD SWAP1 RETURN JUMPDEST PUSH1 0x0 PUSH2 0x190 DUP3 PUSH2 0x1C2 JUMP JUMPDEST SWAP3 SWAP2 POP POP JUMP JUMPDEST PUSH1 0x0 PUSH2 0x190 DUP3 PUSH2 0x208 JUMP JUMPDEST PUSH1 0x0 PUSH2 0x190 DUP3 PUSH2 0x251 JUMP JUMPDEST PUSH1 0x0 PUSH2 0x190 DUP3 PUSH2 0x2A2 JUMP JUMPDEST PUSH1 0x0 PUSH2 0x190 DUP3 PUSH2 0x2E5 JUMP JUMPDEST PUSH1 0x0 PUSH2 0x100 DUP3 LT PUSH2 0x204 JUMPI PUSH1 0x40 MLOAD PUSH3 0x461BCD PUSH1 0xE5 SHL DUP2 MSTORE PUSH1 0x4 ADD DUP1 DUP1 PUSH1 0x20 ADD DUP3 DUP2 SUB DUP3 MSTORE PUSH1 0x25 DUP2 MSTORE PUSH1 0x20 ADD DUP1 PUSH2 0x351 PUSH1 0x25 SWAP2 CODECOPY PUSH1 0x40 ADD SWAP2 POP POP PUSH1 0x40 MLOAD DUP1 SWAP2 SUB SWAP1 REVERT JUMPDEST POP SWAP1 JUMP JUMPDEST PUSH1 0x0 PUSH9 0x10000000000000000 DUP3 LT PUSH2 0x204 JUMPI PUSH1 0x40 MLOAD PUSH3 0x461BCD PUSH1 0xE5 SHL DUP2 MSTORE PUSH1 0x4 ADD DUP1 DUP1 PUSH1 0x20 ADD DUP3 DUP2 SUB DUP3 MSTORE PUSH1 0x26 DUP2 MSTORE PUSH1 0x20 ADD DUP1 PUSH2 0x39D PUSH1 0x26 SWAP2 CODECOPY PUSH1 0x40 ADD SWAP2 POP POP PUSH1 0x40 MLOAD DUP1 SWAP2 SUB SWAP1 REVERT JUMPDEST PUSH1 0x0 PUSH17 0x100000000000000000000000000000000 DUP3 LT PUSH2 0x204 JUMPI PUSH1 0x40 MLOAD PUSH3 0x461BCD PUSH1 0xE5 SHL DUP2 MSTORE PUSH1 0x4 ADD DUP1 DUP1 PUSH1 0x20 ADD DUP3 DUP2 SUB DUP3 MSTORE PUSH1 0x27 DUP2 MSTORE PUSH1 0x20 ADD DUP1 PUSH2 0x376 PUSH1 0x27 SWAP2 CODECOPY PUSH1 0x40 ADD SWAP2 POP POP PUSH1 0x40 MLOAD DUP1 SWAP2 SUB SWAP1 REVERT JUMPDEST PUSH1 0x0 PUSH3 0x10000 DUP3 LT PUSH2 0x204 JUMPI PUSH1 0x40 MLOAD PUSH3 0x461BCD PUSH1 0xE5 SHL DUP2 MSTORE PUSH1 0x4 ADD DUP1 DUP1 PUSH1 0x20 ADD DUP3 DUP2 SUB DUP3 MSTORE PUSH1 0x26 DUP2 MSTORE PUSH1 0x20 ADD DUP1 PUSH2 0x32B PUSH1 0x26 SWAP2 CODECOPY PUSH1 0x40 ADD SWAP2 POP POP PUSH1 0x40 MLOAD DUP1 SWAP2 SUB SWAP1 REVERT JUMPDEST PUSH1 0x0 PUSH5 0x100000000 DUP3 LT PUSH2 0x204 JUMPI PUSH1 0x40 MLOAD PUSH3 0x461BCD PUSH1 0xE5 SHL DUP2 MSTORE PUSH1 0x4 ADD DUP1 DUP1 PUSH1 0x20 ADD DUP3 DUP2 SUB DUP3 MSTORE PUSH1 0x26 DUP2 MSTORE PUSH1 0x20 ADD DUP1 PUSH2 0x3C3 PUSH1 0x26 SWAP2 CODECOPY PUSH1 0x40 ADD SWAP2 POP POP PUSH1 0x40 MLOAD DUP1 SWAP2 SUB SWAP1 REVERT INVALID MSTORE8 PUSH2 0x6665 NUMBER PUSH2 0x7374 GASPRICE KECCAK256 PUSH23 0x616C756520646F65736E27742066697420696E20313620 PUSH3 0x697473 MSTORE8 PUSH2 0x6665 NUMBER PUSH2 0x7374 GASPRICE KECCAK256 PUSH23 0x616C756520646F65736E27742066697420696E20382062 PUSH10 0x74735361666543617374 GASPRICE KECCAK256 PUSH23 0x616C756520646F65736E27742066697420696E20313238 KECCAK256 PUSH3 0x697473 MSTORE8 PUSH2 0x6665 NUMBER PUSH2 0x7374 GASPRICE KECCAK256 PUSH23 0x616C756520646F65736E27742066697420696E20363420 PUSH3 0x697473 MSTORE8 PUSH2 0x6665 NUMBER PUSH2 0x7374 GASPRICE KECCAK256 PUSH23 0x616C756520646F65736E27742066697420696E20333220 PUSH3 0x697473 LOG2 PUSH6 0x627A7A723158 KECCAK256 DIV SWAP5 CALL SWAP15 SWAP11 0xB8 0xB6 EXTCODEHASH PUSH32 0xCD24C826675D01444BE7D3F4E09F715ABF02630FB6A97D64736F6C6343000510 STOP ORIGIN "
        },
        "methodIdentifiers": {
          "toUint128(uint256)": "809fdd33",
          "toUint16(uint256)": "9374068f",
          "toUint32(uint256)": "c8193255",
          "toUint64(uint256)": "2665fad0",
          "toUint8(uint256)": "0cc4681e"
        }
      }
    }
  }
}