{
  "contracts/IDO_basedon_Openzeppelin/mocks/EnumerableSetMock.sol": {
    "EnumerableSetMock": {
      "abi": [
        {
          "anonymous": false,
          "inputs": [
            {
              "indexed": false,
              "internalType": "bool",
              "name": "result",
              "type": "bool"
            }
          ],
          "name": "TransactionResult",
          "type": "event"
        },
        {
          "constant": false,
          "inputs": [
            {
              "internalType": "address",
              "name": "value",
              "type": "address"
            }
          ],
          "name": "add",
          "outputs": [],
          "payable": false,
          "stateMutability": "nonpayable",
          "type": "function"
        },
        {
          "constant": true,
          "inputs": [
            {
              "internalType": "address",
              "name": "value",
              "type": "address"
            }
          ],
          "name": "contains",
          "outputs": [
            {
              "internalType": "bool",
              "name": "",
              "type": "bool"
            }
          ],
          "payable": false,
          "stateMutability": "view",
          "type": "function"
        },
        {
          "constant": true,
          "inputs": [],
          "name": "enumerate",
          "outputs": [
            {
              "internalType": "address[]",
              "name": "",
              "type": "address[]"
            }
          ],
          "payable": false,
          "stateMutability": "view",
          "type": "function"
        },
        {
          "constant": true,
          "inputs": [
            {
              "internalType": "uint256",
              "name": "index",
              "type": "uint256"
            }
          ],
          "name": "get",
          "outputs": [
            {
              "internalType": "address",
              "name": "",
              "type": "address"
            }
          ],
          "payable": false,
          "stateMutability": "view",
          "type": "function"
        },
        {
          "constant": true,
          "inputs": [],
          "name": "length",
          "outputs": [
            {
              "internalType": "uint256",
              "name": "",
              "type": "uint256"
            }
          ],
          "payable": false,
          "stateMutability": "view",
          "type": "function"
        },
        {
          "constant": false,
          "inputs": [
            {
              "internalType": "address",
              "name": "value",
              "type": "address"
            }
          ],
          "name": "remove",
          "outputs": [],
          "payable": false,
          "stateMutability": "nonpayable",
          "type": "function"
        }
      ],
      "evm": {
        "bytecode": {
          "linkReferences": {},
          "object": "608060405234801561001057600080fd5b50610512806100206000396000f3fe608060405234801561001057600080fd5b50600436106100725760003560e01c80635dbe47e8116100505780635dbe47e8146100df5780639507d39a14610119578063ff9f78b31461015257610072565b80630a3b0a4f146100775780631f7b6d321461009f57806329092d0e146100b9575b600080fd5b61009d6004803603602081101561008d57600080fd5b50356001600160a01b03166101aa565b005b6100a76101f9565b60408051918252519081900360200190f35b61009d600480360360208110156100cf57600080fd5b50356001600160a01b031661020a565b610105600480360360208110156100f557600080fd5b50356001600160a01b031661021c565b604080519115158252519081900360200190f35b6101366004803603602081101561012f57600080fd5b5035610234565b604080516001600160a01b039092168252519081900360200190f35b61015a610246565b60408051602080825283518183015283519192839290830191858101910280838360005b8381101561019657818101518382015260200161017e565b505050509050019250505060405180910390f35b60006101bc818363ffffffff61025216565b60408051821515815290519192507f5f2d66b608a7b4bfa43b7e9ba385022741152c97499b8a8abcd5c27258417b5a919081900360200190a15050565b600061020560006102c0565b905090565b60006101bc818363ffffffff6102c716565b600061022e818363ffffffff6103ec16565b92915050565b600061022e818363ffffffff61040a16565b60606102056000610437565b600061025e83836103ec565b6102b757506001828101805480830180835560009283526020808420909201805473ffffffffffffffffffffffffffffffffffffffff19166001600160a01b03871690811790915583529085905260409091205561022e565b50600092915050565b6001015490565b60006102d383836103ec565b156102b7576001600160a01b0382166000908152602084905260409020546001840154600019918201910180821461038b57600085600101828154811061031657fe5b6000918252602090912001546001870180546001600160a01b03909216925082918590811061034157fe5b6000918252602080832091909101805473ffffffffffffffffffffffffffffffffffffffff19166001600160a01b0394851617905592909116815290869052604090206001830190555b6001600160a01b038416600090815260208690526040812055600185018054806103b157fe5b6000828152602090208101600019908101805473ffffffffffffffffffffffffffffffffffffffff19169055019055506001915061022e9050565b6001600160a01b031660009081526020919091526040902054151590565b600082600101828154811061041b57fe5b6000918252602090912001546001600160a01b03169392505050565b606080826001018054905060405190808252806020026020018201604052801561046b578160200160208202803883390190505b50905060005b60018401548110156104d65783600101818154811061048c57fe5b9060005260206000200160009054906101000a90046001600160a01b03168282815181106104b657fe5b6001600160a01b0390921660209283029190910190910152600101610471565b509291505056fea265627a7a72315820d951c72b742833d832bbc3c0f73ff927e400a3db049bff9e074178981c94dd2c64736f6c63430005100032",
          "opcodes": "PUSH1 0x80 PUSH1 0x40 MSTORE CALLVALUE DUP1 ISZERO PUSH2 0x10 JUMPI PUSH1 0x0 DUP1 REVERT JUMPDEST POP PUSH2 0x512 DUP1 PUSH2 0x20 PUSH1 0x0 CODECOPY PUSH1 0x0 RETURN INVALID PUSH1 0x80 PUSH1 0x40 MSTORE CALLVALUE DUP1 ISZERO PUSH2 0x10 JUMPI PUSH1 0x0 DUP1 REVERT JUMPDEST POP PUSH1 0x4 CALLDATASIZE LT PUSH2 0x72 JUMPI PUSH1 0x0 CALLDATALOAD PUSH1 0xE0 SHR DUP1 PUSH4 0x5DBE47E8 GT PUSH2 0x50 JUMPI DUP1 PUSH4 0x5DBE47E8 EQ PUSH2 0xDF JUMPI DUP1 PUSH4 0x9507D39A EQ PUSH2 0x119 JUMPI DUP1 PUSH4 0xFF9F78B3 EQ PUSH2 0x152 JUMPI PUSH2 0x72 JUMP JUMPDEST DUP1 PUSH4 0xA3B0A4F EQ PUSH2 0x77 JUMPI DUP1 PUSH4 0x1F7B6D32 EQ PUSH2 0x9F JUMPI DUP1 PUSH4 0x29092D0E EQ PUSH2 0xB9 JUMPI JUMPDEST PUSH1 0x0 DUP1 REVERT JUMPDEST PUSH2 0x9D PUSH1 0x4 DUP1 CALLDATASIZE SUB PUSH1 0x20 DUP2 LT ISZERO PUSH2 0x8D JUMPI PUSH1 0x0 DUP1 REVERT JUMPDEST POP CALLDATALOAD PUSH1 0x1 PUSH1 0x1 PUSH1 0xA0 SHL SUB AND PUSH2 0x1AA JUMP JUMPDEST STOP JUMPDEST PUSH2 0xA7 PUSH2 0x1F9 JUMP JUMPDEST PUSH1 0x40 DUP1 MLOAD SWAP2 DUP3 MSTORE MLOAD SWAP1 DUP2 SWAP1 SUB PUSH1 0x20 ADD SWAP1 RETURN JUMPDEST PUSH2 0x9D PUSH1 0x4 DUP1 CALLDATASIZE SUB PUSH1 0x20 DUP2 LT ISZERO PUSH2 0xCF JUMPI PUSH1 0x0 DUP1 REVERT JUMPDEST POP CALLDATALOAD PUSH1 0x1 PUSH1 0x1 PUSH1 0xA0 SHL SUB AND PUSH2 0x20A JUMP JUMPDEST PUSH2 0x105 PUSH1 0x4 DUP1 CALLDATASIZE SUB PUSH1 0x20 DUP2 LT ISZERO PUSH2 0xF5 JUMPI PUSH1 0x0 DUP1 REVERT JUMPDEST POP CALLDATALOAD PUSH1 0x1 PUSH1 0x1 PUSH1 0xA0 SHL SUB AND PUSH2 0x21C JUMP JUMPDEST PUSH1 0x40 DUP1 MLOAD SWAP2 ISZERO ISZERO DUP3 MSTORE MLOAD SWAP1 DUP2 SWAP1 SUB PUSH1 0x20 ADD SWAP1 RETURN JUMPDEST PUSH2 0x136 PUSH1 0x4 DUP1 CALLDATASIZE SUB PUSH1 0x20 DUP2 LT ISZERO PUSH2 0x12F JUMPI PUSH1 0x0 DUP1 REVERT JUMPDEST POP CALLDATALOAD PUSH2 0x234 JUMP JUMPDEST PUSH1 0x40 DUP1 MLOAD PUSH1 0x1 PUSH1 0x1 PUSH1 0xA0 SHL SUB SWAP1 SWAP3 AND DUP3 MSTORE MLOAD SWAP1 DUP2 SWAP1 SUB PUSH1 0x20 ADD SWAP1 RETURN JUMPDEST PUSH2 0x15A PUSH2 0x246 JUMP JUMPDEST PUSH1 0x40 DUP1 MLOAD PUSH1 0x20 DUP1 DUP3 MSTORE DUP4 MLOAD DUP2 DUP4 ADD MSTORE DUP4 MLOAD SWAP2 SWAP3 DUP4 SWAP3 SWAP1 DUP4 ADD SWAP2 DUP6 DUP2 ADD SWAP2 MUL DUP1 DUP4 DUP4 PUSH1 0x0 JUMPDEST DUP4 DUP2 LT ISZERO PUSH2 0x196 JUMPI DUP2 DUP2 ADD MLOAD DUP4 DUP3 ADD MSTORE PUSH1 0x20 ADD PUSH2 0x17E JUMP JUMPDEST POP POP POP POP SWAP1 POP ADD SWAP3 POP POP POP PUSH1 0x40 MLOAD DUP1 SWAP2 SUB SWAP1 RETURN JUMPDEST PUSH1 0x0 PUSH2 0x1BC DUP2 DUP4 PUSH4 0xFFFFFFFF PUSH2 0x252 AND JUMP JUMPDEST PUSH1 0x40 DUP1 MLOAD DUP3 ISZERO ISZERO DUP2 MSTORE SWAP1 MLOAD SWAP2 SWAP3 POP PUSH32 0x5F2D66B608A7B4BFA43B7E9BA385022741152C97499B8A8ABCD5C27258417B5A SWAP2 SWAP1 DUP2 SWAP1 SUB PUSH1 0x20 ADD SWAP1 LOG1 POP POP JUMP JUMPDEST PUSH1 0x0 PUSH2 0x205 PUSH1 0x0 PUSH2 0x2C0 JUMP JUMPDEST SWAP1 POP SWAP1 JUMP JUMPDEST PUSH1 0x0 PUSH2 0x1BC DUP2 DUP4 PUSH4 0xFFFFFFFF PUSH2 0x2C7 AND JUMP JUMPDEST PUSH1 0x0 PUSH2 0x22E DUP2 DUP4 PUSH4 0xFFFFFFFF PUSH2 0x3EC AND JUMP JUMPDEST SWAP3 SWAP2 POP POP JUMP JUMPDEST PUSH1 0x0 PUSH2 0x22E DUP2 DUP4 PUSH4 0xFFFFFFFF PUSH2 0x40A AND JUMP JUMPDEST PUSH1 0x60 PUSH2 0x205 PUSH1 0x0 PUSH2 0x437 JUMP JUMPDEST PUSH1 0x0 PUSH2 0x25E DUP4 DUP4 PUSH2 0x3EC JUMP JUMPDEST PUSH2 0x2B7 JUMPI POP PUSH1 0x1 DUP3 DUP2 ADD DUP1 SLOAD DUP1 DUP4 ADD DUP1 DUP4 SSTORE PUSH1 0x0 SWAP3 DUP4 MSTORE PUSH1 0x20 DUP1 DUP5 KECCAK256 SWAP1 SWAP3 ADD DUP1 SLOAD PUSH20 0xFFFFFFFFFFFFFFFFFFFFFFFFFFFFFFFFFFFFFFFF NOT AND PUSH1 0x1 PUSH1 0x1 PUSH1 0xA0 SHL SUB DUP8 AND SWAP1 DUP2 OR SWAP1 SWAP2 SSTORE DUP4 MSTORE SWAP1 DUP6 SWAP1 MSTORE PUSH1 0x40 SWAP1 SWAP2 KECCAK256 SSTORE PUSH2 0x22E JUMP JUMPDEST POP PUSH1 0x0 SWAP3 SWAP2 POP POP JUMP JUMPDEST PUSH1 0x1 ADD SLOAD SWAP1 JUMP JUMPDEST PUSH1 0x0 PUSH2 0x2D3 DUP4 DUP4 PUSH2 0x3EC JUMP JUMPDEST ISZERO PUSH2 0x2B7 JUMPI PUSH1 0x1 PUSH1 0x1 PUSH1 0xA0 SHL SUB DUP3 AND PUSH1 0x0 SWAP1 DUP2 MSTORE PUSH1 0x20 DUP5 SWAP1 MSTORE PUSH1 0x40 SWAP1 KECCAK256 SLOAD PUSH1 0x1 DUP5 ADD SLOAD PUSH1 0x0 NOT SWAP2 DUP3 ADD SWAP2 ADD DUP1 DUP3 EQ PUSH2 0x38B JUMPI PUSH1 0x0 DUP6 PUSH1 0x1 ADD DUP3 DUP2 SLOAD DUP2 LT PUSH2 0x316 JUMPI INVALID JUMPDEST PUSH1 0x0 SWAP2 DUP3 MSTORE PUSH1 0x20 SWAP1 SWAP2 KECCAK256 ADD SLOAD PUSH1 0x1 DUP8 ADD DUP1 SLOAD PUSH1 0x1 PUSH1 0x1 PUSH1 0xA0 SHL SUB SWAP1 SWAP3 AND SWAP3 POP DUP3 SWAP2 DUP6 SWAP1 DUP2 LT PUSH2 0x341 JUMPI INVALID JUMPDEST PUSH1 0x0 SWAP2 DUP3 MSTORE PUSH1 0x20 DUP1 DUP4 KECCAK256 SWAP2 SWAP1 SWAP2 ADD DUP1 SLOAD PUSH20 0xFFFFFFFFFFFFFFFFFFFFFFFFFFFFFFFFFFFFFFFF NOT AND PUSH1 0x1 PUSH1 0x1 PUSH1 0xA0 SHL SUB SWAP5 DUP6 AND OR SWAP1 SSTORE SWAP3 SWAP1 SWAP2 AND DUP2 MSTORE SWAP1 DUP7 SWAP1 MSTORE PUSH1 0x40 SWAP1 KECCAK256 PUSH1 0x1 DUP4 ADD SWAP1 SSTORE JUMPDEST PUSH1 0x1 PUSH1 0x1 PUSH1 0xA0 SHL SUB DUP5 AND PUSH1 0x0 SWAP1 DUP2 MSTORE PUSH1 0x20 DUP7 SWAP1 MSTORE PUSH1 0x40 DUP2 KECCAK256 SSTORE PUSH1 0x1 DUP6 ADD DUP1 SLOAD DUP1 PUSH2 0x3B1 JUMPI INVALID JUMPDEST PUSH1 0x0 DUP3 DUP2 MSTORE PUSH1 0x20 SWAP1 KECCAK256 DUP2 ADD PUSH1 0x0 NOT SWAP1 DUP2 ADD DUP1 SLOAD PUSH20 0xFFFFFFFFFFFFFFFFFFFFFFFFFFFFFFFFFFFFFFFF NOT AND SWAP1 SSTORE ADD SWAP1 SSTORE POP PUSH1 0x1 SWAP2 POP PUSH2 0x22E SWAP1 POP JUMP JUMPDEST PUSH1 0x1 PUSH1 0x1 PUSH1 0xA0 SHL SUB AND PUSH1 0x0 SWAP1 DUP2 MSTORE PUSH1 0x20 SWAP2 SWAP1 SWAP2 MSTORE PUSH1 0x40 SWAP1 KECCAK256 SLOAD ISZERO ISZERO SWAP1 JUMP JUMPDEST PUSH1 0x0 DUP3 PUSH1 0x1 ADD DUP3 DUP2 SLOAD DUP2 LT PUSH2 0x41B JUMPI INVALID JUMPDEST PUSH1 0x0 SWAP2 DUP3 MSTORE PUSH1 0x20 SWAP1 SWAP2 KECCAK256 ADD SLOAD PUSH1 0x1 PUSH1 0x1 PUSH1 0xA0 SHL SUB AND SWAP4 SWAP3 POP POP POP JUMP JUMPDEST PUSH1 0x60 DUP1 DUP3 PUSH1 0x1 ADD DUP1 SLOAD SWAP1 POP PUSH1 0x40 MLOAD SWAP1 DUP1 DUP3 MSTORE DUP1 PUSH1 0x20 MUL PUSH1 0x20 ADD DUP3 ADD PUSH1 0x40 MSTORE DUP1 ISZERO PUSH2 0x46B JUMPI DUP2 PUSH1 0x20 ADD PUSH1 0x20 DUP3 MUL DUP1 CODESIZE DUP4 CODECOPY ADD SWAP1 POP JUMPDEST POP SWAP1 POP PUSH1 0x0 JUMPDEST PUSH1 0x1 DUP5 ADD SLOAD DUP2 LT ISZERO PUSH2 0x4D6 JUMPI DUP4 PUSH1 0x1 ADD DUP2 DUP2 SLOAD DUP2 LT PUSH2 0x48C JUMPI INVALID JUMPDEST SWAP1 PUSH1 0x0 MSTORE PUSH1 0x20 PUSH1 0x0 KECCAK256 ADD PUSH1 0x0 SWAP1 SLOAD SWAP1 PUSH2 0x100 EXP SWAP1 DIV PUSH1 0x1 PUSH1 0x1 PUSH1 0xA0 SHL SUB AND DUP3 DUP3 DUP2 MLOAD DUP2 LT PUSH2 0x4B6 JUMPI INVALID JUMPDEST PUSH1 0x1 PUSH1 0x1 PUSH1 0xA0 SHL SUB SWAP1 SWAP3 AND PUSH1 0x20 SWAP3 DUP4 MUL SWAP2 SWAP1 SWAP2 ADD SWAP1 SWAP2 ADD MSTORE PUSH1 0x1 ADD PUSH2 0x471 JUMP JUMPDEST POP SWAP3 SWAP2 POP POP JUMP INVALID LOG2 PUSH6 0x627A7A723158 KECCAK256 0xD9 MLOAD 0xC7 0x2B PUSH21 0x2833D832BBC3C0F73FF927E400A3DB049BFF9E0741 PUSH25 0x981C94DD2C64736F6C63430005100032000000000000000000 "
        },
        "methodIdentifiers": {
          "add(address)": "0a3b0a4f",
          "contains(address)": "5dbe47e8",
          "enumerate()": "ff9f78b3",
          "get(uint256)": "9507d39a",
          "length()": "1f7b6d32",
          "remove(address)": "29092d0e"
        }
      }
    }
  }
}