{
  "_format": "hh-sol-artifact-1",
  "contractName": "ERC721PausableMock",
  "sourceName": "contracts/IDO_basedon_Openzeppelin/mocks/ERC721PausableMock.sol",
  "abi": [
    {
      "anonymous": false,
      "inputs": [
        {
          "indexed": true,
          "internalType": "address",
          "name": "owner",
          "type": "address"
        },
        {
          "indexed": true,
          "internalType": "address",
          "name": "approved",
          "type": "address"
        },
        {
          "indexed": true,
          "internalType": "uint256",
          "name": "tokenId",
          "type": "uint256"
        }
      ],
      "name": "Approval",
      "type": "event"
    },
    {
      "anonymous": false,
      "inputs": [
        {
          "indexed": true,
          "internalType": "address",
          "name": "owner",
          "type": "address"
        },
        {
          "indexed": true,
          "internalType": "address",
          "name": "operator",
          "type": "address"
        },
        {
          "indexed": false,
          "internalType": "bool",
          "name": "approved",
          "type": "bool"
        }
      ],
      "name": "ApprovalForAll",
      "type": "event"
    },
    {
      "anonymous": false,
      "inputs": [
        {
          "indexed": false,
          "internalType": "address",
          "name": "account",
          "type": "address"
        }
      ],
      "name": "Paused",
      "type": "event"
    },
    {
      "anonymous": false,
      "inputs": [
        {
          "indexed": true,
          "internalType": "address",
          "name": "account",
          "type": "address"
        }
      ],
      "name": "PauserAdded",
      "type": "event"
    },
    {
      "anonymous": false,
      "inputs": [
        {
          "indexed": true,
          "internalType": "address",
          "name": "account",
          "type": "address"
        }
      ],
      "name": "PauserRemoved",
      "type": "event"
    },
    {
      "anonymous": false,
      "inputs": [
        {
          "indexed": true,
          "internalType": "address",
          "name": "from",
          "type": "address"
        },
        {
          "indexed": true,
          "internalType": "address",
          "name": "to",
          "type": "address"
        },
        {
          "indexed": true,
          "internalType": "uint256",
          "name": "tokenId",
          "type": "uint256"
        }
      ],
      "name": "Transfer",
      "type": "event"
    },
    {
      "anonymous": false,
      "inputs": [
        {
          "indexed": false,
          "internalType": "address",
          "name": "account",
          "type": "address"
        }
      ],
      "name": "Unpaused",
      "type": "event"
    },
    {
      "constant": false,
      "inputs": [
        {
          "internalType": "address",
          "name": "account",
          "type": "address"
        }
      ],
      "name": "addPauser",
      "outputs": [],
      "payable": false,
      "stateMutability": "nonpayable",
      "type": "function"
    },
    {
      "constant": false,
      "inputs": [
        {
          "internalType": "address",
          "name": "to",
          "type": "address"
        },
        {
          "internalType": "uint256",
          "name": "tokenId",
          "type": "uint256"
        }
      ],
      "name": "approve",
      "outputs": [],
      "payable": false,
      "stateMutability": "nonpayable",
      "type": "function"
    },
    {
      "constant": true,
      "inputs": [
        {
          "internalType": "address",
          "name": "owner",
          "type": "address"
        }
      ],
      "name": "balanceOf",
      "outputs": [
        {
          "internalType": "uint256",
          "name": "",
          "type": "uint256"
        }
      ],
      "payable": false,
      "stateMutability": "view",
      "type": "function"
    },
    {
      "constant": false,
      "inputs": [
        {
          "internalType": "uint256",
          "name": "tokenId",
          "type": "uint256"
        }
      ],
      "name": "burn",
      "outputs": [],
      "payable": false,
      "stateMutability": "nonpayable",
      "type": "function"
    },
    {
      "constant": true,
      "inputs": [
        {
          "internalType": "uint256",
          "name": "tokenId",
          "type": "uint256"
        }
      ],
      "name": "exists",
      "outputs": [
        {
          "internalType": "bool",
          "name": "",
          "type": "bool"
        }
      ],
      "payable": false,
      "stateMutability": "view",
      "type": "function"
    },
    {
      "constant": true,
      "inputs": [
        {
          "internalType": "uint256",
          "name": "tokenId",
          "type": "uint256"
        }
      ],
      "name": "getApproved",
      "outputs": [
        {
          "internalType": "address",
          "name": "",
          "type": "address"
        }
      ],
      "payable": false,
      "stateMutability": "view",
      "type": "function"
    },
    {
      "constant": true,
      "inputs": [
        {
          "internalType": "address",
          "name": "owner",
          "type": "address"
        },
        {
          "internalType": "address",
          "name": "operator",
          "type": "address"
        }
      ],
      "name": "isApprovedForAll",
      "outputs": [
        {
          "internalType": "bool",
          "name": "",
          "type": "bool"
        }
      ],
      "payable": false,
      "stateMutability": "view",
      "type": "function"
    },
    {
      "constant": true,
      "inputs": [
        {
          "internalType": "address",
          "name": "account",
          "type": "address"
        }
      ],
      "name": "isPauser",
      "outputs": [
        {
          "internalType": "bool",
          "name": "",
          "type": "bool"
        }
      ],
      "payable": false,
      "stateMutability": "view",
      "type": "function"
    },
    {
      "constant": false,
      "inputs": [
        {
          "internalType": "address",
          "name": "to",
          "type": "address"
        },
        {
          "internalType": "uint256",
          "name": "tokenId",
          "type": "uint256"
        }
      ],
      "name": "mint",
      "outputs": [],
      "payable": false,
      "stateMutability": "nonpayable",
      "type": "function"
    },
    {
      "constant": true,
      "inputs": [],
      "name": "onlyPauserMock",
      "outputs": [],
      "payable": false,
      "stateMutability": "view",
      "type": "function"
    },
    {
      "constant": true,
      "inputs": [
        {
          "internalType": "uint256",
          "name": "tokenId",
          "type": "uint256"
        }
      ],
      "name": "ownerOf",
      "outputs": [
        {
          "internalType": "address",
          "name": "",
          "type": "address"
        }
      ],
      "payable": false,
      "stateMutability": "view",
      "type": "function"
    },
    {
      "constant": false,
      "inputs": [],
      "name": "pause",
      "outputs": [],
      "payable": false,
      "stateMutability": "nonpayable",
      "type": "function"
    },
    {
      "constant": true,
      "inputs": [],
      "name": "paused",
      "outputs": [
        {
          "internalType": "bool",
          "name": "",
          "type": "bool"
        }
      ],
      "payable": false,
      "stateMutability": "view",
      "type": "function"
    },
    {
      "constant": false,
      "inputs": [
        {
          "internalType": "address",
          "name": "account",
          "type": "address"
        }
      ],
      "name": "removePauser",
      "outputs": [],
      "payable": false,
      "stateMutability": "nonpayable",
      "type": "function"
    },
    {
      "constant": false,
      "inputs": [],
      "name": "renouncePauser",
      "outputs": [],
      "payable": false,
      "stateMutability": "nonpayable",
      "type": "function"
    },
    {
      "constant": false,
      "inputs": [
        {
          "internalType": "address",
          "name": "from",
          "type": "address"
        },
        {
          "internalType": "address",
          "name": "to",
          "type": "address"
        },
        {
          "internalType": "uint256",
          "name": "tokenId",
          "type": "uint256"
        }
      ],
      "name": "safeTransferFrom",
      "outputs": [],
      "payable": false,
      "stateMutability": "nonpayable",
      "type": "function"
    },
    {
      "constant": false,
      "inputs": [
        {
          "internalType": "address",
          "name": "from",
          "type": "address"
        },
        {
          "internalType": "address",
          "name": "to",
          "type": "address"
        },
        {
          "internalType": "uint256",
          "name": "tokenId",
          "type": "uint256"
        },
        {
          "internalType": "bytes",
          "name": "_data",
          "type": "bytes"
        }
      ],
      "name": "safeTransferFrom",
      "outputs": [],
      "payable": false,
      "stateMutability": "nonpayable",
      "type": "function"
    },
    {
      "constant": false,
      "inputs": [
        {
          "internalType": "address",
          "name": "to",
          "type": "address"
        },
        {
          "internalType": "bool",
          "name": "approved",
          "type": "bool"
        }
      ],
      "name": "setApprovalForAll",
      "outputs": [],
      "payable": false,
      "stateMutability": "nonpayable",
      "type": "function"
    },
    {
      "constant": true,
      "inputs": [
        {
          "internalType": "bytes4",
          "name": "interfaceId",
          "type": "bytes4"
        }
      ],
      "name": "supportsInterface",
      "outputs": [
        {
          "internalType": "bool",
          "name": "",
          "type": "bool"
        }
      ],
      "payable": false,
      "stateMutability": "view",
      "type": "function"
    },
    {
      "constant": false,
      "inputs": [
        {
          "internalType": "address",
          "name": "from",
          "type": "address"
        },
        {
          "internalType": "address",
          "name": "to",
          "type": "address"
        },
        {
          "internalType": "uint256",
          "name": "tokenId",
          "type": "uint256"
        }
      ],
      "name": "transferFrom",
      "outputs": [],
      "payable": false,
      "stateMutability": "nonpayable",
      "type": "function"
    },
    {
      "constant": false,
      "inputs": [],
      "name": "unpause",
      "outputs": [],
      "payable": false,
      "stateMutability": "nonpayable",
      "type": "function"
    }
  ],
  "bytecode": "0x60806040526200001f6301ffc9a760e01b6001600160e01b036200007016565b6200003a6380ac58cd60e01b6001600160e01b036200007016565b62000060620000516001600160e01b03620000f516565b6001600160e01b03620000f916565b6006805460ff1916905562000241565b6001600160e01b03198082161415620000d0576040805162461bcd60e51b815260206004820152601c60248201527f4552433136353a20696e76616c696420696e7465726661636520696400000000604482015290519081900360640190fd5b6001600160e01b0319166000908152602081905260409020805460ff19166001179055565b3390565b620001148160056200014b60201b620012a01790919060201c565b6040516001600160a01b038216907f6719d08c1888103bea251a4ed56406bd0c3e69723c8a1686e017e7bbe159b6f890600090a250565b6200016082826001600160e01b03620001d816565b15620001b3576040805162461bcd60e51b815260206004820152601f60248201527f526f6c65733a206163636f756e7420616c72656164792068617320726f6c6500604482015290519081900360640190fd5b6001600160a01b0316600090815260209190915260409020805460ff19166001179055565b60006001600160a01b038216620002215760405162461bcd60e51b815260040180806020018281038252602281526020018062001c156022913960400191505060405180910390fd5b506001600160a01b03166000908152602091909152604090205460ff1690565b6119c480620002516000396000f3fe608060405234801561001057600080fd5b50600436106101775760003560e01c80634f558e79116100d857806370a082311161008c578063a22cb46511610066578063a22cb465146103df578063b88d4fde1461040d578063e985e9c5146104d357610177565b806370a082311461037957806382dc1ec4146103b15780638456cb59146103d757610177565b80636352211e116100bd5780636352211e1461032e5780636b2c0f551461034b5780636ef8d66d1461037157610177565b80634f558e79146103095780635c975abb1461032657610177565b80633f4ba83a1161012f57806342842e0e1161011457806342842e0e1461029057806342966c68146102c657806346fbf68e146102e357610177565b80633f4ba83a1461025c57806340c10f191461026457610177565b8063095ea7b311610160578063095ea7b3146101f057806323b872dd1461021e578063329daf901461025457610177565b806301ffc9a71461017c578063081812fc146101b7575b600080fd5b6101a36004803603602081101561019257600080fd5b50356001600160e01b031916610501565b604080519115158252519081900360200190f35b6101d4600480360360208110156101cd57600080fd5b5035610520565b604080516001600160a01b039092168252519081900360200190f35b61021c6004803603604081101561020657600080fd5b506001600160a01b038135169060200135610582565b005b61021c6004803603606081101561023457600080fd5b506001600160a01b038135811691602081013590911690604001356105db565b61021c610637565b61021c610684565b61021c6004803603604081101561027a57600080fd5b506001600160a01b038135169060200135610771565b61021c600480360360608110156102a657600080fd5b506001600160a01b0381358116916020810135909116906040013561077b565b61021c600480360360208110156102dc57600080fd5b5035610796565b6101a3600480360360208110156102f957600080fd5b50356001600160a01b03166107a2565b6101a36004803603602081101561031f57600080fd5b50356107bb565b6101a36107c6565b6101d46004803603602081101561034457600080fd5b50356107cf565b61021c6004803603602081101561036157600080fd5b50356001600160a01b0316610823565b61021c61082c565b61039f6004803603602081101561038f57600080fd5b50356001600160a01b031661083c565b60408051918252519081900360200190f35b61021c600480360360208110156103c757600080fd5b50356001600160a01b03166108a4565b61021c6108f3565b61021c600480360360408110156103f557600080fd5b506001600160a01b03813516906020013515156109ba565b61021c6004803603608081101561042357600080fd5b6001600160a01b0382358116926020810135909116916040820135919081019060808101606082013564010000000081111561045e57600080fd5b82018360208201111561047057600080fd5b8035906020019184600183028401116401000000008311171561049257600080fd5b91908080601f016020809104026020016040519081016040528093929190818152602001838380828437600092019190915250929550610a0f945050505050565b6101a3600480360360408110156104e957600080fd5b506001600160a01b0381358116916020013516610a6d565b6001600160e01b03191660009081526020819052604090205460ff1690565b600061052b82610a9b565b6105665760405162461bcd60e51b815260040180806020018281038252602c8152602001806118a2602c913960400191505060405180910390fd5b506000908152600260205260409020546001600160a01b031690565b60065460ff16156105cd576040805162461bcd60e51b815260206004820152601060248201526f14185d5cd8589b194e881c185d5cd95960821b604482015290519081900360640190fd5b6105d78282610ab8565b5050565b6105ec6105e6610be0565b82610be4565b6106275760405162461bcd60e51b815260040180806020018281038252603181526020018061193a6031913960400191505060405180910390fd5b610632838383610c88565b505050565b610647610642610be0565b6107a2565b6106825760405162461bcd60e51b81526004018080602001828103825260308152602001806117766030913960400191505060405180910390fd5b565b61068f610642610be0565b6106ca5760405162461bcd60e51b81526004018080602001828103825260308152602001806117766030913960400191505060405180910390fd5b60065460ff16610721576040805162461bcd60e51b815260206004820152601460248201527f5061757361626c653a206e6f7420706175736564000000000000000000000000604482015290519081900360640190fd5b6006805460ff191690557f5db9ee0a495bf2e6ff9c91a7834c1ba4fdd244a5e8aa4e537bd38aeae4b073aa610754610be0565b604080516001600160a01b039092168252519081900360200190a1565b6105d78282610cde565b61063283838360405180602001604052806000815250610a0f565b61079f81610e0f565b50565b60006107b560058363ffffffff610e2116565b92915050565b60006107b582610a9b565b60065460ff1690565b6000818152600160205260408120546001600160a01b0316806107b55760405162461bcd60e51b81526004018080602001828103825260298152602001806118586029913960400191505060405180910390fd5b61079f81610e88565b610682610837610be0565b610e88565b60006001600160a01b0382166108835760405162461bcd60e51b815260040180806020018281038252602a81526020018061182e602a913960400191505060405180910390fd5b6001600160a01b03821660009081526003602052604090206107b590610e91565b6108af610642610be0565b6108ea5760405162461bcd60e51b81526004018080602001828103825260308152602001806117766030913960400191505060405180910390fd5b61079f81610e95565b6108fe610642610be0565b6109395760405162461bcd60e51b81526004018080602001828103825260308152602001806117766030913960400191505060405180910390fd5b60065460ff1615610984576040805162461bcd60e51b815260206004820152601060248201526f14185d5cd8589b194e881c185d5cd95960821b604482015290519081900360640190fd5b6006805460ff191660011790557f62e78cea01bee320cd4e420270b5ea74000d11b0c9f74754ebdbfc544b05a258610754610be0565b60065460ff1615610a05576040805162461bcd60e51b815260206004820152601060248201526f14185d5cd8589b194e881c185d5cd95960821b604482015290519081900360640190fd5b6105d78282610edd565b610a20610a1a610be0565b83610be4565b610a5b5760405162461bcd60e51b815260040180806020018281038252603181526020018061193a6031913960400191505060405180910390fd5b610a6784848484610fe2565b50505050565b6001600160a01b03918216600090815260046020908152604080832093909416825291909152205460ff1690565b6000908152600160205260409020546001600160a01b0316151590565b6000610ac3826107cf565b9050806001600160a01b0316836001600160a01b03161415610b165760405162461bcd60e51b81526004018080602001828103825260218152602001806119196021913960400191505060405180910390fd5b806001600160a01b0316610b28610be0565b6001600160a01b03161480610b495750610b4981610b44610be0565b610a6d565b610b845760405162461bcd60e51b81526004018080602001828103825260388152602001806117f66038913960400191505060405180910390fd5b60008281526002602052604080822080546001600160a01b0319166001600160a01b0387811691821790925591518593918516917f8c5be1e5ebec7d5bd14f71427d1e84f3dd0314c0f7b2291e5b200ac8c7c3b92591a4505050565b3390565b6000610bef82610a9b565b610c2a5760405162461bcd60e51b815260040180806020018281038252602c8152602001806117ca602c913960400191505060405180910390fd5b6000610c35836107cf565b9050806001600160a01b0316846001600160a01b03161480610c705750836001600160a01b0316610c6584610520565b6001600160a01b0316145b80610c805750610c808185610a6d565b949350505050565b60065460ff1615610cd3576040805162461bcd60e51b815260206004820152601060248201526f14185d5cd8589b194e881c185d5cd95960821b604482015290519081900360640190fd5b610632838383611034565b6001600160a01b038216610d39576040805162461bcd60e51b815260206004820181905260248201527f4552433732313a206d696e7420746f20746865207a65726f2061646472657373604482015290519081900360640190fd5b610d4281610a9b565b15610d94576040805162461bcd60e51b815260206004820152601c60248201527f4552433732313a20746f6b656e20616c7265616479206d696e74656400000000604482015290519081900360640190fd5b600081815260016020908152604080832080546001600160a01b0319166001600160a01b038716908117909155835260039091529020610dd390611178565b60405181906001600160a01b038416906000907fddf252ad1be2c89b69c2b068fc378daa952ba7f163c4a11628f55a4df523b3ef908290a45050565b61079f610e1b826107cf565b82611181565b60006001600160a01b038216610e685760405162461bcd60e51b81526004018080602001828103825260228152602001806118ce6022913960400191505060405180910390fd5b506001600160a01b03166000908152602091909152604090205460ff1690565b61079f81611258565b5490565b610ea660058263ffffffff6112a016565b6040516001600160a01b038216907f6719d08c1888103bea251a4ed56406bd0c3e69723c8a1686e017e7bbe159b6f890600090a250565b610ee5610be0565b6001600160a01b0316826001600160a01b03161415610f4b576040805162461bcd60e51b815260206004820152601960248201527f4552433732313a20617070726f766520746f2063616c6c657200000000000000604482015290519081900360640190fd5b8060046000610f58610be0565b6001600160a01b03908116825260208083019390935260409182016000908120918716808252919093529120805460ff191692151592909217909155610f9c610be0565b60408051841515815290516001600160a01b0392909216917f17307eab39ab6107e8899845ad3d59bd9653f200f220920489ca2b5937696c319181900360200190a35050565b610fed848484610c88565b610ff984848484611321565b610a675760405162461bcd60e51b81526004018080602001828103825260328152602001806117446032913960400191505060405180910390fd5b826001600160a01b0316611047826107cf565b6001600160a01b03161461108c5760405162461bcd60e51b81526004018080602001828103825260298152602001806118f06029913960400191505060405180910390fd5b6001600160a01b0382166110d15760405162461bcd60e51b81526004018080602001828103825260248152602001806117a66024913960400191505060405180910390fd5b6110da81611571565b6001600160a01b03831660009081526003602052604090206110fb906115ac565b6001600160a01b038216600090815260036020526040902061111c90611178565b60008181526001602052604080822080546001600160a01b0319166001600160a01b0386811691821790925591518493918716917fddf252ad1be2c89b69c2b068fc378daa952ba7f163c4a11628f55a4df523b3ef91a4505050565b80546001019055565b816001600160a01b0316611194826107cf565b6001600160a01b0316146111d95760405162461bcd60e51b815260040180806020018281038252602581526020018061196b6025913960400191505060405180910390fd5b6111e281611571565b6001600160a01b0382166000908152600360205260409020611203906115ac565b60008181526001602052604080822080546001600160a01b0319169055518291906001600160a01b038516907fddf252ad1be2c89b69c2b068fc378daa952ba7f163c4a11628f55a4df523b3ef908390a45050565b61126960058263ffffffff6115c316565b6040516001600160a01b038216907fcd265ebaf09df2871cc7bd4133404a235ba12eff2041bb89d9c714a2621c7c7e90600090a250565b6112aa8282610e21565b156112fc576040805162461bcd60e51b815260206004820152601f60248201527f526f6c65733a206163636f756e7420616c72656164792068617320726f6c6500604482015290519081900360640190fd5b6001600160a01b0316600090815260209190915260409020805460ff19166001179055565b6000611335846001600160a01b031661162a565b61134157506001610c80565b600060606001600160a01b038616630a85bd0160e11b61135f610be0565b89888860405160240180856001600160a01b03166001600160a01b03168152602001846001600160a01b03166001600160a01b0316815260200183815260200180602001828103825283818151815260200191508051906020019080838360005b838110156113d85781810151838201526020016113c0565b50505050905090810190601f1680156114055780820380516001836020036101000a031916815260200191505b5060408051601f198184030181529181526020820180517bffffffffffffffffffffffffffffffffffffffffffffffffffffffff166001600160e01b0319909a16999099178952518151919890975087965094509250829150849050835b602083106114825780518252601f199092019160209182019101611463565b6001836020036101000a0380198251168184511680821785525050505050509050019150506000604051808303816000865af19150503d80600081146114e4576040519150601f19603f3d011682016040523d82523d6000602084013e6114e9565b606091505b50915091508161153a578051156115035780518082602001fd5b60405162461bcd60e51b81526004018080602001828103825260328152602001806117446032913960400191505060405180910390fd5b600081806020019051602081101561155157600080fd5b50516001600160e01b031916630a85bd0160e11b149350610c8092505050565b6000818152600260205260409020546001600160a01b03161561079f57600090815260026020526040902080546001600160a01b0319169055565b80546115bf90600163ffffffff61166316565b9055565b6115cd8282610e21565b6116085760405162461bcd60e51b81526004018080602001828103825260218152602001806118816021913960400191505060405180910390fd5b6001600160a01b0316600090815260209190915260409020805460ff19169055565b6000813f7fc5d2460186f7233c927e7db2dcc703c0e500b653ca82273b7bfad8045d85a470818114801590610c80575050151592915050565b60006116a583836040518060400160405280601e81526020017f536166654d6174683a207375627472616374696f6e206f766572666c6f7700008152506116ac565b9392505050565b6000818484111561173b5760405162461bcd60e51b81526004018080602001828103825283818151815260200191508051906020019080838360005b838110156117005781810151838201526020016116e8565b50505050905090810190601f16801561172d5780820380516001836020036101000a031916815260200191505b509250505060405180910390fd5b50505090039056fe4552433732313a207472616e7366657220746f206e6f6e20455243373231526563656976657220696d706c656d656e746572506175736572526f6c653a2063616c6c657220646f6573206e6f742068617665207468652050617573657220726f6c654552433732313a207472616e7366657220746f20746865207a65726f20616464726573734552433732313a206f70657261746f7220717565727920666f72206e6f6e6578697374656e7420746f6b656e4552433732313a20617070726f76652063616c6c6572206973206e6f74206f776e6572206e6f7220617070726f76656420666f7220616c6c4552433732313a2062616c616e636520717565727920666f7220746865207a65726f20616464726573734552433732313a206f776e657220717565727920666f72206e6f6e6578697374656e7420746f6b656e526f6c65733a206163636f756e7420646f6573206e6f74206861766520726f6c654552433732313a20617070726f76656420717565727920666f72206e6f6e6578697374656e7420746f6b656e526f6c65733a206163636f756e7420697320746865207a65726f20616464726573734552433732313a207472616e73666572206f6620746f6b656e2074686174206973206e6f74206f776e4552433732313a20617070726f76616c20746f2063757272656e74206f776e65724552433732313a207472616e736665722063616c6c6572206973206e6f74206f776e6572206e6f7220617070726f7665644552433732313a206275726e206f6620746f6b656e2074686174206973206e6f74206f776ea265627a7a7231582062081d00303c14239c0d0411c9589a63b7b7ab438db8e440248af16d50c173d064736f6c63430005100032526f6c65733a206163636f756e7420697320746865207a65726f2061646472657373",
  "linkReferences": {},
  "deployedLinkReferences": {}
}