{
  "_format": "hh-sol-artifact-1",
  "contractName": "PausableCrowdsaleImpl",
  "sourceName": "contracts/IDO_basedon_Openzeppelin/mocks/PausableCrowdsaleImpl.sol",
  "abi": [
    {
      "inputs": [
        {
          "internalType": "uint256",
          "name": "_rate",
          "type": "uint256"
        },
        {
          "internalType": "address payable",
          "name": "_wallet",
          "type": "address"
        },
        {
          "internalType": "contract ERC20",
          "name": "_token",
          "type": "address"
        }
      ],
      "payable": false,
      "stateMutability": "nonpayable",
      "type": "constructor"
    },
    {
      "anonymous": false,
      "inputs": [
        {
          "indexed": false,
          "internalType": "address",
          "name": "account",
          "type": "address"
        }
      ],
      "name": "Paused",
      "type": "event"
    },
    {
      "anonymous": false,
      "inputs": [
        {
          "indexed": true,
          "internalType": "address",
          "name": "account",
          "type": "address"
        }
      ],
      "name": "PauserAdded",
      "type": "event"
    },
    {
      "anonymous": false,
      "inputs": [
        {
          "indexed": true,
          "internalType": "address",
          "name": "account",
          "type": "address"
        }
      ],
      "name": "PauserRemoved",
      "type": "event"
    },
    {
      "anonymous": false,
      "inputs": [
        {
          "indexed": true,
          "internalType": "address",
          "name": "purchaser",
          "type": "address"
        },
        {
          "indexed": true,
          "internalType": "address",
          "name": "beneficiary",
          "type": "address"
        },
        {
          "indexed": false,
          "internalType": "uint256",
          "name": "value",
          "type": "uint256"
        },
        {
          "indexed": false,
          "internalType": "uint256",
          "name": "amount",
          "type": "uint256"
        }
      ],
      "name": "TokensPurchased",
      "type": "event"
    },
    {
      "anonymous": false,
      "inputs": [
        {
          "indexed": false,
          "internalType": "address",
          "name": "account",
          "type": "address"
        }
      ],
      "name": "Unpaused",
      "type": "event"
    },
    {
      "payable": true,
      "stateMutability": "payable",
      "type": "fallback"
    },
    {
      "constant": false,
      "inputs": [
        {
          "internalType": "address",
          "name": "account",
          "type": "address"
        }
      ],
      "name": "addPauser",
      "outputs": [],
      "payable": false,
      "stateMutability": "nonpayable",
      "type": "function"
    },
    {
      "constant": false,
      "inputs": [
        {
          "internalType": "address",
          "name": "beneficiary",
          "type": "address"
        }
      ],
      "name": "buyTokens",
      "outputs": [],
      "payable": true,
      "stateMutability": "payable",
      "type": "function"
    },
    {
      "constant": true,
      "inputs": [
        {
          "internalType": "address",
          "name": "account",
          "type": "address"
        }
      ],
      "name": "isPauser",
      "outputs": [
        {
          "internalType": "bool",
          "name": "",
          "type": "bool"
        }
      ],
      "payable": false,
      "stateMutability": "view",
      "type": "function"
    },
    {
      "constant": false,
      "inputs": [],
      "name": "pause",
      "outputs": [],
      "payable": false,
      "stateMutability": "nonpayable",
      "type": "function"
    },
    {
      "constant": true,
      "inputs": [],
      "name": "paused",
      "outputs": [
        {
          "internalType": "bool",
          "name": "",
          "type": "bool"
        }
      ],
      "payable": false,
      "stateMutability": "view",
      "type": "function"
    },
    {
      "constant": true,
      "inputs": [],
      "name": "rate",
      "outputs": [
        {
          "internalType": "uint256",
          "name": "",
          "type": "uint256"
        }
      ],
      "payable": false,
      "stateMutability": "view",
      "type": "function"
    },
    {
      "constant": false,
      "inputs": [],
      "name": "renouncePauser",
      "outputs": [],
      "payable": false,
      "stateMutability": "nonpayable",
      "type": "function"
    },
    {
      "constant": true,
      "inputs": [],
      "name": "token",
      "outputs": [
        {
          "internalType": "contract IERC20",
          "name": "",
          "type": "address"
        }
      ],
      "payable": false,
      "stateMutability": "view",
      "type": "function"
    },
    {
      "constant": false,
      "inputs": [],
      "name": "unpause",
      "outputs": [],
      "payable": false,
      "stateMutability": "nonpayable",
      "type": "function"
    },
    {
      "constant": true,
      "inputs": [],
      "name": "wallet",
      "outputs": [
        {
          "internalType": "address payable",
          "name": "",
          "type": "address"
        }
      ],
      "payable": false,
      "stateMutability": "view",
      "type": "function"
    },
    {
      "constant": true,
      "inputs": [],
      "name": "weiRaised",
      "outputs": [
        {
          "internalType": "uint256",
          "name": "",
          "type": "uint256"
        }
      ],
      "payable": false,
      "stateMutability": "view",
      "type": "function"
    }
  ],
  "bytecode": "0x60806040523480156200001157600080fd5b50604051620010fd380380620010fd833981810160405260608110156200003757600080fd5b50805160208201516040909201516000805460ff1916600117905590919082828282620000ab576040805162461bcd60e51b815260206004820152601460248201527f43726f776473616c653a20726174652069732030000000000000000000000000604482015290519081900360640190fd5b6001600160a01b038216620000f25760405162461bcd60e51b8152600401808060200182810382526025815260200180620010d86025913960400191505060405180910390fd5b6001600160a01b038116620001395760405162461bcd60e51b8152600401808060200182810382526024815260200180620010926024913960400191505060405180910390fd5b600292909255600180546001600160a01b039283166001600160a01b0319909116179055600080549190921661010002610100600160a81b03199091161790556200019662000187620001a9565b6001600160e01b03620001ad16565b50506005805460ff1916905550620002f5565b3390565b620001c8816004620001ff60201b620009701790919060201c565b6040516001600160a01b038216907f6719d08c1888103bea251a4ed56406bd0c3e69723c8a1686e017e7bbe159b6f890600090a250565b6200021482826001600160e01b036200028c16565b1562000267576040805162461bcd60e51b815260206004820152601f60248201527f526f6c65733a206163636f756e7420616c72656164792068617320726f6c6500604482015290519081900360640190fd5b6001600160a01b0316600090815260209190915260409020805460ff19166001179055565b60006001600160a01b038216620002d55760405162461bcd60e51b8152600401808060200182810382526022815260200180620010b66022913960400191505060405180910390fd5b506001600160a01b03166000908152602091909152604090205460ff1690565b610d8d80620003056000396000f3fe6080604052600436106100bc5760003560e01c80635c975abb116100745780638456cb591161004e5780638456cb59146101f4578063ec8ac4d814610209578063fc0c546a1461022f576100bc565b80635c975abb146101975780636ef8d66d146101ac57806382dc1ec4146101c1576100bc565b80634042b66f116100a55780634042b66f1461010a57806346fbf68e1461011f578063521eb27314610166576100bc565b80632c4e722e146100ce5780633f4ba83a146100f5575b6100cc6100c7610244565b610248565b005b3480156100da57600080fd5b506100e361036a565b60408051918252519081900360200190f35b34801561010157600080fd5b506100cc610370565b34801561011657600080fd5b506100e3610462565b34801561012b57600080fd5b506101526004803603602081101561014257600080fd5b50356001600160a01b0316610468565b604080519115158252519081900360200190f35b34801561017257600080fd5b5061017b610481565b604080516001600160a01b039092168252519081900360200190f35b3480156101a357600080fd5b50610152610490565b3480156101b857600080fd5b506100cc610499565b3480156101cd57600080fd5b506100cc600480360360208110156101e457600080fd5b50356001600160a01b03166104ab565b34801561020057600080fd5b506100cc6104fd565b6100cc6004803603602081101561021f57600080fd5b50356001600160a01b0316610248565b34801561023b57600080fd5b5061017b6105d1565b3390565b60005460ff1661029f576040805162461bcd60e51b815260206004820152601f60248201527f5265656e7472616e637947756172643a207265656e7472616e742063616c6c00604482015290519081900360640190fd5b6000805460ff19169055346102b482826105e5565b60006102bf8261064b565b6003549091506102d5908363ffffffff61066216565b6003556102e283826106c3565b826001600160a01b03166102f4610244565b6001600160a01b03167f6faf93231a456e552dbc9961f58d9713ee4f2e69d15f1975b050ef0911053a7b8484604051808381526020018281526020019250505060405180910390a36103468383610647565b61034e6106cd565b6103588383610647565b50506000805460ff1916600117905550565b60025490565b61038061037b610244565b610468565b6103bb5760405162461bcd60e51b8152600401808060200182810382526030815260200180610c716030913960400191505060405180910390fd5b60055460ff16610412576040805162461bcd60e51b815260206004820152601460248201527f5061757361626c653a206e6f7420706175736564000000000000000000000000604482015290519081900360640190fd5b6005805460ff191690557f5db9ee0a495bf2e6ff9c91a7834c1ba4fdd244a5e8aa4e537bd38aeae4b073aa610445610244565b604080516001600160a01b039092168252519081900360200190a1565b60035490565b600061047b60048363ffffffff61070616565b92915050565b6001546001600160a01b031690565b60055460ff1690565b6104a96104a4610244565b61076d565b565b6104b661037b610244565b6104f15760405162461bcd60e51b8152600401808060200182810382526030815260200180610c716030913960400191505060405180910390fd5b6104fa816107b5565b50565b61050861037b610244565b6105435760405162461bcd60e51b8152600401808060200182810382526030815260200180610c716030913960400191505060405180910390fd5b60055460ff161561059b576040805162461bcd60e51b815260206004820152601060248201527f5061757361626c653a2070617573656400000000000000000000000000000000604482015290519081900360640190fd5b6005805460ff191660011790557f62e78cea01bee320cd4e420270b5ea74000d11b0c9f74754ebdbfc544b05a258610445610244565b60005461010090046001600160a01b031690565b60055460ff161561063d576040805162461bcd60e51b815260206004820152601060248201527f5061757361626c653a2070617573656400000000000000000000000000000000604482015290519081900360640190fd5b61064782826107fd565b5050565b600061047b6002548361089490919063ffffffff16565b6000828201838110156106bc576040805162461bcd60e51b815260206004820152601b60248201527f536166654d6174683a206164646974696f6e206f766572666c6f770000000000604482015290519081900360640190fd5b9392505050565b61064782826108ed565b6001546040516001600160a01b03909116903480156108fc02916000818181858888f193505050501580156104fa573d6000803e3d6000fd5b60006001600160a01b03821661074d5760405162461bcd60e51b8152600401808060200182810382526022815260200180610ce36022913960400191505060405180910390fd5b506001600160a01b03166000908152602091909152604090205460ff1690565b61077e60048263ffffffff61090916565b6040516001600160a01b038216907fcd265ebaf09df2871cc7bd4133404a235ba12eff2041bb89d9c714a2621c7c7e90600090a250565b6107c660048263ffffffff61097016565b6040516001600160a01b038216907f6719d08c1888103bea251a4ed56406bd0c3e69723c8a1686e017e7bbe159b6f890600090a250565b6001600160a01b0382166108425760405162461bcd60e51b815260040180806020018281038252602a815260200180610d05602a913960400191505060405180910390fd5b80610647576040805162461bcd60e51b815260206004820152601960248201527f43726f776473616c653a20776569416d6f756e74206973203000000000000000604482015290519081900360640190fd5b6000826108a35750600061047b565b828202828482816108b057fe5b04146106bc5760405162461bcd60e51b8152600401808060200182810382526021815260200180610cc26021913960400191505060405180910390fd5b6000546106479061010090046001600160a01b031683836109f1565b6109138282610706565b61094e5760405162461bcd60e51b8152600401808060200182810382526021815260200180610ca16021913960400191505060405180910390fd5b6001600160a01b0316600090815260209190915260409020805460ff19169055565b61097a8282610706565b156109cc576040805162461bcd60e51b815260206004820152601f60248201527f526f6c65733a206163636f756e7420616c72656164792068617320726f6c6500604482015290519081900360640190fd5b6001600160a01b0316600090815260209190915260409020805460ff19166001179055565b604080516001600160a01b038416602482015260448082018490528251808303909101815260649091019091526020810180517bffffffffffffffffffffffffffffffffffffffffffffffffffffffff167fa9059cbb00000000000000000000000000000000000000000000000000000000179052610a71908490610a76565b505050565b610a88826001600160a01b0316610c34565b610ad9576040805162461bcd60e51b815260206004820152601f60248201527f5361666545524332303a2063616c6c20746f206e6f6e2d636f6e747261637400604482015290519081900360640190fd5b60006060836001600160a01b0316836040518082805190602001908083835b60208310610b175780518252601f199092019160209182019101610af8565b6001836020036101000a0380198251168184511680821785525050505050509050019150506000604051808303816000865af19150503d8060008114610b79576040519150601f19603f3d011682016040523d82523d6000602084013e610b7e565b606091505b509150915081610bd5576040805162461bcd60e51b815260206004820181905260248201527f5361666545524332303a206c6f772d6c6576656c2063616c6c206661696c6564604482015290519081900360640190fd5b805115610c2e57808060200190516020811015610bf157600080fd5b5051610c2e5760405162461bcd60e51b815260040180806020018281038252602a815260200180610d2f602a913960400191505060405180910390fd5b50505050565b6000813f7fc5d2460186f7233c927e7db2dcc703c0e500b653ca82273b7bfad8045d85a470818114801590610c6857508115155b94935050505056fe506175736572526f6c653a2063616c6c657220646f6573206e6f742068617665207468652050617573657220726f6c65526f6c65733a206163636f756e7420646f6573206e6f74206861766520726f6c65536166654d6174683a206d756c7469706c69636174696f6e206f766572666c6f77526f6c65733a206163636f756e7420697320746865207a65726f206164647265737343726f776473616c653a2062656e656669636961727920697320746865207a65726f20616464726573735361666545524332303a204552433230206f7065726174696f6e20646964206e6f742073756363656564a265627a7a72315820104535eea2d28365f7189ed7518125cf9cb465a939e792d08abdeb651230c19f64736f6c6343000510003243726f776473616c653a20746f6b656e20697320746865207a65726f2061646472657373526f6c65733a206163636f756e7420697320746865207a65726f206164647265737343726f776473616c653a2077616c6c657420697320746865207a65726f2061646472657373",
  "linkReferences": {},
  "deployedLinkReferences": {}
}