{
  "_format": "hh-sol-artifact-1",
  "contractName": "FinalizableCrowdsaleImpl",
  "sourceName": "contracts/IDO_basedon_Openzeppelin/mocks/FinalizableCrowdsaleImpl.sol",
  "abi": [
    {
      "inputs": [
        {
          "internalType": "uint256",
          "name": "openingTime",
          "type": "uint256"
        },
        {
          "internalType": "uint256",
          "name": "closingTime",
          "type": "uint256"
        },
        {
          "internalType": "uint256",
          "name": "rate",
          "type": "uint256"
        },
        {
          "internalType": "address payable",
          "name": "wallet",
          "type": "address"
        },
        {
          "internalType": "contract IERC20",
          "name": "token",
          "type": "address"
        }
      ],
      "payable": false,
      "stateMutability": "nonpayable",
      "type": "constructor"
    },
    {
      "anonymous": false,
      "inputs": [],
      "name": "CrowdsaleFinalized",
      "type": "event"
    },
    {
      "anonymous": false,
      "inputs": [
        {
          "indexed": false,
          "internalType": "uint256",
          "name": "prevClosingTime",
          "type": "uint256"
        },
        {
          "indexed": false,
          "internalType": "uint256",
          "name": "newClosingTime",
          "type": "uint256"
        }
      ],
      "name": "TimedCrowdsaleExtended",
      "type": "event"
    },
    {
      "anonymous": false,
      "inputs": [
        {
          "indexed": true,
          "internalType": "address",
          "name": "purchaser",
          "type": "address"
        },
        {
          "indexed": true,
          "internalType": "address",
          "name": "beneficiary",
          "type": "address"
        },
        {
          "indexed": false,
          "internalType": "uint256",
          "name": "value",
          "type": "uint256"
        },
        {
          "indexed": false,
          "internalType": "uint256",
          "name": "amount",
          "type": "uint256"
        }
      ],
      "name": "TokensPurchased",
      "type": "event"
    },
    {
      "payable": true,
      "stateMutability": "payable",
      "type": "fallback"
    },
    {
      "constant": false,
      "inputs": [
        {
          "internalType": "address",
          "name": "beneficiary",
          "type": "address"
        }
      ],
      "name": "buyTokens",
      "outputs": [],
      "payable": true,
      "stateMutability": "payable",
      "type": "function"
    },
    {
      "constant": true,
      "inputs": [],
      "name": "closingTime",
      "outputs": [
        {
          "internalType": "uint256",
          "name": "",
          "type": "uint256"
        }
      ],
      "payable": false,
      "stateMutability": "view",
      "type": "function"
    },
    {
      "constant": false,
      "inputs": [],
      "name": "finalize",
      "outputs": [],
      "payable": false,
      "stateMutability": "nonpayable",
      "type": "function"
    },
    {
      "constant": true,
      "inputs": [],
      "name": "finalized",
      "outputs": [
        {
          "internalType": "bool",
          "name": "",
          "type": "bool"
        }
      ],
      "payable": false,
      "stateMutability": "view",
      "type": "function"
    },
    {
      "constant": true,
      "inputs": [],
      "name": "hasClosed",
      "outputs": [
        {
          "internalType": "bool",
          "name": "",
          "type": "bool"
        }
      ],
      "payable": false,
      "stateMutability": "view",
      "type": "function"
    },
    {
      "constant": true,
      "inputs": [],
      "name": "isOpen",
      "outputs": [
        {
          "internalType": "bool",
          "name": "",
          "type": "bool"
        }
      ],
      "payable": false,
      "stateMutability": "view",
      "type": "function"
    },
    {
      "constant": true,
      "inputs": [],
      "name": "openingTime",
      "outputs": [
        {
          "internalType": "uint256",
          "name": "",
          "type": "uint256"
        }
      ],
      "payable": false,
      "stateMutability": "view",
      "type": "function"
    },
    {
      "constant": true,
      "inputs": [],
      "name": "rate",
      "outputs": [
        {
          "internalType": "uint256",
          "name": "",
          "type": "uint256"
        }
      ],
      "payable": false,
      "stateMutability": "view",
      "type": "function"
    },
    {
      "constant": true,
      "inputs": [],
      "name": "token",
      "outputs": [
        {
          "internalType": "contract IERC20",
          "name": "",
          "type": "address"
        }
      ],
      "payable": false,
      "stateMutability": "view",
      "type": "function"
    },
    {
      "constant": true,
      "inputs": [],
      "name": "wallet",
      "outputs": [
        {
          "internalType": "address payable",
          "name": "",
          "type": "address"
        }
      ],
      "payable": false,
      "stateMutability": "view",
      "type": "function"
    },
    {
      "constant": true,
      "inputs": [],
      "name": "weiRaised",
      "outputs": [
        {
          "internalType": "uint256",
          "name": "",
          "type": "uint256"
        }
      ],
      "payable": false,
      "stateMutability": "view",
      "type": "function"
    }
  ],
  "bytecode": "0x608060405234801561001057600080fd5b50604051610ccb380380610ccb833981810160405260a081101561003357600080fd5b5080516020820151604083015160608401516080909401516000805460ff19166001179055929391929091908484848484826100b6576040805162461bcd60e51b815260206004820152601460248201527f43726f776473616c653a20726174652069732030000000000000000000000000604482015290519081900360640190fd5b6001600160a01b0382166100fb5760405162461bcd60e51b8152600401808060200182810382526025815260200180610ca66025913960400191505060405180910390fd5b6001600160a01b0381166101405760405162461bcd60e51b8152600401808060200182810382526024815260200180610c826024913960400191505060405180910390fd5b600292909255600180546001600160a01b039283166001600160a01b0319909116179055600080549190921661010002610100600160a81b0319909116179055428210156101bf5760405162461bcd60e51b8152600401808060200182810382526033815260200180610c186033913960400191505060405180910390fd5b8181116101fd5760405162461bcd60e51b8152600401808060200182810382526037815260200180610c4b6037913960400191505060405180910390fd5b60049190915560055550506006805460ff191690555050506109f4806102246000396000f3fe6080604052600436106100bc5760003560e01c80634bb278f311610074578063b7a8807c1161004e578063b7a8807c146101b8578063ec8ac4d8146101cd578063fc0c546a146101f3576100bc565b80634bb278f31461015d578063521eb27314610172578063b3f05b97146101a3576100bc565b80634042b66f116100a55780634042b66f1461011e57806347535d7b146101335780634b6753bc14610148576100bc565b80631515bc2b146100ce5780632c4e722e146100f7575b6100cc6100c7610208565b61020c565b005b3480156100da57600080fd5b506100e361032e565b604080519115158252519081900360200190f35b34801561010357600080fd5b5061010c610336565b60408051918252519081900360200190f35b34801561012a57600080fd5b5061010c61033c565b34801561013f57600080fd5b506100e3610342565b34801561015457600080fd5b5061010c61035d565b34801561016957600080fd5b506100cc610363565b34801561017e57600080fd5b5061018761043e565b604080516001600160a01b039092168252519081900360200190f35b3480156101af57600080fd5b506100e361044d565b3480156101c457600080fd5b5061010c610456565b6100cc600480360360208110156101e357600080fd5b50356001600160a01b031661020c565b3480156101ff57600080fd5b5061018761045c565b3390565b60005460ff16610263576040805162461bcd60e51b815260206004820152601f60248201527f5265656e7472616e637947756172643a207265656e7472616e742063616c6c00604482015290519081900360640190fd5b6000805460ff19169055346102788282610470565b6000610283826104d7565b600354909150610299908363ffffffff6104f416565b6003556102a68382610555565b826001600160a01b03166102b8610208565b6001600160a01b03167f6faf93231a456e552dbc9961f58d9713ee4f2e69d15f1975b050ef0911053a7b8484604051808381526020018281526020019250505060405180910390a361030a83836104d3565b61031261055f565b61031c83836104d3565b50506000805460ff1916600117905550565b600554421190565b60025490565b60035490565b6000600454421015801561035857506005544211155b905090565b60055490565b60065460ff16156103a55760405162461bcd60e51b81526004018080602001828103825260278152602001806109456027913960400191505060405180910390fd5b6103ad61032e565b6103fe576040805162461bcd60e51b815260206004820181905260248201527f46696e616c697a61626c6543726f776473616c653a206e6f7420636c6f736564604482015290519081900360640190fd5b6006805460ff1916600117905561041361059b565b6040517f9270cc390c096600a1c17c44345a1ba689fafd99d97487b10cfccf86cf73183690600090a1565b6001546001600160a01b031690565b60065460ff1690565b60045490565b60005461010090046001600160a01b031690565b610478610342565b6104c9576040805162461bcd60e51b815260206004820152601860248201527f54696d656443726f776473616c653a206e6f74206f70656e0000000000000000604482015290519081900360640190fd5b6104d3828261059d565b5050565b60006104ee6002548361063490919063ffffffff16565b92915050565b60008282018381101561054e576040805162461bcd60e51b815260206004820152601b60248201527f536166654d6174683a206164646974696f6e206f766572666c6f770000000000604482015290519081900360640190fd5b9392505050565b6104d3828261068d565b6001546040516001600160a01b03909116903480156108fc02916000818181858888f19350505050158015610598573d6000803e3d6000fd5b50565b565b6001600160a01b0382166105e25760405162461bcd60e51b815260040180806020018281038252602a81526020018061096c602a913960400191505060405180910390fd5b806104d3576040805162461bcd60e51b815260206004820152601960248201527f43726f776473616c653a20776569416d6f756e74206973203000000000000000604482015290519081900360640190fd5b600082610643575060006104ee565b8282028284828161065057fe5b041461054e5760405162461bcd60e51b81526004018080602001828103825260218152602001806109246021913960400191505060405180910390fd5b6000546104d39061010090046001600160a01b03168383604080516001600160a01b038416602482015260448082018490528251808303909101815260649091019091526020810180517bffffffffffffffffffffffffffffffffffffffffffffffffffffffff167fa9059cbb00000000000000000000000000000000000000000000000000000000179052610724908490610729565b505050565b61073b826001600160a01b03166108e7565b61078c576040805162461bcd60e51b815260206004820152601f60248201527f5361666545524332303a2063616c6c20746f206e6f6e2d636f6e747261637400604482015290519081900360640190fd5b60006060836001600160a01b0316836040518082805190602001908083835b602083106107ca5780518252601f1990920191602091820191016107ab565b6001836020036101000a0380198251168184511680821785525050505050509050019150506000604051808303816000865af19150503d806000811461082c576040519150601f19603f3d011682016040523d82523d6000602084013e610831565b606091505b509150915081610888576040805162461bcd60e51b815260206004820181905260248201527f5361666545524332303a206c6f772d6c6576656c2063616c6c206661696c6564604482015290519081900360640190fd5b8051156108e1578080602001905160208110156108a457600080fd5b50516108e15760405162461bcd60e51b815260040180806020018281038252602a815260200180610996602a913960400191505060405180910390fd5b50505050565b6000813f7fc5d2460186f7233c927e7db2dcc703c0e500b653ca82273b7bfad8045d85a47081811480159061091b57508115155b94935050505056fe536166654d6174683a206d756c7469706c69636174696f6e206f766572666c6f7746696e616c697a61626c6543726f776473616c653a20616c72656164792066696e616c697a656443726f776473616c653a2062656e656669636961727920697320746865207a65726f20616464726573735361666545524332303a204552433230206f7065726174696f6e20646964206e6f742073756363656564a265627a7a72315820e363c2136c7785e34046d070656bc6dc7b214c56181b4164a119d0e91dc5f90464736f6c6343000510003254696d656443726f776473616c653a206f70656e696e672074696d65206973206265666f72652063757272656e742074696d6554696d656443726f776473616c653a206f70656e696e672074696d65206973206e6f74206265666f726520636c6f73696e672074696d6543726f776473616c653a20746f6b656e20697320746865207a65726f206164647265737343726f776473616c653a2077616c6c657420697320746865207a65726f2061646472657373",
  "linkReferences": {},
  "deployedLinkReferences": {}
}