{
  "_format": "hh-sol-artifact-1",
  "contractName": "WhitelistAdminRoleMock",
  "sourceName": "contracts/IDO_basedon_Openzeppelin/mocks/WhitelistAdminRoleMock.sol",
  "abi": [
    {
      "anonymous": false,
      "inputs": [
        {
          "indexed": true,
          "internalType": "address",
          "name": "account",
          "type": "address"
        }
      ],
      "name": "WhitelistAdminAdded",
      "type": "event"
    },
    {
      "anonymous": false,
      "inputs": [
        {
          "indexed": true,
          "internalType": "address",
          "name": "account",
          "type": "address"
        }
      ],
      "name": "WhitelistAdminRemoved",
      "type": "event"
    },
    {
      "constant": false,
      "inputs": [
        {
          "internalType": "address",
          "name": "account",
          "type": "address"
        }
      ],
      "name": "addWhitelistAdmin",
      "outputs": [],
      "payable": false,
      "stateMutability": "nonpayable",
      "type": "function"
    },
    {
      "constant": true,
      "inputs": [
        {
          "internalType": "address",
          "name": "account",
          "type": "address"
        }
      ],
      "name": "isWhitelistAdmin",
      "outputs": [
        {
          "internalType": "bool",
          "name": "",
          "type": "bool"
        }
      ],
      "payable": false,
      "stateMutability": "view",
      "type": "function"
    },
    {
      "constant": true,
      "inputs": [],
      "name": "onlyWhitelistAdminMock",
      "outputs": [],
      "payable": false,
      "stateMutability": "view",
      "type": "function"
    },
    {
      "constant": false,
      "inputs": [
        {
          "internalType": "address",
          "name": "account",
          "type": "address"
        }
      ],
      "name": "removeWhitelistAdmin",
      "outputs": [],
      "payable": false,
      "stateMutability": "nonpayable",
      "type": "function"
    },
    {
      "constant": false,
      "inputs": [],
      "name": "renounceWhitelistAdmin",
      "outputs": [],
      "payable": false,
      "stateMutability": "nonpayable",
      "type": "function"
    }
  ],
  "bytecode": "0x60806040526100266100186001600160e01b0361002b16565b6001600160e01b0361002f16565b61016f565b3390565b61004781600061007e60201b6102d81790919060201c565b6040516001600160a01b038216907f22380c05984257a1cb900161c713dd71d39e74820f1aea43bd3f1bdd2096129990600090a250565b61009182826001600160e01b0361010816565b156100e3576040805162461bcd60e51b815260206004820152601f60248201527f526f6c65733a206163636f756e7420616c72656164792068617320726f6c6500604482015290519081900360640190fd5b6001600160a01b0316600090815260209190915260409020805460ff19166001179055565b60006001600160a01b03821661014f5760405162461bcd60e51b81526004018080602001828103825260228152602001806105f66022913960400191505060405180910390fd5b506001600160a01b03166000908152602091909152604090205460ff1690565b6104788061017e6000396000f3fe608060405234801561001057600080fd5b50600436106100675760003560e01c80636897e974116100505780636897e9741461007e5780637362d9c8146100a4578063bb5f747b146100ca57610067565b80634c5a628c1461006c578063564c74a314610076575b600080fd5b610074610104565b005b610074610116565b6100746004803603602081101561009457600080fd5b50356001600160a01b0316610161565b610074600480360360208110156100ba57600080fd5b50356001600160a01b031661016d565b6100f0600480360360208110156100e057600080fd5b50356001600160a01b03166101bc565b604080519115158252519081900360200190f35b61011461010f6101d4565b6101d8565b565b6101266101216101d4565b6101bc565b6101145760405162461bcd60e51b81526004018080602001828103825260408152602001806104046040913960400191505060405180910390fd5b61016a816101d8565b50565b6101786101216101d4565b6101b35760405162461bcd60e51b81526004018080602001828103825260408152602001806104046040913960400191505060405180910390fd5b61016a816101e1565b60006101ce818363ffffffff61022916565b92915050565b3390565b61016a81610290565b6101f260008263ffffffff6102d816565b6040516001600160a01b038216907f22380c05984257a1cb900161c713dd71d39e74820f1aea43bd3f1bdd2096129990600090a250565b60006001600160a01b0382166102705760405162461bcd60e51b81526004018080602001828103825260228152602001806103e26022913960400191505060405180910390fd5b506001600160a01b03166000908152602091909152604090205460ff1690565b6102a160008263ffffffff61035916565b6040516001600160a01b038216907f0a8eb35e5ca14b3d6f28e4abf2f128dbab231a58b56e89beb5d636115001e16590600090a250565b6102e28282610229565b15610334576040805162461bcd60e51b815260206004820152601f60248201527f526f6c65733a206163636f756e7420616c72656164792068617320726f6c6500604482015290519081900360640190fd5b6001600160a01b0316600090815260209190915260409020805460ff19166001179055565b6103638282610229565b61039e5760405162461bcd60e51b81526004018080602001828103825260218152602001806103c16021913960400191505060405180910390fd5b6001600160a01b0316600090815260209190915260409020805460ff1916905556fe526f6c65733a206163636f756e7420646f6573206e6f74206861766520726f6c65526f6c65733a206163636f756e7420697320746865207a65726f206164647265737357686974656c69737441646d696e526f6c653a2063616c6c657220646f6573206e6f742068617665207468652057686974656c69737441646d696e20726f6c65a265627a7a72315820af54d9475ca0b091417058f539feac9a45aac4a5cb9fe44112b4904de2efd67364736f6c63430005100032526f6c65733a206163636f756e7420697320746865207a65726f2061646472657373",
  "linkReferences": {},
  "deployedLinkReferences": {}
}