{
  "_format": "hh-sol-artifact-1",
  "contractName": "PauserRoleMock",
  "sourceName": "contracts/IDO_basedon_Openzeppelin/mocks/PauserRoleMock.sol",
  "abi": [
    {
      "anonymous": false,
      "inputs": [
        {
          "indexed": true,
          "internalType": "address",
          "name": "account",
          "type": "address"
        }
      ],
      "name": "PauserAdded",
      "type": "event"
    },
    {
      "anonymous": false,
      "inputs": [
        {
          "indexed": true,
          "internalType": "address",
          "name": "account",
          "type": "address"
        }
      ],
      "name": "PauserRemoved",
      "type": "event"
    },
    {
      "constant": false,
      "inputs": [
        {
          "internalType": "address",
          "name": "account",
          "type": "address"
        }
      ],
      "name": "addPauser",
      "outputs": [],
      "payable": false,
      "stateMutability": "nonpayable",
      "type": "function"
    },
    {
      "constant": true,
      "inputs": [
        {
          "internalType": "address",
          "name": "account",
          "type": "address"
        }
      ],
      "name": "isPauser",
      "outputs": [
        {
          "internalType": "bool",
          "name": "",
          "type": "bool"
        }
      ],
      "payable": false,
      "stateMutability": "view",
      "type": "function"
    },
    {
      "constant": true,
      "inputs": [],
      "name": "onlyPauserMock",
      "outputs": [],
      "payable": false,
      "stateMutability": "view",
      "type": "function"
    },
    {
      "constant": false,
      "inputs": [
        {
          "internalType": "address",
          "name": "account",
          "type": "address"
        }
      ],
      "name": "removePauser",
      "outputs": [],
      "payable": false,
      "stateMutability": "nonpayable",
      "type": "function"
    },
    {
      "constant": false,
      "inputs": [],
      "name": "renouncePauser",
      "outputs": [],
      "payable": false,
      "stateMutability": "nonpayable",
      "type": "function"
    }
  ],
  "bytecode": "0x60806040526100266100186001600160e01b0361002b16565b6001600160e01b0361002f16565b61016f565b3390565b61004781600061007e60201b6102d81790919060201c565b6040516001600160a01b038216907f6719d08c1888103bea251a4ed56406bd0c3e69723c8a1686e017e7bbe159b6f890600090a250565b61009182826001600160e01b0361010816565b156100e3576040805162461bcd60e51b815260206004820152601f60248201527f526f6c65733a206163636f756e7420616c72656164792068617320726f6c6500604482015290519081900360640190fd5b6001600160a01b0316600090815260209190915260409020805460ff19166001179055565b60006001600160a01b03821661014f5760405162461bcd60e51b81526004018080602001828103825260228152602001806105e66022913960400191505060405180910390fd5b506001600160a01b03166000908152602091909152604090205460ff1690565b6104688061017e6000396000f3fe608060405234801561001057600080fd5b50600436106100675760003560e01c80636b2c0f55116100505780636b2c0f55146100b05780636ef8d66d146100d657806382dc1ec4146100de57610067565b8063329daf901461006c57806346fbf68e14610076575b600080fd5b610074610104565b005b61009c6004803603602081101561008c57600080fd5b50356001600160a01b0316610151565b604080519115158252519081900360200190f35b610074600480360360208110156100c657600080fd5b50356001600160a01b0316610169565b610074610175565b610074600480360360208110156100f457600080fd5b50356001600160a01b0316610185565b61011461010f6101d4565b610151565b61014f5760405162461bcd60e51b81526004018080602001828103825260308152602001806103c16030913960400191505060405180910390fd5b565b6000610163818363ffffffff6101d816565b92915050565b6101728161023f565b50565b61014f6101806101d4565b61023f565b61019061010f6101d4565b6101cb5760405162461bcd60e51b81526004018080602001828103825260308152602001806103c16030913960400191505060405180910390fd5b61017281610248565b3390565b60006001600160a01b03821661021f5760405162461bcd60e51b81526004018080602001828103825260228152602001806104126022913960400191505060405180910390fd5b506001600160a01b03166000908152602091909152604090205460ff1690565b61017281610290565b61025960008263ffffffff6102d816565b6040516001600160a01b038216907f6719d08c1888103bea251a4ed56406bd0c3e69723c8a1686e017e7bbe159b6f890600090a250565b6102a160008263ffffffff61035916565b6040516001600160a01b038216907fcd265ebaf09df2871cc7bd4133404a235ba12eff2041bb89d9c714a2621c7c7e90600090a250565b6102e282826101d8565b15610334576040805162461bcd60e51b815260206004820152601f60248201527f526f6c65733a206163636f756e7420616c72656164792068617320726f6c6500604482015290519081900360640190fd5b6001600160a01b0316600090815260209190915260409020805460ff19166001179055565b61036382826101d8565b61039e5760405162461bcd60e51b81526004018080602001828103825260218152602001806103f16021913960400191505060405180910390fd5b6001600160a01b0316600090815260209190915260409020805460ff1916905556fe506175736572526f6c653a2063616c6c657220646f6573206e6f742068617665207468652050617573657220726f6c65526f6c65733a206163636f756e7420646f6573206e6f74206861766520726f6c65526f6c65733a206163636f756e7420697320746865207a65726f2061646472657373a265627a7a7231582080987a0602e8b4930d33f8325b4b036cd5c4f19d36acdcb03d0416dd52e41f7464736f6c63430005100032526f6c65733a206163636f756e7420697320746865207a65726f2061646472657373",
  "linkReferences": {},
  "deployedLinkReferences": {}
}