{
  "_format": "hh-sol-artifact-1",
  "contractName": "MinterRoleMock",
  "sourceName": "contracts/IDO_basedon_Openzeppelin/mocks/MinterRoleMock.sol",
  "abi": [
    {
      "anonymous": false,
      "inputs": [
        {
          "indexed": true,
          "internalType": "address",
          "name": "account",
          "type": "address"
        }
      ],
      "name": "MinterAdded",
      "type": "event"
    },
    {
      "anonymous": false,
      "inputs": [
        {
          "indexed": true,
          "internalType": "address",
          "name": "account",
          "type": "address"
        }
      ],
      "name": "MinterRemoved",
      "type": "event"
    },
    {
      "constant": false,
      "inputs": [
        {
          "internalType": "address",
          "name": "account",
          "type": "address"
        }
      ],
      "name": "addMinter",
      "outputs": [],
      "payable": false,
      "stateMutability": "nonpayable",
      "type": "function"
    },
    {
      "constant": true,
      "inputs": [
        {
          "internalType": "address",
          "name": "account",
          "type": "address"
        }
      ],
      "name": "isMinter",
      "outputs": [
        {
          "internalType": "bool",
          "name": "",
          "type": "bool"
        }
      ],
      "payable": false,
      "stateMutability": "view",
      "type": "function"
    },
    {
      "constant": true,
      "inputs": [],
      "name": "onlyMinterMock",
      "outputs": [],
      "payable": false,
      "stateMutability": "view",
      "type": "function"
    },
    {
      "constant": false,
      "inputs": [
        {
          "internalType": "address",
          "name": "account",
          "type": "address"
        }
      ],
      "name": "removeMinter",
      "outputs": [],
      "payable": false,
      "stateMutability": "nonpayable",
      "type": "function"
    },
    {
      "constant": false,
      "inputs": [],
      "name": "renounceMinter",
      "outputs": [],
      "payable": false,
      "stateMutability": "nonpayable",
      "type": "function"
    }
  ],
  "bytecode": "0x60806040526100266100186001600160e01b0361002b16565b6001600160e01b0361002f16565b61016f565b3390565b61004781600061007e60201b6102d81790919060201c565b6040516001600160a01b038216907f6ae172837ea30b801fbfcdd4108aa1d5bf8ff775444fd70256b44e6bf3dfc3f690600090a250565b61009182826001600160e01b0361010816565b156100e3576040805162461bcd60e51b815260206004820152601f60248201527f526f6c65733a206163636f756e7420616c72656164792068617320726f6c6500604482015290519081900360640190fd5b6001600160a01b0316600090815260209190915260409020805460ff19166001179055565b60006001600160a01b03821661014f5760405162461bcd60e51b81526004018080602001828103825260228152602001806105e66022913960400191505060405180910390fd5b506001600160a01b03166000908152602091909152604090205460ff1690565b6104688061017e6000396000f3fe608060405234801561001057600080fd5b50600436106100675760003560e01c8063986502751161005057806398650275146100ba578063aa271e1a146100c2578063b5dba35b146100fc57610067565b80633092afd51461006c578063983b2d5614610094575b600080fd5b6100926004803603602081101561008257600080fd5b50356001600160a01b0316610104565b005b610092600480360360208110156100aa57600080fd5b50356001600160a01b0316610110565b610092610164565b6100e8600480360360208110156100d857600080fd5b50356001600160a01b0316610176565b604080519115158252519081900360200190f35b61009261018e565b61010d816101d4565b50565b61012061011b6101dd565b610176565b61015b5760405162461bcd60e51b81526004018080602001828103825260308152602001806103c16030913960400191505060405180910390fd5b61010d816101e1565b61017461016f6101dd565b6101d4565b565b6000610188818363ffffffff61022916565b92915050565b61019961011b6101dd565b6101745760405162461bcd60e51b81526004018080602001828103825260308152602001806103c16030913960400191505060405180910390fd5b61010d81610290565b3390565b6101f260008263ffffffff6102d816565b6040516001600160a01b038216907f6ae172837ea30b801fbfcdd4108aa1d5bf8ff775444fd70256b44e6bf3dfc3f690600090a250565b60006001600160a01b0382166102705760405162461bcd60e51b81526004018080602001828103825260228152602001806104126022913960400191505060405180910390fd5b506001600160a01b03166000908152602091909152604090205460ff1690565b6102a160008263ffffffff61035916565b6040516001600160a01b038216907fe94479a9f7e1952cc78f2d6baab678adc1b772d936c6583def489e524cb6669290600090a250565b6102e28282610229565b15610334576040805162461bcd60e51b815260206004820152601f60248201527f526f6c65733a206163636f756e7420616c72656164792068617320726f6c6500604482015290519081900360640190fd5b6001600160a01b0316600090815260209190915260409020805460ff19166001179055565b6103638282610229565b61039e5760405162461bcd60e51b81526004018080602001828103825260218152602001806103f16021913960400191505060405180910390fd5b6001600160a01b0316600090815260209190915260409020805460ff1916905556fe4d696e746572526f6c653a2063616c6c657220646f6573206e6f74206861766520746865204d696e74657220726f6c65526f6c65733a206163636f756e7420646f6573206e6f74206861766520726f6c65526f6c65733a206163636f756e7420697320746865207a65726f2061646472657373a265627a7a7231582081aff448536c06767b5f9872496af32b0dadae1537b4fc0d0503d5de91702c2e64736f6c63430005100032526f6c65733a206163636f756e7420697320746865207a65726f2061646472657373",
  "linkReferences": {},
  "deployedLinkReferences": {}
}