{
  "_format": "hh-sol-artifact-1",
  "contractName": "WhitelistCrowdsaleImpl",
  "sourceName": "contracts/IDO_basedon_Openzeppelin/mocks/WhitelistCrowdsaleImpl.sol",
  "abi": [
    {
      "inputs": [
        {
          "internalType": "uint256",
          "name": "_rate",
          "type": "uint256"
        },
        {
          "internalType": "address payable",
          "name": "_wallet",
          "type": "address"
        },
        {
          "internalType": "contract IERC20",
          "name": "_token",
          "type": "address"
        }
      ],
      "payable": false,
      "stateMutability": "nonpayable",
      "type": "constructor"
    },
    {
      "anonymous": false,
      "inputs": [
        {
          "indexed": true,
          "internalType": "address",
          "name": "purchaser",
          "type": "address"
        },
        {
          "indexed": true,
          "internalType": "address",
          "name": "beneficiary",
          "type": "address"
        },
        {
          "indexed": false,
          "internalType": "uint256",
          "name": "value",
          "type": "uint256"
        },
        {
          "indexed": false,
          "internalType": "uint256",
          "name": "amount",
          "type": "uint256"
        }
      ],
      "name": "TokensPurchased",
      "type": "event"
    },
    {
      "anonymous": false,
      "inputs": [
        {
          "indexed": true,
          "internalType": "address",
          "name": "account",
          "type": "address"
        }
      ],
      "name": "WhitelistAdminAdded",
      "type": "event"
    },
    {
      "anonymous": false,
      "inputs": [
        {
          "indexed": true,
          "internalType": "address",
          "name": "account",
          "type": "address"
        }
      ],
      "name": "WhitelistAdminRemoved",
      "type": "event"
    },
    {
      "anonymous": false,
      "inputs": [
        {
          "indexed": true,
          "internalType": "address",
          "name": "account",
          "type": "address"
        }
      ],
      "name": "WhitelistedAdded",
      "type": "event"
    },
    {
      "anonymous": false,
      "inputs": [
        {
          "indexed": true,
          "internalType": "address",
          "name": "account",
          "type": "address"
        }
      ],
      "name": "WhitelistedRemoved",
      "type": "event"
    },
    {
      "payable": true,
      "stateMutability": "payable",
      "type": "fallback"
    },
    {
      "constant": false,
      "inputs": [
        {
          "internalType": "address",
          "name": "account",
          "type": "address"
        }
      ],
      "name": "addWhitelistAdmin",
      "outputs": [],
      "payable": false,
      "stateMutability": "nonpayable",
      "type": "function"
    },
    {
      "constant": false,
      "inputs": [
        {
          "internalType": "address",
          "name": "account",
          "type": "address"
        }
      ],
      "name": "addWhitelisted",
      "outputs": [],
      "payable": false,
      "stateMutability": "nonpayable",
      "type": "function"
    },
    {
      "constant": false,
      "inputs": [
        {
          "internalType": "address",
          "name": "beneficiary",
          "type": "address"
        }
      ],
      "name": "buyTokens",
      "outputs": [],
      "payable": true,
      "stateMutability": "payable",
      "type": "function"
    },
    {
      "constant": true,
      "inputs": [
        {
          "internalType": "address",
          "name": "account",
          "type": "address"
        }
      ],
      "name": "isWhitelistAdmin",
      "outputs": [
        {
          "internalType": "bool",
          "name": "",
          "type": "bool"
        }
      ],
      "payable": false,
      "stateMutability": "view",
      "type": "function"
    },
    {
      "constant": true,
      "inputs": [
        {
          "internalType": "address",
          "name": "account",
          "type": "address"
        }
      ],
      "name": "isWhitelisted",
      "outputs": [
        {
          "internalType": "bool",
          "name": "",
          "type": "bool"
        }
      ],
      "payable": false,
      "stateMutability": "view",
      "type": "function"
    },
    {
      "constant": true,
      "inputs": [],
      "name": "rate",
      "outputs": [
        {
          "internalType": "uint256",
          "name": "",
          "type": "uint256"
        }
      ],
      "payable": false,
      "stateMutability": "view",
      "type": "function"
    },
    {
      "constant": false,
      "inputs": [
        {
          "internalType": "address",
          "name": "account",
          "type": "address"
        }
      ],
      "name": "removeWhitelisted",
      "outputs": [],
      "payable": false,
      "stateMutability": "nonpayable",
      "type": "function"
    },
    {
      "constant": false,
      "inputs": [],
      "name": "renounceWhitelistAdmin",
      "outputs": [],
      "payable": false,
      "stateMutability": "nonpayable",
      "type": "function"
    },
    {
      "constant": false,
      "inputs": [],
      "name": "renounceWhitelisted",
      "outputs": [],
      "payable": false,
      "stateMutability": "nonpayable",
      "type": "function"
    },
    {
      "constant": true,
      "inputs": [],
      "name": "token",
      "outputs": [
        {
          "internalType": "contract IERC20",
          "name": "",
          "type": "address"
        }
      ],
      "payable": false,
      "stateMutability": "view",
      "type": "function"
    },
    {
      "constant": true,
      "inputs": [],
      "name": "wallet",
      "outputs": [
        {
          "internalType": "address payable",
          "name": "",
          "type": "address"
        }
      ],
      "payable": false,
      "stateMutability": "view",
      "type": "function"
    },
    {
      "constant": true,
      "inputs": [],
      "name": "weiRaised",
      "outputs": [
        {
          "internalType": "uint256",
          "name": "",
          "type": "uint256"
        }
      ],
      "payable": false,
      "stateMutability": "view",
      "type": "function"
    }
  ],
  "bytecode": "0x60806040523480156200001157600080fd5b506040516200113a3803806200113a833981810160405260608110156200003757600080fd5b508051602082015160409092015190919082828262000071620000626001600160e01b03620001a916565b6001600160e01b03620001ad16565b6002805460ff1916600117905582620000d1576040805162461bcd60e51b815260206004820152601460248201527f43726f776473616c653a20726174652069732030000000000000000000000000604482015290519081900360640190fd5b6001600160a01b038216620001185760405162461bcd60e51b8152600401808060200182810382526025815260200180620011156025913960400191505060405180910390fd5b6001600160a01b0381166200015f5760405162461bcd60e51b8152600401808060200182810382526024815260200180620010cf6024913960400191505060405180910390fd5b600492909255600380546001600160a01b039283166001600160a01b0319909116179055600280549190921661010002610100600160a81b031990911617905550620002f5915050565b3390565b620001c8816000620001ff60201b620008f51790919060201c565b6040516001600160a01b038216907f22380c05984257a1cb900161c713dd71d39e74820f1aea43bd3f1bdd2096129990600090a250565b6200021482826001600160e01b036200028c16565b1562000267576040805162461bcd60e51b815260206004820152601f60248201527f526f6c65733a206163636f756e7420616c72656164792068617320726f6c6500604482015290519081900360640190fd5b6001600160a01b0316600090815260209190915260409020805460ff19166001179055565b60006001600160a01b038216620002d55760405162461bcd60e51b8152600401808060200182810382526022815260200180620010f36022913960400191505060405180910390fd5b506001600160a01b03166000908152602091909152604090205460ff1690565b610dca80620003056000396000f3fe6080604052600436106100c75760003560e01c8063521eb27311610074578063d6cd94731161004e578063d6cd94731461026e578063ec8ac4d814610283578063fc0c546a146102a9576100c7565b8063521eb273146101d75780637362d9c814610208578063bb5f747b1461023b576100c7565b80633af32abf116100a55780633af32abf146101665780634042b66f146101ad5780634c5a628c146101c2576100c7565b806310154bad146100d9578063291d95491461010c5780632c4e722e1461013f575b6100d76100d26102be565b6102c2565b005b3480156100e557600080fd5b506100d7600480360360208110156100fc57600080fd5b50356001600160a01b03166103e4565b34801561011857600080fd5b506100d76004803603602081101561012f57600080fd5b50356001600160a01b031661043b565b34801561014b57600080fd5b5061015461048a565b60408051918252519081900360200190f35b34801561017257600080fd5b506101996004803603602081101561018957600080fd5b50356001600160a01b0316610490565b604080519115158252519081900360200190f35b3480156101b957600080fd5b506101546104a9565b3480156101ce57600080fd5b506100d76104af565b3480156101e357600080fd5b506101ec6104c1565b604080516001600160a01b039092168252519081900360200190f35b34801561021457600080fd5b506100d76004803603602081101561022b57600080fd5b50356001600160a01b03166104d0565b34801561024757600080fd5b506101996004803603602081101561025e57600080fd5b50356001600160a01b031661051f565b34801561027a57600080fd5b506100d7610531565b6100d76004803603602081101561029957600080fd5b50356001600160a01b03166102c2565b3480156102b557600080fd5b506101ec610541565b3390565b60025460ff16610319576040805162461bcd60e51b815260206004820152601f60248201527f5265656e7472616e637947756172643a207265656e7472616e742063616c6c00604482015290519081900360640190fd5b6002805460ff191690553461032e8282610555565b6000610339826105a7565b60055490915061034f908363ffffffff6105be16565b60055561035c838261061f565b826001600160a01b031661036e6102be565b6001600160a01b03167f6faf93231a456e552dbc9961f58d9713ee4f2e69d15f1975b050ef0911053a7b8484604051808381526020018281526020019250505060405180910390a36103c083836105a3565b6103c8610629565b6103d283836105a3565b50506002805460ff1916600117905550565b6103f46103ef6102be565b61051f565b61042f5760405162461bcd60e51b8152600401808060200182810382526040815260200180610d026040913960400191505060405180910390fd5b61043881610662565b50565b6104466103ef6102be565b6104815760405162461bcd60e51b8152600401808060200182810382526040815260200180610d026040913960400191505060405180910390fd5b610438816106aa565b60045490565b60006104a360018363ffffffff6106f216565b92915050565b60055490565b6104bf6104ba6102be565b610759565b565b6003546001600160a01b031690565b6104db6103ef6102be565b6105165760405162461bcd60e51b8152600401808060200182810382526040815260200180610d026040913960400191505060405180910390fd5b610438816107a1565b60006104a3818363ffffffff6106f216565b6104bf61053c6102be565b6106aa565b60025461010090046001600160a01b031690565b61055e82610490565b6105995760405162461bcd60e51b8152600401808060200182810382526041815260200180610c5d6041913960600191505060405180910390fd5b6105a382826107e9565b5050565b60006104a36004548361088090919063ffffffff16565b600082820183811015610618576040805162461bcd60e51b815260206004820152601b60248201527f536166654d6174683a206164646974696f6e206f766572666c6f770000000000604482015290519081900360640190fd5b9392505050565b6105a382826108d9565b6003546040516001600160a01b03909116903480156108fc02916000818181858888f19350505050158015610438573d6000803e3d6000fd5b61067360018263ffffffff6108f516565b6040516001600160a01b038216907fee1504a83b6d4a361f4c1dc78ab59bfa30d6a3b6612c403e86bb01ef2984295f90600090a250565b6106bb60018263ffffffff61097616565b6040516001600160a01b038216907f270d9b30cf5b0793bbfd54c9d5b94aeb49462b8148399000265144a8722da6b690600090a250565b60006001600160a01b0382166107395760405162461bcd60e51b8152600401808060200182810382526022815260200180610ce06022913960400191505060405180910390fd5b506001600160a01b03166000908152602091909152604090205460ff1690565b61076a60008263ffffffff61097616565b6040516001600160a01b038216907f0a8eb35e5ca14b3d6f28e4abf2f128dbab231a58b56e89beb5d636115001e16590600090a250565b6107b260008263ffffffff6108f516565b6040516001600160a01b038216907f22380c05984257a1cb900161c713dd71d39e74820f1aea43bd3f1bdd2096129990600090a250565b6001600160a01b03821661082e5760405162461bcd60e51b815260040180806020018281038252602a815260200180610d42602a913960400191505060405180910390fd5b806105a3576040805162461bcd60e51b815260206004820152601960248201527f43726f776473616c653a20776569416d6f756e74206973203000000000000000604482015290519081900360640190fd5b60008261088f575060006104a3565b8282028284828161089c57fe5b04146106185760405162461bcd60e51b8152600401808060200182810382526021815260200180610cbf6021913960400191505060405180910390fd5b6002546105a39061010090046001600160a01b031683836109dd565b6108ff82826106f2565b15610951576040805162461bcd60e51b815260206004820152601f60248201527f526f6c65733a206163636f756e7420616c72656164792068617320726f6c6500604482015290519081900360640190fd5b6001600160a01b0316600090815260209190915260409020805460ff19166001179055565b61098082826106f2565b6109bb5760405162461bcd60e51b8152600401808060200182810382526021815260200180610c9e6021913960400191505060405180910390fd5b6001600160a01b0316600090815260209190915260409020805460ff19169055565b604080516001600160a01b038416602482015260448082018490528251808303909101815260649091019091526020810180517bffffffffffffffffffffffffffffffffffffffffffffffffffffffff167fa9059cbb00000000000000000000000000000000000000000000000000000000179052610a5d908490610a62565b505050565b610a74826001600160a01b0316610c20565b610ac5576040805162461bcd60e51b815260206004820152601f60248201527f5361666545524332303a2063616c6c20746f206e6f6e2d636f6e747261637400604482015290519081900360640190fd5b60006060836001600160a01b0316836040518082805190602001908083835b60208310610b035780518252601f199092019160209182019101610ae4565b6001836020036101000a0380198251168184511680821785525050505050509050019150506000604051808303816000865af19150503d8060008114610b65576040519150601f19603f3d011682016040523d82523d6000602084013e610b6a565b606091505b509150915081610bc1576040805162461bcd60e51b815260206004820181905260248201527f5361666545524332303a206c6f772d6c6576656c2063616c6c206661696c6564604482015290519081900360640190fd5b805115610c1a57808060200190516020811015610bdd57600080fd5b5051610c1a5760405162461bcd60e51b815260040180806020018281038252602a815260200180610d6c602a913960400191505060405180910390fd5b50505050565b6000813f7fc5d2460186f7233c927e7db2dcc703c0e500b653ca82273b7bfad8045d85a470818114801590610c5457508115155b94935050505056fe57686974656c69737443726f776473616c653a2062656e656669636961727920646f65736e27742068617665207468652057686974656c697374656420726f6c65526f6c65733a206163636f756e7420646f6573206e6f74206861766520726f6c65536166654d6174683a206d756c7469706c69636174696f6e206f766572666c6f77526f6c65733a206163636f756e7420697320746865207a65726f206164647265737357686974656c69737441646d696e526f6c653a2063616c6c657220646f6573206e6f742068617665207468652057686974656c69737441646d696e20726f6c6543726f776473616c653a2062656e656669636961727920697320746865207a65726f20616464726573735361666545524332303a204552433230206f7065726174696f6e20646964206e6f742073756363656564a265627a7a7231582098f62714c4116d518bb429c391e82174f4394cb4fb5002c1ab1448ac60064acb64736f6c6343000510003243726f776473616c653a20746f6b656e20697320746865207a65726f2061646472657373526f6c65733a206163636f756e7420697320746865207a65726f206164647265737343726f776473616c653a2077616c6c657420697320746865207a65726f2061646472657373",
  "linkReferences": {},
  "deployedLinkReferences": {}
}