{
  "_format": "hh-sol-artifact-1",
  "contractName": "RefundableCrowdsaleImpl",
  "sourceName": "contracts/IDO_basedon_Openzeppelin/mocks/RefundableCrowdsaleImpl.sol",
  "abi": [
    {
      "inputs": [
        {
          "internalType": "uint256",
          "name": "openingTime",
          "type": "uint256"
        },
        {
          "internalType": "uint256",
          "name": "closingTime",
          "type": "uint256"
        },
        {
          "internalType": "uint256",
          "name": "rate",
          "type": "uint256"
        },
        {
          "internalType": "address payable",
          "name": "wallet",
          "type": "address"
        },
        {
          "internalType": "contract IERC20",
          "name": "token",
          "type": "address"
        },
        {
          "internalType": "uint256",
          "name": "goal",
          "type": "uint256"
        }
      ],
      "payable": false,
      "stateMutability": "nonpayable",
      "type": "constructor"
    },
    {
      "anonymous": false,
      "inputs": [],
      "name": "CrowdsaleFinalized",
      "type": "event"
    },
    {
      "anonymous": false,
      "inputs": [
        {
          "indexed": false,
          "internalType": "uint256",
          "name": "prevClosingTime",
          "type": "uint256"
        },
        {
          "indexed": false,
          "internalType": "uint256",
          "name": "newClosingTime",
          "type": "uint256"
        }
      ],
      "name": "TimedCrowdsaleExtended",
      "type": "event"
    },
    {
      "anonymous": false,
      "inputs": [
        {
          "indexed": true,
          "internalType": "address",
          "name": "purchaser",
          "type": "address"
        },
        {
          "indexed": true,
          "internalType": "address",
          "name": "beneficiary",
          "type": "address"
        },
        {
          "indexed": false,
          "internalType": "uint256",
          "name": "value",
          "type": "uint256"
        },
        {
          "indexed": false,
          "internalType": "uint256",
          "name": "amount",
          "type": "uint256"
        }
      ],
      "name": "TokensPurchased",
      "type": "event"
    },
    {
      "payable": true,
      "stateMutability": "payable",
      "type": "fallback"
    },
    {
      "constant": false,
      "inputs": [
        {
          "internalType": "address",
          "name": "beneficiary",
          "type": "address"
        }
      ],
      "name": "buyTokens",
      "outputs": [],
      "payable": true,
      "stateMutability": "payable",
      "type": "function"
    },
    {
      "constant": false,
      "inputs": [
        {
          "internalType": "address payable",
          "name": "refundee",
          "type": "address"
        }
      ],
      "name": "claimRefund",
      "outputs": [],
      "payable": false,
      "stateMutability": "nonpayable",
      "type": "function"
    },
    {
      "constant": true,
      "inputs": [],
      "name": "closingTime",
      "outputs": [
        {
          "internalType": "uint256",
          "name": "",
          "type": "uint256"
        }
      ],
      "payable": false,
      "stateMutability": "view",
      "type": "function"
    },
    {
      "constant": false,
      "inputs": [],
      "name": "finalize",
      "outputs": [],
      "payable": false,
      "stateMutability": "nonpayable",
      "type": "function"
    },
    {
      "constant": true,
      "inputs": [],
      "name": "finalized",
      "outputs": [
        {
          "internalType": "bool",
          "name": "",
          "type": "bool"
        }
      ],
      "payable": false,
      "stateMutability": "view",
      "type": "function"
    },
    {
      "constant": true,
      "inputs": [],
      "name": "goal",
      "outputs": [
        {
          "internalType": "uint256",
          "name": "",
          "type": "uint256"
        }
      ],
      "payable": false,
      "stateMutability": "view",
      "type": "function"
    },
    {
      "constant": true,
      "inputs": [],
      "name": "goalReached",
      "outputs": [
        {
          "internalType": "bool",
          "name": "",
          "type": "bool"
        }
      ],
      "payable": false,
      "stateMutability": "view",
      "type": "function"
    },
    {
      "constant": true,
      "inputs": [],
      "name": "hasClosed",
      "outputs": [
        {
          "internalType": "bool",
          "name": "",
          "type": "bool"
        }
      ],
      "payable": false,
      "stateMutability": "view",
      "type": "function"
    },
    {
      "constant": true,
      "inputs": [],
      "name": "isOpen",
      "outputs": [
        {
          "internalType": "bool",
          "name": "",
          "type": "bool"
        }
      ],
      "payable": false,
      "stateMutability": "view",
      "type": "function"
    },
    {
      "constant": true,
      "inputs": [],
      "name": "openingTime",
      "outputs": [
        {
          "internalType": "uint256",
          "name": "",
          "type": "uint256"
        }
      ],
      "payable": false,
      "stateMutability": "view",
      "type": "function"
    },
    {
      "constant": true,
      "inputs": [],
      "name": "rate",
      "outputs": [
        {
          "internalType": "uint256",
          "name": "",
          "type": "uint256"
        }
      ],
      "payable": false,
      "stateMutability": "view",
      "type": "function"
    },
    {
      "constant": true,
      "inputs": [],
      "name": "token",
      "outputs": [
        {
          "internalType": "contract IERC20",
          "name": "",
          "type": "address"
        }
      ],
      "payable": false,
      "stateMutability": "view",
      "type": "function"
    },
    {
      "constant": true,
      "inputs": [],
      "name": "wallet",
      "outputs": [
        {
          "internalType": "address payable",
          "name": "",
          "type": "address"
        }
      ],
      "payable": false,
      "stateMutability": "view",
      "type": "function"
    },
    {
      "constant": true,
      "inputs": [],
      "name": "weiRaised",
      "outputs": [
        {
          "internalType": "uint256",
          "name": "",
          "type": "uint256"
        }
      ],
      "payable": false,
      "stateMutability": "view",
      "type": "function"
    }
  ],
  "bytecode": "0x608060405234801561001057600080fd5b5060405162001f3038038062001f30833981810160405260c081101561003557600080fd5b508051602082015160408301516060840151608085015160a0909501516000805460ff191660011790559394929391929091808686868686826100bf576040805162461bcd60e51b815260206004820152601460248201527f43726f776473616c653a20726174652069732030000000000000000000000000604482015290519081900360640190fd5b6001600160a01b0382166101055760405162461bcd60e51b815260040180806020018281038252602581526020018062001f0b6025913960400191505060405180910390fd5b6001600160a01b03811661014b5760405162461bcd60e51b815260040180806020018281038252602481526020018062001ee76024913960400191505060405180910390fd5b600292909255600180546001600160a01b039283166001600160a01b0319909116179055600080549190921661010002610100600160a81b0319909116179055428210156101cb5760405162461bcd60e51b815260040180806020018281038252603381526020018062001e7d6033913960400191505060405180910390fd5b81811161020a5760405162461bcd60e51b815260040180806020018281038252603781526020018062001eb06037913960400191505060405180910390fd5b6004919091556005556006805460ff191690558061026f576040805162461bcd60e51b815260206004820152601e60248201527f526566756e6461626c6543726f776473616c653a20676f616c20697320300000604482015290519081900360640190fd5b6102806001600160e01b036102e916565b60405161028c906102f8565b6001600160a01b03909116815260405190819003602001906000f0801580156102b9573d6000803e3d6000fd5b50600880546001600160a01b0319166001600160a01b039290921691909117905560075550610306945050505050565b6001546001600160a01b031690565b610e1b806200106283390190565b610d4c80620003166000396000f3fe6080604052600436106100dd5760003560e01c8063521eb2731161007f578063b7a8807c11610059578063b7a8807c14610203578063bffa55d514610218578063ec8ac4d81461024b578063fc0c546a14610271576100dd565b8063521eb273146101a85780637d3d6522146101d9578063b3f05b97146101ee576100dd565b80634042b66f116100bb5780634042b66f1461015457806347535d7b146101695780634b6753bc1461017e5780634bb278f314610193576100dd565b80631515bc2b146100ef5780632c4e722e14610118578063401938831461013f575b6100ed6100e8610286565b61028a565b005b3480156100fb57600080fd5b506101046103ac565b604080519115158252519081900360200190f35b34801561012457600080fd5b5061012d6103b4565b60408051918252519081900360200190f35b34801561014b57600080fd5b5061012d6103ba565b34801561016057600080fd5b5061012d6103c0565b34801561017557600080fd5b506101046103c6565b34801561018a57600080fd5b5061012d6103e1565b34801561019f57600080fd5b506100ed6103e7565b3480156101b457600080fd5b506101bd6104c2565b604080516001600160a01b039092168252519081900360200190f35b3480156101e557600080fd5b506101046104d1565b3480156101fa57600080fd5b506101046104e5565b34801561020f57600080fd5b5061012d6104ee565b34801561022457600080fd5b506100ed6004803603602081101561023b57600080fd5b50356001600160a01b03166104f4565b6100ed6004803603602081101561026157600080fd5b50356001600160a01b031661028a565b34801561027d57600080fd5b506101bd6105fd565b3390565b60005460ff166102e1576040805162461bcd60e51b815260206004820152601f60248201527f5265656e7472616e637947756172643a207265656e7472616e742063616c6c00604482015290519081900360640190fd5b6000805460ff19169055346102f68282610611565b600061030182610678565b600354909150610317908363ffffffff61069516565b60035561032483826106f6565b826001600160a01b0316610336610286565b6001600160a01b03167f6faf93231a456e552dbc9961f58d9713ee4f2e69d15f1975b050ef0911053a7b8484604051808381526020018281526020019250505060405180910390a36103888383610674565b610390610700565b61039a8383610674565b50506000805460ff1916600117905550565b600554421190565b60025490565b60075490565b60035490565b600060045442101580156103dc57506005544211155b905090565b60055490565b60065460ff16156104295760405162461bcd60e51b8152600401808060200182810382526027815260200180610c5a6027913960400191505060405180910390fd5b6104316103ac565b610482576040805162461bcd60e51b815260206004820181905260248201527f46696e616c697a61626c6543726f776473616c653a206e6f7420636c6f736564604482015290519081900360640190fd5b6006805460ff19166001179055610497610761565b6040517f9270cc390c096600a1c17c44345a1ba689fafd99d97487b10cfccf86cf73183690600090a1565b6001546001600160a01b031690565b60006007546104de6103c0565b1015905090565b60065460ff1690565b60045490565b6104fc6104e5565b6105375760405162461bcd60e51b8152600401808060200182810382526022815260200180610ccc6022913960400191505060405180910390fd5b61053f6104d1565b1561057b5760405162461bcd60e51b8152600401808060200182810382526021815260200180610c816021913960400191505060405180910390fd5b600854604080517f51cff8d90000000000000000000000000000000000000000000000000000000081526001600160a01b038481166004830152915191909216916351cff8d991602480830192600092919082900301818387803b1580156105e257600080fd5b505af11580156105f6573d6000803e3d6000fd5b5050505050565b60005461010090046001600160a01b031690565b6106196103c6565b61066a576040805162461bcd60e51b815260206004820152601860248201527f54696d656443726f776473616c653a206e6f74206f70656e0000000000000000604482015290519081900360640190fd5b61067482826108b2565b5050565b600061068f6002548361094990919063ffffffff16565b92915050565b6000828201838110156106ef576040805162461bcd60e51b815260206004820152601b60248201527f536166654d6174683a206164646974696f6e206f766572666c6f770000000000604482015290519081900360640190fd5b9392505050565b61067482826109a2565b6008546001600160a01b031663f340fa013461071a610286565b6040518363ffffffff1660e01b815260040180826001600160a01b03166001600160a01b031681526020019150506000604051808303818588803b1580156105e257600080fd5b6107696104d1565b1561084357600860009054906101000a90046001600160a01b03166001600160a01b03166343d726d66040518163ffffffff1660e01b8152600401600060405180830381600087803b1580156107be57600080fd5b505af11580156107d2573d6000803e3d6000fd5b50505050600860009054906101000a90046001600160a01b03166001600160a01b0316639af6549a6040518163ffffffff1660e01b8152600401600060405180830381600087803b15801561082657600080fd5b505af115801561083a573d6000803e3d6000fd5b505050506108ac565b600860009054906101000a90046001600160a01b03166001600160a01b0316638c52dc416040518163ffffffff1660e01b8152600401600060405180830381600087803b15801561089357600080fd5b505af11580156108a7573d6000803e3d6000fd5b505050505b6108b05b565b6001600160a01b0382166108f75760405162461bcd60e51b815260040180806020018281038252602a815260200180610ca2602a913960400191505060405180910390fd5b80610674576040805162461bcd60e51b815260206004820152601960248201527f43726f776473616c653a20776569416d6f756e74206973203000000000000000604482015290519081900360640190fd5b6000826109585750600061068f565b8282028284828161096557fe5b04146106ef5760405162461bcd60e51b8152600401808060200182810382526021815260200180610c396021913960400191505060405180910390fd5b6000546106749061010090046001600160a01b03168383604080516001600160a01b038416602482015260448082018490528251808303909101815260649091019091526020810180517bffffffffffffffffffffffffffffffffffffffffffffffffffffffff167fa9059cbb00000000000000000000000000000000000000000000000000000000179052610a39908490610a3e565b505050565b610a50826001600160a01b0316610bfc565b610aa1576040805162461bcd60e51b815260206004820152601f60248201527f5361666545524332303a2063616c6c20746f206e6f6e2d636f6e747261637400604482015290519081900360640190fd5b60006060836001600160a01b0316836040518082805190602001908083835b60208310610adf5780518252601f199092019160209182019101610ac0565b6001836020036101000a0380198251168184511680821785525050505050509050019150506000604051808303816000865af19150503d8060008114610b41576040519150601f19603f3d011682016040523d82523d6000602084013e610b46565b606091505b509150915081610b9d576040805162461bcd60e51b815260206004820181905260248201527f5361666545524332303a206c6f772d6c6576656c2063616c6c206661696c6564604482015290519081900360640190fd5b805115610bf657808060200190516020811015610bb957600080fd5b5051610bf65760405162461bcd60e51b815260040180806020018281038252602a815260200180610cee602a913960400191505060405180910390fd5b50505050565b6000813f7fc5d2460186f7233c927e7db2dcc703c0e500b653ca82273b7bfad8045d85a470818114801590610c3057508115155b94935050505056fe536166654d6174683a206d756c7469706c69636174696f6e206f766572666c6f7746696e616c697a61626c6543726f776473616c653a20616c72656164792066696e616c697a6564526566756e6461626c6543726f776473616c653a20676f616c207265616368656443726f776473616c653a2062656e656669636961727920697320746865207a65726f2061646472657373526566756e6461626c6543726f776473616c653a206e6f742066696e616c697a65645361666545524332303a204552433230206f7065726174696f6e20646964206e6f742073756363656564a265627a7a723158203304c62bcdc0458a28eed56bb032d44fe0ff949171edf508a7373e91be37f4f864736f6c63430005100032608060405234801561001057600080fd5b50604051610e1b380380610e1b8339818101604052602081101561003357600080fd5b505160006100486001600160e01b0361011316565b600080546001600160a01b0383166001600160a01b0319909116811790915560408051918252519192507f4101e71e974f68df5e9730cc223280b41654676bbb052cdcc735c3337e64d2d9919081900360200190a1506001600160a01b0381166100e35760405162461bcd60e51b815260040180806020018281038252602d815260200180610dee602d913960400191505060405180910390fd5b6002805460ff196001600160a01b039390931661010002610100600160a81b031990911617919091169055610117565b3390565b610cc8806101266000396000f3fe6080604052600436106100c75760003560e01c80638c52dc4111610074578063c6dbdf611161004e578063c6dbdf6114610257578063e3a9db1a1461026c578063f340fa01146102b1576100c7565b80638c52dc41146101f45780639af6549a14610209578063c19d93fb1461021e576100c7565b806351cff8d9116100a557806351cff8d9146101475780636809691a1461017a578063685ca194146101ad576100c7565b80632348238c146100cc57806338af3eed1461010157806343d726d614610132575b600080fd5b3480156100d857600080fd5b506100ff600480360360208110156100ef57600080fd5b50356001600160a01b03166102d7565b005b34801561010d57600080fd5b506101166103e1565b604080516001600160a01b039092168252519081900360200190f35b34801561013e57600080fd5b506100ff6103f5565b34801561015357600080fd5b506100ff6004803603602081101561016a57600080fd5b50356001600160a01b03166104d4565b34801561018657600080fd5b506100ff6004803603602081101561019d57600080fd5b50356001600160a01b0316610524565b3480156101b957600080fd5b506101e0600480360360208110156101d057600080fd5b50356001600160a01b03166105ee565b604080519115158252519081900360200190f35b34801561020057600080fd5b506100ff61060a565b34801561021557600080fd5b506100ff6106ea565b34801561022a57600080fd5b50610233610777565b6040518082600281111561024357fe5b60ff16815260200191505060405180910390f35b34801561026357600080fd5b50610116610780565b34801561027857600080fd5b5061029f6004803603602081101561028f57600080fd5b50356001600160a01b031661078f565b60408051918252519081900360200190f35b6100ff600480360360208110156102c757600080fd5b50356001600160a01b03166107aa565b6000546001600160a01b03166102eb610802565b6001600160a01b0316146103305760405162461bcd60e51b815260040180806020018281038252602c815260200180610c36602c913960400191505060405180910390fd5b6001600160a01b0381166103755760405162461bcd60e51b815260040180806020018281038252602a815260200180610c0c602a913960400191505060405180910390fd5b600080546001600160a01b0383167fffffffffffffffffffffffff0000000000000000000000000000000000000000909116811790915560408051918252517f4101e71e974f68df5e9730cc223280b41654676bbb052cdcc735c3337e64d2d99181900360200190a150565b60025461010090046001600160a01b031690565b6000546001600160a01b0316610409610802565b6001600160a01b03161461044e5760405162461bcd60e51b815260040180806020018281038252602c815260200180610c36602c913960400191505060405180910390fd5b60006002805460ff169081111561046157fe5b1461049d5760405162461bcd60e51b8152600401808060200182810382526029815260200180610be36029913960400191505060405180910390fd5b6002805460ff1916811790556040517f088672c3a6e342f7cd94a65ba63b79df24a8973927b4d05d803c44bbf787d12f90600090a1565b6104dd816105ee565b6105185760405162461bcd60e51b8152600401808060200182810382526033815260200180610bb06033913960400191505060405180910390fd5b61052181610806565b50565b6000546001600160a01b0316610538610802565b6001600160a01b03161461057d5760405162461bcd60e51b815260040180806020018281038252602c815260200180610c36602c913960400191505060405180910390fd5b6001600160a01b03811660008181526001602052604081208054919055906105ab908263ffffffff6108ed16565b6040805182815290516001600160a01b038416917f7084f5476618d8e60b11ef0d7d3f06914655adb8793e28ff7f018d4c76d505d5919081900360200190a25050565b600060016002805460ff169081111561060357fe5b1492915050565b6000546001600160a01b031661061e610802565b6001600160a01b0316146106635760405162461bcd60e51b815260040180806020018281038252602c815260200180610c36602c913960400191505060405180910390fd5b60006002805460ff169081111561067657fe5b146106b25760405162461bcd60e51b8152600401808060200182810382526032815260200180610c626032913960400191505060405180910390fd5b6002805460ff191660011790556040517f599d8e5a83cffb867d051598c4d70e805d59802d8081c1c7d6dffc5b6aca2b8990600090a1565b6002805460ff16818111156106fb57fe5b146107375760405162461bcd60e51b8152600401808060200182810382526038815260200180610b136038913960400191505060405180910390fd5b6002546040516001600160a01b0361010090920491909116904780156108fc02916000818181858888f19350505050158015610521573d6000803e3d6000fd5b60025460ff1690565b6000546001600160a01b031690565b6001600160a01b031660009081526001602052604090205490565b60006002805460ff16908111156107bd57fe5b146107f95760405162461bcd60e51b815260040180806020018281038252602b815260200180610b85602b913960400191505060405180910390fd5b610521816109d7565b3390565b6000546001600160a01b031661081a610802565b6001600160a01b03161461085f5760405162461bcd60e51b815260040180806020018281038252602c815260200180610c36602c913960400191505060405180910390fd5b6001600160a01b038116600081815260016020526040808220805490839055905190929183156108fc02918491818181858888f193505050501580156108a9573d6000803e3d6000fd5b506040805182815290516001600160a01b038416917f7084f5476618d8e60b11ef0d7d3f06914655adb8793e28ff7f018d4c76d505d5919081900360200190a25050565b80471015610942576040805162461bcd60e51b815260206004820152601d60248201527f416464726573733a20696e73756666696369656e742062616c616e6365000000604482015290519081900360640190fd5b6040516000906001600160a01b0384169083908381818185875af1925050503d806000811461098d576040519150601f19603f3d011682016040523d82523d6000602084013e610992565b606091505b50509050806109d25760405162461bcd60e51b815260040180806020018281038252603a815260200180610b4b603a913960400191505060405180910390fd5b505050565b6000546001600160a01b03166109eb610802565b6001600160a01b031614610a305760405162461bcd60e51b815260040180806020018281038252602c815260200180610c36602c913960400191505060405180910390fd5b6001600160a01b0381166000908152600160205260409020543490610a5b908263ffffffff610ab116565b6001600160a01b038316600081815260016020908152604091829020939093558051848152905191927f2da466a7b24304f47e87fa2e1e5a81b9831ce54fec19055ce277ca2f39ba42c492918290030190a25050565b600082820183811015610b0b576040805162461bcd60e51b815260206004820152601b60248201527f536166654d6174683a206164646974696f6e206f766572666c6f770000000000604482015290519081900360640190fd5b939250505056fe526566756e64457363726f773a2062656e65666963696172792063616e206f6e6c79207769746864726177207768696c6520636c6f736564416464726573733a20756e61626c6520746f2073656e642076616c75652c20726563697069656e74206d61792068617665207265766572746564526566756e64457363726f773a2063616e206f6e6c79206465706f736974207768696c6520616374697665436f6e646974696f6e616c457363726f773a207061796565206973206e6f7420616c6c6f77656420746f207769746864726177526566756e64457363726f773a2063616e206f6e6c7920636c6f7365207768696c65206163746976655365636f6e646172793a206e6577207072696d61727920697320746865207a65726f20616464726573735365636f6e646172793a2063616c6c6572206973206e6f7420746865207072696d617279206163636f756e74526566756e64457363726f773a2063616e206f6e6c7920656e61626c6520726566756e6473207768696c6520616374697665a265627a7a72315820eb592aa9af76c6d541aa4f65ed8f29fd38a05e52c62dec4813b39b8f79bd3bca64736f6c63430005100032526566756e64457363726f773a2062656e656669636961727920697320746865207a65726f206164647265737354696d656443726f776473616c653a206f70656e696e672074696d65206973206265666f72652063757272656e742074696d6554696d656443726f776473616c653a206f70656e696e672074696d65206973206e6f74206265666f726520636c6f73696e672074696d6543726f776473616c653a20746f6b656e20697320746865207a65726f206164647265737343726f776473616c653a2077616c6c657420697320746865207a65726f2061646472657373",
  "linkReferences": {},
  "deployedLinkReferences": {}
}