{
  "_format": "hh-sol-artifact-1",
  "contractName": "ERC777Mock",
  "sourceName": "contracts/IDO_basedon_Openzeppelin/mocks/ERC777Mock.sol",
  "abi": [
    {
      "inputs": [
        {
          "internalType": "address",
          "name": "initialHolder",
          "type": "address"
        },
        {
          "internalType": "uint256",
          "name": "initialBalance",
          "type": "uint256"
        },
        {
          "internalType": "string",
          "name": "name",
          "type": "string"
        },
        {
          "internalType": "string",
          "name": "symbol",
          "type": "string"
        },
        {
          "internalType": "address[]",
          "name": "defaultOperators",
          "type": "address[]"
        }
      ],
      "payable": false,
      "stateMutability": "nonpayable",
      "type": "constructor"
    },
    {
      "anonymous": false,
      "inputs": [
        {
          "indexed": true,
          "internalType": "address",
          "name": "owner",
          "type": "address"
        },
        {
          "indexed": true,
          "internalType": "address",
          "name": "spender",
          "type": "address"
        },
        {
          "indexed": false,
          "internalType": "uint256",
          "name": "value",
          "type": "uint256"
        }
      ],
      "name": "Approval",
      "type": "event"
    },
    {
      "anonymous": false,
      "inputs": [
        {
          "indexed": true,
          "internalType": "address",
          "name": "operator",
          "type": "address"
        },
        {
          "indexed": true,
          "internalType": "address",
          "name": "tokenHolder",
          "type": "address"
        }
      ],
      "name": "AuthorizedOperator",
      "type": "event"
    },
    {
      "anonymous": false,
      "inputs": [
        {
          "indexed": true,
          "internalType": "address",
          "name": "operator",
          "type": "address"
        },
        {
          "indexed": true,
          "internalType": "address",
          "name": "from",
          "type": "address"
        },
        {
          "indexed": false,
          "internalType": "uint256",
          "name": "amount",
          "type": "uint256"
        },
        {
          "indexed": false,
          "internalType": "bytes",
          "name": "data",
          "type": "bytes"
        },
        {
          "indexed": false,
          "internalType": "bytes",
          "name": "operatorData",
          "type": "bytes"
        }
      ],
      "name": "Burned",
      "type": "event"
    },
    {
      "anonymous": false,
      "inputs": [
        {
          "indexed": true,
          "internalType": "address",
          "name": "operator",
          "type": "address"
        },
        {
          "indexed": true,
          "internalType": "address",
          "name": "to",
          "type": "address"
        },
        {
          "indexed": false,
          "internalType": "uint256",
          "name": "amount",
          "type": "uint256"
        },
        {
          "indexed": false,
          "internalType": "bytes",
          "name": "data",
          "type": "bytes"
        },
        {
          "indexed": false,
          "internalType": "bytes",
          "name": "operatorData",
          "type": "bytes"
        }
      ],
      "name": "Minted",
      "type": "event"
    },
    {
      "anonymous": false,
      "inputs": [
        {
          "indexed": true,
          "internalType": "address",
          "name": "operator",
          "type": "address"
        },
        {
          "indexed": true,
          "internalType": "address",
          "name": "tokenHolder",
          "type": "address"
        }
      ],
      "name": "RevokedOperator",
      "type": "event"
    },
    {
      "anonymous": false,
      "inputs": [
        {
          "indexed": true,
          "internalType": "address",
          "name": "operator",
          "type": "address"
        },
        {
          "indexed": true,
          "internalType": "address",
          "name": "from",
          "type": "address"
        },
        {
          "indexed": true,
          "internalType": "address",
          "name": "to",
          "type": "address"
        },
        {
          "indexed": false,
          "internalType": "uint256",
          "name": "amount",
          "type": "uint256"
        },
        {
          "indexed": false,
          "internalType": "bytes",
          "name": "data",
          "type": "bytes"
        },
        {
          "indexed": false,
          "internalType": "bytes",
          "name": "operatorData",
          "type": "bytes"
        }
      ],
      "name": "Sent",
      "type": "event"
    },
    {
      "anonymous": false,
      "inputs": [
        {
          "indexed": true,
          "internalType": "address",
          "name": "from",
          "type": "address"
        },
        {
          "indexed": true,
          "internalType": "address",
          "name": "to",
          "type": "address"
        },
        {
          "indexed": false,
          "internalType": "uint256",
          "name": "value",
          "type": "uint256"
        }
      ],
      "name": "Transfer",
      "type": "event"
    },
    {
      "constant": true,
      "inputs": [
        {
          "internalType": "address",
          "name": "holder",
          "type": "address"
        },
        {
          "internalType": "address",
          "name": "spender",
          "type": "address"
        }
      ],
      "name": "allowance",
      "outputs": [
        {
          "internalType": "uint256",
          "name": "",
          "type": "uint256"
        }
      ],
      "payable": false,
      "stateMutability": "view",
      "type": "function"
    },
    {
      "constant": false,
      "inputs": [
        {
          "internalType": "address",
          "name": "spender",
          "type": "address"
        },
        {
          "internalType": "uint256",
          "name": "value",
          "type": "uint256"
        }
      ],
      "name": "approve",
      "outputs": [
        {
          "internalType": "bool",
          "name": "",
          "type": "bool"
        }
      ],
      "payable": false,
      "stateMutability": "nonpayable",
      "type": "function"
    },
    {
      "constant": false,
      "inputs": [
        {
          "internalType": "address",
          "name": "holder",
          "type": "address"
        },
        {
          "internalType": "address",
          "name": "spender",
          "type": "address"
        },
        {
          "internalType": "uint256",
          "name": "value",
          "type": "uint256"
        }
      ],
      "name": "approveInternal",
      "outputs": [],
      "payable": false,
      "stateMutability": "nonpayable",
      "type": "function"
    },
    {
      "constant": false,
      "inputs": [
        {
          "internalType": "address",
          "name": "operator",
          "type": "address"
        }
      ],
      "name": "authorizeOperator",
      "outputs": [],
      "payable": false,
      "stateMutability": "nonpayable",
      "type": "function"
    },
    {
      "constant": true,
      "inputs": [
        {
          "internalType": "address",
          "name": "tokenHolder",
          "type": "address"
        }
      ],
      "name": "balanceOf",
      "outputs": [
        {
          "internalType": "uint256",
          "name": "",
          "type": "uint256"
        }
      ],
      "payable": false,
      "stateMutability": "view",
      "type": "function"
    },
    {
      "constant": false,
      "inputs": [
        {
          "internalType": "uint256",
          "name": "amount",
          "type": "uint256"
        },
        {
          "internalType": "bytes",
          "name": "data",
          "type": "bytes"
        }
      ],
      "name": "burn",
      "outputs": [],
      "payable": false,
      "stateMutability": "nonpayable",
      "type": "function"
    },
    {
      "constant": true,
      "inputs": [],
      "name": "decimals",
      "outputs": [
        {
          "internalType": "uint8",
          "name": "",
          "type": "uint8"
        }
      ],
      "payable": false,
      "stateMutability": "pure",
      "type": "function"
    },
    {
      "constant": true,
      "inputs": [],
      "name": "defaultOperators",
      "outputs": [
        {
          "internalType": "address[]",
          "name": "",
          "type": "address[]"
        }
      ],
      "payable": false,
      "stateMutability": "view",
      "type": "function"
    },
    {
      "constant": true,
      "inputs": [],
      "name": "granularity",
      "outputs": [
        {
          "internalType": "uint256",
          "name": "",
          "type": "uint256"
        }
      ],
      "payable": false,
      "stateMutability": "view",
      "type": "function"
    },
    {
      "constant": true,
      "inputs": [
        {
          "internalType": "address",
          "name": "operator",
          "type": "address"
        },
        {
          "internalType": "address",
          "name": "tokenHolder",
          "type": "address"
        }
      ],
      "name": "isOperatorFor",
      "outputs": [
        {
          "internalType": "bool",
          "name": "",
          "type": "bool"
        }
      ],
      "payable": false,
      "stateMutability": "view",
      "type": "function"
    },
    {
      "constant": false,
      "inputs": [
        {
          "internalType": "address",
          "name": "operator",
          "type": "address"
        },
        {
          "internalType": "address",
          "name": "to",
          "type": "address"
        },
        {
          "internalType": "uint256",
          "name": "amount",
          "type": "uint256"
        },
        {
          "internalType": "bytes",
          "name": "userData",
          "type": "bytes"
        },
        {
          "internalType": "bytes",
          "name": "operatorData",
          "type": "bytes"
        }
      ],
      "name": "mintInternal",
      "outputs": [],
      "payable": false,
      "stateMutability": "nonpayable",
      "type": "function"
    },
    {
      "constant": true,
      "inputs": [],
      "name": "name",
      "outputs": [
        {
          "internalType": "string",
          "name": "",
          "type": "string"
        }
      ],
      "payable": false,
      "stateMutability": "view",
      "type": "function"
    },
    {
      "constant": false,
      "inputs": [
        {
          "internalType": "address",
          "name": "account",
          "type": "address"
        },
        {
          "internalType": "uint256",
          "name": "amount",
          "type": "uint256"
        },
        {
          "internalType": "bytes",
          "name": "data",
          "type": "bytes"
        },
        {
          "internalType": "bytes",
          "name": "operatorData",
          "type": "bytes"
        }
      ],
      "name": "operatorBurn",
      "outputs": [],
      "payable": false,
      "stateMutability": "nonpayable",
      "type": "function"
    },
    {
      "constant": false,
      "inputs": [
        {
          "internalType": "address",
          "name": "sender",
          "type": "address"
        },
        {
          "internalType": "address",
          "name": "recipient",
          "type": "address"
        },
        {
          "internalType": "uint256",
          "name": "amount",
          "type": "uint256"
        },
        {
          "internalType": "bytes",
          "name": "data",
          "type": "bytes"
        },
        {
          "internalType": "bytes",
          "name": "operatorData",
          "type": "bytes"
        }
      ],
      "name": "operatorSend",
      "outputs": [],
      "payable": false,
      "stateMutability": "nonpayable",
      "type": "function"
    },
    {
      "constant": false,
      "inputs": [
        {
          "internalType": "address",
          "name": "operator",
          "type": "address"
        }
      ],
      "name": "revokeOperator",
      "outputs": [],
      "payable": false,
      "stateMutability": "nonpayable",
      "type": "function"
    },
    {
      "constant": false,
      "inputs": [
        {
          "internalType": "address",
          "name": "recipient",
          "type": "address"
        },
        {
          "internalType": "uint256",
          "name": "amount",
          "type": "uint256"
        },
        {
          "internalType": "bytes",
          "name": "data",
          "type": "bytes"
        }
      ],
      "name": "send",
      "outputs": [],
      "payable": false,
      "stateMutability": "nonpayable",
      "type": "function"
    },
    {
      "constant": true,
      "inputs": [],
      "name": "symbol",
      "outputs": [
        {
          "internalType": "string",
          "name": "",
          "type": "string"
        }
      ],
      "payable": false,
      "stateMutability": "view",
      "type": "function"
    },
    {
      "constant": true,
      "inputs": [],
      "name": "totalSupply",
      "outputs": [
        {
          "internalType": "uint256",
          "name": "",
          "type": "uint256"
        }
      ],
      "payable": false,
      "stateMutability": "view",
      "type": "function"
    },
    {
      "constant": false,
      "inputs": [
        {
          "internalType": "address",
          "name": "recipient",
          "type": "address"
        },
        {
          "internalType": "uint256",
          "name": "amount",
          "type": "uint256"
        }
      ],
      "name": "transfer",
      "outputs": [
        {
          "internalType": "bool",
          "name": "",
          "type": "bool"
        }
      ],
      "payable": false,
      "stateMutability": "nonpayable",
      "type": "function"
    },
    {
      "constant": false,
      "inputs": [
        {
          "internalType": "address",
          "name": "holder",
          "type": "address"
        },
        {
          "internalType": "address",
          "name": "recipient",
          "type": "address"
        },
        {
          "internalType": "uint256",
          "name": "amount",
          "type": "uint256"
        }
      ],
      "name": "transferFrom",
      "outputs": [
        {
          "internalType": "bool",
          "name": "",
          "type": "bool"
        }
      ],
      "payable": false,
      "stateMutability": "nonpayable",
      "type": "function"
    }
  ],
  "bytecode": "0x60806040523480156200001157600080fd5b5060405162002edb38038062002edb833981810160405260a08110156200003757600080fd5b815160208301516040808501805191519395929483019291846401000000008211156200006357600080fd5b9083019060208201858111156200007957600080fd5b82516401000000008111828201881017156200009457600080fd5b82525081516020918201929091019080838360005b83811015620000c3578181015183820152602001620000a9565b50505050905090810190601f168015620000f15780820380516001836020036101000a031916815260200191505b50604052602001805160405193929190846401000000008211156200011557600080fd5b9083019060208201858111156200012b57600080fd5b82516401000000008111828201881017156200014657600080fd5b82525081516020918201929091019080838360005b83811015620001755781810151838201526020016200015b565b50505050905090810190601f168015620001a35780820380516001836020036101000a031916815260200191505b5060405260200180516040519392919084640100000000821115620001c757600080fd5b908301906020820185811115620001dd57600080fd5b8251866020820283011164010000000082111715620001fb57600080fd5b82525081516020918201928201910280838360005b838110156200022a57818101518382015260200162000210565b5050505090500160405250505082828282600290805190602001906200025292919062000a0a565b5081516200026890600390602085019062000a0a565b5080516200027e90600490602084019062000a8f565b5060005b600454811015620002de5760016005600060048481548110620002a157fe5b6000918252602080832091909101546001600160a01b031683528201929092526040019020805460ff191691151591909117905560010162000282565b50604080516a22a9219b9b9baa37b5b2b760a91b8152815190819003600b0181206329965a1d60e01b82523060048301819052602483019190915260448201529051731820a4b7618bde71dce8cdc73aab6c95905fad24916329965a1d91606480830192600092919082900301818387803b1580156200035d57600080fd5b505af115801562000372573d6000803e3d6000fd5b5050604080516922a92199182a37b5b2b760b11b8152815190819003600a0181206329965a1d60e01b82523060048301819052602483019190915260448201529051731820a4b7618bde71dce8cdc73aab6c95905fad2493506329965a1d9250606480830192600092919082900301818387803b158015620003f357600080fd5b505af115801562000408573d6000803e3d6000fd5b5050505050505062000451620004236200045c60201b60201c565b868660405180602001604052806000815250604051806020016040528060008152506200046160201b60201c565b505050505062000b39565b335b90565b6001600160a01b038416620004bd576040805162461bcd60e51b815260206004820181905260248201527f4552433737373a206d696e7420746f20746865207a65726f2061646472657373604482015290519081900360640190fd5b620004d983600154620006ae60201b6200200d1790919060201c565b6001556001600160a01b038416600090815260208181526040909120546200050c9185906200200d620006ae821b17901c565b6001600160a01b038516600090815260208190526040812091909155620005449086908686868660016001600160e01b036200071016565b836001600160a01b0316856001600160a01b03167f2fe5be0146f74c5bce36c0b80911af6c7d86ff27e89d5cfa61fc681327954e5d858585604051808481526020018060200180602001838103835285818151815260200191508051906020019080838360005b83811015620005c5578181015183820152602001620005ab565b50505050905090810190601f168015620005f35780820380516001836020036101000a031916815260200191505b50838103825284518152845160209182019186019080838360005b83811015620006285781810151838201526020016200060e565b50505050905090810190601f168015620006565780820380516001836020036101000a031916815260200191505b509550505050505060405180910390a36040805184815290516001600160a01b038616916000917fddf252ad1be2c89b69c2b068fc378daa952ba7f163c4a11628f55a4df523b3ef9181900360200190a35050505050565b60008282018381101562000709576040805162461bcd60e51b815260206004820152601b60248201527f536166654d6174683a206164646974696f6e206f766572666c6f770000000000604482015290519081900360640190fd5b9392505050565b6040805163555ddc6560e11b81526001600160a01b03871660048201527fb281fc8c12954d22544db45de3159a39272895b169a852b314f9cc762e44c53b60248201529051600091731820a4b7618bde71dce8cdc73aab6c95905fad249163aabbb8ca91604480820192602092909190829003018186803b1580156200079557600080fd5b505afa158015620007aa573d6000803e3d6000fd5b505050506040513d6020811015620007c157600080fd5b505190506001600160a01b038116156200095f57806001600160a01b03166223de298989898989896040518763ffffffff1660e01b815260040180876001600160a01b03166001600160a01b03168152602001866001600160a01b03166001600160a01b03168152602001856001600160a01b03166001600160a01b031681526020018481526020018060200180602001838103835285818151815260200191508051906020019080838360005b83811015620008895781810151838201526020016200086f565b50505050905090810190601f168015620008b75780820380516001836020036101000a031916815260200191505b50838103825284518152845160209182019186019080838360005b83811015620008ec578181015183820152602001620008d2565b50505050905090810190601f1680156200091a5780820380516001836020036101000a031916815260200191505b5098505050505050505050600060405180830381600087803b1580156200094057600080fd5b505af115801562000955573d6000803e3d6000fd5b50505050620009c3565b8115620009c35762000985866001600160a01b0316620009cd60201b620020671760201c565b15620009c35760405162461bcd60e51b815260040180806020018281038252604d81526020018062002e8e604d913960600191505060405180910390fd5b5050505050505050565b6000813f7fc5d2460186f7233c927e7db2dcc703c0e500b653ca82273b7bfad8045d85a47081811480159062000a0257508115155b949350505050565b828054600181600116156101000203166002900490600052602060002090601f016020900481019282601f1062000a4d57805160ff191683800117855562000a7d565b8280016001018555821562000a7d579182015b8281111562000a7d57825182559160200191906001019062000a60565b5062000a8b92915062000af5565b5090565b82805482825590600052602060002090810192821562000ae7579160200282015b8281111562000ae757825182546001600160a01b0319166001600160a01b0390911617825560209092019160019091019062000ab0565b5062000a8b92915062000b12565b6200045e91905b8082111562000a8b576000815560010162000afc565b6200045e91905b8082111562000a8b5780546001600160a01b031916815560010162000b19565b6123458062000b496000396000f3fe608060405234801561001057600080fd5b506004361061016c5760003560e01c806370a08231116100cd578063d95b637111610081578063fad8b32a11610066578063fad8b32a14610765578063fc673c4f1461078b578063fe9d9303146108cd5761016c565b8063d95b637114610709578063dd62ed3e146107375761016c565b806395d89b41116100b257806395d89b411461061a5780639bd9bbc614610622578063a9059cbb146106dd5761016c565b806370a08231146105ce578063959b8c3f146105f45761016c565b8063313ce56711610124578063556f0dc711610109578063556f0dc71461044357806356189cb41461044b57806362ad1b83146104815761016c565b8063313ce567146102d6578063502f2b8b146102f45761016c565b8063095ea7b311610155578063095ea7b31461024657806318160ddd1461028657806323b872dd146102a05761016c565b806306e485381461017157806306fdde03146101c9575b600080fd5b61017961097a565b60408051602080825283518183015283519192839290830191858101910280838360005b838110156101b557818101518382015260200161019d565b505050509050019250505060405180910390f35b6101d16109dc565b6040805160208082528351818301528351919283929083019185019080838360005b8381101561020b5781810151838201526020016101f3565b50505050905090810190601f1680156102385780820380516001836020036101000a031916815260200191505b509250505060405180910390f35b6102726004803603604081101561025c57600080fd5b506001600160a01b038135169060200135610a66565b604080519115158252519081900360200190f35b61028e610a88565b60408051918252519081900360200190f35b610272600480360360608110156102b657600080fd5b506001600160a01b03813581169160208101359091169060400135610a8e565b6102de610c11565b6040805160ff9092168252519081900360200190f35b610441600480360360a081101561030a57600080fd5b6001600160a01b0382358116926020810135909116916040820135919081019060808101606082013564010000000081111561034557600080fd5b82018360208201111561035757600080fd5b8035906020019184600183028401116401000000008311171561037957600080fd5b91908080601f01602080910402602001604051908101604052809392919081815260200183838082843760009201919091525092959493602081019350359150506401000000008111156103cc57600080fd5b8201836020820111156103de57600080fd5b8035906020019184600183028401116401000000008311171561040057600080fd5b91908080601f016020809104026020016040519081016040528093929190818152602001838380828437600092019190915250929550610c16945050505050565b005b61028e610c2a565b6104416004803603606081101561046157600080fd5b506001600160a01b03813581169160208101359091169060400135610c2f565b610441600480360360a081101561049757600080fd5b6001600160a01b038235811692602081013590911691604082013591908101906080810160608201356401000000008111156104d257600080fd5b8201836020820111156104e457600080fd5b8035906020019184600183028401116401000000008311171561050657600080fd5b91908080601f016020809104026020016040519081016040528093929190818152602001838380828437600092019190915250929594936020810193503591505064010000000081111561055957600080fd5b82018360208201111561056b57600080fd5b8035906020019184600183028401116401000000008311171561058d57600080fd5b91908080601f016020809104026020016040519081016040528093929190818152602001838380828437600092019190915250929550610c3f945050505050565b61028e600480360360208110156105e457600080fd5b50356001600160a01b0316610ca2565b6104416004803603602081101561060a57600080fd5b50356001600160a01b0316610cbd565b6101d1610e09565b6104416004803603606081101561063857600080fd5b6001600160a01b038235169160208101359181019060608101604082013564010000000081111561066857600080fd5b82018360208201111561067a57600080fd5b8035906020019184600183028401116401000000008311171561069c57600080fd5b91908080601f016020809104026020016040519081016040528093929190818152602001838380828437600092019190915250929550610e6a945050505050565b610272600480360360408110156106f357600080fd5b506001600160a01b038135169060200135610e97565b6102726004803603604081101561071f57600080fd5b506001600160a01b0381358116916020013516610f70565b61028e6004803603604081101561074d57600080fd5b506001600160a01b0381358116916020013516611012565b6104416004803603602081101561077b57600080fd5b50356001600160a01b031661103d565b610441600480360360808110156107a157600080fd5b6001600160a01b03823516916020810135918101906060810160408201356401000000008111156107d157600080fd5b8201836020820111156107e357600080fd5b8035906020019184600183028401116401000000008311171561080557600080fd5b91908080601f016020809104026020016040519081016040528093929190818152602001838380828437600092019190915250929594936020810193503591505064010000000081111561085857600080fd5b82018360208201111561086a57600080fd5b8035906020019184600183028401116401000000008311171561088c57600080fd5b91908080601f016020809104026020016040519081016040528093929190818152602001838380828437600092019190915250929550611189945050505050565b610441600480360360408110156108e357600080fd5b8135919081019060408101602082013564010000000081111561090557600080fd5b82018360208201111561091757600080fd5b8035906020019184600183028401116401000000008311171561093957600080fd5b91908080601f0160208091040260200160405190810160405280939291908181526020018383808284376000920191909152509295506111ef945050505050565b606060048054806020026020016040519081016040528092919081815260200182805480156109d257602002820191906000526020600020905b81546001600160a01b031681526001909101906020018083116109b4575b5050505050905090565b60028054604080516020601f60001961010060018716150201909416859004938401819004810282018101909252828152606093909290918301828280156109d25780601f10610a3a576101008083540402835291602001916109d2565b820191906000526020600020905b815481529060010190602001808311610a4857509395945050505050565b600080610a7161121d565b9050610a7e818585611221565b5060019392505050565b60015490565b60006001600160a01b038316610ad55760405162461bcd60e51b815260040180806020018281038252602481526020018061222c6024913960400191505060405180910390fd5b6001600160a01b038416610b1a5760405162461bcd60e51b81526004018080602001828103825260268152602001806122a56026913960400191505060405180910390fd5b6000610b2461121d565b9050610b5281868686604051806020016040528060008152506040518060200160405280600081525061130d565b610b7e818686866040518060200160405280600081525060405180602001604052806000815250611555565b610bd88582610bd38660405180606001604052806029815260200161227c602991396001600160a01b03808c166000908152600860209081526040808320938b1683529290522054919063ffffffff61176e16565b611221565b610c068186868660405180602001604052806000815250604051806020016040528060008152506000611805565b506001949350505050565b601290565b610c238585858585611aa5565b5050505050565b600190565b610c3a838383611221565b505050565b610c50610c4a61121d565b86610f70565b610c8b5760405162461bcd60e51b815260040180806020018281038252602c815260200180612250602c913960400191505060405180910390fd5b610c23610c9661121d565b86868686866001611cd0565b6001600160a01b031660009081526020819052604090205490565b806001600160a01b0316610ccf61121d565b6001600160a01b03161415610d155760405162461bcd60e51b81526004018080602001828103825260248152602001806121766024913960400191505060405180910390fd5b6001600160a01b03811660009081526005602052604090205460ff1615610d785760076000610d4261121d565b6001600160a01b03908116825260208083019390935260409182016000908120918516815292529020805460ff19169055610dbf565b600160066000610d8661121d565b6001600160a01b03908116825260208083019390935260409182016000908120918616815292529020805460ff19169115159190911790555b610dc761121d565b6001600160a01b0316816001600160a01b03167ff4caeb2d6ca8932a215a353d0703c326ec2d81fc68170f320eb2ab49e9df61f960405160405180910390a350565b60038054604080516020601f60026000196101006001881615020190951694909404938401819004810282018101909252828152606093909290918301828280156109d25780601f10610a3a576101008083540402835291602001916109d2565b610c3a610e7561121d565b610e7d61121d565b858585604051806020016040528060008152506001611cd0565b60006001600160a01b038316610ede5760405162461bcd60e51b815260040180806020018281038252602481526020018061222c6024913960400191505060405180910390fd5b6000610ee861121d565b9050610f1681828686604051806020016040528060008152506040518060200160405280600081525061130d565b610f42818286866040518060200160405280600081525060405180602001604052806000815250611555565b610a7e8182868660405180602001604052806000815250604051806020016040528060008152506000611805565b6000816001600160a01b0316836001600160a01b03161480610fdb57506001600160a01b03831660009081526005602052604090205460ff168015610fdb57506001600160a01b0380831660009081526007602090815260408083209387168352929052205460ff16155b8061100b57506001600160a01b0380831660009081526006602090815260408083209387168352929052205460ff165b9392505050565b6001600160a01b03918216600090815260086020908152604080832093909416825291909152205490565b61104561121d565b6001600160a01b0316816001600160a01b031614156110955760405162461bcd60e51b815260040180806020018281038252602181526020018061219a6021913960400191505060405180910390fd5b6001600160a01b03811660009081526005602052604090205460ff1615611101576001600760006110c461121d565b6001600160a01b03908116825260208083019390935260409182016000908120918616815292529020805460ff191691151591909117905561113f565b6006600061110d61121d565b6001600160a01b03908116825260208083019390935260409182016000908120918516815292529020805460ff191690555b61114761121d565b6001600160a01b0316816001600160a01b03167f50546e66e5f44d728365dc3908c63bc5cfeeab470722c1677e3073a6ac294aa160405160405180910390a350565b61119a61119461121d565b85610f70565b6111d55760405162461bcd60e51b815260040180806020018281038252602c815260200180612250602c913960400191505060405180910390fd5b6111e96111e061121d565b85858585611de0565b50505050565b6112196111fa61121d565b61120261121d565b848460405180602001604052806000815250611de0565b5050565b3390565b6001600160a01b0383166112665760405162461bcd60e51b81526004018080602001828103825260258152602001806120e66025913960400191505060405180910390fd5b6001600160a01b0382166112ab5760405162461bcd60e51b81526004018080602001828103825260238152602001806122ee6023913960400191505060405180910390fd5b6001600160a01b03808416600081815260086020908152604080832094871680845294825291829020859055815185815291517f8c5be1e5ebec7d5bd14f71427d1e84f3dd0314c0f7b2291e5b200ac8c7c3b9259281900390910190a3505050565b6040805163555ddc6560e11b81526001600160a01b03871660048201527f29ddb589b1fb5fc7cf394961c1adf5f8c6454761adf795e67fe149f658abe89560248201529051600091731820a4b7618bde71dce8cdc73aab6c95905fad249163aabbb8ca91604480820192602092909190829003018186803b15801561139157600080fd5b505afa1580156113a5573d6000803e3d6000fd5b505050506040513d60208110156113bb57600080fd5b505190506001600160a01b0381161561154c57806001600160a01b03166375ab97828888888888886040518763ffffffff1660e01b815260040180876001600160a01b03166001600160a01b03168152602001866001600160a01b03166001600160a01b03168152602001856001600160a01b03166001600160a01b031681526020018481526020018060200180602001838103835285818151815260200191508051906020019080838360005b83811015611481578181015183820152602001611469565b50505050905090810190601f1680156114ae5780820380516001836020036101000a031916815260200191505b50838103825284518152845160209182019186019080838360005b838110156114e15781810151838201526020016114c9565b50505050905090810190601f16801561150e5780820380516001836020036101000a031916815260200191505b5098505050505050505050600060405180830381600087803b15801561153357600080fd5b505af1158015611547573d6000803e3d6000fd5b505050505b50505050505050565b6115988360405180606001604052806027815260200161212d602791396001600160a01b038816600090815260208190526040902054919063ffffffff61176e16565b6001600160a01b0380871660009081526020819052604080822093909355908616815220546115cd908463ffffffff61200d16565b600080866001600160a01b03166001600160a01b0316815260200190815260200160002081905550836001600160a01b0316856001600160a01b0316876001600160a01b03167f06b541ddaa720db2b10a4d0cdac39b8d360425fc073085fac19bc82614677987868686604051808481526020018060200180602001838103835285818151815260200191508051906020019080838360005b8381101561167e578181015183820152602001611666565b50505050905090810190601f1680156116ab5780820380516001836020036101000a031916815260200191505b50838103825284518152845160209182019186019080838360005b838110156116de5781810151838201526020016116c6565b50505050905090810190601f16801561170b5780820380516001836020036101000a031916815260200191505b509550505050505060405180910390a4836001600160a01b0316856001600160a01b03167fddf252ad1be2c89b69c2b068fc378daa952ba7f163c4a11628f55a4df523b3ef856040518082815260200191505060405180910390a3505050505050565b600081848411156117fd5760405162461bcd60e51b81526004018080602001828103825283818151815260200191508051906020019080838360005b838110156117c25781810151838201526020016117aa565b50505050905090810190601f1680156117ef5780820380516001836020036101000a031916815260200191505b509250505060405180910390fd5b505050900390565b6040805163555ddc6560e11b81526001600160a01b03871660048201527fb281fc8c12954d22544db45de3159a39272895b169a852b314f9cc762e44c53b60248201529051600091731820a4b7618bde71dce8cdc73aab6c95905fad249163aabbb8ca91604480820192602092909190829003018186803b15801561188957600080fd5b505afa15801561189d573d6000803e3d6000fd5b505050506040513d60208110156118b357600080fd5b505190506001600160a01b03811615611a4757806001600160a01b03166223de298989898989896040518763ffffffff1660e01b815260040180876001600160a01b03166001600160a01b03168152602001866001600160a01b03166001600160a01b03168152602001856001600160a01b03166001600160a01b031681526020018481526020018060200180602001838103835285818151815260200191508051906020019080838360005b83811015611978578181015183820152602001611960565b50505050905090810190601f1680156119a55780820380516001836020036101000a031916815260200191505b50838103825284518152845160209182019186019080838360005b838110156119d85781810151838201526020016119c0565b50505050905090810190601f168015611a055780820380516001836020036101000a031916815260200191505b5098505050505050505050600060405180830381600087803b158015611a2a57600080fd5b505af1158015611a3e573d6000803e3d6000fd5b50505050611a9b565b8115611a9b57611a5f866001600160a01b0316612067565b15611a9b5760405162461bcd60e51b815260040180806020018281038252604d8152602001806121df604d913960600191505060405180910390fd5b5050505050505050565b6001600160a01b038416611b00576040805162461bcd60e51b815260206004820181905260248201527f4552433737373a206d696e7420746f20746865207a65726f2061646472657373604482015290519081900360640190fd5b600154611b13908463ffffffff61200d16565b6001556001600160a01b038416600090815260208190526040902054611b3f908463ffffffff61200d16565b6001600160a01b038516600090815260208190526040812091909155611b6c908690868686866001611805565b836001600160a01b0316856001600160a01b03167f2fe5be0146f74c5bce36c0b80911af6c7d86ff27e89d5cfa61fc681327954e5d858585604051808481526020018060200180602001838103835285818151815260200191508051906020019080838360005b83811015611beb578181015183820152602001611bd3565b50505050905090810190601f168015611c185780820380516001836020036101000a031916815260200191505b50838103825284518152845160209182019186019080838360005b83811015611c4b578181015183820152602001611c33565b50505050905090810190601f168015611c785780820380516001836020036101000a031916815260200191505b509550505050505060405180910390a36040805184815290516001600160a01b038616916000917fddf252ad1be2c89b69c2b068fc378daa952ba7f163c4a11628f55a4df523b3ef9181900360200190a35050505050565b6001600160a01b038716611d155760405162461bcd60e51b81526004018080602001828103825260248152602001806121bb6024913960400191505060405180910390fd5b6001600160a01b038616611d5a5760405162461bcd60e51b815260040180806020018281038252602281526020018061210b6022913960400191505060405180910390fd5b6001600160a01b038516611db5576040805162461bcd60e51b815260206004820181905260248201527f4552433737373a2073656e6420746f20746865207a65726f2061646472657373604482015290519081900360640190fd5b611dc387878787878761130d565b611dd1878787878787611555565b61154c87878787878787611805565b6001600160a01b038416611e255760405162461bcd60e51b81526004018080602001828103825260228152602001806121546022913960400191505060405180910390fd5b611e348585600086868661130d565b611e77836040518060600160405280602381526020016122cb602391396001600160a01b038716600090815260208190526040902054919063ffffffff61176e16565b6001600160a01b038516600090815260208190526040902055600154611ea3908463ffffffff6120a316565b600181905550836001600160a01b0316856001600160a01b03167fa78a9be3a7b862d26933ad85fb11d80ef66b8f972d7cbba06621d583943a4098858585604051808481526020018060200180602001838103835285818151815260200191508051906020019080838360005b83811015611f28578181015183820152602001611f10565b50505050905090810190601f168015611f555780820380516001836020036101000a031916815260200191505b50838103825284518152845160209182019186019080838360005b83811015611f88578181015183820152602001611f70565b50505050905090810190601f168015611fb55780820380516001836020036101000a031916815260200191505b509550505050505060405180910390a36040805184815290516000916001600160a01b038716917fddf252ad1be2c89b69c2b068fc378daa952ba7f163c4a11628f55a4df523b3ef9181900360200190a35050505050565b60008282018381101561100b576040805162461bcd60e51b815260206004820152601b60248201527f536166654d6174683a206164646974696f6e206f766572666c6f770000000000604482015290519081900360640190fd5b6000813f7fc5d2460186f7233c927e7db2dcc703c0e500b653ca82273b7bfad8045d85a47081811480159061209b57508115155b949350505050565b600061100b83836040518060400160405280601e81526020017f536166654d6174683a207375627472616374696f6e206f766572666c6f77000081525061176e56fe4552433737373a20617070726f76652066726f6d20746865207a65726f20616464726573734552433737373a2073656e642066726f6d20746865207a65726f20616464726573734552433737373a207472616e7366657220616d6f756e7420657863656564732062616c616e63654552433737373a206275726e2066726f6d20746865207a65726f20616464726573734552433737373a20617574686f72697a696e672073656c66206173206f70657261746f724552433737373a207265766f6b696e672073656c66206173206f70657261746f724552433737373a206f70657261746f7220697320746865207a65726f20616464726573734552433737373a20746f6b656e20726563697069656e7420636f6e747261637420686173206e6f20696d706c656d656e74657220666f7220455243373737546f6b656e73526563697069656e744552433737373a207472616e7366657220746f20746865207a65726f20616464726573734552433737373a2063616c6c6572206973206e6f7420616e206f70657261746f7220666f7220686f6c6465724552433737373a207472616e7366657220616d6f756e74206578636565647320616c6c6f77616e63654552433737373a207472616e736665722066726f6d20746865207a65726f20616464726573734552433737373a206275726e20616d6f756e7420657863656564732062616c616e63654552433737373a20617070726f766520746f20746865207a65726f2061646472657373a265627a7a72315820f8b7233608cbb631649197ac624ab0b1e8ed613aea43df9c95e331ebba5afeaa64736f6c634300051000324552433737373a20746f6b656e20726563697069656e7420636f6e747261637420686173206e6f20696d706c656d656e74657220666f7220455243373737546f6b656e73526563697069656e74",
  "linkReferences": {},
  "deployedLinkReferences": {}
}