{
  "_format": "hh-sol-artifact-1",
  "contractName": "RolesMock",
  "sourceName": "contracts/IDO_basedon_Openzeppelin/mocks/RolesMock.sol",
  "abi": [
    {
      "constant": false,
      "inputs": [
        {
          "internalType": "address",
          "name": "account",
          "type": "address"
        }
      ],
      "name": "add",
      "outputs": [],
      "payable": false,
      "stateMutability": "nonpayable",
      "type": "function"
    },
    {
      "constant": true,
      "inputs": [
        {
          "internalType": "address",
          "name": "account",
          "type": "address"
        }
      ],
      "name": "has",
      "outputs": [
        {
          "internalType": "bool",
          "name": "",
          "type": "bool"
        }
      ],
      "payable": false,
      "stateMutability": "view",
      "type": "function"
    },
    {
      "constant": false,
      "inputs": [
        {
          "internalType": "address",
          "name": "account",
          "type": "address"
        }
      ],
      "name": "remove",
      "outputs": [],
      "payable": false,
      "stateMutability": "nonpayable",
      "type": "function"
    }
  ],
  "bytecode": "0x608060405234801561001057600080fd5b506102d2806100206000396000f3fe608060405234801561001057600080fd5b50600436106100415760003560e01c80630a3b0a4f1461004657806321887c3d1461006e57806329092d0e146100a8575b600080fd5b61006c6004803603602081101561005c57600080fd5b50356001600160a01b03166100ce565b005b6100946004803603602081101561008457600080fd5b50356001600160a01b03166100e2565b604080519115158252519081900360200190f35b61006c600480360360208110156100be57600080fd5b50356001600160a01b03166100fa565b6100df60008263ffffffff61010b16565b50565b60006100f4818363ffffffff61018c16565b92915050565b6100df60008263ffffffff6101f316565b610115828261018c565b15610167576040805162461bcd60e51b815260206004820152601f60248201527f526f6c65733a206163636f756e7420616c72656164792068617320726f6c6500604482015290519081900360640190fd5b6001600160a01b0316600090815260209190915260409020805460ff19166001179055565b60006001600160a01b0382166101d35760405162461bcd60e51b815260040180806020018281038252602281526020018061027c6022913960400191505060405180910390fd5b506001600160a01b03166000908152602091909152604090205460ff1690565b6101fd828261018c565b6102385760405162461bcd60e51b815260040180806020018281038252602181526020018061025b6021913960400191505060405180910390fd5b6001600160a01b0316600090815260209190915260409020805460ff1916905556fe526f6c65733a206163636f756e7420646f6573206e6f74206861766520726f6c65526f6c65733a206163636f756e7420697320746865207a65726f2061646472657373a265627a7a72315820c7fec06f8425187ed7e6c34b00073cf36ca3b50f34274cff337f92fb6fc1a28664736f6c63430005100032",
  "linkReferences": {},
  "deployedLinkReferences": {}
}