{
  "_format": "hh-sol-artifact-1",
  "contractName": "RefundablePostDeliveryCrowdsaleImpl",
  "sourceName": "contracts/IDO_basedon_Openzeppelin/mocks/RefundablePostDeliveryCrowdsaleImpl.sol",
  "abi": [
    {
      "inputs": [
        {
          "internalType": "uint256",
          "name": "openingTime",
          "type": "uint256"
        },
        {
          "internalType": "uint256",
          "name": "closingTime",
          "type": "uint256"
        },
        {
          "internalType": "uint256",
          "name": "rate",
          "type": "uint256"
        },
        {
          "internalType": "address payable",
          "name": "wallet",
          "type": "address"
        },
        {
          "internalType": "contract IERC20",
          "name": "token",
          "type": "address"
        },
        {
          "internalType": "uint256",
          "name": "goal",
          "type": "uint256"
        }
      ],
      "payable": false,
      "stateMutability": "nonpayable",
      "type": "constructor"
    },
    {
      "anonymous": false,
      "inputs": [],
      "name": "CrowdsaleFinalized",
      "type": "event"
    },
    {
      "anonymous": false,
      "inputs": [
        {
          "indexed": false,
          "internalType": "uint256",
          "name": "prevClosingTime",
          "type": "uint256"
        },
        {
          "indexed": false,
          "internalType": "uint256",
          "name": "newClosingTime",
          "type": "uint256"
        }
      ],
      "name": "TimedCrowdsaleExtended",
      "type": "event"
    },
    {
      "anonymous": false,
      "inputs": [
        {
          "indexed": true,
          "internalType": "address",
          "name": "purchaser",
          "type": "address"
        },
        {
          "indexed": true,
          "internalType": "address",
          "name": "beneficiary",
          "type": "address"
        },
        {
          "indexed": false,
          "internalType": "uint256",
          "name": "value",
          "type": "uint256"
        },
        {
          "indexed": false,
          "internalType": "uint256",
          "name": "amount",
          "type": "uint256"
        }
      ],
      "name": "TokensPurchased",
      "type": "event"
    },
    {
      "payable": true,
      "stateMutability": "payable",
      "type": "fallback"
    },
    {
      "constant": true,
      "inputs": [
        {
          "internalType": "address",
          "name": "account",
          "type": "address"
        }
      ],
      "name": "balanceOf",
      "outputs": [
        {
          "internalType": "uint256",
          "name": "",
          "type": "uint256"
        }
      ],
      "payable": false,
      "stateMutability": "view",
      "type": "function"
    },
    {
      "constant": false,
      "inputs": [
        {
          "internalType": "address",
          "name": "beneficiary",
          "type": "address"
        }
      ],
      "name": "buyTokens",
      "outputs": [],
      "payable": true,
      "stateMutability": "payable",
      "type": "function"
    },
    {
      "constant": false,
      "inputs": [
        {
          "internalType": "address payable",
          "name": "refundee",
          "type": "address"
        }
      ],
      "name": "claimRefund",
      "outputs": [],
      "payable": false,
      "stateMutability": "nonpayable",
      "type": "function"
    },
    {
      "constant": true,
      "inputs": [],
      "name": "closingTime",
      "outputs": [
        {
          "internalType": "uint256",
          "name": "",
          "type": "uint256"
        }
      ],
      "payable": false,
      "stateMutability": "view",
      "type": "function"
    },
    {
      "constant": false,
      "inputs": [],
      "name": "finalize",
      "outputs": [],
      "payable": false,
      "stateMutability": "nonpayable",
      "type": "function"
    },
    {
      "constant": true,
      "inputs": [],
      "name": "finalized",
      "outputs": [
        {
          "internalType": "bool",
          "name": "",
          "type": "bool"
        }
      ],
      "payable": false,
      "stateMutability": "view",
      "type": "function"
    },
    {
      "constant": true,
      "inputs": [],
      "name": "goal",
      "outputs": [
        {
          "internalType": "uint256",
          "name": "",
          "type": "uint256"
        }
      ],
      "payable": false,
      "stateMutability": "view",
      "type": "function"
    },
    {
      "constant": true,
      "inputs": [],
      "name": "goalReached",
      "outputs": [
        {
          "internalType": "bool",
          "name": "",
          "type": "bool"
        }
      ],
      "payable": false,
      "stateMutability": "view",
      "type": "function"
    },
    {
      "constant": true,
      "inputs": [],
      "name": "hasClosed",
      "outputs": [
        {
          "internalType": "bool",
          "name": "",
          "type": "bool"
        }
      ],
      "payable": false,
      "stateMutability": "view",
      "type": "function"
    },
    {
      "constant": true,
      "inputs": [],
      "name": "isOpen",
      "outputs": [
        {
          "internalType": "bool",
          "name": "",
          "type": "bool"
        }
      ],
      "payable": false,
      "stateMutability": "view",
      "type": "function"
    },
    {
      "constant": true,
      "inputs": [],
      "name": "openingTime",
      "outputs": [
        {
          "internalType": "uint256",
          "name": "",
          "type": "uint256"
        }
      ],
      "payable": false,
      "stateMutability": "view",
      "type": "function"
    },
    {
      "constant": true,
      "inputs": [],
      "name": "rate",
      "outputs": [
        {
          "internalType": "uint256",
          "name": "",
          "type": "uint256"
        }
      ],
      "payable": false,
      "stateMutability": "view",
      "type": "function"
    },
    {
      "constant": true,
      "inputs": [],
      "name": "token",
      "outputs": [
        {
          "internalType": "contract IERC20",
          "name": "",
          "type": "address"
        }
      ],
      "payable": false,
      "stateMutability": "view",
      "type": "function"
    },
    {
      "constant": true,
      "inputs": [],
      "name": "wallet",
      "outputs": [
        {
          "internalType": "address payable",
          "name": "",
          "type": "address"
        }
      ],
      "payable": false,
      "stateMutability": "view",
      "type": "function"
    },
    {
      "constant": true,
      "inputs": [],
      "name": "weiRaised",
      "outputs": [
        {
          "internalType": "uint256",
          "name": "",
          "type": "uint256"
        }
      ],
      "payable": false,
      "stateMutability": "view",
      "type": "function"
    },
    {
      "constant": false,
      "inputs": [
        {
          "internalType": "address",
          "name": "beneficiary",
          "type": "address"
        }
      ],
      "name": "withdrawTokens",
      "outputs": [],
      "payable": false,
      "stateMutability": "nonpayable",
      "type": "function"
    }
  ],
  "bytecode": "0x60806040523480156200001157600080fd5b50604051620026ee380380620026ee833981810160405260c08110156200003757600080fd5b508051602082015160408301516060840151608085015160a0909501516000805460ff19166001179055939492939192909180868686868682620000c2576040805162461bcd60e51b815260206004820152601460248201527f43726f776473616c653a20726174652069732030000000000000000000000000604482015290519081900360640190fd5b6001600160a01b038216620001095760405162461bcd60e51b8152600401808060200182810382526025815260200180620026c96025913960400191505060405180910390fd5b6001600160a01b038116620001505760405162461bcd60e51b8152600401808060200182810382526024815260200180620026a56024913960400191505060405180910390fd5b600292909255600180546001600160a01b039283166001600160a01b0319909116179055600080549190921661010002610100600160a81b031990911617905542821015620001d15760405162461bcd60e51b81526004018080602001828103825260338152602001806200263b6033913960400191505060405180910390fd5b818111620002115760405162461bcd60e51b81526004018080602001828103825260378152602001806200266e6037913960400191505060405180910390fd5b6004919091556005556006805460ff191690558062000277576040805162461bcd60e51b815260206004820152601e60248201527f526566756e6461626c6543726f776473616c653a20676f616c20697320300000604482015290519081900360640190fd5b6200028a6001600160e01b036200034316565b604051620002989062000352565b6001600160a01b03909116815260405190819003602001906000f080158015620002c6573d6000803e3d6000fd5b50600880546001600160a01b0319166001600160a01b0392909216919091179055600755604051620002f89062000360565b604051809103906000f08015801562000315573d6000803e3d6000fd5b50600a80546001600160a01b0319166001600160a01b0392909216919091179055506200036e945050505050565b6001546001600160a01b031690565b610e1b806200144183390190565b6103df806200225c83390190565b6110c3806200037e6000396000f3fe6080604052600436106100f35760003560e01c8063521eb2731161008a578063b7a8807c11610059578063b7a8807c1461027f578063bffa55d514610294578063ec8ac4d8146102c7578063fc0c546a146102ed576100f3565b8063521eb273146101f157806370a08231146102225780637d3d652214610255578063b3f05b971461026a576100f3565b806347535d7b116100c657806347535d7b1461017f57806349df728c146101945780634b6753bc146101c75780634bb278f3146101dc576100f3565b80631515bc2b146101055780632c4e722e1461012e57806340193883146101555780634042b66f1461016a575b6101036100fe610302565b610306565b005b34801561011157600080fd5b5061011a610428565b604080519115158252519081900360200190f35b34801561013a57600080fd5b50610143610430565b60408051918252519081900360200190f35b34801561016157600080fd5b50610143610436565b34801561017657600080fd5b5061014361043c565b34801561018b57600080fd5b5061011a610442565b3480156101a057600080fd5b50610103600480360360208110156101b757600080fd5b50356001600160a01b031661045d565b3480156101d357600080fd5b506101436104ef565b3480156101e857600080fd5b506101036104f5565b3480156101fd57600080fd5b506102066105d0565b604080516001600160a01b039092168252519081900360200190f35b34801561022e57600080fd5b506101436004803603602081101561024557600080fd5b50356001600160a01b03166105df565b34801561026157600080fd5b5061011a6105fa565b34801561027657600080fd5b5061011a61060e565b34801561028b57600080fd5b50610143610617565b3480156102a057600080fd5b50610103600480360360208110156102b757600080fd5b50356001600160a01b031661061d565b610103600480360360208110156102dd57600080fd5b50356001600160a01b0316610306565b3480156102f957600080fd5b50610206610726565b3390565b60005460ff1661035d576040805162461bcd60e51b815260206004820152601f60248201527f5265656e7472616e637947756172643a207265656e7472616e742063616c6c00604482015290519081900360640190fd5b6000805460ff1916905534610372828261073a565b600061037d826107a1565b600354909150610393908363ffffffff6107be16565b6003556103a0838261081f565b826001600160a01b03166103b2610302565b6001600160a01b03167f6faf93231a456e552dbc9961f58d9713ee4f2e69d15f1975b050ef0911053a7b8484604051808381526020018281526020019250505060405180910390a3610404838361079d565b61040c610873565b610416838361079d565b50506000805460ff1916600117905550565b600554421190565b60025490565b60075490565b60035490565b6000600454421015801561045857506005544211155b905090565b61046561060e565b6104a05760405162461bcd60e51b815260040180806020018281038252602e815260200180610ef8602e913960400191505060405180910390fd5b6104a86105fa565b6104e35760405162461bcd60e51b8152600401808060200182810382526031815260200180610f266031913960400191505060405180910390fd5b6104ec816108d4565b50565b60055490565b60065460ff16156105375760405162461bcd60e51b8152600401808060200182810382526027815260200180610fb06027913960400191505060405180910390fd5b61053f610428565b610590576040805162461bcd60e51b815260206004820181905260248201527f46696e616c697a61626c6543726f776473616c653a206e6f7420636c6f736564604482015290519081900360640190fd5b6006805460ff191660011790556105a5610a20565b6040517f9270cc390c096600a1c17c44345a1ba689fafd99d97487b10cfccf86cf73183690600090a1565b6001546001600160a01b031690565b6001600160a01b031660009081526009602052604090205490565b600060075461060761043c565b1015905090565b60065460ff1690565b60045490565b61062561060e565b6106605760405162461bcd60e51b81526004018080602001828103825260228152602001806110436022913960400191505060405180910390fd5b6106686105fa565b156106a45760405162461bcd60e51b8152600401808060200182810382526021815260200180610fd76021913960400191505060405180910390fd5b600854604080517f51cff8d90000000000000000000000000000000000000000000000000000000081526001600160a01b038481166004830152915191909216916351cff8d991602480830192600092919082900301818387803b15801561070b57600080fd5b505af115801561071f573d6000803e3d6000fd5b5050505050565b60005461010090046001600160a01b031690565b610742610442565b610793576040805162461bcd60e51b815260206004820152601860248201527f54696d656443726f776473616c653a206e6f74206f70656e0000000000000000604482015290519081900360640190fd5b61079d8282610b71565b5050565b60006107b860025483610c0890919063ffffffff16565b92915050565b600082820183811015610818576040805162461bcd60e51b815260206004820152601b60248201527f536166654d6174683a206164646974696f6e206f766572666c6f770000000000604482015290519081900360640190fd5b9392505050565b6001600160a01b038216600090815260096020526040902054610848908263ffffffff6107be16565b6001600160a01b03808416600090815260096020526040902091909155600a5461079d911682610c61565b6008546001600160a01b031663f340fa013461088d610302565b6040518363ffffffff1660e01b815260040180826001600160a01b03166001600160a01b031681526020019150506000604051808303818588803b15801561070b57600080fd5b6108dc610428565b6109175760405162461bcd60e51b81526004018080602001828103825260218152602001806110226021913960400191505060405180910390fd5b6001600160a01b0381166000908152600960205260409020548061096c5760405162461bcd60e51b8152600401808060200182810382526038815260200180610f576038913960400191505060405180910390fd5b6001600160a01b03808316600090815260096020526040812055600a541663beabacc8610997610726565b604080517fffffffff0000000000000000000000000000000000000000000000000000000060e085901b1681526001600160a01b03928316600482015291861660248301526044820185905251606480830192600092919082900301818387803b158015610a0457600080fd5b505af1158015610a18573d6000803e3d6000fd5b505050505050565b610a286105fa565b15610b0257600860009054906101000a90046001600160a01b03166001600160a01b03166343d726d66040518163ffffffff1660e01b8152600401600060405180830381600087803b158015610a7d57600080fd5b505af1158015610a91573d6000803e3d6000fd5b50505050600860009054906101000a90046001600160a01b03166001600160a01b0316639af6549a6040518163ffffffff1660e01b8152600401600060405180830381600087803b158015610ae557600080fd5b505af1158015610af9573d6000803e3d6000fd5b50505050610b6b565b600860009054906101000a90046001600160a01b03166001600160a01b0316638c52dc416040518163ffffffff1660e01b8152600401600060405180830381600087803b158015610b5257600080fd5b505af1158015610b66573d6000803e3d6000fd5b505050505b610b6f5b565b6001600160a01b038216610bb65760405162461bcd60e51b815260040180806020018281038252602a815260200180610ff8602a913960400191505060405180910390fd5b8061079d576040805162461bcd60e51b815260206004820152601960248201527f43726f776473616c653a20776569416d6f756e74206973203000000000000000604482015290519081900360640190fd5b600082610c17575060006107b8565b82820282848281610c2457fe5b04146108185760405162461bcd60e51b8152600401808060200182810382526021815260200180610f8f6021913960400191505060405180910390fd5b60005461079d9061010090046001600160a01b03168383604080516001600160a01b038416602482015260448082018490528251808303909101815260649091019091526020810180517bffffffffffffffffffffffffffffffffffffffffffffffffffffffff167fa9059cbb00000000000000000000000000000000000000000000000000000000179052610cf8908490610cfd565b505050565b610d0f826001600160a01b0316610ebb565b610d60576040805162461bcd60e51b815260206004820152601f60248201527f5361666545524332303a2063616c6c20746f206e6f6e2d636f6e747261637400604482015290519081900360640190fd5b60006060836001600160a01b0316836040518082805190602001908083835b60208310610d9e5780518252601f199092019160209182019101610d7f565b6001836020036101000a0380198251168184511680821785525050505050509050019150506000604051808303816000865af19150503d8060008114610e00576040519150601f19603f3d011682016040523d82523d6000602084013e610e05565b606091505b509150915081610e5c576040805162461bcd60e51b815260206004820181905260248201527f5361666545524332303a206c6f772d6c6576656c2063616c6c206661696c6564604482015290519081900360640190fd5b805115610eb557808060200190516020811015610e7857600080fd5b5051610eb55760405162461bcd60e51b815260040180806020018281038252602a815260200180611065602a913960400191505060405180910390fd5b50505050565b6000813f7fc5d2460186f7233c927e7db2dcc703c0e500b653ca82273b7bfad8045d85a470818114801590610eef57508115155b94935050505056fe526566756e6461626c65506f737444656c697665727943726f776473616c653a206e6f742066696e616c697a6564526566756e6461626c65506f737444656c697665727943726f776473616c653a20676f616c206e6f742072656163686564506f737444656c697665727943726f776473616c653a2062656e6566696369617279206973206e6f742064756520616e7920746f6b656e73536166654d6174683a206d756c7469706c69636174696f6e206f766572666c6f7746696e616c697a61626c6543726f776473616c653a20616c72656164792066696e616c697a6564526566756e6461626c6543726f776473616c653a20676f616c207265616368656443726f776473616c653a2062656e656669636961727920697320746865207a65726f2061646472657373506f737444656c697665727943726f776473616c653a206e6f7420636c6f736564526566756e6461626c6543726f776473616c653a206e6f742066696e616c697a65645361666545524332303a204552433230206f7065726174696f6e20646964206e6f742073756363656564a265627a7a72315820c9192933aeb6721fe05f5a71738078c454c4b5d1c558a48b20c76a6e9c6858d964736f6c63430005100032608060405234801561001057600080fd5b50604051610e1b380380610e1b8339818101604052602081101561003357600080fd5b505160006100486001600160e01b0361011316565b600080546001600160a01b0383166001600160a01b0319909116811790915560408051918252519192507f4101e71e974f68df5e9730cc223280b41654676bbb052cdcc735c3337e64d2d9919081900360200190a1506001600160a01b0381166100e35760405162461bcd60e51b815260040180806020018281038252602d815260200180610dee602d913960400191505060405180910390fd5b6002805460ff196001600160a01b039390931661010002610100600160a81b031990911617919091169055610117565b3390565b610cc8806101266000396000f3fe6080604052600436106100c75760003560e01c80638c52dc4111610074578063c6dbdf611161004e578063c6dbdf6114610257578063e3a9db1a1461026c578063f340fa01146102b1576100c7565b80638c52dc41146101f45780639af6549a14610209578063c19d93fb1461021e576100c7565b806351cff8d9116100a557806351cff8d9146101475780636809691a1461017a578063685ca194146101ad576100c7565b80632348238c146100cc57806338af3eed1461010157806343d726d614610132575b600080fd5b3480156100d857600080fd5b506100ff600480360360208110156100ef57600080fd5b50356001600160a01b03166102d7565b005b34801561010d57600080fd5b506101166103e1565b604080516001600160a01b039092168252519081900360200190f35b34801561013e57600080fd5b506100ff6103f5565b34801561015357600080fd5b506100ff6004803603602081101561016a57600080fd5b50356001600160a01b03166104d4565b34801561018657600080fd5b506100ff6004803603602081101561019d57600080fd5b50356001600160a01b0316610524565b3480156101b957600080fd5b506101e0600480360360208110156101d057600080fd5b50356001600160a01b03166105ee565b604080519115158252519081900360200190f35b34801561020057600080fd5b506100ff61060a565b34801561021557600080fd5b506100ff6106ea565b34801561022a57600080fd5b50610233610777565b6040518082600281111561024357fe5b60ff16815260200191505060405180910390f35b34801561026357600080fd5b50610116610780565b34801561027857600080fd5b5061029f6004803603602081101561028f57600080fd5b50356001600160a01b031661078f565b60408051918252519081900360200190f35b6100ff600480360360208110156102c757600080fd5b50356001600160a01b03166107aa565b6000546001600160a01b03166102eb610802565b6001600160a01b0316146103305760405162461bcd60e51b815260040180806020018281038252602c815260200180610c36602c913960400191505060405180910390fd5b6001600160a01b0381166103755760405162461bcd60e51b815260040180806020018281038252602a815260200180610c0c602a913960400191505060405180910390fd5b600080546001600160a01b0383167fffffffffffffffffffffffff0000000000000000000000000000000000000000909116811790915560408051918252517f4101e71e974f68df5e9730cc223280b41654676bbb052cdcc735c3337e64d2d99181900360200190a150565b60025461010090046001600160a01b031690565b6000546001600160a01b0316610409610802565b6001600160a01b03161461044e5760405162461bcd60e51b815260040180806020018281038252602c815260200180610c36602c913960400191505060405180910390fd5b60006002805460ff169081111561046157fe5b1461049d5760405162461bcd60e51b8152600401808060200182810382526029815260200180610be36029913960400191505060405180910390fd5b6002805460ff1916811790556040517f088672c3a6e342f7cd94a65ba63b79df24a8973927b4d05d803c44bbf787d12f90600090a1565b6104dd816105ee565b6105185760405162461bcd60e51b8152600401808060200182810382526033815260200180610bb06033913960400191505060405180910390fd5b61052181610806565b50565b6000546001600160a01b0316610538610802565b6001600160a01b03161461057d5760405162461bcd60e51b815260040180806020018281038252602c815260200180610c36602c913960400191505060405180910390fd5b6001600160a01b03811660008181526001602052604081208054919055906105ab908263ffffffff6108ed16565b6040805182815290516001600160a01b038416917f7084f5476618d8e60b11ef0d7d3f06914655adb8793e28ff7f018d4c76d505d5919081900360200190a25050565b600060016002805460ff169081111561060357fe5b1492915050565b6000546001600160a01b031661061e610802565b6001600160a01b0316146106635760405162461bcd60e51b815260040180806020018281038252602c815260200180610c36602c913960400191505060405180910390fd5b60006002805460ff169081111561067657fe5b146106b25760405162461bcd60e51b8152600401808060200182810382526032815260200180610c626032913960400191505060405180910390fd5b6002805460ff191660011790556040517f599d8e5a83cffb867d051598c4d70e805d59802d8081c1c7d6dffc5b6aca2b8990600090a1565b6002805460ff16818111156106fb57fe5b146107375760405162461bcd60e51b8152600401808060200182810382526038815260200180610b136038913960400191505060405180910390fd5b6002546040516001600160a01b0361010090920491909116904780156108fc02916000818181858888f19350505050158015610521573d6000803e3d6000fd5b60025460ff1690565b6000546001600160a01b031690565b6001600160a01b031660009081526001602052604090205490565b60006002805460ff16908111156107bd57fe5b146107f95760405162461bcd60e51b815260040180806020018281038252602b815260200180610b85602b913960400191505060405180910390fd5b610521816109d7565b3390565b6000546001600160a01b031661081a610802565b6001600160a01b03161461085f5760405162461bcd60e51b815260040180806020018281038252602c815260200180610c36602c913960400191505060405180910390fd5b6001600160a01b038116600081815260016020526040808220805490839055905190929183156108fc02918491818181858888f193505050501580156108a9573d6000803e3d6000fd5b506040805182815290516001600160a01b038416917f7084f5476618d8e60b11ef0d7d3f06914655adb8793e28ff7f018d4c76d505d5919081900360200190a25050565b80471015610942576040805162461bcd60e51b815260206004820152601d60248201527f416464726573733a20696e73756666696369656e742062616c616e6365000000604482015290519081900360640190fd5b6040516000906001600160a01b0384169083908381818185875af1925050503d806000811461098d576040519150601f19603f3d011682016040523d82523d6000602084013e610992565b606091505b50509050806109d25760405162461bcd60e51b815260040180806020018281038252603a815260200180610b4b603a913960400191505060405180910390fd5b505050565b6000546001600160a01b03166109eb610802565b6001600160a01b031614610a305760405162461bcd60e51b815260040180806020018281038252602c815260200180610c36602c913960400191505060405180910390fd5b6001600160a01b0381166000908152600160205260409020543490610a5b908263ffffffff610ab116565b6001600160a01b038316600081815260016020908152604091829020939093558051848152905191927f2da466a7b24304f47e87fa2e1e5a81b9831ce54fec19055ce277ca2f39ba42c492918290030190a25050565b600082820183811015610b0b576040805162461bcd60e51b815260206004820152601b60248201527f536166654d6174683a206164646974696f6e206f766572666c6f770000000000604482015290519081900360640190fd5b939250505056fe526566756e64457363726f773a2062656e65666963696172792063616e206f6e6c79207769746864726177207768696c6520636c6f736564416464726573733a20756e61626c6520746f2073656e642076616c75652c20726563697069656e74206d61792068617665207265766572746564526566756e64457363726f773a2063616e206f6e6c79206465706f736974207768696c6520616374697665436f6e646974696f6e616c457363726f773a207061796565206973206e6f7420616c6c6f77656420746f207769746864726177526566756e64457363726f773a2063616e206f6e6c7920636c6f7365207768696c65206163746976655365636f6e646172793a206e6577207072696d61727920697320746865207a65726f20616464726573735365636f6e646172793a2063616c6c6572206973206e6f7420746865207072696d617279206163636f756e74526566756e64457363726f773a2063616e206f6e6c7920656e61626c6520726566756e6473207768696c6520616374697665a265627a7a72315820931a90670ce7ffa1789205c9796bea042c5ff06febbcf9b7654a2e8d21b4c42d64736f6c63430005100032526566756e64457363726f773a2062656e656669636961727920697320746865207a65726f2061646472657373608060405260006100176001600160e01b0361007216565b600080546001600160a01b0383166001600160a01b0319909116811790915560408051918252519192507f4101e71e974f68df5e9730cc223280b41654676bbb052cdcc735c3337e64d2d9919081900360200190a150610076565b3390565b61035a806100856000396000f3fe608060405234801561001057600080fd5b50600436106100415760003560e01c80632348238c14610046578063beabacc81461006e578063c6dbdf61146100a4575b600080fd5b61006c6004803603602081101561005c57600080fd5b50356001600160a01b03166100c8565b005b61006c6004803603606081101561008457600080fd5b506001600160a01b038135811691602081013590911690604001356101d2565b6100ac6102bc565b604080516001600160a01b039092168252519081900360200190f35b6000546001600160a01b03166100dc6102cb565b6001600160a01b0316146101215760405162461bcd60e51b815260040180806020018281038252602c8152602001806102fa602c913960400191505060405180910390fd5b6001600160a01b0381166101665760405162461bcd60e51b815260040180806020018281038252602a8152602001806102d0602a913960400191505060405180910390fd5b600080546001600160a01b0383167fffffffffffffffffffffffff0000000000000000000000000000000000000000909116811790915560408051918252517f4101e71e974f68df5e9730cc223280b41654676bbb052cdcc735c3337e64d2d99181900360200190a150565b6000546001600160a01b03166101e66102cb565b6001600160a01b03161461022b5760405162461bcd60e51b815260040180806020018281038252602c8152602001806102fa602c913960400191505060405180910390fd5b826001600160a01b031663a9059cbb83836040518363ffffffff1660e01b815260040180836001600160a01b03166001600160a01b0316815260200182815260200192505050602060405180830381600087803b15801561028b57600080fd5b505af115801561029f573d6000803e3d6000fd5b505050506040513d60208110156102b557600080fd5b5050505050565b6000546001600160a01b031690565b339056fe5365636f6e646172793a206e6577207072696d61727920697320746865207a65726f20616464726573735365636f6e646172793a2063616c6c6572206973206e6f7420746865207072696d617279206163636f756e74a265627a7a723158203db069042bd7c1e9867f5030c8f24bcedb8bb8aafced25ef8b78fb56ab8ca41464736f6c6343000510003254696d656443726f776473616c653a206f70656e696e672074696d65206973206265666f72652063757272656e742074696d6554696d656443726f776473616c653a206f70656e696e672074696d65206973206e6f74206265666f726520636c6f73696e672074696d6543726f776473616c653a20746f6b656e20697320746865207a65726f206164647265737343726f776473616c653a2077616c6c657420697320746865207a65726f2061646472657373",
  "linkReferences": {},
  "deployedLinkReferences": {}
}