{
  "_format": "hh-sol-artifact-1",
  "contractName": "PostDeliveryCrowdsaleImpl",
  "sourceName": "contracts/IDO_basedon_Openzeppelin/mocks/PostDeliveryCrowdsaleImpl.sol",
  "abi": [
    {
      "inputs": [
        {
          "internalType": "uint256",
          "name": "openingTime",
          "type": "uint256"
        },
        {
          "internalType": "uint256",
          "name": "closingTime",
          "type": "uint256"
        },
        {
          "internalType": "uint256",
          "name": "rate",
          "type": "uint256"
        },
        {
          "internalType": "address payable",
          "name": "wallet",
          "type": "address"
        },
        {
          "internalType": "contract IERC20",
          "name": "token",
          "type": "address"
        }
      ],
      "payable": false,
      "stateMutability": "nonpayable",
      "type": "constructor"
    },
    {
      "anonymous": false,
      "inputs": [
        {
          "indexed": false,
          "internalType": "uint256",
          "name": "prevClosingTime",
          "type": "uint256"
        },
        {
          "indexed": false,
          "internalType": "uint256",
          "name": "newClosingTime",
          "type": "uint256"
        }
      ],
      "name": "TimedCrowdsaleExtended",
      "type": "event"
    },
    {
      "anonymous": false,
      "inputs": [
        {
          "indexed": true,
          "internalType": "address",
          "name": "purchaser",
          "type": "address"
        },
        {
          "indexed": true,
          "internalType": "address",
          "name": "beneficiary",
          "type": "address"
        },
        {
          "indexed": false,
          "internalType": "uint256",
          "name": "value",
          "type": "uint256"
        },
        {
          "indexed": false,
          "internalType": "uint256",
          "name": "amount",
          "type": "uint256"
        }
      ],
      "name": "TokensPurchased",
      "type": "event"
    },
    {
      "payable": true,
      "stateMutability": "payable",
      "type": "fallback"
    },
    {
      "constant": true,
      "inputs": [
        {
          "internalType": "address",
          "name": "account",
          "type": "address"
        }
      ],
      "name": "balanceOf",
      "outputs": [
        {
          "internalType": "uint256",
          "name": "",
          "type": "uint256"
        }
      ],
      "payable": false,
      "stateMutability": "view",
      "type": "function"
    },
    {
      "constant": false,
      "inputs": [
        {
          "internalType": "address",
          "name": "beneficiary",
          "type": "address"
        }
      ],
      "name": "buyTokens",
      "outputs": [],
      "payable": true,
      "stateMutability": "payable",
      "type": "function"
    },
    {
      "constant": true,
      "inputs": [],
      "name": "closingTime",
      "outputs": [
        {
          "internalType": "uint256",
          "name": "",
          "type": "uint256"
        }
      ],
      "payable": false,
      "stateMutability": "view",
      "type": "function"
    },
    {
      "constant": true,
      "inputs": [],
      "name": "hasClosed",
      "outputs": [
        {
          "internalType": "bool",
          "name": "",
          "type": "bool"
        }
      ],
      "payable": false,
      "stateMutability": "view",
      "type": "function"
    },
    {
      "constant": true,
      "inputs": [],
      "name": "isOpen",
      "outputs": [
        {
          "internalType": "bool",
          "name": "",
          "type": "bool"
        }
      ],
      "payable": false,
      "stateMutability": "view",
      "type": "function"
    },
    {
      "constant": true,
      "inputs": [],
      "name": "openingTime",
      "outputs": [
        {
          "internalType": "uint256",
          "name": "",
          "type": "uint256"
        }
      ],
      "payable": false,
      "stateMutability": "view",
      "type": "function"
    },
    {
      "constant": true,
      "inputs": [],
      "name": "rate",
      "outputs": [
        {
          "internalType": "uint256",
          "name": "",
          "type": "uint256"
        }
      ],
      "payable": false,
      "stateMutability": "view",
      "type": "function"
    },
    {
      "constant": true,
      "inputs": [],
      "name": "token",
      "outputs": [
        {
          "internalType": "contract IERC20",
          "name": "",
          "type": "address"
        }
      ],
      "payable": false,
      "stateMutability": "view",
      "type": "function"
    },
    {
      "constant": true,
      "inputs": [],
      "name": "wallet",
      "outputs": [
        {
          "internalType": "address payable",
          "name": "",
          "type": "address"
        }
      ],
      "payable": false,
      "stateMutability": "view",
      "type": "function"
    },
    {
      "constant": true,
      "inputs": [],
      "name": "weiRaised",
      "outputs": [
        {
          "internalType": "uint256",
          "name": "",
          "type": "uint256"
        }
      ],
      "payable": false,
      "stateMutability": "view",
      "type": "function"
    },
    {
      "constant": false,
      "inputs": [
        {
          "internalType": "address",
          "name": "beneficiary",
          "type": "address"
        }
      ],
      "name": "withdrawTokens",
      "outputs": [],
      "payable": false,
      "stateMutability": "nonpayable",
      "type": "function"
    }
  ],
  "bytecode": "0x608060405234801561001057600080fd5b50604051611235380380611235833981810160405260a081101561003357600080fd5b5080516020820151604083015160608401516080909401516000805460ff19166001179055929391929091908484848484826100b6576040805162461bcd60e51b815260206004820152601460248201527f43726f776473616c653a20726174652069732030000000000000000000000000604482015290519081900360640190fd5b6001600160a01b0382166100fb5760405162461bcd60e51b81526004018080602001828103825260258152602001806112106025913960400191505060405180910390fd5b6001600160a01b0381166101405760405162461bcd60e51b81526004018080602001828103825260248152602001806111ec6024913960400191505060405180910390fd5b600292909255600180546001600160a01b039283166001600160a01b0319909116179055600080549190921661010002610100600160a81b0319909116179055428210156101bf5760405162461bcd60e51b81526004018080602001828103825260338152602001806111826033913960400191505060405180910390fd5b8181116101fd5760405162461bcd60e51b81526004018080602001828103825260378152602001806111b56037913960400191505060405180910390fd5b6004919091556005556040516102129061025a565b604051809103906000f08015801561022e573d6000803e3d6000fd5b50600780546001600160a01b0319166001600160a01b0392909216919091179055506102679350505050565b6103df80610da383390190565b610b2d806102766000396000f3fe6080604052600436106100bc5760003560e01c80634b6753bc11610074578063b7a8807c1161004e578063b7a8807c146101f4578063ec8ac4d814610209578063fc0c546a1461022f576100bc565b80634b6753bc1461017b578063521eb2731461019057806370a08231146101c1576100bc565b80634042b66f116100a55780634042b66f1461011e57806347535d7b1461013357806349df728c14610148576100bc565b80631515bc2b146100ce5780632c4e722e146100f7575b6100cc6100c7610244565b610248565b005b3480156100da57600080fd5b506100e361036a565b604080519115158252519081900360200190f35b34801561010357600080fd5b5061010c610372565b60408051918252519081900360200190f35b34801561012a57600080fd5b5061010c610378565b34801561013f57600080fd5b506100e361037e565b34801561015457600080fd5b506100cc6004803603602081101561016b57600080fd5b50356001600160a01b0316610399565b34801561018757600080fd5b5061010c6104e5565b34801561019c57600080fd5b506101a56104eb565b604080516001600160a01b039092168252519081900360200190f35b3480156101cd57600080fd5b5061010c600480360360208110156101e457600080fd5b50356001600160a01b03166104fa565b34801561020057600080fd5b5061010c610515565b6100cc6004803603602081101561021f57600080fd5b50356001600160a01b0316610248565b34801561023b57600080fd5b506101a561051b565b3390565b60005460ff1661029f576040805162461bcd60e51b815260206004820152601f60248201527f5265656e7472616e637947756172643a207265656e7472616e742063616c6c00604482015290519081900360640190fd5b6000805460ff19169055346102b4828261052f565b60006102bf82610596565b6003549091506102d5908363ffffffff6105b316565b6003556102e28382610614565b826001600160a01b03166102f4610244565b6001600160a01b03167f6faf93231a456e552dbc9961f58d9713ee4f2e69d15f1975b050ef0911053a7b8484604051808381526020018281526020019250505060405180910390a36103468383610592565b61034e610668565b6103588383610592565b50506000805460ff1916600117905550565b600554421190565b60025490565b60035490565b6000600454421015801561039457506005544211155b905090565b6103a161036a565b6103dc5760405162461bcd60e51b8152600401808060200182810382526021815260200180610aae6021913960400191505060405180910390fd5b6001600160a01b038116600090815260066020526040902054806104315760405162461bcd60e51b8152600401808060200182810382526038815260200180610a2b6038913960400191505060405180910390fd5b6001600160a01b038083166000908152600660205260408120556007541663beabacc861045c61051b565b604080517fffffffff0000000000000000000000000000000000000000000000000000000060e085901b1681526001600160a01b03928316600482015291861660248301526044820185905251606480830192600092919082900301818387803b1580156104c957600080fd5b505af11580156104dd573d6000803e3d6000fd5b505050505050565b60055490565b6001546001600160a01b031690565b6001600160a01b031660009081526006602052604090205490565b60045490565b60005461010090046001600160a01b031690565b61053761037e565b610588576040805162461bcd60e51b815260206004820152601860248201527f54696d656443726f776473616c653a206e6f74206f70656e0000000000000000604482015290519081900360640190fd5b61059282826106a4565b5050565b60006105ad6002548361073b90919063ffffffff16565b92915050565b60008282018381101561060d576040805162461bcd60e51b815260206004820152601b60248201527f536166654d6174683a206164646974696f6e206f766572666c6f770000000000604482015290519081900360640190fd5b9392505050565b6001600160a01b03821660009081526006602052604090205461063d908263ffffffff6105b316565b6001600160a01b03808416600090815260066020526040902091909155600754610592911682610794565b6001546040516001600160a01b03909116903480156108fc02916000818181858888f193505050501580156106a1573d6000803e3d6000fd5b50565b6001600160a01b0382166106e95760405162461bcd60e51b815260040180806020018281038252602a815260200180610a84602a913960400191505060405180910390fd5b80610592576040805162461bcd60e51b815260206004820152601960248201527f43726f776473616c653a20776569416d6f756e74206973203000000000000000604482015290519081900360640190fd5b60008261074a575060006105ad565b8282028284828161075757fe5b041461060d5760405162461bcd60e51b8152600401808060200182810382526021815260200180610a636021913960400191505060405180910390fd5b6000546105929061010090046001600160a01b03168383604080516001600160a01b038416602482015260448082018490528251808303909101815260649091019091526020810180517bffffffffffffffffffffffffffffffffffffffffffffffffffffffff167fa9059cbb0000000000000000000000000000000000000000000000000000000017905261082b908490610830565b505050565b610842826001600160a01b03166109ee565b610893576040805162461bcd60e51b815260206004820152601f60248201527f5361666545524332303a2063616c6c20746f206e6f6e2d636f6e747261637400604482015290519081900360640190fd5b60006060836001600160a01b0316836040518082805190602001908083835b602083106108d15780518252601f1990920191602091820191016108b2565b6001836020036101000a0380198251168184511680821785525050505050509050019150506000604051808303816000865af19150503d8060008114610933576040519150601f19603f3d011682016040523d82523d6000602084013e610938565b606091505b50915091508161098f576040805162461bcd60e51b815260206004820181905260248201527f5361666545524332303a206c6f772d6c6576656c2063616c6c206661696c6564604482015290519081900360640190fd5b8051156109e8578080602001905160208110156109ab57600080fd5b50516109e85760405162461bcd60e51b815260040180806020018281038252602a815260200180610acf602a913960400191505060405180910390fd5b50505050565b6000813f7fc5d2460186f7233c927e7db2dcc703c0e500b653ca82273b7bfad8045d85a470818114801590610a2257508115155b94935050505056fe506f737444656c697665727943726f776473616c653a2062656e6566696369617279206973206e6f742064756520616e7920746f6b656e73536166654d6174683a206d756c7469706c69636174696f6e206f766572666c6f7743726f776473616c653a2062656e656669636961727920697320746865207a65726f2061646472657373506f737444656c697665727943726f776473616c653a206e6f7420636c6f7365645361666545524332303a204552433230206f7065726174696f6e20646964206e6f742073756363656564a265627a7a72315820d6d58b7d58384df834f9551d5e663e6aa40131e070023cd760a3902570cdc4e864736f6c63430005100032608060405260006100176001600160e01b0361007216565b600080546001600160a01b0383166001600160a01b0319909116811790915560408051918252519192507f4101e71e974f68df5e9730cc223280b41654676bbb052cdcc735c3337e64d2d9919081900360200190a150610076565b3390565b61035a806100856000396000f3fe608060405234801561001057600080fd5b50600436106100415760003560e01c80632348238c14610046578063beabacc81461006e578063c6dbdf61146100a4575b600080fd5b61006c6004803603602081101561005c57600080fd5b50356001600160a01b03166100c8565b005b61006c6004803603606081101561008457600080fd5b506001600160a01b038135811691602081013590911690604001356101d2565b6100ac6102bc565b604080516001600160a01b039092168252519081900360200190f35b6000546001600160a01b03166100dc6102cb565b6001600160a01b0316146101215760405162461bcd60e51b815260040180806020018281038252602c8152602001806102fa602c913960400191505060405180910390fd5b6001600160a01b0381166101665760405162461bcd60e51b815260040180806020018281038252602a8152602001806102d0602a913960400191505060405180910390fd5b600080546001600160a01b0383167fffffffffffffffffffffffff0000000000000000000000000000000000000000909116811790915560408051918252517f4101e71e974f68df5e9730cc223280b41654676bbb052cdcc735c3337e64d2d99181900360200190a150565b6000546001600160a01b03166101e66102cb565b6001600160a01b03161461022b5760405162461bcd60e51b815260040180806020018281038252602c8152602001806102fa602c913960400191505060405180910390fd5b826001600160a01b031663a9059cbb83836040518363ffffffff1660e01b815260040180836001600160a01b03166001600160a01b0316815260200182815260200192505050602060405180830381600087803b15801561028b57600080fd5b505af115801561029f573d6000803e3d6000fd5b505050506040513d60208110156102b557600080fd5b5050505050565b6000546001600160a01b031690565b339056fe5365636f6e646172793a206e6577207072696d61727920697320746865207a65726f20616464726573735365636f6e646172793a2063616c6c6572206973206e6f7420746865207072696d617279206163636f756e74a265627a7a723158203db069042bd7c1e9867f5030c8f24bcedb8bb8aafced25ef8b78fb56ab8ca41464736f6c6343000510003254696d656443726f776473616c653a206f70656e696e672074696d65206973206265666f72652063757272656e742074696d6554696d656443726f776473616c653a206f70656e696e672074696d65206973206e6f74206265666f726520636c6f73696e672074696d6543726f776473616c653a20746f6b656e20697320746865207a65726f206164647265737343726f776473616c653a2077616c6c657420697320746865207a65726f2061646472657373",
  "linkReferences": {},
  "deployedLinkReferences": {}
}