{
  "_format": "hh-sol-artifact-1",
  "contractName": "PausableMock",
  "sourceName": "contracts/IDO_basedon_Openzeppelin/mocks/PausableMock.sol",
  "abi": [
    {
      "inputs": [],
      "payable": false,
      "stateMutability": "nonpayable",
      "type": "constructor"
    },
    {
      "anonymous": false,
      "inputs": [
        {
          "indexed": false,
          "internalType": "address",
          "name": "account",
          "type": "address"
        }
      ],
      "name": "Paused",
      "type": "event"
    },
    {
      "anonymous": false,
      "inputs": [
        {
          "indexed": true,
          "internalType": "address",
          "name": "account",
          "type": "address"
        }
      ],
      "name": "PauserAdded",
      "type": "event"
    },
    {
      "anonymous": false,
      "inputs": [
        {
          "indexed": true,
          "internalType": "address",
          "name": "account",
          "type": "address"
        }
      ],
      "name": "PauserRemoved",
      "type": "event"
    },
    {
      "anonymous": false,
      "inputs": [
        {
          "indexed": false,
          "internalType": "address",
          "name": "account",
          "type": "address"
        }
      ],
      "name": "Unpaused",
      "type": "event"
    },
    {
      "constant": false,
      "inputs": [
        {
          "internalType": "address",
          "name": "account",
          "type": "address"
        }
      ],
      "name": "addPauser",
      "outputs": [],
      "payable": false,
      "stateMutability": "nonpayable",
      "type": "function"
    },
    {
      "constant": true,
      "inputs": [],
      "name": "count",
      "outputs": [
        {
          "internalType": "uint256",
          "name": "",
          "type": "uint256"
        }
      ],
      "payable": false,
      "stateMutability": "view",
      "type": "function"
    },
    {
      "constant": false,
      "inputs": [],
      "name": "drasticMeasure",
      "outputs": [],
      "payable": false,
      "stateMutability": "nonpayable",
      "type": "function"
    },
    {
      "constant": true,
      "inputs": [],
      "name": "drasticMeasureTaken",
      "outputs": [
        {
          "internalType": "bool",
          "name": "",
          "type": "bool"
        }
      ],
      "payable": false,
      "stateMutability": "view",
      "type": "function"
    },
    {
      "constant": true,
      "inputs": [
        {
          "internalType": "address",
          "name": "account",
          "type": "address"
        }
      ],
      "name": "isPauser",
      "outputs": [
        {
          "internalType": "bool",
          "name": "",
          "type": "bool"
        }
      ],
      "payable": false,
      "stateMutability": "view",
      "type": "function"
    },
    {
      "constant": false,
      "inputs": [],
      "name": "normalProcess",
      "outputs": [],
      "payable": false,
      "stateMutability": "nonpayable",
      "type": "function"
    },
    {
      "constant": true,
      "inputs": [],
      "name": "onlyPauserMock",
      "outputs": [],
      "payable": false,
      "stateMutability": "view",
      "type": "function"
    },
    {
      "constant": false,
      "inputs": [],
      "name": "pause",
      "outputs": [],
      "payable": false,
      "stateMutability": "nonpayable",
      "type": "function"
    },
    {
      "constant": true,
      "inputs": [],
      "name": "paused",
      "outputs": [
        {
          "internalType": "bool",
          "name": "",
          "type": "bool"
        }
      ],
      "payable": false,
      "stateMutability": "view",
      "type": "function"
    },
    {
      "constant": false,
      "inputs": [
        {
          "internalType": "address",
          "name": "account",
          "type": "address"
        }
      ],
      "name": "removePauser",
      "outputs": [],
      "payable": false,
      "stateMutability": "nonpayable",
      "type": "function"
    },
    {
      "constant": false,
      "inputs": [],
      "name": "renouncePauser",
      "outputs": [],
      "payable": false,
      "stateMutability": "nonpayable",
      "type": "function"
    },
    {
      "constant": false,
      "inputs": [],
      "name": "unpause",
      "outputs": [],
      "payable": false,
      "stateMutability": "nonpayable",
      "type": "function"
    }
  ],
  "bytecode": "0x608060405234801561001057600080fd5b506100336100256001600160e01b0361004816565b6001600160e01b0361004c16565b6001805461ffff19169055600060025561018c565b3390565b61006481600061009b60201b6106371790919060201c565b6040516001600160a01b038216907f6719d08c1888103bea251a4ed56406bd0c3e69723c8a1686e017e7bbe159b6f890600090a250565b6100ae82826001600160e01b0361012516565b15610100576040805162461bcd60e51b815260206004820152601f60248201527f526f6c65733a206163636f756e7420616c72656164792068617320726f6c6500604482015290519081900360640190fd5b6001600160a01b0316600090815260209190915260409020805460ff19166001179055565b60006001600160a01b03821661016c5760405162461bcd60e51b81526004018080602001828103825260228152602001806109626022913960400191505060405180910390fd5b506001600160a01b03166000908152602091909152604090205460ff1690565b6107c78061019b6000396000f3fe608060405234801561001057600080fd5b50600436106100d45760003560e01c80636ef8d66d116100815780638456cb591161005b5780638456cb59146101a35780639958f045146101ab578063e7651d7a146101b3576100d4565b80636ef8d66d1461016d57806376657b8e1461017557806382dc1ec41461017d576100d4565b806346fbf68e116100b257806346fbf68e146101055780635c975abb1461013f5780636b2c0f5514610147576100d4565b806306661abd146100d9578063329daf90146100f35780633f4ba83a146100fd575b600080fd5b6100e16101bb565b60408051918252519081900360200190f35b6100fb6101c1565b005b6100fb61020e565b61012b6004803603602081101561011b57600080fd5b50356001600160a01b03166102fb565b604080519115158252519081900360200190f35b61012b610313565b6100fb6004803603602081101561015d57600080fd5b50356001600160a01b031661031c565b6100fb610328565b61012b610338565b6100fb6004803603602081101561019357600080fd5b50356001600160a01b0316610346565b6100fb610395565b6100fb610468565b6100fb6104d0565b60025481565b6101d16101cc610533565b6102fb565b61020c5760405162461bcd60e51b81526004018080602001828103825260308152602001806107206030913960400191505060405180910390fd5b565b6102196101cc610533565b6102545760405162461bcd60e51b81526004018080602001828103825260308152602001806107206030913960400191505060405180910390fd5b60015460ff166102ab576040805162461bcd60e51b815260206004820152601460248201527f5061757361626c653a206e6f7420706175736564000000000000000000000000604482015290519081900360640190fd5b6001805460ff191690557f5db9ee0a495bf2e6ff9c91a7834c1ba4fdd244a5e8aa4e537bd38aeae4b073aa6102de610533565b604080516001600160a01b039092168252519081900360200190a1565b600061030d818363ffffffff61053716565b92915050565b60015460ff1690565b6103258161059e565b50565b61020c610333610533565b61059e565b600154610100900460ff1681565b6103516101cc610533565b61038c5760405162461bcd60e51b81526004018080602001828103825260308152602001806107206030913960400191505060405180910390fd5b610325816105a7565b6103a06101cc610533565b6103db5760405162461bcd60e51b81526004018080602001828103825260308152602001806107206030913960400191505060405180910390fd5b60015460ff1615610433576040805162461bcd60e51b815260206004820152601060248201527f5061757361626c653a2070617573656400000000000000000000000000000000604482015290519081900360640190fd5b6001805460ff1916811790557f62e78cea01bee320cd4e420270b5ea74000d11b0c9f74754ebdbfc544b05a2586102de610533565b60015460ff166104bf576040805162461bcd60e51b815260206004820152601460248201527f5061757361626c653a206e6f7420706175736564000000000000000000000000604482015290519081900360640190fd5b6001805461ff001916610100179055565b60015460ff1615610528576040805162461bcd60e51b815260206004820152601060248201527f5061757361626c653a2070617573656400000000000000000000000000000000604482015290519081900360640190fd5b600280546001019055565b3390565b60006001600160a01b03821661057e5760405162461bcd60e51b81526004018080602001828103825260228152602001806107716022913960400191505060405180910390fd5b506001600160a01b03166000908152602091909152604090205460ff1690565b610325816105ef565b6105b860008263ffffffff61063716565b6040516001600160a01b038216907f6719d08c1888103bea251a4ed56406bd0c3e69723c8a1686e017e7bbe159b6f890600090a250565b61060060008263ffffffff6106b816565b6040516001600160a01b038216907fcd265ebaf09df2871cc7bd4133404a235ba12eff2041bb89d9c714a2621c7c7e90600090a250565b6106418282610537565b15610693576040805162461bcd60e51b815260206004820152601f60248201527f526f6c65733a206163636f756e7420616c72656164792068617320726f6c6500604482015290519081900360640190fd5b6001600160a01b0316600090815260209190915260409020805460ff19166001179055565b6106c28282610537565b6106fd5760405162461bcd60e51b81526004018080602001828103825260218152602001806107506021913960400191505060405180910390fd5b6001600160a01b0316600090815260209190915260409020805460ff1916905556fe506175736572526f6c653a2063616c6c657220646f6573206e6f742068617665207468652050617573657220726f6c65526f6c65733a206163636f756e7420646f6573206e6f74206861766520726f6c65526f6c65733a206163636f756e7420697320746865207a65726f2061646472657373a265627a7a72315820fcfcbf5a7dfc76ec66c2cc1e80f7fdaf509060c42143469795720eaf334d2c8364736f6c63430005100032526f6c65733a206163636f756e7420697320746865207a65726f2061646472657373",
  "linkReferences": {},
  "deployedLinkReferences": {}
}