{
  "_format": "hh-sol-artifact-1",
  "contractName": "GSNRecipientERC20Fee",
  "sourceName": "contracts/IDO_basedon_Openzeppelin/GSN/GSNRecipientERC20Fee.sol",
  "abi": [
    {
      "inputs": [
        {
          "internalType": "string",
          "name": "name",
          "type": "string"
        },
        {
          "internalType": "string",
          "name": "symbol",
          "type": "string"
        }
      ],
      "payable": false,
      "stateMutability": "nonpayable",
      "type": "constructor"
    },
    {
      "anonymous": false,
      "inputs": [
        {
          "indexed": true,
          "internalType": "address",
          "name": "oldRelayHub",
          "type": "address"
        },
        {
          "indexed": true,
          "internalType": "address",
          "name": "newRelayHub",
          "type": "address"
        }
      ],
      "name": "RelayHubChanged",
      "type": "event"
    },
    {
      "constant": true,
      "inputs": [
        {
          "internalType": "address",
          "name": "",
          "type": "address"
        },
        {
          "internalType": "address",
          "name": "from",
          "type": "address"
        },
        {
          "internalType": "bytes",
          "name": "",
          "type": "bytes"
        },
        {
          "internalType": "uint256",
          "name": "transactionFee",
          "type": "uint256"
        },
        {
          "internalType": "uint256",
          "name": "gasPrice",
          "type": "uint256"
        },
        {
          "internalType": "uint256",
          "name": "",
          "type": "uint256"
        },
        {
          "internalType": "uint256",
          "name": "",
          "type": "uint256"
        },
        {
          "internalType": "bytes",
          "name": "",
          "type": "bytes"
        },
        {
          "internalType": "uint256",
          "name": "maxPossibleCharge",
          "type": "uint256"
        }
      ],
      "name": "acceptRelayedCall",
      "outputs": [
        {
          "internalType": "uint256",
          "name": "",
          "type": "uint256"
        },
        {
          "internalType": "bytes",
          "name": "",
          "type": "bytes"
        }
      ],
      "payable": false,
      "stateMutability": "view",
      "type": "function"
    },
    {
      "constant": true,
      "inputs": [],
      "name": "getHubAddr",
      "outputs": [
        {
          "internalType": "address",
          "name": "",
          "type": "address"
        }
      ],
      "payable": false,
      "stateMutability": "view",
      "type": "function"
    },
    {
      "constant": false,
      "inputs": [
        {
          "internalType": "bytes",
          "name": "context",
          "type": "bytes"
        },
        {
          "internalType": "bool",
          "name": "success",
          "type": "bool"
        },
        {
          "internalType": "uint256",
          "name": "actualCharge",
          "type": "uint256"
        },
        {
          "internalType": "bytes32",
          "name": "preRetVal",
          "type": "bytes32"
        }
      ],
      "name": "postRelayedCall",
      "outputs": [],
      "payable": false,
      "stateMutability": "nonpayable",
      "type": "function"
    },
    {
      "constant": false,
      "inputs": [
        {
          "internalType": "bytes",
          "name": "context",
          "type": "bytes"
        }
      ],
      "name": "preRelayedCall",
      "outputs": [
        {
          "internalType": "bytes32",
          "name": "",
          "type": "bytes32"
        }
      ],
      "payable": false,
      "stateMutability": "nonpayable",
      "type": "function"
    },
    {
      "constant": true,
      "inputs": [],
      "name": "relayHubVersion",
      "outputs": [
        {
          "internalType": "string",
          "name": "",
          "type": "string"
        }
      ],
      "payable": false,
      "stateMutability": "view",
      "type": "function"
    },
    {
      "constant": true,
      "inputs": [],
      "name": "token",
      "outputs": [
        {
          "internalType": "contract IERC20",
          "name": "",
          "type": "address"
        }
      ],
      "payable": false,
      "stateMutability": "view",
      "type": "function"
    }
  ],
  "bytecode": "0x6080604052600080546001600160a01b03191673d216153c06e857cd7f72665e0af1d7d82172f4941790553480156200003757600080fd5b506040516200203238038062002032833981810160405260408110156200005d57600080fd5b81019080805160405193929190846401000000008211156200007e57600080fd5b9083019060208201858111156200009457600080fd5b8251640100000000811182820188101715620000af57600080fd5b82525081516020918201929091019080838360005b83811015620000de578181015183820152602001620000c4565b50505050905090810190601f1680156200010c5780820380516001836020036101000a031916815260200191505b50604052602001805160405193929190846401000000008211156200013057600080fd5b9083019060208201858111156200014657600080fd5b82516401000000008111828201881017156200016157600080fd5b82525081516020918201929091019080838360005b838110156200019057818101518382015260200162000176565b50505050905090810190601f168015620001be5780820380516001836020036101000a031916815260200191505b5060405250505081816012604051620001d790620002fd565b60ff82166040820152606080825284519082015283518190602080830191608084019188019080838360005b838110156200021d57818101518382015260200162000203565b50505050905090810190601f1680156200024b5780820380516001836020036101000a031916815260200191505b50838103825285518152855160209182019187019080838360005b838110156200028057818101518382015260200162000266565b50505050905090810190601f168015620002ae5780820380516001836020036101000a031916815260200191505b5095505050505050604051809103906000f080158015620002d3573d6000803e3d6000fd5b50600180546001600160a01b0319166001600160a01b0392909216919091179055506200030b9050565b6111648062000ece83390190565b610bb3806200031b6000396000f3fe608060405234801561001057600080fd5b50600436106100725760003560e01c8063ad61ccd511610050578063ad61ccd51461028e578063e06e0e221461030b578063fc0c546a1461038b57610072565b806374e861d61461007757806380274db71461009b57806383947ea01461011d575b600080fd5b61007f610393565b604080516001600160a01b039092168252519081900360200190f35b61010b600480360360208110156100b157600080fd5b8101906020810181356401000000008111156100cc57600080fd5b8201836020820111156100de57600080fd5b8035906020019184600183028401116401000000008311171561010057600080fd5b5090925090506103a2565b60408051918252519081900360200190f35b61020f600480360361012081101561013457600080fd5b6001600160a01b03823581169260208101359091169181019060608101604082013564010000000081111561016857600080fd5b82018360208201111561017a57600080fd5b8035906020019184600183028401116401000000008311171561019c57600080fd5b9193909282359260208101359260408201359260608301359260a0810190608001356401000000008111156101d057600080fd5b8201836020820111156101e257600080fd5b8035906020019184600183028401116401000000008311171561020457600080fd5b919350915035610441565b6040518083815260200180602001828103825283818151815260200191508051906020019080838360005b8381101561025257818101518382015260200161023a565b50505050905090810190601f16801561027f5780820380516001836020036101000a031916815260200191505b50935050505060405180910390f35b61029661054b565b6040805160208082528351818301528351919283929083019185019080838360005b838110156102d05781810151838201526020016102b8565b50505050905090810190601f1680156102fd5780820380516001836020036101000a031916815260200191505b509250505060405180910390f35b6103896004803603608081101561032157600080fd5b81019060208101813564010000000081111561033c57600080fd5b82018360208201111561034e57600080fd5b8035906020019184600183028401116401000000008311171561037057600080fd5b9193509150803515159060208101359060400135610582565b005b61007f610624565b6000546001600160a01b031690565b60006103ac610393565b6001600160a01b0316336001600160a01b0316146103fb5760405162461bcd60e51b8152600401808060200182810382526024815260200180610b316024913960400191505060405180910390fd5b61043a83838080601f01602080910402602001604051908101604052809392919081815260200183838082843760009201919091525061063392505050565b9392505050565b600154604080517f70a082310000000000000000000000000000000000000000000000000000000081526001600160a01b038d81166004830152915160009360609386939116916370a0823191602480820192602092909190829003018186803b1580156104ae57600080fd5b505afa1580156104c2573d6000803e3d6000fd5b505050506040513d60208110156104d857600080fd5b505110156104f3576104ea6000610680565b9150915061053b565b604080516001600160a01b038e166020820152808201859052606081018b905260808082018b90528251808303909101815260a090910190915261053690610698565b915091505b9b509b9950505050505050505050565b60408051808201909152600581527f312e302e30000000000000000000000000000000000000000000000000000000602082015290565b61058a610393565b6001600160a01b0316336001600160a01b0316146105d95760405162461bcd60e51b8152600401808060200182810382526024815260200180610b316024913960400191505060405180910390fd5b61061d85858080601f01602080910402602001604051908101604052809392919081815260200183838082843760009201919091525087925086915085905061069d565b5050505050565b6001546001600160a01b031690565b600080600083806020019051604081101561064d57600080fd5b5080516020909101516001549193509150610679906001600160a01b031683308463ffffffff61074216565b5050919050565b604080516020810190915260008152600b9190910191565b600091565b6000806000808780602001905160808110156106b857600080fd5b508051602082015160408301516060909301519196509450909250905060006106f66106ef620186a061271063ffffffff6107d016565b8385610812565b9050610708878263ffffffff6107d016565b96506107378561071e868a63ffffffff6107d016565b6001546001600160a01b0316919063ffffffff61082016565b505050505050505050565b604080516001600160a01b0385811660248301528416604482015260648082018490528251808303909101815260849091019091526020810180517bffffffffffffffffffffffffffffffffffffffffffffffffffffffff167f23b872dd000000000000000000000000000000000000000000000000000000001790526107ca9085906108a5565b50505050565b600061043a83836040518060400160405280601e81526020017f536166654d6174683a207375627472616374696f6e206f766572666c6f770000815250610a5d565b606490810191909202020490565b604080516001600160a01b038416602482015260448082018490528251808303909101815260649091019091526020810180517bffffffffffffffffffffffffffffffffffffffffffffffffffffffff167fa9059cbb000000000000000000000000000000000000000000000000000000001790526108a09084906108a5565b505050565b6108b7826001600160a01b0316610af4565b610908576040805162461bcd60e51b815260206004820152601f60248201527f5361666545524332303a2063616c6c20746f206e6f6e2d636f6e747261637400604482015290519081900360640190fd5b60006060836001600160a01b0316836040518082805190602001908083835b602083106109465780518252601f199092019160209182019101610927565b6001836020036101000a0380198251168184511680821785525050505050509050019150506000604051808303816000865af19150503d80600081146109a8576040519150601f19603f3d011682016040523d82523d6000602084013e6109ad565b606091505b509150915081610a04576040805162461bcd60e51b815260206004820181905260248201527f5361666545524332303a206c6f772d6c6576656c2063616c6c206661696c6564604482015290519081900360640190fd5b8051156107ca57808060200190516020811015610a2057600080fd5b50516107ca5760405162461bcd60e51b815260040180806020018281038252602a815260200180610b55602a913960400191505060405180910390fd5b60008184841115610aec5760405162461bcd60e51b81526004018080602001828103825283818151815260200191508051906020019080838360005b83811015610ab1578181015183820152602001610a99565b50505050905090810190601f168015610ade5780820380516001836020036101000a031916815260200191505b509250505060405180910390fd5b505050900390565b6000813f7fc5d2460186f7233c927e7db2dcc703c0e500b653ca82273b7bfad8045d85a470818114801590610b2857508115155b94935050505056fe47534e526563697069656e743a2063616c6c6572206973206e6f742052656c61794875625361666545524332303a204552433230206f7065726174696f6e20646964206e6f742073756363656564a265627a7a7231582062e2d8f495d1a01eb51c71bbe947ba413d31fcb4fa3349c44fd6e424e7e3ad6464736f6c6343000510003260806040523480156200001157600080fd5b506040516200116438038062001164833981810160405260608110156200003757600080fd5b81019080805160405193929190846401000000008211156200005857600080fd5b9083019060208201858111156200006e57600080fd5b82516401000000008111828201881017156200008957600080fd5b82525081516020918201929091019080838360005b83811015620000b85781810151838201526020016200009e565b50505050905090810190601f168015620000e65780820380516001836020036101000a031916815260200191505b50604052602001805160405193929190846401000000008211156200010a57600080fd5b9083019060208201858111156200012057600080fd5b82516401000000008111828201881017156200013b57600080fd5b82525081516020918201929091019080838360005b838110156200016a57818101518382015260200162000150565b50505050905090810190601f168015620001985780820380516001836020036101000a031916815260200191505b50604052602090810151855190935085925084918491620001c0916003919086019062000266565b508151620001d690600490602085019062000266565b506005805460ff191660ff929092169190911790555060009050620001fa62000261565b600580546001600160a01b0383166101008102610100600160a81b03199092169190911790915560408051918252519192507f4101e71e974f68df5e9730cc223280b41654676bbb052cdcc735c3337e64d2d9919081900360200190a15050505062000308565b335b90565b828054600181600116156101000203166002900490600052602060002090601f016020900481019282601f10620002a957805160ff1916838001178555620002d9565b82800160010185558215620002d9579182015b82811115620002d9578251825591602001919060010190620002bc565b50620002e7929150620002eb565b5090565b6200026391905b80821115620002e75760008155600101620002f2565b610e4c80620003186000396000f3fe608060405234801561001057600080fd5b50600436106100ea5760003560e01c806340c10f191161008c578063a457c2d711610066578063a457c2d7146102c8578063a9059cbb146102f4578063c6dbdf6114610320578063dd62ed3e14610344576100ea565b806340c10f191461026e57806370a082311461029a57806395d89b41146102c0576100ea565b80632348238c116100c85780632348238c146101c657806323b872dd146101ee578063313ce567146102245780633950935114610242576100ea565b806306fdde03146100ef578063095ea7b31461016c57806318160ddd146101ac575b600080fd5b6100f7610372565b6040805160208082528351818301528351919283929083019185019080838360005b83811015610131578181015183820152602001610119565b50505050905090810190601f16801561015e5780820380516001836020036101000a031916815260200191505b509250505060405180910390f35b6101986004803603604081101561018257600080fd5b506001600160a01b038135169060200135610408565b604080519115158252519081900360200190f35b6101b4610426565b60408051918252519081900360200190f35b6101ec600480360360208110156101dc57600080fd5b50356001600160a01b031661042c565b005b6101986004803603606081101561020457600080fd5b506001600160a01b03813581169160208101359091169060400135610542565b61022c61058d565b6040805160ff9092168252519081900360200190f35b6101986004803603604081101561025857600080fd5b506001600160a01b038135169060200135610596565b6101ec6004803603604081101561028457600080fd5b506001600160a01b0381351690602001356105ef565b6101b4600480360360208110156102b057600080fd5b50356001600160a01b031661065b565b6100f7610676565b610198600480360360408110156102de57600080fd5b506001600160a01b0381351690602001356106d7565b6101986004803603604081101561030a57600080fd5b506001600160a01b038135169060200135610745565b610328610759565b604080516001600160a01b039092168252519081900360200190f35b6101b46004803603604081101561035a57600080fd5b506001600160a01b038135811691602001351661076d565b60038054604080516020601f60026000196101006001881615020190951694909404938401819004810282018101909252828152606093909290918301828280156103fe5780601f106103d3576101008083540402835291602001916103fe565b820191906000526020600020905b8154815290600101906020018083116103e157829003601f168201915b5050505050905090565b600061041c6104156107aa565b84846107ae565b5060015b92915050565b60025490565b60055461010090046001600160a01b03166104456107aa565b6001600160a01b03161461048a5760405162461bcd60e51b815260040180806020018281038252602c815260200180610da3602c913960400191505060405180910390fd5b6001600160a01b0381166104cf5760405162461bcd60e51b815260040180806020018281038252602a815260200180610d54602a913960400191505060405180910390fd5b600580546001600160a01b03831661010081027fffffffffffffffffffffff0000000000000000000000000000000000000000ff9092169190911790915560408051918252517f4101e71e974f68df5e9730cc223280b41654676bbb052cdcc735c3337e64d2d99181900360200190a150565b600061054c610759565b6001600160a01b0316836001600160a01b03161415610578576105708484846107e4565b506001610586565b610583848484610940565b90505b9392505050565b60055460ff1690565b600061041c6105a36107aa565b846105ea85600160006105b46107aa565b6001600160a01b03908116825260208083019390935260409182016000908120918c16815292529020549063ffffffff6109c816565b6107ae565b60055461010090046001600160a01b03166106086107aa565b6001600160a01b03161461064d5760405162461bcd60e51b815260040180806020018281038252602c815260200180610da3602c913960400191505060405180910390fd5b6106578282610a22565b5050565b6001600160a01b031660009081526020819052604090205490565b60048054604080516020601f60026000196101006001881615020190951694909404938401819004810282018101909252828152606093909290918301828280156103fe5780601f106103d3576101008083540402835291602001916103fe565b600061041c6106e46107aa565b846105ea85604051806060016040528060258152602001610df3602591396001600061070e6107aa565b6001600160a01b03908116825260208083019390935260409182016000908120918d1681529252902054919063ffffffff610b1216565b600061041c6107526107aa565b84846107e4565b60055461010090046001600160a01b031690565b6000610777610759565b6001600160a01b0316826001600160a01b031614156107995750600019610420565b6107a38383610ba9565b9050610420565b3390565b6107b6610759565b6001600160a01b0316826001600160a01b031614156107d4576107df565b6107df838383610bd4565b505050565b6001600160a01b0383166108295760405162461bcd60e51b8152600401808060200182810382526025815260200180610d7e6025913960400191505060405180910390fd5b6001600160a01b03821661086e5760405162461bcd60e51b8152600401808060200182810382526023815260200180610cc16023913960400191505060405180910390fd5b6108b181604051806060016040528060268152602001610d06602691396001600160a01b038616600090815260208190526040902054919063ffffffff610b1216565b6001600160a01b0380851660009081526020819052604080822093909355908416815220546108e6908263ffffffff6109c816565b6001600160a01b038084166000818152602081815260409182902094909455805185815290519193928716927fddf252ad1be2c89b69c2b068fc378daa952ba7f163c4a11628f55a4df523b3ef92918290030190a3505050565b600061094d8484846107e4565b6109be846109596107aa565b6105ea85604051806060016040528060288152602001610d2c602891396001600160a01b038a166000908152600160205260408120906109976107aa565b6001600160a01b03168152602081019190915260400160002054919063ffffffff610b1216565b5060019392505050565b600082820183811015610586576040805162461bcd60e51b815260206004820152601b60248201527f536166654d6174683a206164646974696f6e206f766572666c6f770000000000604482015290519081900360640190fd5b6001600160a01b038216610a7d576040805162461bcd60e51b815260206004820152601f60248201527f45524332303a206d696e7420746f20746865207a65726f206164647265737300604482015290519081900360640190fd5b600254610a90908263ffffffff6109c816565b6002556001600160a01b038216600090815260208190526040902054610abc908263ffffffff6109c816565b6001600160a01b0383166000818152602081815260408083209490945583518581529351929391927fddf252ad1be2c89b69c2b068fc378daa952ba7f163c4a11628f55a4df523b3ef9281900390910190a35050565b60008184841115610ba15760405162461bcd60e51b81526004018080602001828103825283818151815260200191508051906020019080838360005b83811015610b66578181015183820152602001610b4e565b50505050905090810190601f168015610b935780820380516001836020036101000a031916815260200191505b509250505060405180910390fd5b505050900390565b6001600160a01b03918216600090815260016020908152604080832093909416825291909152205490565b6001600160a01b038316610c195760405162461bcd60e51b8152600401808060200182810382526024815260200180610dcf6024913960400191505060405180910390fd5b6001600160a01b038216610c5e5760405162461bcd60e51b8152600401808060200182810382526022815260200180610ce46022913960400191505060405180910390fd5b6001600160a01b03808416600081815260016020908152604080832094871680845294825291829020859055815185815291517f8c5be1e5ebec7d5bd14f71427d1e84f3dd0314c0f7b2291e5b200ac8c7c3b9259281900390910190a350505056fe45524332303a207472616e7366657220746f20746865207a65726f206164647265737345524332303a20617070726f766520746f20746865207a65726f206164647265737345524332303a207472616e7366657220616d6f756e7420657863656564732062616c616e636545524332303a207472616e7366657220616d6f756e74206578636565647320616c6c6f77616e63655365636f6e646172793a206e6577207072696d61727920697320746865207a65726f206164647265737345524332303a207472616e736665722066726f6d20746865207a65726f20616464726573735365636f6e646172793a2063616c6c6572206973206e6f7420746865207072696d617279206163636f756e7445524332303a20617070726f76652066726f6d20746865207a65726f206164647265737345524332303a2064656372656173656420616c6c6f77616e63652062656c6f77207a65726fa265627a7a72315820bf69602ab605e173346fa78647234cc6328474e689d2d235065bd843388a677e64736f6c63430005100032",
  "linkReferences": {},
  "deployedLinkReferences": {}
}