{
  "_format": "hh-sol-artifact-1",
  "contractName": "ERC20Snapshot",
  "sourceName": "contracts/IDO_basedon_Openzeppelin/drafts/ERC20Snapshot.sol",
  "abi": [
    {
      "anonymous": false,
      "inputs": [
        {
          "indexed": true,
          "internalType": "address",
          "name": "owner",
          "type": "address"
        },
        {
          "indexed": true,
          "internalType": "address",
          "name": "spender",
          "type": "address"
        },
        {
          "indexed": false,
          "internalType": "uint256",
          "name": "value",
          "type": "uint256"
        }
      ],
      "name": "Approval",
      "type": "event"
    },
    {
      "anonymous": false,
      "inputs": [
        {
          "indexed": false,
          "internalType": "uint256",
          "name": "id",
          "type": "uint256"
        }
      ],
      "name": "Snapshot",
      "type": "event"
    },
    {
      "anonymous": false,
      "inputs": [
        {
          "indexed": true,
          "internalType": "address",
          "name": "from",
          "type": "address"
        },
        {
          "indexed": true,
          "internalType": "address",
          "name": "to",
          "type": "address"
        },
        {
          "indexed": false,
          "internalType": "uint256",
          "name": "value",
          "type": "uint256"
        }
      ],
      "name": "Transfer",
      "type": "event"
    },
    {
      "constant": true,
      "inputs": [
        {
          "internalType": "address",
          "name": "owner",
          "type": "address"
        },
        {
          "internalType": "address",
          "name": "spender",
          "type": "address"
        }
      ],
      "name": "allowance",
      "outputs": [
        {
          "internalType": "uint256",
          "name": "",
          "type": "uint256"
        }
      ],
      "payable": false,
      "stateMutability": "view",
      "type": "function"
    },
    {
      "constant": false,
      "inputs": [
        {
          "internalType": "address",
          "name": "spender",
          "type": "address"
        },
        {
          "internalType": "uint256",
          "name": "amount",
          "type": "uint256"
        }
      ],
      "name": "approve",
      "outputs": [
        {
          "internalType": "bool",
          "name": "",
          "type": "bool"
        }
      ],
      "payable": false,
      "stateMutability": "nonpayable",
      "type": "function"
    },
    {
      "constant": true,
      "inputs": [
        {
          "internalType": "address",
          "name": "account",
          "type": "address"
        }
      ],
      "name": "balanceOf",
      "outputs": [
        {
          "internalType": "uint256",
          "name": "",
          "type": "uint256"
        }
      ],
      "payable": false,
      "stateMutability": "view",
      "type": "function"
    },
    {
      "constant": true,
      "inputs": [
        {
          "internalType": "address",
          "name": "account",
          "type": "address"
        },
        {
          "internalType": "uint256",
          "name": "snapshotId",
          "type": "uint256"
        }
      ],
      "name": "balanceOfAt",
      "outputs": [
        {
          "internalType": "uint256",
          "name": "",
          "type": "uint256"
        }
      ],
      "payable": false,
      "stateMutability": "view",
      "type": "function"
    },
    {
      "constant": false,
      "inputs": [
        {
          "internalType": "address",
          "name": "spender",
          "type": "address"
        },
        {
          "internalType": "uint256",
          "name": "subtractedValue",
          "type": "uint256"
        }
      ],
      "name": "decreaseAllowance",
      "outputs": [
        {
          "internalType": "bool",
          "name": "",
          "type": "bool"
        }
      ],
      "payable": false,
      "stateMutability": "nonpayable",
      "type": "function"
    },
    {
      "constant": false,
      "inputs": [
        {
          "internalType": "address",
          "name": "spender",
          "type": "address"
        },
        {
          "internalType": "uint256",
          "name": "addedValue",
          "type": "uint256"
        }
      ],
      "name": "increaseAllowance",
      "outputs": [
        {
          "internalType": "bool",
          "name": "",
          "type": "bool"
        }
      ],
      "payable": false,
      "stateMutability": "nonpayable",
      "type": "function"
    },
    {
      "constant": false,
      "inputs": [],
      "name": "snapshot",
      "outputs": [
        {
          "internalType": "uint256",
          "name": "",
          "type": "uint256"
        }
      ],
      "payable": false,
      "stateMutability": "nonpayable",
      "type": "function"
    },
    {
      "constant": true,
      "inputs": [],
      "name": "totalSupply",
      "outputs": [
        {
          "internalType": "uint256",
          "name": "",
          "type": "uint256"
        }
      ],
      "payable": false,
      "stateMutability": "view",
      "type": "function"
    },
    {
      "constant": true,
      "inputs": [
        {
          "internalType": "uint256",
          "name": "snapshotId",
          "type": "uint256"
        }
      ],
      "name": "totalSupplyAt",
      "outputs": [
        {
          "internalType": "uint256",
          "name": "",
          "type": "uint256"
        }
      ],
      "payable": false,
      "stateMutability": "view",
      "type": "function"
    },
    {
      "constant": false,
      "inputs": [
        {
          "internalType": "address",
          "name": "recipient",
          "type": "address"
        },
        {
          "internalType": "uint256",
          "name": "amount",
          "type": "uint256"
        }
      ],
      "name": "transfer",
      "outputs": [
        {
          "internalType": "bool",
          "name": "",
          "type": "bool"
        }
      ],
      "payable": false,
      "stateMutability": "nonpayable",
      "type": "function"
    },
    {
      "constant": false,
      "inputs": [
        {
          "internalType": "address",
          "name": "sender",
          "type": "address"
        },
        {
          "internalType": "address",
          "name": "recipient",
          "type": "address"
        },
        {
          "internalType": "uint256",
          "name": "amount",
          "type": "uint256"
        }
      ],
      "name": "transferFrom",
      "outputs": [
        {
          "internalType": "bool",
          "name": "",
          "type": "bool"
        }
      ],
      "payable": false,
      "stateMutability": "nonpayable",
      "type": "function"
    }
  ],
  "bytecode": "0x6080604052610c4c806100136000396000f3fe608060405234801561001057600080fd5b50600436106100c95760003560e01c806370a0823111610081578063a457c2d71161005b578063a457c2d714610201578063a9059cbb1461022d578063dd62ed3e14610259576100c9565b806370a08231146101b65780639711715a146101dc578063981b24d0146101e4576100c9565b806323b872dd116100b257806323b872dd14610128578063395093511461015e5780634ee2cd7e1461018a576100c9565b8063095ea7b3146100ce57806318160ddd1461010e575b600080fd5b6100fa600480360360408110156100e457600080fd5b506001600160a01b038135169060200135610287565b604080519115158252519081900360200190f35b6101166102a5565b60408051918252519081900360200190f35b6100fa6004803603606081101561013e57600080fd5b506001600160a01b038135811691602081013590911690604001356102ab565b6100fa6004803603604081101561017457600080fd5b506001600160a01b038135169060200135610338565b610116600480360360408110156101a057600080fd5b506001600160a01b03813516906020013561038c565b610116600480360360208110156101cc57600080fd5b50356001600160a01b03166103d5565b6101166103f4565b610116600480360360208110156101fa57600080fd5b5035610448565b6100fa6004803603604081101561021757600080fd5b506001600160a01b038135169060200135610478565b6100fa6004803603604081101561024357600080fd5b506001600160a01b0381351690602001356104e6565b6101166004803603604081101561026f57600080fd5b506001600160a01b03813581169160200135166104fa565b600061029b610294610525565b8484610529565b5060015b92915050565b60025490565b60006102b8848484610615565b61032e846102c4610525565b61032985604051806060016040528060288152602001610b82602891396001600160a01b038a16600090815260016020526040812090610302610525565b6001600160a01b03168152602081019190915260400160002054919063ffffffff61063716565b610529565b5060019392505050565b600061029b610345610525565b846103298560016000610356610525565b6001600160a01b03908116825260208083019390935260409182016000908120918c16815292529020549063ffffffff6106ce16565b6001600160a01b0382166000908152600360205260408120819081906103b390859061072f565b91509150816103ca576103c5856103d5565b6103cc565b805b95945050505050565b6001600160a01b0381166000908152602081905260409020545b919050565b60006104006006610839565b600061040c6006610842565b6040805182815290519192507f8030e83b04d87bef53480e26263266d6ca66863aa8506aca6f2559d18aa1cb67919081900360200190a1905090565b600080600061045884600461072f565b915091508161046e576104696102a5565b610470565b805b949350505050565b600061029b610485610525565b8461032985604051806060016040528060258152602001610bf360259139600160006104af610525565b6001600160a01b03908116825260208083019390935260409182016000908120918d1681529252902054919063ffffffff61063716565b600061029b6104f3610525565b8484610615565b6001600160a01b03918216600090815260016020908152604080832093909416825291909152205490565b3390565b6001600160a01b03831661056e5760405162461bcd60e51b8152600401808060200182810382526024815260200180610bcf6024913960400191505060405180910390fd5b6001600160a01b0382166105b35760405162461bcd60e51b8152600401808060200182810382526022815260200180610b3a6022913960400191505060405180910390fd5b6001600160a01b03808416600081815260016020908152604080832094871680845294825291829020859055815185815291517f8c5be1e5ebec7d5bd14f71427d1e84f3dd0314c0f7b2291e5b200ac8c7c3b9259281900390910190a3505050565b61061e83610846565b61062782610846565b610632838383610873565b505050565b600081848411156106c65760405162461bcd60e51b81526004018080602001828103825283818151815260200191508051906020019080838360005b8381101561068b578181015183820152602001610673565b50505050905090810190601f1680156106b85780820380516001836020036101000a031916815260200191505b509250505060405180910390fd5b505050900390565b600082820183811015610728576040805162461bcd60e51b815260206004820152601b60248201527f536166654d6174683a206164646974696f6e206f766572666c6f770000000000604482015290519081900360640190fd5b9392505050565b60008060008411610787576040805162461bcd60e51b815260206004820152601660248201527f4552433230536e617073686f743a206964206973203000000000000000000000604482015290519081900360640190fd5b6107916006610842565b8411156107e5576040805162461bcd60e51b815260206004820152601d60248201527f4552433230536e617073686f743a206e6f6e6578697374656e74206964000000604482015290519081900360640190fd5b60006107f7848663ffffffff6109cf16565b8454909150811415610810575060009150819050610832565b600184600101828154811061082157fe5b906000526020600020015492509250505b9250929050565b80546001019055565b5490565b6001600160a01b03811660009081526003602052604090206108709061086b836103d5565b610a70565b50565b6001600160a01b0383166108b85760405162461bcd60e51b8152600401808060200182810382526025815260200180610baa6025913960400191505060405180910390fd5b6001600160a01b0382166108fd5760405162461bcd60e51b8152600401808060200182810382526023815260200180610b176023913960400191505060405180910390fd5b61094081604051806060016040528060268152602001610b5c602691396001600160a01b038616600090815260208190526040902054919063ffffffff61063716565b6001600160a01b038085166000908152602081905260408082209390935590841681522054610975908263ffffffff6106ce16565b6001600160a01b038084166000818152602081815260409182902094909455805185815290519193928716927fddf252ad1be2c89b69c2b068fc378daa952ba7f163c4a11628f55a4df523b3ef92918290030190a3505050565b81546000906109e05750600061029f565b82546000905b80821015610a2f5760006109fa8383610abc565b905084868281548110610a0957fe5b90600052602060002001541115610a2257809150610a29565b8060010192505b506109e6565b600082118015610a57575083856001840381548110610a4a57fe5b9060005260206000200154145b15610a68575060001901905061029f565b50905061029f565b6000610a7c6006610842565b905080610a8884610ae1565b1015610632578254600180820185556000858152602080822090930193909355938401805494850181558252902090910155565b60006002808306600285060181610acf57fe5b04600283046002850401019392505050565b8054600090610af2575060006103ef565b815482906000198101908110610b0457fe5b906000526020600020015490506103ef56fe45524332303a207472616e7366657220746f20746865207a65726f206164647265737345524332303a20617070726f766520746f20746865207a65726f206164647265737345524332303a207472616e7366657220616d6f756e7420657863656564732062616c616e636545524332303a207472616e7366657220616d6f756e74206578636565647320616c6c6f77616e636545524332303a207472616e736665722066726f6d20746865207a65726f206164647265737345524332303a20617070726f76652066726f6d20746865207a65726f206164647265737345524332303a2064656372656173656420616c6c6f77616e63652062656c6f77207a65726fa265627a7a7231582071a3bb8835560ca4e11238dbea09c1d7c855fd02836b739567bd37a9478a80fa64736f6c63430005100032",
  "linkReferences": {},
  "deployedLinkReferences": {}
}