{
  "_format": "hh-sol-artifact-1",
  "contractName": "ERC721Mintable",
  "sourceName": "contracts/IDO_basedon_Openzeppelin/token/ERC721/ERC721Mintable.sol",
  "abi": [
    {
      "anonymous": false,
      "inputs": [
        {
          "indexed": true,
          "internalType": "address",
          "name": "owner",
          "type": "address"
        },
        {
          "indexed": true,
          "internalType": "address",
          "name": "approved",
          "type": "address"
        },
        {
          "indexed": true,
          "internalType": "uint256",
          "name": "tokenId",
          "type": "uint256"
        }
      ],
      "name": "Approval",
      "type": "event"
    },
    {
      "anonymous": false,
      "inputs": [
        {
          "indexed": true,
          "internalType": "address",
          "name": "owner",
          "type": "address"
        },
        {
          "indexed": true,
          "internalType": "address",
          "name": "operator",
          "type": "address"
        },
        {
          "indexed": false,
          "internalType": "bool",
          "name": "approved",
          "type": "bool"
        }
      ],
      "name": "ApprovalForAll",
      "type": "event"
    },
    {
      "anonymous": false,
      "inputs": [
        {
          "indexed": true,
          "internalType": "address",
          "name": "account",
          "type": "address"
        }
      ],
      "name": "MinterAdded",
      "type": "event"
    },
    {
      "anonymous": false,
      "inputs": [
        {
          "indexed": true,
          "internalType": "address",
          "name": "account",
          "type": "address"
        }
      ],
      "name": "MinterRemoved",
      "type": "event"
    },
    {
      "anonymous": false,
      "inputs": [
        {
          "indexed": true,
          "internalType": "address",
          "name": "from",
          "type": "address"
        },
        {
          "indexed": true,
          "internalType": "address",
          "name": "to",
          "type": "address"
        },
        {
          "indexed": true,
          "internalType": "uint256",
          "name": "tokenId",
          "type": "uint256"
        }
      ],
      "name": "Transfer",
      "type": "event"
    },
    {
      "constant": false,
      "inputs": [
        {
          "internalType": "address",
          "name": "account",
          "type": "address"
        }
      ],
      "name": "addMinter",
      "outputs": [],
      "payable": false,
      "stateMutability": "nonpayable",
      "type": "function"
    },
    {
      "constant": false,
      "inputs": [
        {
          "internalType": "address",
          "name": "to",
          "type": "address"
        },
        {
          "internalType": "uint256",
          "name": "tokenId",
          "type": "uint256"
        }
      ],
      "name": "approve",
      "outputs": [],
      "payable": false,
      "stateMutability": "nonpayable",
      "type": "function"
    },
    {
      "constant": true,
      "inputs": [
        {
          "internalType": "address",
          "name": "owner",
          "type": "address"
        }
      ],
      "name": "balanceOf",
      "outputs": [
        {
          "internalType": "uint256",
          "name": "",
          "type": "uint256"
        }
      ],
      "payable": false,
      "stateMutability": "view",
      "type": "function"
    },
    {
      "constant": true,
      "inputs": [
        {
          "internalType": "uint256",
          "name": "tokenId",
          "type": "uint256"
        }
      ],
      "name": "getApproved",
      "outputs": [
        {
          "internalType": "address",
          "name": "",
          "type": "address"
        }
      ],
      "payable": false,
      "stateMutability": "view",
      "type": "function"
    },
    {
      "constant": true,
      "inputs": [
        {
          "internalType": "address",
          "name": "owner",
          "type": "address"
        },
        {
          "internalType": "address",
          "name": "operator",
          "type": "address"
        }
      ],
      "name": "isApprovedForAll",
      "outputs": [
        {
          "internalType": "bool",
          "name": "",
          "type": "bool"
        }
      ],
      "payable": false,
      "stateMutability": "view",
      "type": "function"
    },
    {
      "constant": true,
      "inputs": [
        {
          "internalType": "address",
          "name": "account",
          "type": "address"
        }
      ],
      "name": "isMinter",
      "outputs": [
        {
          "internalType": "bool",
          "name": "",
          "type": "bool"
        }
      ],
      "payable": false,
      "stateMutability": "view",
      "type": "function"
    },
    {
      "constant": false,
      "inputs": [
        {
          "internalType": "address",
          "name": "to",
          "type": "address"
        },
        {
          "internalType": "uint256",
          "name": "tokenId",
          "type": "uint256"
        }
      ],
      "name": "mint",
      "outputs": [
        {
          "internalType": "bool",
          "name": "",
          "type": "bool"
        }
      ],
      "payable": false,
      "stateMutability": "nonpayable",
      "type": "function"
    },
    {
      "constant": true,
      "inputs": [
        {
          "internalType": "uint256",
          "name": "tokenId",
          "type": "uint256"
        }
      ],
      "name": "ownerOf",
      "outputs": [
        {
          "internalType": "address",
          "name": "",
          "type": "address"
        }
      ],
      "payable": false,
      "stateMutability": "view",
      "type": "function"
    },
    {
      "constant": false,
      "inputs": [],
      "name": "renounceMinter",
      "outputs": [],
      "payable": false,
      "stateMutability": "nonpayable",
      "type": "function"
    },
    {
      "constant": false,
      "inputs": [
        {
          "internalType": "address",
          "name": "to",
          "type": "address"
        },
        {
          "internalType": "uint256",
          "name": "tokenId",
          "type": "uint256"
        },
        {
          "internalType": "bytes",
          "name": "_data",
          "type": "bytes"
        }
      ],
      "name": "safeMint",
      "outputs": [
        {
          "internalType": "bool",
          "name": "",
          "type": "bool"
        }
      ],
      "payable": false,
      "stateMutability": "nonpayable",
      "type": "function"
    },
    {
      "constant": false,
      "inputs": [
        {
          "internalType": "address",
          "name": "to",
          "type": "address"
        },
        {
          "internalType": "uint256",
          "name": "tokenId",
          "type": "uint256"
        }
      ],
      "name": "safeMint",
      "outputs": [
        {
          "internalType": "bool",
          "name": "",
          "type": "bool"
        }
      ],
      "payable": false,
      "stateMutability": "nonpayable",
      "type": "function"
    },
    {
      "constant": false,
      "inputs": [
        {
          "internalType": "address",
          "name": "from",
          "type": "address"
        },
        {
          "internalType": "address",
          "name": "to",
          "type": "address"
        },
        {
          "internalType": "uint256",
          "name": "tokenId",
          "type": "uint256"
        }
      ],
      "name": "safeTransferFrom",
      "outputs": [],
      "payable": false,
      "stateMutability": "nonpayable",
      "type": "function"
    },
    {
      "constant": false,
      "inputs": [
        {
          "internalType": "address",
          "name": "from",
          "type": "address"
        },
        {
          "internalType": "address",
          "name": "to",
          "type": "address"
        },
        {
          "internalType": "uint256",
          "name": "tokenId",
          "type": "uint256"
        },
        {
          "internalType": "bytes",
          "name": "_data",
          "type": "bytes"
        }
      ],
      "name": "safeTransferFrom",
      "outputs": [],
      "payable": false,
      "stateMutability": "nonpayable",
      "type": "function"
    },
    {
      "constant": false,
      "inputs": [
        {
          "internalType": "address",
          "name": "to",
          "type": "address"
        },
        {
          "internalType": "bool",
          "name": "approved",
          "type": "bool"
        }
      ],
      "name": "setApprovalForAll",
      "outputs": [],
      "payable": false,
      "stateMutability": "nonpayable",
      "type": "function"
    },
    {
      "constant": true,
      "inputs": [
        {
          "internalType": "bytes4",
          "name": "interfaceId",
          "type": "bytes4"
        }
      ],
      "name": "supportsInterface",
      "outputs": [
        {
          "internalType": "bool",
          "name": "",
          "type": "bool"
        }
      ],
      "payable": false,
      "stateMutability": "view",
      "type": "function"
    },
    {
      "constant": false,
      "inputs": [
        {
          "internalType": "address",
          "name": "from",
          "type": "address"
        },
        {
          "internalType": "address",
          "name": "to",
          "type": "address"
        },
        {
          "internalType": "uint256",
          "name": "tokenId",
          "type": "uint256"
        }
      ],
      "name": "transferFrom",
      "outputs": [],
      "payable": false,
      "stateMutability": "nonpayable",
      "type": "function"
    }
  ],
  "bytecode": "0x60806040526200001f6301ffc9a760e01b6001600160e01b036200006616565b6200003a6380ac58cd60e01b6001600160e01b036200006616565b62000060620000516001600160e01b03620000eb16565b6001600160e01b03620000ef16565b62000237565b6001600160e01b03198082161415620000c6576040805162461bcd60e51b815260206004820152601c60248201527f4552433136353a20696e76616c696420696e7465726661636520696400000000604482015290519081900360640190fd5b6001600160e01b0319166000908152602081905260409020805460ff19166001179055565b3390565b6200010a8160056200014160201b620012c01790919060201c565b6040516001600160a01b038216907f6ae172837ea30b801fbfcdd4108aa1d5bf8ff775444fd70256b44e6bf3dfc3f690600090a250565b6200015682826001600160e01b03620001ce16565b15620001a9576040805162461bcd60e51b815260206004820152601f60248201527f526f6c65733a206163636f756e7420616c72656164792068617320726f6c6500604482015290519081900360640190fd5b6001600160a01b0316600090815260209190915260409020805460ff19166001179055565b60006001600160a01b038216620002175760405162461bcd60e51b8152600401808060200182810382526022815260200180620019646022913960400191505060405180910390fd5b506001600160a01b03166000908152602091909152604090205460ff1690565b61171d80620002476000396000f3fe608060405234801561001057600080fd5b50600436106101005760003560e01c80638832e6e311610097578063a22cb46511610066578063a22cb465146103a9578063aa271e1a146103d7578063b88d4fde146103fd578063e985e9c5146104c357610100565b80638832e6e314610294578063983b2d561461034f5780639865027514610375578063a14481941461037d57610100565b806340c10f19116100d357806340c10f19146101dd57806342842e0e146102095780636352211e1461023f57806370a082311461025c57610100565b806301ffc9a714610105578063081812fc14610140578063095ea7b31461017957806323b872dd146101a7575b600080fd5b61012c6004803603602081101561011b57600080fd5b50356001600160e01b0319166104f1565b604080519115158252519081900360200190f35b61015d6004803603602081101561015657600080fd5b5035610510565b604080516001600160a01b039092168252519081900360200190f35b6101a56004803603604081101561018f57600080fd5b506001600160a01b038135169060200135610572565b005b6101a5600480360360608110156101bd57600080fd5b506001600160a01b038135811691602081013590911690604001356106a7565b61012c600480360360408110156101f357600080fd5b506001600160a01b038135169060200135610703565b6101a56004803603606081101561021f57600080fd5b506001600160a01b03813581169160208101359091169060400135610763565b61015d6004803603602081101561025557600080fd5b503561077e565b6102826004803603602081101561027257600080fd5b50356001600160a01b03166107d8565b60408051918252519081900360200190f35b61012c600480360360608110156102aa57600080fd5b6001600160a01b03823516916020810135918101906060810160408201356401000000008111156102da57600080fd5b8201836020820111156102ec57600080fd5b8035906020019184600183028401116401000000008311171561030e57600080fd5b91908080601f016020809104026020016040519081016040528093929190818152602001838380828437600092019190915250929550610840945050505050565b6101a56004803603602081101561036557600080fd5b50356001600160a01b031661089d565b6101a56108ef565b61012c6004803603604081101561039357600080fd5b506001600160a01b038135169060200135610901565b6101a5600480360360408110156103bf57600080fd5b506001600160a01b0381351690602001351515610953565b61012c600480360360208110156103ed57600080fd5b50356001600160a01b0316610a58565b6101a56004803603608081101561041357600080fd5b6001600160a01b0382358116926020810135909116916040820135919081019060808101606082013564010000000081111561044e57600080fd5b82018360208201111561046057600080fd5b8035906020019184600183028401116401000000008311171561048257600080fd5b91908080601f016020809104026020016040519081016040528093929190818152602001838380828437600092019190915250929550610a6b945050505050565b61012c600480360360408110156104d957600080fd5b506001600160a01b0381358116916020013516610ac9565b6001600160e01b03191660009081526020819052604090205460ff1690565b600061051b82610af7565b6105565760405162461bcd60e51b815260040180806020018281038252602c815260200180611620602c913960400191505060405180910390fd5b506000908152600260205260409020546001600160a01b031690565b600061057d8261077e565b9050806001600160a01b0316836001600160a01b031614156105d05760405162461bcd60e51b81526004018080602001828103825260218152602001806116976021913960400191505060405180910390fd5b806001600160a01b03166105e2610b14565b6001600160a01b031614806106035750610603816105fe610b14565b610ac9565b61063e5760405162461bcd60e51b81526004018080602001828103825260388152602001806115446038913960400191505060405180910390fd5b600082815260026020526040808220805473ffffffffffffffffffffffffffffffffffffffff19166001600160a01b0387811691821790925591518593918516917f8c5be1e5ebec7d5bd14f71427d1e84f3dd0314c0f7b2291e5b200ac8c7c3b92591a4505050565b6106b86106b2610b14565b82610b18565b6106f35760405162461bcd60e51b81526004018080602001828103825260318152602001806116b86031913960400191505060405180910390fd5b6106fe838383610bbc565b505050565b6000610715610710610b14565b610a58565b6107505760405162461bcd60e51b81526004018080602001828103825260308152602001806115cf6030913960400191505060405180910390fd5b61075a8383610d0d565b50600192915050565b6106fe83838360405180602001604052806000815250610a6b565b6000818152600160205260408120546001600160a01b0316806107d25760405162461bcd60e51b81526004018080602001828103825260298152602001806115a66029913960400191505060405180910390fd5b92915050565b60006001600160a01b03821661081f5760405162461bcd60e51b815260040180806020018281038252602a81526020018061157c602a913960400191505060405180910390fd5b6001600160a01b03821660009081526003602052604090206107d290610e4b565b600061084d610710610b14565b6108885760405162461bcd60e51b81526004018080602001828103825260308152602001806115cf6030913960400191505060405180910390fd5b610893848484610e4f565b5060019392505050565b6108a8610710610b14565b6108e35760405162461bcd60e51b81526004018080602001828103825260308152602001806115cf6030913960400191505060405180910390fd5b6108ec81610ea1565b50565b6108ff6108fa610b14565b610ee9565b565b600061090e610710610b14565b6109495760405162461bcd60e51b81526004018080602001828103825260308152602001806115cf6030913960400191505060405180910390fd5b61075a8383610f31565b61095b610b14565b6001600160a01b0316826001600160a01b031614156109c1576040805162461bcd60e51b815260206004820152601960248201527f4552433732313a20617070726f766520746f2063616c6c657200000000000000604482015290519081900360640190fd5b80600460006109ce610b14565b6001600160a01b03908116825260208083019390935260409182016000908120918716808252919093529120805460ff191692151592909217909155610a12610b14565b60408051841515815290516001600160a01b0392909216917f17307eab39ab6107e8899845ad3d59bd9653f200f220920489ca2b5937696c319181900360200190a35050565b60006107d260058363ffffffff610f4f16565b610a7c610a76610b14565b83610b18565b610ab75760405162461bcd60e51b81526004018080602001828103825260318152602001806116b86031913960400191505060405180910390fd5b610ac384848484610fb6565b50505050565b6001600160a01b03918216600090815260046020908152604080832093909416825291909152205460ff1690565b6000908152600160205260409020546001600160a01b0316151590565b3390565b6000610b2382610af7565b610b5e5760405162461bcd60e51b815260040180806020018281038252602c815260200180611518602c913960400191505060405180910390fd5b6000610b698361077e565b9050806001600160a01b0316846001600160a01b03161480610ba45750836001600160a01b0316610b9984610510565b6001600160a01b0316145b80610bb45750610bb48185610ac9565b949350505050565b826001600160a01b0316610bcf8261077e565b6001600160a01b031614610c145760405162461bcd60e51b815260040180806020018281038252602981526020018061166e6029913960400191505060405180910390fd5b6001600160a01b038216610c595760405162461bcd60e51b81526004018080602001828103825260248152602001806114f46024913960400191505060405180910390fd5b610c6281611008565b6001600160a01b0383166000908152600360205260409020610c8390611050565b6001600160a01b0382166000908152600360205260409020610ca490611067565b600081815260016020526040808220805473ffffffffffffffffffffffffffffffffffffffff19166001600160a01b0386811691821790925591518493918716917fddf252ad1be2c89b69c2b068fc378daa952ba7f163c4a11628f55a4df523b3ef91a4505050565b6001600160a01b038216610d68576040805162461bcd60e51b815260206004820181905260248201527f4552433732313a206d696e7420746f20746865207a65726f2061646472657373604482015290519081900360640190fd5b610d7181610af7565b15610dc3576040805162461bcd60e51b815260206004820152601c60248201527f4552433732313a20746f6b656e20616c7265616479206d696e74656400000000604482015290519081900360640190fd5b6000818152600160209081526040808320805473ffffffffffffffffffffffffffffffffffffffff19166001600160a01b038716908117909155835260039091529020610e0f90611067565b60405181906001600160a01b038416906000907fddf252ad1be2c89b69c2b068fc378daa952ba7f163c4a11628f55a4df523b3ef908290a45050565b5490565b610e598383610d0d565b610e666000848484611070565b6106fe5760405162461bcd60e51b81526004018080602001828103825260328152602001806114c26032913960400191505060405180910390fd5b610eb260058263ffffffff6112c016565b6040516001600160a01b038216907f6ae172837ea30b801fbfcdd4108aa1d5bf8ff775444fd70256b44e6bf3dfc3f690600090a250565b610efa60058263ffffffff61134116565b6040516001600160a01b038216907fe94479a9f7e1952cc78f2d6baab678adc1b772d936c6583def489e524cb6669290600090a250565b610f4b828260405180602001604052806000815250610e4f565b5050565b60006001600160a01b038216610f965760405162461bcd60e51b815260040180806020018281038252602281526020018061164c6022913960400191505060405180910390fd5b506001600160a01b03166000908152602091909152604090205460ff1690565b610fc1848484610bbc565b610fcd84848484611070565b610ac35760405162461bcd60e51b81526004018080602001828103825260328152602001806114c26032913960400191505060405180910390fd5b6000818152600260205260409020546001600160a01b0316156108ec576000908152600260205260409020805473ffffffffffffffffffffffffffffffffffffffff19169055565b805461106390600163ffffffff6113a816565b9055565b80546001019055565b6000611084846001600160a01b03166113f1565b61109057506001610bb4565b600060606001600160a01b038616630a85bd0160e11b6110ae610b14565b89888860405160240180856001600160a01b03166001600160a01b03168152602001846001600160a01b03166001600160a01b0316815260200183815260200180602001828103825283818151815260200191508051906020019080838360005b8381101561112757818101518382015260200161110f565b50505050905090810190601f1680156111545780820380516001836020036101000a031916815260200191505b5060408051601f198184030181529181526020820180517bffffffffffffffffffffffffffffffffffffffffffffffffffffffff166001600160e01b0319909a16999099178952518151919890975087965094509250829150849050835b602083106111d15780518252601f1990920191602091820191016111b2565b6001836020036101000a0380198251168184511680821785525050505050509050019150506000604051808303816000865af19150503d8060008114611233576040519150601f19603f3d011682016040523d82523d6000602084013e611238565b606091505b509150915081611289578051156112525780518082602001fd5b60405162461bcd60e51b81526004018080602001828103825260328152602001806114c26032913960400191505060405180910390fd5b60008180602001905160208110156112a057600080fd5b50516001600160e01b031916630a85bd0160e11b149350610bb492505050565b6112ca8282610f4f565b1561131c576040805162461bcd60e51b815260206004820152601f60248201527f526f6c65733a206163636f756e7420616c72656164792068617320726f6c6500604482015290519081900360640190fd5b6001600160a01b0316600090815260209190915260409020805460ff19166001179055565b61134b8282610f4f565b6113865760405162461bcd60e51b81526004018080602001828103825260218152602001806115ff6021913960400191505060405180910390fd5b6001600160a01b0316600090815260209190915260409020805460ff19169055565b60006113ea83836040518060400160405280601e81526020017f536166654d6174683a207375627472616374696f6e206f766572666c6f77000081525061142a565b9392505050565b6000813f7fc5d2460186f7233c927e7db2dcc703c0e500b653ca82273b7bfad8045d85a470818114801590610bb4575050151592915050565b600081848411156114b95760405162461bcd60e51b81526004018080602001828103825283818151815260200191508051906020019080838360005b8381101561147e578181015183820152602001611466565b50505050905090810190601f1680156114ab5780820380516001836020036101000a031916815260200191505b509250505060405180910390fd5b50505090039056fe4552433732313a207472616e7366657220746f206e6f6e20455243373231526563656976657220696d706c656d656e7465724552433732313a207472616e7366657220746f20746865207a65726f20616464726573734552433732313a206f70657261746f7220717565727920666f72206e6f6e6578697374656e7420746f6b656e4552433732313a20617070726f76652063616c6c6572206973206e6f74206f776e6572206e6f7220617070726f76656420666f7220616c6c4552433732313a2062616c616e636520717565727920666f7220746865207a65726f20616464726573734552433732313a206f776e657220717565727920666f72206e6f6e6578697374656e7420746f6b656e4d696e746572526f6c653a2063616c6c657220646f6573206e6f74206861766520746865204d696e74657220726f6c65526f6c65733a206163636f756e7420646f6573206e6f74206861766520726f6c654552433732313a20617070726f76656420717565727920666f72206e6f6e6578697374656e7420746f6b656e526f6c65733a206163636f756e7420697320746865207a65726f20616464726573734552433732313a207472616e73666572206f6620746f6b656e2074686174206973206e6f74206f776e4552433732313a20617070726f76616c20746f2063757272656e74206f776e65724552433732313a207472616e736665722063616c6c6572206973206e6f74206f776e6572206e6f7220617070726f766564a265627a7a72315820a77713a0025b2887bc901d1921c83167b1d635abd32caf2ea211855d72fc06da64736f6c63430005100032526f6c65733a206163636f756e7420697320746865207a65726f2061646472657373",
  "linkReferences": {},
  "deployedLinkReferences": {}
}