{
  "_format": "hh-sol-artifact-1",
  "contractName": "IDO",
  "sourceName": "contracts/IDO.sol",
  "abi": [
    {
      "inputs": [
        {
          "internalType": "address",
          "name": "_projectToken",
          "type": "address"
        },
        {
          "internalType": "address",
          "name": "_tradeToken",
          "type": "address"
        }
      ],
      "stateMutability": "nonpayable",
      "type": "constructor"
    },
    {
      "anonymous": false,
      "inputs": [
        {
          "indexed": true,
          "internalType": "address",
          "name": "previousOwner",
          "type": "address"
        },
        {
          "indexed": true,
          "internalType": "address",
          "name": "newOwner",
          "type": "address"
        }
      ],
      "name": "OwnershipTransferred",
      "type": "event"
    },
    {
      "inputs": [
        {
          "internalType": "uint256",
          "name": "amount",
          "type": "uint256"
        }
      ],
      "name": "buy",
      "outputs": [
        {
          "internalType": "bool",
          "name": "success",
          "type": "bool"
        }
      ],
      "stateMutability": "payable",
      "type": "function"
    },
    {
      "inputs": [],
      "name": "getOwner",
      "outputs": [
        {
          "internalType": "address",
          "name": "",
          "type": "address"
        }
      ],
      "stateMutability": "view",
      "type": "function"
    },
    {
      "inputs": [],
      "name": "getRatio",
      "outputs": [
        {
          "internalType": "uint256",
          "name": "",
          "type": "uint256"
        }
      ],
      "stateMutability": "view",
      "type": "function"
    },
    {
      "inputs": [],
      "name": "owner",
      "outputs": [
        {
          "internalType": "address",
          "name": "",
          "type": "address"
        }
      ],
      "stateMutability": "view",
      "type": "function"
    },
    {
      "inputs": [],
      "name": "projectTokens",
      "outputs": [
        {
          "internalType": "address",
          "name": "",
          "type": "address"
        }
      ],
      "stateMutability": "view",
      "type": "function"
    },
    {
      "inputs": [],
      "name": "renounceOwnership",
      "outputs": [],
      "stateMutability": "nonpayable",
      "type": "function"
    },
    {
      "inputs": [],
      "name": "returnTokens",
      "outputs": [
        {
          "internalType": "bool",
          "name": "",
          "type": "bool"
        }
      ],
      "stateMutability": "nonpayable",
      "type": "function"
    },
    {
      "inputs": [],
      "name": "saleStatus",
      "outputs": [
        {
          "internalType": "bool",
          "name": "",
          "type": "bool"
        }
      ],
      "stateMutability": "view",
      "type": "function"
    },
    {
      "inputs": [
        {
          "internalType": "uint256",
          "name": "_cap",
          "type": "uint256"
        }
      ],
      "name": "setCap",
      "outputs": [
        {
          "internalType": "bool",
          "name": "",
          "type": "bool"
        }
      ],
      "stateMutability": "nonpayable",
      "type": "function"
    },
    {
      "inputs": [
        {
          "internalType": "uint256",
          "name": "_ratio",
          "type": "uint256"
        }
      ],
      "name": "setRatio",
      "outputs": [
        {
          "internalType": "bool",
          "name": "",
          "type": "bool"
        }
      ],
      "stateMutability": "nonpayable",
      "type": "function"
    },
    {
      "inputs": [
        {
          "internalType": "bool",
          "name": "_sale",
          "type": "bool"
        }
      ],
      "name": "setSale",
      "outputs": [],
      "stateMutability": "nonpayable",
      "type": "function"
    },
    {
      "inputs": [],
      "name": "tokensLeft",
      "outputs": [
        {
          "internalType": "uint256",
          "name": "",
          "type": "uint256"
        }
      ],
      "stateMutability": "view",
      "type": "function"
    },
    {
      "inputs": [],
      "name": "tradedTokens",
      "outputs": [
        {
          "internalType": "address",
          "name": "",
          "type": "address"
        }
      ],
      "stateMutability": "view",
      "type": "function"
    },
    {
      "inputs": [
        {
          "internalType": "address",
          "name": "newOwner",
          "type": "address"
        }
      ],
      "name": "transferOwnership",
      "outputs": [],
      "stateMutability": "nonpayable",
      "type": "function"
    },
    {
      "inputs": [],
      "name": "withdrawTokens",
      "outputs": [
        {
          "internalType": "bool",
          "name": "",
          "type": "bool"
        }
      ],
      "stateMutability": "nonpayable",
      "type": "function"
    }
  ],
  "bytecode": "0x608060405234801561001057600080fd5b50604051610ee6380380610ee683398101604081905261002f916100ef565b61003f61003a61007f565b610083565b600280546001600160a01b039384166001600160a01b0319918216179091556003805492909316911617905560006005556006805460ff19169055610121565b3390565b600080546001600160a01b038381166001600160a01b0319831681178455604051919092169283917f8be0079c531659141344cd1fd0a4f28419497f9722a3daafe3b4186f6b6457e09190a35050565b80516001600160a01b03811681146100ea57600080fd5b919050565b60008060408385031215610101578182fd5b61010a836100d3565b9150610118602084016100d3565b90509250929050565b610db6806101306000396000f3fe6080604052600436106100e85760003560e01c80639c1884261161008a578063ec1ebd7a11610059578063ec1ebd7a14610225578063f2fde38b1461023a578063f9020e331461025a578063f9718fc81461026f576100e8565b80639c188426146101bb578063b2237ba3146101d0578063b31f8f93146101f0578063d96a094a14610212576100e8565b8063715018a6116100c6578063715018a614610167578063893d20e81461017c5780638d8f2adb146101915780638da5cb5b146101a6576100e8565b806317888efc146100ed5780631d2e5a3a1461011857806347786d371461013a575b600080fd5b3480156100f957600080fd5b50610102610284565b60405161010f9190610a9c565b60405180910390f35b34801561012457600080fd5b50610138610133366004610a34565b610293565b005b34801561014657600080fd5b5061015a610155366004610a6c565b6102ee565b60405161010f9190610aed565b34801561017357600080fd5b50610138610338565b34801561018857600080fd5b50610102610383565b34801561019d57600080fd5b5061015a610392565b3480156101b257600080fd5b506101026104e5565b3480156101c757600080fd5b506101026104f4565b3480156101dc57600080fd5b5061015a6101eb366004610a6c565b610503565b3480156101fc57600080fd5b5061020561054d565b60405161010f9190610d25565b61015a610220366004610a6c565b6105ce565b34801561023157600080fd5b506102056108bf565b34801561024657600080fd5b50610138610255366004610a06565b6108c5565b34801561026657600080fd5b5061015a610936565b34801561027b57600080fd5b5061015a61093f565b6002546001600160a01b031690565b61029b61099a565b6001600160a01b03166102ac6104e5565b6001600160a01b0316146102db5760405162461bcd60e51b81526004016102d290610c6d565b60405180910390fd5b6006805460ff1916911515919091179055565b60006102f861099a565b6001600160a01b03166103096104e5565b6001600160a01b03161461032f5760405162461bcd60e51b81526004016102d290610c6d565b50600555600190565b61034061099a565b6001600160a01b03166103516104e5565b6001600160a01b0316146103775760405162461bcd60e51b81526004016102d290610c6d565b610381600061099e565b565b600061038d6104e5565b905090565b600061039c61099a565b6001600160a01b03166103ad6104e5565b6001600160a01b0316146103d35760405162461bcd60e51b81526004016102d290610c6d565b6003546001600160a01b03166323b872dd306103ed6104e5565b6002546040516370a0823160e01b81526001600160a01b03909116906370a082319061041d903090600401610a9c565b60206040518083038186803b15801561043557600080fd5b505afa158015610449573d6000803e3d6000fd5b505050506040513d601f19601f8201168201806040525081019061046d9190610a84565b6040518463ffffffff1660e01b815260040161048b93929190610ab0565b602060405180830381600087803b1580156104a557600080fd5b505af11580156104b9573d6000803e3d6000fd5b505050506040513d601f19601f820116820180604052508101906104dd9190610a50565b506001905090565b6000546001600160a01b031690565b6003546001600160a01b031690565b600061050d61099a565b6001600160a01b031661051e6104e5565b6001600160a01b0316146105445760405162461bcd60e51b81526004016102d290610c6d565b50600455600190565b6002546040516370a0823160e01b81526000916001600160a01b0316906370a082319061057e903090600401610a9c565b60206040518083038186803b15801561059657600080fd5b505afa1580156105aa573d6000803e3d6000fd5b505050506040513d601f19601f8201168201806040525081019061038d9190610a84565b60065460009060ff166105f35760405162461bcd60e51b81526004016102d290610c10565b6003546040516370a0823160e01b815283916001600160a01b0316906370a0823190610623903390600401610a9c565b60206040518083038186803b15801561063b57600080fd5b505afa15801561064f573d6000803e3d6000fd5b505050506040513d601f19601f820116820180604052508101906106739190610a84565b1015801561068057508115155b61069c5760405162461bcd60e51b81526004016102d290610af8565b600554156106c55760055482106106c55760405162461bcd60e51b81526004016102d290610ca2565b6003546040517f23b872dd0000000000000000000000000000000000000000000000000000000081526001600160a01b03909116906323b872dd9061071290339030908790600401610ab0565b602060405180830381600087803b15801561072c57600080fd5b505af1158015610740573d6000803e3d6000fd5b505050506040513d601f19601f820116820180604052508101906107649190610a50565b506000600454836107759190610d2e565b6002546040516370a0823160e01b815291925082916001600160a01b03909116906370a08231906107aa903090600401610a9c565b60206040518083038186803b1580156107c257600080fd5b505afa1580156107d6573d6000803e3d6000fd5b505050506040513d601f19601f820116820180604052508101906107fa9190610a84565b10156108185760405162461bcd60e51b81526004016102d290610bb2565b6002546040517fa9059cbb0000000000000000000000000000000000000000000000000000000081526001600160a01b039091169063a9059cbb906108639033908590600401610ad4565b602060405180830381600087803b15801561087d57600080fd5b505af1158015610891573d6000803e3d6000fd5b505050506040513d601f19601f820116820180604052508101906108b59190610a50565b5060019392505050565b60045490565b6108cd61099a565b6001600160a01b03166108de6104e5565b6001600160a01b0316146109045760405162461bcd60e51b81526004016102d290610c6d565b6001600160a01b03811661092a5760405162461bcd60e51b81526004016102d290610b55565b6109338161099e565b50565b60065460ff1690565b600061094961099a565b6001600160a01b031661095a6104e5565b6001600160a01b0316146109805760405162461bcd60e51b81526004016102d290610c6d565b6002546001600160a01b03166323b872dd306103ed6104e5565b3390565b600080546001600160a01b038381167fffffffffffffffffffffffff0000000000000000000000000000000000000000831681178455604051919092169283917f8be0079c531659141344cd1fd0a4f28419497f9722a3daafe3b4186f6b6457e09190a35050565b600060208284031215610a17578081fd5b81356001600160a01b0381168114610a2d578182fd5b9392505050565b600060208284031215610a45578081fd5b8135610a2d81610d72565b600060208284031215610a61578081fd5b8151610a2d81610d72565b600060208284031215610a7d578081fd5b5035919050565b600060208284031215610a95578081fd5b5051919050565b6001600160a01b0391909116815260200190565b6001600160a01b039384168152919092166020820152604081019190915260600190565b6001600160a01b03929092168252602082015260400190565b901515815260200190565b6020808252603b908201527f5468652073656e64657220646f6573206e6f742068617665207468652072657160408201527f75657374656420747261646520746f6b656e7320746f2073656e640000000000606082015260800190565b60208082526026908201527f4f776e61626c653a206e6577206f776e657220697320746865207a65726f206160408201527f6464726573730000000000000000000000000000000000000000000000000000606082015260800190565b602080825260409082018190527f546865726520617265206e6f742070726f6a65637420746f6b656e73206c6566908201527f7420696e2074686520726571756972656420616d6f756e7420746f2067697665606082015260800190565b60208082526029908201527f5468652070726f6a65637420746f6b656e2049444f20686173206e6f7420737460408201527f6172746564207965740000000000000000000000000000000000000000000000606082015260800190565b6020808252818101527f4f776e61626c653a2063616c6c6572206973206e6f7420746865206f776e6572604082015260600190565b60208082526047908201527f54686572652069732061206c696d697420666f7220656163682075736572207460408201527f6f2062757920616e64207468697320616d6f756e74206973206f76657220746860608201527f65206c696d697400000000000000000000000000000000000000000000000000608082015260a00190565b90815260200190565b6000816000190483118215151615610d6d577f4e487b710000000000000000000000000000000000000000000000000000000081526011600452602481fd5b500290565b801515811461093357600080fdfea26469706673582212200095ce15a570d162d00f2b964a835b7208c28a05d79a2601c9659c5a165a56bc64736f6c63430008000033",
  "linkReferences": {},
  "deployedLinkReferences": {}
}