{
  "_format": "hh-sol-artifact-1",
  "contractName": "IDO",
  "sourceName": "contracts/IDO.sol",
  "abi": [
    {
      "inputs": [
        {
          "internalType": "address",
          "name": "_projectToken",
          "type": "address"
        },
        {
          "internalType": "address",
          "name": "_tradeToken",
          "type": "address"
        },
        {
          "internalType": "uint256",
          "name": "_goal",
          "type": "uint256"
        }
      ],
      "stateMutability": "nonpayable",
      "type": "constructor"
    },
    {
      "anonymous": false,
      "inputs": [
        {
          "indexed": true,
          "internalType": "address",
          "name": "previousOwner",
          "type": "address"
        },
        {
          "indexed": true,
          "internalType": "address",
          "name": "newOwner",
          "type": "address"
        }
      ],
      "name": "OwnershipTransferred",
      "type": "event"
    },
    {
      "inputs": [
        {
          "internalType": "uint256",
          "name": "amount",
          "type": "uint256"
        }
      ],
      "name": "buy",
      "outputs": [
        {
          "internalType": "bool",
          "name": "success",
          "type": "bool"
        }
      ],
      "stateMutability": "payable",
      "type": "function"
    },
    {
      "inputs": [],
      "name": "claim",
      "outputs": [
        {
          "internalType": "bool",
          "name": "success",
          "type": "bool"
        }
      ],
      "stateMutability": "payable",
      "type": "function"
    },
    {
      "inputs": [],
      "name": "getOwner",
      "outputs": [
        {
          "internalType": "address",
          "name": "",
          "type": "address"
        }
      ],
      "stateMutability": "view",
      "type": "function"
    },
    {
      "inputs": [],
      "name": "getRatio",
      "outputs": [
        {
          "internalType": "uint256",
          "name": "",
          "type": "uint256"
        }
      ],
      "stateMutability": "view",
      "type": "function"
    },
    {
      "inputs": [],
      "name": "owner",
      "outputs": [
        {
          "internalType": "address",
          "name": "",
          "type": "address"
        }
      ],
      "stateMutability": "view",
      "type": "function"
    },
    {
      "inputs": [],
      "name": "projectTokens",
      "outputs": [
        {
          "internalType": "address",
          "name": "",
          "type": "address"
        }
      ],
      "stateMutability": "view",
      "type": "function"
    },
    {
      "inputs": [],
      "name": "renounceOwnership",
      "outputs": [],
      "stateMutability": "nonpayable",
      "type": "function"
    },
    {
      "inputs": [],
      "name": "returnTokens",
      "outputs": [
        {
          "internalType": "bool",
          "name": "",
          "type": "bool"
        }
      ],
      "stateMutability": "nonpayable",
      "type": "function"
    },
    {
      "inputs": [],
      "name": "saleStatus",
      "outputs": [
        {
          "internalType": "bool",
          "name": "",
          "type": "bool"
        }
      ],
      "stateMutability": "view",
      "type": "function"
    },
    {
      "inputs": [
        {
          "internalType": "uint256",
          "name": "_cap",
          "type": "uint256"
        }
      ],
      "name": "setCap",
      "outputs": [
        {
          "internalType": "bool",
          "name": "",
          "type": "bool"
        }
      ],
      "stateMutability": "nonpayable",
      "type": "function"
    },
    {
      "inputs": [
        {
          "internalType": "uint256",
          "name": "_ratio",
          "type": "uint256"
        }
      ],
      "name": "setRatio",
      "outputs": [
        {
          "internalType": "bool",
          "name": "",
          "type": "bool"
        }
      ],
      "stateMutability": "nonpayable",
      "type": "function"
    },
    {
      "inputs": [
        {
          "internalType": "uint256",
          "name": "_time",
          "type": "uint256"
        },
        {
          "internalType": "uint256",
          "name": "_totalTokens",
          "type": "uint256"
        }
      ],
      "name": "startSale",
      "outputs": [],
      "stateMutability": "nonpayable",
      "type": "function"
    },
    {
      "inputs": [],
      "name": "tokensLeft",
      "outputs": [
        {
          "internalType": "uint256",
          "name": "",
          "type": "uint256"
        }
      ],
      "stateMutability": "view",
      "type": "function"
    },
    {
      "inputs": [],
      "name": "tradedTokens",
      "outputs": [
        {
          "internalType": "address",
          "name": "",
          "type": "address"
        }
      ],
      "stateMutability": "view",
      "type": "function"
    },
    {
      "inputs": [
        {
          "internalType": "address",
          "name": "newOwner",
          "type": "address"
        }
      ],
      "name": "transferOwnership",
      "outputs": [],
      "stateMutability": "nonpayable",
      "type": "function"
    },
    {
      "inputs": [],
      "name": "withdrawTokens",
      "outputs": [
        {
          "internalType": "bool",
          "name": "",
          "type": "bool"
        }
      ],
      "stateMutability": "nonpayable",
      "type": "function"
    }
  ],
  "bytecode": "0x60806040523480156200001157600080fd5b506040516200133838038062001338833981016040819052620000349162000101565b620000486200004262000090565b62000094565b600280546001600160a01b039485166001600160a01b031991821617909155600380549390941692169190911790915560006005556006805460ff1916905560085562000141565b3390565b600080546001600160a01b038381166001600160a01b0319831681178455604051919092169283917f8be0079c531659141344cd1fd0a4f28419497f9722a3daafe3b4186f6b6457e09190a35050565b80516001600160a01b0381168114620000fc57600080fd5b919050565b60008060006060848603121562000116578283fd5b6200012184620000e4565b92506200013160208501620000e4565b9150604084015190509250925092565b6111e780620001516000396000f3fe6080604052600436106100f35760003560e01c8063b2237ba31161008a578063f2fde38b11610059578063f2fde38b1461022d578063f4f3122e1461024d578063f9020e331461026d578063f9718fc814610282576100f3565b8063b2237ba3146101c3578063b31f8f93146101e3578063d96a094a14610205578063ec1ebd7a14610218576100f3565b8063893d20e8116100c6578063893d20e81461016f5780638d8f2adb146101845780638da5cb5b146101995780639c188426146101ae576100f3565b806317888efc146100f857806347786d37146101235780634e71d92d14610150578063715018a614610158575b600080fd5b34801561010457600080fd5b5061010d610297565b60405161011a9190610dbb565b60405180910390f35b34801561012f57600080fd5b5061014361013e366004610d6a565b6102a7565b60405161011a9190610e0c565b6101436102fa565b34801561016457600080fd5b5061016d61059e565b005b34801561017b57600080fd5b5061010d6105e9565b34801561019057600080fd5b506101436105f8565b3480156101a557600080fd5b5061010d61074b565b3480156101ba57600080fd5b5061010d61075a565b3480156101cf57600080fd5b506101436101de366004610d6a565b610769565b3480156101ef57600080fd5b506101f86107b3565b60405161011a919061113b565b610143610213366004610d6a565b610834565b34801561022457600080fd5b506101f8610abe565b34801561023957600080fd5b5061016d610248366004610d23565b610ac4565b34801561025957600080fd5b5061016d610268366004610d9a565b610b35565b34801561027957600080fd5b50610143610b8c565b34801561028e57600080fd5b50610143610b95565b6002546001600160a01b03165b90565b60006102b1610bf0565b6001600160a01b03166102c261074b565b6001600160a01b0316146102f15760405162461bcd60e51b81526004016102e89061104c565b60405180910390fd5b50600555600190565b6000600754421161031d5760405162461bcd60e51b81526004016102e890611104565b6008546002546040516370a0823160e01b81526001600160a01b03909116906370a0823190610350903090600401610dbb565b60206040518083038186803b15801561036857600080fd5b505afa15801561037c573d6000803e3d6000fd5b505050506040513d601f19601f820116820180604052508101906103a09190610d82565b11156104655760006103bf600954600854610bf490919063ffffffff16565b600254336000818152600a60205260409020549293506001600160a01b039091169163a9059cbb91906103f3908590610c3f565b6040518363ffffffff1660e01b8152600401610410929190610df3565b602060405180830381600087803b15801561042a57600080fd5b505af115801561043e573d6000803e3d6000fd5b505050506040513d601f19601f820116820180604052508101906104629190610d4a565b50505b6008546002546040516370a0823160e01b81526001600160a01b03909116906370a0823190610498903090600401610dbb565b60206040518083038186803b1580156104b057600080fd5b505afa1580156104c4573d6000803e3d6000fd5b505050506040513d601f19601f820116820180604052508101906104e89190610d82565b10156102a457600354336000818152600a6020526040908190205490517fa9059cbb0000000000000000000000000000000000000000000000000000000081526001600160a01b039093169263a9059cbb92610548929091600401610df3565b602060405180830381600087803b15801561056257600080fd5b505af1158015610576573d6000803e3d6000fd5b505050506040513d601f19601f8201168201806040525081019061059a9190610d4a565b5090565b6105a6610bf0565b6001600160a01b03166105b761074b565b6001600160a01b0316146105dd5760405162461bcd60e51b81526004016102e89061104c565b6105e76000610c84565b565b60006105f361074b565b905090565b6000610602610bf0565b6001600160a01b031661061361074b565b6001600160a01b0316146106395760405162461bcd60e51b81526004016102e89061104c565b6003546001600160a01b03166323b872dd3061065361074b565b6002546040516370a0823160e01b81526001600160a01b03909116906370a0823190610683903090600401610dbb565b60206040518083038186803b15801561069b57600080fd5b505afa1580156106af573d6000803e3d6000fd5b505050506040513d601f19601f820116820180604052508101906106d39190610d82565b6040518463ffffffff1660e01b81526004016106f193929190610dcf565b602060405180830381600087803b15801561070b57600080fd5b505af115801561071f573d6000803e3d6000fd5b505050506040513d601f19601f820116820180604052508101906107439190610d4a565b506001905090565b6000546001600160a01b031690565b6003546001600160a01b031690565b6000610773610bf0565b6001600160a01b031661078461074b565b6001600160a01b0316146107aa5760405162461bcd60e51b81526004016102e89061104c565b50600455600190565b6002546040516370a0823160e01b81526000916001600160a01b0316906370a08231906107e4903090600401610dbb565b60206040518083038186803b1580156107fc57600080fd5b505afa158015610810573d6000803e3d6000fd5b505050506040513d601f19601f820116820180604052508101906105f39190610d82565b600060075442106108575760405162461bcd60e51b81526004016102e890610e6a565b6008546002546040516370a0823160e01b81526001600160a01b03909116906370a082319061088a903090600401610dbb565b60206040518083038186803b1580156108a257600080fd5b505afa1580156108b6573d6000803e3d6000fd5b505050506040513d601f19601f820116820180604052508101906108da9190610d82565b106108f75760405162461bcd60e51b81526004016102e890610f5b565b60065460ff166109195760405162461bcd60e51b81526004016102e890610f92565b6003546040516370a0823160e01b815283916001600160a01b0316906370a0823190610949903390600401610dbb565b60206040518083038186803b15801561096157600080fd5b505afa158015610975573d6000803e3d6000fd5b505050506040513d601f19601f820116820180604052508101906109999190610d82565b101580156109a657508115155b6109c25760405162461bcd60e51b81526004016102e890610ea1565b600554156109eb5760055482106109eb5760405162461bcd60e51b81526004016102e890611081565b6003546040517f23b872dd0000000000000000000000000000000000000000000000000000000081526001600160a01b03909116906323b872dd90610a3890339030908790600401610dcf565b602060405180830381600087803b158015610a5257600080fd5b505af1158015610a66573d6000803e3d6000fd5b505050506040513d601f19601f82011682018060405250810190610a8a9190610d4a565b50336000908152600a6020526040902054610aa6908390611144565b336000908152600a6020526040902055506001919050565b60045490565b610acc610bf0565b6001600160a01b0316610add61074b565b6001600160a01b031614610b035760405162461bcd60e51b81526004016102e89061104c565b6001600160a01b038116610b295760405162461bcd60e51b81526004016102e890610efe565b610b3281610c84565b50565b610b3d610bf0565b6001600160a01b0316610b4e61074b565b6001600160a01b031614610b745760405162461bcd60e51b81526004016102e89061104c565b6007919091556009556006805460ff19166001179055565b60065460ff1690565b6000610b9f610bf0565b6001600160a01b0316610bb061074b565b6001600160a01b031614610bd65760405162461bcd60e51b81526004016102e89061104c565b6002546001600160a01b03166323b872dd3061065361074b565b3390565b6000610c3683836040518060400160405280601a81526020017f536166654d6174683a206469766973696f6e206279207a65726f000000000000815250610cec565b90505b92915050565b600082610c4e57506000610c39565b6000610c5a838561117c565b905082610c67858361115c565b14610c365760405162461bcd60e51b81526004016102e890610fef565b600080546001600160a01b038381167fffffffffffffffffffffffff0000000000000000000000000000000000000000831681178455604051919092169283917f8be0079c531659141344cd1fd0a4f28419497f9722a3daafe3b4186f6b6457e09190a35050565b60008183610d0d5760405162461bcd60e51b81526004016102e89190610e17565b506000610d1a848661115c565b95945050505050565b600060208284031215610d34578081fd5b81356001600160a01b0381168114610c36578182fd5b600060208284031215610d5b578081fd5b81518015158114610c36578182fd5b600060208284031215610d7b578081fd5b5035919050565b600060208284031215610d93578081fd5b5051919050565b60008060408385031215610dac578081fd5b50508035926020909101359150565b6001600160a01b0391909116815260200190565b6001600160a01b039384168152919092166020820152604081019190915260600190565b6001600160a01b03929092168252602082015260400190565b901515815260200190565b6000602080835283518082850152825b81811015610e4357858101830151858201604001528201610e27565b81811115610e545783604083870101525b50601f01601f1916929092016040019392505050565b6020808252600f908201527f7468652049444f206973206f7665720000000000000000000000000000000000604082015260600190565b6020808252603b908201527f5468652073656e64657220646f6573206e6f742068617665207468652072657160408201527f75657374656420747261646520746f6b656e7320746f2073656e640000000000606082015260800190565b60208082526026908201527f4f776e61626c653a206e6577206f776e657220697320746865207a65726f206160408201527f6464726573730000000000000000000000000000000000000000000000000000606082015260800190565b60208082526019908201527f54686520676f616c20686173206265656e207265616368656400000000000000604082015260600190565b60208082526029908201527f5468652070726f6a65637420746f6b656e2049444f20686173206e6f7420737460408201527f6172746564207965740000000000000000000000000000000000000000000000606082015260800190565b60208082526021908201527f536166654d6174683a206d756c7469706c69636174696f6e206f766572666c6f60408201527f7700000000000000000000000000000000000000000000000000000000000000606082015260800190565b6020808252818101527f4f776e61626c653a2063616c6c6572206973206e6f7420746865206f776e6572604082015260600190565b60208082526047908201527f54686572652069732061206c696d697420666f7220656163682075736572207460408201527f6f2062757920616e64207468697320616d6f756e74206973206f76657220746860608201527f65206c696d697400000000000000000000000000000000000000000000000000608082015260a00190565b60208082526017908201527f7468652049444f206973206e6f74206f76657220796574000000000000000000604082015260600190565b90815260200190565b600082198211156111575761115761119b565b500190565b60008261117757634e487b7160e01b81526012600452602481fd5b500490565b60008160001904831182151516156111965761119661119b565b500290565b634e487b7160e01b600052601160045260246000fdfea2646970667358221220bec825c07369002223df839dde317b6fa935090d450e18e8941a3518a650d9e864736f6c63430008000033",
  "linkReferences": {},
  "deployedLinkReferences": {}
}