{
  "_format": "hh-sol-artifact-1",
  "contractName": "SignerRoleMock",
  "sourceName": "contracts/IDO_basedon_Openzeppelin/mocks/SignerRoleMock.sol",
  "abi": [
    {
      "anonymous": false,
      "inputs": [
        {
          "indexed": true,
          "internalType": "address",
          "name": "account",
          "type": "address"
        }
      ],
      "name": "SignerAdded",
      "type": "event"
    },
    {
      "anonymous": false,
      "inputs": [
        {
          "indexed": true,
          "internalType": "address",
          "name": "account",
          "type": "address"
        }
      ],
      "name": "SignerRemoved",
      "type": "event"
    },
    {
      "constant": false,
      "inputs": [
        {
          "internalType": "address",
          "name": "account",
          "type": "address"
        }
      ],
      "name": "addSigner",
      "outputs": [],
      "payable": false,
      "stateMutability": "nonpayable",
      "type": "function"
    },
    {
      "constant": true,
      "inputs": [
        {
          "internalType": "address",
          "name": "account",
          "type": "address"
        }
      ],
      "name": "isSigner",
      "outputs": [
        {
          "internalType": "bool",
          "name": "",
          "type": "bool"
        }
      ],
      "payable": false,
      "stateMutability": "view",
      "type": "function"
    },
    {
      "constant": true,
      "inputs": [],
      "name": "onlySignerMock",
      "outputs": [],
      "payable": false,
      "stateMutability": "view",
      "type": "function"
    },
    {
      "constant": false,
      "inputs": [
        {
          "internalType": "address",
          "name": "account",
          "type": "address"
        }
      ],
      "name": "removeSigner",
      "outputs": [],
      "payable": false,
      "stateMutability": "nonpayable",
      "type": "function"
    },
    {
      "constant": false,
      "inputs": [],
      "name": "renounceSigner",
      "outputs": [],
      "payable": false,
      "stateMutability": "nonpayable",
      "type": "function"
    }
  ],
  "bytecode": "0x60806040526100266100186001600160e01b0361002b16565b6001600160e01b0361002f16565b61016f565b3390565b61004781600061007e60201b6102d81790919060201c565b6040516001600160a01b038216907f47d1c22a25bb3a5d4e481b9b1e6944c2eade3181a0a20b495ed61d35b5323f2490600090a250565b61009182826001600160e01b0361010816565b156100e3576040805162461bcd60e51b815260206004820152601f60248201527f526f6c65733a206163636f756e7420616c72656164792068617320726f6c6500604482015290519081900360640190fd5b6001600160a01b0316600090815260209190915260409020805460ff19166001179055565b60006001600160a01b03821661014f5760405162461bcd60e51b81526004018080602001828103825260228152602001806105e66022913960400191505060405180910390fd5b506001600160a01b03166000908152602091909152604090205460ff1690565b6104688061017e6000396000f3fe608060405234801561001057600080fd5b50600436106100675760003560e01c8063b44e2ab911610050578063b44e2ab9146100ce578063e5c8b03d146100d6578063eb12d61e146100de57610067565b80630e316ab71461006c5780637df73e2714610094575b600080fd5b6100926004803603602081101561008257600080fd5b50356001600160a01b0316610104565b005b6100ba600480360360208110156100aa57600080fd5b50356001600160a01b0316610110565b604080519115158252519081900360200190f35b610092610128565b610092610175565b610092600480360360208110156100f457600080fd5b50356001600160a01b0316610185565b61010d816101d4565b50565b6000610122818363ffffffff6101dd16565b92915050565b610138610133610244565b610110565b6101735760405162461bcd60e51b81526004018080602001828103825260308152602001806104046030913960400191505060405180910390fd5b565b610173610180610244565b6101d4565b610190610133610244565b6101cb5760405162461bcd60e51b81526004018080602001828103825260308152602001806104046030913960400191505060405180910390fd5b61010d81610248565b61010d81610290565b60006001600160a01b0382166102245760405162461bcd60e51b81526004018080602001828103825260228152602001806103e26022913960400191505060405180910390fd5b506001600160a01b03166000908152602091909152604090205460ff1690565b3390565b61025960008263ffffffff6102d816565b6040516001600160a01b038216907f47d1c22a25bb3a5d4e481b9b1e6944c2eade3181a0a20b495ed61d35b5323f2490600090a250565b6102a160008263ffffffff61035916565b6040516001600160a01b038216907f3525e22824a8a7df2c9a6029941c824cf95b6447f1e13d5128fd3826d35afe8b90600090a250565b6102e282826101dd565b15610334576040805162461bcd60e51b815260206004820152601f60248201527f526f6c65733a206163636f756e7420616c72656164792068617320726f6c6500604482015290519081900360640190fd5b6001600160a01b0316600090815260209190915260409020805460ff19166001179055565b61036382826101dd565b61039e5760405162461bcd60e51b81526004018080602001828103825260218152602001806103c16021913960400191505060405180910390fd5b6001600160a01b0316600090815260209190915260409020805460ff1916905556fe526f6c65733a206163636f756e7420646f6573206e6f74206861766520726f6c65526f6c65733a206163636f756e7420697320746865207a65726f20616464726573735369676e6572526f6c653a2063616c6c657220646f6573206e6f74206861766520746865205369676e657220726f6c65a265627a7a7231582075dccffb29f2dc6e6c5142634da8073e0023f3a16e6f30eb409c9a2d9739eae764736f6c63430005100032526f6c65733a206163636f756e7420697320746865207a65726f2061646472657373",
  "linkReferences": {},
  "deployedLinkReferences": {}
}