{
  "_format": "hh-sol-artifact-1",
  "contractName": "ERC1820ImplementerMock",
  "sourceName": "contracts/IDO_basedon_Openzeppelin/mocks/ERC1820ImplementerMock.sol",
  "abi": [
    {
      "constant": true,
      "inputs": [
        {
          "internalType": "bytes32",
          "name": "interfaceHash",
          "type": "bytes32"
        },
        {
          "internalType": "address",
          "name": "account",
          "type": "address"
        }
      ],
      "name": "canImplementInterfaceForAddress",
      "outputs": [
        {
          "internalType": "bytes32",
          "name": "",
          "type": "bytes32"
        }
      ],
      "payable": false,
      "stateMutability": "view",
      "type": "function"
    },
    {
      "constant": false,
      "inputs": [
        {
          "internalType": "bytes32",
          "name": "interfaceHash",
          "type": "bytes32"
        },
        {
          "internalType": "address",
          "name": "account",
          "type": "address"
        }
      ],
      "name": "registerInterfaceForAddress",
      "outputs": [],
      "payable": false,
      "stateMutability": "nonpayable",
      "type": "function"
    }
  ],
  "bytecode": "0x608060405234801561001057600080fd5b506101ca806100206000396000f3fe608060405234801561001057600080fd5b50600436106100365760003560e01c8063249cb3fa1461003b5780635536e45d14610086575b600080fd5b6100746004803603604081101561005157600080fd5b508035906020013573ffffffffffffffffffffffffffffffffffffffff166100c1565b60408051918252519081900360200190f35b6100bf6004803603604081101561009c57600080fd5b508035906020013573ffffffffffffffffffffffffffffffffffffffff1661014c565b005b60008281526020818152604080832073ffffffffffffffffffffffffffffffffffffffff8516845290915281205460ff166100fd576000610145565b60405160200180807f455243313832305f4143434550545f4d414749430000000000000000000000008152506014019050604051602081830303815290604052805190602001205b9392505050565b610156828261015a565b5050565b60009182526020828152604080842073ffffffffffffffffffffffffffffffffffffffff90931684529190529020805460ff1916600117905556fea265627a7a72315820604dffe40c3c68c7edc6184d6245c371372c00fa655e025302dfe9dd50eb949164736f6c63430005100032",
  "linkReferences": {},
  "deployedLinkReferences": {}
}