{
  "_format": "hh-sol-artifact-1",
  "contractName": "CountersImpl",
  "sourceName": "contracts/IDO_basedon_Openzeppelin/mocks/CountersImpl.sol",
  "abi": [
    {
      "constant": true,
      "inputs": [],
      "name": "current",
      "outputs": [
        {
          "internalType": "uint256",
          "name": "",
          "type": "uint256"
        }
      ],
      "payable": false,
      "stateMutability": "view",
      "type": "function"
    },
    {
      "constant": false,
      "inputs": [],
      "name": "decrement",
      "outputs": [],
      "payable": false,
      "stateMutability": "nonpayable",
      "type": "function"
    },
    {
      "constant": false,
      "inputs": [],
      "name": "increment",
      "outputs": [],
      "payable": false,
      "stateMutability": "nonpayable",
      "type": "function"
    }
  ],
  "bytecode": "0x608060405234801561001057600080fd5b506101ec806100206000396000f3fe608060405234801561001057600080fd5b50600436106100415760003560e01c80632baeceb7146100465780639fa6a6e314610050578063d09de08a1461006a575b600080fd5b61004e610072565b005b61005861007e565b60408051918252519081900360200190f35b61004e61008f565b61007c6000610099565b565b600061008a60006100b0565b905090565b61007c60006100b4565b80546100ac90600163ffffffff6100bd16565b9055565b5490565b80546001019055565b60006100ff83836040518060400160405280601e81526020017f536166654d6174683a207375627472616374696f6e206f766572666c6f770000815250610106565b9392505050565b600081848411156101af576040517f08c379a00000000000000000000000000000000000000000000000000000000081526004018080602001828103825283818151815260200191508051906020019080838360005b8381101561017457818101518382015260200161015c565b50505050905090810190601f1680156101a15780820380516001836020036101000a031916815260200191505b509250505060405180910390fd5b50505090039056fea265627a7a72315820072e4515ee4553ca8ab2d07bb6b12376b443854714c1084a9a2dbad78c3de02164736f6c63430005100032",
  "linkReferences": {},
  "deployedLinkReferences": {}
}