{
  "_format": "hh-sol-artifact-1",
  "contractName": "CapperRoleMock",
  "sourceName": "contracts/IDO_basedon_Openzeppelin/mocks/CapperRoleMock.sol",
  "abi": [
    {
      "anonymous": false,
      "inputs": [
        {
          "indexed": true,
          "internalType": "address",
          "name": "account",
          "type": "address"
        }
      ],
      "name": "CapperAdded",
      "type": "event"
    },
    {
      "anonymous": false,
      "inputs": [
        {
          "indexed": true,
          "internalType": "address",
          "name": "account",
          "type": "address"
        }
      ],
      "name": "CapperRemoved",
      "type": "event"
    },
    {
      "constant": false,
      "inputs": [
        {
          "internalType": "address",
          "name": "account",
          "type": "address"
        }
      ],
      "name": "addCapper",
      "outputs": [],
      "payable": false,
      "stateMutability": "nonpayable",
      "type": "function"
    },
    {
      "constant": true,
      "inputs": [
        {
          "internalType": "address",
          "name": "account",
          "type": "address"
        }
      ],
      "name": "isCapper",
      "outputs": [
        {
          "internalType": "bool",
          "name": "",
          "type": "bool"
        }
      ],
      "payable": false,
      "stateMutability": "view",
      "type": "function"
    },
    {
      "constant": true,
      "inputs": [],
      "name": "onlyCapperMock",
      "outputs": [],
      "payable": false,
      "stateMutability": "view",
      "type": "function"
    },
    {
      "constant": false,
      "inputs": [
        {
          "internalType": "address",
          "name": "account",
          "type": "address"
        }
      ],
      "name": "removeCapper",
      "outputs": [],
      "payable": false,
      "stateMutability": "nonpayable",
      "type": "function"
    },
    {
      "constant": false,
      "inputs": [],
      "name": "renounceCapper",
      "outputs": [],
      "payable": false,
      "stateMutability": "nonpayable",
      "type": "function"
    }
  ],
  "bytecode": "0x60806040526100266100186001600160e01b0361002b16565b6001600160e01b0361002f16565b61016f565b3390565b61004781600061007e60201b6102d81790919060201c565b6040516001600160a01b038216907fa7555c95b69d4f5cc847881feb4ab2883a1921319e34fa2043747b793d65b36e90600090a250565b61009182826001600160e01b0361010816565b156100e3576040805162461bcd60e51b815260206004820152601f60248201527f526f6c65733a206163636f756e7420616c72656164792068617320726f6c6500604482015290519081900360640190fd5b6001600160a01b0316600090815260209190915260409020805460ff19166001179055565b60006001600160a01b03821661014f5760405162461bcd60e51b81526004018080602001828103825260228152602001806105e66022913960400191505060405180910390fd5b506001600160a01b03166000908152602091909152604090205460ff1690565b6104688061017e6000396000f3fe608060405234801561001057600080fd5b50600436106100675760003560e01c80635d5576f8116100505780635d5576f8146100ce5780638dfbcf36146100d6578063d1e07bcb146100fc57610067565b8063395645611461006c5780633f4a6484146100a6575b600080fd5b6100926004803603602081101561008257600080fd5b50356001600160a01b0316610104565b604080519115158252519081900360200190f35b6100cc600480360360208110156100bc57600080fd5b50356001600160a01b031661011c565b005b6100cc610128565b6100cc600480360360208110156100ec57600080fd5b50356001600160a01b031661013a565b6100cc61018e565b6000610116818363ffffffff6101d416565b92915050565b6101258161023b565b50565b610138610133610244565b61023b565b565b61014a610145610244565b610104565b6101855760405162461bcd60e51b81526004018080602001828103825260308152602001806104046030913960400191505060405180910390fd5b61012581610248565b610199610145610244565b6101385760405162461bcd60e51b81526004018080602001828103825260308152602001806104046030913960400191505060405180910390fd5b60006001600160a01b03821661021b5760405162461bcd60e51b81526004018080602001828103825260228152602001806103e26022913960400191505060405180910390fd5b506001600160a01b03166000908152602091909152604090205460ff1690565b61012581610290565b3390565b61025960008263ffffffff6102d816565b6040516001600160a01b038216907fa7555c95b69d4f5cc847881feb4ab2883a1921319e34fa2043747b793d65b36e90600090a250565b6102a160008263ffffffff61035916565b6040516001600160a01b038216907f427400d279c506df610224b22ecce89b693fc1865864113f21c8d19c1f0c2a3b90600090a250565b6102e282826101d4565b15610334576040805162461bcd60e51b815260206004820152601f60248201527f526f6c65733a206163636f756e7420616c72656164792068617320726f6c6500604482015290519081900360640190fd5b6001600160a01b0316600090815260209190915260409020805460ff19166001179055565b61036382826101d4565b61039e5760405162461bcd60e51b81526004018080602001828103825260218152602001806103c16021913960400191505060405180910390fd5b6001600160a01b0316600090815260209190915260409020805460ff1916905556fe526f6c65733a206163636f756e7420646f6573206e6f74206861766520726f6c65526f6c65733a206163636f756e7420697320746865207a65726f2061646472657373436170706572526f6c653a2063616c6c657220646f6573206e6f742068617665207468652043617070657220726f6c65a265627a7a72315820b8ae88e4862916188a4693615a71645b7765d46e1cfb16f2849d9474e517d86564736f6c63430005100032526f6c65733a206163636f756e7420697320746865207a65726f2061646472657373",
  "linkReferences": {},
  "deployedLinkReferences": {}
}