{
  "_format": "hh-sol-artifact-1",
  "contractName": "ERC20Migrator",
  "sourceName": "contracts/IDO_basedon_Openzeppelin/drafts/ERC20Migrator.sol",
  "abi": [
    {
      "inputs": [
        {
          "internalType": "contract IERC20",
          "name": "legacyToken",
          "type": "address"
        }
      ],
      "payable": false,
      "stateMutability": "nonpayable",
      "type": "constructor"
    },
    {
      "constant": false,
      "inputs": [
        {
          "internalType": "contract ERC20Mintable",
          "name": "newToken_",
          "type": "address"
        }
      ],
      "name": "beginMigration",
      "outputs": [],
      "payable": false,
      "stateMutability": "nonpayable",
      "type": "function"
    },
    {
      "constant": true,
      "inputs": [],
      "name": "legacyToken",
      "outputs": [
        {
          "internalType": "contract IERC20",
          "name": "",
          "type": "address"
        }
      ],
      "payable": false,
      "stateMutability": "view",
      "type": "function"
    },
    {
      "constant": false,
      "inputs": [
        {
          "internalType": "address",
          "name": "account",
          "type": "address"
        },
        {
          "internalType": "uint256",
          "name": "amount",
          "type": "uint256"
        }
      ],
      "name": "migrate",
      "outputs": [],
      "payable": false,
      "stateMutability": "nonpayable",
      "type": "function"
    },
    {
      "constant": false,
      "inputs": [
        {
          "internalType": "address",
          "name": "account",
          "type": "address"
        }
      ],
      "name": "migrateAll",
      "outputs": [],
      "payable": false,
      "stateMutability": "nonpayable",
      "type": "function"
    },
    {
      "constant": true,
      "inputs": [],
      "name": "newToken",
      "outputs": [
        {
          "internalType": "contract IERC20",
          "name": "",
          "type": "address"
        }
      ],
      "payable": false,
      "stateMutability": "view",
      "type": "function"
    }
  ],
  "bytecode": "0x608060405234801561001057600080fd5b506040516109723803806109728339818101604052602081101561003357600080fd5b50516001600160a01b03811661007a5760405162461bcd60e51b815260040180806020018281038252602f815260200180610943602f913960400191505060405180910390fd5b600080546001600160a01b039092166001600160a01b0319909216919091179055610899806100aa6000396000f3fe608060405234801561001057600080fd5b50600436106100675760003560e01c80635a8cadb1116100505780635a8cadb1146100b8578063ad68ebf7146100de578063c42bd05a1461010a57610067565b8063104d26141461006c5780631315545514610094575b600080fd5b6100926004803603602081101561008257600080fd5b50356001600160a01b0316610112565b005b61009c61029f565b604080516001600160a01b039092168252519081900360200190f35b610092600480360360208110156100ce57600080fd5b50356001600160a01b03166102ae565b610092600480360360408110156100f457600080fd5b506001600160a01b0381351690602001356103fd565b61009c6104fb565b6001546001600160a01b03161561015a5760405162461bcd60e51b815260040180806020018281038252602881526020018061079a6028913960400191505060405180910390fd5b6001600160a01b03811661019f5760405162461bcd60e51b815260040180806020018281038252602c81526020018061080f602c913960400191505060405180910390fd5b604080517faa271e1a00000000000000000000000000000000000000000000000000000000815230600482015290516001600160a01b0383169163aa271e1a916024808301926020929190829003018186803b1580156101fe57600080fd5b505afa158015610212573d6000803e3d6000fd5b505050506040513d602081101561022857600080fd5b50516102655760405162461bcd60e51b81526004018080602001828103825260298152602001806107c26029913960400191505060405180910390fd5b600180547fffffffffffffffffffffffff0000000000000000000000000000000000000000166001600160a01b0392909216919091179055565b6000546001600160a01b031690565b60008054604080517f70a082310000000000000000000000000000000000000000000000000000000081526001600160a01b038581166004830152915191909216916370a08231916024808301926020929190829003018186803b15801561031557600080fd5b505afa158015610329573d6000803e3d6000fd5b505050506040513d602081101561033f57600080fd5b505160008054604080517fdd62ed3e0000000000000000000000000000000000000000000000000000000081526001600160a01b0387811660048301523060248301529151949550929391169163dd62ed3e916044808301926020929190829003018186803b1580156103b157600080fd5b505afa1580156103c5573d6000803e3d6000fd5b505050506040513d60208110156103db57600080fd5b5051905060006103eb838361050a565b90506103f784826103fd565b50505050565b6001546001600160a01b03166104445760405162461bcd60e51b81526004018080602001828103825260248152602001806107eb6024913960400191505060405180910390fd5b600054610462906001600160a01b031683308463ffffffff61052216565b600154604080517f40c10f190000000000000000000000000000000000000000000000000000000081526001600160a01b03858116600483015260248201859052915191909216916340c10f199160448083019260209291908290030181600087803b1580156104d157600080fd5b505af11580156104e5573d6000803e3d6000fd5b505050506040513d60208110156103f757600080fd5b6001546001600160a01b031690565b6000818310610519578161051b565b825b9392505050565b604080516001600160a01b0385811660248301528416604482015260648082018490528251808303909101815260849091019091526020810180517bffffffffffffffffffffffffffffffffffffffffffffffffffffffff167f23b872dd000000000000000000000000000000000000000000000000000000001790526103f79085906105b7826001600160a01b031661075d565b610608576040805162461bcd60e51b815260206004820152601f60248201527f5361666545524332303a2063616c6c20746f206e6f6e2d636f6e747261637400604482015290519081900360640190fd5b60006060836001600160a01b0316836040518082805190602001908083835b602083106106465780518252601f199092019160209182019101610627565b6001836020036101000a0380198251168184511680821785525050505050509050019150506000604051808303816000865af19150503d80600081146106a8576040519150601f19603f3d011682016040523d82523d6000602084013e6106ad565b606091505b509150915081610704576040805162461bcd60e51b815260206004820181905260248201527f5361666545524332303a206c6f772d6c6576656c2063616c6c206661696c6564604482015290519081900360640190fd5b8051156103f75780806020019051602081101561072057600080fd5b50516103f75760405162461bcd60e51b815260040180806020018281038252602a81526020018061083b602a913960400191505060405180910390fd5b6000813f7fc5d2460186f7233c927e7db2dcc703c0e500b653ca82273b7bfad8045d85a47081811480159061079157508115155b94935050505056fe45524332304d69677261746f723a206d6967726174696f6e20616c7265616479207374617274656445524332304d69677261746f723a206e6f742061206d696e74657220666f72206e657720746f6b656e45524332304d69677261746f723a206d6967726174696f6e206e6f74207374617274656445524332304d69677261746f723a206e657720746f6b656e20697320746865207a65726f20616464726573735361666545524332303a204552433230206f7065726174696f6e20646964206e6f742073756363656564a265627a7a72315820a3dbce5d304d889f5afd730e44ce12b421bb7a35bd524e8dfecca5883657f48164736f6c6343000510003245524332304d69677261746f723a206c656761637920746f6b656e20697320746865207a65726f2061646472657373",
  "linkReferences": {},
  "deployedLinkReferences": {}
}