{
  "_format": "hh-sol-artifact-1",
  "contractName": "ConditionalEscrowMock",
  "sourceName": "contracts/IDO_basedon_Openzeppelin/mocks/ConditionalEscrowMock.sol",
  "abi": [
    {
      "anonymous": false,
      "inputs": [
        {
          "indexed": true,
          "internalType": "address",
          "name": "payee",
          "type": "address"
        },
        {
          "indexed": false,
          "internalType": "uint256",
          "name": "weiAmount",
          "type": "uint256"
        }
      ],
      "name": "Deposited",
      "type": "event"
    },
    {
      "anonymous": false,
      "inputs": [
        {
          "indexed": false,
          "internalType": "address",
          "name": "recipient",
          "type": "address"
        }
      ],
      "name": "PrimaryTransferred",
      "type": "event"
    },
    {
      "anonymous": false,
      "inputs": [
        {
          "indexed": true,
          "internalType": "address",
          "name": "payee",
          "type": "address"
        },
        {
          "indexed": false,
          "internalType": "uint256",
          "name": "weiAmount",
          "type": "uint256"
        }
      ],
      "name": "Withdrawn",
      "type": "event"
    },
    {
      "constant": false,
      "inputs": [
        {
          "internalType": "address",
          "name": "payee",
          "type": "address"
        }
      ],
      "name": "deposit",
      "outputs": [],
      "payable": true,
      "stateMutability": "payable",
      "type": "function"
    },
    {
      "constant": true,
      "inputs": [
        {
          "internalType": "address",
          "name": "payee",
          "type": "address"
        }
      ],
      "name": "depositsOf",
      "outputs": [
        {
          "internalType": "uint256",
          "name": "",
          "type": "uint256"
        }
      ],
      "payable": false,
      "stateMutability": "view",
      "type": "function"
    },
    {
      "constant": true,
      "inputs": [],
      "name": "primary",
      "outputs": [
        {
          "internalType": "address",
          "name": "",
          "type": "address"
        }
      ],
      "payable": false,
      "stateMutability": "view",
      "type": "function"
    },
    {
      "constant": false,
      "inputs": [
        {
          "internalType": "address",
          "name": "payee",
          "type": "address"
        },
        {
          "internalType": "bool",
          "name": "allowed",
          "type": "bool"
        }
      ],
      "name": "setAllowed",
      "outputs": [],
      "payable": false,
      "stateMutability": "nonpayable",
      "type": "function"
    },
    {
      "constant": false,
      "inputs": [
        {
          "internalType": "address",
          "name": "recipient",
          "type": "address"
        }
      ],
      "name": "transferPrimary",
      "outputs": [],
      "payable": false,
      "stateMutability": "nonpayable",
      "type": "function"
    },
    {
      "constant": false,
      "inputs": [
        {
          "internalType": "address payable",
          "name": "payee",
          "type": "address"
        }
      ],
      "name": "withdraw",
      "outputs": [],
      "payable": false,
      "stateMutability": "nonpayable",
      "type": "function"
    },
    {
      "constant": false,
      "inputs": [
        {
          "internalType": "address payable",
          "name": "payee",
          "type": "address"
        }
      ],
      "name": "withdrawWithGas",
      "outputs": [],
      "payable": false,
      "stateMutability": "nonpayable",
      "type": "function"
    },
    {
      "constant": true,
      "inputs": [
        {
          "internalType": "address",
          "name": "payee",
          "type": "address"
        }
      ],
      "name": "withdrawalAllowed",
      "outputs": [
        {
          "internalType": "bool",
          "name": "",
          "type": "bool"
        }
      ],
      "payable": false,
      "stateMutability": "view",
      "type": "function"
    }
  ],
  "bytecode": "0x608060405260006100176001600160e01b0361007216565b600080546001600160a01b0383166001600160a01b0319909116811790915560408051918252519192507f4101e71e974f68df5e9730cc223280b41654676bbb052cdcc735c3337e64d2d9919081900360200190a150610076565b3390565b6108d8806100856000396000f3fe60806040526004361061007b5760003560e01c8063685ca1941161004e578063685ca19414610156578063c6dbdf611461019d578063e3a9db1a146101ce578063f340fa01146102135761007b565b80632348238c146100805780634697f05d146100b557806351cff8d9146100f05780636809691a14610123575b600080fd5b34801561008c57600080fd5b506100b3600480360360208110156100a357600080fd5b50356001600160a01b0316610239565b005b3480156100c157600080fd5b506100b3600480360360408110156100d857600080fd5b506001600160a01b0381351690602001351515610343565b3480156100fc57600080fd5b506100b36004803603602081101561011357600080fd5b50356001600160a01b031661036e565b34801561012f57600080fd5b506100b36004803603602081101561014657600080fd5b50356001600160a01b03166103be565b34801561016257600080fd5b506101896004803603602081101561017957600080fd5b50356001600160a01b0316610488565b604080519115158252519081900360200190f35b3480156101a957600080fd5b506101b26104a6565b604080516001600160a01b039092168252519081900360200190f35b3480156101da57600080fd5b50610201600480360360208110156101f157600080fd5b50356001600160a01b03166104b5565b60408051918252519081900360200190f35b6100b36004803603602081101561022957600080fd5b50356001600160a01b03166104d0565b6000546001600160a01b031661024d6105aa565b6001600160a01b0316146102925760405162461bcd60e51b815260040180806020018281038252602c815260200180610878602c913960400191505060405180910390fd5b6001600160a01b0381166102d75760405162461bcd60e51b815260040180806020018281038252602a81526020018061084e602a913960400191505060405180910390fd5b600080546001600160a01b0383167fffffffffffffffffffffffff0000000000000000000000000000000000000000909116811790915560408051918252517f4101e71e974f68df5e9730cc223280b41654676bbb052cdcc735c3337e64d2d99181900360200190a150565b6001600160a01b03919091166000908152600260205260409020805460ff1916911515919091179055565b61037781610488565b6103b25760405162461bcd60e51b815260040180806020018281038252603381526020018061081b6033913960400191505060405180910390fd5b6103bb816105ae565b50565b6000546001600160a01b03166103d26105aa565b6001600160a01b0316146104175760405162461bcd60e51b815260040180806020018281038252602c815260200180610878602c913960400191505060405180910390fd5b6001600160a01b0381166000818152600160205260408120805491905590610445908263ffffffff61069516565b6040805182815290516001600160a01b038416917f7084f5476618d8e60b11ef0d7d3f06914655adb8793e28ff7f018d4c76d505d5919081900360200190a25050565b6001600160a01b031660009081526002602052604090205460ff1690565b6000546001600160a01b031690565b6001600160a01b031660009081526001602052604090205490565b6000546001600160a01b03166104e46105aa565b6001600160a01b0316146105295760405162461bcd60e51b815260040180806020018281038252602c815260200180610878602c913960400191505060405180910390fd5b6001600160a01b0381166000908152600160205260409020543490610554908263ffffffff61077f16565b6001600160a01b038316600081815260016020908152604091829020939093558051848152905191927f2da466a7b24304f47e87fa2e1e5a81b9831ce54fec19055ce277ca2f39ba42c492918290030190a25050565b3390565b6000546001600160a01b03166105c26105aa565b6001600160a01b0316146106075760405162461bcd60e51b815260040180806020018281038252602c815260200180610878602c913960400191505060405180910390fd5b6001600160a01b038116600081815260016020526040808220805490839055905190929183156108fc02918491818181858888f19350505050158015610651573d6000803e3d6000fd5b506040805182815290516001600160a01b038416917f7084f5476618d8e60b11ef0d7d3f06914655adb8793e28ff7f018d4c76d505d5919081900360200190a25050565b804710156106ea576040805162461bcd60e51b815260206004820152601d60248201527f416464726573733a20696e73756666696369656e742062616c616e6365000000604482015290519081900360640190fd5b6040516000906001600160a01b0384169083908381818185875af1925050503d8060008114610735576040519150601f19603f3d011682016040523d82523d6000602084013e61073a565b606091505b505090508061077a5760405162461bcd60e51b815260040180806020018281038252603a8152602001806107e1603a913960400191505060405180910390fd5b505050565b6000828201838110156107d9576040805162461bcd60e51b815260206004820152601b60248201527f536166654d6174683a206164646974696f6e206f766572666c6f770000000000604482015290519081900360640190fd5b939250505056fe416464726573733a20756e61626c6520746f2073656e642076616c75652c20726563697069656e74206d61792068617665207265766572746564436f6e646974696f6e616c457363726f773a207061796565206973206e6f7420616c6c6f77656420746f2077697468647261775365636f6e646172793a206e6577207072696d61727920697320746865207a65726f20616464726573735365636f6e646172793a2063616c6c6572206973206e6f7420746865207072696d617279206163636f756e74a265627a7a723158209b60c9b2fe7a3dc0110662bf82a77a9dfabf153fe8baa446d37822edec54844364736f6c63430005100032",
  "linkReferences": {},
  "deployedLinkReferences": {}
}