{
  "_format": "hh-sol-artifact-1",
  "contractName": "GSNRecipientERC20FeeMock",
  "sourceName": "contracts/IDO_basedon_Openzeppelin/mocks/GSNRecipientERC20FeeMock.sol",
  "abi": [
    {
      "inputs": [
        {
          "internalType": "string",
          "name": "name",
          "type": "string"
        },
        {
          "internalType": "string",
          "name": "symbol",
          "type": "string"
        }
      ],
      "payable": false,
      "stateMutability": "nonpayable",
      "type": "constructor"
    },
    {
      "anonymous": false,
      "inputs": [
        {
          "indexed": false,
          "internalType": "uint256",
          "name": "senderBalance",
          "type": "uint256"
        }
      ],
      "name": "MockFunctionCalled",
      "type": "event"
    },
    {
      "anonymous": false,
      "inputs": [
        {
          "indexed": true,
          "internalType": "address",
          "name": "oldRelayHub",
          "type": "address"
        },
        {
          "indexed": true,
          "internalType": "address",
          "name": "newRelayHub",
          "type": "address"
        }
      ],
      "name": "RelayHubChanged",
      "type": "event"
    },
    {
      "constant": true,
      "inputs": [
        {
          "internalType": "address",
          "name": "",
          "type": "address"
        },
        {
          "internalType": "address",
          "name": "from",
          "type": "address"
        },
        {
          "internalType": "bytes",
          "name": "",
          "type": "bytes"
        },
        {
          "internalType": "uint256",
          "name": "transactionFee",
          "type": "uint256"
        },
        {
          "internalType": "uint256",
          "name": "gasPrice",
          "type": "uint256"
        },
        {
          "internalType": "uint256",
          "name": "",
          "type": "uint256"
        },
        {
          "internalType": "uint256",
          "name": "",
          "type": "uint256"
        },
        {
          "internalType": "bytes",
          "name": "",
          "type": "bytes"
        },
        {
          "internalType": "uint256",
          "name": "maxPossibleCharge",
          "type": "uint256"
        }
      ],
      "name": "acceptRelayedCall",
      "outputs": [
        {
          "internalType": "uint256",
          "name": "",
          "type": "uint256"
        },
        {
          "internalType": "bytes",
          "name": "",
          "type": "bytes"
        }
      ],
      "payable": false,
      "stateMutability": "view",
      "type": "function"
    },
    {
      "constant": true,
      "inputs": [],
      "name": "getHubAddr",
      "outputs": [
        {
          "internalType": "address",
          "name": "",
          "type": "address"
        }
      ],
      "payable": false,
      "stateMutability": "view",
      "type": "function"
    },
    {
      "constant": false,
      "inputs": [
        {
          "internalType": "address",
          "name": "account",
          "type": "address"
        },
        {
          "internalType": "uint256",
          "name": "amount",
          "type": "uint256"
        }
      ],
      "name": "mint",
      "outputs": [],
      "payable": false,
      "stateMutability": "nonpayable",
      "type": "function"
    },
    {
      "constant": false,
      "inputs": [],
      "name": "mockFunction",
      "outputs": [],
      "payable": false,
      "stateMutability": "nonpayable",
      "type": "function"
    },
    {
      "constant": false,
      "inputs": [
        {
          "internalType": "bytes",
          "name": "context",
          "type": "bytes"
        },
        {
          "internalType": "bool",
          "name": "success",
          "type": "bool"
        },
        {
          "internalType": "uint256",
          "name": "actualCharge",
          "type": "uint256"
        },
        {
          "internalType": "bytes32",
          "name": "preRetVal",
          "type": "bytes32"
        }
      ],
      "name": "postRelayedCall",
      "outputs": [],
      "payable": false,
      "stateMutability": "nonpayable",
      "type": "function"
    },
    {
      "constant": false,
      "inputs": [
        {
          "internalType": "bytes",
          "name": "context",
          "type": "bytes"
        }
      ],
      "name": "preRelayedCall",
      "outputs": [
        {
          "internalType": "bytes32",
          "name": "",
          "type": "bytes32"
        }
      ],
      "payable": false,
      "stateMutability": "nonpayable",
      "type": "function"
    },
    {
      "constant": true,
      "inputs": [],
      "name": "relayHubVersion",
      "outputs": [
        {
          "internalType": "string",
          "name": "",
          "type": "string"
        }
      ],
      "payable": false,
      "stateMutability": "view",
      "type": "function"
    },
    {
      "constant": true,
      "inputs": [],
      "name": "token",
      "outputs": [
        {
          "internalType": "contract IERC20",
          "name": "",
          "type": "address"
        }
      ],
      "payable": false,
      "stateMutability": "view",
      "type": "function"
    }
  ],
  "bytecode": "0x6080604052600080546001600160a01b03191673d216153c06e857cd7f72665e0af1d7d82172f4941790553480156200003757600080fd5b506040516200225338038062002253833981810160405260408110156200005d57600080fd5b81019080805160405193929190846401000000008211156200007e57600080fd5b9083019060208201858111156200009457600080fd5b8251640100000000811182820188101715620000af57600080fd5b82525081516020918201929091019080838360005b83811015620000de578181015183820152602001620000c4565b50505050905090810190601f1680156200010c5780820380516001836020036101000a031916815260200191505b50604052602001805160405193929190846401000000008211156200013057600080fd5b9083019060208201858111156200014657600080fd5b82516401000000008111828201881017156200016157600080fd5b82525081516020918201929091019080838360005b838110156200019057818101518382015260200162000176565b50505050905090810190601f168015620001be5780820380516001836020036101000a031916815260200191505b50604052505050818181816012604051620001d99062000301565b60ff82166040820152606080825284519082015283518190602080830191608084019188019080838360005b838110156200021f57818101518382015260200162000205565b50505050905090810190601f1680156200024d5780820380516001836020036101000a031916815260200191505b50838103825285518152855160209182019187019080838360005b838110156200028257818101518382015260200162000268565b50505050905090810190601f168015620002b05780820380516001836020036101000a031916815260200191505b5095505050505050604051809103906000f080158015620002d5573d6000803e3d6000fd5b50600180546001600160a01b0319166001600160a01b0392909216919091179055506200030f92505050565b61116480620010ef83390190565b610dd0806200031f6000396000f3fe608060405234801561001057600080fd5b50600436106100885760003560e01c806383947ea01161005b57806383947ea014610169578063ad61ccd5146102da578063e06e0e2214610357578063fc0c546a146103d557610088565b80633e6fec041461008d57806340c10f191461009757806374e861d6146100c357806380274db7146100e7575b600080fd5b6100956103dd565b005b610095600480360360408110156100ad57600080fd5b506001600160a01b0381351690602001356104a1565b6100cb6104af565b604080516001600160a01b039092168252519081900360200190f35b610157600480360360208110156100fd57600080fd5b81019060208101813564010000000081111561011857600080fd5b82018360208201111561012a57600080fd5b8035906020019184600183028401116401000000008311171561014c57600080fd5b5090925090506104bf565b60408051918252519081900360200190f35b61025b600480360361012081101561018057600080fd5b6001600160a01b0382358116926020810135909116918101906060810160408201356401000000008111156101b457600080fd5b8201836020820111156101c657600080fd5b803590602001918460018302840111640100000000831117156101e857600080fd5b9193909282359260208101359260408201359260608301359260a08101906080013564010000000081111561021c57600080fd5b82018360208201111561022e57600080fd5b8035906020019184600183028401116401000000008311171561025057600080fd5b91935091503561055e565b6040518083815260200180602001828103825283818151815260200191508051906020019080838360005b8381101561029e578181015183820152602001610286565b50505050905090810190601f1680156102cb5780820380516001836020036101000a031916815260200191505b50935050505060405180910390f35b6102e2610668565b6040805160208082528351818301528351919283929083019185019080838360005b8381101561031c578181015183820152602001610304565b50505050905090810190601f1680156103495780820380516001836020036101000a031916815260200191505b509250505060405180910390f35b6100956004803603608081101561036d57600080fd5b81019060208101813564010000000081111561038857600080fd5b82018360208201111561039a57600080fd5b803590602001918460018302840111640100000000831117156103bc57600080fd5b919350915080351515906020810135906040013561069f565b6100cb610741565b7fde4813f7525e49908b98ef6c9c80c5bc8c7d0842981a49420eb45ef36a60e0c0610406610741565b6001600160a01b03166370a0823161041c610750565b6040518263ffffffff1660e01b815260040180826001600160a01b03166001600160a01b0316815260200191505060206040518083038186803b15801561046257600080fd5b505afa158015610476573d6000803e3d6000fd5b505050506040513d602081101561048c57600080fd5b505160408051918252519081900360200190a1565b6104ab8282610779565b5050565b6000546001600160a01b03165b90565b60006104c96104af565b6001600160a01b0316336001600160a01b0316146105185760405162461bcd60e51b8152600401808060200182810382526024815260200180610d4e6024913960400191505060405180910390fd5b61055783838080601f01602080910402602001604051908101604052809392919081815260200183838082843760009201919091525061080392505050565b9392505050565b600154604080517f70a082310000000000000000000000000000000000000000000000000000000081526001600160a01b038d81166004830152915160009360609386939116916370a0823191602480820192602092909190829003018186803b1580156105cb57600080fd5b505afa1580156105df573d6000803e3d6000fd5b505050506040513d60208110156105f557600080fd5b50511015610610576106076000610850565b91509150610658565b604080516001600160a01b038e166020820152808201859052606081018b905260808082018b90528251808303909101815260a090910190915261065390610868565b915091505b9b509b9950505050505050505050565b60408051808201909152600581527f312e302e30000000000000000000000000000000000000000000000000000000602082015290565b6106a76104af565b6001600160a01b0316336001600160a01b0316146106f65760405162461bcd60e51b8152600401808060200182810382526024815260200180610d4e6024913960400191505060405180910390fd5b61073a85858080601f01602080910402602001604051908101604052809392919081815260200183838082843760009201919091525087925086915085905061086d565b5050505050565b6001546001600160a01b031690565b600080546001600160a01b0316331461076a5750336104bc565b610772610912565b90506104bc565b600154604080517f40c10f190000000000000000000000000000000000000000000000000000000081526001600160a01b03858116600483015260248201859052915191909216916340c10f1991604480830192600092919082900301818387803b1580156107e757600080fd5b505af11580156107fb573d6000803e3d6000fd5b505050505050565b600080600083806020019051604081101561081d57600080fd5b5080516020909101516001549193509150610849906001600160a01b031683308463ffffffff61095f16565b5050919050565b604080516020810190915260008152600b9190910191565b600091565b60008060008087806020019051608081101561088857600080fd5b508051602082015160408301516060909301519196509450909250905060006108c66108bf620186a061271063ffffffff6109ed16565b8385610a2f565b90506108d8878263ffffffff6109ed16565b9650610907856108ee868a63ffffffff6109ed16565b6001546001600160a01b0316919063ffffffff610a3d16565b505050505050505050565b600060606000368080601f0160208091040260200160405190810160405280939291908181526020018383808284376000920191909152505050503601516001600160a01b031692915050565b604080516001600160a01b0385811660248301528416604482015260648082018490528251808303909101815260849091019091526020810180517bffffffffffffffffffffffffffffffffffffffffffffffffffffffff167f23b872dd000000000000000000000000000000000000000000000000000000001790526109e7908590610ac2565b50505050565b600061055783836040518060400160405280601e81526020017f536166654d6174683a207375627472616374696f6e206f766572666c6f770000815250610c7a565b606490810191909202020490565b604080516001600160a01b038416602482015260448082018490528251808303909101815260649091019091526020810180517bffffffffffffffffffffffffffffffffffffffffffffffffffffffff167fa9059cbb00000000000000000000000000000000000000000000000000000000179052610abd908490610ac2565b505050565b610ad4826001600160a01b0316610d11565b610b25576040805162461bcd60e51b815260206004820152601f60248201527f5361666545524332303a2063616c6c20746f206e6f6e2d636f6e747261637400604482015290519081900360640190fd5b60006060836001600160a01b0316836040518082805190602001908083835b60208310610b635780518252601f199092019160209182019101610b44565b6001836020036101000a0380198251168184511680821785525050505050509050019150506000604051808303816000865af19150503d8060008114610bc5576040519150601f19603f3d011682016040523d82523d6000602084013e610bca565b606091505b509150915081610c21576040805162461bcd60e51b815260206004820181905260248201527f5361666545524332303a206c6f772d6c6576656c2063616c6c206661696c6564604482015290519081900360640190fd5b8051156109e757808060200190516020811015610c3d57600080fd5b50516109e75760405162461bcd60e51b815260040180806020018281038252602a815260200180610d72602a913960400191505060405180910390fd5b60008184841115610d095760405162461bcd60e51b81526004018080602001828103825283818151815260200191508051906020019080838360005b83811015610cce578181015183820152602001610cb6565b50505050905090810190601f168015610cfb5780820380516001836020036101000a031916815260200191505b509250505060405180910390fd5b505050900390565b6000813f7fc5d2460186f7233c927e7db2dcc703c0e500b653ca82273b7bfad8045d85a470818114801590610d4557508115155b94935050505056fe47534e526563697069656e743a2063616c6c6572206973206e6f742052656c61794875625361666545524332303a204552433230206f7065726174696f6e20646964206e6f742073756363656564a265627a7a72315820657161b048be74177789507ed74359a5a8bf1f9eb985555edd490b69ea5e0fdb64736f6c6343000510003260806040523480156200001157600080fd5b506040516200116438038062001164833981810160405260608110156200003757600080fd5b81019080805160405193929190846401000000008211156200005857600080fd5b9083019060208201858111156200006e57600080fd5b82516401000000008111828201881017156200008957600080fd5b82525081516020918201929091019080838360005b83811015620000b85781810151838201526020016200009e565b50505050905090810190601f168015620000e65780820380516001836020036101000a031916815260200191505b50604052602001805160405193929190846401000000008211156200010a57600080fd5b9083019060208201858111156200012057600080fd5b82516401000000008111828201881017156200013b57600080fd5b82525081516020918201929091019080838360005b838110156200016a57818101518382015260200162000150565b50505050905090810190601f168015620001985780820380516001836020036101000a031916815260200191505b50604052602090810151855190935085925084918491620001c0916003919086019062000266565b508151620001d690600490602085019062000266565b506005805460ff191660ff929092169190911790555060009050620001fa62000261565b600580546001600160a01b0383166101008102610100600160a81b03199092169190911790915560408051918252519192507f4101e71e974f68df5e9730cc223280b41654676bbb052cdcc735c3337e64d2d9919081900360200190a15050505062000308565b335b90565b828054600181600116156101000203166002900490600052602060002090601f016020900481019282601f10620002a957805160ff1916838001178555620002d9565b82800160010185558215620002d9579182015b82811115620002d9578251825591602001919060010190620002bc565b50620002e7929150620002eb565b5090565b6200026391905b80821115620002e75760008155600101620002f2565b610e4c80620003186000396000f3fe608060405234801561001057600080fd5b50600436106100ea5760003560e01c806340c10f191161008c578063a457c2d711610066578063a457c2d7146102c8578063a9059cbb146102f4578063c6dbdf6114610320578063dd62ed3e14610344576100ea565b806340c10f191461026e57806370a082311461029a57806395d89b41146102c0576100ea565b80632348238c116100c85780632348238c146101c657806323b872dd146101ee578063313ce567146102245780633950935114610242576100ea565b806306fdde03146100ef578063095ea7b31461016c57806318160ddd146101ac575b600080fd5b6100f7610372565b6040805160208082528351818301528351919283929083019185019080838360005b83811015610131578181015183820152602001610119565b50505050905090810190601f16801561015e5780820380516001836020036101000a031916815260200191505b509250505060405180910390f35b6101986004803603604081101561018257600080fd5b506001600160a01b038135169060200135610408565b604080519115158252519081900360200190f35b6101b4610426565b60408051918252519081900360200190f35b6101ec600480360360208110156101dc57600080fd5b50356001600160a01b031661042c565b005b6101986004803603606081101561020457600080fd5b506001600160a01b03813581169160208101359091169060400135610542565b61022c61058d565b6040805160ff9092168252519081900360200190f35b6101986004803603604081101561025857600080fd5b506001600160a01b038135169060200135610596565b6101ec6004803603604081101561028457600080fd5b506001600160a01b0381351690602001356105ef565b6101b4600480360360208110156102b057600080fd5b50356001600160a01b031661065b565b6100f7610676565b610198600480360360408110156102de57600080fd5b506001600160a01b0381351690602001356106d7565b6101986004803603604081101561030a57600080fd5b506001600160a01b038135169060200135610745565b610328610759565b604080516001600160a01b039092168252519081900360200190f35b6101b46004803603604081101561035a57600080fd5b506001600160a01b038135811691602001351661076d565b60038054604080516020601f60026000196101006001881615020190951694909404938401819004810282018101909252828152606093909290918301828280156103fe5780601f106103d3576101008083540402835291602001916103fe565b820191906000526020600020905b8154815290600101906020018083116103e157829003601f168201915b5050505050905090565b600061041c6104156107aa565b84846107ae565b5060015b92915050565b60025490565b60055461010090046001600160a01b03166104456107aa565b6001600160a01b03161461048a5760405162461bcd60e51b815260040180806020018281038252602c815260200180610da3602c913960400191505060405180910390fd5b6001600160a01b0381166104cf5760405162461bcd60e51b815260040180806020018281038252602a815260200180610d54602a913960400191505060405180910390fd5b600580546001600160a01b03831661010081027fffffffffffffffffffffff0000000000000000000000000000000000000000ff9092169190911790915560408051918252517f4101e71e974f68df5e9730cc223280b41654676bbb052cdcc735c3337e64d2d99181900360200190a150565b600061054c610759565b6001600160a01b0316836001600160a01b03161415610578576105708484846107e4565b506001610586565b610583848484610940565b90505b9392505050565b60055460ff1690565b600061041c6105a36107aa565b846105ea85600160006105b46107aa565b6001600160a01b03908116825260208083019390935260409182016000908120918c16815292529020549063ffffffff6109c816565b6107ae565b60055461010090046001600160a01b03166106086107aa565b6001600160a01b03161461064d5760405162461bcd60e51b815260040180806020018281038252602c815260200180610da3602c913960400191505060405180910390fd5b6106578282610a22565b5050565b6001600160a01b031660009081526020819052604090205490565b60048054604080516020601f60026000196101006001881615020190951694909404938401819004810282018101909252828152606093909290918301828280156103fe5780601f106103d3576101008083540402835291602001916103fe565b600061041c6106e46107aa565b846105ea85604051806060016040528060258152602001610df3602591396001600061070e6107aa565b6001600160a01b03908116825260208083019390935260409182016000908120918d1681529252902054919063ffffffff610b1216565b600061041c6107526107aa565b84846107e4565b60055461010090046001600160a01b031690565b6000610777610759565b6001600160a01b0316826001600160a01b031614156107995750600019610420565b6107a38383610ba9565b9050610420565b3390565b6107b6610759565b6001600160a01b0316826001600160a01b031614156107d4576107df565b6107df838383610bd4565b505050565b6001600160a01b0383166108295760405162461bcd60e51b8152600401808060200182810382526025815260200180610d7e6025913960400191505060405180910390fd5b6001600160a01b03821661086e5760405162461bcd60e51b8152600401808060200182810382526023815260200180610cc16023913960400191505060405180910390fd5b6108b181604051806060016040528060268152602001610d06602691396001600160a01b038616600090815260208190526040902054919063ffffffff610b1216565b6001600160a01b0380851660009081526020819052604080822093909355908416815220546108e6908263ffffffff6109c816565b6001600160a01b038084166000818152602081815260409182902094909455805185815290519193928716927fddf252ad1be2c89b69c2b068fc378daa952ba7f163c4a11628f55a4df523b3ef92918290030190a3505050565b600061094d8484846107e4565b6109be846109596107aa565b6105ea85604051806060016040528060288152602001610d2c602891396001600160a01b038a166000908152600160205260408120906109976107aa565b6001600160a01b03168152602081019190915260400160002054919063ffffffff610b1216565b5060019392505050565b600082820183811015610586576040805162461bcd60e51b815260206004820152601b60248201527f536166654d6174683a206164646974696f6e206f766572666c6f770000000000604482015290519081900360640190fd5b6001600160a01b038216610a7d576040805162461bcd60e51b815260206004820152601f60248201527f45524332303a206d696e7420746f20746865207a65726f206164647265737300604482015290519081900360640190fd5b600254610a90908263ffffffff6109c816565b6002556001600160a01b038216600090815260208190526040902054610abc908263ffffffff6109c816565b6001600160a01b0383166000818152602081815260408083209490945583518581529351929391927fddf252ad1be2c89b69c2b068fc378daa952ba7f163c4a11628f55a4df523b3ef9281900390910190a35050565b60008184841115610ba15760405162461bcd60e51b81526004018080602001828103825283818151815260200191508051906020019080838360005b83811015610b66578181015183820152602001610b4e565b50505050905090810190601f168015610b935780820380516001836020036101000a031916815260200191505b509250505060405180910390fd5b505050900390565b6001600160a01b03918216600090815260016020908152604080832093909416825291909152205490565b6001600160a01b038316610c195760405162461bcd60e51b8152600401808060200182810382526024815260200180610dcf6024913960400191505060405180910390fd5b6001600160a01b038216610c5e5760405162461bcd60e51b8152600401808060200182810382526022815260200180610ce46022913960400191505060405180910390fd5b6001600160a01b03808416600081815260016020908152604080832094871680845294825291829020859055815185815291517f8c5be1e5ebec7d5bd14f71427d1e84f3dd0314c0f7b2291e5b200ac8c7c3b9259281900390910190a350505056fe45524332303a207472616e7366657220746f20746865207a65726f206164647265737345524332303a20617070726f766520746f20746865207a65726f206164647265737345524332303a207472616e7366657220616d6f756e7420657863656564732062616c616e636545524332303a207472616e7366657220616d6f756e74206578636565647320616c6c6f77616e63655365636f6e646172793a206e6577207072696d61727920697320746865207a65726f206164647265737345524332303a207472616e736665722066726f6d20746865207a65726f20616464726573735365636f6e646172793a2063616c6c6572206973206e6f7420746865207072696d617279206163636f756e7445524332303a20617070726f76652066726f6d20746865207a65726f206164647265737345524332303a2064656372656173656420616c6c6f77616e63652062656c6f77207a65726fa265627a7a72315820bf69602ab605e173346fa78647234cc6328474e689d2d235065bd843388a677e64736f6c63430005100032",
  "linkReferences": {},
  "deployedLinkReferences": {}
}