{
  "_format": "hh-sol-artifact-1",
  "contractName": "ERC165CheckerMock",
  "sourceName": "contracts/IDO_basedon_Openzeppelin/mocks/ERC165CheckerMock.sol",
  "abi": [
    {
      "constant": true,
      "inputs": [
        {
          "internalType": "address",
          "name": "account",
          "type": "address"
        },
        {
          "internalType": "bytes4[]",
          "name": "interfaceIds",
          "type": "bytes4[]"
        }
      ],
      "name": "supportsAllInterfaces",
      "outputs": [
        {
          "internalType": "bool",
          "name": "",
          "type": "bool"
        }
      ],
      "payable": false,
      "stateMutability": "view",
      "type": "function"
    },
    {
      "constant": true,
      "inputs": [
        {
          "internalType": "address",
          "name": "account",
          "type": "address"
        }
      ],
      "name": "supportsERC165",
      "outputs": [
        {
          "internalType": "bool",
          "name": "",
          "type": "bool"
        }
      ],
      "payable": false,
      "stateMutability": "view",
      "type": "function"
    },
    {
      "constant": true,
      "inputs": [
        {
          "internalType": "address",
          "name": "account",
          "type": "address"
        },
        {
          "internalType": "bytes4",
          "name": "interfaceId",
          "type": "bytes4"
        }
      ],
      "name": "supportsInterface",
      "outputs": [
        {
          "internalType": "bool",
          "name": "",
          "type": "bool"
        }
      ],
      "payable": false,
      "stateMutability": "view",
      "type": "function"
    }
  ],
  "bytecode": "0x608060405234801561001057600080fd5b50610453806100206000396000f3fe608060405234801561001057600080fd5b50600436106100415760003560e01c80634b9dd90414610046578063c398a9251461010d578063d905700714610133575b600080fd5b6100f96004803603604081101561005c57600080fd5b6001600160a01b03823516919081019060408101602082013564010000000081111561008757600080fd5b82018360208201111561009957600080fd5b803590602001918460208302840111640100000000831117156100bb57600080fd5b919080806020026020016040519081016040528093929190818152602001838360200280828437600092019190915250929550610181945050505050565b604080519115158252519081900360200190f35b6100f96004803603602081101561012357600080fd5b50356001600160a01b03166101a5565b6100f96004803603604081101561014957600080fd5b5080356001600160a01b031690602001357fffffffff00000000000000000000000000000000000000000000000000000000166101b9565b600061019c6001600160a01b0384168363ffffffff6101d416565b90505b92915050565b600061019f826001600160a01b0316610234565b600061019c6001600160a01b0384168363ffffffff61027f16565b60006101df83610234565b6101eb5750600061019f565b60005b825181101561022a576102148484838151811061020757fe5b6020026020010151610297565b61022257600091505061019f565b6001016101ee565b5060019392505050565b6000610247826301ffc9a760e01b610297565b801561019f5750610278827fffffffff00000000000000000000000000000000000000000000000000000000610297565b1592915050565b600061028a83610234565b801561019c575061019c83835b60008060006102a685856102bd565b915091508180156102b45750805b95945050505050565b604080517fffffffff00000000000000000000000000000000000000000000000000000000831660248083019190915282518083039091018152604490910182526020810180517bffffffffffffffffffffffffffffffffffffffffffffffffffffffff166301ffc9a760e01b1781529151815160009384939284926060926001600160a01b038a169261753092879282918083835b602083106103725780518252601f199092019160209182019101610353565b6001836020036101000a0380198251168184511680821785525050505050509050019150506000604051808303818686fa925050503d80600081146103d3576040519150601f19603f3d011682016040523d82523d6000602084013e6103d8565b606091505b50915091506020815110156103f65760008094509450505050610417565b8181806020019051602081101561040c57600080fd5b505190955093505050505b925092905056fea265627a7a7231582015d481eff1828a68063a25dc6130e0ce94a566fa5ff753cb3ab182bcd3a51d5464736f6c63430005100032",
  "linkReferences": {},
  "deployedLinkReferences": {}
}