{
  "_format": "hh-sol-artifact-1",
  "contractName": "AddressImpl",
  "sourceName": "contracts/IDO_basedon_Openzeppelin/mocks/AddressImpl.sol",
  "abi": [
    {
      "payable": true,
      "stateMutability": "payable",
      "type": "fallback"
    },
    {
      "constant": true,
      "inputs": [
        {
          "internalType": "address",
          "name": "account",
          "type": "address"
        }
      ],
      "name": "isContract",
      "outputs": [
        {
          "internalType": "bool",
          "name": "",
          "type": "bool"
        }
      ],
      "payable": false,
      "stateMutability": "view",
      "type": "function"
    },
    {
      "constant": false,
      "inputs": [
        {
          "internalType": "address payable",
          "name": "receiver",
          "type": "address"
        },
        {
          "internalType": "uint256",
          "name": "amount",
          "type": "uint256"
        }
      ],
      "name": "sendValue",
      "outputs": [],
      "payable": false,
      "stateMutability": "nonpayable",
      "type": "function"
    },
    {
      "constant": true,
      "inputs": [
        {
          "internalType": "address",
          "name": "account",
          "type": "address"
        }
      ],
      "name": "toPayable",
      "outputs": [
        {
          "internalType": "address payable",
          "name": "",
          "type": "address"
        }
      ],
      "payable": false,
      "stateMutability": "pure",
      "type": "function"
    }
  ],
  "bytecode": "0x608060405234801561001057600080fd5b506102c7806100206000396000f3fe6080604052600436106100345760003560e01c8063162790551461003657806324a084df1461007d57806351ecabd6146100b6575b005b34801561004257600080fd5b506100696004803603602081101561005957600080fd5b50356001600160a01b0316610105565b604080519115158252519081900360200190f35b34801561008957600080fd5b50610034600480360360408110156100a057600080fd5b506001600160a01b038135169060200135610116565b3480156100c257600080fd5b506100e9600480360360208110156100d957600080fd5b50356001600160a01b0316610124565b604080516001600160a01b039092168252519081900360200190f35b60006101108261012f565b92915050565b610120828261016b565b5050565b600061011082610255565b6000813f7fc5d2460186f7233c927e7db2dcc703c0e500b653ca82273b7bfad8045d85a47081811480159061016357508115155b949350505050565b804710156101c0576040805162461bcd60e51b815260206004820152601d60248201527f416464726573733a20696e73756666696369656e742062616c616e6365000000604482015290519081900360640190fd5b6040516000906001600160a01b0384169083908381818185875af1925050503d806000811461020b576040519150601f19603f3d011682016040523d82523d6000602084013e610210565b606091505b50509050806102505760405162461bcd60e51b815260040180806020018281038252603a815260200180610259603a913960400191505060405180910390fd5b505050565b9056fe416464726573733a20756e61626c6520746f2073656e642076616c75652c20726563697069656e74206d61792068617665207265766572746564a265627a7a72315820d361e56c24e36d248d0b823d7d4319aa57c6be3fbcdda8cf4a8a87ea94b5fc5d64736f6c63430005100032",
  "linkReferences": {},
  "deployedLinkReferences": {}
}