{
  "_format": "hh-sol-artifact-1",
  "contractName": "ERC721GSNRecipientMock",
  "sourceName": "contracts/IDO_basedon_Openzeppelin/mocks/ERC721GSNRecipientMock.sol",
  "abi": [
    {
      "inputs": [
        {
          "internalType": "address",
          "name": "trustedSigner",
          "type": "address"
        }
      ],
      "payable": false,
      "stateMutability": "nonpayable",
      "type": "constructor"
    },
    {
      "anonymous": false,
      "inputs": [
        {
          "indexed": true,
          "internalType": "address",
          "name": "owner",
          "type": "address"
        },
        {
          "indexed": true,
          "internalType": "address",
          "name": "approved",
          "type": "address"
        },
        {
          "indexed": true,
          "internalType": "uint256",
          "name": "tokenId",
          "type": "uint256"
        }
      ],
      "name": "Approval",
      "type": "event"
    },
    {
      "anonymous": false,
      "inputs": [
        {
          "indexed": true,
          "internalType": "address",
          "name": "owner",
          "type": "address"
        },
        {
          "indexed": true,
          "internalType": "address",
          "name": "operator",
          "type": "address"
        },
        {
          "indexed": false,
          "internalType": "bool",
          "name": "approved",
          "type": "bool"
        }
      ],
      "name": "ApprovalForAll",
      "type": "event"
    },
    {
      "anonymous": false,
      "inputs": [
        {
          "indexed": true,
          "internalType": "address",
          "name": "oldRelayHub",
          "type": "address"
        },
        {
          "indexed": true,
          "internalType": "address",
          "name": "newRelayHub",
          "type": "address"
        }
      ],
      "name": "RelayHubChanged",
      "type": "event"
    },
    {
      "anonymous": false,
      "inputs": [
        {
          "indexed": true,
          "internalType": "address",
          "name": "from",
          "type": "address"
        },
        {
          "indexed": true,
          "internalType": "address",
          "name": "to",
          "type": "address"
        },
        {
          "indexed": true,
          "internalType": "uint256",
          "name": "tokenId",
          "type": "uint256"
        }
      ],
      "name": "Transfer",
      "type": "event"
    },
    {
      "constant": true,
      "inputs": [
        {
          "internalType": "address",
          "name": "relay",
          "type": "address"
        },
        {
          "internalType": "address",
          "name": "from",
          "type": "address"
        },
        {
          "internalType": "bytes",
          "name": "encodedFunction",
          "type": "bytes"
        },
        {
          "internalType": "uint256",
          "name": "transactionFee",
          "type": "uint256"
        },
        {
          "internalType": "uint256",
          "name": "gasPrice",
          "type": "uint256"
        },
        {
          "internalType": "uint256",
          "name": "gasLimit",
          "type": "uint256"
        },
        {
          "internalType": "uint256",
          "name": "nonce",
          "type": "uint256"
        },
        {
          "internalType": "bytes",
          "name": "approvalData",
          "type": "bytes"
        },
        {
          "internalType": "uint256",
          "name": "",
          "type": "uint256"
        }
      ],
      "name": "acceptRelayedCall",
      "outputs": [
        {
          "internalType": "uint256",
          "name": "",
          "type": "uint256"
        },
        {
          "internalType": "bytes",
          "name": "",
          "type": "bytes"
        }
      ],
      "payable": false,
      "stateMutability": "view",
      "type": "function"
    },
    {
      "constant": false,
      "inputs": [
        {
          "internalType": "address",
          "name": "to",
          "type": "address"
        },
        {
          "internalType": "uint256",
          "name": "tokenId",
          "type": "uint256"
        }
      ],
      "name": "approve",
      "outputs": [],
      "payable": false,
      "stateMutability": "nonpayable",
      "type": "function"
    },
    {
      "constant": true,
      "inputs": [
        {
          "internalType": "address",
          "name": "owner",
          "type": "address"
        }
      ],
      "name": "balanceOf",
      "outputs": [
        {
          "internalType": "uint256",
          "name": "",
          "type": "uint256"
        }
      ],
      "payable": false,
      "stateMutability": "view",
      "type": "function"
    },
    {
      "constant": true,
      "inputs": [
        {
          "internalType": "uint256",
          "name": "tokenId",
          "type": "uint256"
        }
      ],
      "name": "getApproved",
      "outputs": [
        {
          "internalType": "address",
          "name": "",
          "type": "address"
        }
      ],
      "payable": false,
      "stateMutability": "view",
      "type": "function"
    },
    {
      "constant": true,
      "inputs": [],
      "name": "getHubAddr",
      "outputs": [
        {
          "internalType": "address",
          "name": "",
          "type": "address"
        }
      ],
      "payable": false,
      "stateMutability": "view",
      "type": "function"
    },
    {
      "constant": true,
      "inputs": [
        {
          "internalType": "address",
          "name": "owner",
          "type": "address"
        },
        {
          "internalType": "address",
          "name": "operator",
          "type": "address"
        }
      ],
      "name": "isApprovedForAll",
      "outputs": [
        {
          "internalType": "bool",
          "name": "",
          "type": "bool"
        }
      ],
      "payable": false,
      "stateMutability": "view",
      "type": "function"
    },
    {
      "constant": false,
      "inputs": [
        {
          "internalType": "uint256",
          "name": "tokenId",
          "type": "uint256"
        }
      ],
      "name": "mint",
      "outputs": [],
      "payable": false,
      "stateMutability": "nonpayable",
      "type": "function"
    },
    {
      "constant": true,
      "inputs": [
        {
          "internalType": "uint256",
          "name": "tokenId",
          "type": "uint256"
        }
      ],
      "name": "ownerOf",
      "outputs": [
        {
          "internalType": "address",
          "name": "",
          "type": "address"
        }
      ],
      "payable": false,
      "stateMutability": "view",
      "type": "function"
    },
    {
      "constant": false,
      "inputs": [
        {
          "internalType": "bytes",
          "name": "context",
          "type": "bytes"
        },
        {
          "internalType": "bool",
          "name": "success",
          "type": "bool"
        },
        {
          "internalType": "uint256",
          "name": "actualCharge",
          "type": "uint256"
        },
        {
          "internalType": "bytes32",
          "name": "preRetVal",
          "type": "bytes32"
        }
      ],
      "name": "postRelayedCall",
      "outputs": [],
      "payable": false,
      "stateMutability": "nonpayable",
      "type": "function"
    },
    {
      "constant": false,
      "inputs": [
        {
          "internalType": "bytes",
          "name": "context",
          "type": "bytes"
        }
      ],
      "name": "preRelayedCall",
      "outputs": [
        {
          "internalType": "bytes32",
          "name": "",
          "type": "bytes32"
        }
      ],
      "payable": false,
      "stateMutability": "nonpayable",
      "type": "function"
    },
    {
      "constant": true,
      "inputs": [],
      "name": "relayHubVersion",
      "outputs": [
        {
          "internalType": "string",
          "name": "",
          "type": "string"
        }
      ],
      "payable": false,
      "stateMutability": "view",
      "type": "function"
    },
    {
      "constant": false,
      "inputs": [
        {
          "internalType": "address",
          "name": "from",
          "type": "address"
        },
        {
          "internalType": "address",
          "name": "to",
          "type": "address"
        },
        {
          "internalType": "uint256",
          "name": "tokenId",
          "type": "uint256"
        }
      ],
      "name": "safeTransferFrom",
      "outputs": [],
      "payable": false,
      "stateMutability": "nonpayable",
      "type": "function"
    },
    {
      "constant": false,
      "inputs": [
        {
          "internalType": "address",
          "name": "from",
          "type": "address"
        },
        {
          "internalType": "address",
          "name": "to",
          "type": "address"
        },
        {
          "internalType": "uint256",
          "name": "tokenId",
          "type": "uint256"
        },
        {
          "internalType": "bytes",
          "name": "_data",
          "type": "bytes"
        }
      ],
      "name": "safeTransferFrom",
      "outputs": [],
      "payable": false,
      "stateMutability": "nonpayable",
      "type": "function"
    },
    {
      "constant": false,
      "inputs": [
        {
          "internalType": "address",
          "name": "to",
          "type": "address"
        },
        {
          "internalType": "bool",
          "name": "approved",
          "type": "bool"
        }
      ],
      "name": "setApprovalForAll",
      "outputs": [],
      "payable": false,
      "stateMutability": "nonpayable",
      "type": "function"
    },
    {
      "constant": true,
      "inputs": [
        {
          "internalType": "bytes4",
          "name": "interfaceId",
          "type": "bytes4"
        }
      ],
      "name": "supportsInterface",
      "outputs": [
        {
          "internalType": "bool",
          "name": "",
          "type": "bool"
        }
      ],
      "payable": false,
      "stateMutability": "view",
      "type": "function"
    },
    {
      "constant": false,
      "inputs": [
        {
          "internalType": "address",
          "name": "from",
          "type": "address"
        },
        {
          "internalType": "address",
          "name": "to",
          "type": "address"
        },
        {
          "internalType": "uint256",
          "name": "tokenId",
          "type": "uint256"
        }
      ],
      "name": "transferFrom",
      "outputs": [],
      "payable": false,
      "stateMutability": "nonpayable",
      "type": "function"
    }
  ],
  "bytecode": "0x6080604052600580546001600160a01b03191673d216153c06e857cd7f72665e0af1d7d82172f4941790553480156200003757600080fd5b5060405162001b4338038062001b43833981810160405260208110156200005d57600080fd5b5051806200007b6301ffc9a760e01b6001600160e01b036200010416565b620000966380ac58cd60e01b6001600160e01b036200010416565b6001600160a01b038116620000dd5760405162461bcd60e51b815260040180806020018281038252603981526020018062001b0a6039913960400191505060405180910390fd5b600680546001600160a01b0319166001600160a01b03929092169190911790555062000189565b6001600160e01b0319808216141562000164576040805162461bcd60e51b815260206004820152601c60248201527f4552433136353a20696e76616c696420696e7465726661636520696400000000604482015290519081900360640190fd5b6001600160e01b0319166000908152602081905260409020805460ff19166001179055565b61197180620001996000396000f3fe608060405234801561001057600080fd5b50600436106101005760003560e01c806380274db711610097578063ad61ccd511610066578063ad61ccd51461049c578063b88d4fde14610519578063e06e0e22146105df578063e985e9c51461065d57610100565b806380274db71461027057806383947ea0146102e0578063a0712d6814610451578063a22cb4651461046e57610100565b806342842e0e116100d357806342842e0e146101dd5780636352211e1461021357806370a082311461023057806374e861d61461026857610100565b806301ffc9a714610105578063081812fc14610140578063095ea7b31461017957806323b872dd146101a7575b600080fd5b61012c6004803603602081101561011b57600080fd5b50356001600160e01b03191661068b565b604080519115158252519081900360200190f35b61015d6004803603602081101561015657600080fd5b50356106aa565b604080516001600160a01b039092168252519081900360200190f35b6101a56004803603604081101561018f57600080fd5b506001600160a01b03813516906020013561070c565b005b6101a5600480360360608110156101bd57600080fd5b506001600160a01b03813581169160208101359091169060400135610841565b6101a5600480360360608110156101f357600080fd5b506001600160a01b0381358116916020810135909116906040013561089d565b61015d6004803603602081101561022957600080fd5b50356108b8565b6102566004803603602081101561024657600080fd5b50356001600160a01b0316610912565b60408051918252519081900360200190f35b61015d61097a565b6102566004803603602081101561028657600080fd5b8101906020810181356401000000008111156102a157600080fd5b8201836020820111156102b357600080fd5b803590602001918460018302840111640100000000831117156102d557600080fd5b50909250905061098a565b6103d260048036036101208110156102f757600080fd5b6001600160a01b03823581169260208101359091169181019060608101604082013564010000000081111561032b57600080fd5b82018360208201111561033d57600080fd5b8035906020019184600183028401116401000000008311171561035f57600080fd5b9193909282359260208101359260408201359260608301359260a08101906080013564010000000081111561039357600080fd5b8201836020820111156103a557600080fd5b803590602001918460018302840111640100000000831117156103c757600080fd5b919350915035610a29565b6040518083815260200180602001828103825283818151815260200191508051906020019080838360005b838110156104155781810151838201526020016103fd565b50505050905090810190601f1680156104425780820380516001836020036101000a031916815260200191505b50935050505060405180910390f35b6101a56004803603602081101561046757600080fd5b5035610b78565b6101a56004803603604081101561048457600080fd5b506001600160a01b0381351690602001351515610b8c565b6104a4610c91565b6040805160208082528351818301528351919283929083019185019080838360005b838110156104de5781810151838201526020016104c6565b50505050905090810190601f16801561050b5780820380516001836020036101000a031916815260200191505b509250505060405180910390f35b6101a56004803603608081101561052f57600080fd5b6001600160a01b0382358116926020810135909116916040820135919081019060808101606082013564010000000081111561056a57600080fd5b82018360208201111561057c57600080fd5b8035906020019184600183028401116401000000008311171561059e57600080fd5b91908080601f016020809104026020016040519081016040528093929190818152602001838380828437600092019190915250929550610cc8945050505050565b6101a5600480360360808110156105f557600080fd5b81019060208101813564010000000081111561061057600080fd5b82018360208201111561062257600080fd5b8035906020019184600183028401116401000000008311171561064457600080fd5b9193509150803515159060208101359060400135610d26565b61012c6004803603604081101561067357600080fd5b506001600160a01b0381358116916020013516610dc8565b6001600160e01b03191660009081526020819052604090205460ff1690565b60006106b582610df6565b6106f05760405162461bcd60e51b815260040180806020018281038252602c815260200180611872602c913960400191505060405180910390fd5b506000908152600260205260409020546001600160a01b031690565b6000610717826108b8565b9050806001600160a01b0316836001600160a01b0316141561076a5760405162461bcd60e51b81526004018080602001828103825260218152602001806118c76021913960400191505060405180910390fd5b806001600160a01b031661077c610e13565b6001600160a01b0316148061079d575061079d81610798610e13565b610dc8565b6107d85760405162461bcd60e51b81526004018080602001828103825260388152602001806117e76038913960400191505060405180910390fd5b600082815260026020526040808220805473ffffffffffffffffffffffffffffffffffffffff19166001600160a01b0387811691821790925591518593918516917f8c5be1e5ebec7d5bd14f71427d1e84f3dd0314c0f7b2291e5b200ac8c7c3b92591a4505050565b61085261084c610e13565b82610e3e565b61088d5760405162461bcd60e51b815260040180806020018281038252603181526020018061190c6031913960400191505060405180910390fd5b610898838383610ee2565b505050565b61089883838360405180602001604052806000815250610cc8565b6000818152600160205260408120546001600160a01b03168061090c5760405162461bcd60e51b81526004018080602001828103825260298152602001806118496029913960400191505060405180910390fd5b92915050565b60006001600160a01b0382166109595760405162461bcd60e51b815260040180806020018281038252602a81526020018061181f602a913960400191505060405180910390fd5b6001600160a01b038216600090815260036020526040902061090c90611033565b6005546001600160a01b03165b90565b600061099461097a565b6001600160a01b0316336001600160a01b0316146109e35760405162461bcd60e51b81526004018080602001828103825260248152602001806118e86024913960400191505060405180910390fd5b610a2283838080601f01602080910402602001604051908101604052809392919081815260200183838082843760009201919091525061103792505050565b9392505050565b60006060808d8d8d8d8d8d8d8d610a3e61097a565b30604051602001808b6001600160a01b03166001600160a01b031660601b81526014018a6001600160a01b03166001600160a01b031660601b81526014018989808284379190910197885250506020808701959095526040808701949094526060808701939093526bffffffffffffffffffffffff1991831b8216608087015290911b1660948401528051608881850301815260065460c8601f8f018590049094028501840190925260a884018d81529098506001600160a01b03919091169650610b3d955093508b92508a918291018382808284376000920191909152505085516020870120610b319250905061103d565b9063ffffffff61108e16565b6001600160a01b03161415610b5e57610b5461117c565b9250925050610b68565b610b5460006111a0565b9b509b9950505050505050505050565b610b89610b83610e13565b826111b8565b50565b610b94610e13565b6001600160a01b0316826001600160a01b03161415610bfa576040805162461bcd60e51b815260206004820152601960248201527f4552433732313a20617070726f766520746f2063616c6c657200000000000000604482015290519081900360640190fd5b8060046000610c07610e13565b6001600160a01b03908116825260208083019390935260409182016000908120918716808252919093529120805460ff191692151592909217909155610c4b610e13565b60408051841515815290516001600160a01b0392909216917f17307eab39ab6107e8899845ad3d59bd9653f200f220920489ca2b5937696c319181900360200190a35050565b60408051808201909152600581527f312e302e30000000000000000000000000000000000000000000000000000000602082015290565b610cd9610cd3610e13565b83610e3e565b610d145760405162461bcd60e51b815260040180806020018281038252603181526020018061190c6031913960400191505060405180910390fd5b610d20848484846112f6565b50505050565b610d2e61097a565b6001600160a01b0316336001600160a01b031614610d7d5760405162461bcd60e51b81526004018080602001828103825260248152602001806118e86024913960400191505060405180910390fd5b610dc185858080601f016020809104026020016040519081016040528093929190818152602001838380828437600092019190915250879250869150859050610d20565b5050505050565b6001600160a01b03918216600090815260046020908152604080832093909416825291909152205460ff1690565b6000908152600160205260409020546001600160a01b0316151590565b6005546000906001600160a01b03163314610e2f575033610987565b610e37611348565b9050610987565b6000610e4982610df6565b610e845760405162461bcd60e51b815260040180806020018281038252602c8152602001806117bb602c913960400191505060405180910390fd5b6000610e8f836108b8565b9050806001600160a01b0316846001600160a01b03161480610eca5750836001600160a01b0316610ebf846106aa565b6001600160a01b0316145b80610eda5750610eda8185610dc8565b949350505050565b826001600160a01b0316610ef5826108b8565b6001600160a01b031614610f3a5760405162461bcd60e51b815260040180806020018281038252602981526020018061189e6029913960400191505060405180910390fd5b6001600160a01b038216610f7f5760405162461bcd60e51b81526004018080602001828103825260248152602001806117976024913960400191505060405180910390fd5b610f8881611395565b6001600160a01b0383166000908152600360205260409020610fa9906113dd565b6001600160a01b0382166000908152600360205260409020610fca906113f4565b600081815260016020526040808220805473ffffffffffffffffffffffffffffffffffffffff19166001600160a01b0386811691821790925591518493918716917fddf252ad1be2c89b69c2b068fc378daa952ba7f163c4a11628f55a4df523b3ef91a4505050565b5490565b50600090565b604080517f19457468657265756d205369676e6564204d6573736167653a0a333200000000602080830191909152603c8083019490945282518083039094018452605c909101909152815191012090565b600081516041146110a15750600061090c565b60208201516040830151606084015160001a7f7fffffffffffffffffffffffffffffff5d576e7357a4501ddfe92f46681b20a08211156110e7576000935050505061090c565b8060ff16601b141580156110ff57508060ff16601c14155b15611110576000935050505061090c565b6040805160008152602080820180845289905260ff8416828401526060820186905260808201859052915160019260a0808401939192601f1981019281900390910190855afa158015611167573d6000803e3d6000fd5b5050604051601f190151979650505050505050565b60006060611198604051806020016040528060008152506113fd565b915091509091565b604080516020810190915260008152600b9190910191565b6001600160a01b038216611213576040805162461bcd60e51b815260206004820181905260248201527f4552433732313a206d696e7420746f20746865207a65726f2061646472657373604482015290519081900360640190fd5b61121c81610df6565b1561126e576040805162461bcd60e51b815260206004820152601c60248201527f4552433732313a20746f6b656e20616c7265616479206d696e74656400000000604482015290519081900360640190fd5b6000818152600160209081526040808320805473ffffffffffffffffffffffffffffffffffffffff19166001600160a01b0387169081179091558352600390915290206112ba906113f4565b60405181906001600160a01b038416906000907fddf252ad1be2c89b69c2b068fc378daa952ba7f163c4a11628f55a4df523b3ef908290a45050565b611301848484610ee2565b61130d84848484611402565b610d205760405162461bcd60e51b81526004018080602001828103825260328152602001806117656032913960400191505060405180910390fd5b600060606000368080601f0160208091040260200160405190810160405280939291908181526020018383808284376000920191909152505050503601516001600160a01b031692915050565b6000818152600260205260409020546001600160a01b031615610b89576000908152600260205260409020805473ffffffffffffffffffffffffffffffffffffffff19169055565b80546113f090600163ffffffff61165216565b9055565b80546001019055565b600091565b6000611416846001600160a01b0316611694565b61142257506001610eda565b600060606001600160a01b038616630a85bd0160e11b611440610e13565b89888860405160240180856001600160a01b03166001600160a01b03168152602001846001600160a01b03166001600160a01b0316815260200183815260200180602001828103825283818151815260200191508051906020019080838360005b838110156114b95781810151838201526020016114a1565b50505050905090810190601f1680156114e65780820380516001836020036101000a031916815260200191505b5060408051601f198184030181529181526020820180517bffffffffffffffffffffffffffffffffffffffffffffffffffffffff166001600160e01b0319909a16999099178952518151919890975087965094509250829150849050835b602083106115635780518252601f199092019160209182019101611544565b6001836020036101000a0380198251168184511680821785525050505050509050019150506000604051808303816000865af19150503d80600081146115c5576040519150601f19603f3d011682016040523d82523d6000602084013e6115ca565b606091505b50915091508161161b578051156115e45780518082602001fd5b60405162461bcd60e51b81526004018080602001828103825260328152602001806117656032913960400191505060405180910390fd5b600081806020019051602081101561163257600080fd5b50516001600160e01b031916630a85bd0160e11b149350610eda92505050565b6000610a2283836040518060400160405280601e81526020017f536166654d6174683a207375627472616374696f6e206f766572666c6f7700008152506116cd565b6000813f7fc5d2460186f7233c927e7db2dcc703c0e500b653ca82273b7bfad8045d85a470818114801590610eda575050151592915050565b6000818484111561175c5760405162461bcd60e51b81526004018080602001828103825283818151815260200191508051906020019080838360005b83811015611721578181015183820152602001611709565b50505050905090810190601f16801561174e5780820380516001836020036101000a031916815260200191505b509250505060405180910390fd5b50505090039056fe4552433732313a207472616e7366657220746f206e6f6e20455243373231526563656976657220696d706c656d656e7465724552433732313a207472616e7366657220746f20746865207a65726f20616464726573734552433732313a206f70657261746f7220717565727920666f72206e6f6e6578697374656e7420746f6b656e4552433732313a20617070726f76652063616c6c6572206973206e6f74206f776e6572206e6f7220617070726f76656420666f7220616c6c4552433732313a2062616c616e636520717565727920666f7220746865207a65726f20616464726573734552433732313a206f776e657220717565727920666f72206e6f6e6578697374656e7420746f6b656e4552433732313a20617070726f76656420717565727920666f72206e6f6e6578697374656e7420746f6b656e4552433732313a207472616e73666572206f6620746f6b656e2074686174206973206e6f74206f776e4552433732313a20617070726f76616c20746f2063757272656e74206f776e657247534e526563697069656e743a2063616c6c6572206973206e6f742052656c61794875624552433732313a207472616e736665722063616c6c6572206973206e6f74206f776e6572206e6f7220617070726f766564a265627a7a72315820c380e0501226d6d12cf779e3761c0bd2c86bcfd3ebe76c95244a3471689cc61264736f6c6343000510003247534e526563697069656e745369676e61747572653a2074727573746564207369676e657220697320746865207a65726f2061646472657373",
  "linkReferences": {},
  "deployedLinkReferences": {}
}