{
  "_format": "hh-sol-artifact-1",
  "contractName": "CappedCrowdsaleImpl",
  "sourceName": "contracts/IDO_basedon_Openzeppelin/mocks/CappedCrowdsaleImpl.sol",
  "abi": [
    {
      "inputs": [
        {
          "internalType": "uint256",
          "name": "rate",
          "type": "uint256"
        },
        {
          "internalType": "address payable",
          "name": "wallet",
          "type": "address"
        },
        {
          "internalType": "contract IERC20",
          "name": "token",
          "type": "address"
        },
        {
          "internalType": "uint256",
          "name": "cap",
          "type": "uint256"
        }
      ],
      "payable": false,
      "stateMutability": "nonpayable",
      "type": "constructor"
    },
    {
      "anonymous": false,
      "inputs": [
        {
          "indexed": true,
          "internalType": "address",
          "name": "purchaser",
          "type": "address"
        },
        {
          "indexed": true,
          "internalType": "address",
          "name": "beneficiary",
          "type": "address"
        },
        {
          "indexed": false,
          "internalType": "uint256",
          "name": "value",
          "type": "uint256"
        },
        {
          "indexed": false,
          "internalType": "uint256",
          "name": "amount",
          "type": "uint256"
        }
      ],
      "name": "TokensPurchased",
      "type": "event"
    },
    {
      "payable": true,
      "stateMutability": "payable",
      "type": "fallback"
    },
    {
      "constant": false,
      "inputs": [
        {
          "internalType": "address",
          "name": "beneficiary",
          "type": "address"
        }
      ],
      "name": "buyTokens",
      "outputs": [],
      "payable": true,
      "stateMutability": "payable",
      "type": "function"
    },
    {
      "constant": true,
      "inputs": [],
      "name": "cap",
      "outputs": [
        {
          "internalType": "uint256",
          "name": "",
          "type": "uint256"
        }
      ],
      "payable": false,
      "stateMutability": "view",
      "type": "function"
    },
    {
      "constant": true,
      "inputs": [],
      "name": "capReached",
      "outputs": [
        {
          "internalType": "bool",
          "name": "",
          "type": "bool"
        }
      ],
      "payable": false,
      "stateMutability": "view",
      "type": "function"
    },
    {
      "constant": true,
      "inputs": [],
      "name": "rate",
      "outputs": [
        {
          "internalType": "uint256",
          "name": "",
          "type": "uint256"
        }
      ],
      "payable": false,
      "stateMutability": "view",
      "type": "function"
    },
    {
      "constant": true,
      "inputs": [],
      "name": "token",
      "outputs": [
        {
          "internalType": "contract IERC20",
          "name": "",
          "type": "address"
        }
      ],
      "payable": false,
      "stateMutability": "view",
      "type": "function"
    },
    {
      "constant": true,
      "inputs": [],
      "name": "wallet",
      "outputs": [
        {
          "internalType": "address payable",
          "name": "",
          "type": "address"
        }
      ],
      "payable": false,
      "stateMutability": "view",
      "type": "function"
    },
    {
      "constant": true,
      "inputs": [],
      "name": "weiRaised",
      "outputs": [
        {
          "internalType": "uint256",
          "name": "",
          "type": "uint256"
        }
      ],
      "payable": false,
      "stateMutability": "view",
      "type": "function"
    }
  ],
  "bytecode": "0x608060405234801561001057600080fd5b50604051610a6f380380610a6f8339818101604052608081101561003357600080fd5b508051602082015160408301516060909301516000805460ff191660011790559192909180848484826100ad576040805162461bcd60e51b815260206004820152601460248201527f43726f776473616c653a20726174652069732030000000000000000000000000604482015290519081900360640190fd5b6001600160a01b0382166100f25760405162461bcd60e51b8152600401808060200182810382526025815260200180610a4a6025913960400191505060405180910390fd5b6001600160a01b0381166101375760405162461bcd60e51b8152600401808060200182810382526024815260200180610a266024913960400191505060405180910390fd5b600292909255600180546001600160a01b039283166001600160a01b0319909116179055600080549190921661010002610100600160a81b0319909116179055806101c9576040805162461bcd60e51b815260206004820152601960248201527f43617070656443726f776473616c653a20636170206973203000000000000000604482015290519081900360640190fd5b60045550505050610847806101df6000396000f3fe6080604052600436106100705760003560e01c80634f9359451161004e5780634f935945146100d3578063521eb273146100fc578063ec8ac4d81461012d578063fc0c546a1461015357610070565b80632c4e722e14610082578063355274ea146100a95780634042b66f146100be575b61008061007b610168565b61016c565b005b34801561008e57600080fd5b5061009761028e565b60408051918252519081900360200190f35b3480156100b557600080fd5b50610097610294565b3480156100ca57600080fd5b5061009761029a565b3480156100df57600080fd5b506100e86102a0565b604080519115158252519081900360200190f35b34801561010857600080fd5b506101116102b4565b604080516001600160a01b039092168252519081900360200190f35b6100806004803603602081101561014357600080fd5b50356001600160a01b031661016c565b34801561015f57600080fd5b506101116102c3565b3390565b60005460ff166101c3576040805162461bcd60e51b815260206004820152601f60248201527f5265656e7472616e637947756172643a207265656e7472616e742063616c6c00604482015290519081900360640190fd5b6000805460ff19169055346101d882826102d7565b60006101e382610353565b6003549091506101f9908363ffffffff61037016565b60035561020683826103d1565b826001600160a01b0316610218610168565b6001600160a01b03167f6faf93231a456e552dbc9961f58d9713ee4f2e69d15f1975b050ef0911053a7b8484604051808381526020018281526020019250505060405180910390a361026a838361034f565b6102726103db565b61027c838361034f565b50506000805460ff1916600117905550565b60025490565b60045490565b60035490565b60006004546102ad61029a565b1015905090565b6001546001600160a01b031690565b60005461010090046001600160a01b031690565b6102e18282610417565b6004546102fc826102f061029a565b9063ffffffff61037016565b111561034f576040805162461bcd60e51b815260206004820152601d60248201527f43617070656443726f776473616c653a20636170206578636565646564000000604482015290519081900360640190fd5b5050565b600061036a600254836104ae90919063ffffffff16565b92915050565b6000828201838110156103ca576040805162461bcd60e51b815260206004820152601b60248201527f536166654d6174683a206164646974696f6e206f766572666c6f770000000000604482015290519081900360640190fd5b9392505050565b61034f8282610507565b6001546040516001600160a01b03909116903480156108fc02916000818181858888f19350505050158015610414573d6000803e3d6000fd5b50565b6001600160a01b03821661045c5760405162461bcd60e51b815260040180806020018281038252602a8152602001806107bf602a913960400191505060405180910390fd5b8061034f576040805162461bcd60e51b815260206004820152601960248201527f43726f776473616c653a20776569416d6f756e74206973203000000000000000604482015290519081900360640190fd5b6000826104bd5750600061036a565b828202828482816104ca57fe5b04146103ca5760405162461bcd60e51b815260040180806020018281038252602181526020018061079e6021913960400191505060405180910390fd5b60005461034f9061010090046001600160a01b03168383604080516001600160a01b038416602482015260448082018490528251808303909101815260649091019091526020810180517bffffffffffffffffffffffffffffffffffffffffffffffffffffffff167fa9059cbb0000000000000000000000000000000000000000000000000000000017905261059e9084906105a3565b505050565b6105b5826001600160a01b0316610761565b610606576040805162461bcd60e51b815260206004820152601f60248201527f5361666545524332303a2063616c6c20746f206e6f6e2d636f6e747261637400604482015290519081900360640190fd5b60006060836001600160a01b0316836040518082805190602001908083835b602083106106445780518252601f199092019160209182019101610625565b6001836020036101000a0380198251168184511680821785525050505050509050019150506000604051808303816000865af19150503d80600081146106a6576040519150601f19603f3d011682016040523d82523d6000602084013e6106ab565b606091505b509150915081610702576040805162461bcd60e51b815260206004820181905260248201527f5361666545524332303a206c6f772d6c6576656c2063616c6c206661696c6564604482015290519081900360640190fd5b80511561075b5780806020019051602081101561071e57600080fd5b505161075b5760405162461bcd60e51b815260040180806020018281038252602a8152602001806107e9602a913960400191505060405180910390fd5b50505050565b6000813f7fc5d2460186f7233c927e7db2dcc703c0e500b653ca82273b7bfad8045d85a47081811480159061079557508115155b94935050505056fe536166654d6174683a206d756c7469706c69636174696f6e206f766572666c6f7743726f776473616c653a2062656e656669636961727920697320746865207a65726f20616464726573735361666545524332303a204552433230206f7065726174696f6e20646964206e6f742073756363656564a265627a7a72315820aa5cc26211ec6ac540acbbd16278ac403babc19c70e49007f2b939c2d2622b9964736f6c6343000510003243726f776473616c653a20746f6b656e20697320746865207a65726f206164647265737343726f776473616c653a2077616c6c657420697320746865207a65726f2061646472657373",
  "linkReferences": {},
  "deployedLinkReferences": {}
}