{
  "_format": "hh-sol-artifact-1",
  "contractName": "SecondaryMock",
  "sourceName": "contracts/IDO_basedon_Openzeppelin/mocks/SecondaryMock.sol",
  "abi": [
    {
      "anonymous": false,
      "inputs": [
        {
          "indexed": false,
          "internalType": "address",
          "name": "recipient",
          "type": "address"
        }
      ],
      "name": "PrimaryTransferred",
      "type": "event"
    },
    {
      "constant": true,
      "inputs": [],
      "name": "onlyPrimaryMock",
      "outputs": [],
      "payable": false,
      "stateMutability": "view",
      "type": "function"
    },
    {
      "constant": true,
      "inputs": [],
      "name": "primary",
      "outputs": [
        {
          "internalType": "address",
          "name": "",
          "type": "address"
        }
      ],
      "payable": false,
      "stateMutability": "view",
      "type": "function"
    },
    {
      "constant": false,
      "inputs": [
        {
          "internalType": "address",
          "name": "recipient",
          "type": "address"
        }
      ],
      "name": "transferPrimary",
      "outputs": [],
      "payable": false,
      "stateMutability": "nonpayable",
      "type": "function"
    }
  ],
  "bytecode": "0x608060405260006100176001600160e01b0361007216565b600080546001600160a01b0383166001600160a01b0319909116811790915560408051918252519192507f4101e71e974f68df5e9730cc223280b41654676bbb052cdcc735c3337e64d2d9919081900360200190a150610076565b3390565b61029d806100856000396000f3fe608060405234801561001057600080fd5b50600436106100415760003560e01c80632348238c14610046578063846224251461006e578063c6dbdf6114610076575b600080fd5b61006c6004803603602081101561005c57600080fd5b50356001600160a01b031661009a565b005b61006c6101a4565b61007e6101ff565b604080516001600160a01b039092168252519081900360200190f35b6000546001600160a01b03166100ae61020e565b6001600160a01b0316146100f35760405162461bcd60e51b815260040180806020018281038252602c81526020018061023d602c913960400191505060405180910390fd5b6001600160a01b0381166101385760405162461bcd60e51b815260040180806020018281038252602a815260200180610213602a913960400191505060405180910390fd5b600080546001600160a01b0383167fffffffffffffffffffffffff0000000000000000000000000000000000000000909116811790915560408051918252517f4101e71e974f68df5e9730cc223280b41654676bbb052cdcc735c3337e64d2d99181900360200190a150565b6000546001600160a01b03166101b861020e565b6001600160a01b0316146101fd5760405162461bcd60e51b815260040180806020018281038252602c81526020018061023d602c913960400191505060405180910390fd5b565b6000546001600160a01b031690565b339056fe5365636f6e646172793a206e6577207072696d61727920697320746865207a65726f20616464726573735365636f6e646172793a2063616c6c6572206973206e6f7420746865207072696d617279206163636f756e74a265627a7a72315820cc3c57842a6c38b725f1fdb6f375b7136ee1951e9cb89b61c0270ee2bdca02aa64736f6c63430005100032",
  "linkReferences": {},
  "deployedLinkReferences": {}
}