{
  "_format": "hh-sol-artifact-1",
  "contractName": "ERC721Mock",
  "sourceName": "contracts/IDO_basedon_Openzeppelin/mocks/ERC721Mock.sol",
  "abi": [
    {
      "anonymous": false,
      "inputs": [
        {
          "indexed": true,
          "internalType": "address",
          "name": "owner",
          "type": "address"
        },
        {
          "indexed": true,
          "internalType": "address",
          "name": "approved",
          "type": "address"
        },
        {
          "indexed": true,
          "internalType": "uint256",
          "name": "tokenId",
          "type": "uint256"
        }
      ],
      "name": "Approval",
      "type": "event"
    },
    {
      "anonymous": false,
      "inputs": [
        {
          "indexed": true,
          "internalType": "address",
          "name": "owner",
          "type": "address"
        },
        {
          "indexed": true,
          "internalType": "address",
          "name": "operator",
          "type": "address"
        },
        {
          "indexed": false,
          "internalType": "bool",
          "name": "approved",
          "type": "bool"
        }
      ],
      "name": "ApprovalForAll",
      "type": "event"
    },
    {
      "anonymous": false,
      "inputs": [
        {
          "indexed": true,
          "internalType": "address",
          "name": "from",
          "type": "address"
        },
        {
          "indexed": true,
          "internalType": "address",
          "name": "to",
          "type": "address"
        },
        {
          "indexed": true,
          "internalType": "uint256",
          "name": "tokenId",
          "type": "uint256"
        }
      ],
      "name": "Transfer",
      "type": "event"
    },
    {
      "constant": false,
      "inputs": [
        {
          "internalType": "address",
          "name": "to",
          "type": "address"
        },
        {
          "internalType": "uint256",
          "name": "tokenId",
          "type": "uint256"
        }
      ],
      "name": "approve",
      "outputs": [],
      "payable": false,
      "stateMutability": "nonpayable",
      "type": "function"
    },
    {
      "constant": true,
      "inputs": [
        {
          "internalType": "address",
          "name": "owner",
          "type": "address"
        }
      ],
      "name": "balanceOf",
      "outputs": [
        {
          "internalType": "uint256",
          "name": "",
          "type": "uint256"
        }
      ],
      "payable": false,
      "stateMutability": "view",
      "type": "function"
    },
    {
      "constant": false,
      "inputs": [
        {
          "internalType": "uint256",
          "name": "tokenId",
          "type": "uint256"
        }
      ],
      "name": "burn",
      "outputs": [],
      "payable": false,
      "stateMutability": "nonpayable",
      "type": "function"
    },
    {
      "constant": false,
      "inputs": [
        {
          "internalType": "address",
          "name": "owner",
          "type": "address"
        },
        {
          "internalType": "uint256",
          "name": "tokenId",
          "type": "uint256"
        }
      ],
      "name": "burn",
      "outputs": [],
      "payable": false,
      "stateMutability": "nonpayable",
      "type": "function"
    },
    {
      "constant": true,
      "inputs": [
        {
          "internalType": "uint256",
          "name": "tokenId",
          "type": "uint256"
        }
      ],
      "name": "getApproved",
      "outputs": [
        {
          "internalType": "address",
          "name": "",
          "type": "address"
        }
      ],
      "payable": false,
      "stateMutability": "view",
      "type": "function"
    },
    {
      "constant": true,
      "inputs": [
        {
          "internalType": "address",
          "name": "owner",
          "type": "address"
        },
        {
          "internalType": "address",
          "name": "operator",
          "type": "address"
        }
      ],
      "name": "isApprovedForAll",
      "outputs": [
        {
          "internalType": "bool",
          "name": "",
          "type": "bool"
        }
      ],
      "payable": false,
      "stateMutability": "view",
      "type": "function"
    },
    {
      "constant": false,
      "inputs": [
        {
          "internalType": "address",
          "name": "to",
          "type": "address"
        },
        {
          "internalType": "uint256",
          "name": "tokenId",
          "type": "uint256"
        }
      ],
      "name": "mint",
      "outputs": [],
      "payable": false,
      "stateMutability": "nonpayable",
      "type": "function"
    },
    {
      "constant": true,
      "inputs": [
        {
          "internalType": "uint256",
          "name": "tokenId",
          "type": "uint256"
        }
      ],
      "name": "ownerOf",
      "outputs": [
        {
          "internalType": "address",
          "name": "",
          "type": "address"
        }
      ],
      "payable": false,
      "stateMutability": "view",
      "type": "function"
    },
    {
      "constant": false,
      "inputs": [
        {
          "internalType": "address",
          "name": "to",
          "type": "address"
        },
        {
          "internalType": "uint256",
          "name": "tokenId",
          "type": "uint256"
        },
        {
          "internalType": "bytes",
          "name": "_data",
          "type": "bytes"
        }
      ],
      "name": "safeMint",
      "outputs": [],
      "payable": false,
      "stateMutability": "nonpayable",
      "type": "function"
    },
    {
      "constant": false,
      "inputs": [
        {
          "internalType": "address",
          "name": "to",
          "type": "address"
        },
        {
          "internalType": "uint256",
          "name": "tokenId",
          "type": "uint256"
        }
      ],
      "name": "safeMint",
      "outputs": [],
      "payable": false,
      "stateMutability": "nonpayable",
      "type": "function"
    },
    {
      "constant": false,
      "inputs": [
        {
          "internalType": "address",
          "name": "from",
          "type": "address"
        },
        {
          "internalType": "address",
          "name": "to",
          "type": "address"
        },
        {
          "internalType": "uint256",
          "name": "tokenId",
          "type": "uint256"
        }
      ],
      "name": "safeTransferFrom",
      "outputs": [],
      "payable": false,
      "stateMutability": "nonpayable",
      "type": "function"
    },
    {
      "constant": false,
      "inputs": [
        {
          "internalType": "address",
          "name": "from",
          "type": "address"
        },
        {
          "internalType": "address",
          "name": "to",
          "type": "address"
        },
        {
          "internalType": "uint256",
          "name": "tokenId",
          "type": "uint256"
        },
        {
          "internalType": "bytes",
          "name": "_data",
          "type": "bytes"
        }
      ],
      "name": "safeTransferFrom",
      "outputs": [],
      "payable": false,
      "stateMutability": "nonpayable",
      "type": "function"
    },
    {
      "constant": false,
      "inputs": [
        {
          "internalType": "address",
          "name": "to",
          "type": "address"
        },
        {
          "internalType": "bool",
          "name": "approved",
          "type": "bool"
        }
      ],
      "name": "setApprovalForAll",
      "outputs": [],
      "payable": false,
      "stateMutability": "nonpayable",
      "type": "function"
    },
    {
      "constant": true,
      "inputs": [
        {
          "internalType": "bytes4",
          "name": "interfaceId",
          "type": "bytes4"
        }
      ],
      "name": "supportsInterface",
      "outputs": [
        {
          "internalType": "bool",
          "name": "",
          "type": "bool"
        }
      ],
      "payable": false,
      "stateMutability": "view",
      "type": "function"
    },
    {
      "constant": false,
      "inputs": [
        {
          "internalType": "address",
          "name": "from",
          "type": "address"
        },
        {
          "internalType": "address",
          "name": "to",
          "type": "address"
        },
        {
          "internalType": "uint256",
          "name": "tokenId",
          "type": "uint256"
        }
      ],
      "name": "transferFrom",
      "outputs": [],
      "payable": false,
      "stateMutability": "nonpayable",
      "type": "function"
    }
  ],
  "bytecode": "0x608060405261001d6301ffc9a760e01b6001600160e01b0361003b16565b6100366380ac58cd60e01b6001600160e01b0361003b16565b6100bf565b6001600160e01b0319808216141561009a576040805162461bcd60e51b815260206004820152601c60248201527f4552433136353a20696e76616c696420696e7465726661636520696400000000604482015290519081900360640190fd5b6001600160e01b0319166000908152602081905260409020805460ff19166001179055565b61143e806100ce6000396000f3fe608060405234801561001057600080fd5b50600436106100f55760003560e01c80636352211e11610097578063a144819411610066578063a14481941461038d578063a22cb465146103b9578063b88d4fde146103e7578063e985e9c5146104ad576100f5565b80636352211e1461025157806370a082311461026e5780638832e6e3146102a65780639dc29fac14610361576100f5565b806323b872dd116100d357806323b872dd1461019c57806340c10f19146101d257806342842e0e146101fe57806342966c6814610234576100f5565b806301ffc9a7146100fa578063081812fc14610135578063095ea7b31461016e575b600080fd5b6101216004803603602081101561011057600080fd5b50356001600160e01b0319166104db565b604080519115158252519081900360200190f35b6101526004803603602081101561014b57600080fd5b50356104fa565b604080516001600160a01b039092168252519081900360200190f35b61019a6004803603604081101561018457600080fd5b506001600160a01b03813516906020013561055c565b005b61019a600480360360608110156101b257600080fd5b506001600160a01b03813581169160208101359091169060400135610684565b61019a600480360360408110156101e857600080fd5b506001600160a01b0381351690602001356106e0565b61019a6004803603606081101561021457600080fd5b506001600160a01b038135811691602081013590911690604001356106ee565b61019a6004803603602081101561024a57600080fd5b5035610709565b6101526004803603602081101561026757600080fd5b5035610715565b6102946004803603602081101561028457600080fd5b50356001600160a01b031661076f565b60408051918252519081900360200190f35b61019a600480360360608110156102bc57600080fd5b6001600160a01b03823516916020810135918101906060810160408201356401000000008111156102ec57600080fd5b8201836020820111156102fe57600080fd5b8035906020019184600183028401116401000000008311171561032057600080fd5b91908080601f0160208091040260200160405190810160405280939291908181526020018383808284376000920191909152509295506107d7945050505050565b61019a6004803603604081101561037757600080fd5b506001600160a01b0381351690602001356107e2565b61019a600480360360408110156103a357600080fd5b506001600160a01b0381351690602001356107ec565b61019a600480360360408110156103cf57600080fd5b506001600160a01b03813516906020013515156107f6565b61019a600480360360808110156103fd57600080fd5b6001600160a01b0382358116926020810135909116916040820135919081019060808101606082013564010000000081111561043857600080fd5b82018360208201111561044a57600080fd5b8035906020019184600183028401116401000000008311171561046c57600080fd5b91908080601f0160208091040260200160405190810160405280939291908181526020018383808284376000920191909152509295506108fb945050505050565b610121600480360360408110156104c357600080fd5b506001600160a01b0381358116916020013516610959565b6001600160e01b03191660009081526020819052604090205460ff1690565b600061050582610987565b6105405760405162461bcd60e51b815260040180806020018281038252602c81526020018061133e602c913960400191505060405180910390fd5b506000908152600260205260409020546001600160a01b031690565b600061056782610715565b9050806001600160a01b0316836001600160a01b031614156105ba5760405162461bcd60e51b81526004018080602001828103825260218152602001806113936021913960400191505060405180910390fd5b806001600160a01b03166105cc6109a4565b6001600160a01b031614806105ed57506105ed816105e86109a4565b610959565b6106285760405162461bcd60e51b81526004018080602001828103825260388152602001806112b36038913960400191505060405180910390fd5b60008281526002602052604080822080546001600160a01b0319166001600160a01b0387811691821790925591518593918516917f8c5be1e5ebec7d5bd14f71427d1e84f3dd0314c0f7b2291e5b200ac8c7c3b92591a4505050565b61069561068f6109a4565b826109a8565b6106d05760405162461bcd60e51b81526004018080602001828103825260318152602001806113b46031913960400191505060405180910390fd5b6106db838383610a4c565b505050565b6106ea8282610b90565b5050565b6106db838383604051806020016040528060008152506108fb565b61071281610cc1565b50565b6000818152600160205260408120546001600160a01b0316806107695760405162461bcd60e51b81526004018080602001828103825260298152602001806113156029913960400191505060405180910390fd5b92915050565b60006001600160a01b0382166107b65760405162461bcd60e51b815260040180806020018281038252602a8152602001806112eb602a913960400191505060405180910390fd5b6001600160a01b038216600090815260036020526040902061076990610cd3565b6106db838383610cd7565b6106ea8282610d29565b6106ea8282610e00565b6107fe6109a4565b6001600160a01b0316826001600160a01b03161415610864576040805162461bcd60e51b815260206004820152601960248201527f4552433732313a20617070726f766520746f2063616c6c657200000000000000604482015290519081900360640190fd5b80600460006108716109a4565b6001600160a01b03908116825260208083019390935260409182016000908120918716808252919093529120805460ff1916921515929092179091556108b56109a4565b60408051841515815290516001600160a01b0392909216917f17307eab39ab6107e8899845ad3d59bd9653f200f220920489ca2b5937696c319181900360200190a35050565b61090c6109066109a4565b836109a8565b6109475760405162461bcd60e51b81526004018080602001828103825260318152602001806113b46031913960400191505060405180910390fd5b61095384848484610e1a565b50505050565b6001600160a01b03918216600090815260046020908152604080832093909416825291909152205460ff1690565b6000908152600160205260409020546001600160a01b0316151590565b3390565b60006109b382610987565b6109ee5760405162461bcd60e51b815260040180806020018281038252602c815260200180611287602c913960400191505060405180910390fd5b60006109f983610715565b9050806001600160a01b0316846001600160a01b03161480610a345750836001600160a01b0316610a29846104fa565b6001600160a01b0316145b80610a445750610a448185610959565b949350505050565b826001600160a01b0316610a5f82610715565b6001600160a01b031614610aa45760405162461bcd60e51b815260040180806020018281038252602981526020018061136a6029913960400191505060405180910390fd5b6001600160a01b038216610ae95760405162461bcd60e51b81526004018080602001828103825260248152602001806112636024913960400191505060405180910390fd5b610af281610e6c565b6001600160a01b0383166000908152600360205260409020610b1390610ea7565b6001600160a01b0382166000908152600360205260409020610b3490610ebe565b60008181526001602052604080822080546001600160a01b0319166001600160a01b0386811691821790925591518493918716917fddf252ad1be2c89b69c2b068fc378daa952ba7f163c4a11628f55a4df523b3ef91a4505050565b6001600160a01b038216610beb576040805162461bcd60e51b815260206004820181905260248201527f4552433732313a206d696e7420746f20746865207a65726f2061646472657373604482015290519081900360640190fd5b610bf481610987565b15610c46576040805162461bcd60e51b815260206004820152601c60248201527f4552433732313a20746f6b656e20616c7265616479206d696e74656400000000604482015290519081900360640190fd5b600081815260016020908152604080832080546001600160a01b0319166001600160a01b038716908117909155835260039091529020610c8590610ebe565b60405181906001600160a01b038416906000907fddf252ad1be2c89b69c2b068fc378daa952ba7f163c4a11628f55a4df523b3ef908290a45050565b610712610ccd82610715565b82610d29565b5490565b610ce18383610b90565b610cee6000848484610ec7565b6106db5760405162461bcd60e51b81526004018080602001828103825260328152602001806112316032913960400191505060405180910390fd5b816001600160a01b0316610d3c82610715565b6001600160a01b031614610d815760405162461bcd60e51b81526004018080602001828103825260258152602001806113e56025913960400191505060405180910390fd5b610d8a81610e6c565b6001600160a01b0382166000908152600360205260409020610dab90610ea7565b60008181526001602052604080822080546001600160a01b0319169055518291906001600160a01b038516907fddf252ad1be2c89b69c2b068fc378daa952ba7f163c4a11628f55a4df523b3ef908390a45050565b6106ea828260405180602001604052806000815250610cd7565b610e25848484610a4c565b610e3184848484610ec7565b6109535760405162461bcd60e51b81526004018080602001828103825260328152602001806112316032913960400191505060405180910390fd5b6000818152600260205260409020546001600160a01b03161561071257600090815260026020526040902080546001600160a01b0319169055565b8054610eba90600163ffffffff61111716565b9055565b80546001019055565b6000610edb846001600160a01b0316611160565b610ee757506001610a44565b600060606001600160a01b038616630a85bd0160e11b610f056109a4565b89888860405160240180856001600160a01b03166001600160a01b03168152602001846001600160a01b03166001600160a01b0316815260200183815260200180602001828103825283818151815260200191508051906020019080838360005b83811015610f7e578181015183820152602001610f66565b50505050905090810190601f168015610fab5780820380516001836020036101000a031916815260200191505b5060408051601f198184030181529181526020820180517bffffffffffffffffffffffffffffffffffffffffffffffffffffffff166001600160e01b0319909a16999099178952518151919890975087965094509250829150849050835b602083106110285780518252601f199092019160209182019101611009565b6001836020036101000a0380198251168184511680821785525050505050509050019150506000604051808303816000865af19150503d806000811461108a576040519150601f19603f3d011682016040523d82523d6000602084013e61108f565b606091505b5091509150816110e0578051156110a95780518082602001fd5b60405162461bcd60e51b81526004018080602001828103825260328152602001806112316032913960400191505060405180910390fd5b60008180602001905160208110156110f757600080fd5b50516001600160e01b031916630a85bd0160e11b149350610a4492505050565b600061115983836040518060400160405280601e81526020017f536166654d6174683a207375627472616374696f6e206f766572666c6f770000815250611199565b9392505050565b6000813f7fc5d2460186f7233c927e7db2dcc703c0e500b653ca82273b7bfad8045d85a470818114801590610a44575050151592915050565b600081848411156112285760405162461bcd60e51b81526004018080602001828103825283818151815260200191508051906020019080838360005b838110156111ed5781810151838201526020016111d5565b50505050905090810190601f16801561121a5780820380516001836020036101000a031916815260200191505b509250505060405180910390fd5b50505090039056fe4552433732313a207472616e7366657220746f206e6f6e20455243373231526563656976657220696d706c656d656e7465724552433732313a207472616e7366657220746f20746865207a65726f20616464726573734552433732313a206f70657261746f7220717565727920666f72206e6f6e6578697374656e7420746f6b656e4552433732313a20617070726f76652063616c6c6572206973206e6f74206f776e6572206e6f7220617070726f76656420666f7220616c6c4552433732313a2062616c616e636520717565727920666f7220746865207a65726f20616464726573734552433732313a206f776e657220717565727920666f72206e6f6e6578697374656e7420746f6b656e4552433732313a20617070726f76656420717565727920666f72206e6f6e6578697374656e7420746f6b656e4552433732313a207472616e73666572206f6620746f6b656e2074686174206973206e6f74206f776e4552433732313a20617070726f76616c20746f2063757272656e74206f776e65724552433732313a207472616e736665722063616c6c6572206973206e6f74206f776e6572206e6f7220617070726f7665644552433732313a206275726e206f6620746f6b656e2074686174206973206e6f74206f776ea265627a7a723158200085ce5401730f00236547f1200f8db63713519b7014b1e4a87cc257a071c68764736f6c63430005100032",
  "linkReferences": {},
  "deployedLinkReferences": {}
}