{
  "_format": "hh-sol-artifact-1",
  "contractName": "ERC20MetadataMock",
  "sourceName": "contracts/IDO_basedon_Openzeppelin/mocks/ERC20MetadataMock.sol",
  "abi": [
    {
      "inputs": [
        {
          "internalType": "string",
          "name": "tokenURI",
          "type": "string"
        }
      ],
      "payable": false,
      "stateMutability": "nonpayable",
      "type": "constructor"
    },
    {
      "anonymous": false,
      "inputs": [
        {
          "indexed": true,
          "internalType": "address",
          "name": "owner",
          "type": "address"
        },
        {
          "indexed": true,
          "internalType": "address",
          "name": "spender",
          "type": "address"
        },
        {
          "indexed": false,
          "internalType": "uint256",
          "name": "value",
          "type": "uint256"
        }
      ],
      "name": "Approval",
      "type": "event"
    },
    {
      "anonymous": false,
      "inputs": [
        {
          "indexed": true,
          "internalType": "address",
          "name": "from",
          "type": "address"
        },
        {
          "indexed": true,
          "internalType": "address",
          "name": "to",
          "type": "address"
        },
        {
          "indexed": false,
          "internalType": "uint256",
          "name": "value",
          "type": "uint256"
        }
      ],
      "name": "Transfer",
      "type": "event"
    },
    {
      "constant": true,
      "inputs": [
        {
          "internalType": "address",
          "name": "owner",
          "type": "address"
        },
        {
          "internalType": "address",
          "name": "spender",
          "type": "address"
        }
      ],
      "name": "allowance",
      "outputs": [
        {
          "internalType": "uint256",
          "name": "",
          "type": "uint256"
        }
      ],
      "payable": false,
      "stateMutability": "view",
      "type": "function"
    },
    {
      "constant": false,
      "inputs": [
        {
          "internalType": "address",
          "name": "spender",
          "type": "address"
        },
        {
          "internalType": "uint256",
          "name": "amount",
          "type": "uint256"
        }
      ],
      "name": "approve",
      "outputs": [
        {
          "internalType": "bool",
          "name": "",
          "type": "bool"
        }
      ],
      "payable": false,
      "stateMutability": "nonpayable",
      "type": "function"
    },
    {
      "constant": true,
      "inputs": [
        {
          "internalType": "address",
          "name": "account",
          "type": "address"
        }
      ],
      "name": "balanceOf",
      "outputs": [
        {
          "internalType": "uint256",
          "name": "",
          "type": "uint256"
        }
      ],
      "payable": false,
      "stateMutability": "view",
      "type": "function"
    },
    {
      "constant": false,
      "inputs": [
        {
          "internalType": "address",
          "name": "spender",
          "type": "address"
        },
        {
          "internalType": "uint256",
          "name": "subtractedValue",
          "type": "uint256"
        }
      ],
      "name": "decreaseAllowance",
      "outputs": [
        {
          "internalType": "bool",
          "name": "",
          "type": "bool"
        }
      ],
      "payable": false,
      "stateMutability": "nonpayable",
      "type": "function"
    },
    {
      "constant": false,
      "inputs": [
        {
          "internalType": "address",
          "name": "spender",
          "type": "address"
        },
        {
          "internalType": "uint256",
          "name": "addedValue",
          "type": "uint256"
        }
      ],
      "name": "increaseAllowance",
      "outputs": [
        {
          "internalType": "bool",
          "name": "",
          "type": "bool"
        }
      ],
      "payable": false,
      "stateMutability": "nonpayable",
      "type": "function"
    },
    {
      "constant": false,
      "inputs": [
        {
          "internalType": "string",
          "name": "tokenURI",
          "type": "string"
        }
      ],
      "name": "setTokenURI",
      "outputs": [],
      "payable": false,
      "stateMutability": "nonpayable",
      "type": "function"
    },
    {
      "constant": true,
      "inputs": [],
      "name": "tokenURI",
      "outputs": [
        {
          "internalType": "string",
          "name": "",
          "type": "string"
        }
      ],
      "payable": false,
      "stateMutability": "view",
      "type": "function"
    },
    {
      "constant": true,
      "inputs": [],
      "name": "totalSupply",
      "outputs": [
        {
          "internalType": "uint256",
          "name": "",
          "type": "uint256"
        }
      ],
      "payable": false,
      "stateMutability": "view",
      "type": "function"
    },
    {
      "constant": false,
      "inputs": [
        {
          "internalType": "address",
          "name": "recipient",
          "type": "address"
        },
        {
          "internalType": "uint256",
          "name": "amount",
          "type": "uint256"
        }
      ],
      "name": "transfer",
      "outputs": [
        {
          "internalType": "bool",
          "name": "",
          "type": "bool"
        }
      ],
      "payable": false,
      "stateMutability": "nonpayable",
      "type": "function"
    },
    {
      "constant": false,
      "inputs": [
        {
          "internalType": "address",
          "name": "sender",
          "type": "address"
        },
        {
          "internalType": "address",
          "name": "recipient",
          "type": "address"
        },
        {
          "internalType": "uint256",
          "name": "amount",
          "type": "uint256"
        }
      ],
      "name": "transferFrom",
      "outputs": [
        {
          "internalType": "bool",
          "name": "",
          "type": "bool"
        }
      ],
      "payable": false,
      "stateMutability": "nonpayable",
      "type": "function"
    }
  ],
  "bytecode": "0x608060405234801561001057600080fd5b50604051610ca3380380610ca38339818101604052602081101561003357600080fd5b810190808051604051939291908464010000000082111561005357600080fd5b90830190602082018581111561006857600080fd5b825164010000000081118282018810171561008257600080fd5b82525081516020918201929091019080838360005b838110156100af578181015183820152602001610097565b50505050905090810190601f1680156100dc5780820380516001836020036101000a031916815260200191505b50604052505050806100f3816100fa60201b60201c565b50506101ac565b805161010d906003906020840190610111565b5050565b828054600181600116156101000203166002900490600052602060002090601f016020900481019282601f1061015257805160ff191683800117855561017f565b8280016001018555821561017f579182015b8281111561017f578251825591602001919060010190610164565b5061018b92915061018f565b5090565b6101a991905b8082111561018b5760008155600101610195565b90565b610ae8806101bb6000396000f3fe608060405234801561001057600080fd5b50600436106100be5760003560e01c806370a0823111610076578063a9059cbb1161005b578063a9059cbb1461024e578063dd62ed3e1461027a578063e0df5b6f146102a8576100be565b806370a08231146101fc578063a457c2d714610222576100be565b806323b872dd116100a757806323b872dd1461011d57806339509351146101535780633c130d901461017f576100be565b8063095ea7b3146100c357806318160ddd14610103575b600080fd5b6100ef600480360360408110156100d957600080fd5b506001600160a01b038135169060200135610350565b604080519115158252519081900360200190f35b61010b61036d565b60408051918252519081900360200190f35b6100ef6004803603606081101561013357600080fd5b506001600160a01b03813581169160208101359091169060400135610374565b6100ef6004803603604081101561016957600080fd5b506001600160a01b038135169060200135610401565b610187610455565b6040805160208082528351818301528351919283929083019185019080838360005b838110156101c15781810151838201526020016101a9565b50505050905090810190601f1680156101ee5780820380516001836020036101000a031916815260200191505b509250505060405180910390f35b61010b6004803603602081101561021257600080fd5b50356001600160a01b03166104eb565b6100ef6004803603604081101561023857600080fd5b506001600160a01b038135169060200135610506565b6100ef6004803603604081101561026457600080fd5b506001600160a01b038135169060200135610574565b61010b6004803603604081101561029057600080fd5b506001600160a01b0381358116916020013516610588565b61034e600480360360208110156102be57600080fd5b8101906020810181356401000000008111156102d957600080fd5b8201836020820111156102eb57600080fd5b8035906020019184600183028401116401000000008311171561030d57600080fd5b91908080601f0160208091040260200160405190810160405280939291908181526020018383808284376000920191909152509295506105b3945050505050565b005b600061036461035d6105bf565b84846105c3565b50600192915050565b6002545b90565b60006103818484846106af565b6103f78461038d6105bf565b6103f285604051806060016040528060288152602001610a1e602891396001600160a01b038a166000908152600160205260408120906103cb6105bf565b6001600160a01b03168152602081019190915260400160002054919063ffffffff61080b16565b6105c3565b5060019392505050565b600061036461040e6105bf565b846103f2856001600061041f6105bf565b6001600160a01b03908116825260208083019390935260409182016000908120918c16815292529020549063ffffffff6108a216565b60038054604080516020601f60026000196101006001881615020190951694909404938401819004810282018101909252828152606093909290918301828280156104e15780601f106104b6576101008083540402835291602001916104e1565b820191906000526020600020905b8154815290600101906020018083116104c457829003601f168201915b5050505050905090565b6001600160a01b031660009081526020819052604090205490565b60006103646105136105bf565b846103f285604051806060016040528060258152602001610a8f602591396001600061053d6105bf565b6001600160a01b03908116825260208083019390935260409182016000908120918d1681529252902054919063ffffffff61080b16565b60006103646105816105bf565b84846106af565b6001600160a01b03918216600090815260016020908152604080832093909416825291909152205490565b6105bc81610903565b50565b3390565b6001600160a01b0383166106085760405162461bcd60e51b8152600401808060200182810382526024815260200180610a6b6024913960400191505060405180910390fd5b6001600160a01b03821661064d5760405162461bcd60e51b81526004018080602001828103825260228152602001806109d66022913960400191505060405180910390fd5b6001600160a01b03808416600081815260016020908152604080832094871680845294825291829020859055815185815291517f8c5be1e5ebec7d5bd14f71427d1e84f3dd0314c0f7b2291e5b200ac8c7c3b9259281900390910190a3505050565b6001600160a01b0383166106f45760405162461bcd60e51b8152600401808060200182810382526025815260200180610a466025913960400191505060405180910390fd5b6001600160a01b0382166107395760405162461bcd60e51b81526004018080602001828103825260238152602001806109b36023913960400191505060405180910390fd5b61077c816040518060600160405280602681526020016109f8602691396001600160a01b038616600090815260208190526040902054919063ffffffff61080b16565b6001600160a01b0380851660009081526020819052604080822093909355908416815220546107b1908263ffffffff6108a216565b6001600160a01b038084166000818152602081815260409182902094909455805185815290519193928716927fddf252ad1be2c89b69c2b068fc378daa952ba7f163c4a11628f55a4df523b3ef92918290030190a3505050565b6000818484111561089a5760405162461bcd60e51b81526004018080602001828103825283818151815260200191508051906020019080838360005b8381101561085f578181015183820152602001610847565b50505050905090810190601f16801561088c5780820380516001836020036101000a031916815260200191505b509250505060405180910390fd5b505050900390565b6000828201838110156108fc576040805162461bcd60e51b815260206004820152601b60248201527f536166654d6174683a206164646974696f6e206f766572666c6f770000000000604482015290519081900360640190fd5b9392505050565b805161091690600390602084019061091a565b5050565b828054600181600116156101000203166002900490600052602060002090601f016020900481019282601f1061095b57805160ff1916838001178555610988565b82800160010185558215610988579182015b8281111561098857825182559160200191906001019061096d565b50610994929150610998565b5090565b61037191905b80821115610994576000815560010161099e56fe45524332303a207472616e7366657220746f20746865207a65726f206164647265737345524332303a20617070726f766520746f20746865207a65726f206164647265737345524332303a207472616e7366657220616d6f756e7420657863656564732062616c616e636545524332303a207472616e7366657220616d6f756e74206578636565647320616c6c6f77616e636545524332303a207472616e736665722066726f6d20746865207a65726f206164647265737345524332303a20617070726f76652066726f6d20746865207a65726f206164647265737345524332303a2064656372656173656420616c6c6f77616e63652062656c6f77207a65726fa265627a7a72315820b729b881d1930d4a389f72b5788c8ee7497ad71984091d1df6da9a4c07324a1a64736f6c63430005100032",
  "linkReferences": {},
  "deployedLinkReferences": {}
}