{
  "_format": "hh-sol-artifact-1",
  "contractName": "OwnableInterfaceId",
  "sourceName": "contracts/IDO_basedon_Openzeppelin/mocks/OwnableInterfaceId.sol",
  "abi": [
    {
      "constant": true,
      "inputs": [],
      "name": "getInterfaceId",
      "outputs": [
        {
          "internalType": "bytes4",
          "name": "",
          "type": "bytes4"
        }
      ],
      "payable": false,
      "stateMutability": "pure",
      "type": "function"
    }
  ],
  "bytecode": "0x6080604052348015600f57600080fd5b5060c18061001e6000396000f3fe6080604052348015600f57600080fd5b506004361060285760003560e01c80636b9241fc14602d575b600080fd5b60336068565b604080517fffffffff000000000000000000000000000000000000000000000000000000009092168252519081900360200190f35b7f813ae5ed000000000000000000000000000000000000000000000000000000009056fea265627a7a72315820eda871618fe75179061bad24457aae80b5ae2b00535a426c292da48a93441ded64736f6c63430005100032",
  "linkReferences": {},
  "deployedLinkReferences": {}
}