{
  "_format": "hh-sol-artifact-1",
  "contractName": "ContextMockCaller",
  "sourceName": "contracts/IDO_basedon_Openzeppelin/mocks/ContextMock.sol",
  "abi": [
    {
      "constant": false,
      "inputs": [
        {
          "internalType": "contract ContextMock",
          "name": "context",
          "type": "address"
        },
        {
          "internalType": "uint256",
          "name": "integerValue",
          "type": "uint256"
        },
        {
          "internalType": "string",
          "name": "stringValue",
          "type": "string"
        }
      ],
      "name": "callData",
      "outputs": [],
      "payable": false,
      "stateMutability": "nonpayable",
      "type": "function"
    },
    {
      "constant": false,
      "inputs": [
        {
          "internalType": "contract ContextMock",
          "name": "context",
          "type": "address"
        }
      ],
      "name": "callSender",
      "outputs": [],
      "payable": false,
      "stateMutability": "nonpayable",
      "type": "function"
    }
  ],
  "bytecode": "0x608060405234801561001057600080fd5b506102c3806100206000396000f3fe608060405234801561001057600080fd5b50600436106100355760003560e01c80628604591461003a5780633207ad9614610104575b600080fd5b6101026004803603606081101561005057600080fd5b73ffffffffffffffffffffffffffffffffffffffff8235169160208101359181019060608101604082013564010000000081111561008d57600080fd5b82018360208201111561009f57600080fd5b803590602001918460018302840111640100000000831117156100c157600080fd5b91908080601f016020809104026020016040519081016040528093929190818152602001838380828437600092019190915250929550610137945050505050565b005b6101026004803603602081101561011a57600080fd5b503573ffffffffffffffffffffffffffffffffffffffff1661022b565b604080517f376bf262000000000000000000000000000000000000000000000000000000008152600481018481526024820192835283516044830152835173ffffffffffffffffffffffffffffffffffffffff87169363376bf262938793879390929160640190602085019080838360005b838110156101c15781810151838201526020016101a9565b50505050905090810190601f1680156101ee5780820380516001836020036101000a031916815260200191505b509350505050600060405180830381600087803b15801561020e57600080fd5b505af1158015610222573d6000803e3d6000fd5b50505050505050565b8073ffffffffffffffffffffffffffffffffffffffff1663d737d0c76040518163ffffffff1660e01b8152600401600060405180830381600087803b15801561027357600080fd5b505af1158015610287573d6000803e3d6000fd5b505050505056fea265627a7a72315820cb066fc0abc8e9c0a425f148eb0452fb86bf59d17a713fa68c0a990e27ba985564736f6c63430005100032",
  "linkReferences": {},
  "deployedLinkReferences": {}
}