{
  "_format": "hh-sol-artifact-1",
  "contractName": "EnumerableSetMock",
  "sourceName": "contracts/IDO_basedon_Openzeppelin/mocks/EnumerableSetMock.sol",
  "abi": [
    {
      "anonymous": false,
      "inputs": [
        {
          "indexed": false,
          "internalType": "bool",
          "name": "result",
          "type": "bool"
        }
      ],
      "name": "TransactionResult",
      "type": "event"
    },
    {
      "constant": false,
      "inputs": [
        {
          "internalType": "address",
          "name": "value",
          "type": "address"
        }
      ],
      "name": "add",
      "outputs": [],
      "payable": false,
      "stateMutability": "nonpayable",
      "type": "function"
    },
    {
      "constant": true,
      "inputs": [
        {
          "internalType": "address",
          "name": "value",
          "type": "address"
        }
      ],
      "name": "contains",
      "outputs": [
        {
          "internalType": "bool",
          "name": "",
          "type": "bool"
        }
      ],
      "payable": false,
      "stateMutability": "view",
      "type": "function"
    },
    {
      "constant": true,
      "inputs": [],
      "name": "enumerate",
      "outputs": [
        {
          "internalType": "address[]",
          "name": "",
          "type": "address[]"
        }
      ],
      "payable": false,
      "stateMutability": "view",
      "type": "function"
    },
    {
      "constant": true,
      "inputs": [
        {
          "internalType": "uint256",
          "name": "index",
          "type": "uint256"
        }
      ],
      "name": "get",
      "outputs": [
        {
          "internalType": "address",
          "name": "",
          "type": "address"
        }
      ],
      "payable": false,
      "stateMutability": "view",
      "type": "function"
    },
    {
      "constant": true,
      "inputs": [],
      "name": "length",
      "outputs": [
        {
          "internalType": "uint256",
          "name": "",
          "type": "uint256"
        }
      ],
      "payable": false,
      "stateMutability": "view",
      "type": "function"
    },
    {
      "constant": false,
      "inputs": [
        {
          "internalType": "address",
          "name": "value",
          "type": "address"
        }
      ],
      "name": "remove",
      "outputs": [],
      "payable": false,
      "stateMutability": "nonpayable",
      "type": "function"
    }
  ],
  "bytecode": "0x608060405234801561001057600080fd5b50610512806100206000396000f3fe608060405234801561001057600080fd5b50600436106100725760003560e01c80635dbe47e8116100505780635dbe47e8146100df5780639507d39a14610119578063ff9f78b31461015257610072565b80630a3b0a4f146100775780631f7b6d321461009f57806329092d0e146100b9575b600080fd5b61009d6004803603602081101561008d57600080fd5b50356001600160a01b03166101aa565b005b6100a76101f9565b60408051918252519081900360200190f35b61009d600480360360208110156100cf57600080fd5b50356001600160a01b031661020a565b610105600480360360208110156100f557600080fd5b50356001600160a01b031661021c565b604080519115158252519081900360200190f35b6101366004803603602081101561012f57600080fd5b5035610234565b604080516001600160a01b039092168252519081900360200190f35b61015a610246565b60408051602080825283518183015283519192839290830191858101910280838360005b8381101561019657818101518382015260200161017e565b505050509050019250505060405180910390f35b60006101bc818363ffffffff61025216565b60408051821515815290519192507f5f2d66b608a7b4bfa43b7e9ba385022741152c97499b8a8abcd5c27258417b5a919081900360200190a15050565b600061020560006102c0565b905090565b60006101bc818363ffffffff6102c716565b600061022e818363ffffffff6103ec16565b92915050565b600061022e818363ffffffff61040a16565b60606102056000610437565b600061025e83836103ec565b6102b757506001828101805480830180835560009283526020808420909201805473ffffffffffffffffffffffffffffffffffffffff19166001600160a01b03871690811790915583529085905260409091205561022e565b50600092915050565b6001015490565b60006102d383836103ec565b156102b7576001600160a01b0382166000908152602084905260409020546001840154600019918201910180821461038b57600085600101828154811061031657fe5b6000918252602090912001546001870180546001600160a01b03909216925082918590811061034157fe5b6000918252602080832091909101805473ffffffffffffffffffffffffffffffffffffffff19166001600160a01b0394851617905592909116815290869052604090206001830190555b6001600160a01b038416600090815260208690526040812055600185018054806103b157fe5b6000828152602090208101600019908101805473ffffffffffffffffffffffffffffffffffffffff19169055019055506001915061022e9050565b6001600160a01b031660009081526020919091526040902054151590565b600082600101828154811061041b57fe5b6000918252602090912001546001600160a01b03169392505050565b606080826001018054905060405190808252806020026020018201604052801561046b578160200160208202803883390190505b50905060005b60018401548110156104d65783600101818154811061048c57fe5b9060005260206000200160009054906101000a90046001600160a01b03168282815181106104b657fe5b6001600160a01b0390921660209283029190910190910152600101610471565b509291505056fea265627a7a72315820d951c72b742833d832bbc3c0f73ff927e400a3db049bff9e074178981c94dd2c64736f6c63430005100032",
  "linkReferences": {},
  "deployedLinkReferences": {}
}