{
  "_format": "hh-sol-artifact-1",
  "contractName": "GSNRecipientMock",
  "sourceName": "contracts/IDO_basedon_Openzeppelin/mocks/GSNRecipientMock.sol",
  "abi": [
    {
      "anonymous": false,
      "inputs": [
        {
          "indexed": false,
          "internalType": "bytes",
          "name": "data",
          "type": "bytes"
        },
        {
          "indexed": false,
          "internalType": "uint256",
          "name": "integerValue",
          "type": "uint256"
        },
        {
          "indexed": false,
          "internalType": "string",
          "name": "stringValue",
          "type": "string"
        }
      ],
      "name": "Data",
      "type": "event"
    },
    {
      "anonymous": false,
      "inputs": [
        {
          "indexed": true,
          "internalType": "address",
          "name": "oldRelayHub",
          "type": "address"
        },
        {
          "indexed": true,
          "internalType": "address",
          "name": "newRelayHub",
          "type": "address"
        }
      ],
      "name": "RelayHubChanged",
      "type": "event"
    },
    {
      "anonymous": false,
      "inputs": [
        {
          "indexed": false,
          "internalType": "address",
          "name": "sender",
          "type": "address"
        }
      ],
      "name": "Sender",
      "type": "event"
    },
    {
      "constant": true,
      "inputs": [
        {
          "internalType": "address",
          "name": "",
          "type": "address"
        },
        {
          "internalType": "address",
          "name": "",
          "type": "address"
        },
        {
          "internalType": "bytes",
          "name": "",
          "type": "bytes"
        },
        {
          "internalType": "uint256",
          "name": "",
          "type": "uint256"
        },
        {
          "internalType": "uint256",
          "name": "",
          "type": "uint256"
        },
        {
          "internalType": "uint256",
          "name": "",
          "type": "uint256"
        },
        {
          "internalType": "uint256",
          "name": "",
          "type": "uint256"
        },
        {
          "internalType": "bytes",
          "name": "",
          "type": "bytes"
        },
        {
          "internalType": "uint256",
          "name": "",
          "type": "uint256"
        }
      ],
      "name": "acceptRelayedCall",
      "outputs": [
        {
          "internalType": "uint256",
          "name": "",
          "type": "uint256"
        },
        {
          "internalType": "bytes",
          "name": "",
          "type": "bytes"
        }
      ],
      "payable": false,
      "stateMutability": "view",
      "type": "function"
    },
    {
      "constant": true,
      "inputs": [],
      "name": "getHubAddr",
      "outputs": [
        {
          "internalType": "address",
          "name": "",
          "type": "address"
        }
      ],
      "payable": false,
      "stateMutability": "view",
      "type": "function"
    },
    {
      "constant": false,
      "inputs": [
        {
          "internalType": "uint256",
          "name": "integerValue",
          "type": "uint256"
        },
        {
          "internalType": "string",
          "name": "stringValue",
          "type": "string"
        }
      ],
      "name": "msgData",
      "outputs": [],
      "payable": false,
      "stateMutability": "nonpayable",
      "type": "function"
    },
    {
      "constant": false,
      "inputs": [],
      "name": "msgSender",
      "outputs": [],
      "payable": false,
      "stateMutability": "nonpayable",
      "type": "function"
    },
    {
      "constant": false,
      "inputs": [
        {
          "internalType": "bytes",
          "name": "context",
          "type": "bytes"
        },
        {
          "internalType": "bool",
          "name": "success",
          "type": "bool"
        },
        {
          "internalType": "uint256",
          "name": "actualCharge",
          "type": "uint256"
        },
        {
          "internalType": "bytes32",
          "name": "preRetVal",
          "type": "bytes32"
        }
      ],
      "name": "postRelayedCall",
      "outputs": [],
      "payable": false,
      "stateMutability": "nonpayable",
      "type": "function"
    },
    {
      "constant": false,
      "inputs": [
        {
          "internalType": "bytes",
          "name": "context",
          "type": "bytes"
        }
      ],
      "name": "preRelayedCall",
      "outputs": [
        {
          "internalType": "bytes32",
          "name": "",
          "type": "bytes32"
        }
      ],
      "payable": false,
      "stateMutability": "nonpayable",
      "type": "function"
    },
    {
      "constant": true,
      "inputs": [],
      "name": "relayHubVersion",
      "outputs": [
        {
          "internalType": "string",
          "name": "",
          "type": "string"
        }
      ],
      "payable": false,
      "stateMutability": "view",
      "type": "function"
    },
    {
      "constant": false,
      "inputs": [
        {
          "internalType": "address",
          "name": "newRelayHub",
          "type": "address"
        }
      ],
      "name": "upgradeRelayHub",
      "outputs": [],
      "payable": false,
      "stateMutability": "nonpayable",
      "type": "function"
    },
    {
      "constant": false,
      "inputs": [
        {
          "internalType": "uint256",
          "name": "amount",
          "type": "uint256"
        },
        {
          "internalType": "address payable",
          "name": "payee",
          "type": "address"
        }
      ],
      "name": "withdrawDeposits",
      "outputs": [],
      "payable": false,
      "stateMutability": "nonpayable",
      "type": "function"
    }
  ],
  "bytecode": "0x6080604052600080546001600160a01b03191673d216153c06e857cd7f72665e0af1d7d82172f494179055610bb9806100396000396000f3fe608060405234801561001057600080fd5b50600436106100a35760003560e01c80639e30a59011610076578063c2db1abe1161005b578063c2db1abe14610411578063d737d0c71461043d578063e06e0e2214610445576100a3565b80639e30a5901461036e578063ad61ccd514610394576100a3565b8063376bf262146100a857806374e861d61461015757806380274db71461017b57806383947ea0146101fd575b600080fd5b610155600480360360408110156100be57600080fd5b813591908101906040810160208201356401000000008111156100e057600080fd5b8201836020820111156100f257600080fd5b8035906020019184600183028401116401000000008311171561011457600080fd5b91908080601f0160208091040260200160405190810160405280939291908181526020018383808284376000920191909152509295506104c3945050505050565b005b61015f6105d6565b604080516001600160a01b039092168252519081900360200190f35b6101eb6004803603602081101561019157600080fd5b8101906020810181356401000000008111156101ac57600080fd5b8201836020820111156101be57600080fd5b803590602001918460018302840111640100000000831117156101e057600080fd5b5090925090506105e6565b60408051918252519081900360200190f35b6102ef600480360361012081101561021457600080fd5b6001600160a01b03823581169260208101359091169181019060608101604082013564010000000081111561024857600080fd5b82018360208201111561025a57600080fd5b8035906020019184600183028401116401000000008311171561027c57600080fd5b9193909282359260208101359260408201359260608301359260a0810190608001356401000000008111156102b057600080fd5b8201836020820111156102c257600080fd5b803590602001918460018302840111640100000000831117156102e457600080fd5b919350915035610685565b6040518083815260200180602001828103825283818151815260200191508051906020019080838360005b8381101561033257818101518382015260200161031a565b50505050905090810190601f16801561035f5780820380516001836020036101000a031916815260200191505b50935050505060405180910390f35b6101556004803603602081101561038457600080fd5b50356001600160a01b03166106a6565b61039c6106b2565b6040805160208082528351818301528351919283929083019185019080838360005b838110156103d65781810151838201526020016103be565b50505050905090810190601f1680156104035780820380516001836020036101000a031916815260200191505b509250505060405180910390f35b6101556004803603604081101561042757600080fd5b50803590602001356001600160a01b03166106e9565b6101556106f7565b6101556004803603608081101561045b57600080fd5b81019060208101813564010000000081111561047657600080fd5b82018360208201111561048857600080fd5b803590602001918460018302840111640100000000831117156104aa57600080fd5b919350915080351515906020810135906040013561073d565b7faf235354a0a47c91ee171961326335cb2d1a8e55b8a89859b0e61eb049e50ea06104ec6107df565b8383604051808060200184815260200180602001838103835286818151815260200191508051906020019080838360005b8381101561053557818101518382015260200161051d565b50505050905090810190601f1680156105625780820380516001836020036101000a031916815260200191505b50838103825284518152845160209182019186019080838360005b8381101561059557818101518382015260200161057d565b50505050905090810190601f1680156105c25780820380516001836020036101000a031916815260200191505b509550505050505060405180910390a15050565b6000546001600160a01b03165b90565b60006105f06105d6565b6001600160a01b0316336001600160a01b03161461063f5760405162461bcd60e51b8152600401808060200182810382526024815260200180610b616024913960400191505060405180910390fd5b61067e83838080601f01602080910402602001604051908101604052809392919081815260200183838082843760009201919091525061084392505050565b9392505050565b60408051602081019091526000808252909b509b9950505050505050505050565b6106af81610849565b50565b60408051808201909152600581527f312e302e30000000000000000000000000000000000000000000000000000000602082015290565b6106f38282610961565b5050565b7fd6558c3ed910d959271054471fd1c326679d9fece99c5091b00ed89627cf2bfc6107206109e6565b604080516001600160a01b039092168252519081900360200190a1565b6107456105d6565b6001600160a01b0316336001600160a01b0316146107945760405162461bcd60e51b8152600401808060200182810382526024815260200180610b616024913960400191505060405180910390fd5b6107d885858080601f016020809104026020016040519081016040528093929190818152602001838380828437600092019190915250879250869150859050610a08565b5050505050565b6000546060906001600160a01b03163314610834576000368080601f0160208091040260200160405190810160405280939291908181526020018383808284376000920191909152509293506105e392505050565b61083c610a0e565b90506105e3565b50600090565b6000546001600160a01b039081169082166108955760405162461bcd60e51b815260040180806020018281038252602e815260200180610b06602e913960400191505060405180910390fd5b806001600160a01b0316826001600160a01b031614156108e65760405162461bcd60e51b815260040180806020018281038252602d815260200180610b34602d913960400191505060405180910390fd5b816001600160a01b0316816001600160a01b03167fb9f84b8e65164b14439ae3620df0a4d8786d896996c0282b683f9d8c08f046e860405160405180910390a350600080547fffffffffffffffffffffffff0000000000000000000000000000000000000000166001600160a01b0392909216919091179055565b60008054604080517ef714ce000000000000000000000000000000000000000000000000000000008152600481018690526001600160a01b0385811660248301529151919092169262f714ce926044808201939182900301818387803b1580156109ca57600080fd5b505af11580156109de573d6000803e3d6000fd5b505050505050565b600080546001600160a01b03163314610a005750336105e3565b61083c610ab8565b50505050565b60606000601460003690500390506060816040519080825280601f01601f191660200182016040528015610a49576020820181803883390190505b50905060005b82811015610ab15760003682818110610a6457fe5b9050013560f81c60f81b828281518110610a7a57fe5b60200101907effffffffffffffffffffffffffffffffffffffffffffffffffffffffffffff1916908160001a905350600101610a4f565b5091505090565b600060606000368080601f0160208091040260200160405190810160405280939291908181526020018383808284376000920191909152505050503601516001600160a01b03169291505056fe47534e526563697069656e743a206e65772052656c617948756220697320746865207a65726f206164647265737347534e526563697069656e743a206e65772052656c6179487562206973207468652063757272656e74206f6e6547534e526563697069656e743a2063616c6c6572206973206e6f742052656c6179487562a265627a7a723158203723e3d5f92385fb57845b3a50de2747494705cc47be527b1be7deeffaa2c0cb64736f6c63430005100032",
  "linkReferences": {},
  "deployedLinkReferences": {}
}