{
  "_format": "hh-sol-artifact-1",
  "contractName": "ERC20PausableMock",
  "sourceName": "contracts/IDO_basedon_Openzeppelin/mocks/ERC20PausableMock.sol",
  "abi": [
    {
      "inputs": [
        {
          "internalType": "address",
          "name": "initialAccount",
          "type": "address"
        },
        {
          "internalType": "uint256",
          "name": "initialBalance",
          "type": "uint256"
        }
      ],
      "payable": false,
      "stateMutability": "nonpayable",
      "type": "constructor"
    },
    {
      "anonymous": false,
      "inputs": [
        {
          "indexed": true,
          "internalType": "address",
          "name": "owner",
          "type": "address"
        },
        {
          "indexed": true,
          "internalType": "address",
          "name": "spender",
          "type": "address"
        },
        {
          "indexed": false,
          "internalType": "uint256",
          "name": "value",
          "type": "uint256"
        }
      ],
      "name": "Approval",
      "type": "event"
    },
    {
      "anonymous": false,
      "inputs": [
        {
          "indexed": false,
          "internalType": "address",
          "name": "account",
          "type": "address"
        }
      ],
      "name": "Paused",
      "type": "event"
    },
    {
      "anonymous": false,
      "inputs": [
        {
          "indexed": true,
          "internalType": "address",
          "name": "account",
          "type": "address"
        }
      ],
      "name": "PauserAdded",
      "type": "event"
    },
    {
      "anonymous": false,
      "inputs": [
        {
          "indexed": true,
          "internalType": "address",
          "name": "account",
          "type": "address"
        }
      ],
      "name": "PauserRemoved",
      "type": "event"
    },
    {
      "anonymous": false,
      "inputs": [
        {
          "indexed": true,
          "internalType": "address",
          "name": "from",
          "type": "address"
        },
        {
          "indexed": true,
          "internalType": "address",
          "name": "to",
          "type": "address"
        },
        {
          "indexed": false,
          "internalType": "uint256",
          "name": "value",
          "type": "uint256"
        }
      ],
      "name": "Transfer",
      "type": "event"
    },
    {
      "anonymous": false,
      "inputs": [
        {
          "indexed": false,
          "internalType": "address",
          "name": "account",
          "type": "address"
        }
      ],
      "name": "Unpaused",
      "type": "event"
    },
    {
      "constant": false,
      "inputs": [
        {
          "internalType": "address",
          "name": "account",
          "type": "address"
        }
      ],
      "name": "addPauser",
      "outputs": [],
      "payable": false,
      "stateMutability": "nonpayable",
      "type": "function"
    },
    {
      "constant": true,
      "inputs": [
        {
          "internalType": "address",
          "name": "owner",
          "type": "address"
        },
        {
          "internalType": "address",
          "name": "spender",
          "type": "address"
        }
      ],
      "name": "allowance",
      "outputs": [
        {
          "internalType": "uint256",
          "name": "",
          "type": "uint256"
        }
      ],
      "payable": false,
      "stateMutability": "view",
      "type": "function"
    },
    {
      "constant": false,
      "inputs": [
        {
          "internalType": "address",
          "name": "spender",
          "type": "address"
        },
        {
          "internalType": "uint256",
          "name": "value",
          "type": "uint256"
        }
      ],
      "name": "approve",
      "outputs": [
        {
          "internalType": "bool",
          "name": "",
          "type": "bool"
        }
      ],
      "payable": false,
      "stateMutability": "nonpayable",
      "type": "function"
    },
    {
      "constant": true,
      "inputs": [
        {
          "internalType": "address",
          "name": "account",
          "type": "address"
        }
      ],
      "name": "balanceOf",
      "outputs": [
        {
          "internalType": "uint256",
          "name": "",
          "type": "uint256"
        }
      ],
      "payable": false,
      "stateMutability": "view",
      "type": "function"
    },
    {
      "constant": false,
      "inputs": [
        {
          "internalType": "address",
          "name": "spender",
          "type": "address"
        },
        {
          "internalType": "uint256",
          "name": "subtractedValue",
          "type": "uint256"
        }
      ],
      "name": "decreaseAllowance",
      "outputs": [
        {
          "internalType": "bool",
          "name": "",
          "type": "bool"
        }
      ],
      "payable": false,
      "stateMutability": "nonpayable",
      "type": "function"
    },
    {
      "constant": false,
      "inputs": [
        {
          "internalType": "address",
          "name": "spender",
          "type": "address"
        },
        {
          "internalType": "uint256",
          "name": "addedValue",
          "type": "uint256"
        }
      ],
      "name": "increaseAllowance",
      "outputs": [
        {
          "internalType": "bool",
          "name": "",
          "type": "bool"
        }
      ],
      "payable": false,
      "stateMutability": "nonpayable",
      "type": "function"
    },
    {
      "constant": true,
      "inputs": [
        {
          "internalType": "address",
          "name": "account",
          "type": "address"
        }
      ],
      "name": "isPauser",
      "outputs": [
        {
          "internalType": "bool",
          "name": "",
          "type": "bool"
        }
      ],
      "payable": false,
      "stateMutability": "view",
      "type": "function"
    },
    {
      "constant": true,
      "inputs": [],
      "name": "onlyPauserMock",
      "outputs": [],
      "payable": false,
      "stateMutability": "view",
      "type": "function"
    },
    {
      "constant": false,
      "inputs": [],
      "name": "pause",
      "outputs": [],
      "payable": false,
      "stateMutability": "nonpayable",
      "type": "function"
    },
    {
      "constant": true,
      "inputs": [],
      "name": "paused",
      "outputs": [
        {
          "internalType": "bool",
          "name": "",
          "type": "bool"
        }
      ],
      "payable": false,
      "stateMutability": "view",
      "type": "function"
    },
    {
      "constant": false,
      "inputs": [
        {
          "internalType": "address",
          "name": "account",
          "type": "address"
        }
      ],
      "name": "removePauser",
      "outputs": [],
      "payable": false,
      "stateMutability": "nonpayable",
      "type": "function"
    },
    {
      "constant": false,
      "inputs": [],
      "name": "renouncePauser",
      "outputs": [],
      "payable": false,
      "stateMutability": "nonpayable",
      "type": "function"
    },
    {
      "constant": true,
      "inputs": [],
      "name": "totalSupply",
      "outputs": [
        {
          "internalType": "uint256",
          "name": "",
          "type": "uint256"
        }
      ],
      "payable": false,
      "stateMutability": "view",
      "type": "function"
    },
    {
      "constant": false,
      "inputs": [
        {
          "internalType": "address",
          "name": "to",
          "type": "address"
        },
        {
          "internalType": "uint256",
          "name": "value",
          "type": "uint256"
        }
      ],
      "name": "transfer",
      "outputs": [
        {
          "internalType": "bool",
          "name": "",
          "type": "bool"
        }
      ],
      "payable": false,
      "stateMutability": "nonpayable",
      "type": "function"
    },
    {
      "constant": false,
      "inputs": [
        {
          "internalType": "address",
          "name": "from",
          "type": "address"
        },
        {
          "internalType": "address",
          "name": "to",
          "type": "address"
        },
        {
          "internalType": "uint256",
          "name": "value",
          "type": "uint256"
        }
      ],
      "name": "transferFrom",
      "outputs": [
        {
          "internalType": "bool",
          "name": "",
          "type": "bool"
        }
      ],
      "payable": false,
      "stateMutability": "nonpayable",
      "type": "function"
    },
    {
      "constant": false,
      "inputs": [],
      "name": "unpause",
      "outputs": [],
      "payable": false,
      "stateMutability": "nonpayable",
      "type": "function"
    }
  ],
  "bytecode": "0x60806040523480156200001157600080fd5b506040516200136738038062001367833981810160405260408110156200003757600080fd5b50805160209091015162000066620000576001600160e01b036200008d16565b6001600160e01b036200009116565b6004805460ff191690556200008582826001600160e01b03620000e316565b50506200033c565b3390565b620000ac816003620001e460201b62000d681790919060201c565b6040516001600160a01b038216907f6719d08c1888103bea251a4ed56406bd0c3e69723c8a1686e017e7bbe159b6f890600090a250565b6001600160a01b0382166200013f576040805162461bcd60e51b815260206004820152601f60248201527f45524332303a206d696e7420746f20746865207a65726f206164647265737300604482015290519081900360640190fd5b6200015b816002546200027160201b62000cc61790919060201c565b6002556001600160a01b038216600090815260208181526040909120546200018e91839062000cc662000271821b17901c565b6001600160a01b0383166000818152602081815260408083209490945583518581529351929391927fddf252ad1be2c89b69c2b068fc378daa952ba7f163c4a11628f55a4df523b3ef9281900390910190a35050565b620001f982826001600160e01b03620002d316565b156200024c576040805162461bcd60e51b815260206004820152601f60248201527f526f6c65733a206163636f756e7420616c72656164792068617320726f6c6500604482015290519081900360640190fd5b6001600160a01b0316600090815260209190915260409020805460ff19166001179055565b600082820183811015620002cc576040805162461bcd60e51b815260206004820152601b60248201527f536166654d6174683a206164646974696f6e206f766572666c6f770000000000604482015290519081900360640190fd5b9392505050565b60006001600160a01b0382166200031c5760405162461bcd60e51b8152600401808060200182810382526022815260200180620013456022913960400191505060405180910390fd5b506001600160a01b03166000908152602091909152604090205460ff1690565b610ff9806200034c6000396000f3fe608060405234801561001057600080fd5b50600436106101005760003560e01c80636b2c0f55116100975780638456cb59116100665780638456cb591461027b578063a457c2d714610283578063a9059cbb146102af578063dd62ed3e146102db57610100565b80636b2c0f55146102015780636ef8d66d1461022757806370a082311461022f57806382dc1ec41461025557610100565b806339509351116100d3578063395093511461019f5780633f4ba83a146101cb57806346fbf68e146101d35780635c975abb146101f957610100565b8063095ea7b31461010557806318160ddd1461014557806323b872dd1461015f578063329daf9014610195575b600080fd5b6101316004803603604081101561011b57600080fd5b506001600160a01b038135169060200135610309565b604080519115158252519081900360200190f35b61014d610368565b60408051918252519081900360200190f35b6101316004803603606081101561017557600080fd5b506001600160a01b0381358116916020810135909116906040013561036e565b61019d6103cf565b005b610131600480360360408110156101b557600080fd5b506001600160a01b03813516906020013561041c565b61019d610474565b610131600480360360208110156101e957600080fd5b50356001600160a01b0316610561565b61013161057a565b61019d6004803603602081101561021757600080fd5b50356001600160a01b0316610583565b61019d61058f565b61014d6004803603602081101561024557600080fd5b50356001600160a01b031661059f565b61019d6004803603602081101561026b57600080fd5b50356001600160a01b03166105ba565b61019d610609565b6101316004803603604081101561029957600080fd5b506001600160a01b0381351690602001356106d0565b610131600480360360408110156102c557600080fd5b506001600160a01b038135169060200135610728565b61014d600480360360408110156102f157600080fd5b506001600160a01b0381358116916020013516610780565b60045460009060ff1615610357576040805162461bcd60e51b815260206004820152601060248201526f14185d5cd8589b194e881c185d5cd95960821b604482015290519081900360640190fd5b61036183836107ab565b9392505050565b60025490565b60045460009060ff16156103bc576040805162461bcd60e51b815260206004820152601060248201526f14185d5cd8589b194e881c185d5cd95960821b604482015290519081900360640190fd5b6103c78484846107c8565b949350505050565b6103df6103da610855565b610561565b61041a5760405162461bcd60e51b8152600401808060200182810382526030815260200180610e746030913960400191505060405180910390fd5b565b60045460009060ff161561046a576040805162461bcd60e51b815260206004820152601060248201526f14185d5cd8589b194e881c185d5cd95960821b604482015290519081900360640190fd5b6103618383610859565b61047f6103da610855565b6104ba5760405162461bcd60e51b8152600401808060200182810382526030815260200180610e746030913960400191505060405180910390fd5b60045460ff16610511576040805162461bcd60e51b815260206004820152601460248201527f5061757361626c653a206e6f7420706175736564000000000000000000000000604482015290519081900360640190fd5b6004805460ff191690557f5db9ee0a495bf2e6ff9c91a7834c1ba4fdd244a5e8aa4e537bd38aeae4b073aa610544610855565b604080516001600160a01b039092168252519081900360200190a1565b600061057460038363ffffffff6108ad16565b92915050565b60045460ff1690565b61058c81610914565b50565b61041a61059a610855565b610914565b6001600160a01b031660009081526020819052604090205490565b6105c56103da610855565b6106005760405162461bcd60e51b8152600401808060200182810382526030815260200180610e746030913960400191505060405180910390fd5b61058c8161091d565b6106146103da610855565b61064f5760405162461bcd60e51b8152600401808060200182810382526030815260200180610e746030913960400191505060405180910390fd5b60045460ff161561069a576040805162461bcd60e51b815260206004820152601060248201526f14185d5cd8589b194e881c185d5cd95960821b604482015290519081900360640190fd5b6004805460ff191660011790557f62e78cea01bee320cd4e420270b5ea74000d11b0c9f74754ebdbfc544b05a258610544610855565b60045460009060ff161561071e576040805162461bcd60e51b815260206004820152601060248201526f14185d5cd8589b194e881c185d5cd95960821b604482015290519081900360640190fd5b6103618383610965565b60045460009060ff1615610776576040805162461bcd60e51b815260206004820152601060248201526f14185d5cd8589b194e881c185d5cd95960821b604482015290519081900360640190fd5b61036183836109d3565b6001600160a01b03918216600090815260016020908152604080832093909416825291909152205490565b60006107bf6107b8610855565b84846109e7565b50600192915050565b60006107d5848484610ad3565b61084b846107e1610855565b61084685604051806060016040528060288152602001610f0d602891396001600160a01b038a1660009081526001602052604081209061081f610855565b6001600160a01b03168152602081019190915260400160002054919063ffffffff610c2f16565b6109e7565b5060019392505050565b3390565b60006107bf610866610855565b846108468560016000610877610855565b6001600160a01b03908116825260208083019390935260409182016000908120918c16815292529020549063ffffffff610cc616565b60006001600160a01b0382166108f45760405162461bcd60e51b8152600401808060200182810382526022815260200180610f356022913960400191505060405180910390fd5b506001600160a01b03166000908152602091909152604090205460ff1690565b61058c81610d20565b61092e60038263ffffffff610d6816565b6040516001600160a01b038216907f6719d08c1888103bea251a4ed56406bd0c3e69723c8a1686e017e7bbe159b6f890600090a250565b60006107bf610972610855565b8461084685604051806060016040528060258152602001610fa0602591396001600061099c610855565b6001600160a01b03908116825260208083019390935260409182016000908120918d1681529252902054919063ffffffff610c2f16565b60006107bf6109e0610855565b8484610ad3565b6001600160a01b038316610a2c5760405162461bcd60e51b8152600401808060200182810382526024815260200180610f7c6024913960400191505060405180910390fd5b6001600160a01b038216610a715760405162461bcd60e51b8152600401808060200182810382526022815260200180610ea46022913960400191505060405180910390fd5b6001600160a01b03808416600081815260016020908152604080832094871680845294825291829020859055815185815291517f8c5be1e5ebec7d5bd14f71427d1e84f3dd0314c0f7b2291e5b200ac8c7c3b9259281900390910190a3505050565b6001600160a01b038316610b185760405162461bcd60e51b8152600401808060200182810382526025815260200180610f576025913960400191505060405180910390fd5b6001600160a01b038216610b5d5760405162461bcd60e51b8152600401808060200182810382526023815260200180610e516023913960400191505060405180910390fd5b610ba081604051806060016040528060268152602001610ec6602691396001600160a01b038616600090815260208190526040902054919063ffffffff610c2f16565b6001600160a01b038085166000908152602081905260408082209390935590841681522054610bd5908263ffffffff610cc616565b6001600160a01b038084166000818152602081815260409182902094909455805185815290519193928716927fddf252ad1be2c89b69c2b068fc378daa952ba7f163c4a11628f55a4df523b3ef92918290030190a3505050565b60008184841115610cbe5760405162461bcd60e51b81526004018080602001828103825283818151815260200191508051906020019080838360005b83811015610c83578181015183820152602001610c6b565b50505050905090810190601f168015610cb05780820380516001836020036101000a031916815260200191505b509250505060405180910390fd5b505050900390565b600082820183811015610361576040805162461bcd60e51b815260206004820152601b60248201527f536166654d6174683a206164646974696f6e206f766572666c6f770000000000604482015290519081900360640190fd5b610d3160038263ffffffff610de916565b6040516001600160a01b038216907fcd265ebaf09df2871cc7bd4133404a235ba12eff2041bb89d9c714a2621c7c7e90600090a250565b610d7282826108ad565b15610dc4576040805162461bcd60e51b815260206004820152601f60248201527f526f6c65733a206163636f756e7420616c72656164792068617320726f6c6500604482015290519081900360640190fd5b6001600160a01b0316600090815260209190915260409020805460ff19166001179055565b610df382826108ad565b610e2e5760405162461bcd60e51b8152600401808060200182810382526021815260200180610eec6021913960400191505060405180910390fd5b6001600160a01b0316600090815260209190915260409020805460ff1916905556fe45524332303a207472616e7366657220746f20746865207a65726f2061646472657373506175736572526f6c653a2063616c6c657220646f6573206e6f742068617665207468652050617573657220726f6c6545524332303a20617070726f766520746f20746865207a65726f206164647265737345524332303a207472616e7366657220616d6f756e7420657863656564732062616c616e6365526f6c65733a206163636f756e7420646f6573206e6f74206861766520726f6c6545524332303a207472616e7366657220616d6f756e74206578636565647320616c6c6f77616e6365526f6c65733a206163636f756e7420697320746865207a65726f206164647265737345524332303a207472616e736665722066726f6d20746865207a65726f206164647265737345524332303a20617070726f76652066726f6d20746865207a65726f206164647265737345524332303a2064656372656173656420616c6c6f77616e63652062656c6f77207a65726fa265627a7a7231582040a6f379ab88b5116f8894583a39ad28838392963f1d5431f5d7c250030aeeff64736f6c63430005100032526f6c65733a206163636f756e7420697320746865207a65726f2061646472657373",
  "linkReferences": {},
  "deployedLinkReferences": {}
}