{
  "_format": "hh-sol-artifact-1",
  "contractName": "ERC20MintableMock",
  "sourceName": "contracts/IDO_basedon_Openzeppelin/mocks/ERC20MintableMock.sol",
  "abi": [
    {
      "anonymous": false,
      "inputs": [
        {
          "indexed": true,
          "internalType": "address",
          "name": "owner",
          "type": "address"
        },
        {
          "indexed": true,
          "internalType": "address",
          "name": "spender",
          "type": "address"
        },
        {
          "indexed": false,
          "internalType": "uint256",
          "name": "value",
          "type": "uint256"
        }
      ],
      "name": "Approval",
      "type": "event"
    },
    {
      "anonymous": false,
      "inputs": [
        {
          "indexed": true,
          "internalType": "address",
          "name": "account",
          "type": "address"
        }
      ],
      "name": "MinterAdded",
      "type": "event"
    },
    {
      "anonymous": false,
      "inputs": [
        {
          "indexed": true,
          "internalType": "address",
          "name": "account",
          "type": "address"
        }
      ],
      "name": "MinterRemoved",
      "type": "event"
    },
    {
      "anonymous": false,
      "inputs": [
        {
          "indexed": true,
          "internalType": "address",
          "name": "from",
          "type": "address"
        },
        {
          "indexed": true,
          "internalType": "address",
          "name": "to",
          "type": "address"
        },
        {
          "indexed": false,
          "internalType": "uint256",
          "name": "value",
          "type": "uint256"
        }
      ],
      "name": "Transfer",
      "type": "event"
    },
    {
      "constant": false,
      "inputs": [
        {
          "internalType": "address",
          "name": "account",
          "type": "address"
        }
      ],
      "name": "addMinter",
      "outputs": [],
      "payable": false,
      "stateMutability": "nonpayable",
      "type": "function"
    },
    {
      "constant": true,
      "inputs": [
        {
          "internalType": "address",
          "name": "owner",
          "type": "address"
        },
        {
          "internalType": "address",
          "name": "spender",
          "type": "address"
        }
      ],
      "name": "allowance",
      "outputs": [
        {
          "internalType": "uint256",
          "name": "",
          "type": "uint256"
        }
      ],
      "payable": false,
      "stateMutability": "view",
      "type": "function"
    },
    {
      "constant": false,
      "inputs": [
        {
          "internalType": "address",
          "name": "spender",
          "type": "address"
        },
        {
          "internalType": "uint256",
          "name": "amount",
          "type": "uint256"
        }
      ],
      "name": "approve",
      "outputs": [
        {
          "internalType": "bool",
          "name": "",
          "type": "bool"
        }
      ],
      "payable": false,
      "stateMutability": "nonpayable",
      "type": "function"
    },
    {
      "constant": true,
      "inputs": [
        {
          "internalType": "address",
          "name": "account",
          "type": "address"
        }
      ],
      "name": "balanceOf",
      "outputs": [
        {
          "internalType": "uint256",
          "name": "",
          "type": "uint256"
        }
      ],
      "payable": false,
      "stateMutability": "view",
      "type": "function"
    },
    {
      "constant": false,
      "inputs": [
        {
          "internalType": "address",
          "name": "spender",
          "type": "address"
        },
        {
          "internalType": "uint256",
          "name": "subtractedValue",
          "type": "uint256"
        }
      ],
      "name": "decreaseAllowance",
      "outputs": [
        {
          "internalType": "bool",
          "name": "",
          "type": "bool"
        }
      ],
      "payable": false,
      "stateMutability": "nonpayable",
      "type": "function"
    },
    {
      "constant": false,
      "inputs": [
        {
          "internalType": "address",
          "name": "spender",
          "type": "address"
        },
        {
          "internalType": "uint256",
          "name": "addedValue",
          "type": "uint256"
        }
      ],
      "name": "increaseAllowance",
      "outputs": [
        {
          "internalType": "bool",
          "name": "",
          "type": "bool"
        }
      ],
      "payable": false,
      "stateMutability": "nonpayable",
      "type": "function"
    },
    {
      "constant": true,
      "inputs": [
        {
          "internalType": "address",
          "name": "account",
          "type": "address"
        }
      ],
      "name": "isMinter",
      "outputs": [
        {
          "internalType": "bool",
          "name": "",
          "type": "bool"
        }
      ],
      "payable": false,
      "stateMutability": "view",
      "type": "function"
    },
    {
      "constant": false,
      "inputs": [
        {
          "internalType": "address",
          "name": "account",
          "type": "address"
        },
        {
          "internalType": "uint256",
          "name": "amount",
          "type": "uint256"
        }
      ],
      "name": "mint",
      "outputs": [
        {
          "internalType": "bool",
          "name": "",
          "type": "bool"
        }
      ],
      "payable": false,
      "stateMutability": "nonpayable",
      "type": "function"
    },
    {
      "constant": true,
      "inputs": [],
      "name": "onlyMinterMock",
      "outputs": [],
      "payable": false,
      "stateMutability": "view",
      "type": "function"
    },
    {
      "constant": false,
      "inputs": [
        {
          "internalType": "address",
          "name": "account",
          "type": "address"
        }
      ],
      "name": "removeMinter",
      "outputs": [],
      "payable": false,
      "stateMutability": "nonpayable",
      "type": "function"
    },
    {
      "constant": false,
      "inputs": [],
      "name": "renounceMinter",
      "outputs": [],
      "payable": false,
      "stateMutability": "nonpayable",
      "type": "function"
    },
    {
      "constant": true,
      "inputs": [],
      "name": "totalSupply",
      "outputs": [
        {
          "internalType": "uint256",
          "name": "",
          "type": "uint256"
        }
      ],
      "payable": false,
      "stateMutability": "view",
      "type": "function"
    },
    {
      "constant": false,
      "inputs": [
        {
          "internalType": "address",
          "name": "recipient",
          "type": "address"
        },
        {
          "internalType": "uint256",
          "name": "amount",
          "type": "uint256"
        }
      ],
      "name": "transfer",
      "outputs": [
        {
          "internalType": "bool",
          "name": "",
          "type": "bool"
        }
      ],
      "payable": false,
      "stateMutability": "nonpayable",
      "type": "function"
    },
    {
      "constant": false,
      "inputs": [
        {
          "internalType": "address",
          "name": "sender",
          "type": "address"
        },
        {
          "internalType": "address",
          "name": "recipient",
          "type": "address"
        },
        {
          "internalType": "uint256",
          "name": "amount",
          "type": "uint256"
        }
      ],
      "name": "transferFrom",
      "outputs": [
        {
          "internalType": "bool",
          "name": "",
          "type": "bool"
        }
      ],
      "payable": false,
      "stateMutability": "nonpayable",
      "type": "function"
    }
  ],
  "bytecode": "0x60806040526100266100186001600160e01b0361002b16565b6001600160e01b0361002f16565b61016f565b3390565b61004781600361007e60201b610b2a1790919060201c565b6040516001600160a01b038216907f6ae172837ea30b801fbfcdd4108aa1d5bf8ff775444fd70256b44e6bf3dfc3f690600090a250565b61009182826001600160e01b0361010816565b156100e3576040805162461bcd60e51b815260206004820152601f60248201527f526f6c65733a206163636f756e7420616c72656164792068617320726f6c6500604482015290519081900360640190fd5b6001600160a01b0316600090815260209190915260409020805460ff19166001179055565b60006001600160a01b03821661014f5760405162461bcd60e51b8152600401808060200182810382526022815260200180610f396022913960400191505060405180910390fd5b506001600160a01b03166000908152602091909152604090205460ff1690565b610dbb8061017e6000396000f3fe608060405234801561001057600080fd5b50600436106100ea5760003560e01c8063983b2d561161008c578063a9059cbb11610066578063a9059cbb1461027f578063aa271e1a146102ab578063b5dba35b146102d1578063dd62ed3e146102d9576100ea565b8063983b2d5614610225578063986502751461024b578063a457c2d714610253576100ea565b80633092afd5116100c85780633092afd51461017f57806339509351146101a757806340c10f19146101d357806370a08231146101ff576100ea565b8063095ea7b3146100ef57806318160ddd1461012f57806323b872dd14610149575b600080fd5b61011b6004803603604081101561010557600080fd5b506001600160a01b038135169060200135610307565b604080519115158252519081900360200190f35b610137610324565b60408051918252519081900360200190f35b61011b6004803603606081101561015f57600080fd5b506001600160a01b0381358116916020810135909116906040013561032a565b6101a56004803603602081101561019557600080fd5b50356001600160a01b03166103b7565b005b61011b600480360360408110156101bd57600080fd5b506001600160a01b0381351690602001356103c3565b61011b600480360360408110156101e957600080fd5b506001600160a01b038135169060200135610417565b6101376004803603602081101561021557600080fd5b50356001600160a01b031661046e565b6101a56004803603602081101561023b57600080fd5b50356001600160a01b0316610489565b6101a56104d8565b61011b6004803603604081101561026957600080fd5b506001600160a01b0381351690602001356104ea565b61011b6004803603604081101561029557600080fd5b506001600160a01b038135169060200135610558565b61011b600480360360208110156102c157600080fd5b50356001600160a01b031661056c565b6101a5610585565b610137600480360360408110156102ef57600080fd5b506001600160a01b03813581169160200135166105cb565b600061031b6103146105f6565b84846105fa565b50600192915050565b60025490565b60006103378484846106e6565b6103ad846103436105f6565b6103a885604051806060016040528060288152602001610ccf602891396001600160a01b038a166000908152600160205260408120906103816105f6565b6001600160a01b03168152602081019190915260400160002054919063ffffffff61084216565b6105fa565b5060019392505050565b6103c0816108d9565b50565b600061031b6103d06105f6565b846103a885600160006103e16105f6565b6001600160a01b03908116825260208083019390935260409182016000908120918c16815292529020549063ffffffff6108e216565b60006104296104246105f6565b61056c565b6104645760405162461bcd60e51b8152600401808060200182810382526030815260200180610c7e6030913960400191505060405180910390fd5b61031b8383610943565b6001600160a01b031660009081526020819052604090205490565b6104946104246105f6565b6104cf5760405162461bcd60e51b8152600401808060200182810382526030815260200180610c7e6030913960400191505060405180910390fd5b6103c081610a33565b6104e86104e36105f6565b6108d9565b565b600061031b6104f76105f6565b846103a885604051806060016040528060258152602001610d6260259139600160006105216105f6565b6001600160a01b03908116825260208083019390935260409182016000908120918d1681529252902054919063ffffffff61084216565b600061031b6105656105f6565b84846106e6565b600061057f60038363ffffffff610a7b16565b92915050565b6105906104246105f6565b6104e85760405162461bcd60e51b8152600401808060200182810382526030815260200180610c7e6030913960400191505060405180910390fd5b6001600160a01b03918216600090815260016020908152604080832093909416825291909152205490565b3390565b6001600160a01b03831661063f5760405162461bcd60e51b8152600401808060200182810382526024815260200180610d3e6024913960400191505060405180910390fd5b6001600160a01b0382166106845760405162461bcd60e51b8152600401808060200182810382526022815260200180610c366022913960400191505060405180910390fd5b6001600160a01b03808416600081815260016020908152604080832094871680845294825291829020859055815185815291517f8c5be1e5ebec7d5bd14f71427d1e84f3dd0314c0f7b2291e5b200ac8c7c3b9259281900390910190a3505050565b6001600160a01b03831661072b5760405162461bcd60e51b8152600401808060200182810382526025815260200180610d196025913960400191505060405180910390fd5b6001600160a01b0382166107705760405162461bcd60e51b8152600401808060200182810382526023815260200180610c136023913960400191505060405180910390fd5b6107b381604051806060016040528060268152602001610c58602691396001600160a01b038616600090815260208190526040902054919063ffffffff61084216565b6001600160a01b0380851660009081526020819052604080822093909355908416815220546107e8908263ffffffff6108e216565b6001600160a01b038084166000818152602081815260409182902094909455805185815290519193928716927fddf252ad1be2c89b69c2b068fc378daa952ba7f163c4a11628f55a4df523b3ef92918290030190a3505050565b600081848411156108d15760405162461bcd60e51b81526004018080602001828103825283818151815260200191508051906020019080838360005b8381101561089657818101518382015260200161087e565b50505050905090810190601f1680156108c35780820380516001836020036101000a031916815260200191505b509250505060405180910390fd5b505050900390565b6103c081610ae2565b60008282018381101561093c576040805162461bcd60e51b815260206004820152601b60248201527f536166654d6174683a206164646974696f6e206f766572666c6f770000000000604482015290519081900360640190fd5b9392505050565b6001600160a01b03821661099e576040805162461bcd60e51b815260206004820152601f60248201527f45524332303a206d696e7420746f20746865207a65726f206164647265737300604482015290519081900360640190fd5b6002546109b1908263ffffffff6108e216565b6002556001600160a01b0382166000908152602081905260409020546109dd908263ffffffff6108e216565b6001600160a01b0383166000818152602081815260408083209490945583518581529351929391927fddf252ad1be2c89b69c2b068fc378daa952ba7f163c4a11628f55a4df523b3ef9281900390910190a35050565b610a4460038263ffffffff610b2a16565b6040516001600160a01b038216907f6ae172837ea30b801fbfcdd4108aa1d5bf8ff775444fd70256b44e6bf3dfc3f690600090a250565b60006001600160a01b038216610ac25760405162461bcd60e51b8152600401808060200182810382526022815260200180610cf76022913960400191505060405180910390fd5b506001600160a01b03166000908152602091909152604090205460ff1690565b610af360038263ffffffff610bab16565b6040516001600160a01b038216907fe94479a9f7e1952cc78f2d6baab678adc1b772d936c6583def489e524cb6669290600090a250565b610b348282610a7b565b15610b86576040805162461bcd60e51b815260206004820152601f60248201527f526f6c65733a206163636f756e7420616c72656164792068617320726f6c6500604482015290519081900360640190fd5b6001600160a01b0316600090815260209190915260409020805460ff19166001179055565b610bb58282610a7b565b610bf05760405162461bcd60e51b8152600401808060200182810382526021815260200180610cae6021913960400191505060405180910390fd5b6001600160a01b0316600090815260209190915260409020805460ff1916905556fe45524332303a207472616e7366657220746f20746865207a65726f206164647265737345524332303a20617070726f766520746f20746865207a65726f206164647265737345524332303a207472616e7366657220616d6f756e7420657863656564732062616c616e63654d696e746572526f6c653a2063616c6c657220646f6573206e6f74206861766520746865204d696e74657220726f6c65526f6c65733a206163636f756e7420646f6573206e6f74206861766520726f6c6545524332303a207472616e7366657220616d6f756e74206578636565647320616c6c6f77616e6365526f6c65733a206163636f756e7420697320746865207a65726f206164647265737345524332303a207472616e736665722066726f6d20746865207a65726f206164647265737345524332303a20617070726f76652066726f6d20746865207a65726f206164647265737345524332303a2064656372656173656420616c6c6f77616e63652062656c6f77207a65726fa265627a7a72315820100d957f448a83fda241369075222035394bfcda247f8616b6c7011753b43fa764736f6c63430005100032526f6c65733a206163636f756e7420697320746865207a65726f2061646472657373",
  "linkReferences": {},
  "deployedLinkReferences": {}
}