{
  "_format": "hh-sol-artifact-1",
  "contractName": "ERC777SenderRecipientMock",
  "sourceName": "contracts/IDO_basedon_Openzeppelin/mocks/ERC777SenderRecipientMock.sol",
  "abi": [
    {
      "anonymous": false,
      "inputs": [
        {
          "indexed": false,
          "internalType": "address",
          "name": "operator",
          "type": "address"
        },
        {
          "indexed": false,
          "internalType": "address",
          "name": "from",
          "type": "address"
        },
        {
          "indexed": false,
          "internalType": "address",
          "name": "to",
          "type": "address"
        },
        {
          "indexed": false,
          "internalType": "uint256",
          "name": "amount",
          "type": "uint256"
        },
        {
          "indexed": false,
          "internalType": "bytes",
          "name": "data",
          "type": "bytes"
        },
        {
          "indexed": false,
          "internalType": "bytes",
          "name": "operatorData",
          "type": "bytes"
        },
        {
          "indexed": false,
          "internalType": "address",
          "name": "token",
          "type": "address"
        },
        {
          "indexed": false,
          "internalType": "uint256",
          "name": "fromBalance",
          "type": "uint256"
        },
        {
          "indexed": false,
          "internalType": "uint256",
          "name": "toBalance",
          "type": "uint256"
        }
      ],
      "name": "TokensReceivedCalled",
      "type": "event"
    },
    {
      "anonymous": false,
      "inputs": [
        {
          "indexed": false,
          "internalType": "address",
          "name": "operator",
          "type": "address"
        },
        {
          "indexed": false,
          "internalType": "address",
          "name": "from",
          "type": "address"
        },
        {
          "indexed": false,
          "internalType": "address",
          "name": "to",
          "type": "address"
        },
        {
          "indexed": false,
          "internalType": "uint256",
          "name": "amount",
          "type": "uint256"
        },
        {
          "indexed": false,
          "internalType": "bytes",
          "name": "data",
          "type": "bytes"
        },
        {
          "indexed": false,
          "internalType": "bytes",
          "name": "operatorData",
          "type": "bytes"
        },
        {
          "indexed": false,
          "internalType": "address",
          "name": "token",
          "type": "address"
        },
        {
          "indexed": false,
          "internalType": "uint256",
          "name": "fromBalance",
          "type": "uint256"
        },
        {
          "indexed": false,
          "internalType": "uint256",
          "name": "toBalance",
          "type": "uint256"
        }
      ],
      "name": "TokensToSendCalled",
      "type": "event"
    },
    {
      "constant": false,
      "inputs": [
        {
          "internalType": "contract IERC777",
          "name": "token",
          "type": "address"
        },
        {
          "internalType": "uint256",
          "name": "amount",
          "type": "uint256"
        },
        {
          "internalType": "bytes",
          "name": "data",
          "type": "bytes"
        }
      ],
      "name": "burn",
      "outputs": [],
      "payable": false,
      "stateMutability": "nonpayable",
      "type": "function"
    },
    {
      "constant": true,
      "inputs": [
        {
          "internalType": "bytes32",
          "name": "interfaceHash",
          "type": "bytes32"
        },
        {
          "internalType": "address",
          "name": "account",
          "type": "address"
        }
      ],
      "name": "canImplementInterfaceForAddress",
      "outputs": [
        {
          "internalType": "bytes32",
          "name": "",
          "type": "bytes32"
        }
      ],
      "payable": false,
      "stateMutability": "view",
      "type": "function"
    },
    {
      "constant": false,
      "inputs": [
        {
          "internalType": "address",
          "name": "account",
          "type": "address"
        }
      ],
      "name": "recipientFor",
      "outputs": [],
      "payable": false,
      "stateMutability": "nonpayable",
      "type": "function"
    },
    {
      "constant": false,
      "inputs": [
        {
          "internalType": "address",
          "name": "recipient",
          "type": "address"
        }
      ],
      "name": "registerRecipient",
      "outputs": [],
      "payable": false,
      "stateMutability": "nonpayable",
      "type": "function"
    },
    {
      "constant": false,
      "inputs": [
        {
          "internalType": "address",
          "name": "sender",
          "type": "address"
        }
      ],
      "name": "registerSender",
      "outputs": [],
      "payable": false,
      "stateMutability": "nonpayable",
      "type": "function"
    },
    {
      "constant": false,
      "inputs": [
        {
          "internalType": "contract IERC777",
          "name": "token",
          "type": "address"
        },
        {
          "internalType": "address",
          "name": "to",
          "type": "address"
        },
        {
          "internalType": "uint256",
          "name": "amount",
          "type": "uint256"
        },
        {
          "internalType": "bytes",
          "name": "data",
          "type": "bytes"
        }
      ],
      "name": "send",
      "outputs": [],
      "payable": false,
      "stateMutability": "nonpayable",
      "type": "function"
    },
    {
      "constant": false,
      "inputs": [
        {
          "internalType": "address",
          "name": "account",
          "type": "address"
        }
      ],
      "name": "senderFor",
      "outputs": [],
      "payable": false,
      "stateMutability": "nonpayable",
      "type": "function"
    },
    {
      "constant": false,
      "inputs": [
        {
          "internalType": "bool",
          "name": "shouldRevert",
          "type": "bool"
        }
      ],
      "name": "setShouldRevertReceive",
      "outputs": [],
      "payable": false,
      "stateMutability": "nonpayable",
      "type": "function"
    },
    {
      "constant": false,
      "inputs": [
        {
          "internalType": "bool",
          "name": "shouldRevert",
          "type": "bool"
        }
      ],
      "name": "setShouldRevertSend",
      "outputs": [],
      "payable": false,
      "stateMutability": "nonpayable",
      "type": "function"
    },
    {
      "constant": false,
      "inputs": [
        {
          "internalType": "address",
          "name": "operator",
          "type": "address"
        },
        {
          "internalType": "address",
          "name": "from",
          "type": "address"
        },
        {
          "internalType": "address",
          "name": "to",
          "type": "address"
        },
        {
          "internalType": "uint256",
          "name": "amount",
          "type": "uint256"
        },
        {
          "internalType": "bytes",
          "name": "userData",
          "type": "bytes"
        },
        {
          "internalType": "bytes",
          "name": "operatorData",
          "type": "bytes"
        }
      ],
      "name": "tokensReceived",
      "outputs": [],
      "payable": false,
      "stateMutability": "nonpayable",
      "type": "function"
    },
    {
      "constant": false,
      "inputs": [
        {
          "internalType": "address",
          "name": "operator",
          "type": "address"
        },
        {
          "internalType": "address",
          "name": "from",
          "type": "address"
        },
        {
          "internalType": "address",
          "name": "to",
          "type": "address"
        },
        {
          "internalType": "uint256",
          "name": "amount",
          "type": "uint256"
        },
        {
          "internalType": "bytes",
          "name": "userData",
          "type": "bytes"
        },
        {
          "internalType": "bytes",
          "name": "operatorData",
          "type": "bytes"
        }
      ],
      "name": "tokensToSend",
      "outputs": [],
      "payable": false,
      "stateMutability": "nonpayable",
      "type": "function"
    }
  ],
  "bytecode": "0x60806040526001805462010000600160b01b031916751820a4b7618bde71dce8cdc73aab6c95905fad240000179055610e2f8061003d6000396000f3fe608060405234801561001057600080fd5b50600436106100c85760003560e01c806375ab978211610081578063d2de64741161005b578063d2de6474146104c6578063e0eb2180146104ec578063e1ecbd3014610512576100c8565b806375ab978214610397578063a8badaa514610481578063c97e18fc146104a7576100c8565b80633836ef89116100b25780633836ef89146101f757806344d17187146102bd5780634e4ae5a514610378576100c8565b806223de29146100cd578063249cb3fa146101b9575b600080fd5b6101b7600480360360c08110156100e357600080fd5b6001600160a01b03823581169260208101358216926040820135909216916060820135919081019060a08101608082013564010000000081111561012657600080fd5b82018360208201111561013857600080fd5b8035906020019184600183028401116401000000008311171561015a57600080fd5b91939092909160208101903564010000000081111561017857600080fd5b82018360208201111561018a57600080fd5b803590602001918460018302840111640100000000831117156101ac57600080fd5b509092509050610538565b005b6101e5600480360360408110156101cf57600080fd5b50803590602001356001600160a01b0316610750565b60408051918252519081900360200190f35b6101b76004803603608081101561020d57600080fd5b6001600160a01b0382358116926020810135909116916040820135919081019060808101606082013564010000000081111561024857600080fd5b82018360208201111561025a57600080fd5b8035906020019184600183028401116401000000008311171561027c57600080fd5b91908080601f0160208091040260200160405190810160405280939291908181526020018383808284376000920191909152509295506107ce945050505050565b6101b7600480360360608110156102d357600080fd5b6001600160a01b038235169160208101359181019060608101604082013564010000000081111561030357600080fd5b82018360208201111561031557600080fd5b8035906020019184600183028401116401000000008311171561033757600080fd5b91908080601f0160208091040260200160405190810160405280939291908181526020018383808284376000920191909152509295506108b6945050505050565b6101b76004803603602081101561038e57600080fd5b5035151561099d565b6101b7600480360360c08110156103ad57600080fd5b6001600160a01b03823581169260208101358216926040820135909216916060820135919081019060a0810160808201356401000000008111156103f057600080fd5b82018360208201111561040257600080fd5b8035906020019184600183028401116401000000008311171561042457600080fd5b91939092909160208101903564010000000081111561044257600080fd5b82018360208201111561045457600080fd5b8035906020019184600183028401116401000000008311171561047657600080fd5b5090925090506109b0565b6101b76004803603602081101561049757600080fd5b50356001600160a01b0316610bc3565b6101b7600480360360208110156104bd57600080fd5b50351515610c6d565b6101b7600480360360208110156104dc57600080fd5b50356001600160a01b0316610c87565b6101b76004803603602081101561050257600080fd5b50356001600160a01b0316610ce2565b6101b76004803603602081101561052857600080fd5b50356001600160a01b0316610d39565b600154610100900460ff161561054d57600080fd5b6000610557610dc8565b90506000816001600160a01b03166370a082318a6040518263ffffffff1660e01b815260040180826001600160a01b03166001600160a01b0316815260200191505060206040518083038186803b1580156105b157600080fd5b505afa1580156105c5573d6000803e3d6000fd5b505050506040513d60208110156105db57600080fd5b5051604080516370a0823160e01b81526001600160a01b038b811660048301529151929350600092918516916370a0823191602480820192602092909190829003018186803b15801561062d57600080fd5b505afa158015610641573d6000803e3d6000fd5b505050506040513d602081101561065757600080fd5b5051604080516001600160a01b03808f168252808e166020830152808d1692820192909252606081018b905290851660c082015260e081018490526101008101829052610120608082018181529082018990529192507f47e915878c47f3ec4d7ff646a2becb229f64fd2abe4d2b5e2bb4275b0cf50d4e918d918d918d918d918d918d918d918d918d918d918d919060a0820161014083018a8a80828437600083820152601f01601f191690910184810383528881526020019050888880828437600083820152604051601f909101601f19169092018290039f50909d5050505050505050505050505050a15050505050505050505050565b6000828152602081815260408083206001600160a01b038516845290915281205460ff1661077f5760006107c7565b60405160200180807f455243313832305f4143434550545f4d414749430000000000000000000000008152506014019050604051602081830303815290604052805190602001205b9392505050565b836001600160a01b0316639bd9bbc68484846040518463ffffffff1660e01b815260040180846001600160a01b03166001600160a01b0316815260200183815260200180602001828103825283818151815260200191508051906020019080838360005b8381101561084a578181015183820152602001610832565b50505050905090810190601f1680156108775780820380516001836020036101000a031916815260200191505b50945050505050600060405180830381600087803b15801561089857600080fd5b505af11580156108ac573d6000803e3d6000fd5b5050505050505050565b604080517ffe9d930300000000000000000000000000000000000000000000000000000000815260048101848152602482019283528351604483015283516001600160a01b0387169363fe9d9303938793879390929160640190602085019080838360005b8381101561093357818101518382015260200161091b565b50505050905090810190601f1680156109605780820380516001836020036101000a031916815260200191505b509350505050600060405180830381600087803b15801561098057600080fd5b505af1158015610994573d6000803e3d6000fd5b50505050505050565b6001805460ff1916911515919091179055565b60015460ff16156109c057600080fd5b60006109ca610dc8565b90506000816001600160a01b03166370a082318a6040518263ffffffff1660e01b815260040180826001600160a01b03166001600160a01b0316815260200191505060206040518083038186803b158015610a2457600080fd5b505afa158015610a38573d6000803e3d6000fd5b505050506040513d6020811015610a4e57600080fd5b5051604080516370a0823160e01b81526001600160a01b038b811660048301529151929350600092918516916370a0823191602480820192602092909190829003018186803b158015610aa057600080fd5b505afa158015610ab4573d6000803e3d6000fd5b505050506040513d6020811015610aca57600080fd5b5051604080516001600160a01b03808f168252808e166020830152808d1692820192909252606081018b905290851660c082015260e081018490526101008101829052610120608082018181529082018990529192507faa3e88aca472e90221daf7d3d601abafb62b120319089d7a2c2f63588da85529918d918d918d918d918d918d918d918d918d918d918d919060a0820161014083018a8a80828437600083820152601f01601f191690910184810383528881526020019050888880828437600083820152604051601f909101601f19169092018290039f50909d5050505050505050505050505050a15050505050505050505050565b600154604080517f455243373737546f6b656e73526563697069656e740000000000000000000000815281519081900360150181206329965a1d60e01b825230600483015260248201526001600160a01b03848116604483015291516201000090930491909116916329965a1d9160648082019260009290919082900301818387803b158015610c5257600080fd5b505af1158015610c66573d6000803e3d6000fd5b5050505050565b600180549115156101000261ff0019909216919091179055565b604080517f455243373737546f6b656e7353656e646572000000000000000000000000000081529051908190036012019020610cc39082610dcc565b306001600160a01b038216811415610cde57610cde81610d39565b5050565b604080517f455243373737546f6b656e73526563697069656e74000000000000000000000081529051908190036015019020610d1e9082610dcc565b306001600160a01b038216811415610cde57610cde81610bc3565b600154604080517f455243373737546f6b656e7353656e6465720000000000000000000000000000815281519081900360120181206329965a1d60e01b825230600483015260248201526001600160a01b03848116604483015291516201000090930491909116916329965a1d9160648082019260009290919082900301818387803b158015610c5257600080fd5b3390565b6000918252602082815260408084206001600160a01b0390931684529190529020805460ff1916600117905556fea265627a7a72315820aa307c747965fc025ea10bc12a3e235b689eade8481601b3a3e34a4af1047bfc64736f6c63430005100032",
  "linkReferences": {},
  "deployedLinkReferences": {}
}