{
  "_format": "hh-sol-artifact-1",
  "contractName": "WhitelistedRoleMock",
  "sourceName": "contracts/IDO_basedon_Openzeppelin/mocks/WhitelistedRoleMock.sol",
  "abi": [
    {
      "anonymous": false,
      "inputs": [
        {
          "indexed": true,
          "internalType": "address",
          "name": "account",
          "type": "address"
        }
      ],
      "name": "WhitelistAdminAdded",
      "type": "event"
    },
    {
      "anonymous": false,
      "inputs": [
        {
          "indexed": true,
          "internalType": "address",
          "name": "account",
          "type": "address"
        }
      ],
      "name": "WhitelistAdminRemoved",
      "type": "event"
    },
    {
      "anonymous": false,
      "inputs": [
        {
          "indexed": true,
          "internalType": "address",
          "name": "account",
          "type": "address"
        }
      ],
      "name": "WhitelistedAdded",
      "type": "event"
    },
    {
      "anonymous": false,
      "inputs": [
        {
          "indexed": true,
          "internalType": "address",
          "name": "account",
          "type": "address"
        }
      ],
      "name": "WhitelistedRemoved",
      "type": "event"
    },
    {
      "constant": false,
      "inputs": [
        {
          "internalType": "address",
          "name": "account",
          "type": "address"
        }
      ],
      "name": "addWhitelistAdmin",
      "outputs": [],
      "payable": false,
      "stateMutability": "nonpayable",
      "type": "function"
    },
    {
      "constant": false,
      "inputs": [
        {
          "internalType": "address",
          "name": "account",
          "type": "address"
        }
      ],
      "name": "addWhitelisted",
      "outputs": [],
      "payable": false,
      "stateMutability": "nonpayable",
      "type": "function"
    },
    {
      "constant": true,
      "inputs": [
        {
          "internalType": "address",
          "name": "account",
          "type": "address"
        }
      ],
      "name": "isWhitelistAdmin",
      "outputs": [
        {
          "internalType": "bool",
          "name": "",
          "type": "bool"
        }
      ],
      "payable": false,
      "stateMutability": "view",
      "type": "function"
    },
    {
      "constant": true,
      "inputs": [
        {
          "internalType": "address",
          "name": "account",
          "type": "address"
        }
      ],
      "name": "isWhitelisted",
      "outputs": [
        {
          "internalType": "bool",
          "name": "",
          "type": "bool"
        }
      ],
      "payable": false,
      "stateMutability": "view",
      "type": "function"
    },
    {
      "constant": true,
      "inputs": [],
      "name": "onlyWhitelistedMock",
      "outputs": [],
      "payable": false,
      "stateMutability": "view",
      "type": "function"
    },
    {
      "constant": false,
      "inputs": [
        {
          "internalType": "address",
          "name": "account",
          "type": "address"
        }
      ],
      "name": "removeWhitelisted",
      "outputs": [],
      "payable": false,
      "stateMutability": "nonpayable",
      "type": "function"
    },
    {
      "constant": false,
      "inputs": [],
      "name": "renounceWhitelistAdmin",
      "outputs": [],
      "payable": false,
      "stateMutability": "nonpayable",
      "type": "function"
    },
    {
      "constant": false,
      "inputs": [],
      "name": "renounceWhitelisted",
      "outputs": [],
      "payable": false,
      "stateMutability": "nonpayable",
      "type": "function"
    }
  ],
  "bytecode": "0x60806040526100266100186001600160e01b0361002b16565b6001600160e01b0361002f16565b61016f565b3390565b61004781600061007e60201b6104911790919060201c565b6040516001600160a01b038216907f22380c05984257a1cb900161c713dd71d39e74820f1aea43bd3f1bdd2096129990600090a250565b61009182826001600160e01b0361010816565b156100e3576040805162461bcd60e51b815260206004820152601f60248201527f526f6c65733a206163636f756e7420616c72656164792068617320726f6c6500604482015290519081900360640190fd5b6001600160a01b0316600090815260209190915260409020805460ff19166001179055565b60006001600160a01b03821661014f5760405162461bcd60e51b81526004018080602001828103825260228152602001806107e96022913960400191505060405180910390fd5b506001600160a01b03166000908152602091909152604090205460ff1690565b61066b8061017e6000396000f3fe608060405234801561001057600080fd5b50600436106100885760003560e01c80637362d9c81161005b5780637362d9c81461011d5780637491c97e14610143578063bb5f747b1461014b578063d6cd94731461017157610088565b806310154bad1461008d578063291d9549146100b55780633af32abf146100db5780634c5a628c14610115575b600080fd5b6100b3600480360360208110156100a357600080fd5b50356001600160a01b0316610179565b005b6100b3600480360360208110156100cb57600080fd5b50356001600160a01b03166101d0565b610101600480360360208110156100f157600080fd5b50356001600160a01b031661021f565b604080519115158252519081900360200190f35b6100b3610238565b6100b36004803603602081101561013357600080fd5b50356001600160a01b031661024a565b6100b3610299565b6101016004803603602081101561016157600080fd5b50356001600160a01b03166102e4565b6100b36102f6565b610189610184610306565b6102e4565b6101c45760405162461bcd60e51b81526004018080602001828103825260408152602001806105bd6040913960400191505060405180910390fd5b6101cd8161030a565b50565b6101db610184610306565b6102165760405162461bcd60e51b81526004018080602001828103825260408152602001806105bd6040913960400191505060405180910390fd5b6101cd81610352565b600061023260018363ffffffff61039a16565b92915050565b610248610243610306565b610401565b565b610255610184610306565b6102905760405162461bcd60e51b81526004018080602001828103825260408152602001806105bd6040913960400191505060405180910390fd5b6101cd81610449565b6102a96102a4610306565b61021f565b6102485760405162461bcd60e51b815260040180806020018281038252603a8152602001806105fd603a913960400191505060405180910390fd5b6000610232818363ffffffff61039a16565b610248610301610306565b610352565b3390565b61031b60018263ffffffff61049116565b6040516001600160a01b038216907fee1504a83b6d4a361f4c1dc78ab59bfa30d6a3b6612c403e86bb01ef2984295f90600090a250565b61036360018263ffffffff61051216565b6040516001600160a01b038216907f270d9b30cf5b0793bbfd54c9d5b94aeb49462b8148399000265144a8722da6b690600090a250565b60006001600160a01b0382166103e15760405162461bcd60e51b815260040180806020018281038252602281526020018061059b6022913960400191505060405180910390fd5b506001600160a01b03166000908152602091909152604090205460ff1690565b61041260008263ffffffff61051216565b6040516001600160a01b038216907f0a8eb35e5ca14b3d6f28e4abf2f128dbab231a58b56e89beb5d636115001e16590600090a250565b61045a60008263ffffffff61049116565b6040516001600160a01b038216907f22380c05984257a1cb900161c713dd71d39e74820f1aea43bd3f1bdd2096129990600090a250565b61049b828261039a565b156104ed576040805162461bcd60e51b815260206004820152601f60248201527f526f6c65733a206163636f756e7420616c72656164792068617320726f6c6500604482015290519081900360640190fd5b6001600160a01b0316600090815260209190915260409020805460ff19166001179055565b61051c828261039a565b6105575760405162461bcd60e51b815260040180806020018281038252602181526020018061057a6021913960400191505060405180910390fd5b6001600160a01b0316600090815260209190915260409020805460ff1916905556fe526f6c65733a206163636f756e7420646f6573206e6f74206861766520726f6c65526f6c65733a206163636f756e7420697320746865207a65726f206164647265737357686974656c69737441646d696e526f6c653a2063616c6c657220646f6573206e6f742068617665207468652057686974656c69737441646d696e20726f6c6557686974656c6973746564526f6c653a2063616c6c657220646f6573206e6f742068617665207468652057686974656c697374656420726f6c65a265627a7a723158200d88dd2437daa64b105737d250d52530e206388460c81f74743e987e36f6e78364736f6c63430005100032526f6c65733a206163636f756e7420697320746865207a65726f2061646472657373",
  "linkReferences": {},
  "deployedLinkReferences": {}
}