{
  "_format": "hh-sol-artifact-1",
  "contractName": "GrayblockStaking",
  "sourceName": "contracts/Staking.sol",
  "abi": [
    {
      "inputs": [
        {
          "internalType": "address",
          "name": "_owner",
          "type": "address"
        },
        {
          "internalType": "address",
          "name": "_rewardsToken",
          "type": "address"
        },
        {
          "internalType": "address",
          "name": "_stakingToken",
          "type": "address"
        }
      ],
      "stateMutability": "nonpayable",
      "type": "constructor"
    },
    {
      "anonymous": false,
      "inputs": [
        {
          "indexed": false,
          "internalType": "address",
          "name": "oldOwner",
          "type": "address"
        },
        {
          "indexed": false,
          "internalType": "address",
          "name": "newOwner",
          "type": "address"
        }
      ],
      "name": "OwnerChanged",
      "type": "event"
    },
    {
      "anonymous": false,
      "inputs": [
        {
          "indexed": false,
          "internalType": "address",
          "name": "newOwner",
          "type": "address"
        }
      ],
      "name": "OwnerNominated",
      "type": "event"
    },
    {
      "anonymous": false,
      "inputs": [
        {
          "indexed": false,
          "internalType": "bool",
          "name": "isPaused",
          "type": "bool"
        }
      ],
      "name": "PauseChanged",
      "type": "event"
    },
    {
      "anonymous": false,
      "inputs": [
        {
          "indexed": false,
          "internalType": "uint256",
          "name": "reward",
          "type": "uint256"
        }
      ],
      "name": "RewardAdded",
      "type": "event"
    },
    {
      "anonymous": false,
      "inputs": [
        {
          "indexed": true,
          "internalType": "address",
          "name": "user",
          "type": "address"
        },
        {
          "indexed": false,
          "internalType": "uint256",
          "name": "reward",
          "type": "uint256"
        }
      ],
      "name": "RewardPaid",
      "type": "event"
    },
    {
      "anonymous": false,
      "inputs": [
        {
          "indexed": false,
          "internalType": "uint256",
          "name": "rewardsPerInterval",
          "type": "uint256"
        },
        {
          "indexed": false,
          "internalType": "uint256",
          "name": "interval",
          "type": "uint256"
        },
        {
          "indexed": false,
          "internalType": "uint256",
          "name": "rewardRate",
          "type": "uint256"
        }
      ],
      "name": "RewardRateUpdated",
      "type": "event"
    },
    {
      "anonymous": false,
      "inputs": [
        {
          "indexed": true,
          "internalType": "address",
          "name": "user",
          "type": "address"
        },
        {
          "indexed": false,
          "internalType": "uint256",
          "name": "amount",
          "type": "uint256"
        }
      ],
      "name": "Staked",
      "type": "event"
    },
    {
      "anonymous": false,
      "inputs": [
        {
          "indexed": true,
          "internalType": "address",
          "name": "user",
          "type": "address"
        },
        {
          "indexed": false,
          "internalType": "uint256",
          "name": "amount",
          "type": "uint256"
        }
      ],
      "name": "Withdrawn",
      "type": "event"
    },
    {
      "inputs": [],
      "name": "acceptOwnership",
      "outputs": [],
      "stateMutability": "nonpayable",
      "type": "function"
    },
    {
      "inputs": [
        {
          "internalType": "address",
          "name": "account",
          "type": "address"
        }
      ],
      "name": "balanceOf",
      "outputs": [
        {
          "internalType": "uint256",
          "name": "",
          "type": "uint256"
        }
      ],
      "stateMutability": "view",
      "type": "function"
    },
    {
      "inputs": [
        {
          "internalType": "address",
          "name": "account",
          "type": "address"
        }
      ],
      "name": "earned",
      "outputs": [
        {
          "internalType": "uint256",
          "name": "",
          "type": "uint256"
        }
      ],
      "stateMutability": "view",
      "type": "function"
    },
    {
      "inputs": [],
      "name": "exit",
      "outputs": [],
      "stateMutability": "nonpayable",
      "type": "function"
    },
    {
      "inputs": [],
      "name": "getDelay",
      "outputs": [
        {
          "internalType": "uint256",
          "name": "",
          "type": "uint256"
        }
      ],
      "stateMutability": "view",
      "type": "function"
    },
    {
      "inputs": [],
      "name": "getFee",
      "outputs": [
        {
          "internalType": "uint256",
          "name": "",
          "type": "uint256"
        }
      ],
      "stateMutability": "view",
      "type": "function"
    },
    {
      "inputs": [],
      "name": "getMinimumTime",
      "outputs": [
        {
          "internalType": "uint256",
          "name": "",
          "type": "uint256"
        }
      ],
      "stateMutability": "view",
      "type": "function"
    },
    {
      "inputs": [],
      "name": "getReward",
      "outputs": [],
      "stateMutability": "nonpayable",
      "type": "function"
    },
    {
      "inputs": [],
      "name": "getRewardRate",
      "outputs": [
        {
          "internalType": "uint256",
          "name": "",
          "type": "uint256"
        }
      ],
      "stateMutability": "view",
      "type": "function"
    },
    {
      "inputs": [],
      "name": "getfeeOwner",
      "outputs": [
        {
          "internalType": "address",
          "name": "",
          "type": "address"
        }
      ],
      "stateMutability": "view",
      "type": "function"
    },
    {
      "inputs": [],
      "name": "lastBalance",
      "outputs": [
        {
          "internalType": "uint256",
          "name": "",
          "type": "uint256"
        }
      ],
      "stateMutability": "view",
      "type": "function"
    },
    {
      "inputs": [],
      "name": "lastPauseTime",
      "outputs": [
        {
          "internalType": "uint256",
          "name": "",
          "type": "uint256"
        }
      ],
      "stateMutability": "view",
      "type": "function"
    },
    {
      "inputs": [],
      "name": "lastTimeRewardApplicable",
      "outputs": [
        {
          "internalType": "uint256",
          "name": "",
          "type": "uint256"
        }
      ],
      "stateMutability": "view",
      "type": "function"
    },
    {
      "inputs": [],
      "name": "lastUpdateTime",
      "outputs": [
        {
          "internalType": "uint256",
          "name": "",
          "type": "uint256"
        }
      ],
      "stateMutability": "view",
      "type": "function"
    },
    {
      "inputs": [
        {
          "internalType": "address",
          "name": "_owner",
          "type": "address"
        }
      ],
      "name": "nominateNewOwner",
      "outputs": [],
      "stateMutability": "nonpayable",
      "type": "function"
    },
    {
      "inputs": [],
      "name": "nominatedOwner",
      "outputs": [
        {
          "internalType": "address",
          "name": "",
          "type": "address"
        }
      ],
      "stateMutability": "view",
      "type": "function"
    },
    {
      "inputs": [
        {
          "internalType": "uint256",
          "name": "reward",
          "type": "uint256"
        }
      ],
      "name": "notifyRewardAmount",
      "outputs": [],
      "stateMutability": "nonpayable",
      "type": "function"
    },
    {
      "inputs": [],
      "name": "owner",
      "outputs": [
        {
          "internalType": "address",
          "name": "",
          "type": "address"
        }
      ],
      "stateMutability": "view",
      "type": "function"
    },
    {
      "inputs": [],
      "name": "paused",
      "outputs": [
        {
          "internalType": "bool",
          "name": "",
          "type": "bool"
        }
      ],
      "stateMutability": "view",
      "type": "function"
    },
    {
      "inputs": [],
      "name": "periodFinish",
      "outputs": [
        {
          "internalType": "uint256",
          "name": "",
          "type": "uint256"
        }
      ],
      "stateMutability": "view",
      "type": "function"
    },
    {
      "inputs": [],
      "name": "rewardPerToken",
      "outputs": [
        {
          "internalType": "uint256",
          "name": "",
          "type": "uint256"
        }
      ],
      "stateMutability": "view",
      "type": "function"
    },
    {
      "inputs": [],
      "name": "rewardPerTokenStored",
      "outputs": [
        {
          "internalType": "uint256",
          "name": "",
          "type": "uint256"
        }
      ],
      "stateMutability": "view",
      "type": "function"
    },
    {
      "inputs": [],
      "name": "rewardRate",
      "outputs": [
        {
          "internalType": "uint256",
          "name": "",
          "type": "uint256"
        }
      ],
      "stateMutability": "view",
      "type": "function"
    },
    {
      "inputs": [],
      "name": "rewardsDuration",
      "outputs": [
        {
          "internalType": "uint256",
          "name": "",
          "type": "uint256"
        }
      ],
      "stateMutability": "view",
      "type": "function"
    },
    {
      "inputs": [],
      "name": "rewardsToken",
      "outputs": [
        {
          "internalType": "contract IERC20",
          "name": "",
          "type": "address"
        }
      ],
      "stateMutability": "view",
      "type": "function"
    },
    {
      "inputs": [
        {
          "internalType": "uint256",
          "name": "_delay",
          "type": "uint256"
        }
      ],
      "name": "setDelay",
      "outputs": [
        {
          "internalType": "uint256",
          "name": "",
          "type": "uint256"
        }
      ],
      "stateMutability": "nonpayable",
      "type": "function"
    },
    {
      "inputs": [
        {
          "internalType": "uint256",
          "name": "_fee",
          "type": "uint256"
        }
      ],
      "name": "setFee",
      "outputs": [
        {
          "internalType": "uint256",
          "name": "",
          "type": "uint256"
        }
      ],
      "stateMutability": "nonpayable",
      "type": "function"
    },
    {
      "inputs": [
        {
          "internalType": "uint256",
          "name": "_minimumTime",
          "type": "uint256"
        }
      ],
      "name": "setMinimumTime",
      "outputs": [
        {
          "internalType": "uint256",
          "name": "",
          "type": "uint256"
        }
      ],
      "stateMutability": "nonpayable",
      "type": "function"
    },
    {
      "inputs": [
        {
          "internalType": "bool",
          "name": "_paused",
          "type": "bool"
        }
      ],
      "name": "setPaused",
      "outputs": [],
      "stateMutability": "nonpayable",
      "type": "function"
    },
    {
      "inputs": [
        {
          "internalType": "uint256",
          "name": "rewardsPerInterval",
          "type": "uint256"
        },
        {
          "internalType": "uint256",
          "name": "interval",
          "type": "uint256"
        }
      ],
      "name": "setRewardRate",
      "outputs": [],
      "stateMutability": "nonpayable",
      "type": "function"
    },
    {
      "inputs": [
        {
          "internalType": "address",
          "name": "_feeOwner",
          "type": "address"
        }
      ],
      "name": "setfeeOwner",
      "outputs": [
        {
          "internalType": "address",
          "name": "",
          "type": "address"
        }
      ],
      "stateMutability": "nonpayable",
      "type": "function"
    },
    {
      "inputs": [
        {
          "internalType": "uint256",
          "name": "amount",
          "type": "uint256"
        }
      ],
      "name": "stake",
      "outputs": [],
      "stateMutability": "nonpayable",
      "type": "function"
    },
    {
      "inputs": [],
      "name": "stakingToken",
      "outputs": [
        {
          "internalType": "contract IERC20",
          "name": "",
          "type": "address"
        }
      ],
      "stateMutability": "view",
      "type": "function"
    },
    {
      "inputs": [],
      "name": "totalSupply",
      "outputs": [
        {
          "internalType": "uint256",
          "name": "",
          "type": "uint256"
        }
      ],
      "stateMutability": "view",
      "type": "function"
    },
    {
      "inputs": [
        {
          "internalType": "uint256",
          "name": "amount",
          "type": "uint256"
        }
      ],
      "name": "withdraw",
      "outputs": [],
      "stateMutability": "nonpayable",
      "type": "function"
    }
  ],
  "bytecode": "0x6080604052620151806012556000601355600a601455601580546001600160a01b031916738d76b11f924cad777ad789f7629b20eee67c8b8e1790553480156200004857600080fd5b5060405162001dd738038062001dd78339810160408190526200006b9162000179565b600160005582806001600160a01b038116620000a45760405162461bcd60e51b81526004016200009b9062000207565b60405180910390fd5b600180546001600160a01b0319166001600160a01b0383161790556040517fb532073b38c83145e3e5135377a08bf9aab55bc0fd7c1179cd4fb995d2a5159c90620000f4906000908490620001c2565b60405180910390a1506001546001600160a01b0316620001285760405162461bcd60e51b81526004016200009b90620001dc565b50600c80546001600160a01b039384166001600160a01b031991821617909155600d8054929093169116179055506200023e565b80516001600160a01b03811681146200017457600080fd5b919050565b6000806000606084860312156200018e578283fd5b62000199846200015c565b9250620001a9602085016200015c565b9150620001b9604085016200015c565b90509250925092565b6001600160a01b0392831681529116602082015260400190565b60208082526011908201527013dddb995c881b5d5cdd081899481cd95d607a1b604082015260600190565b60208082526019908201527f4f776e657220616464726573732063616e6e6f74206265203000000000000000604082015260600190565b611b89806200024e6000396000f3fe608060405234801561001057600080fd5b50600436106102405760003560e01c806372f702f311610145578063c8f33c91116100bd578063d1af0c7d1161008c578063e177246e11610071578063e177246e146103f0578063e9fad8ee14610403578063ebe2b12b1461040b57610240565b8063d1af0c7d146103e0578063df136d65146103e857610240565b8063c8f33c91146103c0578063cd3daf9d146103c8578063cebc9a82146103d0578063ced72f87146103d857610240565b806380faa57d116101145780638f1c56bd116100f95780638f1c56bd1461039d57806391b4ded9146103a5578063a694fc3a146103ad57610240565b806380faa57d1461038d5780638da5cb5b1461039557610240565b806372f702f31461036d57806379ba5097146103755780637b0a47ee1461037d5780637e1a37861461038557610240565b80633462e0a8116101d857806353a47bb7116101a75780635ccab7391161018c5780635ccab7391461033457806369fe0e2d1461034757806370a082311461035a57610240565b806353a47bb7146103175780635c975abb1461031f57610240565b80633462e0a8146102e1578063386a9525146102f45780633c6b16ab146102fc5780633d18b9121461030f57610240565b806316c38b3c1161021457806316c38b3c146102ab57806318160ddd146102be578063256645ca146102c65780632e1a7d4d146102ce57610240565b80628cc26214610245578063026c24461461026e57806310292b001461028e5780631627540c14610296575b600080fd5b6102586102533660046113e7565b610413565b6040516102659190611a76565b60405180910390f35b61028161027c3660046113e7565b610491565b60405161026591906114df565b6102816104cb565b6102a96102a43660046113e7565b6104db565b005b6102a96102b936600461140e565b610546565b6102586105bb565b6102586105c1565b6102a96102dc366004611446565b6105c7565b6102a96102ef366004611476565b61075a565b61025861087b565b6102a961030a366004611446565b610881565b6102a9610a8e565b610281610bd9565b610327610be8565b604051610265919061154a565b610258610342366004611446565b610bf1565b610258610355366004611446565b610c04565b6102586103683660046113e7565b610c17565b610281610c32565b6102a9610c41565b610258610cea565b610258610cf0565b610258610cf6565b610281610d09565b610258610d18565b610258610d1e565b6102a96103bb366004611446565b610d24565b610258610ed9565b610258610edf565b610258610f2d565b610258610f33565b610281610f39565b610258610f48565b6102586103fe366004611446565b610f4e565b6102a9610f61565b610258610f84565b6001600160a01b0381166000908152600f6020908152604080832054600e90925282205461048b919061048590670de0b6b3a76400009061047f906104609061045a610edf565b90610f8a565b6001600160a01b03881660009081526010602052604090205490610fd3565b90611018565b9061105a565b92915050565b600061049b611089565b506015805473ffffffffffffffffffffffffffffffffffffffff19166001600160a01b0392831617908190551690565b6015546001600160a01b03165b90565b6104e3611089565b6002805473ffffffffffffffffffffffffffffffffffffffff19166001600160a01b0383161790556040517f906a1c6bd7e3091ea86693dd029a831c19049ce77f1dce2ce0bab1cacbabce229061053b9083906114df565b60405180910390a150565b61054e611089565b60045460ff1615158115151415610564576105b8565b6004805460ff1916821515179081905560ff161561058157426003555b6004546040517f8fb6c181ee25a520cf3dd6565006ef91229fcfe5a989566c2a3b8c115570cec59161053b9160ff9091169061154a565b50565b600b5481565b60135490565b600260005414156105f35760405162461bcd60e51b81526004016105ea90611a3f565b60405180910390fd5b600260005533610601610edf565b60095561060c610cf6565b6008556001600160a01b038116156106535761062781610413565b6001600160a01b0382166000908152600f6020908152604080832093909355600954600e909152919020555b600082116106735760405162461bcd60e51b81526004016105ea90611826565b601354156106ba57336000908152601160205260408120546106959042611aec565b905060135481116106b85760405162461bcd60e51b81526004016105ea906116b2565b505b600b546106c79083610f8a565b600b55336000908152601060205260409020546106e49083610f8a565b33600081815260106020526040902091909155600d54610710916001600160a01b0390911690846110b3565b336001600160a01b03167f7084f5476618d8e60b11ef0d7d3f06914655adb8793e28ff7f018d4c76d505d5836040516107499190611a76565b60405180910390a250506001600055565b610762611089565b6000821180156107725750600081115b61078e5760405162461bcd60e51b81526004016105ea9061161e565b6107cd6040518060400160405280601981526020017f72657761726420696e74657276616c2069732073657420746f000000000000008152508361113b565b60055442116107ee5760405162461bcd60e51b81526004016105ea9061170f565b6107f88282611018565b600681905560408051808201909152600f81527f72657761726420726174652069733a0000000000000000000000000000000000602082015261083a9161113b565b7f69155044ae1e4cf9acf985cae44e0d86b5e592e3fb029bc9b39f63b0bdaa4a62828260065460405161086f93929190611a7f565b60405180910390a15050565b60075481565b610889611089565b6000610893610edf565b60095561089e610cf6565b6008556001600160a01b038116156108e5576108b981610413565b6001600160a01b0382166000908152600f6020908152604080832093909355600954600e909152919020555b6000600654116109075760405162461bcd60e51b81526004016105ea90611792565b60055442106109265760065461091e908390611018565b600755610969565b6005546000906109369042610f8a565b9050600061094f60065483610fd390919063ffffffff16565b6006549091506109639061047f868461105a565b60075550505b600c546040517f70a082310000000000000000000000000000000000000000000000000000000081526000916001600160a01b0316906370a08231906109b39030906004016114df565b60206040518083038186803b1580156109cb57600080fd5b505afa1580156109df573d6000803e3d6000fd5b505050506040513d601f19601f82011682018060405250810190610a03919061145e565b9050610a1a6007548261101890919063ffffffff16565b6006541115610a3b5760405162461bcd60e51b81526004016105ea90611917565b426008819055600754610a4e919061105a565b6005556040517fde88a922e0d3b88b24e9623efeb464919c6bf9f66857a65e2bfcf2ce87a9433d90610a81908590611a76565b60405180910390a1505050565b60026000541415610ab15760405162461bcd60e51b81526004016105ea90611a3f565b600260005533610abf610edf565b600955610aca610cf6565b6008556001600160a01b03811615610b1157610ae581610413565b6001600160a01b0382166000908152600f6020908152604080832093909355600954600e909152919020555b336000908152600f602052604090205460125415610b685733600090815260116020526040812054610b439042611aec565b90506012548111610b665760405162461bcd60e51b81526004016105ea906118ba565b505b8015610bd057336000818152600f6020526040812055600c54610b97916001600160a01b0390911690836110b3565b336001600160a01b03167fe2403640ba68fed3a2f88b7557551d1993f84b99bb10ff833f0cf8db0c5e0486826040516107499190611a76565b50506001600055565b6002546001600160a01b031681565b60045460ff1681565b6000610bfb611089565b50601381905590565b6000610c0e611089565b50601481905590565b6001600160a01b031660009081526010602052604090205490565b600d546001600160a01b031681565b6002546001600160a01b03163314610c6b5760405162461bcd60e51b81526004016105ea9061158a565b6001546002546040517fb532073b38c83145e3e5135377a08bf9aab55bc0fd7c1179cd4fb995d2a5159c92610cae926001600160a01b03918216929116906114f3565b60405180910390a1600280546001805473ffffffffffffffffffffffffffffffffffffffff199081166001600160a01b03841617909155169055565b60065481565b60065490565b6000610d04426005546111b2565b905090565b6001546001600160a01b031681565b600a5481565b60035481565b60026000541415610d475760405162461bcd60e51b81526004016105ea90611a3f565b600260005560045460ff1615610d6f5760405162461bcd60e51b81526004016105ea9061194e565b33610d78610edf565b600955610d83610cf6565b6008556001600160a01b03811615610dca57610d9e81610413565b6001600160a01b0382166000908152600f6020908152604080832093909355600954600e909152919020555b60008211610dea5760405162461bcd60e51b81526004016105ea906115e7565b600d54610e02906001600160a01b03163330856111c8565b601454600090610e14906103e8611018565b9050610e208184610fd3565b9050610e2c8184611aec565b601554600d54919450610e4e916001600160a01b0390811691309116846111c8565b600b54610e5b908461105a565b600b5533600090815260106020526040902054610e78908461105a565b336000818152601060209081526040808320949094556011905282902042905590517f9e71bc8eea02a63969f509818f2dafb9254532904319f9dbda79b67bd34a5f3d90610ec7908690611a76565b60405180910390a25050600160005550565b60085481565b6000600b5460001415610ef557506009546104d8565b610d04610f24600b5461047f670de0b6b3a7640000610f1e600654610f1e60085461045a610cf6565b90610fd3565b6009549061105a565b60125490565b60145490565b600c546001600160a01b031681565b60095481565b6000610f58611089565b50601281905590565b33600090815260106020526040902054610f7a906105c7565b610f82610a8e565b565b60055481565b6000610fcc83836040518060400160405280601e81526020017f536166654d6174683a207375627472616374696f6e206f766572666c6f7700008152506111ef565b9392505050565b600082610fe25750600061048b565b6000610fee8385611acd565b905082610ffb8583611aad565b14610fcc5760405162461bcd60e51b81526004016105ea9061185d565b6000610fcc83836040518060400160405280601a81526020017f536166654d6174683a206469766973696f6e206279207a65726f000000000000815250611229565b6000806110678385611a95565b905083811015610fcc5760405162461bcd60e51b81526004016105ea9061167b565b6001546001600160a01b03163314610f825760405162461bcd60e51b81526004016105ea906117c9565b6111368363a9059cbb60e01b84846040516024016110d2929190611531565b60408051601f198184030181529190526020810180517bffffffffffffffffffffffffffffffffffffffffffffffffffffffff167fffffffff0000000000000000000000000000000000000000000000000000000090931692909217909152611257565b505050565b6111ae8282604051602401611151929190611568565b60408051601f198184030181529190526020810180517bffffffffffffffffffffffffffffffffffffffffffffffffffffffff167f9710a9d0000000000000000000000000000000000000000000000000000000001790526112e6565b5050565b60008183106111c15781610fcc565b5090919050565b6111e9846323b872dd60e01b8585856040516024016110d29392919061150d565b50505050565b600081848411156112135760405162461bcd60e51b81526004016105ea9190611555565b5060006112208486611aec565b95945050505050565b6000818361124a5760405162461bcd60e51b81526004016105ea9190611555565b5060006112208486611aad565b60006112ac826040518060400160405280602081526020017f5361666545524332303a206c6f772d6c6576656c2063616c6c206661696c6564815250856001600160a01b03166113079092919063ffffffff16565b80519091501561113657808060200190518101906112ca919061142a565b6111365760405162461bcd60e51b81526004016105ea906119e2565b80516a636f6e736f6c652e6c6f67602083016000808483855afa5050505050565b6060611316848460008561131e565b949350505050565b6060611329856113e1565b6113455760405162461bcd60e51b81526004016105ea906119ab565b600080866001600160a01b0316858760405161136191906114c3565b60006040518083038185875af1925050503d806000811461139e576040519150601f19603f3d011682016040523d82523d6000602084013e6113a3565b606091505b509150915081156113b75791506113169050565b8051156113c75780518082602001fd5b8360405162461bcd60e51b81526004016105ea9190611555565b3b151590565b6000602082840312156113f8578081fd5b81356001600160a01b0381168114610fcc578182fd5b60006020828403121561141f578081fd5b8135610fcc81611b45565b60006020828403121561143b578081fd5b8151610fcc81611b45565b600060208284031215611457578081fd5b5035919050565b60006020828403121561146f578081fd5b5051919050565b60008060408385031215611488578081fd5b50508035926020909101359150565b600081518084526114af816020860160208601611b03565b601f01601f19169290920160200192915050565b600082516114d5818460208701611b03565b9190910192915050565b6001600160a01b0391909116815260200190565b6001600160a01b0392831681529116602082015260400190565b6001600160a01b039384168152919092166020820152604081019190915260600190565b6001600160a01b03929092168252602082015260400190565b901515815260200190565b600060208252610fcc6020830184611497565b60006040825261157b6040830185611497565b90508260208301529392505050565b60208082526035908201527f596f75206d757374206265206e6f6d696e61746564206265666f726520796f7560408201527f2063616e20616363657074206f776e6572736869700000000000000000000000606082015260800190565b6020808252600e908201527f43616e6e6f74207374616b652030000000000000000000000000000000000000604082015260600190565b60208082526038908201527f72657761726473506572496e74657276616c20616e6420696e74657276616c2060408201527f73686f756c642062652067726561746572207468616e20300000000000000000606082015260800190565b6020808252601b908201527f536166654d6174683a206164646974696f6e206f766572666c6f770000000000604082015260600190565b60208082526029908201527f4e65656420746f2077616974206d696e696d756d2074696d65206265666f726560408201527f2077697468647261770000000000000000000000000000000000000000000000606082015260800190565b60208082526048908201527f50726576696f7573207265776172647320706572696f64206d7573742062652060408201527f636f6d706c657465206265666f7265206368616e67696e67207468652072657760608201527f6172642072617465000000000000000000000000000000000000000000000000608082015260a00190565b6020808252601a908201527f5265776172642052617465206973206e6f742079657420736574000000000000604082015260600190565b6020808252602f908201527f4f6e6c792074686520636f6e7472616374206f776e6572206d6179207065726660408201527f6f726d207468697320616374696f6e0000000000000000000000000000000000606082015260800190565b60208082526011908201527f43616e6e6f742077697468647261772030000000000000000000000000000000604082015260600190565b60208082526021908201527f536166654d6174683a206d756c7469706c69636174696f6e206f766572666c6f60408201527f7700000000000000000000000000000000000000000000000000000000000000606082015260800190565b60208082526023908201527f4e65656420746f2077616974206265666f72652067657474696e67207265776160408201527f7264730000000000000000000000000000000000000000000000000000000000606082015260800190565b60208082526018908201527f50726f76696465642072657761726420746f6f20686967680000000000000000604082015260600190565b6020808252603c908201527f5468697320616374696f6e2063616e6e6f7420626520706572666f726d65642060408201527f7768696c652074686520636f6e74726163742069732070617573656400000000606082015260800190565b6020808252601d908201527f416464726573733a2063616c6c20746f206e6f6e2d636f6e7472616374000000604082015260600190565b6020808252602a908201527f5361666545524332303a204552433230206f7065726174696f6e20646964206e60408201527f6f74207375636365656400000000000000000000000000000000000000000000606082015260800190565b6020808252601f908201527f5265656e7472616e637947756172643a207265656e7472616e742063616c6c00604082015260600190565b90815260200190565b9283526020830191909152604082015260600190565b60008219821115611aa857611aa8611b2f565b500190565b600082611ac857634e487b7160e01b81526012600452602481fd5b500490565b6000816000190483118215151615611ae757611ae7611b2f565b500290565b600082821015611afe57611afe611b2f565b500390565b60005b83811015611b1e578181015183820152602001611b06565b838111156111e95750506000910152565b634e487b7160e01b600052601160045260246000fd5b80151581146105b857600080fdfea2646970667358221220a120537e6742650fb4c515cd41c31303c28a566d10b33538de89418f9c5929e464736f6c63430008000033",
  "linkReferences": {},
  "deployedLinkReferences": {}
}