{
  "_format": "hh-sol-artifact-1",
  "contractName": "GrayblockStaking",
  "sourceName": "contracts/Staking.sol",
  "abi": [
    {
      "inputs": [
        {
          "internalType": "address",
          "name": "_owner",
          "type": "address"
        },
        {
          "internalType": "address",
          "name": "_rewardsToken",
          "type": "address"
        },
        {
          "internalType": "address",
          "name": "_stakingToken",
          "type": "address"
        }
      ],
      "stateMutability": "nonpayable",
      "type": "constructor"
    },
    {
      "anonymous": false,
      "inputs": [
        {
          "indexed": false,
          "internalType": "address",
          "name": "oldOwner",
          "type": "address"
        },
        {
          "indexed": false,
          "internalType": "address",
          "name": "newOwner",
          "type": "address"
        }
      ],
      "name": "OwnerChanged",
      "type": "event"
    },
    {
      "anonymous": false,
      "inputs": [
        {
          "indexed": false,
          "internalType": "address",
          "name": "newOwner",
          "type": "address"
        }
      ],
      "name": "OwnerNominated",
      "type": "event"
    },
    {
      "anonymous": false,
      "inputs": [
        {
          "indexed": false,
          "internalType": "bool",
          "name": "isPaused",
          "type": "bool"
        }
      ],
      "name": "PauseChanged",
      "type": "event"
    },
    {
      "anonymous": false,
      "inputs": [
        {
          "indexed": false,
          "internalType": "uint256",
          "name": "reward",
          "type": "uint256"
        }
      ],
      "name": "RewardAdded",
      "type": "event"
    },
    {
      "anonymous": false,
      "inputs": [
        {
          "indexed": true,
          "internalType": "address",
          "name": "user",
          "type": "address"
        },
        {
          "indexed": false,
          "internalType": "uint256",
          "name": "reward",
          "type": "uint256"
        }
      ],
      "name": "RewardPaid",
      "type": "event"
    },
    {
      "anonymous": false,
      "inputs": [
        {
          "indexed": false,
          "internalType": "uint256",
          "name": "rewardsPerInterval",
          "type": "uint256"
        },
        {
          "indexed": false,
          "internalType": "uint256",
          "name": "interval",
          "type": "uint256"
        },
        {
          "indexed": false,
          "internalType": "uint256",
          "name": "rewardRate",
          "type": "uint256"
        }
      ],
      "name": "RewardRateUpdated",
      "type": "event"
    },
    {
      "anonymous": false,
      "inputs": [
        {
          "indexed": true,
          "internalType": "address",
          "name": "user",
          "type": "address"
        },
        {
          "indexed": false,
          "internalType": "uint256",
          "name": "amount",
          "type": "uint256"
        }
      ],
      "name": "Staked",
      "type": "event"
    },
    {
      "anonymous": false,
      "inputs": [
        {
          "indexed": true,
          "internalType": "address",
          "name": "user",
          "type": "address"
        },
        {
          "indexed": false,
          "internalType": "uint256",
          "name": "amount",
          "type": "uint256"
        }
      ],
      "name": "Withdrawn",
      "type": "event"
    },
    {
      "inputs": [],
      "name": "LastFee",
      "outputs": [
        {
          "internalType": "uint256",
          "name": "",
          "type": "uint256"
        }
      ],
      "stateMutability": "view",
      "type": "function"
    },
    {
      "inputs": [],
      "name": "acceptOwnership",
      "outputs": [],
      "stateMutability": "nonpayable",
      "type": "function"
    },
    {
      "inputs": [
        {
          "internalType": "address",
          "name": "account",
          "type": "address"
        }
      ],
      "name": "balanceOf",
      "outputs": [
        {
          "internalType": "uint256",
          "name": "",
          "type": "uint256"
        }
      ],
      "stateMutability": "view",
      "type": "function"
    },
    {
      "inputs": [
        {
          "internalType": "address",
          "name": "account",
          "type": "address"
        }
      ],
      "name": "earned",
      "outputs": [
        {
          "internalType": "uint256",
          "name": "",
          "type": "uint256"
        }
      ],
      "stateMutability": "view",
      "type": "function"
    },
    {
      "inputs": [],
      "name": "exit",
      "outputs": [],
      "stateMutability": "nonpayable",
      "type": "function"
    },
    {
      "inputs": [],
      "name": "getDelay",
      "outputs": [
        {
          "internalType": "uint256",
          "name": "",
          "type": "uint256"
        }
      ],
      "stateMutability": "view",
      "type": "function"
    },
    {
      "inputs": [],
      "name": "getFee",
      "outputs": [
        {
          "internalType": "uint256",
          "name": "",
          "type": "uint256"
        }
      ],
      "stateMutability": "view",
      "type": "function"
    },
    {
      "inputs": [],
      "name": "getLastFee",
      "outputs": [
        {
          "internalType": "uint256",
          "name": "",
          "type": "uint256"
        }
      ],
      "stateMutability": "view",
      "type": "function"
    },
    {
      "inputs": [],
      "name": "getMinimumTime",
      "outputs": [
        {
          "internalType": "uint256",
          "name": "",
          "type": "uint256"
        }
      ],
      "stateMutability": "view",
      "type": "function"
    },
    {
      "inputs": [],
      "name": "getReward",
      "outputs": [],
      "stateMutability": "nonpayable",
      "type": "function"
    },
    {
      "inputs": [],
      "name": "getRewardRate",
      "outputs": [
        {
          "internalType": "uint256",
          "name": "",
          "type": "uint256"
        }
      ],
      "stateMutability": "view",
      "type": "function"
    },
    {
      "inputs": [],
      "name": "getfeeOwner",
      "outputs": [
        {
          "internalType": "address",
          "name": "",
          "type": "address"
        }
      ],
      "stateMutability": "view",
      "type": "function"
    },
    {
      "inputs": [],
      "name": "lastBalance",
      "outputs": [
        {
          "internalType": "uint256",
          "name": "",
          "type": "uint256"
        }
      ],
      "stateMutability": "view",
      "type": "function"
    },
    {
      "inputs": [],
      "name": "lastPauseTime",
      "outputs": [
        {
          "internalType": "uint256",
          "name": "",
          "type": "uint256"
        }
      ],
      "stateMutability": "view",
      "type": "function"
    },
    {
      "inputs": [],
      "name": "lastTimeRewardApplicable",
      "outputs": [
        {
          "internalType": "uint256",
          "name": "",
          "type": "uint256"
        }
      ],
      "stateMutability": "view",
      "type": "function"
    },
    {
      "inputs": [],
      "name": "lastUpdateTime",
      "outputs": [
        {
          "internalType": "uint256",
          "name": "",
          "type": "uint256"
        }
      ],
      "stateMutability": "view",
      "type": "function"
    },
    {
      "inputs": [
        {
          "internalType": "address",
          "name": "_owner",
          "type": "address"
        }
      ],
      "name": "nominateNewOwner",
      "outputs": [],
      "stateMutability": "nonpayable",
      "type": "function"
    },
    {
      "inputs": [],
      "name": "nominatedOwner",
      "outputs": [
        {
          "internalType": "address",
          "name": "",
          "type": "address"
        }
      ],
      "stateMutability": "view",
      "type": "function"
    },
    {
      "inputs": [
        {
          "internalType": "uint256",
          "name": "reward",
          "type": "uint256"
        }
      ],
      "name": "notifyRewardAmount",
      "outputs": [],
      "stateMutability": "nonpayable",
      "type": "function"
    },
    {
      "inputs": [],
      "name": "owner",
      "outputs": [
        {
          "internalType": "address",
          "name": "",
          "type": "address"
        }
      ],
      "stateMutability": "view",
      "type": "function"
    },
    {
      "inputs": [],
      "name": "paused",
      "outputs": [
        {
          "internalType": "bool",
          "name": "",
          "type": "bool"
        }
      ],
      "stateMutability": "view",
      "type": "function"
    },
    {
      "inputs": [],
      "name": "periodFinish",
      "outputs": [
        {
          "internalType": "uint256",
          "name": "",
          "type": "uint256"
        }
      ],
      "stateMutability": "view",
      "type": "function"
    },
    {
      "inputs": [],
      "name": "rewardPerToken",
      "outputs": [
        {
          "internalType": "uint256",
          "name": "",
          "type": "uint256"
        }
      ],
      "stateMutability": "view",
      "type": "function"
    },
    {
      "inputs": [],
      "name": "rewardPerTokenStored",
      "outputs": [
        {
          "internalType": "uint256",
          "name": "",
          "type": "uint256"
        }
      ],
      "stateMutability": "view",
      "type": "function"
    },
    {
      "inputs": [],
      "name": "rewardRate",
      "outputs": [
        {
          "internalType": "uint256",
          "name": "",
          "type": "uint256"
        }
      ],
      "stateMutability": "view",
      "type": "function"
    },
    {
      "inputs": [],
      "name": "rewardsDuration",
      "outputs": [
        {
          "internalType": "uint256",
          "name": "",
          "type": "uint256"
        }
      ],
      "stateMutability": "view",
      "type": "function"
    },
    {
      "inputs": [],
      "name": "rewardsToken",
      "outputs": [
        {
          "internalType": "contract IERC20",
          "name": "",
          "type": "address"
        }
      ],
      "stateMutability": "view",
      "type": "function"
    },
    {
      "inputs": [
        {
          "internalType": "uint256",
          "name": "_delay",
          "type": "uint256"
        }
      ],
      "name": "setDelay",
      "outputs": [
        {
          "internalType": "uint256",
          "name": "",
          "type": "uint256"
        }
      ],
      "stateMutability": "nonpayable",
      "type": "function"
    },
    {
      "inputs": [
        {
          "internalType": "uint256",
          "name": "_fee",
          "type": "uint256"
        }
      ],
      "name": "setFee",
      "outputs": [
        {
          "internalType": "uint256",
          "name": "",
          "type": "uint256"
        }
      ],
      "stateMutability": "nonpayable",
      "type": "function"
    },
    {
      "inputs": [
        {
          "internalType": "uint256",
          "name": "_minimumTime",
          "type": "uint256"
        }
      ],
      "name": "setMinimumTime",
      "outputs": [
        {
          "internalType": "uint256",
          "name": "",
          "type": "uint256"
        }
      ],
      "stateMutability": "nonpayable",
      "type": "function"
    },
    {
      "inputs": [
        {
          "internalType": "bool",
          "name": "_paused",
          "type": "bool"
        }
      ],
      "name": "setPaused",
      "outputs": [],
      "stateMutability": "nonpayable",
      "type": "function"
    },
    {
      "inputs": [
        {
          "internalType": "uint256",
          "name": "rewardsPerInterval",
          "type": "uint256"
        },
        {
          "internalType": "uint256",
          "name": "interval",
          "type": "uint256"
        }
      ],
      "name": "setRewardRate",
      "outputs": [],
      "stateMutability": "nonpayable",
      "type": "function"
    },
    {
      "inputs": [
        {
          "internalType": "address",
          "name": "_feeOwner",
          "type": "address"
        }
      ],
      "name": "setfeeOwner",
      "outputs": [
        {
          "internalType": "address",
          "name": "",
          "type": "address"
        }
      ],
      "stateMutability": "nonpayable",
      "type": "function"
    },
    {
      "inputs": [
        {
          "internalType": "uint256",
          "name": "amount",
          "type": "uint256"
        }
      ],
      "name": "stake",
      "outputs": [
        {
          "internalType": "uint256",
          "name": "",
          "type": "uint256"
        }
      ],
      "stateMutability": "nonpayable",
      "type": "function"
    },
    {
      "inputs": [],
      "name": "stakingToken",
      "outputs": [
        {
          "internalType": "contract IERC20",
          "name": "",
          "type": "address"
        }
      ],
      "stateMutability": "view",
      "type": "function"
    },
    {
      "inputs": [],
      "name": "totalSupply",
      "outputs": [
        {
          "internalType": "uint256",
          "name": "",
          "type": "uint256"
        }
      ],
      "stateMutability": "view",
      "type": "function"
    },
    {
      "inputs": [
        {
          "internalType": "uint256",
          "name": "amount",
          "type": "uint256"
        }
      ],
      "name": "withdraw",
      "outputs": [],
      "stateMutability": "nonpayable",
      "type": "function"
    }
  ],
  "bytecode": "0x6080604052620151806013556000601455600a601555601680546001600160a01b031916738d76b11f924cad777ad789f7629b20eee67c8b8e1790553480156200004857600080fd5b5060405162001eae38038062001eae8339810160408190526200006b9162000179565b600160005582806001600160a01b038116620000a45760405162461bcd60e51b81526004016200009b9062000207565b60405180910390fd5b600180546001600160a01b0319166001600160a01b0383161790556040517fb532073b38c83145e3e5135377a08bf9aab55bc0fd7c1179cd4fb995d2a5159c90620000f4906000908490620001c2565b60405180910390a1506001546001600160a01b0316620001285760405162461bcd60e51b81526004016200009b90620001dc565b50600d80546001600160a01b039384166001600160a01b031991821617909155600e8054929093169116179055506200023e565b80516001600160a01b03811681146200017457600080fd5b919050565b6000806000606084860312156200018e578283fd5b62000199846200015c565b9250620001a9602085016200015c565b9150620001b9604085016200015c565b90509250925092565b6001600160a01b0392831681529116602082015260400190565b60208082526011908201527013dddb995c881b5d5cdd081899481cd95d607a1b604082015260600190565b60208082526019908201527f4f776e657220616464726573732063616e6e6f74206265203000000000000000604082015260600190565b611c60806200024e6000396000f3fe608060405234801561001057600080fd5b50600436106102765760003560e01c806379ba509711610160578063c8f33c91116100d8578063dc1e6d8c1161008c578063e177246e11610071578063e177246e14610436578063e9fad8ee14610449578063ebe2b12b1461045157610276565b8063dc1e6d8c14610426578063df136d651461042e57610276565b8063cebc9a82116100bd578063cebc9a821461040e578063ced72f8714610416578063d1af0c7d1461041e57610276565b8063c8f33c91146103fe578063cd3daf9d1461040657610276565b80638da5cb5b1161012f57806391b4ded91161011457806391b4ded9146103db5780639b1d56fe146103e3578063a694fc3a146103eb57610276565b80638da5cb5b146103cb5780638f1c56bd146103d357610276565b806379ba5097146103ab5780637b0a47ee146103b35780637e1a3786146103bb57806380faa57d146103c357610276565b8063386a9525116101f35780635c975abb116101c257806369fe0e2d116101a757806369fe0e2d1461037d57806370a082311461039057806372f702f3146103a357610276565b80635c975abb146103555780635ccab7391461036a57610276565b8063386a95251461032a5780633c6b16ab146103325780633d18b9121461034557806353a47bb71461034d57610276565b806316c38b3c1161024a578063256645ca1161022f578063256645ca146102fc5780632e1a7d4d146103045780633462e0a81461031757610276565b806316c38b3c146102e157806318160ddd146102f457610276565b80628cc2621461027b578063026c2446146102a457806310292b00146102c45780631627540c146102cc575b600080fd5b61028e6102893660046114be565b610459565b60405161029b9190611b4d565b60405180910390f35b6102b76102b23660046114be565b6104d7565b60405161029b91906115b6565b6102b7610511565b6102df6102da3660046114be565b610521565b005b6102df6102ef3660046114e5565b61058c565b61028e610601565b61028e610607565b6102df61031236600461151d565b61060d565b6102df61032536600461154d565b6107a0565b61028e6108c1565b6102df61034036600461151d565b6108c7565b6102df610ad4565b6102b7610c1f565b61035d610c2e565b60405161029b9190611621565b61028e61037836600461151d565b610c37565b61028e61038b36600461151d565b610c4a565b61028e61039e3660046114be565b610c5d565b6102b7610c78565b6102df610c87565b61028e610d30565b61028e610d36565b61028e610d3c565b6102b7610d4f565b61028e610d5e565b61028e610d64565b61028e610d6a565b61028e6103f936600461151d565b610d70565b61028e610faa565b61028e610fb0565b61028e610ffe565b61028e611004565b6102b761100a565b61028e611019565b61028e61101f565b61028e61044436600461151d565b611025565b6102df611038565b61028e61105b565b6001600160a01b038116600090815260106020908152604080832054600f9092528220546104d191906104cb90670de0b6b3a7640000906104c5906104a6906104a0610fb0565b90611061565b6001600160a01b038816600090815260116020526040902054906110aa565b906110ef565b90611131565b92915050565b60006104e1611160565b506016805473ffffffffffffffffffffffffffffffffffffffff19166001600160a01b0392831617908190551690565b6016546001600160a01b03165b90565b610529611160565b6002805473ffffffffffffffffffffffffffffffffffffffff19166001600160a01b0383161790556040517f906a1c6bd7e3091ea86693dd029a831c19049ce77f1dce2ce0bab1cacbabce22906105819083906115b6565b60405180910390a150565b610594611160565b60045460ff16151581151514156105aa576105fe565b6004805460ff1916821515179081905560ff16156105c757426003555b6004546040517f8fb6c181ee25a520cf3dd6565006ef91229fcfe5a989566c2a3b8c115570cec5916105819160ff90911690611621565b50565b600b5481565b60145490565b600260005414156106395760405162461bcd60e51b815260040161063090611b16565b60405180910390fd5b600260005533610647610fb0565b600955610652610d3c565b6008556001600160a01b038116156106995761066d81610459565b6001600160a01b038216600090815260106020908152604080832093909355600954600f909152919020555b600082116106b95760405162461bcd60e51b8152600401610630906118fd565b6014541561070057336000908152601260205260408120546106db9042611bc3565b905060145481116106fe5760405162461bcd60e51b815260040161063090611789565b505b600b5461070d9083611061565b600b553360009081526011602052604090205461072a9083611061565b33600081815260116020526040902091909155600e54610756916001600160a01b03909116908461118a565b336001600160a01b03167f7084f5476618d8e60b11ef0d7d3f06914655adb8793e28ff7f018d4c76d505d58360405161078f9190611b4d565b60405180910390a250506001600055565b6107a8611160565b6000821180156107b85750600081115b6107d45760405162461bcd60e51b8152600401610630906116f5565b6108136040518060400160405280601981526020017f72657761726420696e74657276616c2069732073657420746f0000000000000081525083611212565b60055442116108345760405162461bcd60e51b8152600401610630906117e6565b61083e82826110ef565b600681905560408051808201909152600f81527f72657761726420726174652069733a0000000000000000000000000000000000602082015261088091611212565b7f69155044ae1e4cf9acf985cae44e0d86b5e592e3fb029bc9b39f63b0bdaa4a6282826006546040516108b593929190611b56565b60405180910390a15050565b60075481565b6108cf611160565b60006108d9610fb0565b6009556108e4610d3c565b6008556001600160a01b0381161561092b576108ff81610459565b6001600160a01b038216600090815260106020908152604080832093909355600954600f909152919020555b60006006541161094d5760405162461bcd60e51b815260040161063090611869565b600554421061096c576006546109649083906110ef565b6007556109af565b60055460009061097c9042611061565b90506000610995600654836110aa90919063ffffffff16565b6006549091506109a9906104c58684611131565b60075550505b600d546040517f70a082310000000000000000000000000000000000000000000000000000000081526000916001600160a01b0316906370a08231906109f99030906004016115b6565b60206040518083038186803b158015610a1157600080fd5b505afa158015610a25573d6000803e3d6000fd5b505050506040513d601f19601f82011682018060405250810190610a499190611535565b9050610a60600754826110ef90919063ffffffff16565b6006541115610a815760405162461bcd60e51b8152600401610630906119ee565b426008819055600754610a949190611131565b6005556040517fde88a922e0d3b88b24e9623efeb464919c6bf9f66857a65e2bfcf2ce87a9433d90610ac7908590611b4d565b60405180910390a1505050565b60026000541415610af75760405162461bcd60e51b815260040161063090611b16565b600260005533610b05610fb0565b600955610b10610d3c565b6008556001600160a01b03811615610b5757610b2b81610459565b6001600160a01b038216600090815260106020908152604080832093909355600954600f909152919020555b3360009081526010602052604090205460135415610bae5733600090815260126020526040812054610b899042611bc3565b90506013548111610bac5760405162461bcd60e51b815260040161063090611991565b505b8015610c165733600081815260106020526040812055600d54610bdd916001600160a01b03909116908361118a565b336001600160a01b03167fe2403640ba68fed3a2f88b7557551d1993f84b99bb10ff833f0cf8db0c5e04868260405161078f9190611b4d565b50506001600055565b6002546001600160a01b031681565b60045460ff1681565b6000610c41611160565b50601481905590565b6000610c54611160565b50601581905590565b6001600160a01b031660009081526011602052604090205490565b600e546001600160a01b031681565b6002546001600160a01b03163314610cb15760405162461bcd60e51b815260040161063090611661565b6001546002546040517fb532073b38c83145e3e5135377a08bf9aab55bc0fd7c1179cd4fb995d2a5159c92610cf4926001600160a01b03918216929116906115ca565b60405180910390a1600280546001805473ffffffffffffffffffffffffffffffffffffffff199081166001600160a01b03841617909155169055565b60065481565b60065490565b6000610d4a42600554611289565b905090565b6001546001600160a01b031681565b600a5481565b60035481565b600c5490565b600060026000541415610d955760405162461bcd60e51b815260040161063090611b16565b600260005560045460ff1615610dbd5760405162461bcd60e51b815260040161063090611a25565b33610dc6610fb0565b600955610dd1610d3c565b6008556001600160a01b03811615610e1857610dec81610459565b6001600160a01b038216600090815260106020908152604080832093909355600954600f909152919020555b60008311610e385760405162461bcd60e51b8152600401610630906116be565b600e54610e50906001600160a01b031633308661129f565b6000610e6d6103e86104c5866015546110aa90919063ffffffff16565b9050610eae6040518060400160405280600381526020017f466565000000000000000000000000000000000000000000000000000000000081525082611212565b610eb88185611bc3565b935080600c81905550610f006040518060400160405280600681526020017f616d6f756e74000000000000000000000000000000000000000000000000000081525085611212565b601654600e54610f1d916001600160a01b0391821691168361118a565b600b54610f2a9085611131565b600b5533600090815260116020526040902054610f479085611131565b336000818152601160209081526040808320949094556012905282902042905590517f9e71bc8eea02a63969f509818f2dafb9254532904319f9dbda79b67bd34a5f3d90610f96908790611b4d565b60405180910390a260016000559392505050565b60085481565b6000600b5460001415610fc6575060095461051e565b610d4a610ff5600b546104c5670de0b6b3a7640000610fef600654610fef6008546104a0610d3c565b906110aa565b60095490611131565b60135490565b60155490565b600d546001600160a01b031681565b600c5481565b60095481565b600061102f611160565b50601381905590565b336000908152601160205260409020546110519061060d565b611059610ad4565b565b60055481565b60006110a383836040518060400160405280601e81526020017f536166654d6174683a207375627472616374696f6e206f766572666c6f7700008152506112c6565b9392505050565b6000826110b9575060006104d1565b60006110c58385611ba4565b9050826110d28583611b84565b146110a35760405162461bcd60e51b815260040161063090611934565b60006110a383836040518060400160405280601a81526020017f536166654d6174683a206469766973696f6e206279207a65726f000000000000815250611300565b60008061113e8385611b6c565b9050838110156110a35760405162461bcd60e51b815260040161063090611752565b6001546001600160a01b031633146110595760405162461bcd60e51b8152600401610630906118a0565b61120d8363a9059cbb60e01b84846040516024016111a9929190611608565b60408051601f198184030181529190526020810180517bffffffffffffffffffffffffffffffffffffffffffffffffffffffff167fffffffff000000000000000000000000000000000000000000000000000000009093169290921790915261132e565b505050565b611285828260405160240161122892919061163f565b60408051601f198184030181529190526020810180517bffffffffffffffffffffffffffffffffffffffffffffffffffffffff167f9710a9d0000000000000000000000000000000000000000000000000000000001790526113bd565b5050565b600081831061129857816110a3565b5090919050565b6112c0846323b872dd60e01b8585856040516024016111a9939291906115e4565b50505050565b600081848411156112ea5760405162461bcd60e51b8152600401610630919061162c565b5060006112f78486611bc3565b95945050505050565b600081836113215760405162461bcd60e51b8152600401610630919061162c565b5060006112f78486611b84565b6000611383826040518060400160405280602081526020017f5361666545524332303a206c6f772d6c6576656c2063616c6c206661696c6564815250856001600160a01b03166113de9092919063ffffffff16565b80519091501561120d57808060200190518101906113a19190611501565b61120d5760405162461bcd60e51b815260040161063090611ab9565b80516a636f6e736f6c652e6c6f67602083016000808483855afa5050505050565b60606113ed84846000856113f5565b949350505050565b6060611400856114b8565b61141c5760405162461bcd60e51b815260040161063090611a82565b600080866001600160a01b03168587604051611438919061159a565b60006040518083038185875af1925050503d8060008114611475576040519150601f19603f3d011682016040523d82523d6000602084013e61147a565b606091505b5091509150811561148e5791506113ed9050565b80511561149e5780518082602001fd5b8360405162461bcd60e51b8152600401610630919061162c565b3b151590565b6000602082840312156114cf578081fd5b81356001600160a01b03811681146110a3578182fd5b6000602082840312156114f6578081fd5b81356110a381611c1c565b600060208284031215611512578081fd5b81516110a381611c1c565b60006020828403121561152e578081fd5b5035919050565b600060208284031215611546578081fd5b5051919050565b6000806040838503121561155f578081fd5b50508035926020909101359150565b60008151808452611586816020860160208601611bda565b601f01601f19169290920160200192915050565b600082516115ac818460208701611bda565b9190910192915050565b6001600160a01b0391909116815260200190565b6001600160a01b0392831681529116602082015260400190565b6001600160a01b039384168152919092166020820152604081019190915260600190565b6001600160a01b03929092168252602082015260400190565b901515815260200190565b6000602082526110a3602083018461156e565b600060408252611652604083018561156e565b90508260208301529392505050565b60208082526035908201527f596f75206d757374206265206e6f6d696e61746564206265666f726520796f7560408201527f2063616e20616363657074206f776e6572736869700000000000000000000000606082015260800190565b6020808252600e908201527f43616e6e6f74207374616b652030000000000000000000000000000000000000604082015260600190565b60208082526038908201527f72657761726473506572496e74657276616c20616e6420696e74657276616c2060408201527f73686f756c642062652067726561746572207468616e20300000000000000000606082015260800190565b6020808252601b908201527f536166654d6174683a206164646974696f6e206f766572666c6f770000000000604082015260600190565b60208082526029908201527f4e65656420746f2077616974206d696e696d756d2074696d65206265666f726560408201527f2077697468647261770000000000000000000000000000000000000000000000606082015260800190565b60208082526048908201527f50726576696f7573207265776172647320706572696f64206d7573742062652060408201527f636f6d706c657465206265666f7265206368616e67696e67207468652072657760608201527f6172642072617465000000000000000000000000000000000000000000000000608082015260a00190565b6020808252601a908201527f5265776172642052617465206973206e6f742079657420736574000000000000604082015260600190565b6020808252602f908201527f4f6e6c792074686520636f6e7472616374206f776e6572206d6179207065726660408201527f6f726d207468697320616374696f6e0000000000000000000000000000000000606082015260800190565b60208082526011908201527f43616e6e6f742077697468647261772030000000000000000000000000000000604082015260600190565b60208082526021908201527f536166654d6174683a206d756c7469706c69636174696f6e206f766572666c6f60408201527f7700000000000000000000000000000000000000000000000000000000000000606082015260800190565b60208082526023908201527f4e65656420746f2077616974206265666f72652067657474696e67207265776160408201527f7264730000000000000000000000000000000000000000000000000000000000606082015260800190565b60208082526018908201527f50726f76696465642072657761726420746f6f20686967680000000000000000604082015260600190565b6020808252603c908201527f5468697320616374696f6e2063616e6e6f7420626520706572666f726d65642060408201527f7768696c652074686520636f6e74726163742069732070617573656400000000606082015260800190565b6020808252601d908201527f416464726573733a2063616c6c20746f206e6f6e2d636f6e7472616374000000604082015260600190565b6020808252602a908201527f5361666545524332303a204552433230206f7065726174696f6e20646964206e60408201527f6f74207375636365656400000000000000000000000000000000000000000000606082015260800190565b6020808252601f908201527f5265656e7472616e637947756172643a207265656e7472616e742063616c6c00604082015260600190565b90815260200190565b9283526020830191909152604082015260600190565b60008219821115611b7f57611b7f611c06565b500190565b600082611b9f57634e487b7160e01b81526012600452602481fd5b500490565b6000816000190483118215151615611bbe57611bbe611c06565b500290565b600082821015611bd557611bd5611c06565b500390565b60005b83811015611bf5578181015183820152602001611bdd565b838111156112c05750506000910152565b634e487b7160e01b600052601160045260246000fd5b80151581146105fe57600080fdfea2646970667358221220a64c77a3011c08e72eb39c2905035a7c9ec83c41fb5e9f60ed02d8771f3c59b764736f6c63430008000033",
  "linkReferences": {},
  "deployedLinkReferences": {}
}