{
  "_format": "hh-sol-artifact-1",
  "contractName": "GrayblockStaking",
  "sourceName": "contracts/Staking.sol",
  "abi": [
    {
      "inputs": [
        {
          "internalType": "address",
          "name": "_owner",
          "type": "address"
        },
        {
          "internalType": "address",
          "name": "_rewardsToken",
          "type": "address"
        },
        {
          "internalType": "address",
          "name": "_stakingToken",
          "type": "address"
        }
      ],
      "stateMutability": "nonpayable",
      "type": "constructor"
    },
    {
      "anonymous": false,
      "inputs": [
        {
          "indexed": false,
          "internalType": "address",
          "name": "oldOwner",
          "type": "address"
        },
        {
          "indexed": false,
          "internalType": "address",
          "name": "newOwner",
          "type": "address"
        }
      ],
      "name": "OwnerChanged",
      "type": "event"
    },
    {
      "anonymous": false,
      "inputs": [
        {
          "indexed": false,
          "internalType": "address",
          "name": "newOwner",
          "type": "address"
        }
      ],
      "name": "OwnerNominated",
      "type": "event"
    },
    {
      "anonymous": false,
      "inputs": [
        {
          "indexed": false,
          "internalType": "bool",
          "name": "isPaused",
          "type": "bool"
        }
      ],
      "name": "PauseChanged",
      "type": "event"
    },
    {
      "anonymous": false,
      "inputs": [
        {
          "indexed": false,
          "internalType": "uint256",
          "name": "reward",
          "type": "uint256"
        }
      ],
      "name": "RewardAdded",
      "type": "event"
    },
    {
      "anonymous": false,
      "inputs": [
        {
          "indexed": true,
          "internalType": "address",
          "name": "user",
          "type": "address"
        },
        {
          "indexed": false,
          "internalType": "uint256",
          "name": "reward",
          "type": "uint256"
        }
      ],
      "name": "RewardPaid",
      "type": "event"
    },
    {
      "anonymous": false,
      "inputs": [
        {
          "indexed": false,
          "internalType": "uint256",
          "name": "rewardsPerInterval",
          "type": "uint256"
        },
        {
          "indexed": false,
          "internalType": "uint256",
          "name": "interval",
          "type": "uint256"
        },
        {
          "indexed": false,
          "internalType": "uint256",
          "name": "rewardRate",
          "type": "uint256"
        }
      ],
      "name": "RewardRateUpdated",
      "type": "event"
    },
    {
      "anonymous": false,
      "inputs": [
        {
          "indexed": true,
          "internalType": "address",
          "name": "user",
          "type": "address"
        },
        {
          "indexed": false,
          "internalType": "uint256",
          "name": "amount",
          "type": "uint256"
        }
      ],
      "name": "Staked",
      "type": "event"
    },
    {
      "anonymous": false,
      "inputs": [
        {
          "indexed": true,
          "internalType": "address",
          "name": "user",
          "type": "address"
        },
        {
          "indexed": false,
          "internalType": "uint256",
          "name": "amount",
          "type": "uint256"
        }
      ],
      "name": "Withdrawn",
      "type": "event"
    },
    {
      "inputs": [],
      "name": "acceptOwnership",
      "outputs": [],
      "stateMutability": "nonpayable",
      "type": "function"
    },
    {
      "inputs": [
        {
          "internalType": "address",
          "name": "account",
          "type": "address"
        }
      ],
      "name": "balanceOf",
      "outputs": [
        {
          "internalType": "uint256",
          "name": "",
          "type": "uint256"
        }
      ],
      "stateMutability": "view",
      "type": "function"
    },
    {
      "inputs": [
        {
          "internalType": "address",
          "name": "account",
          "type": "address"
        }
      ],
      "name": "earned",
      "outputs": [
        {
          "internalType": "uint256",
          "name": "",
          "type": "uint256"
        }
      ],
      "stateMutability": "view",
      "type": "function"
    },
    {
      "inputs": [],
      "name": "exit",
      "outputs": [],
      "stateMutability": "nonpayable",
      "type": "function"
    },
    {
      "inputs": [],
      "name": "getDelay",
      "outputs": [
        {
          "internalType": "uint256",
          "name": "",
          "type": "uint256"
        }
      ],
      "stateMutability": "view",
      "type": "function"
    },
    {
      "inputs": [],
      "name": "getFee",
      "outputs": [
        {
          "internalType": "uint256",
          "name": "",
          "type": "uint256"
        }
      ],
      "stateMutability": "view",
      "type": "function"
    },
    {
      "inputs": [],
      "name": "getMinimumTime",
      "outputs": [
        {
          "internalType": "uint256",
          "name": "",
          "type": "uint256"
        }
      ],
      "stateMutability": "view",
      "type": "function"
    },
    {
      "inputs": [],
      "name": "getReward",
      "outputs": [],
      "stateMutability": "nonpayable",
      "type": "function"
    },
    {
      "inputs": [],
      "name": "getfeeOwner",
      "outputs": [
        {
          "internalType": "address",
          "name": "",
          "type": "address"
        }
      ],
      "stateMutability": "view",
      "type": "function"
    },
    {
      "inputs": [],
      "name": "lastBalance",
      "outputs": [
        {
          "internalType": "uint256",
          "name": "",
          "type": "uint256"
        }
      ],
      "stateMutability": "view",
      "type": "function"
    },
    {
      "inputs": [],
      "name": "lastPauseTime",
      "outputs": [
        {
          "internalType": "uint256",
          "name": "",
          "type": "uint256"
        }
      ],
      "stateMutability": "view",
      "type": "function"
    },
    {
      "inputs": [],
      "name": "lastTimeRewardApplicable",
      "outputs": [
        {
          "internalType": "uint256",
          "name": "",
          "type": "uint256"
        }
      ],
      "stateMutability": "view",
      "type": "function"
    },
    {
      "inputs": [],
      "name": "lastUpdateTime",
      "outputs": [
        {
          "internalType": "uint256",
          "name": "",
          "type": "uint256"
        }
      ],
      "stateMutability": "view",
      "type": "function"
    },
    {
      "inputs": [
        {
          "internalType": "address",
          "name": "_owner",
          "type": "address"
        }
      ],
      "name": "nominateNewOwner",
      "outputs": [],
      "stateMutability": "nonpayable",
      "type": "function"
    },
    {
      "inputs": [],
      "name": "nominatedOwner",
      "outputs": [
        {
          "internalType": "address",
          "name": "",
          "type": "address"
        }
      ],
      "stateMutability": "view",
      "type": "function"
    },
    {
      "inputs": [
        {
          "internalType": "uint256",
          "name": "reward",
          "type": "uint256"
        }
      ],
      "name": "notifyRewardAmount",
      "outputs": [],
      "stateMutability": "nonpayable",
      "type": "function"
    },
    {
      "inputs": [],
      "name": "owner",
      "outputs": [
        {
          "internalType": "address",
          "name": "",
          "type": "address"
        }
      ],
      "stateMutability": "view",
      "type": "function"
    },
    {
      "inputs": [],
      "name": "paused",
      "outputs": [
        {
          "internalType": "bool",
          "name": "",
          "type": "bool"
        }
      ],
      "stateMutability": "view",
      "type": "function"
    },
    {
      "inputs": [],
      "name": "periodFinish",
      "outputs": [
        {
          "internalType": "uint256",
          "name": "",
          "type": "uint256"
        }
      ],
      "stateMutability": "view",
      "type": "function"
    },
    {
      "inputs": [],
      "name": "rewardPerToken",
      "outputs": [
        {
          "internalType": "uint256",
          "name": "",
          "type": "uint256"
        }
      ],
      "stateMutability": "view",
      "type": "function"
    },
    {
      "inputs": [],
      "name": "rewardPerTokenStored",
      "outputs": [
        {
          "internalType": "uint256",
          "name": "",
          "type": "uint256"
        }
      ],
      "stateMutability": "view",
      "type": "function"
    },
    {
      "inputs": [],
      "name": "rewardRate",
      "outputs": [
        {
          "internalType": "uint256",
          "name": "",
          "type": "uint256"
        }
      ],
      "stateMutability": "view",
      "type": "function"
    },
    {
      "inputs": [],
      "name": "rewardsDuration",
      "outputs": [
        {
          "internalType": "uint256",
          "name": "",
          "type": "uint256"
        }
      ],
      "stateMutability": "view",
      "type": "function"
    },
    {
      "inputs": [],
      "name": "rewardsToken",
      "outputs": [
        {
          "internalType": "contract IERC20",
          "name": "",
          "type": "address"
        }
      ],
      "stateMutability": "view",
      "type": "function"
    },
    {
      "inputs": [
        {
          "internalType": "uint256",
          "name": "_delay",
          "type": "uint256"
        }
      ],
      "name": "setDelay",
      "outputs": [
        {
          "internalType": "uint256",
          "name": "",
          "type": "uint256"
        }
      ],
      "stateMutability": "nonpayable",
      "type": "function"
    },
    {
      "inputs": [
        {
          "internalType": "uint256",
          "name": "_fee",
          "type": "uint256"
        }
      ],
      "name": "setFee",
      "outputs": [
        {
          "internalType": "uint256",
          "name": "",
          "type": "uint256"
        }
      ],
      "stateMutability": "nonpayable",
      "type": "function"
    },
    {
      "inputs": [
        {
          "internalType": "uint256",
          "name": "_minimumTime",
          "type": "uint256"
        }
      ],
      "name": "setMinimumTime",
      "outputs": [
        {
          "internalType": "uint256",
          "name": "",
          "type": "uint256"
        }
      ],
      "stateMutability": "nonpayable",
      "type": "function"
    },
    {
      "inputs": [
        {
          "internalType": "bool",
          "name": "_paused",
          "type": "bool"
        }
      ],
      "name": "setPaused",
      "outputs": [],
      "stateMutability": "nonpayable",
      "type": "function"
    },
    {
      "inputs": [
        {
          "internalType": "uint256",
          "name": "rewardsPerInterval",
          "type": "uint256"
        },
        {
          "internalType": "uint256",
          "name": "interval",
          "type": "uint256"
        }
      ],
      "name": "setRewardRate",
      "outputs": [],
      "stateMutability": "nonpayable",
      "type": "function"
    },
    {
      "inputs": [
        {
          "internalType": "address",
          "name": "_feeOwner",
          "type": "address"
        }
      ],
      "name": "setfeeOwner",
      "outputs": [
        {
          "internalType": "address",
          "name": "",
          "type": "address"
        }
      ],
      "stateMutability": "nonpayable",
      "type": "function"
    },
    {
      "inputs": [
        {
          "internalType": "uint256",
          "name": "amount",
          "type": "uint256"
        }
      ],
      "name": "stake",
      "outputs": [],
      "stateMutability": "nonpayable",
      "type": "function"
    },
    {
      "inputs": [],
      "name": "stakingToken",
      "outputs": [
        {
          "internalType": "contract IERC20",
          "name": "",
          "type": "address"
        }
      ],
      "stateMutability": "view",
      "type": "function"
    },
    {
      "inputs": [],
      "name": "totalSupply",
      "outputs": [
        {
          "internalType": "uint256",
          "name": "",
          "type": "uint256"
        }
      ],
      "stateMutability": "view",
      "type": "function"
    },
    {
      "inputs": [
        {
          "internalType": "uint256",
          "name": "amount",
          "type": "uint256"
        }
      ],
      "name": "withdraw",
      "outputs": [],
      "stateMutability": "nonpayable",
      "type": "function"
    }
  ],
  "bytecode": "0x6080604052620151806012556000601355600a601455601580546001600160a01b031916738d76b11f924cad777ad789f7629b20eee67c8b8e1790553480156200004857600080fd5b5060405162001c6938038062001c698339810160408190526200006b9162000179565b600160005582806001600160a01b038116620000a45760405162461bcd60e51b81526004016200009b9062000207565b60405180910390fd5b600180546001600160a01b0319166001600160a01b0383161790556040517fb532073b38c83145e3e5135377a08bf9aab55bc0fd7c1179cd4fb995d2a5159c90620000f4906000908490620001c2565b60405180910390a1506001546001600160a01b0316620001285760405162461bcd60e51b81526004016200009b90620001dc565b50600c80546001600160a01b039384166001600160a01b031991821617909155600d8054929093169116179055506200023e565b80516001600160a01b03811681146200017457600080fd5b919050565b6000806000606084860312156200018e578283fd5b62000199846200015c565b9250620001a9602085016200015c565b9150620001b9604085016200015c565b90509250925092565b6001600160a01b0392831681529116602082015260400190565b60208082526011908201527013dddb995c881b5d5cdd081899481cd95d607a1b604082015260600190565b60208082526019908201527f4f776e657220616464726573732063616e6e6f74206265203000000000000000604082015260600190565b611a1b806200024e6000396000f3fe608060405234801561001057600080fd5b50600436106102255760003560e01c806372f702f31161012a578063c8f33c91116100bd578063d1af0c7d1161008c578063e177246e11610071578063e177246e146103cd578063e9fad8ee146103e0578063ebe2b12b146103e857610225565b8063d1af0c7d146103bd578063df136d65146103c557610225565b8063c8f33c911461039d578063cd3daf9d146103a5578063cebc9a82146103ad578063ced72f87146103b557610225565b80638da5cb5b116100f95780638da5cb5b146103725780638f1c56bd1461037a57806391b4ded914610382578063a694fc3a1461038a57610225565b806372f702f31461035257806379ba50971461035a5780637b0a47ee1461036257806380faa57d1461036a57610225565b80633462e0a8116101bd57806353a47bb71161018c5780635ccab739116101715780635ccab7391461031957806369fe0e2d1461032c57806370a082311461033f57610225565b806353a47bb7146102fc5780635c975abb1461030457610225565b80633462e0a8146102c6578063386a9525146102d95780633c6b16ab146102e15780633d18b912146102f457610225565b806316c38b3c116101f957806316c38b3c1461029057806318160ddd146102a3578063256645ca146102ab5780632e1a7d4d146102b357610225565b80628cc2621461022a578063026c24461461025357806310292b00146102735780631627540c1461027b575b600080fd5b61023d6102383660046112a7565b6103f0565b60405161024a9190611908565b60405180910390f35b6102666102613660046112a7565b61046e565b60405161024a9190611373565b6102666104a8565b61028e6102893660046112a7565b6104b8565b005b61028e61029e3660046112ce565b610523565b61023d610598565b61023d61059e565b61028e6102c1366004611306565b6105a4565b61028e6102d4366004611336565b610737565b61023d6107d9565b61028e6102ef366004611306565b6107df565b61028e6109ec565b610266610b37565b61030c610b46565b60405161024a91906113de565b61023d610327366004611306565b610b4f565b61023d61033a366004611306565b610b62565b61023d61034d3660046112a7565b610b75565b610266610b90565b61028e610b9f565b61023d610c48565b61023d610c4e565b610266610c61565b61023d610c70565b61023d610c76565b61028e610398366004611306565b610c7c565b61023d610e31565b61023d610e37565b61023d610e85565b61023d610e8b565b610266610e91565b61023d610ea0565b61023d6103db366004611306565b610ea6565b61028e610eb9565b61023d610edc565b6001600160a01b0381166000908152600f6020908152604080832054600e909252822054610468919061046290670de0b6b3a76400009061045c9061043d90610437610e37565b90610ee2565b6001600160a01b03881660009081526010602052604090205490610f2b565b90610f70565b90610fb2565b92915050565b6000610478610fe1565b506015805473ffffffffffffffffffffffffffffffffffffffff19166001600160a01b0392831617908190551690565b6015546001600160a01b03165b90565b6104c0610fe1565b6002805473ffffffffffffffffffffffffffffffffffffffff19166001600160a01b0383161790556040517f906a1c6bd7e3091ea86693dd029a831c19049ce77f1dce2ce0bab1cacbabce2290610518908390611373565b60405180910390a150565b61052b610fe1565b60045460ff161515811515141561054157610595565b6004805460ff1916821515179081905560ff161561055e57426003555b6004546040517f8fb6c181ee25a520cf3dd6565006ef91229fcfe5a989566c2a3b8c115570cec5916105189160ff909116906113de565b50565b600b5481565b60135490565b600260005414156105d05760405162461bcd60e51b81526004016105c7906118d1565b60405180910390fd5b6002600055336105de610e37565b6009556105e9610c4e565b6008556001600160a01b0381161561063057610604816103f0565b6001600160a01b0382166000908152600f6020908152604080832093909355600954600e909152919020555b600082116106505760405162461bcd60e51b81526004016105c7906116b8565b601354156106975733600090815260116020526040812054610672904261197e565b905060135481116106955760405162461bcd60e51b81526004016105c790611544565b505b600b546106a49083610ee2565b600b55336000908152601060205260409020546106c19083610ee2565b33600081815260106020526040902091909155600d546106ed916001600160a01b03909116908461100b565b336001600160a01b03167f7084f5476618d8e60b11ef0d7d3f06914655adb8793e28ff7f018d4c76d505d5836040516107269190611908565b60405180910390a250506001600055565b61073f610fe1565b60008211801561074f5750600081115b61076b5760405162461bcd60e51b81526004016105c7906114b0565b600554421161078c5760405162461bcd60e51b81526004016105c7906115a1565b6107968282610f70565b60068190556040517f69155044ae1e4cf9acf985cae44e0d86b5e592e3fb029bc9b39f63b0bdaa4a62916107cd9185918591611911565b60405180910390a15050565b60075481565b6107e7610fe1565b60006107f1610e37565b6009556107fc610c4e565b6008556001600160a01b0381161561084357610817816103f0565b6001600160a01b0382166000908152600f6020908152604080832093909355600954600e909152919020555b6000600654116108655760405162461bcd60e51b81526004016105c790611624565b60055442106108845760065461087c908390610f70565b6007556108c7565b6005546000906108949042610ee2565b905060006108ad60065483610f2b90919063ffffffff16565b6006549091506108c19061045c8684610fb2565b60075550505b600c546040517f70a082310000000000000000000000000000000000000000000000000000000081526000916001600160a01b0316906370a0823190610911903090600401611373565b60206040518083038186803b15801561092957600080fd5b505afa15801561093d573d6000803e3d6000fd5b505050506040513d601f19601f82011682018060405250810190610961919061131e565b905061097860075482610f7090919063ffffffff16565b60065411156109995760405162461bcd60e51b81526004016105c7906117a9565b4260088190556007546109ac9190610fb2565b6005556040517fde88a922e0d3b88b24e9623efeb464919c6bf9f66857a65e2bfcf2ce87a9433d906109df908590611908565b60405180910390a1505050565b60026000541415610a0f5760405162461bcd60e51b81526004016105c7906118d1565b600260005533610a1d610e37565b600955610a28610c4e565b6008556001600160a01b03811615610a6f57610a43816103f0565b6001600160a01b0382166000908152600f6020908152604080832093909355600954600e909152919020555b336000908152600f602052604090205460125415610ac65733600090815260116020526040812054610aa1904261197e565b90506012548111610ac45760405162461bcd60e51b81526004016105c79061174c565b505b8015610b2e57336000818152600f6020526040812055600c54610af5916001600160a01b03909116908361100b565b336001600160a01b03167fe2403640ba68fed3a2f88b7557551d1993f84b99bb10ff833f0cf8db0c5e0486826040516107269190611908565b50506001600055565b6002546001600160a01b031681565b60045460ff1681565b6000610b59610fe1565b50601381905590565b6000610b6c610fe1565b50601481905590565b6001600160a01b031660009081526010602052604090205490565b600d546001600160a01b031681565b6002546001600160a01b03163314610bc95760405162461bcd60e51b81526004016105c79061141c565b6001546002546040517fb532073b38c83145e3e5135377a08bf9aab55bc0fd7c1179cd4fb995d2a5159c92610c0c926001600160a01b0391821692911690611387565b60405180910390a1600280546001805473ffffffffffffffffffffffffffffffffffffffff199081166001600160a01b03841617909155169055565b60065481565b6000610c5c42600554611093565b905090565b6001546001600160a01b031681565b600a5481565b60035481565b60026000541415610c9f5760405162461bcd60e51b81526004016105c7906118d1565b600260005560045460ff1615610cc75760405162461bcd60e51b81526004016105c7906117e0565b33610cd0610e37565b600955610cdb610c4e565b6008556001600160a01b03811615610d2257610cf6816103f0565b6001600160a01b0382166000908152600f6020908152604080832093909355600954600e909152919020555b60008211610d425760405162461bcd60e51b81526004016105c790611479565b600d54610d5a906001600160a01b03163330856110a9565b601454600090610d6c906103e8610f70565b9050610d788184610f2b565b9050610d84818461197e565b601554600d54919450610da6916001600160a01b0390811691309116846110a9565b600b54610db39084610fb2565b600b5533600090815260106020526040902054610dd09084610fb2565b336000818152601060209081526040808320949094556011905282902042905590517f9e71bc8eea02a63969f509818f2dafb9254532904319f9dbda79b67bd34a5f3d90610e1f908690611908565b60405180910390a25050600160005550565b60085481565b6000600b5460001415610e4d57506009546104b5565b610c5c610e7c600b5461045c670de0b6b3a7640000610e76600654610e76600854610437610c4e565b90610f2b565b60095490610fb2565b60125490565b60145490565b600c546001600160a01b031681565b60095481565b6000610eb0610fe1565b50601281905590565b33600090815260106020526040902054610ed2906105a4565b610eda6109ec565b565b60055481565b6000610f2483836040518060400160405280601e81526020017f536166654d6174683a207375627472616374696f6e206f766572666c6f7700008152506110d0565b9392505050565b600082610f3a57506000610468565b6000610f46838561195f565b905082610f53858361193f565b14610f245760405162461bcd60e51b81526004016105c7906116ef565b6000610f2483836040518060400160405280601a81526020017f536166654d6174683a206469766973696f6e206279207a65726f00000000000081525061110a565b600080610fbf8385611927565b905083811015610f245760405162461bcd60e51b81526004016105c79061150d565b6001546001600160a01b03163314610eda5760405162461bcd60e51b81526004016105c79061165b565b61108e8363a9059cbb60e01b848460405160240161102a9291906113c5565b60408051601f198184030181529190526020810180517bffffffffffffffffffffffffffffffffffffffffffffffffffffffff167fffffffff0000000000000000000000000000000000000000000000000000000090931692909217909152611138565b505050565b60008183106110a25781610f24565b5090919050565b6110ca846323b872dd60e01b85858560405160240161102a939291906113a1565b50505050565b600081848411156110f45760405162461bcd60e51b81526004016105c791906113e9565b506000611101848661197e565b95945050505050565b6000818361112b5760405162461bcd60e51b81526004016105c791906113e9565b506000611101848661193f565b600061118d826040518060400160405280602081526020017f5361666545524332303a206c6f772d6c6576656c2063616c6c206661696c6564815250856001600160a01b03166111c79092919063ffffffff16565b80519091501561108e57808060200190518101906111ab91906112ea565b61108e5760405162461bcd60e51b81526004016105c790611874565b60606111d684846000856111de565b949350505050565b60606111e9856112a1565b6112055760405162461bcd60e51b81526004016105c79061183d565b600080866001600160a01b031685876040516112219190611357565b60006040518083038185875af1925050503d806000811461125e576040519150601f19603f3d011682016040523d82523d6000602084013e611263565b606091505b509150915081156112775791506111d69050565b8051156112875780518082602001fd5b8360405162461bcd60e51b81526004016105c791906113e9565b3b151590565b6000602082840312156112b8578081fd5b81356001600160a01b0381168114610f24578182fd5b6000602082840312156112df578081fd5b8135610f24816119d7565b6000602082840312156112fb578081fd5b8151610f24816119d7565b600060208284031215611317578081fd5b5035919050565b60006020828403121561132f578081fd5b5051919050565b60008060408385031215611348578081fd5b50508035926020909101359150565b60008251611369818460208701611995565b9190910192915050565b6001600160a01b0391909116815260200190565b6001600160a01b0392831681529116602082015260400190565b6001600160a01b039384168152919092166020820152604081019190915260600190565b6001600160a01b03929092168252602082015260400190565b901515815260200190565b6000602082528251806020840152611408816040850160208701611995565b601f01601f19169190910160400192915050565b60208082526035908201527f596f75206d757374206265206e6f6d696e61746564206265666f726520796f7560408201527f2063616e20616363657074206f776e6572736869700000000000000000000000606082015260800190565b6020808252600e908201527f43616e6e6f74207374616b652030000000000000000000000000000000000000604082015260600190565b60208082526038908201527f72657761726473506572496e74657276616c20616e6420696e74657276616c2060408201527f73686f756c642062652067726561746572207468616e20300000000000000000606082015260800190565b6020808252601b908201527f536166654d6174683a206164646974696f6e206f766572666c6f770000000000604082015260600190565b60208082526029908201527f4e65656420746f2077616974206d696e696d756d2074696d65206265666f726560408201527f2077697468647261770000000000000000000000000000000000000000000000606082015260800190565b60208082526048908201527f50726576696f7573207265776172647320706572696f64206d7573742062652060408201527f636f6d706c657465206265666f7265206368616e67696e67207468652072657760608201527f6172642072617465000000000000000000000000000000000000000000000000608082015260a00190565b6020808252601a908201527f5265776172642052617465206973206e6f742079657420736574000000000000604082015260600190565b6020808252602f908201527f4f6e6c792074686520636f6e7472616374206f776e6572206d6179207065726660408201527f6f726d207468697320616374696f6e0000000000000000000000000000000000606082015260800190565b60208082526011908201527f43616e6e6f742077697468647261772030000000000000000000000000000000604082015260600190565b60208082526021908201527f536166654d6174683a206d756c7469706c69636174696f6e206f766572666c6f60408201527f7700000000000000000000000000000000000000000000000000000000000000606082015260800190565b60208082526023908201527f4e65656420746f2077616974206265666f72652067657474696e67207265776160408201527f7264730000000000000000000000000000000000000000000000000000000000606082015260800190565b60208082526018908201527f50726f76696465642072657761726420746f6f20686967680000000000000000604082015260600190565b6020808252603c908201527f5468697320616374696f6e2063616e6e6f7420626520706572666f726d65642060408201527f7768696c652074686520636f6e74726163742069732070617573656400000000606082015260800190565b6020808252601d908201527f416464726573733a2063616c6c20746f206e6f6e2d636f6e7472616374000000604082015260600190565b6020808252602a908201527f5361666545524332303a204552433230206f7065726174696f6e20646964206e60408201527f6f74207375636365656400000000000000000000000000000000000000000000606082015260800190565b6020808252601f908201527f5265656e7472616e637947756172643a207265656e7472616e742063616c6c00604082015260600190565b90815260200190565b9283526020830191909152604082015260600190565b6000821982111561193a5761193a6119c1565b500190565b60008261195a57634e487b7160e01b81526012600452602481fd5b500490565b6000816000190483118215151615611979576119796119c1565b500290565b600082821015611990576119906119c1565b500390565b60005b838110156119b0578181015183820152602001611998565b838111156110ca5750506000910152565b634e487b7160e01b600052601160045260246000fd5b801515811461059557600080fdfea2646970667358221220c7ab38afc6be8171e144733784184224edd9b3c9becfab5eadd66f25ee11faa364736f6c63430008000033",
  "linkReferences": {},
  "deployedLinkReferences": {}
}