{
  "_format": "hh-sol-artifact-1",
  "contractName": "GrayblockStaking",
  "sourceName": "contracts/Staking.sol",
  "abi": [
    {
      "inputs": [
        {
          "internalType": "contract IERC20",
          "name": "_tradedToken",
          "type": "address"
        },
        {
          "internalType": "contract IERC20",
          "name": "_projectToken",
          "type": "address"
        },
        {
          "internalType": "address",
          "name": "_feeCollector",
          "type": "address"
        }
      ],
      "stateMutability": "nonpayable",
      "type": "constructor"
    },
    {
      "anonymous": false,
      "inputs": [],
      "name": "AllocationUpdated",
      "type": "event"
    },
    {
      "anonymous": false,
      "inputs": [],
      "name": "GrayblockStakingContractDeployed",
      "type": "event"
    },
    {
      "anonymous": false,
      "inputs": [
        {
          "indexed": true,
          "internalType": "address",
          "name": "previousOwner",
          "type": "address"
        },
        {
          "indexed": true,
          "internalType": "address",
          "name": "newOwner",
          "type": "address"
        }
      ],
      "name": "OwnershipTransferred",
      "type": "event"
    },
    {
      "anonymous": false,
      "inputs": [
        {
          "indexed": false,
          "internalType": "address",
          "name": "staker",
          "type": "address"
        },
        {
          "indexed": false,
          "internalType": "uint256",
          "name": "amount",
          "type": "uint256"
        }
      ],
      "name": "Staked",
      "type": "event"
    },
    {
      "anonymous": false,
      "inputs": [
        {
          "indexed": false,
          "internalType": "address",
          "name": "engeryDeveloper",
          "type": "address"
        },
        {
          "indexed": false,
          "internalType": "uint256",
          "name": "amount",
          "type": "uint256"
        }
      ],
      "name": "TradedTokenPut",
      "type": "event"
    },
    {
      "anonymous": false,
      "inputs": [
        {
          "indexed": false,
          "internalType": "address",
          "name": "staker",
          "type": "address"
        },
        {
          "indexed": false,
          "internalType": "uint256",
          "name": "amount",
          "type": "uint256"
        }
      ],
      "name": "UnStaked",
      "type": "event"
    },
    {
      "inputs": [],
      "name": "claimReward",
      "outputs": [],
      "stateMutability": "nonpayable",
      "type": "function"
    },
    {
      "inputs": [],
      "name": "feeBps",
      "outputs": [
        {
          "internalType": "uint256",
          "name": "",
          "type": "uint256"
        }
      ],
      "stateMutability": "view",
      "type": "function"
    },
    {
      "inputs": [],
      "name": "feeCollector",
      "outputs": [
        {
          "internalType": "address",
          "name": "",
          "type": "address"
        }
      ],
      "stateMutability": "view",
      "type": "function"
    },
    {
      "inputs": [],
      "name": "getReward",
      "outputs": [
        {
          "internalType": "uint256",
          "name": "",
          "type": "uint256"
        }
      ],
      "stateMutability": "view",
      "type": "function"
    },
    {
      "inputs": [],
      "name": "lockTime",
      "outputs": [
        {
          "internalType": "uint256",
          "name": "",
          "type": "uint256"
        }
      ],
      "stateMutability": "view",
      "type": "function"
    },
    {
      "inputs": [],
      "name": "owner",
      "outputs": [
        {
          "internalType": "address",
          "name": "",
          "type": "address"
        }
      ],
      "stateMutability": "view",
      "type": "function"
    },
    {
      "inputs": [],
      "name": "projectToken",
      "outputs": [
        {
          "internalType": "contract IERC20",
          "name": "",
          "type": "address"
        }
      ],
      "stateMutability": "view",
      "type": "function"
    },
    {
      "inputs": [
        {
          "internalType": "uint256",
          "name": "_amount",
          "type": "uint256"
        }
      ],
      "name": "putTradedToken",
      "outputs": [],
      "stateMutability": "nonpayable",
      "type": "function"
    },
    {
      "inputs": [],
      "name": "renounceOwnership",
      "outputs": [],
      "stateMutability": "nonpayable",
      "type": "function"
    },
    {
      "inputs": [
        {
          "internalType": "uint256",
          "name": "_feeBps",
          "type": "uint256"
        }
      ],
      "name": "setFeeBps",
      "outputs": [],
      "stateMutability": "nonpayable",
      "type": "function"
    },
    {
      "inputs": [
        {
          "internalType": "address",
          "name": "_feeCollector",
          "type": "address"
        }
      ],
      "name": "setFeeCollector",
      "outputs": [],
      "stateMutability": "nonpayable",
      "type": "function"
    },
    {
      "inputs": [
        {
          "internalType": "uint256",
          "name": "_lockTime",
          "type": "uint256"
        }
      ],
      "name": "setLockTime",
      "outputs": [],
      "stateMutability": "nonpayable",
      "type": "function"
    },
    {
      "inputs": [
        {
          "internalType": "uint256",
          "name": "_amount",
          "type": "uint256"
        }
      ],
      "name": "stake",
      "outputs": [],
      "stateMutability": "nonpayable",
      "type": "function"
    },
    {
      "inputs": [],
      "name": "tradedToken",
      "outputs": [
        {
          "internalType": "contract IERC20",
          "name": "",
          "type": "address"
        }
      ],
      "stateMutability": "view",
      "type": "function"
    },
    {
      "inputs": [
        {
          "internalType": "address",
          "name": "newOwner",
          "type": "address"
        }
      ],
      "name": "transferOwnership",
      "outputs": [],
      "stateMutability": "nonpayable",
      "type": "function"
    },
    {
      "inputs": [
        {
          "internalType": "uint256",
          "name": "_amount",
          "type": "uint256"
        }
      ],
      "name": "unStake",
      "outputs": [],
      "stateMutability": "nonpayable",
      "type": "function"
    },
    {
      "inputs": [
        {
          "internalType": "uint256",
          "name": "rewardAmount",
          "type": "uint256"
        }
      ],
      "name": "updateAllocation",
      "outputs": [],
      "stateMutability": "nonpayable",
      "type": "function"
    }
  ],
  "bytecode": "0x6080604052620151806006553480156200001857600080fd5b50604051620014bf380380620014bf8339810160408190526200003b916200011e565b6001600055620000546200004e620000c8565b620000cc565b600280546001600160a01b038086166001600160a01b03199283161790925560038054858416908316179055600480549284169290911691909117905560646005556040517f18e807c5f79e7b976a1c68e74afcbfc80e6ccb9fde4e564e99c51c5046a2ecc790600090a15050506200018a565b3390565b600180546001600160a01b038381166001600160a01b0319831681179093556040519116919082907f8be0079c531659141344cd1fd0a4f28419497f9722a3daafe3b4186f6b6457e090600090a35050565b60008060006060848603121562000133578283fd5b8351620001408162000171565b6020850151909350620001538162000171565b6040850151909250620001668162000171565b809150509250925092565b6001600160a01b03811681146200018757600080fd5b50565b611325806200019a6000396000f3fe608060405234801561001057600080fd5b506004361061011b5760003560e01c80638da5cb5b116100b2578063b88a802f11610081578063db0b27fd11610066578063db0b27fd146101f7578063f2fde38b146101ff578063fe158787146102125761011b565b8063b88a802f146101e7578063c415b95c146101ef5761011b565b80638da5cb5b146101a6578063a42dce80146101ae578063a694fc3a146101c1578063ae04d45d146101d45761011b565b80634b60ce77116100ee5780634b60ce77146101635780635d3eea9114610178578063715018a61461018b57806372c27b62146101935761011b565b80630d6680871461012057806324a9d8531461013e5780633d18b91214610146578063462c23af1461014e575b600080fd5b610128610225565b60405161013591906111d4565b60405180910390f35b61012861022b565b610128610231565b61016161015c366004610fb0565b610247565b005b61016b610586565b6040516101359190610fe0565b610161610186366004610fb0565b610595565b610161610760565b6101616101a1366004610fb0565b6107ab565b61016b6107ef565b6101616101bc366004610f58565b6107fe565b6101616101cf366004610fb0565b61086c565b6101616101e2366004610fb0565b610b86565b610161610bca565b61016b610cca565b61016b610cd9565b61016161020d366004610f58565b610ce8565b610161610220366004610fb0565b610d59565b60065481565b60055481565b3360009081526008602052604090206002015490565b61024f610eba565b6001600160a01b03166102606107ef565b6001600160a01b03161461028f5760405162461bcd60e51b815260040161028690611133565b60405180910390fd5b6002546040516370a0823160e01b81526000916001600160a01b0316906370a08231906102c0903090600401610fe0565b60206040518083038186803b1580156102d857600080fd5b505afa1580156102ec573d6000803e3d6000fd5b505050506040513d601f19601f820116820180604052508101906103109190610fc8565b6002546040516370a0823160e01b81529192506000916001600160a01b03909116906370a0823190610346903090600401610fe0565b60206040518083038186803b15801561035e57600080fd5b505afa158015610372573d6000803e3d6000fd5b505050506040513d601f19601f820116820180604052508101906103969190610fc8565b9050828210156103b85760405162461bcd60e51b81526004016102869061108e565b60005b6040517fdeb3d89600000000000000000000000000000000000000000000000000000000815273__$55b008388ae88b5ad7d10989d1583a79e8$__9063deb3d8969061040c906007906004016111d4565b60206040518083038186803b15801561042457600080fd5b505af4158015610438573d6000803e3d6000fd5b505050506040513d601f19601f8201168201806040525081019061045c9190610fc8565b811015610557576040517fd1aa9e7e00000000000000000000000000000000000000000000000000000000815260009073__$55b008388ae88b5ad7d10989d1583a79e8$__9063d1aa9e7e906104b990600790869060040161122d565b60206040518083038186803b1580156104d157600080fd5b505af41580156104e5573d6000803e3d6000fd5b505050506040513d601f19601f820116820180604052508101906105099190610f74565b6001600160a01b038116600090815260086020526040902080549192509061053e908590610538908990610ebe565b90610ed1565b600290910155508061054f816112a9565b9150506103bb565b506040517f51765249e2233e490315ce9e74497e4a8d44f02b422a202004a11b1b391ad5b390600090a1505050565b6003546001600160a01b031681565b33600090815260086020526040902080548211156105c55760405162461bcd60e51b815260040161028690611168565b60065460018201546105d691610edd565b6105de610ee9565b10156105fc5760405162461bcd60e51b81526004016102869061119f565b805482141561068d576040517f4c60db9c00000000000000000000000000000000000000000000000000000000815273__$55b008388ae88b5ad7d10989d1583a79e8$__90634c60db9c906106589060079033906004016111dd565b60006040518083038186803b15801561067057600080fd5b505af4158015610684573d6000803e3d6000fd5b5050505061069c565b80546106999083610eed565b81555b6003546040516323b872dd60e01b81526001600160a01b03909116906323b872dd906106d090309033908790600401610ff4565b602060405180830381600087803b1580156106ea57600080fd5b505af11580156106fe573d6000803e3d6000fd5b505050506040513d601f19601f820116820180604052508101906107229190610f90565b507f79d3df6837cc49ff0e09fd3258e6e45594e0703445bb06825e9d75156eaee8f03383604051610754929190611018565b60405180910390a15050565b610768610eba565b6001600160a01b03166107796107ef565b6001600160a01b03161461079f5760405162461bcd60e51b815260040161028690611133565b6107a96000610ef9565b565b6107b3610eba565b6001600160a01b03166107c46107ef565b6001600160a01b0316146107ea5760405162461bcd60e51b815260040161028690611133565b600555565b6001546001600160a01b031690565b610806610eba565b6001600160a01b03166108176107ef565b6001600160a01b03161461083d5760405162461bcd60e51b815260040161028690611133565b6004805473ffffffffffffffffffffffffffffffffffffffff19166001600160a01b0392909216919091179055565b6003546040516370a0823160e01b815282916001600160a01b0316906370a082319061089c903390600401610fe0565b60206040518083038186803b1580156108b457600080fd5b505afa1580156108c8573d6000803e3d6000fd5b505050506040513d601f19601f820116820180604052508101906108ec9190610fc8565b101561090a5760405162461bcd60e51b815260040161028690611168565b600061093361271061053861092c600554612710610eed90919063ffffffff16565b8590610ebe565b6003546004549192506001600160a01b03908116916323b872dd9133911661095b8587610eed565b6040518463ffffffff1660e01b815260040161097993929190610ff4565b602060405180830381600087803b15801561099357600080fd5b505af11580156109a7573d6000803e3d6000fd5b505050506040513d601f19601f820116820180604052508101906109cb9190610f90565b506003546040516323b872dd60e01b81526001600160a01b03909116906323b872dd90610a0090339030908690600401610ff4565b602060405180830381600087803b158015610a1a57600080fd5b505af1158015610a2e573d6000803e3d6000fd5b505050506040513d601f19601f82011682018060405250810190610a529190610f90565b50336000908152600a602052604090205460ff1615610aa65733600090815260086020526040902054610a859082610edd565b50610a8e610ee9565b33600090815260086020526040902060010155610b55565b60006040518060600160405280838152602001610ac1610ee9565b815260006020909101526040517f14ca441e00000000000000000000000000000000000000000000000000000000815290915073__$55b008388ae88b5ad7d10989d1583a79e8$__906314ca441e90610b2390600790339086906004016111f4565b60006040518083038186803b158015610b3b57600080fd5b505af4158015610b4f573d6000803e3d6000fd5b50505050505b7f9e71bc8eea02a63969f509818f2dafb9254532904319f9dbda79b67bd34a5f3d3383604051610754929190611018565b610b8e610eba565b6001600160a01b0316610b9f6107ef565b6001600160a01b031614610bc55760405162461bcd60e51b815260040161028690611133565b600655565b336000908152600a602052604090205460ff16610bf95760405162461bcd60e51b8152600401610286906110c5565b33600090815260086020526040902060020154610c285760405162461bcd60e51b8152600401610286906110fc565b33600081815260086020526040808220600290810180549390555490516323b872dd60e01b815291926001600160a01b03909116916323b872dd91610c74913091908690600401610ff4565b602060405180830381600087803b158015610c8e57600080fd5b505af1158015610ca2573d6000803e3d6000fd5b505050506040513d601f19601f82011682018060405250810190610cc69190610f90565b5050565b6004546001600160a01b031681565b6002546001600160a01b031681565b610cf0610eba565b6001600160a01b0316610d016107ef565b6001600160a01b031614610d275760405162461bcd60e51b815260040161028690611133565b6001600160a01b038116610d4d5760405162461bcd60e51b815260040161028690611031565b610d5681610ef9565b50565b6002546040516370a0823160e01b815282916001600160a01b0316906370a0823190610d89903390600401610fe0565b60206040518083038186803b158015610da157600080fd5b505afa158015610db5573d6000803e3d6000fd5b505050506040513d601f19601f82011682018060405250810190610dd99190610fc8565b1015610df75760405162461bcd60e51b815260040161028690611168565b6002546040516323b872dd60e01b81526001600160a01b03909116906323b872dd90610e2b90339030908690600401610ff4565b602060405180830381600087803b158015610e4557600080fd5b505af1158015610e59573d6000803e3d6000fd5b505050506040513d601f19601f82011682018060405250810190610e7d9190610f90565b507f1ffb19462db9096dfb3a0c6225c6189d758d472f40541d2c773ea893bfcb3f0a3382604051610eaf929190611018565b60405180910390a150565b3390565b6000610eca8284611273565b9392505050565b6000610eca8284611253565b6000610eca828461123b565b4290565b6000610eca8284611292565b600180546001600160a01b0383811673ffffffffffffffffffffffffffffffffffffffff19831681179093556040519116919082907f8be0079c531659141344cd1fd0a4f28419497f9722a3daafe3b4186f6b6457e090600090a35050565b600060208284031215610f69578081fd5b8135610eca816112da565b600060208284031215610f85578081fd5b8151610eca816112da565b600060208284031215610fa1578081fd5b81518015158114610eca578182fd5b600060208284031215610fc1578081fd5b5035919050565b600060208284031215610fd9578081fd5b5051919050565b6001600160a01b0391909116815260200190565b6001600160a01b039384168152919092166020820152604081019190915260600190565b6001600160a01b03929092168252602082015260400190565b60208082526026908201527f4f776e61626c653a206e6577206f776e657220697320746865207a65726f206160408201527f6464726573730000000000000000000000000000000000000000000000000000606082015260800190565b60208082526011908201527f6e6f7420656e6f75676820726577617264000000000000000000000000000000604082015260600190565b6020808252600a908201527f6e6f74207374616b657200000000000000000000000000000000000000000000604082015260600190565b60208082526009908201527f6e6f207265776172640000000000000000000000000000000000000000000000604082015260600190565b6020808252818101527f4f776e61626c653a2063616c6c6572206973206e6f7420746865206f776e6572604082015260600190565b60208082526014908201527f696e73756666696369656e742062616c616e6365000000000000000000000000604082015260600190565b6020808252818101527f63616e206e6f7420756e7374616b6520647572696e67206c6f636b2074696d65604082015260600190565b90815260200190565b9182526001600160a01b0316602082015260400190565b9283526001600160a01b039190911660208084019190915281516040808501919091529082015160608401520151608082015260a00190565b918252602082015260400190565b6000821982111561124e5761124e6112c4565b500190565b60008261126e57634e487b7160e01b81526012600452602481fd5b500490565b600081600019048311821515161561128d5761128d6112c4565b500290565b6000828210156112a4576112a46112c4565b500390565b60006000198214156112bd576112bd6112c4565b5060010190565b634e487b7160e01b600052601160045260246000fd5b6001600160a01b0381168114610d5657600080fdfea2646970667358221220b4becb3e88c4c525dc14585e3e7b08fb34b1bf661339211f2560e695167279c964736f6c63430008000033",
  "linkReferences": {
    "contracts/libs/IterableMapping.sol": {
      "IterableMapping": [
        {
          "length": 20,
          "start": 1405
        },
        {
          "length": 20,
          "start": 1576
        },
        {
          "length": 20,
          "start": 1991
        },
        {
          "length": 20,
          "start": 3216
        }
      ]
    }
  },
  "deployedLinkReferences": {
    "contracts/libs/IterableMapping.sol": {
      "IterableMapping": [
        {
          "length": 20,
          "start": 995
        },
        {
          "length": 20,
          "start": 1166
        },
        {
          "length": 20,
          "start": 1581
        },
        {
          "length": 20,
          "start": 2806
        }
      ]
    }
  }
}