{
  "_format": "hh-sol-artifact-1",
  "contractName": "GrayblockStaking",
  "sourceName": "contracts/Staking.sol",
  "abi": [
    {
      "inputs": [
        {
          "internalType": "contract IERC20",
          "name": "_tradedToken",
          "type": "address"
        },
        {
          "internalType": "contract IERC20",
          "name": "_projectToken",
          "type": "address"
        },
        {
          "internalType": "address",
          "name": "_feeCollector",
          "type": "address"
        }
      ],
      "stateMutability": "nonpayable",
      "type": "constructor"
    },
    {
      "anonymous": false,
      "inputs": [],
      "name": "AllocationUpdated",
      "type": "event"
    },
    {
      "anonymous": false,
      "inputs": [],
      "name": "GrayblockStakingContractDeployed",
      "type": "event"
    },
    {
      "anonymous": false,
      "inputs": [
        {
          "indexed": true,
          "internalType": "address",
          "name": "previousOwner",
          "type": "address"
        },
        {
          "indexed": true,
          "internalType": "address",
          "name": "newOwner",
          "type": "address"
        }
      ],
      "name": "OwnershipTransferred",
      "type": "event"
    },
    {
      "anonymous": false,
      "inputs": [
        {
          "indexed": false,
          "internalType": "address",
          "name": "staker",
          "type": "address"
        },
        {
          "indexed": false,
          "internalType": "uint256",
          "name": "amount",
          "type": "uint256"
        }
      ],
      "name": "Staked",
      "type": "event"
    },
    {
      "anonymous": false,
      "inputs": [
        {
          "indexed": false,
          "internalType": "address",
          "name": "engeryDeveloper",
          "type": "address"
        },
        {
          "indexed": false,
          "internalType": "uint256",
          "name": "amount",
          "type": "uint256"
        }
      ],
      "name": "TradedTokenPut",
      "type": "event"
    },
    {
      "anonymous": false,
      "inputs": [
        {
          "indexed": false,
          "internalType": "address",
          "name": "staker",
          "type": "address"
        },
        {
          "indexed": false,
          "internalType": "uint256",
          "name": "amount",
          "type": "uint256"
        }
      ],
      "name": "UnStaked",
      "type": "event"
    },
    {
      "inputs": [],
      "name": "claimReward",
      "outputs": [],
      "stateMutability": "nonpayable",
      "type": "function"
    },
    {
      "inputs": [],
      "name": "feeBps",
      "outputs": [
        {
          "internalType": "uint256",
          "name": "",
          "type": "uint256"
        }
      ],
      "stateMutability": "view",
      "type": "function"
    },
    {
      "inputs": [],
      "name": "feeCollector",
      "outputs": [
        {
          "internalType": "address",
          "name": "",
          "type": "address"
        }
      ],
      "stateMutability": "view",
      "type": "function"
    },
    {
      "inputs": [],
      "name": "getReward",
      "outputs": [
        {
          "internalType": "uint256",
          "name": "",
          "type": "uint256"
        }
      ],
      "stateMutability": "view",
      "type": "function"
    },
    {
      "inputs": [],
      "name": "lockTime",
      "outputs": [
        {
          "internalType": "uint256",
          "name": "",
          "type": "uint256"
        }
      ],
      "stateMutability": "view",
      "type": "function"
    },
    {
      "inputs": [],
      "name": "owner",
      "outputs": [
        {
          "internalType": "address",
          "name": "",
          "type": "address"
        }
      ],
      "stateMutability": "view",
      "type": "function"
    },
    {
      "inputs": [],
      "name": "projectToken",
      "outputs": [
        {
          "internalType": "contract IERC20",
          "name": "",
          "type": "address"
        }
      ],
      "stateMutability": "view",
      "type": "function"
    },
    {
      "inputs": [
        {
          "internalType": "uint256",
          "name": "_amount",
          "type": "uint256"
        }
      ],
      "name": "putTradedToken",
      "outputs": [],
      "stateMutability": "nonpayable",
      "type": "function"
    },
    {
      "inputs": [],
      "name": "renounceOwnership",
      "outputs": [],
      "stateMutability": "nonpayable",
      "type": "function"
    },
    {
      "inputs": [
        {
          "internalType": "uint256",
          "name": "_feeBps",
          "type": "uint256"
        }
      ],
      "name": "setFeeBps",
      "outputs": [],
      "stateMutability": "nonpayable",
      "type": "function"
    },
    {
      "inputs": [
        {
          "internalType": "address",
          "name": "_feeCollector",
          "type": "address"
        }
      ],
      "name": "setFeeCollector",
      "outputs": [],
      "stateMutability": "nonpayable",
      "type": "function"
    },
    {
      "inputs": [
        {
          "internalType": "uint256",
          "name": "_lockTime",
          "type": "uint256"
        }
      ],
      "name": "setLockTime",
      "outputs": [],
      "stateMutability": "nonpayable",
      "type": "function"
    },
    {
      "inputs": [
        {
          "internalType": "uint256",
          "name": "_amount",
          "type": "uint256"
        }
      ],
      "name": "stake",
      "outputs": [],
      "stateMutability": "nonpayable",
      "type": "function"
    },
    {
      "inputs": [],
      "name": "tradedToken",
      "outputs": [
        {
          "internalType": "contract IERC20",
          "name": "",
          "type": "address"
        }
      ],
      "stateMutability": "view",
      "type": "function"
    },
    {
      "inputs": [
        {
          "internalType": "address",
          "name": "newOwner",
          "type": "address"
        }
      ],
      "name": "transferOwnership",
      "outputs": [],
      "stateMutability": "nonpayable",
      "type": "function"
    },
    {
      "inputs": [
        {
          "internalType": "uint256",
          "name": "_amount",
          "type": "uint256"
        }
      ],
      "name": "unStake",
      "outputs": [],
      "stateMutability": "nonpayable",
      "type": "function"
    },
    {
      "inputs": [],
      "name": "updateAllocation",
      "outputs": [],
      "stateMutability": "nonpayable",
      "type": "function"
    }
  ],
  "bytecode": "0x6080604052620151806006553480156200001857600080fd5b5060405162001404380380620014048339810160408190526200003b916200011e565b6001600055620000546200004e620000c8565b620000cc565b600280546001600160a01b038086166001600160a01b03199283161790925560038054858416908316179055600480549284169290911691909117905560646005556040517f18e807c5f79e7b976a1c68e74afcbfc80e6ccb9fde4e564e99c51c5046a2ecc790600090a15050506200018a565b3390565b600180546001600160a01b038381166001600160a01b0319831681179093556040519116919082907f8be0079c531659141344cd1fd0a4f28419497f9722a3daafe3b4186f6b6457e090600090a35050565b60008060006060848603121562000133578283fd5b8351620001408162000171565b6020850151909350620001538162000171565b6040850151909250620001668162000171565b809150509250925092565b6001600160a01b03811681146200018757600080fd5b50565b61126a806200019a6000396000f3fe608060405234801561001057600080fd5b506004361061011b5760003560e01c80638da5cb5b116100b2578063b88a802f11610081578063db0b27fd11610066578063db0b27fd146101ec578063f2fde38b146101f4578063fe158787146102075761011b565b8063b88a802f146101dc578063c415b95c146101e45761011b565b80638da5cb5b1461019b578063a42dce80146101a3578063a694fc3a146101b6578063ae04d45d146101c95761011b565b80635d3eea91116100ee5780635d3eea91146101635780636ecb811414610178578063715018a61461018057806372c27b62146101885761011b565b80630d6680871461012057806324a9d8531461013e5780633d18b912146101465780634b60ce771461014e575b600080fd5b61012861021a565b6040516101359190611119565b60405180910390f35b610128610220565b610128610226565b61015661023c565b6040516101359190610f5c565b610176610171366004610f2c565b61024b565b005b61017661042d565b6101766106ce565b610176610196366004610f2c565b610719565b61015661075d565b6101766101b1366004610ed4565b61076c565b6101766101c4366004610f2c565b6107da565b6101766101d7366004610f2c565b610b02565b610176610b46565b610156610c46565b610156610c55565b610176610202366004610ed4565b610c64565b610176610215366004610f2c565b610cd5565b60065481565b60055481565b3360009081526009602052604090206002015490565b6003546001600160a01b031681565b33600090815260096020526040902080548211156102845760405162461bcd60e51b815260040161027b906110ad565b60405180910390fd5b600654600182015461029591610e36565b61029d610e49565b10156102bb5760405162461bcd60e51b815260040161027b906110e4565b805482141561034c576040517f4c60db9c00000000000000000000000000000000000000000000000000000000815273__$55b008388ae88b5ad7d10989d1583a79e8$__90634c60db9c90610317906008903390600401611122565b60006040518083038186803b15801561032f57600080fd5b505af4158015610343573d6000803e3d6000fd5b5050505061035b565b80546103589083610e4d565b81555b6007546103689083610e4d565b506003546040516323b872dd60e01b81526001600160a01b03909116906323b872dd9061039d90309033908790600401610f70565b602060405180830381600087803b1580156103b757600080fd5b505af11580156103cb573d6000803e3d6000fd5b505050506040513d601f19601f820116820180604052508101906103ef9190610f0c565b507f79d3df6837cc49ff0e09fd3258e6e45594e0703445bb06825e9d75156eaee8f03383604051610421929190610f94565b60405180910390a15050565b610435610e59565b6001600160a01b031661044661075d565b6001600160a01b03161461046c5760405162461bcd60e51b815260040161027b90611078565b6002546040516370a0823160e01b81526000916001600160a01b0316906370a082319061049d903090600401610f5c565b60206040518083038186803b1580156104b557600080fd5b505afa1580156104c9573d6000803e3d6000fd5b505050506040513d601f19601f820116820180604052508101906104ed9190610f44565b60075490915060005b6040517fdeb3d89600000000000000000000000000000000000000000000000000000000815273__$55b008388ae88b5ad7d10989d1583a79e8$__9063deb3d8969061054790600890600401611119565b60206040518083038186803b15801561055f57600080fd5b505af4158015610573573d6000803e3d6000fd5b505050506040513d601f19601f820116820180604052508101906105979190610f44565b811015610692576040517fd1aa9e7e00000000000000000000000000000000000000000000000000000000815260009073__$55b008388ae88b5ad7d10989d1583a79e8$__9063d1aa9e7e906105f4906008908690600401611172565b60206040518083038186803b15801561060c57600080fd5b505af4158015610620573d6000803e3d6000fd5b505050506040513d601f19601f820116820180604052508101906106449190610ef0565b6001600160a01b0381166000908152600960205260409020805491925090610679908590610673908890610e5d565b90610e69565b600290910155508061068a816111ee565b9150506104f6565b506007546106a09082610e4d565b506040517f51765249e2233e490315ce9e74497e4a8d44f02b422a202004a11b1b391ad5b390600090a15050565b6106d6610e59565b6001600160a01b03166106e761075d565b6001600160a01b03161461070d5760405162461bcd60e51b815260040161027b90611078565b6107176000610e75565b565b610721610e59565b6001600160a01b031661073261075d565b6001600160a01b0316146107585760405162461bcd60e51b815260040161027b90611078565b600555565b6001546001600160a01b031690565b610774610e59565b6001600160a01b031661078561075d565b6001600160a01b0316146107ab5760405162461bcd60e51b815260040161027b90611078565b6004805473ffffffffffffffffffffffffffffffffffffffff19166001600160a01b0392909216919091179055565b6003546040516370a0823160e01b815282916001600160a01b0316906370a082319061080a903390600401610f5c565b60206040518083038186803b15801561082257600080fd5b505afa158015610836573d6000803e3d6000fd5b505050506040513d601f19601f8201168201806040525081019061085a9190610f44565b10156108785760405162461bcd60e51b815260040161027b906110ad565b60006108a161271061067361089a612710600554610e3690919063ffffffff16565b8590610e5d565b6003546004549192506001600160a01b03908116916323b872dd913391166108c98587610e4d565b6040518463ffffffff1660e01b81526004016108e793929190610f70565b602060405180830381600087803b15801561090157600080fd5b505af1158015610915573d6000803e3d6000fd5b505050506040513d601f19601f820116820180604052508101906109399190610f0c565b506003546040516323b872dd60e01b81526001600160a01b03909116906323b872dd9061096e90339030908690600401610f70565b602060405180830381600087803b15801561098857600080fd5b505af115801561099c573d6000803e3d6000fd5b505050506040513d601f19601f820116820180604052508101906109c09190610f0c565b50336000908152600b602052604090205460ff1615610a1457336000908152600960205260409020546109f39082610e36565b506109fc610e49565b33600090815260096020526040902060010155610ac3565b60006040518060600160405280838152602001610a2f610e49565b815260006020909101526040517f14ca441e00000000000000000000000000000000000000000000000000000000815290915073__$55b008388ae88b5ad7d10989d1583a79e8$__906314ca441e90610a919060089033908690600401611139565b60006040518083038186803b158015610aa957600080fd5b505af4158015610abd573d6000803e3d6000fd5b50505050505b600754610ad09082610e36565b507f9e71bc8eea02a63969f509818f2dafb9254532904319f9dbda79b67bd34a5f3d3383604051610421929190610f94565b610b0a610e59565b6001600160a01b0316610b1b61075d565b6001600160a01b031614610b415760405162461bcd60e51b815260040161027b90611078565b600655565b336000908152600b602052604090205460ff16610b755760405162461bcd60e51b815260040161027b9061100a565b33600090815260096020526040902060020154610ba45760405162461bcd60e51b815260040161027b90611041565b33600081815260096020526040808220600290810180549390555490516323b872dd60e01b815291926001600160a01b03909116916323b872dd91610bf0913091908690600401610f70565b602060405180830381600087803b158015610c0a57600080fd5b505af1158015610c1e573d6000803e3d6000fd5b505050506040513d601f19601f82011682018060405250810190610c429190610f0c565b5050565b6004546001600160a01b031681565b6002546001600160a01b031681565b610c6c610e59565b6001600160a01b0316610c7d61075d565b6001600160a01b031614610ca35760405162461bcd60e51b815260040161027b90611078565b6001600160a01b038116610cc95760405162461bcd60e51b815260040161027b90610fad565b610cd281610e75565b50565b6002546040516370a0823160e01b815282916001600160a01b0316906370a0823190610d05903390600401610f5c565b60206040518083038186803b158015610d1d57600080fd5b505afa158015610d31573d6000803e3d6000fd5b505050506040513d601f19601f82011682018060405250810190610d559190610f44565b1015610d735760405162461bcd60e51b815260040161027b906110ad565b6002546040516323b872dd60e01b81526001600160a01b03909116906323b872dd90610da790339030908690600401610f70565b602060405180830381600087803b158015610dc157600080fd5b505af1158015610dd5573d6000803e3d6000fd5b505050506040513d601f19601f82011682018060405250810190610df99190610f0c565b507f1ffb19462db9096dfb3a0c6225c6189d758d472f40541d2c773ea893bfcb3f0a3382604051610e2b929190610f94565b60405180910390a150565b6000610e428284611180565b9392505050565b4290565b6000610e4282846111d7565b3390565b6000610e4282846111b8565b6000610e428284611198565b600180546001600160a01b0383811673ffffffffffffffffffffffffffffffffffffffff19831681179093556040519116919082907f8be0079c531659141344cd1fd0a4f28419497f9722a3daafe3b4186f6b6457e090600090a35050565b600060208284031215610ee5578081fd5b8135610e428161121f565b600060208284031215610f01578081fd5b8151610e428161121f565b600060208284031215610f1d578081fd5b81518015158114610e42578182fd5b600060208284031215610f3d578081fd5b5035919050565b600060208284031215610f55578081fd5b5051919050565b6001600160a01b0391909116815260200190565b6001600160a01b039384168152919092166020820152604081019190915260600190565b6001600160a01b03929092168252602082015260400190565b60208082526026908201527f4f776e61626c653a206e6577206f776e657220697320746865207a65726f206160408201527f6464726573730000000000000000000000000000000000000000000000000000606082015260800190565b6020808252600a908201527f6e6f74207374616b657200000000000000000000000000000000000000000000604082015260600190565b60208082526009908201527f6e6f207265776172640000000000000000000000000000000000000000000000604082015260600190565b6020808252818101527f4f776e61626c653a2063616c6c6572206973206e6f7420746865206f776e6572604082015260600190565b60208082526014908201527f696e73756666696369656e742062616c616e6365000000000000000000000000604082015260600190565b6020808252818101527f63616e206e6f7420756e7374616b6520647572696e67206c6f636b2074696d65604082015260600190565b90815260200190565b9182526001600160a01b0316602082015260400190565b9283526001600160a01b039190911660208084019190915281516040808501919091529082015160608401520151608082015260a00190565b918252602082015260400190565b6000821982111561119357611193611209565b500190565b6000826111b357634e487b7160e01b81526012600452602481fd5b500490565b60008160001904831182151516156111d2576111d2611209565b500290565b6000828210156111e9576111e9611209565b500390565b600060001982141561120257611202611209565b5060010190565b634e487b7160e01b600052601160045260246000fd5b6001600160a01b0381168114610cd257600080fdfea2646970667358221220b749e0d95b50b02ea25023569e00bbe5e994045561040b7e0624d3114f46efc464736f6c63430008000033",
  "linkReferences": {
    "contracts/libs/IterableMapping.sol": {
      "IterableMapping": [
        {
          "length": 20,
          "start": 1158
        },
        {
          "length": 20,
          "start": 1720
        },
        {
          "length": 20,
          "start": 1891
        },
        {
          "length": 20,
          "start": 3070
        }
      ]
    }
  },
  "deployedLinkReferences": {
    "contracts/libs/IterableMapping.sol": {
      "IterableMapping": [
        {
          "length": 20,
          "start": 748
        },
        {
          "length": 20,
          "start": 1310
        },
        {
          "length": 20,
          "start": 1481
        },
        {
          "length": 20,
          "start": 2660
        }
      ]
    }
  }
}