{
  "_format": "hh-sol-artifact-1",
  "contractName": "GrayblockStaking",
  "sourceName": "contracts/Staking.sol",
  "abi": [
    {
      "inputs": [
        {
          "internalType": "contract IERC20",
          "name": "_tradedToken",
          "type": "address"
        },
        {
          "internalType": "contract IERC20",
          "name": "_projectToken",
          "type": "address"
        },
        {
          "internalType": "address",
          "name": "_feeCollector",
          "type": "address"
        }
      ],
      "stateMutability": "nonpayable",
      "type": "constructor"
    },
    {
      "anonymous": false,
      "inputs": [],
      "name": "AllocationUpdated",
      "type": "event"
    },
    {
      "anonymous": false,
      "inputs": [],
      "name": "GrayblockStakingContractDeployed",
      "type": "event"
    },
    {
      "anonymous": false,
      "inputs": [
        {
          "indexed": true,
          "internalType": "address",
          "name": "previousOwner",
          "type": "address"
        },
        {
          "indexed": true,
          "internalType": "address",
          "name": "newOwner",
          "type": "address"
        }
      ],
      "name": "OwnershipTransferred",
      "type": "event"
    },
    {
      "anonymous": false,
      "inputs": [
        {
          "indexed": false,
          "internalType": "address",
          "name": "staker",
          "type": "address"
        },
        {
          "indexed": false,
          "internalType": "uint256",
          "name": "amount",
          "type": "uint256"
        }
      ],
      "name": "Staked",
      "type": "event"
    },
    {
      "anonymous": false,
      "inputs": [
        {
          "indexed": false,
          "internalType": "address",
          "name": "engeryDeveloper",
          "type": "address"
        },
        {
          "indexed": false,
          "internalType": "uint256",
          "name": "amount",
          "type": "uint256"
        }
      ],
      "name": "TradedTokenPut",
      "type": "event"
    },
    {
      "anonymous": false,
      "inputs": [
        {
          "indexed": false,
          "internalType": "address",
          "name": "staker",
          "type": "address"
        },
        {
          "indexed": false,
          "internalType": "uint256",
          "name": "amount",
          "type": "uint256"
        }
      ],
      "name": "UnStaked",
      "type": "event"
    },
    {
      "inputs": [],
      "name": "claimReward",
      "outputs": [],
      "stateMutability": "nonpayable",
      "type": "function"
    },
    {
      "inputs": [],
      "name": "feeBps",
      "outputs": [
        {
          "internalType": "uint256",
          "name": "",
          "type": "uint256"
        }
      ],
      "stateMutability": "view",
      "type": "function"
    },
    {
      "inputs": [],
      "name": "feeCollector",
      "outputs": [
        {
          "internalType": "address",
          "name": "",
          "type": "address"
        }
      ],
      "stateMutability": "view",
      "type": "function"
    },
    {
      "inputs": [],
      "name": "getReward",
      "outputs": [
        {
          "internalType": "uint256",
          "name": "",
          "type": "uint256"
        }
      ],
      "stateMutability": "view",
      "type": "function"
    },
    {
      "inputs": [],
      "name": "lockTime",
      "outputs": [
        {
          "internalType": "uint256",
          "name": "",
          "type": "uint256"
        }
      ],
      "stateMutability": "view",
      "type": "function"
    },
    {
      "inputs": [],
      "name": "owner",
      "outputs": [
        {
          "internalType": "address",
          "name": "",
          "type": "address"
        }
      ],
      "stateMutability": "view",
      "type": "function"
    },
    {
      "inputs": [],
      "name": "projectToken",
      "outputs": [
        {
          "internalType": "contract IERC20",
          "name": "",
          "type": "address"
        }
      ],
      "stateMutability": "view",
      "type": "function"
    },
    {
      "inputs": [
        {
          "internalType": "uint256",
          "name": "_amount",
          "type": "uint256"
        }
      ],
      "name": "putTradedToken",
      "outputs": [],
      "stateMutability": "nonpayable",
      "type": "function"
    },
    {
      "inputs": [],
      "name": "renounceOwnership",
      "outputs": [],
      "stateMutability": "nonpayable",
      "type": "function"
    },
    {
      "inputs": [
        {
          "internalType": "uint256",
          "name": "_feeBps",
          "type": "uint256"
        }
      ],
      "name": "setFeeBps",
      "outputs": [],
      "stateMutability": "nonpayable",
      "type": "function"
    },
    {
      "inputs": [
        {
          "internalType": "address",
          "name": "_feeCollector",
          "type": "address"
        }
      ],
      "name": "setFeeCollector",
      "outputs": [],
      "stateMutability": "nonpayable",
      "type": "function"
    },
    {
      "inputs": [
        {
          "internalType": "uint256",
          "name": "_lockTime",
          "type": "uint256"
        }
      ],
      "name": "setLockTime",
      "outputs": [],
      "stateMutability": "nonpayable",
      "type": "function"
    },
    {
      "inputs": [
        {
          "internalType": "uint256",
          "name": "_amount",
          "type": "uint256"
        }
      ],
      "name": "stake",
      "outputs": [],
      "stateMutability": "nonpayable",
      "type": "function"
    },
    {
      "inputs": [],
      "name": "totalStakedBalance",
      "outputs": [
        {
          "internalType": "uint256",
          "name": "",
          "type": "uint256"
        }
      ],
      "stateMutability": "view",
      "type": "function"
    },
    {
      "inputs": [],
      "name": "tradedToken",
      "outputs": [
        {
          "internalType": "contract IERC20",
          "name": "",
          "type": "address"
        }
      ],
      "stateMutability": "view",
      "type": "function"
    },
    {
      "inputs": [
        {
          "internalType": "address",
          "name": "newOwner",
          "type": "address"
        }
      ],
      "name": "transferOwnership",
      "outputs": [],
      "stateMutability": "nonpayable",
      "type": "function"
    },
    {
      "inputs": [
        {
          "internalType": "uint256",
          "name": "_amount",
          "type": "uint256"
        }
      ],
      "name": "unStake",
      "outputs": [],
      "stateMutability": "nonpayable",
      "type": "function"
    },
    {
      "inputs": [
        {
          "internalType": "uint256",
          "name": "rewardAmount",
          "type": "uint256"
        }
      ],
      "name": "updateAllocation",
      "outputs": [],
      "stateMutability": "nonpayable",
      "type": "function"
    }
  ],
  "bytecode": "0x6080604052620151806006553480156200001857600080fd5b506040516200148e3803806200148e8339810160408190526200003b916200011e565b6001600055620000546200004e620000c8565b620000cc565b600280546001600160a01b038086166001600160a01b03199283161790925560038054858416908316179055600480549284169290911691909117905560646005556040517f18e807c5f79e7b976a1c68e74afcbfc80e6ccb9fde4e564e99c51c5046a2ecc790600090a15050506200018a565b3390565b600180546001600160a01b038381166001600160a01b0319831681179093556040519116919082907f8be0079c531659141344cd1fd0a4f28419497f9722a3daafe3b4186f6b6457e090600090a35050565b60008060006060848603121562000133578283fd5b8351620001408162000171565b6020850151909350620001538162000171565b6040850151909250620001668162000171565b809150509250925092565b6001600160a01b03811681146200018757600080fd5b50565b6112f4806200019a6000396000f3fe608060405234801561001057600080fd5b50600436106101365760003560e01c80638da5cb5b116100b2578063b88a802f11610081578063db0b27fd11610066578063db0b27fd1461021a578063f2fde38b14610222578063fe1587871461023557610136565b8063b88a802f1461020a578063c415b95c1461021257610136565b80638da5cb5b146101c9578063a42dce80146101d1578063a694fc3a146101e4578063ae04d45d146101f757610136565b8063462c23af116101095780635d3eea91116100ee5780635d3eea911461019b578063715018a6146101ae57806372c27b62146101b657610136565b8063462c23af146101715780634b60ce771461018657610136565b80630620eedc1461013b5780630d6680871461015957806324a9d853146101615780633d18b91214610169575b600080fd5b610143610248565b60405161015091906111a3565b60405180910390f35b61014361024e565b610143610254565b61014361025a565b61018461017f366004610f7f565b610270565b005b61018e610539565b6040516101509190610faf565b6101846101a9366004610f7f565b610548565b610184610721565b6101846101c4366004610f7f565b61076c565b61018e6107b0565b6101846101df366004610f27565b6107bf565b6101846101f2366004610f7f565b61082d565b610184610205366004610f7f565b610b58565b610184610b9c565b61018e610c99565b61018e610ca8565b610184610230366004610f27565b610cb7565b610184610243366004610f7f565b610d28565b600b5481565b60065481565b60055481565b3360009081526008602052604090206002015490565b610278610e89565b6001600160a01b03166102896107b0565b6001600160a01b0316146102b85760405162461bcd60e51b81526004016102af90611102565b60405180910390fd5b6002546040516370a0823160e01b81526000916001600160a01b0316906370a08231906102e9903090600401610faf565b60206040518083038186803b15801561030157600080fd5b505afa158015610315573d6000803e3d6000fd5b505050506040513d601f19601f820116820180604052508101906103399190610f97565b90508181101561035b5760405162461bcd60e51b81526004016102af9061105d565b60005b6040517fdeb3d89600000000000000000000000000000000000000000000000000000000815273__$55b008388ae88b5ad7d10989d1583a79e8$__9063deb3d896906103af906007906004016111a3565b60206040518083038186803b1580156103c757600080fd5b505af41580156103db573d6000803e3d6000fd5b505050506040513d601f19601f820116820180604052508101906103ff9190610f97565b81101561050b576040517fd1aa9e7e00000000000000000000000000000000000000000000000000000000815260009073__$55b008388ae88b5ad7d10989d1583a79e8$__9063d1aa9e7e9061045c9060079086906004016111fc565b60206040518083038186803b15801561047457600080fd5b505af4158015610488573d6000803e3d6000fd5b505050506040513d601f19601f820116820180604052508101906104ac9190610f43565b6001600160a01b0381166000908152600860205260409020600b54815492935090916104f2916104e7916104e1908990610e8d565b90610ea0565b600283015490610eac565b600290910155508061050381611278565b91505061035e565b506040517f51765249e2233e490315ce9e74497e4a8d44f02b422a202004a11b1b391ad5b390600090a15050565b6003546001600160a01b031681565b33600090815260086020526040902080548211156105785760405162461bcd60e51b81526004016102af90611137565b600654600182015461058991610eac565b610591610eb8565b10156105af5760405162461bcd60e51b81526004016102af9061116e565b8054821415610640576040517f4c60db9c00000000000000000000000000000000000000000000000000000000815273__$55b008388ae88b5ad7d10989d1583a79e8$__90634c60db9c9061060b9060079033906004016111ac565b60006040518083038186803b15801561062357600080fd5b505af4158015610637573d6000803e3d6000fd5b5050505061064f565b805461064c9083610ebc565b81555b600b5461065c9083610ebc565b600b5560035460405163a9059cbb60e01b81526001600160a01b039091169063a9059cbb906106919033908690600401610fe7565b602060405180830381600087803b1580156106ab57600080fd5b505af11580156106bf573d6000803e3d6000fd5b505050506040513d601f19601f820116820180604052508101906106e39190610f5f565b507f79d3df6837cc49ff0e09fd3258e6e45594e0703445bb06825e9d75156eaee8f03383604051610715929190610fe7565b60405180910390a15050565b610729610e89565b6001600160a01b031661073a6107b0565b6001600160a01b0316146107605760405162461bcd60e51b81526004016102af90611102565b61076a6000610ec8565b565b610774610e89565b6001600160a01b03166107856107b0565b6001600160a01b0316146107ab5760405162461bcd60e51b81526004016102af90611102565b600555565b6001546001600160a01b031690565b6107c7610e89565b6001600160a01b03166107d86107b0565b6001600160a01b0316146107fe5760405162461bcd60e51b81526004016102af90611102565b6004805473ffffffffffffffffffffffffffffffffffffffff19166001600160a01b0392909216919091179055565b6003546040516370a0823160e01b815282916001600160a01b0316906370a082319061085d903390600401610faf565b60206040518083038186803b15801561087557600080fd5b505afa158015610889573d6000803e3d6000fd5b505050506040513d601f19601f820116820180604052508101906108ad9190610f97565b10156108cb5760405162461bcd60e51b81526004016102af90611137565b60006108f46127106104e16108ed600554612710610ebc90919063ffffffff16565b8590610e8d565b6003546004549192506001600160a01b03908116916323b872dd9133911661091c8686610ebc565b6040518463ffffffff1660e01b815260040161093a93929190610fc3565b602060405180830381600087803b15801561095457600080fd5b505af1158015610968573d6000803e3d6000fd5b505050506040513d601f19601f8201168201806040525081019061098c9190610f5f565b506003546040516323b872dd60e01b81526001600160a01b03909116906323b872dd906109c190339030908690600401610fc3565b602060405180830381600087803b1580156109db57600080fd5b505af11580156109ef573d6000803e3d6000fd5b505050506040513d601f19601f82011682018060405250810190610a139190610f5f565b50336000908152600a602052604090205460ff1615610a675733600090815260086020526040902054610a469082610eac565b50610a4f610eb8565b33600090815260086020526040902060010155610b16565b60006040518060600160405280838152602001610a82610eb8565b815260006020909101526040517f14ca441e00000000000000000000000000000000000000000000000000000000815290915073__$55b008388ae88b5ad7d10989d1583a79e8$__906314ca441e90610ae490600790339086906004016111c3565b60006040518083038186803b158015610afc57600080fd5b505af4158015610b10573d6000803e3d6000fd5b50505050505b600b54610b239082610eac565b600b556040517f9e71bc8eea02a63969f509818f2dafb9254532904319f9dbda79b67bd34a5f3d906107159033908490610fe7565b610b60610e89565b6001600160a01b0316610b716107b0565b6001600160a01b031614610b975760405162461bcd60e51b81526004016102af90611102565b600655565b336000908152600a602052604090205460ff16610bcb5760405162461bcd60e51b81526004016102af90611094565b33600090815260086020526040902060020154610bfa5760405162461bcd60e51b81526004016102af906110cb565b336000818152600860205260408082206002908101805493905554905163a9059cbb60e01b815291926001600160a01b039091169163a9059cbb91610c43918590600401610fe7565b602060405180830381600087803b158015610c5d57600080fd5b505af1158015610c71573d6000803e3d6000fd5b505050506040513d601f19601f82011682018060405250810190610c959190610f5f565b5050565b6004546001600160a01b031681565b6002546001600160a01b031681565b610cbf610e89565b6001600160a01b0316610cd06107b0565b6001600160a01b031614610cf65760405162461bcd60e51b81526004016102af90611102565b6001600160a01b038116610d1c5760405162461bcd60e51b81526004016102af90611000565b610d2581610ec8565b50565b6002546040516370a0823160e01b815282916001600160a01b0316906370a0823190610d58903390600401610faf565b60206040518083038186803b158015610d7057600080fd5b505afa158015610d84573d6000803e3d6000fd5b505050506040513d601f19601f82011682018060405250810190610da89190610f97565b1015610dc65760405162461bcd60e51b81526004016102af90611137565b6002546040516323b872dd60e01b81526001600160a01b03909116906323b872dd90610dfa90339030908690600401610fc3565b602060405180830381600087803b158015610e1457600080fd5b505af1158015610e28573d6000803e3d6000fd5b505050506040513d601f19601f82011682018060405250810190610e4c9190610f5f565b507f1ffb19462db9096dfb3a0c6225c6189d758d472f40541d2c773ea893bfcb3f0a3382604051610e7e929190610fe7565b60405180910390a150565b3390565b6000610e998284611242565b9392505050565b6000610e998284611222565b6000610e99828461120a565b4290565b6000610e998284611261565b600180546001600160a01b0383811673ffffffffffffffffffffffffffffffffffffffff19831681179093556040519116919082907f8be0079c531659141344cd1fd0a4f28419497f9722a3daafe3b4186f6b6457e090600090a35050565b600060208284031215610f38578081fd5b8135610e99816112a9565b600060208284031215610f54578081fd5b8151610e99816112a9565b600060208284031215610f70578081fd5b81518015158114610e99578182fd5b600060208284031215610f90578081fd5b5035919050565b600060208284031215610fa8578081fd5b5051919050565b6001600160a01b0391909116815260200190565b6001600160a01b039384168152919092166020820152604081019190915260600190565b6001600160a01b03929092168252602082015260400190565b60208082526026908201527f4f776e61626c653a206e6577206f776e657220697320746865207a65726f206160408201527f6464726573730000000000000000000000000000000000000000000000000000606082015260800190565b60208082526011908201527f6e6f7420656e6f75676820726577617264000000000000000000000000000000604082015260600190565b6020808252600a908201527f6e6f74207374616b657200000000000000000000000000000000000000000000604082015260600190565b60208082526009908201527f6e6f207265776172640000000000000000000000000000000000000000000000604082015260600190565b6020808252818101527f4f776e61626c653a2063616c6c6572206973206e6f7420746865206f776e6572604082015260600190565b60208082526014908201527f696e73756666696369656e742062616c616e6365000000000000000000000000604082015260600190565b6020808252818101527f63616e206e6f7420756e7374616b6520647572696e67206c6f636b2074696d65604082015260600190565b90815260200190565b9182526001600160a01b0316602082015260400190565b9283526001600160a01b039190911660208084019190915281516040808501919091529082015160608401520151608082015260a00190565b918252602082015260400190565b6000821982111561121d5761121d611293565b500190565b60008261123d57634e487b7160e01b81526012600452602481fd5b500490565b600081600019048311821515161561125c5761125c611293565b500290565b60008282101561127357611273611293565b500390565b600060001982141561128c5761128c611293565b5060010190565b634e487b7160e01b600052601160045260246000fd5b6001600160a01b0381168114610d2557600080fdfea2646970667358221220421cfe1d1effc29067c50516ba1c9b004bc16c406b3072526094a1a229d365a364736f6c63430008000033",
  "linkReferences": {
    "contracts/libs/IterableMapping.sol": {
      "IterableMapping": [
        {
          "length": 20,
          "start": 1312
        },
        {
          "length": 20,
          "start": 1483
        },
        {
          "length": 20,
          "start": 1914
        },
        {
          "length": 20,
          "start": 3153
        }
      ]
    }
  },
  "deployedLinkReferences": {
    "contracts/libs/IterableMapping.sol": {
      "IterableMapping": [
        {
          "length": 20,
          "start": 902
        },
        {
          "length": 20,
          "start": 1073
        },
        {
          "length": 20,
          "start": 1504
        },
        {
          "length": 20,
          "start": 2743
        }
      ]
    }
  }
}