{
  "_format": "hh-sol-artifact-1",
  "contractName": "Pausable",
  "sourceName": "contracts/Staking.sol",
  "abi": [
    {
      "inputs": [
        {
          "internalType": "address",
          "name": "_owner",
          "type": "address"
        }
      ],
      "stateMutability": "nonpayable",
      "type": "constructor"
    },
    {
      "anonymous": false,
      "inputs": [
        {
          "indexed": false,
          "internalType": "address",
          "name": "oldOwner",
          "type": "address"
        },
        {
          "indexed": false,
          "internalType": "address",
          "name": "newOwner",
          "type": "address"
        }
      ],
      "name": "OwnerChanged",
      "type": "event"
    },
    {
      "anonymous": false,
      "inputs": [
        {
          "indexed": false,
          "internalType": "address",
          "name": "newOwner",
          "type": "address"
        }
      ],
      "name": "OwnerNominated",
      "type": "event"
    },
    {
      "anonymous": false,
      "inputs": [
        {
          "indexed": false,
          "internalType": "bool",
          "name": "isPaused",
          "type": "bool"
        }
      ],
      "name": "PauseChanged",
      "type": "event"
    },
    {
      "inputs": [],
      "name": "acceptOwnership",
      "outputs": [],
      "stateMutability": "nonpayable",
      "type": "function"
    },
    {
      "inputs": [],
      "name": "lastPauseTime",
      "outputs": [
        {
          "internalType": "uint256",
          "name": "",
          "type": "uint256"
        }
      ],
      "stateMutability": "view",
      "type": "function"
    },
    {
      "inputs": [
        {
          "internalType": "address",
          "name": "_owner",
          "type": "address"
        }
      ],
      "name": "nominateNewOwner",
      "outputs": [],
      "stateMutability": "nonpayable",
      "type": "function"
    },
    {
      "inputs": [],
      "name": "nominatedOwner",
      "outputs": [
        {
          "internalType": "address",
          "name": "",
          "type": "address"
        }
      ],
      "stateMutability": "view",
      "type": "function"
    },
    {
      "inputs": [],
      "name": "owner",
      "outputs": [
        {
          "internalType": "address",
          "name": "",
          "type": "address"
        }
      ],
      "stateMutability": "view",
      "type": "function"
    },
    {
      "inputs": [],
      "name": "paused",
      "outputs": [
        {
          "internalType": "bool",
          "name": "",
          "type": "bool"
        }
      ],
      "stateMutability": "view",
      "type": "function"
    },
    {
      "inputs": [
        {
          "internalType": "bool",
          "name": "_paused",
          "type": "bool"
        }
      ],
      "name": "setPaused",
      "outputs": [],
      "stateMutability": "nonpayable",
      "type": "function"
    }
  ],
  "bytecode": "0x608060405234801561001057600080fd5b5060405161060738038061060783398101604081905261002f916100e1565b806001600160a01b03811661005f5760405162461bcd60e51b815260040161005690610154565b60405180910390fd5b600080546001600160a01b0319166001600160a01b0383161781556040517fb532073b38c83145e3e5135377a08bf9aab55bc0fd7c1179cd4fb995d2a5159c916100aa91849061010f565b60405180910390a1506000546001600160a01b03166100db5760405162461bcd60e51b815260040161005690610129565b5061018b565b6000602082840312156100f2578081fd5b81516001600160a01b0381168114610108578182fd5b9392505050565b6001600160a01b0392831681529116602082015260400190565b60208082526011908201527013dddb995c881b5d5cdd081899481cd95d607a1b604082015260600190565b60208082526019908201527f4f776e657220616464726573732063616e6e6f74206265203000000000000000604082015260600190565b61046d8061019a6000396000f3fe608060405234801561001057600080fd5b506004361061007d5760003560e01c80635c975abb1161005b5780635c975abb146100c857806379ba5097146100dd5780638da5cb5b146100e557806391b4ded9146100ed5761007d565b80631627540c1461008257806316c38b3c1461009757806353a47bb7146100aa575b600080fd5b6100956100903660046102ed565b610102565b005b6100956100a536600461031b565b61016d565b6100b26101e2565b6040516100bf919061033b565b60405180910390f35b6100d06101f1565b6040516100bf9190610369565b6100956101fa565b6100b26102ac565b6100f56102bb565b6040516100bf919061042e565b61010a6102c1565b6001805473ffffffffffffffffffffffffffffffffffffffff19166001600160a01b0383161790556040517f906a1c6bd7e3091ea86693dd029a831c19049ce77f1dce2ce0bab1cacbabce229061016290839061033b565b60405180910390a150565b6101756102c1565b60035460ff161515811515141561018b576101df565b6003805460ff1916821515179081905560ff16156101a857426002555b6003546040517f8fb6c181ee25a520cf3dd6565006ef91229fcfe5a989566c2a3b8c115570cec5916101629160ff90911690610369565b50565b6001546001600160a01b031681565b60035460ff1681565b6001546001600160a01b0316331461022d5760405162461bcd60e51b815260040161022490610374565b60405180910390fd5b6000546001546040517fb532073b38c83145e3e5135377a08bf9aab55bc0fd7c1179cd4fb995d2a5159c92610270926001600160a01b039182169291169061034f565b60405180910390a1600180546000805473ffffffffffffffffffffffffffffffffffffffff199081166001600160a01b03841617909155169055565b6000546001600160a01b031681565b60025481565b6000546001600160a01b031633146102eb5760405162461bcd60e51b8152600401610224906103d1565b565b6000602082840312156102fe578081fd5b81356001600160a01b0381168114610314578182fd5b9392505050565b60006020828403121561032c578081fd5b81358015158114610314578182fd5b6001600160a01b0391909116815260200190565b6001600160a01b0392831681529116602082015260400190565b901515815260200190565b60208082526035908201527f596f75206d757374206265206e6f6d696e61746564206265666f726520796f7560408201527f2063616e20616363657074206f776e6572736869700000000000000000000000606082015260800190565b6020808252602f908201527f4f6e6c792074686520636f6e7472616374206f776e6572206d6179207065726660408201527f6f726d207468697320616374696f6e0000000000000000000000000000000000606082015260800190565b9081526020019056fea26469706673582212202341983d5eff0155aa36334b23f77ae2429ac3f389f6aa0a6ec381a8ae43c41364736f6c63430008000033",
  "linkReferences": {},
  "deployedLinkReferences": {}
}