{
  "_format": "hh-sol-artifact-1",
  "contractName": "ERC20SnapshotMock",
  "sourceName": "contracts/IDO_basedon_Openzeppelin/mocks/ERC20SnapshotMock.sol",
  "abi": [
    {
      "inputs": [
        {
          "internalType": "address",
          "name": "initialAccount",
          "type": "address"
        },
        {
          "internalType": "uint256",
          "name": "initialBalance",
          "type": "uint256"
        }
      ],
      "payable": false,
      "stateMutability": "nonpayable",
      "type": "constructor"
    },
    {
      "anonymous": false,
      "inputs": [
        {
          "indexed": true,
          "internalType": "address",
          "name": "owner",
          "type": "address"
        },
        {
          "indexed": true,
          "internalType": "address",
          "name": "spender",
          "type": "address"
        },
        {
          "indexed": false,
          "internalType": "uint256",
          "name": "value",
          "type": "uint256"
        }
      ],
      "name": "Approval",
      "type": "event"
    },
    {
      "anonymous": false,
      "inputs": [
        {
          "indexed": false,
          "internalType": "uint256",
          "name": "id",
          "type": "uint256"
        }
      ],
      "name": "Snapshot",
      "type": "event"
    },
    {
      "anonymous": false,
      "inputs": [
        {
          "indexed": true,
          "internalType": "address",
          "name": "from",
          "type": "address"
        },
        {
          "indexed": true,
          "internalType": "address",
          "name": "to",
          "type": "address"
        },
        {
          "indexed": false,
          "internalType": "uint256",
          "name": "value",
          "type": "uint256"
        }
      ],
      "name": "Transfer",
      "type": "event"
    },
    {
      "constant": true,
      "inputs": [
        {
          "internalType": "address",
          "name": "owner",
          "type": "address"
        },
        {
          "internalType": "address",
          "name": "spender",
          "type": "address"
        }
      ],
      "name": "allowance",
      "outputs": [
        {
          "internalType": "uint256",
          "name": "",
          "type": "uint256"
        }
      ],
      "payable": false,
      "stateMutability": "view",
      "type": "function"
    },
    {
      "constant": false,
      "inputs": [
        {
          "internalType": "address",
          "name": "spender",
          "type": "address"
        },
        {
          "internalType": "uint256",
          "name": "amount",
          "type": "uint256"
        }
      ],
      "name": "approve",
      "outputs": [
        {
          "internalType": "bool",
          "name": "",
          "type": "bool"
        }
      ],
      "payable": false,
      "stateMutability": "nonpayable",
      "type": "function"
    },
    {
      "constant": true,
      "inputs": [
        {
          "internalType": "address",
          "name": "account",
          "type": "address"
        }
      ],
      "name": "balanceOf",
      "outputs": [
        {
          "internalType": "uint256",
          "name": "",
          "type": "uint256"
        }
      ],
      "payable": false,
      "stateMutability": "view",
      "type": "function"
    },
    {
      "constant": true,
      "inputs": [
        {
          "internalType": "address",
          "name": "account",
          "type": "address"
        },
        {
          "internalType": "uint256",
          "name": "snapshotId",
          "type": "uint256"
        }
      ],
      "name": "balanceOfAt",
      "outputs": [
        {
          "internalType": "uint256",
          "name": "",
          "type": "uint256"
        }
      ],
      "payable": false,
      "stateMutability": "view",
      "type": "function"
    },
    {
      "constant": false,
      "inputs": [
        {
          "internalType": "address",
          "name": "account",
          "type": "address"
        },
        {
          "internalType": "uint256",
          "name": "amount",
          "type": "uint256"
        }
      ],
      "name": "burn",
      "outputs": [],
      "payable": false,
      "stateMutability": "nonpayable",
      "type": "function"
    },
    {
      "constant": false,
      "inputs": [
        {
          "internalType": "address",
          "name": "spender",
          "type": "address"
        },
        {
          "internalType": "uint256",
          "name": "subtractedValue",
          "type": "uint256"
        }
      ],
      "name": "decreaseAllowance",
      "outputs": [
        {
          "internalType": "bool",
          "name": "",
          "type": "bool"
        }
      ],
      "payable": false,
      "stateMutability": "nonpayable",
      "type": "function"
    },
    {
      "constant": false,
      "inputs": [
        {
          "internalType": "address",
          "name": "spender",
          "type": "address"
        },
        {
          "internalType": "uint256",
          "name": "addedValue",
          "type": "uint256"
        }
      ],
      "name": "increaseAllowance",
      "outputs": [
        {
          "internalType": "bool",
          "name": "",
          "type": "bool"
        }
      ],
      "payable": false,
      "stateMutability": "nonpayable",
      "type": "function"
    },
    {
      "constant": false,
      "inputs": [
        {
          "internalType": "address",
          "name": "account",
          "type": "address"
        },
        {
          "internalType": "uint256",
          "name": "amount",
          "type": "uint256"
        }
      ],
      "name": "mint",
      "outputs": [],
      "payable": false,
      "stateMutability": "nonpayable",
      "type": "function"
    },
    {
      "constant": false,
      "inputs": [],
      "name": "snapshot",
      "outputs": [
        {
          "internalType": "uint256",
          "name": "",
          "type": "uint256"
        }
      ],
      "payable": false,
      "stateMutability": "nonpayable",
      "type": "function"
    },
    {
      "constant": true,
      "inputs": [],
      "name": "totalSupply",
      "outputs": [
        {
          "internalType": "uint256",
          "name": "",
          "type": "uint256"
        }
      ],
      "payable": false,
      "stateMutability": "view",
      "type": "function"
    },
    {
      "constant": true,
      "inputs": [
        {
          "internalType": "uint256",
          "name": "snapshotId",
          "type": "uint256"
        }
      ],
      "name": "totalSupplyAt",
      "outputs": [
        {
          "internalType": "uint256",
          "name": "",
          "type": "uint256"
        }
      ],
      "payable": false,
      "stateMutability": "view",
      "type": "function"
    },
    {
      "constant": false,
      "inputs": [
        {
          "internalType": "address",
          "name": "recipient",
          "type": "address"
        },
        {
          "internalType": "uint256",
          "name": "amount",
          "type": "uint256"
        }
      ],
      "name": "transfer",
      "outputs": [
        {
          "internalType": "bool",
          "name": "",
          "type": "bool"
        }
      ],
      "payable": false,
      "stateMutability": "nonpayable",
      "type": "function"
    },
    {
      "constant": false,
      "inputs": [
        {
          "internalType": "address",
          "name": "sender",
          "type": "address"
        },
        {
          "internalType": "address",
          "name": "recipient",
          "type": "address"
        },
        {
          "internalType": "uint256",
          "name": "amount",
          "type": "uint256"
        }
      ],
      "name": "transferFrom",
      "outputs": [
        {
          "internalType": "bool",
          "name": "",
          "type": "bool"
        }
      ],
      "payable": false,
      "stateMutability": "nonpayable",
      "type": "function"
    }
  ],
  "bytecode": "0x60806040523480156200001157600080fd5b50604051620012c6380380620012c6833981810160405260408110156200003757600080fd5b5080516020909101516200005582826001600160e01b036200005d16565b50506200032c565b62000071826001600160e01b036200009f16565b620000846001600160e01b03620000e216565b6200009b8282620000fd60201b62000a9c1760201c565b5050565b6001600160a01b0381166000908152600360205260409020620000df90620000d0836001600160e01b03620001fe16565b6001600160e01b036200021d16565b50565b620000fb6004620000d06001600160e01b036200028716565b565b6001600160a01b03821662000159576040805162461bcd60e51b815260206004820152601f60248201527f45524332303a206d696e7420746f20746865207a65726f206164647265737300604482015290519081900360640190fd5b62000175816002546200028d60201b620007561790919060201c565b6002556001600160a01b03821660009081526020818152604090912054620001a8918390620007566200028d821b17901c565b6001600160a01b0383166000818152602081815260408083209490945583518581529351929391927fddf252ad1be2c89b69c2b068fc378daa952ba7f163c4a11628f55a4df523b3ef9281900390910190a35050565b6001600160a01b0381166000908152602081905260409020545b919050565b6000620002366006620002ef60201b620008e51760201c565b9050806200024d846001600160e01b03620002f316565b101562000282578254600181810185556000858152602080822090930184905581860180549283018155815291909120018290555b505050565b60025490565b600082820183811015620002e8576040805162461bcd60e51b815260206004820152601b60248201527f536166654d6174683a206164646974696f6e206f766572666c6f770000000000604482015290519081900360640190fd5b9392505050565b5490565b8054600090620003065750600062000218565b8154829060001981019081106200031957fe5b9060005260206000200154905062000218565b610f8a806200033c6000396000f3fe608060405234801561001057600080fd5b50600436106100df5760003560e01c806370a082311161008c5780639dc29fac116100665780639dc29fac14610245578063a457c2d714610271578063a9059cbb1461029d578063dd62ed3e146102c9576100df565b806370a08231146101fa5780639711715a14610220578063981b24d014610228576100df565b806339509351116100bd578063395093511461017457806340c10f19146101a05780634ee2cd7e146101ce576100df565b8063095ea7b3146100e457806318160ddd1461012457806323b872dd1461013e575b600080fd5b610110600480360360408110156100fa57600080fd5b506001600160a01b0381351690602001356102f7565b604080519115158252519081900360200190f35b61012c610315565b60408051918252519081900360200190f35b6101106004803603606081101561015457600080fd5b506001600160a01b0381358116916020810135909116906040013561031b565b6101106004803603604081101561018a57600080fd5b506001600160a01b0381351690602001356103a8565b6101cc600480360360408110156101b657600080fd5b506001600160a01b0381351690602001356103fc565b005b61012c600480360360408110156101e457600080fd5b506001600160a01b03813516906020013561040a565b61012c6004803603602081101561021057600080fd5b50356001600160a01b0316610453565b61012c610472565b61012c6004803603602081101561023e57600080fd5b50356104c6565b6101cc6004803603604081101561025b57600080fd5b506001600160a01b0381351690602001356104f6565b6101106004803603604081101561028757600080fd5b506001600160a01b038135169060200135610500565b610110600480360360408110156102b357600080fd5b506001600160a01b03813516906020013561056e565b61012c600480360360408110156102df57600080fd5b506001600160a01b0381358116916020013516610582565b600061030b6103046105ad565b84846105b1565b5060015b92915050565b60025490565b600061032884848461069d565b61039e846103346105ad565b61039985604051806060016040528060288152602001610e9f602891396001600160a01b038a166000908152600160205260408120906103726105ad565b6001600160a01b03168152602081019190915260400160002054919063ffffffff6106bf16565b6105b1565b5060019392505050565b600061030b6103b56105ad565b8461039985600160006103c66105ad565b6001600160a01b03908116825260208083019390935260409182016000908120918c16815292529020549063ffffffff61075616565b61040682826107b7565b5050565b6001600160a01b0382166000908152600360205260408120819081906104319085906107d2565b91509150816104485761044385610453565b61044a565b805b95945050505050565b6001600160a01b0381166000908152602081905260409020545b919050565b600061047e60066108dc565b600061048a60066108e5565b6040805182815290519192507f8030e83b04d87bef53480e26263266d6ca66863aa8506aca6f2559d18aa1cb67919081900360200190a1905090565b60008060006104d68460046107d2565b91509150816104ec576104e7610315565b6104ee565b805b949350505050565b61040682826108e9565b600061030b61050d6105ad565b8461039985604051806060016040528060258152602001610f3160259139600160006105376105ad565b6001600160a01b03908116825260208083019390935260409182016000908120918d1681529252902054919063ffffffff6106bf16565b600061030b61057b6105ad565b848461069d565b6001600160a01b03918216600090815260016020908152604080832093909416825291909152205490565b3390565b6001600160a01b0383166105f65760405162461bcd60e51b8152600401808060200182810382526024815260200180610f0d6024913960400191505060405180910390fd5b6001600160a01b03821661063b5760405162461bcd60e51b8152600401808060200182810382526022815260200180610e576022913960400191505060405180910390fd5b6001600160a01b03808416600081815260016020908152604080832094871680845294825291829020859055815185815291517f8c5be1e5ebec7d5bd14f71427d1e84f3dd0314c0f7b2291e5b200ac8c7c3b9259281900390910190a3505050565b6106a683610904565b6106af82610904565b6106ba838383610931565b505050565b6000818484111561074e5760405162461bcd60e51b81526004018080602001828103825283818151815260200191508051906020019080838360005b838110156107135781810151838201526020016106fb565b50505050905090810190601f1680156107405780820380516001836020036101000a031916815260200191505b509250505060405180910390fd5b505050900390565b6000828201838110156107b0576040805162461bcd60e51b815260206004820152601b60248201527f536166654d6174683a206164646974696f6e206f766572666c6f770000000000604482015290519081900360640190fd5b9392505050565b6107c082610904565b6107c8610a8d565b6104068282610a9c565b6000806000841161082a576040805162461bcd60e51b815260206004820152601660248201527f4552433230536e617073686f743a206964206973203000000000000000000000604482015290519081900360640190fd5b61083460066108e5565b841115610888576040805162461bcd60e51b815260206004820152601d60248201527f4552433230536e617073686f743a206e6f6e6578697374656e74206964000000604482015290519081900360640190fd5b600061089a848663ffffffff610b8c16565b84549091508114156108b35750600091508190506108d5565b60018460010182815481106108c457fe5b906000526020600020015492509250505b9250929050565b80546001019055565b5490565b6108f282610904565b6108fa610a8d565b6104068282610c2d565b6001600160a01b038116600090815260036020526040902061092e9061092983610453565b610d29565b50565b6001600160a01b0383166109765760405162461bcd60e51b8152600401808060200182810382526025815260200180610ee86025913960400191505060405180910390fd5b6001600160a01b0382166109bb5760405162461bcd60e51b8152600401808060200182810382526023815260200180610e126023913960400191505060405180910390fd5b6109fe81604051806060016040528060268152602001610e79602691396001600160a01b038616600090815260208190526040902054919063ffffffff6106bf16565b6001600160a01b038085166000908152602081905260408082209390935590841681522054610a33908263ffffffff61075616565b6001600160a01b038084166000818152602081815260409182902094909455805185815290519193928716927fddf252ad1be2c89b69c2b068fc378daa952ba7f163c4a11628f55a4df523b3ef92918290030190a3505050565b610a9a6004610929610315565b565b6001600160a01b038216610af7576040805162461bcd60e51b815260206004820152601f60248201527f45524332303a206d696e7420746f20746865207a65726f206164647265737300604482015290519081900360640190fd5b600254610b0a908263ffffffff61075616565b6002556001600160a01b038216600090815260208190526040902054610b36908263ffffffff61075616565b6001600160a01b0383166000818152602081815260408083209490945583518581529351929391927fddf252ad1be2c89b69c2b068fc378daa952ba7f163c4a11628f55a4df523b3ef9281900390910190a35050565b8154600090610b9d5750600061030f565b82546000905b80821015610bec576000610bb78383610d75565b905084868281548110610bc657fe5b90600052602060002001541115610bdf57809150610be6565b8060010192505b50610ba3565b600082118015610c14575083856001840381548110610c0757fe5b9060005260206000200154145b15610c25575060001901905061030f565b50905061030f565b6001600160a01b038216610c725760405162461bcd60e51b8152600401808060200182810382526021815260200180610ec76021913960400191505060405180910390fd5b610cb581604051806060016040528060228152602001610e35602291396001600160a01b038516600090815260208190526040902054919063ffffffff6106bf16565b6001600160a01b038316600090815260208190526040902055600254610ce1908263ffffffff610d9a16565b6002556040805182815290516000916001600160a01b038516917fddf252ad1be2c89b69c2b068fc378daa952ba7f163c4a11628f55a4df523b3ef9181900360200190a35050565b6000610d3560066108e5565b905080610d4184610ddc565b10156106ba578254600180820185556000858152602080822090930193909355938401805494850181558252902090910155565b60006002808306600285060181610d8857fe5b04600283046002850401019392505050565b60006107b083836040518060400160405280601e81526020017f536166654d6174683a207375627472616374696f6e206f766572666c6f7700008152506106bf565b8054600090610ded5750600061046d565b815482906000198101908110610dff57fe5b9060005260206000200154905061046d56fe45524332303a207472616e7366657220746f20746865207a65726f206164647265737345524332303a206275726e20616d6f756e7420657863656564732062616c616e636545524332303a20617070726f766520746f20746865207a65726f206164647265737345524332303a207472616e7366657220616d6f756e7420657863656564732062616c616e636545524332303a207472616e7366657220616d6f756e74206578636565647320616c6c6f77616e636545524332303a206275726e2066726f6d20746865207a65726f206164647265737345524332303a207472616e736665722066726f6d20746865207a65726f206164647265737345524332303a20617070726f76652066726f6d20746865207a65726f206164647265737345524332303a2064656372656173656420616c6c6f77616e63652062656c6f77207a65726fa265627a7a7231582085ed7b971da17d7a3c878bdff585b6dd2062099060bb1905aa51f74469a4b44d64736f6c63430005100032",
  "linkReferences": {},
  "deployedLinkReferences": {}
}