{
  "_format": "hh-sol-artifact-1",
  "contractName": "TimedCrowdsaleImpl",
  "sourceName": "contracts/IDO_basedon_Openzeppelin/mocks/TimedCrowdsaleImpl.sol",
  "abi": [
    {
      "inputs": [
        {
          "internalType": "uint256",
          "name": "openingTime",
          "type": "uint256"
        },
        {
          "internalType": "uint256",
          "name": "closingTime",
          "type": "uint256"
        },
        {
          "internalType": "uint256",
          "name": "rate",
          "type": "uint256"
        },
        {
          "internalType": "address payable",
          "name": "wallet",
          "type": "address"
        },
        {
          "internalType": "contract IERC20",
          "name": "token",
          "type": "address"
        }
      ],
      "payable": false,
      "stateMutability": "nonpayable",
      "type": "constructor"
    },
    {
      "anonymous": false,
      "inputs": [
        {
          "indexed": false,
          "internalType": "uint256",
          "name": "prevClosingTime",
          "type": "uint256"
        },
        {
          "indexed": false,
          "internalType": "uint256",
          "name": "newClosingTime",
          "type": "uint256"
        }
      ],
      "name": "TimedCrowdsaleExtended",
      "type": "event"
    },
    {
      "anonymous": false,
      "inputs": [
        {
          "indexed": true,
          "internalType": "address",
          "name": "purchaser",
          "type": "address"
        },
        {
          "indexed": true,
          "internalType": "address",
          "name": "beneficiary",
          "type": "address"
        },
        {
          "indexed": false,
          "internalType": "uint256",
          "name": "value",
          "type": "uint256"
        },
        {
          "indexed": false,
          "internalType": "uint256",
          "name": "amount",
          "type": "uint256"
        }
      ],
      "name": "TokensPurchased",
      "type": "event"
    },
    {
      "payable": true,
      "stateMutability": "payable",
      "type": "fallback"
    },
    {
      "constant": false,
      "inputs": [
        {
          "internalType": "address",
          "name": "beneficiary",
          "type": "address"
        }
      ],
      "name": "buyTokens",
      "outputs": [],
      "payable": true,
      "stateMutability": "payable",
      "type": "function"
    },
    {
      "constant": true,
      "inputs": [],
      "name": "closingTime",
      "outputs": [
        {
          "internalType": "uint256",
          "name": "",
          "type": "uint256"
        }
      ],
      "payable": false,
      "stateMutability": "view",
      "type": "function"
    },
    {
      "constant": false,
      "inputs": [
        {
          "internalType": "uint256",
          "name": "closingTime",
          "type": "uint256"
        }
      ],
      "name": "extendTime",
      "outputs": [],
      "payable": false,
      "stateMutability": "nonpayable",
      "type": "function"
    },
    {
      "constant": true,
      "inputs": [],
      "name": "hasClosed",
      "outputs": [
        {
          "internalType": "bool",
          "name": "",
          "type": "bool"
        }
      ],
      "payable": false,
      "stateMutability": "view",
      "type": "function"
    },
    {
      "constant": true,
      "inputs": [],
      "name": "isOpen",
      "outputs": [
        {
          "internalType": "bool",
          "name": "",
          "type": "bool"
        }
      ],
      "payable": false,
      "stateMutability": "view",
      "type": "function"
    },
    {
      "constant": true,
      "inputs": [],
      "name": "openingTime",
      "outputs": [
        {
          "internalType": "uint256",
          "name": "",
          "type": "uint256"
        }
      ],
      "payable": false,
      "stateMutability": "view",
      "type": "function"
    },
    {
      "constant": true,
      "inputs": [],
      "name": "rate",
      "outputs": [
        {
          "internalType": "uint256",
          "name": "",
          "type": "uint256"
        }
      ],
      "payable": false,
      "stateMutability": "view",
      "type": "function"
    },
    {
      "constant": true,
      "inputs": [],
      "name": "token",
      "outputs": [
        {
          "internalType": "contract IERC20",
          "name": "",
          "type": "address"
        }
      ],
      "payable": false,
      "stateMutability": "view",
      "type": "function"
    },
    {
      "constant": true,
      "inputs": [],
      "name": "wallet",
      "outputs": [
        {
          "internalType": "address payable",
          "name": "",
          "type": "address"
        }
      ],
      "payable": false,
      "stateMutability": "view",
      "type": "function"
    },
    {
      "constant": true,
      "inputs": [],
      "name": "weiRaised",
      "outputs": [
        {
          "internalType": "uint256",
          "name": "",
          "type": "uint256"
        }
      ],
      "payable": false,
      "stateMutability": "view",
      "type": "function"
    }
  ],
  "bytecode": "0x608060405234801561001057600080fd5b50604051610ccd380380610ccd833981810160405260a081101561003357600080fd5b5080516020820151604083015160608401516080909401516000805460ff19166001179055929391929091908484848484826100b6576040805162461bcd60e51b815260206004820152601460248201527f43726f776473616c653a20726174652069732030000000000000000000000000604482015290519081900360640190fd5b6001600160a01b0382166100fb5760405162461bcd60e51b8152600401808060200182810382526025815260200180610ca86025913960400191505060405180910390fd5b6001600160a01b0381166101405760405162461bcd60e51b8152600401808060200182810382526024815260200180610c846024913960400191505060405180910390fd5b600292909255600180546001600160a01b039283166001600160a01b0319909116179055600080549190921661010002610100600160a81b0319909116179055428210156101bf5760405162461bcd60e51b8152600401808060200182810382526033815260200180610c1a6033913960400191505060405180910390fd5b8181116101fd5760405162461bcd60e51b8152600401808060200182810382526037815260200180610c4d6037913960400191505060405180910390fd5b6004919091556005555050505050610a008061021a6000396000f3fe6080604052600436106100b15760003560e01c8063521eb27311610069578063b7a8807c1161004e578063b7a8807c146101ad578063ec8ac4d8146101c2578063fc0c546a146101e8576100b1565b8063521eb27314610152578063a27aebbc14610183576100b1565b80634042b66f1161009a5780634042b66f1461011357806347535d7b146101285780634b6753bc1461013d576100b1565b80631515bc2b146100c35780632c4e722e146100ec575b6100c16100bc6101fd565b610201565b005b3480156100cf57600080fd5b506100d8610323565b604080519115158252519081900360200190f35b3480156100f857600080fd5b5061010161032b565b60408051918252519081900360200190f35b34801561011f57600080fd5b50610101610331565b34801561013457600080fd5b506100d8610337565b34801561014957600080fd5b50610101610352565b34801561015e57600080fd5b50610167610358565b604080516001600160a01b039092168252519081900360200190f35b34801561018f57600080fd5b506100c1600480360360208110156101a657600080fd5b5035610367565b3480156101b957600080fd5b50610101610373565b6100c1600480360360208110156101d857600080fd5b50356001600160a01b0316610201565b3480156101f457600080fd5b50610167610379565b3390565b60005460ff16610258576040805162461bcd60e51b815260206004820152601f60248201527f5265656e7472616e637947756172643a207265656e7472616e742063616c6c00604482015290519081900360640190fd5b6000805460ff191690553461026d828261038d565b6000610278826103f4565b60035490915061028e908363ffffffff61041116565b60035561029b8382610472565b826001600160a01b03166102ad6101fd565b6001600160a01b03167f6faf93231a456e552dbc9961f58d9713ee4f2e69d15f1975b050ef0911053a7b8484604051808381526020018281526020019250505060405180910390a36102ff83836103f0565b61030761047c565b61031183836103f0565b50506000805460ff1916600117905550565b600554421190565b60025490565b60035490565b6000600454421015801561034d57506005544211155b905090565b60055490565b6001546001600160a01b031690565b610370816104b5565b50565b60045490565b60005461010090046001600160a01b031690565b610395610337565b6103e6576040805162461bcd60e51b815260206004820152601860248201527f54696d656443726f776473616c653a206e6f74206f70656e0000000000000000604482015290519081900360640190fd5b6103f08282610591565b5050565b600061040b6002548361062890919063ffffffff16565b92915050565b60008282018381101561046b576040805162461bcd60e51b815260206004820152601b60248201527f536166654d6174683a206164646974696f6e206f766572666c6f770000000000604482015290519081900360640190fd5b9392505050565b6103f08282610681565b6001546040516001600160a01b03909116903480156108fc02916000818181858888f19350505050158015610370573d6000803e3d6000fd5b6104bd610323565b1561050f576040805162461bcd60e51b815260206004820152601e60248201527f54696d656443726f776473616c653a20616c726561647920636c6f7365640000604482015290519081900360640190fd5b600554811161054f5760405162461bcd60e51b815260040180806020018281038252603f815260200180610918603f913960400191505060405180910390fd5b600554604080519182526020820183905280517f46711e222f558a07afd26e5e71b48ecb0a8b2cdcd40faeb1323e05e2c76a2f329281900390910190a1600555565b6001600160a01b0382166105d65760405162461bcd60e51b815260040180806020018281038252602a815260200180610978602a913960400191505060405180910390fd5b806103f0576040805162461bcd60e51b815260206004820152601960248201527f43726f776473616c653a20776569416d6f756e74206973203000000000000000604482015290519081900360640190fd5b6000826106375750600061040b565b8282028284828161064457fe5b041461046b5760405162461bcd60e51b81526004018080602001828103825260218152602001806109576021913960400191505060405180910390fd5b6000546103f09061010090046001600160a01b03168383604080516001600160a01b038416602482015260448082018490528251808303909101815260649091019091526020810180517bffffffffffffffffffffffffffffffffffffffffffffffffffffffff167fa9059cbb0000000000000000000000000000000000000000000000000000000017905261071890849061071d565b505050565b61072f826001600160a01b03166108db565b610780576040805162461bcd60e51b815260206004820152601f60248201527f5361666545524332303a2063616c6c20746f206e6f6e2d636f6e747261637400604482015290519081900360640190fd5b60006060836001600160a01b0316836040518082805190602001908083835b602083106107be5780518252601f19909201916020918201910161079f565b6001836020036101000a0380198251168184511680821785525050505050509050019150506000604051808303816000865af19150503d8060008114610820576040519150601f19603f3d011682016040523d82523d6000602084013e610825565b606091505b50915091508161087c576040805162461bcd60e51b815260206004820181905260248201527f5361666545524332303a206c6f772d6c6576656c2063616c6c206661696c6564604482015290519081900360640190fd5b8051156108d55780806020019051602081101561089857600080fd5b50516108d55760405162461bcd60e51b815260040180806020018281038252602a8152602001806109a2602a913960400191505060405180910390fd5b50505050565b6000813f7fc5d2460186f7233c927e7db2dcc703c0e500b653ca82273b7bfad8045d85a47081811480159061090f57508115155b94935050505056fe54696d656443726f776473616c653a206e657720636c6f73696e672074696d65206973206265666f72652063757272656e7420636c6f73696e672074696d65536166654d6174683a206d756c7469706c69636174696f6e206f766572666c6f7743726f776473616c653a2062656e656669636961727920697320746865207a65726f20616464726573735361666545524332303a204552433230206f7065726174696f6e20646964206e6f742073756363656564a265627a7a7231582063ff7c5a3243aa7bae711cd89d8c33fbb4bb455ff3d32396a5826dbe5e35800d64736f6c6343000510003254696d656443726f776473616c653a206f70656e696e672074696d65206973206265666f72652063757272656e742074696d6554696d656443726f776473616c653a206f70656e696e672074696d65206973206e6f74206265666f726520636c6f73696e672074696d6543726f776473616c653a20746f6b656e20697320746865207a65726f206164647265737343726f776473616c653a2077616c6c657420697320746865207a65726f2061646472657373",
  "linkReferences": {},
  "deployedLinkReferences": {}
}