{
  "_format": "hh-sol-artifact-1",
  "contractName": "ERC721MintableBurnableImpl",
  "sourceName": "contracts/IDO_basedon_Openzeppelin/mocks/ERC721MintableBurnableImpl.sol",
  "abi": [
    {
      "inputs": [],
      "payable": false,
      "stateMutability": "nonpayable",
      "type": "constructor"
    },
    {
      "anonymous": false,
      "inputs": [
        {
          "indexed": true,
          "internalType": "address",
          "name": "owner",
          "type": "address"
        },
        {
          "indexed": true,
          "internalType": "address",
          "name": "approved",
          "type": "address"
        },
        {
          "indexed": true,
          "internalType": "uint256",
          "name": "tokenId",
          "type": "uint256"
        }
      ],
      "name": "Approval",
      "type": "event"
    },
    {
      "anonymous": false,
      "inputs": [
        {
          "indexed": true,
          "internalType": "address",
          "name": "owner",
          "type": "address"
        },
        {
          "indexed": true,
          "internalType": "address",
          "name": "operator",
          "type": "address"
        },
        {
          "indexed": false,
          "internalType": "bool",
          "name": "approved",
          "type": "bool"
        }
      ],
      "name": "ApprovalForAll",
      "type": "event"
    },
    {
      "anonymous": false,
      "inputs": [
        {
          "indexed": true,
          "internalType": "address",
          "name": "account",
          "type": "address"
        }
      ],
      "name": "MinterAdded",
      "type": "event"
    },
    {
      "anonymous": false,
      "inputs": [
        {
          "indexed": true,
          "internalType": "address",
          "name": "account",
          "type": "address"
        }
      ],
      "name": "MinterRemoved",
      "type": "event"
    },
    {
      "anonymous": false,
      "inputs": [
        {
          "indexed": true,
          "internalType": "address",
          "name": "from",
          "type": "address"
        },
        {
          "indexed": true,
          "internalType": "address",
          "name": "to",
          "type": "address"
        },
        {
          "indexed": true,
          "internalType": "uint256",
          "name": "tokenId",
          "type": "uint256"
        }
      ],
      "name": "Transfer",
      "type": "event"
    },
    {
      "constant": false,
      "inputs": [
        {
          "internalType": "address",
          "name": "account",
          "type": "address"
        }
      ],
      "name": "addMinter",
      "outputs": [],
      "payable": false,
      "stateMutability": "nonpayable",
      "type": "function"
    },
    {
      "constant": false,
      "inputs": [
        {
          "internalType": "address",
          "name": "to",
          "type": "address"
        },
        {
          "internalType": "uint256",
          "name": "tokenId",
          "type": "uint256"
        }
      ],
      "name": "approve",
      "outputs": [],
      "payable": false,
      "stateMutability": "nonpayable",
      "type": "function"
    },
    {
      "constant": true,
      "inputs": [
        {
          "internalType": "address",
          "name": "owner",
          "type": "address"
        }
      ],
      "name": "balanceOf",
      "outputs": [
        {
          "internalType": "uint256",
          "name": "",
          "type": "uint256"
        }
      ],
      "payable": false,
      "stateMutability": "view",
      "type": "function"
    },
    {
      "constant": true,
      "inputs": [],
      "name": "baseURI",
      "outputs": [
        {
          "internalType": "string",
          "name": "",
          "type": "string"
        }
      ],
      "payable": false,
      "stateMutability": "view",
      "type": "function"
    },
    {
      "constant": false,
      "inputs": [
        {
          "internalType": "uint256",
          "name": "tokenId",
          "type": "uint256"
        }
      ],
      "name": "burn",
      "outputs": [],
      "payable": false,
      "stateMutability": "nonpayable",
      "type": "function"
    },
    {
      "constant": true,
      "inputs": [
        {
          "internalType": "uint256",
          "name": "tokenId",
          "type": "uint256"
        }
      ],
      "name": "getApproved",
      "outputs": [
        {
          "internalType": "address",
          "name": "",
          "type": "address"
        }
      ],
      "payable": false,
      "stateMutability": "view",
      "type": "function"
    },
    {
      "constant": true,
      "inputs": [
        {
          "internalType": "address",
          "name": "owner",
          "type": "address"
        },
        {
          "internalType": "address",
          "name": "operator",
          "type": "address"
        }
      ],
      "name": "isApprovedForAll",
      "outputs": [
        {
          "internalType": "bool",
          "name": "",
          "type": "bool"
        }
      ],
      "payable": false,
      "stateMutability": "view",
      "type": "function"
    },
    {
      "constant": true,
      "inputs": [
        {
          "internalType": "address",
          "name": "account",
          "type": "address"
        }
      ],
      "name": "isMinter",
      "outputs": [
        {
          "internalType": "bool",
          "name": "",
          "type": "bool"
        }
      ],
      "payable": false,
      "stateMutability": "view",
      "type": "function"
    },
    {
      "constant": false,
      "inputs": [
        {
          "internalType": "address",
          "name": "to",
          "type": "address"
        },
        {
          "internalType": "uint256",
          "name": "tokenId",
          "type": "uint256"
        }
      ],
      "name": "mint",
      "outputs": [
        {
          "internalType": "bool",
          "name": "",
          "type": "bool"
        }
      ],
      "payable": false,
      "stateMutability": "nonpayable",
      "type": "function"
    },
    {
      "constant": false,
      "inputs": [
        {
          "internalType": "address",
          "name": "to",
          "type": "address"
        },
        {
          "internalType": "uint256",
          "name": "tokenId",
          "type": "uint256"
        },
        {
          "internalType": "string",
          "name": "tokenURI",
          "type": "string"
        }
      ],
      "name": "mintWithTokenURI",
      "outputs": [
        {
          "internalType": "bool",
          "name": "",
          "type": "bool"
        }
      ],
      "payable": false,
      "stateMutability": "nonpayable",
      "type": "function"
    },
    {
      "constant": true,
      "inputs": [],
      "name": "name",
      "outputs": [
        {
          "internalType": "string",
          "name": "",
          "type": "string"
        }
      ],
      "payable": false,
      "stateMutability": "view",
      "type": "function"
    },
    {
      "constant": true,
      "inputs": [
        {
          "internalType": "uint256",
          "name": "tokenId",
          "type": "uint256"
        }
      ],
      "name": "ownerOf",
      "outputs": [
        {
          "internalType": "address",
          "name": "",
          "type": "address"
        }
      ],
      "payable": false,
      "stateMutability": "view",
      "type": "function"
    },
    {
      "constant": false,
      "inputs": [],
      "name": "renounceMinter",
      "outputs": [],
      "payable": false,
      "stateMutability": "nonpayable",
      "type": "function"
    },
    {
      "constant": false,
      "inputs": [
        {
          "internalType": "address",
          "name": "to",
          "type": "address"
        },
        {
          "internalType": "uint256",
          "name": "tokenId",
          "type": "uint256"
        },
        {
          "internalType": "bytes",
          "name": "_data",
          "type": "bytes"
        }
      ],
      "name": "safeMint",
      "outputs": [
        {
          "internalType": "bool",
          "name": "",
          "type": "bool"
        }
      ],
      "payable": false,
      "stateMutability": "nonpayable",
      "type": "function"
    },
    {
      "constant": false,
      "inputs": [
        {
          "internalType": "address",
          "name": "to",
          "type": "address"
        },
        {
          "internalType": "uint256",
          "name": "tokenId",
          "type": "uint256"
        }
      ],
      "name": "safeMint",
      "outputs": [
        {
          "internalType": "bool",
          "name": "",
          "type": "bool"
        }
      ],
      "payable": false,
      "stateMutability": "nonpayable",
      "type": "function"
    },
    {
      "constant": false,
      "inputs": [
        {
          "internalType": "address",
          "name": "from",
          "type": "address"
        },
        {
          "internalType": "address",
          "name": "to",
          "type": "address"
        },
        {
          "internalType": "uint256",
          "name": "tokenId",
          "type": "uint256"
        }
      ],
      "name": "safeTransferFrom",
      "outputs": [],
      "payable": false,
      "stateMutability": "nonpayable",
      "type": "function"
    },
    {
      "constant": false,
      "inputs": [
        {
          "internalType": "address",
          "name": "from",
          "type": "address"
        },
        {
          "internalType": "address",
          "name": "to",
          "type": "address"
        },
        {
          "internalType": "uint256",
          "name": "tokenId",
          "type": "uint256"
        },
        {
          "internalType": "bytes",
          "name": "_data",
          "type": "bytes"
        }
      ],
      "name": "safeTransferFrom",
      "outputs": [],
      "payable": false,
      "stateMutability": "nonpayable",
      "type": "function"
    },
    {
      "constant": false,
      "inputs": [
        {
          "internalType": "address",
          "name": "to",
          "type": "address"
        },
        {
          "internalType": "bool",
          "name": "approved",
          "type": "bool"
        }
      ],
      "name": "setApprovalForAll",
      "outputs": [],
      "payable": false,
      "stateMutability": "nonpayable",
      "type": "function"
    },
    {
      "constant": true,
      "inputs": [
        {
          "internalType": "bytes4",
          "name": "interfaceId",
          "type": "bytes4"
        }
      ],
      "name": "supportsInterface",
      "outputs": [
        {
          "internalType": "bool",
          "name": "",
          "type": "bool"
        }
      ],
      "payable": false,
      "stateMutability": "view",
      "type": "function"
    },
    {
      "constant": true,
      "inputs": [],
      "name": "symbol",
      "outputs": [
        {
          "internalType": "string",
          "name": "",
          "type": "string"
        }
      ],
      "payable": false,
      "stateMutability": "view",
      "type": "function"
    },
    {
      "constant": true,
      "inputs": [
        {
          "internalType": "uint256",
          "name": "index",
          "type": "uint256"
        }
      ],
      "name": "tokenByIndex",
      "outputs": [
        {
          "internalType": "uint256",
          "name": "",
          "type": "uint256"
        }
      ],
      "payable": false,
      "stateMutability": "view",
      "type": "function"
    },
    {
      "constant": true,
      "inputs": [
        {
          "internalType": "address",
          "name": "owner",
          "type": "address"
        },
        {
          "internalType": "uint256",
          "name": "index",
          "type": "uint256"
        }
      ],
      "name": "tokenOfOwnerByIndex",
      "outputs": [
        {
          "internalType": "uint256",
          "name": "",
          "type": "uint256"
        }
      ],
      "payable": false,
      "stateMutability": "view",
      "type": "function"
    },
    {
      "constant": true,
      "inputs": [
        {
          "internalType": "uint256",
          "name": "tokenId",
          "type": "uint256"
        }
      ],
      "name": "tokenURI",
      "outputs": [
        {
          "internalType": "string",
          "name": "",
          "type": "string"
        }
      ],
      "payable": false,
      "stateMutability": "view",
      "type": "function"
    },
    {
      "constant": true,
      "inputs": [],
      "name": "totalSupply",
      "outputs": [
        {
          "internalType": "uint256",
          "name": "",
          "type": "uint256"
        }
      ],
      "payable": false,
      "stateMutability": "view",
      "type": "function"
    },
    {
      "constant": false,
      "inputs": [
        {
          "internalType": "address",
          "name": "from",
          "type": "address"
        },
        {
          "internalType": "address",
          "name": "to",
          "type": "address"
        },
        {
          "internalType": "uint256",
          "name": "tokenId",
          "type": "uint256"
        }
      ],
      "name": "transferFrom",
      "outputs": [],
      "payable": false,
      "stateMutability": "nonpayable",
      "type": "function"
    }
  ],
  "bytecode": "0x60806040523480156200001157600080fd5b506040518060400160405280600481526020016315195cdd60e21b81525060405180604001604052806004815260200163151154d560e21b8152508181620000666301ffc9a760e01b6200011060201b60201c565b620000816380ac58cd60e01b6001600160e01b036200011016565b6200009c63780e9d6360e01b6001600160e01b036200011016565b8151620000b1906009906020850190620002e2565b508051620000c790600a906020840190620002e2565b50620000e3635b5e139f60e01b6001600160e01b036200011016565b505050506200010a620000fb6200019560201b60201c565b6001600160e01b036200019a16565b62000384565b6001600160e01b0319808216141562000170576040805162461bcd60e51b815260206004820152601c60248201527f4552433136353a20696e76616c696420696e7465726661636520696400000000604482015290519081900360640190fd5b6001600160e01b0319166000908152602081905260409020805460ff19166001179055565b335b90565b620001b581600d620001ec60201b62001bd61790919060201c565b6040516001600160a01b038216907f6ae172837ea30b801fbfcdd4108aa1d5bf8ff775444fd70256b44e6bf3dfc3f690600090a250565b6200020182826001600160e01b036200027916565b1562000254576040805162461bcd60e51b815260206004820152601f60248201527f526f6c65733a206163636f756e7420616c72656164792068617320726f6c6500604482015290519081900360640190fd5b6001600160a01b0316600090815260209190915260409020805460ff19166001179055565b60006001600160a01b038216620002c25760405162461bcd60e51b8152600401808060200182810382526022815260200180620027c46022913960400191505060405180910390fd5b506001600160a01b03166000908152602091909152604090205460ff1690565b828054600181600116156101000203166002900490600052602060002090601f016020900481019282601f106200032557805160ff191683800117855562000355565b8280016001018555821562000355579182015b828111156200035557825182559160200191906001019062000338565b506200036392915062000367565b5090565b6200019791905b808211156200036357600081556001016200036e565b61243080620003946000396000f3fe608060405234801561001057600080fd5b50600436106101a35760003560e01c80636352211e116100ee5780639865027511610097578063aa271e1a11610071578063aa271e1a14610630578063b88d4fde14610656578063c87b56dd1461071c578063e985e9c514610739576101a3565b806398650275146105ce578063a1448194146105d6578063a22cb46514610602576101a3565b80638832e6e3116100c85780638832e6e3146104e557806395d89b41146105a0578063983b2d56146105a8576101a3565b80636352211e1461049a5780636c0360eb146104b757806370a08231146104bf576101a3565b80632f745c591161015057806342966c681161012a57806342966c68146103a55780634f6ccce7146103c257806350bb4e7f146103df576101a3565b80632f745c591461031757806340c10f191461034357806342842e0e1461036f576101a3565b8063095ea7b311610181578063095ea7b31461029957806318160ddd146102c757806323b872dd146102e1576101a3565b806301ffc9a7146101a857806306fdde03146101e3578063081812fc14610260575b600080fd5b6101cf600480360360208110156101be57600080fd5b50356001600160e01b031916610767565b604080519115158252519081900360200190f35b6101eb61078a565b6040805160208082528351818301528351919283929083019185019080838360005b8381101561022557818101518382015260200161020d565b50505050905090810190601f1680156102525780820380516001836020036101000a031916815260200191505b509250505060405180910390f35b61027d6004803603602081101561027657600080fd5b5035610821565b604080516001600160a01b039092168252519081900360200190f35b6102c5600480360360408110156102af57600080fd5b506001600160a01b038135169060200135610883565b005b6102cf6109ab565b60408051918252519081900360200190f35b6102c5600480360360608110156102f757600080fd5b506001600160a01b038135811691602081013590911690604001356109b1565b6102cf6004803603604081101561032d57600080fd5b506001600160a01b038135169060200135610a0d565b6101cf6004803603604081101561035957600080fd5b506001600160a01b038135169060200135610a8c565b6102c56004803603606081101561038557600080fd5b506001600160a01b03813581169160208101359091169060400135610aec565b6102c5600480360360208110156103bb57600080fd5b5035610b07565b6102cf600480360360208110156103d857600080fd5b5035610b59565b6101cf600480360360608110156103f557600080fd5b6001600160a01b038235169160208101359181019060608101604082013564010000000081111561042557600080fd5b82018360208201111561043757600080fd5b8035906020019184600183028401116401000000008311171561045957600080fd5b91908080601f016020809104026020016040519081016040528093929190818152602001838380828437600092019190915250929550610bbf945050505050565b61027d600480360360208110156104b057600080fd5b5035610c25565b6101eb610c7f565b6102cf600480360360208110156104d557600080fd5b50356001600160a01b0316610ce0565b6101cf600480360360608110156104fb57600080fd5b6001600160a01b038235169160208101359181019060608101604082013564010000000081111561052b57600080fd5b82018360208201111561053d57600080fd5b8035906020019184600183028401116401000000008311171561055f57600080fd5b91908080601f016020809104026020016040519081016040528093929190818152602001838380828437600092019190915250929550610d48945050505050565b6101eb610d9b565b6102c5600480360360208110156105be57600080fd5b50356001600160a01b0316610dfc565b6102c5610e4b565b6101cf600480360360408110156105ec57600080fd5b506001600160a01b038135169060200135610e5d565b6102c56004803603604081101561061857600080fd5b506001600160a01b0381351690602001351515610eaf565b6101cf6004803603602081101561064657600080fd5b50356001600160a01b0316610fb4565b6102c56004803603608081101561066c57600080fd5b6001600160a01b038235811692602081013590911691604082013591908101906080810160608201356401000000008111156106a757600080fd5b8201836020820111156106b957600080fd5b803590602001918460018302840111640100000000831117156106db57600080fd5b91908080601f016020809104026020016040519081016040528093929190818152602001838380828437600092019190915250929550610fc7945050505050565b6101eb6004803603602081101561073257600080fd5b5035611025565b6101cf6004803603604081101561074f57600080fd5b506001600160a01b03813581169160200135166111f1565b6001600160e01b0319811660009081526020819052604090205460ff165b919050565b60098054604080516020601f60026000196101006001881615020190951694909404938401819004810282018101909252828152606093909290918301828280156108165780601f106107eb57610100808354040283529160200191610816565b820191906000526020600020905b8154815290600101906020018083116107f957829003601f168201915b505050505090505b90565b600061082c8261121f565b6108675760405162461bcd60e51b815260040180806020018281038252602c815260200180612257602c913960400191505060405180910390fd5b506000908152600260205260409020546001600160a01b031690565b600061088e82610c25565b9050806001600160a01b0316836001600160a01b031614156108e15760405162461bcd60e51b81526004018080602001828103825260218152602001806123296021913960400191505060405180910390fd5b806001600160a01b03166108f361123c565b6001600160a01b0316148061091457506109148161090f61123c565b6111f1565b61094f5760405162461bcd60e51b815260040180806020018281038252603881526020018061217b6038913960400191505060405180910390fd5b60008281526002602052604080822080546001600160a01b0319166001600160a01b0387811691821790925591518593918516917f8c5be1e5ebec7d5bd14f71427d1e84f3dd0314c0f7b2291e5b200ac8c7c3b92591a4505050565b60075490565b6109c26109bc61123c565b82611240565b6109fd5760405162461bcd60e51b815260040180806020018281038252603181526020018061234a6031913960400191505060405180910390fd5b610a088383836112e4565b505050565b6000610a1883610ce0565b8210610a555760405162461bcd60e51b815260040180806020018281038252602b8152602001806120ce602b913960400191505060405180910390fd5b6001600160a01b0383166000908152600560205260409020805483908110610a7957fe5b9060005260206000200154905092915050565b6000610a9e610a9961123c565b610fb4565b610ad95760405162461bcd60e51b81526004018080602001828103825260308152602001806122066030913960400191505060405180910390fd5b610ae38383611303565b50600192915050565b610a0883838360405180602001604052806000815250610fc7565b610b126109bc61123c565b610b4d5760405162461bcd60e51b81526004018080602001828103825260308152602001806123cc6030913960400191505060405180910390fd5b610b5681611324565b50565b6000610b636109ab565b8210610ba05760405162461bcd60e51b815260040180806020018281038252602c81526020018061237b602c913960400191505060405180910390fd5b60078281548110610bad57fe5b90600052602060002001549050919050565b6000610bcc610a9961123c565b610c075760405162461bcd60e51b81526004018080602001828103825260308152602001806122066030913960400191505060405180910390fd5b610c118484611303565b610c1b8383611336565b5060019392505050565b6000818152600160205260408120546001600160a01b031680610c795760405162461bcd60e51b81526004018080602001828103825260298152602001806121dd6029913960400191505060405180910390fd5b92915050565b600b8054604080516020601f60026000196101006001881615020190951694909404938401819004810282018101909252828152606093909290918301828280156108165780601f106107eb57610100808354040283529160200191610816565b60006001600160a01b038216610d275760405162461bcd60e51b815260040180806020018281038252602a8152602001806121b3602a913960400191505060405180910390fd5b6001600160a01b0382166000908152600360205260409020610c7990611399565b6000610d55610a9961123c565b610d905760405162461bcd60e51b81526004018080602001828103825260308152602001806122066030913960400191505060405180910390fd5b610c1b84848461139d565b600a8054604080516020601f60026000196101006001881615020190951694909404938401819004810282018101909252828152606093909290918301828280156108165780601f106107eb57610100808354040283529160200191610816565b610e07610a9961123c565b610e425760405162461bcd60e51b81526004018080602001828103825260308152602001806122066030913960400191505060405180910390fd5b610b56816113ef565b610e5b610e5661123c565b611437565b565b6000610e6a610a9961123c565b610ea55760405162461bcd60e51b81526004018080602001828103825260308152602001806122066030913960400191505060405180910390fd5b610ae3838361147f565b610eb761123c565b6001600160a01b0316826001600160a01b03161415610f1d576040805162461bcd60e51b815260206004820152601960248201527f4552433732313a20617070726f766520746f2063616c6c657200000000000000604482015290519081900360640190fd5b8060046000610f2a61123c565b6001600160a01b03908116825260208083019390935260409182016000908120918716808252919093529120805460ff191692151592909217909155610f6e61123c565b60408051841515815290516001600160a01b0392909216917f17307eab39ab6107e8899845ad3d59bd9653f200f220920489ca2b5937696c319181900360200190a35050565b6000610c79600d8363ffffffff61149916565b610fd8610fd261123c565b83611240565b6110135760405162461bcd60e51b815260040180806020018281038252603181526020018061234a6031913960400191505060405180910390fd5b61101f84848484611500565b50505050565b60606110308261121f565b61106b5760405162461bcd60e51b815260040180806020018281038252602f8152602001806122fa602f913960400191505060405180910390fd5b6000828152600c602090815260409182902080548351601f60026000196101006001861615020190931692909204918201849004840281018401909452808452606093928301828280156111005780601f106110d557610100808354040283529160200191611100565b820191906000526020600020905b8154815290600101906020018083116110e357829003601f168201915b50505050509050805160001415611127575050604080516020810190915260008152610785565b600b8160405160200180838054600181600116156101000203166002900480156111885780601f10611166576101008083540402835291820191611188565b820191906000526020600020905b815481529060010190602001808311611174575b5050825160208401908083835b602083106111b45780518252601f199092019160209182019101611195565b6001836020036101000a03801982511681845116808217855250505050505090500192505050604051602081830303815290604052915050610785565b6001600160a01b03918216600090815260046020908152604080832093909416825291909152205460ff1690565b6000908152600160205260409020546001600160a01b0316151590565b3390565b600061124b8261121f565b6112865760405162461bcd60e51b815260040180806020018281038252602c81526020018061214f602c913960400191505060405180910390fd5b600061129183610c25565b9050806001600160a01b0316846001600160a01b031614806112cc5750836001600160a01b03166112c184610821565b6001600160a01b0316145b806112dc57506112dc81856111f1565b949350505050565b6112ef838383611552565b6112f98382611696565b610a08828261178b565b61130d82826117c9565b611317828261178b565b611320816118fa565b5050565b610b5661133082610c25565b8261193e565b61133f8261121f565b61137a5760405162461bcd60e51b815260040180806020018281038252602c815260200180612283602c913960400191505060405180910390fd5b6000828152600c602090815260409091208251610a0892840190611fd1565b5490565b6113a78383611303565b6113b46000848484611986565b610a085760405162461bcd60e51b81526004018080602001828103825260328152602001806120f96032913960400191505060405180910390fd5b611400600d8263ffffffff611bd616565b6040516001600160a01b038216907f6ae172837ea30b801fbfcdd4108aa1d5bf8ff775444fd70256b44e6bf3dfc3f690600090a250565b611448600d8263ffffffff611c5716565b6040516001600160a01b038216907fe94479a9f7e1952cc78f2d6baab678adc1b772d936c6583def489e524cb6669290600090a250565b61132082826040518060200160405280600081525061139d565b60006001600160a01b0382166114e05760405162461bcd60e51b81526004018080602001828103825260228152602001806122af6022913960400191505060405180910390fd5b506001600160a01b03166000908152602091909152604090205460ff1690565b61150b8484846112e4565b61151784848484611986565b61101f5760405162461bcd60e51b81526004018080602001828103825260328152602001806120f96032913960400191505060405180910390fd5b826001600160a01b031661156582610c25565b6001600160a01b0316146115aa5760405162461bcd60e51b81526004018080602001828103825260298152602001806122d16029913960400191505060405180910390fd5b6001600160a01b0382166115ef5760405162461bcd60e51b815260040180806020018281038252602481526020018061212b6024913960400191505060405180910390fd5b6115f881611cbe565b6001600160a01b038316600090815260036020526040902061161990611cf9565b6001600160a01b038216600090815260036020526040902061163a90611d10565b60008181526001602052604080822080546001600160a01b0319166001600160a01b0386811691821790925591518493918716917fddf252ad1be2c89b69c2b068fc378daa952ba7f163c4a11628f55a4df523b3ef91a4505050565b6001600160a01b0382166000908152600560205260408120546116c090600163ffffffff611d1916565b60008381526006602052604090205490915080821461175b576001600160a01b03841660009081526005602052604081208054849081106116fd57fe5b906000526020600020015490508060056000876001600160a01b03166001600160a01b03168152602001908152602001600020838154811061173b57fe5b600091825260208083209091019290925591825260069052604090208190555b6001600160a01b038416600090815260056020526040902080549061178490600019830161204f565b5050505050565b6001600160a01b0390911660009081526005602081815260408084208054868652600684529185208290559282526001810183559183529091200155565b6001600160a01b038216611824576040805162461bcd60e51b815260206004820181905260248201527f4552433732313a206d696e7420746f20746865207a65726f2061646472657373604482015290519081900360640190fd5b61182d8161121f565b1561187f576040805162461bcd60e51b815260206004820152601c60248201527f4552433732313a20746f6b656e20616c7265616479206d696e74656400000000604482015290519081900360640190fd5b600081815260016020908152604080832080546001600160a01b0319166001600160a01b0387169081179091558352600390915290206118be90611d10565b60405181906001600160a01b038416906000907fddf252ad1be2c89b69c2b068fc378daa952ba7f163c4a11628f55a4df523b3ef908290a45050565b600780546000838152600860205260408120829055600182018355919091527fa66cc928b5edb82af9bd49922954155ab7b0942694bea4ce44661d9a8736c6880155565b6119488282611d62565b6000818152600c60205260409020546002600019610100600184161502019091160415611320576000818152600c6020526040812061132091612073565b600061199a846001600160a01b0316611d8e565b6119a6575060016112dc565b600060606001600160a01b038616630a85bd0160e11b6119c461123c565b89888860405160240180856001600160a01b03166001600160a01b03168152602001846001600160a01b03166001600160a01b0316815260200183815260200180602001828103825283818151815260200191508051906020019080838360005b83811015611a3d578181015183820152602001611a25565b50505050905090810190601f168015611a6a5780820380516001836020036101000a031916815260200191505b5060408051601f198184030181529181526020820180517bffffffffffffffffffffffffffffffffffffffffffffffffffffffff166001600160e01b0319909a16999099178952518151919890975087965094509250829150849050835b60208310611ae75780518252601f199092019160209182019101611ac8565b6001836020036101000a0380198251168184511680821785525050505050509050019150506000604051808303816000865af19150503d8060008114611b49576040519150601f19603f3d011682016040523d82523d6000602084013e611b4e565b606091505b509150915081611b9f57805115611b685780518082602001fd5b60405162461bcd60e51b81526004018080602001828103825260328152602001806120f96032913960400191505060405180910390fd5b6000818060200190516020811015611bb657600080fd5b50516001600160e01b031916630a85bd0160e11b1493506112dc92505050565b611be08282611499565b15611c32576040805162461bcd60e51b815260206004820152601f60248201527f526f6c65733a206163636f756e7420616c72656164792068617320726f6c6500604482015290519081900360640190fd5b6001600160a01b0316600090815260209190915260409020805460ff19166001179055565b611c618282611499565b611c9c5760405162461bcd60e51b81526004018080602001828103825260218152602001806122366021913960400191505060405180910390fd5b6001600160a01b0316600090815260209190915260409020805460ff19169055565b6000818152600260205260409020546001600160a01b031615610b5657600090815260026020526040902080546001600160a01b0319169055565b8054611d0c90600163ffffffff611d1916565b9055565b80546001019055565b6000611d5b83836040518060400160405280601e81526020017f536166654d6174683a207375627472616374696f6e206f766572666c6f770000815250611dc7565b9392505050565b611d6c8282611e5e565b611d768282611696565b60008181526006602052604081205561132081611f35565b6000813f7fc5d2460186f7233c927e7db2dcc703c0e500b653ca82273b7bfad8045d85a4708181148015906112dc575050151592915050565b60008184841115611e565760405162461bcd60e51b81526004018080602001828103825283818151815260200191508051906020019080838360005b83811015611e1b578181015183820152602001611e03565b50505050905090810190601f168015611e485780820380516001836020036101000a031916815260200191505b509250505060405180910390fd5b505050900390565b816001600160a01b0316611e7182610c25565b6001600160a01b031614611eb65760405162461bcd60e51b81526004018080602001828103825260258152602001806123a76025913960400191505060405180910390fd5b611ebf81611cbe565b6001600160a01b0382166000908152600360205260409020611ee090611cf9565b60008181526001602052604080822080546001600160a01b0319169055518291906001600160a01b038516907fddf252ad1be2c89b69c2b068fc378daa952ba7f163c4a11628f55a4df523b3ef908390a45050565b600754600090611f4c90600163ffffffff611d1916565b60008381526008602052604081205460078054939450909284908110611f6e57fe5b906000526020600020015490508060078381548110611f8957fe5b60009182526020808320909101929092558281526008909152604090208290556007805490611fbc90600019830161204f565b50505060009182525060086020526040812055565b828054600181600116156101000203166002900490600052602060002090601f016020900481019282601f1061201257805160ff191683800117855561203f565b8280016001018555821561203f579182015b8281111561203f578251825591602001919060010190612024565b5061204b9291506120b3565b5090565b815481835581811115610a0857600083815260209020610a089181019083016120b3565b50805460018160011615610100020316600290046000825580601f106120995750610b56565b601f016020900490600052602060002090810190610b5691905b61081e91905b8082111561204b57600081556001016120b956fe455243373231456e756d657261626c653a206f776e657220696e646578206f7574206f6620626f756e64734552433732313a207472616e7366657220746f206e6f6e20455243373231526563656976657220696d706c656d656e7465724552433732313a207472616e7366657220746f20746865207a65726f20616464726573734552433732313a206f70657261746f7220717565727920666f72206e6f6e6578697374656e7420746f6b656e4552433732313a20617070726f76652063616c6c6572206973206e6f74206f776e6572206e6f7220617070726f76656420666f7220616c6c4552433732313a2062616c616e636520717565727920666f7220746865207a65726f20616464726573734552433732313a206f776e657220717565727920666f72206e6f6e6578697374656e7420746f6b656e4d696e746572526f6c653a2063616c6c657220646f6573206e6f74206861766520746865204d696e74657220726f6c65526f6c65733a206163636f756e7420646f6573206e6f74206861766520726f6c654552433732313a20617070726f76656420717565727920666f72206e6f6e6578697374656e7420746f6b656e4552433732314d657461646174613a2055524920736574206f66206e6f6e6578697374656e7420746f6b656e526f6c65733a206163636f756e7420697320746865207a65726f20616464726573734552433732313a207472616e73666572206f6620746f6b656e2074686174206973206e6f74206f776e4552433732314d657461646174613a2055524920717565727920666f72206e6f6e6578697374656e7420746f6b656e4552433732313a20617070726f76616c20746f2063757272656e74206f776e65724552433732313a207472616e736665722063616c6c6572206973206e6f74206f776e6572206e6f7220617070726f766564455243373231456e756d657261626c653a20676c6f62616c20696e646578206f7574206f6620626f756e64734552433732313a206275726e206f6620746f6b656e2074686174206973206e6f74206f776e4552433732314275726e61626c653a2063616c6c6572206973206e6f74206f776e6572206e6f7220617070726f766564a265627a7a72315820a65dcf9d482813b88de7c4d544170ebb4d350c1d926e83558d9ece9c8dba659764736f6c63430005100032526f6c65733a206163636f756e7420697320746865207a65726f2061646472657373",
  "linkReferences": {},
  "deployedLinkReferences": {}
}