{
  "_format": "hh-sol-artifact-1",
  "contractName": "GSNRecipientSignatureMock",
  "sourceName": "contracts/IDO_basedon_Openzeppelin/mocks/GSNRecipientSignatureMock.sol",
  "abi": [
    {
      "inputs": [
        {
          "internalType": "address",
          "name": "trustedSigner",
          "type": "address"
        }
      ],
      "payable": false,
      "stateMutability": "nonpayable",
      "type": "constructor"
    },
    {
      "anonymous": false,
      "inputs": [],
      "name": "MockFunctionCalled",
      "type": "event"
    },
    {
      "anonymous": false,
      "inputs": [
        {
          "indexed": true,
          "internalType": "address",
          "name": "oldRelayHub",
          "type": "address"
        },
        {
          "indexed": true,
          "internalType": "address",
          "name": "newRelayHub",
          "type": "address"
        }
      ],
      "name": "RelayHubChanged",
      "type": "event"
    },
    {
      "constant": true,
      "inputs": [
        {
          "internalType": "address",
          "name": "relay",
          "type": "address"
        },
        {
          "internalType": "address",
          "name": "from",
          "type": "address"
        },
        {
          "internalType": "bytes",
          "name": "encodedFunction",
          "type": "bytes"
        },
        {
          "internalType": "uint256",
          "name": "transactionFee",
          "type": "uint256"
        },
        {
          "internalType": "uint256",
          "name": "gasPrice",
          "type": "uint256"
        },
        {
          "internalType": "uint256",
          "name": "gasLimit",
          "type": "uint256"
        },
        {
          "internalType": "uint256",
          "name": "nonce",
          "type": "uint256"
        },
        {
          "internalType": "bytes",
          "name": "approvalData",
          "type": "bytes"
        },
        {
          "internalType": "uint256",
          "name": "",
          "type": "uint256"
        }
      ],
      "name": "acceptRelayedCall",
      "outputs": [
        {
          "internalType": "uint256",
          "name": "",
          "type": "uint256"
        },
        {
          "internalType": "bytes",
          "name": "",
          "type": "bytes"
        }
      ],
      "payable": false,
      "stateMutability": "view",
      "type": "function"
    },
    {
      "constant": true,
      "inputs": [],
      "name": "getHubAddr",
      "outputs": [
        {
          "internalType": "address",
          "name": "",
          "type": "address"
        }
      ],
      "payable": false,
      "stateMutability": "view",
      "type": "function"
    },
    {
      "constant": false,
      "inputs": [],
      "name": "mockFunction",
      "outputs": [],
      "payable": false,
      "stateMutability": "nonpayable",
      "type": "function"
    },
    {
      "constant": false,
      "inputs": [
        {
          "internalType": "bytes",
          "name": "context",
          "type": "bytes"
        },
        {
          "internalType": "bool",
          "name": "success",
          "type": "bool"
        },
        {
          "internalType": "uint256",
          "name": "actualCharge",
          "type": "uint256"
        },
        {
          "internalType": "bytes32",
          "name": "preRetVal",
          "type": "bytes32"
        }
      ],
      "name": "postRelayedCall",
      "outputs": [],
      "payable": false,
      "stateMutability": "nonpayable",
      "type": "function"
    },
    {
      "constant": false,
      "inputs": [
        {
          "internalType": "bytes",
          "name": "context",
          "type": "bytes"
        }
      ],
      "name": "preRelayedCall",
      "outputs": [
        {
          "internalType": "bytes32",
          "name": "",
          "type": "bytes32"
        }
      ],
      "payable": false,
      "stateMutability": "nonpayable",
      "type": "function"
    },
    {
      "constant": true,
      "inputs": [],
      "name": "relayHubVersion",
      "outputs": [
        {
          "internalType": "string",
          "name": "",
          "type": "string"
        }
      ],
      "payable": false,
      "stateMutability": "view",
      "type": "function"
    }
  ],
  "bytecode": "0x6080604052600080546001600160a01b03191673d216153c06e857cd7f72665e0af1d7d82172f49417905534801561003657600080fd5b506040516109853803806109858339818101604052602081101561005957600080fd5b5051806001600160a01b0381166100a15760405162461bcd60e51b815260040180806020018281038252603981526020018061094c6039913960400191505060405180910390fd5b600180546001600160a01b0319166001600160a01b03929092169190911790555061087b806100d16000396000f3fe608060405234801561001057600080fd5b50600436106100725760003560e01c806383947ea01161005057806383947ea014610127578063ad61ccd514610298578063e06e0e221461031557610072565b80633e6fec041461007757806374e861d61461008157806380274db7146100a5575b600080fd5b61007f610393565b005b6100896103be565b604080516001600160a01b039092168252519081900360200190f35b610115600480360360208110156100bb57600080fd5b8101906020810181356401000000008111156100d657600080fd5b8201836020820111156100e857600080fd5b8035906020019184600183028401116401000000008311171561010a57600080fd5b5090925090506103cd565b60408051918252519081900360200190f35b610219600480360361012081101561013e57600080fd5b6001600160a01b03823581169260208101359091169181019060608101604082013564010000000081111561017257600080fd5b82018360208201111561018457600080fd5b803590602001918460018302840111640100000000831117156101a657600080fd5b9193909282359260208101359260408201359260608301359260a0810190608001356401000000008111156101da57600080fd5b8201836020820111156101ec57600080fd5b8035906020019184600183028401116401000000008311171561020e57600080fd5b91935091503561046e565b6040518083815260200180602001828103825283818151815260200191508051906020019080838360005b8381101561025c578181015183820152602001610244565b50505050905090810190601f1680156102895780820380516001836020036101000a031916815260200191505b50935050505060405180910390f35b6102a06105bd565b6040805160208082528351818301528351919283929083019185019080838360005b838110156102da5781810151838201526020016102c2565b50505050905090810190601f1680156103075780820380516001836020036101000a031916815260200191505b509250505060405180910390f35b61007f6004803603608081101561032b57600080fd5b81019060208101813564010000000081111561034657600080fd5b82018360208201111561035857600080fd5b8035906020019184600183028401116401000000008311171561037a57600080fd5b91935091508035151590602081013590604001356105f4565b6040517f52c66ed6ec9ca819cba26fe2b2650059270d8981b295af300187a964f54a8c2390600090a1565b6000546001600160a01b031690565b60006103d76103be565b6001600160a01b0316336001600160a01b0316146104265760405162461bcd60e51b81526004018080602001828103825260248152602001806108236024913960400191505060405180910390fd5b61046583838080601f01602080910402602001604051908101604052809392919081815260200183838082843760009201919091525061069692505050565b90505b92915050565b60006060808d8d8d8d8d8d8d8d6104836103be565b30604051602001808b6001600160a01b03166001600160a01b031660601b81526014018a6001600160a01b03166001600160a01b031660601b81526014018989808284379190910197885250506020808701959095526040808701949094526060808701939093526bffffffffffffffffffffffff1991831b8216608087015290911b1660948401528051608881850301815260015460c8601f8f018590049094028501840190925260a884018d81529098506001600160a01b03919091169650610582955093508b92508a9182910183828082843760009201919091525050855160208701206105769250905061069c565b9063ffffffff6106ed16565b6001600160a01b031614156105a3576105996107db565b92509250506105ad565b61059960006107ff565b9b509b9950505050505050505050565b60408051808201909152600581527f312e302e30000000000000000000000000000000000000000000000000000000602082015290565b6105fc6103be565b6001600160a01b0316336001600160a01b03161461064b5760405162461bcd60e51b81526004018080602001828103825260248152602001806108236024913960400191505060405180910390fd5b61068f85858080601f016020809104026020016040519081016040528093929190818152602001838380828437600092019190915250879250869150859050610817565b5050505050565b50600090565b604080517f19457468657265756d205369676e6564204d6573736167653a0a333200000000602080830191909152603c8083019490945282518083039094018452605c909101909152815191012090565b6000815160411461070057506000610468565b60208201516040830151606084015160001a7f7fffffffffffffffffffffffffffffff5d576e7357a4501ddfe92f46681b20a08211156107465760009350505050610468565b8060ff16601b1415801561075e57508060ff16601c14155b1561076f5760009350505050610468565b6040805160008152602080820180845289905260ff8416828401526060820186905260808201859052915160019260a0808401939192601f1981019281900390910190855afa1580156107c6573d6000803e3d6000fd5b5050604051601f190151979650505050505050565b600060606107f76040518060200160405280600081525061081d565b915091509091565b604080516020810190915260008152600b9190910191565b50505050565b60009156fe47534e526563697069656e743a2063616c6c6572206973206e6f742052656c6179487562a265627a7a72315820c191c649c21fef0a13abf2cfafc8f957c7f4ddc3b0b94e65b9d613dca3ea125164736f6c6343000510003247534e526563697069656e745369676e61747572653a2074727573746564207369676e657220697320746865207a65726f2061646472657373",
  "linkReferences": {},
  "deployedLinkReferences": {}
}