{
  "_format": "hh-sol-artifact-1",
  "contractName": "IndividuallyCappedCrowdsaleImpl",
  "sourceName": "contracts/IDO_basedon_Openzeppelin/mocks/IndividuallyCappedCrowdsaleImpl.sol",
  "abi": [
    {
      "inputs": [
        {
          "internalType": "uint256",
          "name": "rate",
          "type": "uint256"
        },
        {
          "internalType": "address payable",
          "name": "wallet",
          "type": "address"
        },
        {
          "internalType": "contract IERC20",
          "name": "token",
          "type": "address"
        }
      ],
      "payable": false,
      "stateMutability": "nonpayable",
      "type": "constructor"
    },
    {
      "anonymous": false,
      "inputs": [
        {
          "indexed": true,
          "internalType": "address",
          "name": "account",
          "type": "address"
        }
      ],
      "name": "CapperAdded",
      "type": "event"
    },
    {
      "anonymous": false,
      "inputs": [
        {
          "indexed": true,
          "internalType": "address",
          "name": "account",
          "type": "address"
        }
      ],
      "name": "CapperRemoved",
      "type": "event"
    },
    {
      "anonymous": false,
      "inputs": [
        {
          "indexed": true,
          "internalType": "address",
          "name": "purchaser",
          "type": "address"
        },
        {
          "indexed": true,
          "internalType": "address",
          "name": "beneficiary",
          "type": "address"
        },
        {
          "indexed": false,
          "internalType": "uint256",
          "name": "value",
          "type": "uint256"
        },
        {
          "indexed": false,
          "internalType": "uint256",
          "name": "amount",
          "type": "uint256"
        }
      ],
      "name": "TokensPurchased",
      "type": "event"
    },
    {
      "payable": true,
      "stateMutability": "payable",
      "type": "fallback"
    },
    {
      "constant": false,
      "inputs": [
        {
          "internalType": "address",
          "name": "account",
          "type": "address"
        }
      ],
      "name": "addCapper",
      "outputs": [],
      "payable": false,
      "stateMutability": "nonpayable",
      "type": "function"
    },
    {
      "constant": false,
      "inputs": [
        {
          "internalType": "address",
          "name": "beneficiary",
          "type": "address"
        }
      ],
      "name": "buyTokens",
      "outputs": [],
      "payable": true,
      "stateMutability": "payable",
      "type": "function"
    },
    {
      "constant": true,
      "inputs": [
        {
          "internalType": "address",
          "name": "beneficiary",
          "type": "address"
        }
      ],
      "name": "getCap",
      "outputs": [
        {
          "internalType": "uint256",
          "name": "",
          "type": "uint256"
        }
      ],
      "payable": false,
      "stateMutability": "view",
      "type": "function"
    },
    {
      "constant": true,
      "inputs": [
        {
          "internalType": "address",
          "name": "beneficiary",
          "type": "address"
        }
      ],
      "name": "getContribution",
      "outputs": [
        {
          "internalType": "uint256",
          "name": "",
          "type": "uint256"
        }
      ],
      "payable": false,
      "stateMutability": "view",
      "type": "function"
    },
    {
      "constant": true,
      "inputs": [
        {
          "internalType": "address",
          "name": "account",
          "type": "address"
        }
      ],
      "name": "isCapper",
      "outputs": [
        {
          "internalType": "bool",
          "name": "",
          "type": "bool"
        }
      ],
      "payable": false,
      "stateMutability": "view",
      "type": "function"
    },
    {
      "constant": true,
      "inputs": [],
      "name": "onlyCapperMock",
      "outputs": [],
      "payable": false,
      "stateMutability": "view",
      "type": "function"
    },
    {
      "constant": true,
      "inputs": [],
      "name": "rate",
      "outputs": [
        {
          "internalType": "uint256",
          "name": "",
          "type": "uint256"
        }
      ],
      "payable": false,
      "stateMutability": "view",
      "type": "function"
    },
    {
      "constant": false,
      "inputs": [
        {
          "internalType": "address",
          "name": "account",
          "type": "address"
        }
      ],
      "name": "removeCapper",
      "outputs": [],
      "payable": false,
      "stateMutability": "nonpayable",
      "type": "function"
    },
    {
      "constant": false,
      "inputs": [],
      "name": "renounceCapper",
      "outputs": [],
      "payable": false,
      "stateMutability": "nonpayable",
      "type": "function"
    },
    {
      "constant": false,
      "inputs": [
        {
          "internalType": "address",
          "name": "beneficiary",
          "type": "address"
        },
        {
          "internalType": "uint256",
          "name": "cap",
          "type": "uint256"
        }
      ],
      "name": "setCap",
      "outputs": [],
      "payable": false,
      "stateMutability": "nonpayable",
      "type": "function"
    },
    {
      "constant": true,
      "inputs": [],
      "name": "token",
      "outputs": [
        {
          "internalType": "contract IERC20",
          "name": "",
          "type": "address"
        }
      ],
      "payable": false,
      "stateMutability": "view",
      "type": "function"
    },
    {
      "constant": true,
      "inputs": [],
      "name": "wallet",
      "outputs": [
        {
          "internalType": "address payable",
          "name": "",
          "type": "address"
        }
      ],
      "payable": false,
      "stateMutability": "view",
      "type": "function"
    },
    {
      "constant": true,
      "inputs": [],
      "name": "weiRaised",
      "outputs": [
        {
          "internalType": "uint256",
          "name": "",
          "type": "uint256"
        }
      ],
      "payable": false,
      "stateMutability": "view",
      "type": "function"
    }
  ],
  "bytecode": "0x60806040523480156200001157600080fd5b506040516200117b3803806200117b833981810160405260608110156200003757600080fd5b50805160208201516040909201516000805460ff1916600117905590919082828282620000ab576040805162461bcd60e51b815260206004820152601460248201527f43726f776473616c653a20726174652069732030000000000000000000000000604482015290519081900360640190fd5b6001600160a01b038216620000f25760405162461bcd60e51b8152600401808060200182810382526025815260200180620011566025913960400191505060405180910390fd5b6001600160a01b038116620001395760405162461bcd60e51b8152600401808060200182810382526024815260200180620011106024913960400191505060405180910390fd5b600292909255600180546001600160a01b039283166001600160a01b0319909116179055600080549190921661010002610100600160a81b031990911617905562000196620001876200019f565b6001600160e01b03620001a316565b505050620002eb565b3390565b620001be816004620001f560201b6200095a1790919060201c565b6040516001600160a01b038216907fa7555c95b69d4f5cc847881feb4ab2883a1921319e34fa2043747b793d65b36e90600090a250565b6200020a82826001600160e01b036200028216565b156200025d576040805162461bcd60e51b815260206004820152601f60248201527f526f6c65733a206163636f756e7420616c72656164792068617320726f6c6500604482015290519081900360640190fd5b6001600160a01b0316600090815260209190915260409020805460ff19166001179055565b60006001600160a01b038216620002cb5760405162461bcd60e51b8152600401808060200182810382526022815260200180620011346022913960400191505060405180910390fd5b506001600160a01b03166000908152602091909152604090205460ff1690565b610e1580620002fb6000396000f3fe6080604052600436106100d25760003560e01c80635d5576f81161007f578063b3aefb7511610059578063b3aefb751461027f578063d1e07bcb146102b2578063ec8ac4d8146102c7578063fc0c546a146102ed576100d2565b80635d5576f8146101fe57806380ad2cf3146102135780638dfbcf361461024c576100d2565b80633f4a6484116100b05780633f4a6484146101855780634042b66f146101b8578063521eb273146101cd576100d2565b806321eff7fc146100e45780632c4e722e14610129578063395645611461013e575b6100e26100dd610302565b610306565b005b3480156100f057600080fd5b506101176004803603602081101561010757600080fd5b50356001600160a01b0316610428565b60408051918252519081900360200190f35b34801561013557600080fd5b50610117610443565b34801561014a57600080fd5b506101716004803603602081101561016157600080fd5b50356001600160a01b0316610449565b604080519115158252519081900360200190f35b34801561019157600080fd5b506100e2600480360360208110156101a857600080fd5b50356001600160a01b0316610462565b3480156101c457600080fd5b5061011761046e565b3480156101d957600080fd5b506101e2610474565b604080516001600160a01b039092168252519081900360200190f35b34801561020a57600080fd5b506100e2610483565b34801561021f57600080fd5b506100e26004803603604081101561023657600080fd5b506001600160a01b038135169060200135610495565b34801561025857600080fd5b506100e26004803603602081101561026f57600080fd5b50356001600160a01b03166104fc565b34801561028b57600080fd5b50610117600480360360208110156102a257600080fd5b50356001600160a01b031661054b565b3480156102be57600080fd5b506100e2610566565b6100e2600480360360208110156102dd57600080fd5b50356001600160a01b0316610306565b3480156102f957600080fd5b506101e26105ac565b3390565b60005460ff1661035d576040805162461bcd60e51b815260206004820152601f60248201527f5265656e7472616e637947756172643a207265656e7472616e742063616c6c00604482015290519081900360640190fd5b6000805460ff191690553461037282826105c0565b600061037d82610640565b600354909150610393908363ffffffff61065716565b6003556103a083826106b8565b826001600160a01b03166103b2610302565b6001600160a01b03167f6faf93231a456e552dbc9961f58d9713ee4f2e69d15f1975b050ef0911053a7b8484604051808381526020018281526020019250505060405180910390a361040483836106c2565b61040c610715565b610416838361063c565b50506000805460ff1916600117905550565b6001600160a01b031660009081526005602052604090205490565b60025490565b600061045c60048363ffffffff61074e16565b92915050565b61046b816107b5565b50565b60035490565b6001546001600160a01b031690565b61049361048e610302565b6107b5565b565b6104a56104a0610302565b610449565b6104e05760405162461bcd60e51b8152600401808060200182810382526030815260200180610db16030913960400191505060405180910390fd5b6001600160a01b03909116600090815260066020526040902055565b6105076104a0610302565b6105425760405162461bcd60e51b8152600401808060200182810382526030815260200180610db16030913960400191505060405180910390fd5b61046b816107be565b6001600160a01b031660009081526006602052604090205490565b6105716104a0610302565b6104935760405162461bcd60e51b8152600401808060200182810382526030815260200180610db16030913960400191505060405180910390fd5b60005461010090046001600160a01b031690565b6105ca8282610806565b6001600160a01b0382166000908152600660209081526040808320546005909252909120546105ff908363ffffffff61065716565b111561063c5760405162461bcd60e51b8152600401808060200182810382526037815260200180610d506037913960400191505060405180910390fd5b5050565b600061045c6002548361089d90919063ffffffff16565b6000828201838110156106b1576040805162461bcd60e51b815260206004820152601b60248201527f536166654d6174683a206164646974696f6e206f766572666c6f770000000000604482015290519081900360640190fd5b9392505050565b61063c82826108f6565b6106cc828261063c565b6001600160a01b0382166000908152600560205260409020546106f5908263ffffffff61065716565b6001600160a01b0390921660009081526005602052604090209190915550565b6001546040516001600160a01b03909116903480156108fc02916000818181858888f1935050505015801561046b573d6000803e3d6000fd5b60006001600160a01b0382166107955760405162461bcd60e51b8152600401808060200182810382526022815260200180610d046022913960400191505060405180910390fd5b506001600160a01b03166000908152602091909152604090205460ff1690565b61046b81610912565b6107cf60048263ffffffff61095a16565b6040516001600160a01b038216907fa7555c95b69d4f5cc847881feb4ab2883a1921319e34fa2043747b793d65b36e90600090a250565b6001600160a01b03821661084b5760405162461bcd60e51b815260040180806020018281038252602a815260200180610d26602a913960400191505060405180910390fd5b8061063c576040805162461bcd60e51b815260206004820152601960248201527f43726f776473616c653a20776569416d6f756e74206973203000000000000000604482015290519081900360640190fd5b6000826108ac5750600061045c565b828202828482816108b957fe5b04146106b15760405162461bcd60e51b8152600401808060200182810382526021815260200180610ce36021913960400191505060405180910390fd5b60005461063c9061010090046001600160a01b031683836109db565b61092360048263ffffffff610a6016565b6040516001600160a01b038216907f427400d279c506df610224b22ecce89b693fc1865864113f21c8d19c1f0c2a3b90600090a250565b610964828261074e565b156109b6576040805162461bcd60e51b815260206004820152601f60248201527f526f6c65733a206163636f756e7420616c72656164792068617320726f6c6500604482015290519081900360640190fd5b6001600160a01b0316600090815260209190915260409020805460ff19166001179055565b604080516001600160a01b038416602482015260448082018490528251808303909101815260649091019091526020810180517bffffffffffffffffffffffffffffffffffffffffffffffffffffffff167fa9059cbb00000000000000000000000000000000000000000000000000000000179052610a5b908490610ac7565b505050565b610a6a828261074e565b610aa55760405162461bcd60e51b8152600401808060200182810382526021815260200180610cc26021913960400191505060405180910390fd5b6001600160a01b0316600090815260209190915260409020805460ff19169055565b610ad9826001600160a01b0316610c85565b610b2a576040805162461bcd60e51b815260206004820152601f60248201527f5361666545524332303a2063616c6c20746f206e6f6e2d636f6e747261637400604482015290519081900360640190fd5b60006060836001600160a01b0316836040518082805190602001908083835b60208310610b685780518252601f199092019160209182019101610b49565b6001836020036101000a0380198251168184511680821785525050505050509050019150506000604051808303816000865af19150503d8060008114610bca576040519150601f19603f3d011682016040523d82523d6000602084013e610bcf565b606091505b509150915081610c26576040805162461bcd60e51b815260206004820181905260248201527f5361666545524332303a206c6f772d6c6576656c2063616c6c206661696c6564604482015290519081900360640190fd5b805115610c7f57808060200190516020811015610c4257600080fd5b5051610c7f5760405162461bcd60e51b815260040180806020018281038252602a815260200180610d87602a913960400191505060405180910390fd5b50505050565b6000813f7fc5d2460186f7233c927e7db2dcc703c0e500b653ca82273b7bfad8045d85a470818114801590610cb957508115155b94935050505056fe526f6c65733a206163636f756e7420646f6573206e6f74206861766520726f6c65536166654d6174683a206d756c7469706c69636174696f6e206f766572666c6f77526f6c65733a206163636f756e7420697320746865207a65726f206164647265737343726f776473616c653a2062656e656669636961727920697320746865207a65726f2061646472657373496e646976696475616c6c7943617070656443726f776473616c653a2062656e65666963696172792773206361702065786365656465645361666545524332303a204552433230206f7065726174696f6e20646964206e6f742073756363656564436170706572526f6c653a2063616c6c657220646f6573206e6f742068617665207468652043617070657220726f6c65a265627a7a723158202d1d725211eee28ab874de40cbdad8032f080c4339e36d6f61052fc7d33a1ef364736f6c6343000510003243726f776473616c653a20746f6b656e20697320746865207a65726f2061646472657373526f6c65733a206163636f756e7420697320746865207a65726f206164647265737343726f776473616c653a2077616c6c657420697320746865207a65726f2061646472657373",
  "linkReferences": {},
  "deployedLinkReferences": {}
}