{
  "_format": "hh-sol-artifact-1",
  "contractName": "ERC20ReturnFalseMock",
  "sourceName": "contracts/IDO_basedon_Openzeppelin/mocks/SafeERC20Helper.sol",
  "abi": [
    {
      "constant": true,
      "inputs": [
        {
          "internalType": "address",
          "name": "",
          "type": "address"
        },
        {
          "internalType": "address",
          "name": "",
          "type": "address"
        }
      ],
      "name": "allowance",
      "outputs": [
        {
          "internalType": "uint256",
          "name": "",
          "type": "uint256"
        }
      ],
      "payable": false,
      "stateMutability": "view",
      "type": "function"
    },
    {
      "constant": false,
      "inputs": [
        {
          "internalType": "address",
          "name": "",
          "type": "address"
        },
        {
          "internalType": "uint256",
          "name": "",
          "type": "uint256"
        }
      ],
      "name": "approve",
      "outputs": [
        {
          "internalType": "bool",
          "name": "",
          "type": "bool"
        }
      ],
      "payable": false,
      "stateMutability": "nonpayable",
      "type": "function"
    },
    {
      "constant": false,
      "inputs": [
        {
          "internalType": "address",
          "name": "",
          "type": "address"
        },
        {
          "internalType": "uint256",
          "name": "",
          "type": "uint256"
        }
      ],
      "name": "transfer",
      "outputs": [
        {
          "internalType": "bool",
          "name": "",
          "type": "bool"
        }
      ],
      "payable": false,
      "stateMutability": "nonpayable",
      "type": "function"
    },
    {
      "constant": false,
      "inputs": [
        {
          "internalType": "address",
          "name": "",
          "type": "address"
        },
        {
          "internalType": "address",
          "name": "",
          "type": "address"
        },
        {
          "internalType": "uint256",
          "name": "",
          "type": "uint256"
        }
      ],
      "name": "transferFrom",
      "outputs": [
        {
          "internalType": "bool",
          "name": "",
          "type": "bool"
        }
      ],
      "payable": false,
      "stateMutability": "nonpayable",
      "type": "function"
    }
  ],
  "bytecode": "0x6080604052610197806100136000396000f3fe608060405234801561001057600080fd5b506004361061004c5760003560e01c8063095ea7b31461005157806323b872dd1461009e578063a9059cbb14610051578063dd62ed3e146100e1575b600080fd5b61008a6004803603604081101561006757600080fd5b5073ffffffffffffffffffffffffffffffffffffffff813516906020013561012e565b604080519115158252519081900360200190f35b61008a600480360360608110156100b457600080fd5b5073ffffffffffffffffffffffffffffffffffffffff81358116916020810135909116906040013561013a565b61011c600480360360408110156100f757600080fd5b5073ffffffffffffffffffffffffffffffffffffffff81358116916020013516610148565b60408051918252519081900360200190f35b50506000600181905590565b600060018190559392505050565b600060015460001461015957600080fd5b5060009291505056fea265627a7a72315820d8694d0b387183dd39b096b882641287020e9873fc23a83fadd1e2e508bed3b164736f6c63430005100032",
  "linkReferences": {},
  "deployedLinkReferences": {}
}