{
  "_format": "hh-sol-artifact-1",
  "contractName": "SafeERC20Wrapper",
  "sourceName": "contracts/IDO_basedon_Openzeppelin/mocks/SafeERC20Helper.sol",
  "abi": [
    {
      "inputs": [
        {
          "internalType": "contract IERC20",
          "name": "token",
          "type": "address"
        }
      ],
      "payable": false,
      "stateMutability": "nonpayable",
      "type": "constructor"
    },
    {
      "constant": true,
      "inputs": [],
      "name": "allowance",
      "outputs": [
        {
          "internalType": "uint256",
          "name": "",
          "type": "uint256"
        }
      ],
      "payable": false,
      "stateMutability": "view",
      "type": "function"
    },
    {
      "constant": false,
      "inputs": [
        {
          "internalType": "uint256",
          "name": "amount",
          "type": "uint256"
        }
      ],
      "name": "approve",
      "outputs": [],
      "payable": false,
      "stateMutability": "nonpayable",
      "type": "function"
    },
    {
      "constant": false,
      "inputs": [
        {
          "internalType": "uint256",
          "name": "amount",
          "type": "uint256"
        }
      ],
      "name": "decreaseAllowance",
      "outputs": [],
      "payable": false,
      "stateMutability": "nonpayable",
      "type": "function"
    },
    {
      "constant": false,
      "inputs": [
        {
          "internalType": "uint256",
          "name": "amount",
          "type": "uint256"
        }
      ],
      "name": "increaseAllowance",
      "outputs": [],
      "payable": false,
      "stateMutability": "nonpayable",
      "type": "function"
    },
    {
      "constant": false,
      "inputs": [
        {
          "internalType": "uint256",
          "name": "allowance_",
          "type": "uint256"
        }
      ],
      "name": "setAllowance",
      "outputs": [],
      "payable": false,
      "stateMutability": "nonpayable",
      "type": "function"
    },
    {
      "constant": false,
      "inputs": [],
      "name": "transfer",
      "outputs": [],
      "payable": false,
      "stateMutability": "nonpayable",
      "type": "function"
    },
    {
      "constant": false,
      "inputs": [],
      "name": "transferFrom",
      "outputs": [],
      "payable": false,
      "stateMutability": "nonpayable",
      "type": "function"
    }
  ],
  "bytecode": "0x608060405234801561001057600080fd5b50604051610a62380380610a628339818101604052602081101561003357600080fd5b5051600080546001600160a01b039092166001600160a01b03199092169190911790556109fd806100656000396000f3fe608060405234801561001057600080fd5b506004361061007d5760003560e01c8063811c34d31161005b578063811c34d3146100db5780638a4068dd146100e3578063b759f954146100eb578063de242ff4146101085761007d565b806310bad4cf1461008257806311e330b2146100a15780633ba93f26146100be575b600080fd5b61009f6004803603602081101561009857600080fd5b5035610122565b005b61009f600480360360208110156100b757600080fd5b5035610145565b61009f600480360360208110156100d457600080fd5b5035610165565b61009f6101e1565b61009f610204565b61009f6004803603602081101561010157600080fd5b5035610224565b610110610244565b60408051918252519081900360200190f35b60008054610142916001600160a01b03909116908363ffffffff6102c916565b50565b60008054610142916001600160a01b03909116908363ffffffff6103cc16565b60008054604080517f3ba93f260000000000000000000000000000000000000000000000000000000081526004810185905290516001600160a01b0390921692633ba93f269260248084019382900301818387803b1580156101c657600080fd5b505af11580156101da573d6000803e3d6000fd5b5050505050565b60008054610202916001600160a01b0390911690808063ffffffff61045d16565b565b60008054610202916001600160a01b03909116908063ffffffff6104d016565b60008054610142916001600160a01b03909116908363ffffffff61054016565b6000805460408051636eb1769f60e11b8152600481018490526024810184905290516001600160a01b039092169163dd62ed3e91604480820192602092909190829003018186803b15801561029857600080fd5b505afa1580156102ac573d6000803e3d6000fd5b505050506040513d60208110156102c257600080fd5b5051905090565b6000610371826040518060600160405280602981526020016109406029913960408051636eb1769f60e11b81523060048201526001600160a01b03888116602483015291519189169163dd62ed3e91604480820192602092909190829003018186803b15801561033857600080fd5b505afa15801561034c573d6000803e3d6000fd5b505050506040513d602081101561036257600080fd5b5051919063ffffffff61065316565b604080516001600160a01b038616602482015260448082018490528251808303909101815260649091019091526020810180516001600160e01b031663095ea7b360e01b1790529091506103c69085906106ea565b50505050565b60408051636eb1769f60e11b81523060048201526001600160a01b03848116602483015291516000926103719285929188169163dd62ed3e91604480820192602092909190829003018186803b15801561042557600080fd5b505afa158015610439573d6000803e3d6000fd5b505050506040513d602081101561044f57600080fd5b50519063ffffffff6108a216565b604080516001600160a01b0385811660248301528416604482015260648082018490528251808303909101815260849091019091526020810180516001600160e01b03167f23b872dd000000000000000000000000000000000000000000000000000000001790526103c69085906106ea565b604080516001600160a01b038416602482015260448082018490528251808303909101815260649091019091526020810180516001600160e01b03167fa9059cbb0000000000000000000000000000000000000000000000000000000017905261053b9084906106ea565b505050565b8015806105c6575060408051636eb1769f60e11b81523060048201526001600160a01b03848116602483015291519185169163dd62ed3e91604480820192602092909190829003018186803b15801561059857600080fd5b505afa1580156105ac573d6000803e3d6000fd5b505050506040513d60208110156105c257600080fd5b5051155b6106015760405162461bcd60e51b81526004018080602001828103825260368152602001806109936036913960400191505060405180910390fd5b604080516001600160a01b038416602482015260448082018490528251808303909101815260649091019091526020810180516001600160e01b031663095ea7b360e01b17905261053b9084906106ea565b600081848411156106e25760405162461bcd60e51b81526004018080602001828103825283818151815260200191508051906020019080838360005b838110156106a757818101518382015260200161068f565b50505050905090810190601f1680156106d45780820380516001836020036101000a031916815260200191505b509250505060405180910390fd5b505050900390565b6106fc826001600160a01b0316610903565b61074d576040805162461bcd60e51b815260206004820152601f60248201527f5361666545524332303a2063616c6c20746f206e6f6e2d636f6e747261637400604482015290519081900360640190fd5b60006060836001600160a01b0316836040518082805190602001908083835b6020831061078b5780518252601f19909201916020918201910161076c565b6001836020036101000a0380198251168184511680821785525050505050509050019150506000604051808303816000865af19150503d80600081146107ed576040519150601f19603f3d011682016040523d82523d6000602084013e6107f2565b606091505b509150915081610849576040805162461bcd60e51b815260206004820181905260248201527f5361666545524332303a206c6f772d6c6576656c2063616c6c206661696c6564604482015290519081900360640190fd5b8051156103c65780806020019051602081101561086557600080fd5b50516103c65760405162461bcd60e51b815260040180806020018281038252602a815260200180610969602a913960400191505060405180910390fd5b6000828201838110156108fc576040805162461bcd60e51b815260206004820152601b60248201527f536166654d6174683a206164646974696f6e206f766572666c6f770000000000604482015290519081900360640190fd5b9392505050565b6000813f7fc5d2460186f7233c927e7db2dcc703c0e500b653ca82273b7bfad8045d85a47081811480159061093757508115155b94935050505056fe5361666545524332303a2064656372656173656420616c6c6f77616e63652062656c6f77207a65726f5361666545524332303a204552433230206f7065726174696f6e20646964206e6f7420737563636565645361666545524332303a20617070726f76652066726f6d206e6f6e2d7a65726f20746f206e6f6e2d7a65726f20616c6c6f77616e6365a265627a7a723158207e912a95c3739d4877c14ef42c5064f93c5e11237da4d8e118b1c268aab12cb964736f6c63430005100032",
  "linkReferences": {},
  "deployedLinkReferences": {}
}