{
  "_format": "hh-sol-artifact-1",
  "contractName": "ERC721FullMock",
  "sourceName": "contracts/IDO_basedon_Openzeppelin/mocks/ERC721FullMock.sol",
  "abi": [
    {
      "inputs": [
        {
          "internalType": "string",
          "name": "name",
          "type": "string"
        },
        {
          "internalType": "string",
          "name": "symbol",
          "type": "string"
        }
      ],
      "payable": false,
      "stateMutability": "nonpayable",
      "type": "constructor"
    },
    {
      "anonymous": false,
      "inputs": [
        {
          "indexed": true,
          "internalType": "address",
          "name": "owner",
          "type": "address"
        },
        {
          "indexed": true,
          "internalType": "address",
          "name": "approved",
          "type": "address"
        },
        {
          "indexed": true,
          "internalType": "uint256",
          "name": "tokenId",
          "type": "uint256"
        }
      ],
      "name": "Approval",
      "type": "event"
    },
    {
      "anonymous": false,
      "inputs": [
        {
          "indexed": true,
          "internalType": "address",
          "name": "owner",
          "type": "address"
        },
        {
          "indexed": true,
          "internalType": "address",
          "name": "operator",
          "type": "address"
        },
        {
          "indexed": false,
          "internalType": "bool",
          "name": "approved",
          "type": "bool"
        }
      ],
      "name": "ApprovalForAll",
      "type": "event"
    },
    {
      "anonymous": false,
      "inputs": [
        {
          "indexed": true,
          "internalType": "address",
          "name": "account",
          "type": "address"
        }
      ],
      "name": "MinterAdded",
      "type": "event"
    },
    {
      "anonymous": false,
      "inputs": [
        {
          "indexed": true,
          "internalType": "address",
          "name": "account",
          "type": "address"
        }
      ],
      "name": "MinterRemoved",
      "type": "event"
    },
    {
      "anonymous": false,
      "inputs": [
        {
          "indexed": true,
          "internalType": "address",
          "name": "from",
          "type": "address"
        },
        {
          "indexed": true,
          "internalType": "address",
          "name": "to",
          "type": "address"
        },
        {
          "indexed": true,
          "internalType": "uint256",
          "name": "tokenId",
          "type": "uint256"
        }
      ],
      "name": "Transfer",
      "type": "event"
    },
    {
      "constant": false,
      "inputs": [
        {
          "internalType": "address",
          "name": "account",
          "type": "address"
        }
      ],
      "name": "addMinter",
      "outputs": [],
      "payable": false,
      "stateMutability": "nonpayable",
      "type": "function"
    },
    {
      "constant": false,
      "inputs": [
        {
          "internalType": "address",
          "name": "to",
          "type": "address"
        },
        {
          "internalType": "uint256",
          "name": "tokenId",
          "type": "uint256"
        }
      ],
      "name": "approve",
      "outputs": [],
      "payable": false,
      "stateMutability": "nonpayable",
      "type": "function"
    },
    {
      "constant": true,
      "inputs": [
        {
          "internalType": "address",
          "name": "owner",
          "type": "address"
        }
      ],
      "name": "balanceOf",
      "outputs": [
        {
          "internalType": "uint256",
          "name": "",
          "type": "uint256"
        }
      ],
      "payable": false,
      "stateMutability": "view",
      "type": "function"
    },
    {
      "constant": true,
      "inputs": [],
      "name": "baseURI",
      "outputs": [
        {
          "internalType": "string",
          "name": "",
          "type": "string"
        }
      ],
      "payable": false,
      "stateMutability": "view",
      "type": "function"
    },
    {
      "constant": false,
      "inputs": [
        {
          "internalType": "uint256",
          "name": "tokenId",
          "type": "uint256"
        }
      ],
      "name": "burn",
      "outputs": [],
      "payable": false,
      "stateMutability": "nonpayable",
      "type": "function"
    },
    {
      "constant": true,
      "inputs": [
        {
          "internalType": "uint256",
          "name": "tokenId",
          "type": "uint256"
        }
      ],
      "name": "exists",
      "outputs": [
        {
          "internalType": "bool",
          "name": "",
          "type": "bool"
        }
      ],
      "payable": false,
      "stateMutability": "view",
      "type": "function"
    },
    {
      "constant": true,
      "inputs": [
        {
          "internalType": "uint256",
          "name": "tokenId",
          "type": "uint256"
        }
      ],
      "name": "getApproved",
      "outputs": [
        {
          "internalType": "address",
          "name": "",
          "type": "address"
        }
      ],
      "payable": false,
      "stateMutability": "view",
      "type": "function"
    },
    {
      "constant": true,
      "inputs": [
        {
          "internalType": "address",
          "name": "owner",
          "type": "address"
        },
        {
          "internalType": "address",
          "name": "operator",
          "type": "address"
        }
      ],
      "name": "isApprovedForAll",
      "outputs": [
        {
          "internalType": "bool",
          "name": "",
          "type": "bool"
        }
      ],
      "payable": false,
      "stateMutability": "view",
      "type": "function"
    },
    {
      "constant": true,
      "inputs": [
        {
          "internalType": "address",
          "name": "account",
          "type": "address"
        }
      ],
      "name": "isMinter",
      "outputs": [
        {
          "internalType": "bool",
          "name": "",
          "type": "bool"
        }
      ],
      "payable": false,
      "stateMutability": "view",
      "type": "function"
    },
    {
      "constant": false,
      "inputs": [
        {
          "internalType": "address",
          "name": "to",
          "type": "address"
        },
        {
          "internalType": "uint256",
          "name": "tokenId",
          "type": "uint256"
        }
      ],
      "name": "mint",
      "outputs": [
        {
          "internalType": "bool",
          "name": "",
          "type": "bool"
        }
      ],
      "payable": false,
      "stateMutability": "nonpayable",
      "type": "function"
    },
    {
      "constant": false,
      "inputs": [
        {
          "internalType": "address",
          "name": "to",
          "type": "address"
        },
        {
          "internalType": "uint256",
          "name": "tokenId",
          "type": "uint256"
        },
        {
          "internalType": "string",
          "name": "tokenURI",
          "type": "string"
        }
      ],
      "name": "mintWithTokenURI",
      "outputs": [
        {
          "internalType": "bool",
          "name": "",
          "type": "bool"
        }
      ],
      "payable": false,
      "stateMutability": "nonpayable",
      "type": "function"
    },
    {
      "constant": true,
      "inputs": [],
      "name": "name",
      "outputs": [
        {
          "internalType": "string",
          "name": "",
          "type": "string"
        }
      ],
      "payable": false,
      "stateMutability": "view",
      "type": "function"
    },
    {
      "constant": true,
      "inputs": [
        {
          "internalType": "uint256",
          "name": "tokenId",
          "type": "uint256"
        }
      ],
      "name": "ownerOf",
      "outputs": [
        {
          "internalType": "address",
          "name": "",
          "type": "address"
        }
      ],
      "payable": false,
      "stateMutability": "view",
      "type": "function"
    },
    {
      "constant": false,
      "inputs": [],
      "name": "renounceMinter",
      "outputs": [],
      "payable": false,
      "stateMutability": "nonpayable",
      "type": "function"
    },
    {
      "constant": false,
      "inputs": [
        {
          "internalType": "address",
          "name": "to",
          "type": "address"
        },
        {
          "internalType": "uint256",
          "name": "tokenId",
          "type": "uint256"
        },
        {
          "internalType": "bytes",
          "name": "_data",
          "type": "bytes"
        }
      ],
      "name": "safeMint",
      "outputs": [
        {
          "internalType": "bool",
          "name": "",
          "type": "bool"
        }
      ],
      "payable": false,
      "stateMutability": "nonpayable",
      "type": "function"
    },
    {
      "constant": false,
      "inputs": [
        {
          "internalType": "address",
          "name": "to",
          "type": "address"
        },
        {
          "internalType": "uint256",
          "name": "tokenId",
          "type": "uint256"
        }
      ],
      "name": "safeMint",
      "outputs": [
        {
          "internalType": "bool",
          "name": "",
          "type": "bool"
        }
      ],
      "payable": false,
      "stateMutability": "nonpayable",
      "type": "function"
    },
    {
      "constant": false,
      "inputs": [
        {
          "internalType": "address",
          "name": "from",
          "type": "address"
        },
        {
          "internalType": "address",
          "name": "to",
          "type": "address"
        },
        {
          "internalType": "uint256",
          "name": "tokenId",
          "type": "uint256"
        }
      ],
      "name": "safeTransferFrom",
      "outputs": [],
      "payable": false,
      "stateMutability": "nonpayable",
      "type": "function"
    },
    {
      "constant": false,
      "inputs": [
        {
          "internalType": "address",
          "name": "from",
          "type": "address"
        },
        {
          "internalType": "address",
          "name": "to",
          "type": "address"
        },
        {
          "internalType": "uint256",
          "name": "tokenId",
          "type": "uint256"
        },
        {
          "internalType": "bytes",
          "name": "_data",
          "type": "bytes"
        }
      ],
      "name": "safeTransferFrom",
      "outputs": [],
      "payable": false,
      "stateMutability": "nonpayable",
      "type": "function"
    },
    {
      "constant": false,
      "inputs": [
        {
          "internalType": "address",
          "name": "to",
          "type": "address"
        },
        {
          "internalType": "bool",
          "name": "approved",
          "type": "bool"
        }
      ],
      "name": "setApprovalForAll",
      "outputs": [],
      "payable": false,
      "stateMutability": "nonpayable",
      "type": "function"
    },
    {
      "constant": false,
      "inputs": [
        {
          "internalType": "string",
          "name": "baseURI",
          "type": "string"
        }
      ],
      "name": "setBaseURI",
      "outputs": [],
      "payable": false,
      "stateMutability": "nonpayable",
      "type": "function"
    },
    {
      "constant": false,
      "inputs": [
        {
          "internalType": "uint256",
          "name": "tokenId",
          "type": "uint256"
        },
        {
          "internalType": "string",
          "name": "uri",
          "type": "string"
        }
      ],
      "name": "setTokenURI",
      "outputs": [],
      "payable": false,
      "stateMutability": "nonpayable",
      "type": "function"
    },
    {
      "constant": true,
      "inputs": [
        {
          "internalType": "bytes4",
          "name": "interfaceId",
          "type": "bytes4"
        }
      ],
      "name": "supportsInterface",
      "outputs": [
        {
          "internalType": "bool",
          "name": "",
          "type": "bool"
        }
      ],
      "payable": false,
      "stateMutability": "view",
      "type": "function"
    },
    {
      "constant": true,
      "inputs": [],
      "name": "symbol",
      "outputs": [
        {
          "internalType": "string",
          "name": "",
          "type": "string"
        }
      ],
      "payable": false,
      "stateMutability": "view",
      "type": "function"
    },
    {
      "constant": true,
      "inputs": [
        {
          "internalType": "uint256",
          "name": "index",
          "type": "uint256"
        }
      ],
      "name": "tokenByIndex",
      "outputs": [
        {
          "internalType": "uint256",
          "name": "",
          "type": "uint256"
        }
      ],
      "payable": false,
      "stateMutability": "view",
      "type": "function"
    },
    {
      "constant": true,
      "inputs": [
        {
          "internalType": "address",
          "name": "owner",
          "type": "address"
        },
        {
          "internalType": "uint256",
          "name": "index",
          "type": "uint256"
        }
      ],
      "name": "tokenOfOwnerByIndex",
      "outputs": [
        {
          "internalType": "uint256",
          "name": "",
          "type": "uint256"
        }
      ],
      "payable": false,
      "stateMutability": "view",
      "type": "function"
    },
    {
      "constant": true,
      "inputs": [
        {
          "internalType": "uint256",
          "name": "tokenId",
          "type": "uint256"
        }
      ],
      "name": "tokenURI",
      "outputs": [
        {
          "internalType": "string",
          "name": "",
          "type": "string"
        }
      ],
      "payable": false,
      "stateMutability": "view",
      "type": "function"
    },
    {
      "constant": true,
      "inputs": [
        {
          "internalType": "address",
          "name": "owner",
          "type": "address"
        }
      ],
      "name": "tokensOfOwner",
      "outputs": [
        {
          "internalType": "uint256[]",
          "name": "",
          "type": "uint256[]"
        }
      ],
      "payable": false,
      "stateMutability": "view",
      "type": "function"
    },
    {
      "constant": true,
      "inputs": [],
      "name": "totalSupply",
      "outputs": [
        {
          "internalType": "uint256",
          "name": "",
          "type": "uint256"
        }
      ],
      "payable": false,
      "stateMutability": "view",
      "type": "function"
    },
    {
      "constant": false,
      "inputs": [
        {
          "internalType": "address",
          "name": "from",
          "type": "address"
        },
        {
          "internalType": "address",
          "name": "to",
          "type": "address"
        },
        {
          "internalType": "uint256",
          "name": "tokenId",
          "type": "uint256"
        }
      ],
      "name": "transferFrom",
      "outputs": [],
      "payable": false,
      "stateMutability": "nonpayable",
      "type": "function"
    }
  ],
  "bytecode": "0x60806040523480156200001157600080fd5b5060405162002c0038038062002c00833981810160405260408110156200003757600080fd5b81019080805160405193929190846401000000008211156200005857600080fd5b9083019060208201858111156200006e57600080fd5b82516401000000008111828201881017156200008957600080fd5b82525081516020918201929091019080838360005b83811015620000b85781810151838201526020016200009e565b50505050905090810190601f168015620000e65780820380516001836020036101000a031916815260200191505b50604052602001805160405193929190846401000000008211156200010a57600080fd5b9083019060208201858111156200012057600080fd5b82516401000000008111828201881017156200013b57600080fd5b82525081516020918201929091019080838360005b838110156200016a57818101518382015260200162000150565b50505050905090810190601f168015620001985780820380516001836020036101000a031916815260200191505b50604052508391508290508181620001c06301ffc9a760e01b6001600160e01b036200026c16565b620001db6380ac58cd60e01b6001600160e01b036200026c16565b620001f663780e9d6360e01b6001600160e01b036200026c16565b81516200020b9060099060208501906200043e565b5080516200022190600a9060208401906200043e565b506200023d635b5e139f60e01b6001600160e01b036200026c16565b505050506200026462000255620002f160201b60201c565b6001600160e01b03620002f616565b5050620004e0565b6001600160e01b03198082161415620002cc576040805162461bcd60e51b815260206004820152601c60248201527f4552433136353a20696e76616c696420696e7465726661636520696400000000604482015290519081900360640190fd5b6001600160e01b0319166000908152602081905260409020805460ff19166001179055565b335b90565b6200031181600d6200034860201b62001e941790919060201c565b6040516001600160a01b038216907f6ae172837ea30b801fbfcdd4108aa1d5bf8ff775444fd70256b44e6bf3dfc3f690600090a250565b6200035d82826001600160e01b03620003d516565b15620003b0576040805162461bcd60e51b815260206004820152601f60248201527f526f6c65733a206163636f756e7420616c72656164792068617320726f6c6500604482015290519081900360640190fd5b6001600160a01b0316600090815260209190915260409020805460ff19166001179055565b60006001600160a01b0382166200041e5760405162461bcd60e51b815260040180806020018281038252602281526020018062002bde6022913960400191505060405180910390fd5b506001600160a01b03166000908152602091909152604090205460ff1690565b828054600181600116156101000203166002900490600052602060002090601f016020900481019282601f106200048157805160ff1916838001178555620004b1565b82800160010185558215620004b1579182015b82811115620004b157825182559160200191906001019062000494565b50620004bf929150620004c3565b5090565b620002f391905b80821115620004bf5760008155600101620004ca565b6126ee80620004f06000396000f3fe608060405234801561001057600080fd5b50600436106101cf5760003560e01c806355f804b311610104578063983b2d56116100a2578063aa271e1a11610071578063aa271e1a14610842578063b88d4fde14610868578063c87b56dd1461092e578063e985e9c51461094b576101cf565b8063983b2d56146107ba57806398650275146107e0578063a1448194146107e8578063a22cb46514610814576101cf565b806370a08231116100de57806370a082311461065b5780638462151c146106815780638832e6e3146106f757806395d89b41146107b2576101cf565b806355f804b3146105905780636352211e146106365780636c0360eb14610653576101cf565b80632f745c591161017157806342966c681161014b57806342966c681461047e5780634f558e791461049b5780634f6ccce7146104b857806350bb4e7f146104d5576101cf565b80632f745c59146103f057806340c10f191461041c57806342842e0e14610448576101cf565b8063095ea7b3116101ad578063095ea7b3146102c5578063162094c4146102f357806318160ddd146103a057806323b872dd146103ba576101cf565b806301ffc9a7146101d457806306fdde031461020f578063081812fc1461028c575b600080fd5b6101fb600480360360208110156101ea57600080fd5b50356001600160e01b031916610979565b604080519115158252519081900360200190f35b61021761099c565b6040805160208082528351818301528351919283929083019185019080838360005b83811015610251578181015183820152602001610239565b50505050905090810190601f16801561027e5780820380516001836020036101000a031916815260200191505b509250505060405180910390f35b6102a9600480360360208110156102a257600080fd5b5035610a33565b604080516001600160a01b039092168252519081900360200190f35b6102f1600480360360408110156102db57600080fd5b506001600160a01b038135169060200135610a95565b005b6102f16004803603604081101561030957600080fd5b8135919081019060408101602082013564010000000081111561032b57600080fd5b82018360208201111561033d57600080fd5b8035906020019184600183028401116401000000008311171561035f57600080fd5b91908080601f016020809104026020016040519081016040528093929190818152602001838380828437600092019190915250929550610bbd945050505050565b6103a8610bcb565b60408051918252519081900360200190f35b6102f1600480360360608110156103d057600080fd5b506001600160a01b03813581169160208101359091169060400135610bd1565b6103a86004803603604081101561040657600080fd5b506001600160a01b038135169060200135610c2d565b6101fb6004803603604081101561043257600080fd5b506001600160a01b038135169060200135610cac565b6102f16004803603606081101561045e57600080fd5b506001600160a01b03813581169160208101359091169060400135610d0c565b6102f16004803603602081101561049457600080fd5b5035610d27565b6101fb600480360360208110156104b157600080fd5b5035610d79565b6103a8600480360360208110156104ce57600080fd5b5035610d8a565b6101fb600480360360608110156104eb57600080fd5b6001600160a01b038235169160208101359181019060608101604082013564010000000081111561051b57600080fd5b82018360208201111561052d57600080fd5b8035906020019184600183028401116401000000008311171561054f57600080fd5b91908080601f016020809104026020016040519081016040528093929190818152602001838380828437600092019190915250929550610df0945050505050565b6102f1600480360360208110156105a657600080fd5b8101906020810181356401000000008111156105c157600080fd5b8201836020820111156105d357600080fd5b803590602001918460018302840111640100000000831117156105f557600080fd5b91908080601f016020809104026020016040519081016040528093929190818152602001838380828437600092019190915250929550610e56945050505050565b6102a96004803603602081101561064c57600080fd5b5035610e5f565b610217610eb3565b6103a86004803603602081101561067157600080fd5b50356001600160a01b0316610f14565b6106a76004803603602081101561069757600080fd5b50356001600160a01b0316610f7c565b60408051602080825283518183015283519192839290830191858101910280838360005b838110156106e35781810151838201526020016106cb565b505050509050019250505060405180910390f35b6101fb6004803603606081101561070d57600080fd5b6001600160a01b038235169160208101359181019060608101604082013564010000000081111561073d57600080fd5b82018360208201111561074f57600080fd5b8035906020019184600183028401116401000000008311171561077157600080fd5b91908080601f016020809104026020016040519081016040528093929190818152602001838380828437600092019190915250929550610fdd945050505050565b610217611030565b6102f1600480360360208110156107d057600080fd5b50356001600160a01b0316611091565b6102f16110e0565b6101fb600480360360408110156107fe57600080fd5b506001600160a01b0381351690602001356110f2565b6102f16004803603604081101561082a57600080fd5b506001600160a01b0381351690602001351515611144565b6101fb6004803603602081101561085857600080fd5b50356001600160a01b0316611249565b6102f16004803603608081101561087e57600080fd5b6001600160a01b038235811692602081013590911691604082013591908101906080810160608201356401000000008111156108b957600080fd5b8201836020820111156108cb57600080fd5b803590602001918460018302840111640100000000831117156108ed57600080fd5b91908080601f01602080910402602001604051908101604052809392919081815260200183838082843760009201919091525092955061125c945050505050565b6102176004803603602081101561094457600080fd5b50356112ba565b6101fb6004803603604081101561096157600080fd5b506001600160a01b0381358116916020013516611486565b6001600160e01b0319811660009081526020819052604090205460ff165b919050565b60098054604080516020601f6002600019610100600188161502019095169490940493840181900481028201810190925282815260609390929091830182828015610a285780601f106109fd57610100808354040283529160200191610a28565b820191906000526020600020905b815481529060010190602001808311610a0b57829003601f168201915b505050505090505b90565b6000610a3e826114b4565b610a795760405162461bcd60e51b815260040180806020018281038252602c815260200180612515602c913960400191505060405180910390fd5b506000908152600260205260409020546001600160a01b031690565b6000610aa082610e5f565b9050806001600160a01b0316836001600160a01b03161415610af35760405162461bcd60e51b81526004018080602001828103825260218152602001806125e76021913960400191505060405180910390fd5b806001600160a01b0316610b056114d1565b6001600160a01b03161480610b265750610b2681610b216114d1565b611486565b610b615760405162461bcd60e51b81526004018080602001828103825260388152602001806124396038913960400191505060405180910390fd5b60008281526002602052604080822080546001600160a01b0319166001600160a01b0387811691821790925591518593918516917f8c5be1e5ebec7d5bd14f71427d1e84f3dd0314c0f7b2291e5b200ac8c7c3b92591a4505050565b610bc782826114d5565b5050565b60075490565b610be2610bdc6114d1565b82611538565b610c1d5760405162461bcd60e51b81526004018080602001828103825260318152602001806126086031913960400191505060405180910390fd5b610c288383836115dc565b505050565b6000610c3883610f14565b8210610c755760405162461bcd60e51b815260040180806020018281038252602b81526020018061238c602b913960400191505060405180910390fd5b6001600160a01b0383166000908152600560205260409020805483908110610c9957fe5b9060005260206000200154905092915050565b6000610cbe610cb96114d1565b611249565b610cf95760405162461bcd60e51b81526004018080602001828103825260308152602001806124c46030913960400191505060405180910390fd5b610d0383836115fb565b50600192915050565b610c288383836040518060200160405280600081525061125c565b610d32610bdc6114d1565b610d6d5760405162461bcd60e51b815260040180806020018281038252603081526020018061268a6030913960400191505060405180910390fd5b610d7681611618565b50565b6000610d84826114b4565b92915050565b6000610d94610bcb565b8210610dd15760405162461bcd60e51b815260040180806020018281038252602c815260200180612639602c913960400191505060405180910390fd5b60078281548110610dde57fe5b90600052602060002001549050919050565b6000610dfd610cb96114d1565b610e385760405162461bcd60e51b81526004018080602001828103825260308152602001806124c46030913960400191505060405180910390fd5b610e4284846115fb565b610e4c83836114d5565b5060019392505050565b610d768161162a565b6000818152600160205260408120546001600160a01b031680610d845760405162461bcd60e51b815260040180806020018281038252602981526020018061249b6029913960400191505060405180910390fd5b600b8054604080516020601f6002600019610100600188161502019095169490940493840181900481028201810190925282815260609390929091830182828015610a285780601f106109fd57610100808354040283529160200191610a28565b60006001600160a01b038216610f5b5760405162461bcd60e51b815260040180806020018281038252602a815260200180612471602a913960400191505060405180910390fd5b6001600160a01b0382166000908152600360205260409020610d849061163d565b6060610f8782611641565b805480602002602001604051908101604052809291908181526020018280548015610fd157602002820191906000526020600020905b815481526020019060010190808311610fbd575b50505050509050919050565b6000610fea610cb96114d1565b6110255760405162461bcd60e51b81526004018080602001828103825260308152602001806124c46030913960400191505060405180910390fd5b610e4c84848461165b565b600a8054604080516020601f6002600019610100600188161502019095169490940493840181900481028201810190925282815260609390929091830182828015610a285780601f106109fd57610100808354040283529160200191610a28565b61109c610cb96114d1565b6110d75760405162461bcd60e51b81526004018080602001828103825260308152602001806124c46030913960400191505060405180910390fd5b610d76816116ad565b6110f06110eb6114d1565b6116f5565b565b60006110ff610cb96114d1565b61113a5760405162461bcd60e51b81526004018080602001828103825260308152602001806124c46030913960400191505060405180910390fd5b610d03838361173d565b61114c6114d1565b6001600160a01b0316826001600160a01b031614156111b2576040805162461bcd60e51b815260206004820152601960248201527f4552433732313a20617070726f766520746f2063616c6c657200000000000000604482015290519081900360640190fd5b80600460006111bf6114d1565b6001600160a01b03908116825260208083019390935260409182016000908120918716808252919093529120805460ff1916921515929092179091556112036114d1565b60408051841515815290516001600160a01b0392909216917f17307eab39ab6107e8899845ad3d59bd9653f200f220920489ca2b5937696c319181900360200190a35050565b6000610d84600d8363ffffffff61175716565b61126d6112676114d1565b83611538565b6112a85760405162461bcd60e51b81526004018080602001828103825260318152602001806126086031913960400191505060405180910390fd5b6112b4848484846117be565b50505050565b60606112c5826114b4565b6113005760405162461bcd60e51b815260040180806020018281038252602f8152602001806125b8602f913960400191505060405180910390fd5b6000828152600c602090815260409182902080548351601f60026000196101006001861615020190931692909204918201849004840281018401909452808452606093928301828280156113955780601f1061136a57610100808354040283529160200191611395565b820191906000526020600020905b81548152906001019060200180831161137857829003601f168201915b505050505090508051600014156113bc575050604080516020810190915260008152610997565b600b81604051602001808380546001816001161561010002031660029004801561141d5780601f106113fb57610100808354040283529182019161141d565b820191906000526020600020905b815481529060010190602001808311611409575b5050825160208401908083835b602083106114495780518252601f19909201916020918201910161142a565b6001836020036101000a03801982511681845116808217855250505050505090500192505050604051602081830303815290604052915050610997565b6001600160a01b03918216600090815260046020908152604080832093909416825291909152205460ff1690565b6000908152600160205260409020546001600160a01b0316151590565b3390565b6114de826114b4565b6115195760405162461bcd60e51b815260040180806020018281038252602c815260200180612541602c913960400191505060405180910390fd5b6000828152600c602090815260409091208251610c289284019061228f565b6000611543826114b4565b61157e5760405162461bcd60e51b815260040180806020018281038252602c81526020018061240d602c913960400191505060405180910390fd5b600061158983610e5f565b9050806001600160a01b0316846001600160a01b031614806115c45750836001600160a01b03166115b984610a33565b6001600160a01b0316145b806115d457506115d48185611486565b949350505050565b6115e7838383611810565b6115f18382611954565b610c288282611a49565b6116058282611a87565b61160f8282611a49565b610bc781611bb8565b610d7661162482610e5f565b82611bfc565b8051610bc790600b90602084019061228f565b5490565b6001600160a01b0316600090815260056020526040902090565b61166583836115fb565b6116726000848484611c44565b610c285760405162461bcd60e51b81526004018080602001828103825260328152602001806123b76032913960400191505060405180910390fd5b6116be600d8263ffffffff611e9416565b6040516001600160a01b038216907f6ae172837ea30b801fbfcdd4108aa1d5bf8ff775444fd70256b44e6bf3dfc3f690600090a250565b611706600d8263ffffffff611f1516565b6040516001600160a01b038216907fe94479a9f7e1952cc78f2d6baab678adc1b772d936c6583def489e524cb6669290600090a250565b610bc782826040518060200160405280600081525061165b565b60006001600160a01b03821661179e5760405162461bcd60e51b815260040180806020018281038252602281526020018061256d6022913960400191505060405180910390fd5b506001600160a01b03166000908152602091909152604090205460ff1690565b6117c98484846115dc565b6117d584848484611c44565b6112b45760405162461bcd60e51b81526004018080602001828103825260328152602001806123b76032913960400191505060405180910390fd5b826001600160a01b031661182382610e5f565b6001600160a01b0316146118685760405162461bcd60e51b815260040180806020018281038252602981526020018061258f6029913960400191505060405180910390fd5b6001600160a01b0382166118ad5760405162461bcd60e51b81526004018080602001828103825260248152602001806123e96024913960400191505060405180910390fd5b6118b681611f7c565b6001600160a01b03831660009081526003602052604090206118d790611fb7565b6001600160a01b03821660009081526003602052604090206118f890611fce565b60008181526001602052604080822080546001600160a01b0319166001600160a01b0386811691821790925591518493918716917fddf252ad1be2c89b69c2b068fc378daa952ba7f163c4a11628f55a4df523b3ef91a4505050565b6001600160a01b03821660009081526005602052604081205461197e90600163ffffffff611fd716565b600083815260066020526040902054909150808214611a19576001600160a01b03841660009081526005602052604081208054849081106119bb57fe5b906000526020600020015490508060056000876001600160a01b03166001600160a01b0316815260200190815260200160002083815481106119f957fe5b600091825260208083209091019290925591825260069052604090208190555b6001600160a01b0384166000908152600560205260409020805490611a4290600019830161230d565b5050505050565b6001600160a01b0390911660009081526005602081815260408084208054868652600684529185208290559282526001810183559183529091200155565b6001600160a01b038216611ae2576040805162461bcd60e51b815260206004820181905260248201527f4552433732313a206d696e7420746f20746865207a65726f2061646472657373604482015290519081900360640190fd5b611aeb816114b4565b15611b3d576040805162461bcd60e51b815260206004820152601c60248201527f4552433732313a20746f6b656e20616c7265616479206d696e74656400000000604482015290519081900360640190fd5b600081815260016020908152604080832080546001600160a01b0319166001600160a01b038716908117909155835260039091529020611b7c90611fce565b60405181906001600160a01b038416906000907fddf252ad1be2c89b69c2b068fc378daa952ba7f163c4a11628f55a4df523b3ef908290a45050565b600780546000838152600860205260408120829055600182018355919091527fa66cc928b5edb82af9bd49922954155ab7b0942694bea4ce44661d9a8736c6880155565b611c068282612020565b6000818152600c60205260409020546002600019610100600184161502019091160415610bc7576000818152600c60205260408120610bc791612331565b6000611c58846001600160a01b031661204c565b611c64575060016115d4565b600060606001600160a01b038616630a85bd0160e11b611c826114d1565b89888860405160240180856001600160a01b03166001600160a01b03168152602001846001600160a01b03166001600160a01b0316815260200183815260200180602001828103825283818151815260200191508051906020019080838360005b83811015611cfb578181015183820152602001611ce3565b50505050905090810190601f168015611d285780820380516001836020036101000a031916815260200191505b5060408051601f198184030181529181526020820180517bffffffffffffffffffffffffffffffffffffffffffffffffffffffff166001600160e01b0319909a16999099178952518151919890975087965094509250829150849050835b60208310611da55780518252601f199092019160209182019101611d86565b6001836020036101000a0380198251168184511680821785525050505050509050019150506000604051808303816000865af19150503d8060008114611e07576040519150601f19603f3d011682016040523d82523d6000602084013e611e0c565b606091505b509150915081611e5d57805115611e265780518082602001fd5b60405162461bcd60e51b81526004018080602001828103825260328152602001806123b76032913960400191505060405180910390fd5b6000818060200190516020811015611e7457600080fd5b50516001600160e01b031916630a85bd0160e11b1493506115d492505050565b611e9e8282611757565b15611ef0576040805162461bcd60e51b815260206004820152601f60248201527f526f6c65733a206163636f756e7420616c72656164792068617320726f6c6500604482015290519081900360640190fd5b6001600160a01b0316600090815260209190915260409020805460ff19166001179055565b611f1f8282611757565b611f5a5760405162461bcd60e51b81526004018080602001828103825260218152602001806124f46021913960400191505060405180910390fd5b6001600160a01b0316600090815260209190915260409020805460ff19169055565b6000818152600260205260409020546001600160a01b031615610d7657600090815260026020526040902080546001600160a01b0319169055565b8054611fca90600163ffffffff611fd716565b9055565b80546001019055565b600061201983836040518060400160405280601e81526020017f536166654d6174683a207375627472616374696f6e206f766572666c6f770000815250612085565b9392505050565b61202a828261211c565b6120348282611954565b600081815260066020526040812055610bc7816121f3565b6000813f7fc5d2460186f7233c927e7db2dcc703c0e500b653ca82273b7bfad8045d85a4708181148015906115d4575050151592915050565b600081848411156121145760405162461bcd60e51b81526004018080602001828103825283818151815260200191508051906020019080838360005b838110156120d95781810151838201526020016120c1565b50505050905090810190601f1680156121065780820380516001836020036101000a031916815260200191505b509250505060405180910390fd5b505050900390565b816001600160a01b031661212f82610e5f565b6001600160a01b0316146121745760405162461bcd60e51b81526004018080602001828103825260258152602001806126656025913960400191505060405180910390fd5b61217d81611f7c565b6001600160a01b038216600090815260036020526040902061219e90611fb7565b60008181526001602052604080822080546001600160a01b0319169055518291906001600160a01b038516907fddf252ad1be2c89b69c2b068fc378daa952ba7f163c4a11628f55a4df523b3ef908390a45050565b60075460009061220a90600163ffffffff611fd716565b6000838152600860205260408120546007805493945090928490811061222c57fe5b90600052602060002001549050806007838154811061224757fe5b6000918252602080832090910192909255828152600890915260409020829055600780549061227a90600019830161230d565b50505060009182525060086020526040812055565b828054600181600116156101000203166002900490600052602060002090601f016020900481019282601f106122d057805160ff19168380011785556122fd565b828001600101855582156122fd579182015b828111156122fd5782518255916020019190600101906122e2565b50612309929150612371565b5090565b815481835581811115610c2857600083815260209020610c28918101908301612371565b50805460018160011615610100020316600290046000825580601f106123575750610d76565b601f016020900490600052602060002090810190610d7691905b610a3091905b80821115612309576000815560010161237756fe455243373231456e756d657261626c653a206f776e657220696e646578206f7574206f6620626f756e64734552433732313a207472616e7366657220746f206e6f6e20455243373231526563656976657220696d706c656d656e7465724552433732313a207472616e7366657220746f20746865207a65726f20616464726573734552433732313a206f70657261746f7220717565727920666f72206e6f6e6578697374656e7420746f6b656e4552433732313a20617070726f76652063616c6c6572206973206e6f74206f776e6572206e6f7220617070726f76656420666f7220616c6c4552433732313a2062616c616e636520717565727920666f7220746865207a65726f20616464726573734552433732313a206f776e657220717565727920666f72206e6f6e6578697374656e7420746f6b656e4d696e746572526f6c653a2063616c6c657220646f6573206e6f74206861766520746865204d696e74657220726f6c65526f6c65733a206163636f756e7420646f6573206e6f74206861766520726f6c654552433732313a20617070726f76656420717565727920666f72206e6f6e6578697374656e7420746f6b656e4552433732314d657461646174613a2055524920736574206f66206e6f6e6578697374656e7420746f6b656e526f6c65733a206163636f756e7420697320746865207a65726f20616464726573734552433732313a207472616e73666572206f6620746f6b656e2074686174206973206e6f74206f776e4552433732314d657461646174613a2055524920717565727920666f72206e6f6e6578697374656e7420746f6b656e4552433732313a20617070726f76616c20746f2063757272656e74206f776e65724552433732313a207472616e736665722063616c6c6572206973206e6f74206f776e6572206e6f7220617070726f766564455243373231456e756d657261626c653a20676c6f62616c20696e646578206f7574206f6620626f756e64734552433732313a206275726e206f6620746f6b656e2074686174206973206e6f74206f776e4552433732314275726e61626c653a2063616c6c6572206973206e6f74206f776e6572206e6f7220617070726f766564a265627a7a7231582091068997ee8fc204c85fc7fe71296c80677b8dddf8567fa900e59ccd4ca60d4b64736f6c63430005100032526f6c65733a206163636f756e7420697320746865207a65726f2061646472657373",
  "linkReferences": {},
  "deployedLinkReferences": {}
}