{
  "_format": "hh-sol-artifact-1",
  "contractName": "AllowanceCrowdsaleImpl",
  "sourceName": "contracts/IDO_basedon_Openzeppelin/mocks/AllowanceCrowdsaleImpl.sol",
  "abi": [
    {
      "inputs": [
        {
          "internalType": "uint256",
          "name": "rate",
          "type": "uint256"
        },
        {
          "internalType": "address payable",
          "name": "wallet",
          "type": "address"
        },
        {
          "internalType": "contract IERC20",
          "name": "token",
          "type": "address"
        },
        {
          "internalType": "address",
          "name": "tokenWallet",
          "type": "address"
        }
      ],
      "payable": false,
      "stateMutability": "nonpayable",
      "type": "constructor"
    },
    {
      "anonymous": false,
      "inputs": [
        {
          "indexed": true,
          "internalType": "address",
          "name": "purchaser",
          "type": "address"
        },
        {
          "indexed": true,
          "internalType": "address",
          "name": "beneficiary",
          "type": "address"
        },
        {
          "indexed": false,
          "internalType": "uint256",
          "name": "value",
          "type": "uint256"
        },
        {
          "indexed": false,
          "internalType": "uint256",
          "name": "amount",
          "type": "uint256"
        }
      ],
      "name": "TokensPurchased",
      "type": "event"
    },
    {
      "payable": true,
      "stateMutability": "payable",
      "type": "fallback"
    },
    {
      "constant": false,
      "inputs": [
        {
          "internalType": "address",
          "name": "beneficiary",
          "type": "address"
        }
      ],
      "name": "buyTokens",
      "outputs": [],
      "payable": true,
      "stateMutability": "payable",
      "type": "function"
    },
    {
      "constant": true,
      "inputs": [],
      "name": "rate",
      "outputs": [
        {
          "internalType": "uint256",
          "name": "",
          "type": "uint256"
        }
      ],
      "payable": false,
      "stateMutability": "view",
      "type": "function"
    },
    {
      "constant": true,
      "inputs": [],
      "name": "remainingTokens",
      "outputs": [
        {
          "internalType": "uint256",
          "name": "",
          "type": "uint256"
        }
      ],
      "payable": false,
      "stateMutability": "view",
      "type": "function"
    },
    {
      "constant": true,
      "inputs": [],
      "name": "token",
      "outputs": [
        {
          "internalType": "contract IERC20",
          "name": "",
          "type": "address"
        }
      ],
      "payable": false,
      "stateMutability": "view",
      "type": "function"
    },
    {
      "constant": true,
      "inputs": [],
      "name": "tokenWallet",
      "outputs": [
        {
          "internalType": "address",
          "name": "",
          "type": "address"
        }
      ],
      "payable": false,
      "stateMutability": "view",
      "type": "function"
    },
    {
      "constant": true,
      "inputs": [],
      "name": "wallet",
      "outputs": [
        {
          "internalType": "address payable",
          "name": "",
          "type": "address"
        }
      ],
      "payable": false,
      "stateMutability": "view",
      "type": "function"
    },
    {
      "constant": true,
      "inputs": [],
      "name": "weiRaised",
      "outputs": [
        {
          "internalType": "uint256",
          "name": "",
          "type": "uint256"
        }
      ],
      "payable": false,
      "stateMutability": "view",
      "type": "function"
    }
  ],
  "bytecode": "0x608060405234801561001057600080fd5b50604051610b95380380610b958339818101604052608081101561003357600080fd5b508051602082015160408301516060909301516000805460ff191660011790559192909180848484826100ad576040805162461bcd60e51b815260206004820152601460248201527f43726f776473616c653a20726174652069732030000000000000000000000000604482015290519081900360640190fd5b6001600160a01b0382166100f25760405162461bcd60e51b8152600401808060200182810382526025815260200180610b706025913960400191505060405180910390fd5b6001600160a01b0381166101375760405162461bcd60e51b8152600401808060200182810382526024815260200180610b4c6024913960400191505060405180910390fd5b600292909255600180546001600160a01b0319166001600160a01b0392831617905560008054610100600160a81b031916610100938316939093029290921790915581166101b65760405162461bcd60e51b8152600401808060200182810382526034815260200180610b186034913960400191505060405180910390fd5b600480546001600160a01b039092166001600160a01b03199092169190911790555050505061092e806101ea6000396000f3fe6080604052600436106100705760003560e01c8063bf5839031161004e578063bf583903146100ef578063bff99c6c14610104578063ec8ac4d814610119578063fc0c546a1461013f57610070565b80632c4e722e146100825780634042b66f146100a9578063521eb273146100be575b61008061007b610154565b610158565b005b34801561008e57600080fd5b5061009761027a565b60408051918252519081900360200190f35b3480156100b557600080fd5b50610097610280565b3480156100ca57600080fd5b506100d3610286565b604080516001600160a01b039092168252519081900360200190f35b3480156100fb57600080fd5b50610097610295565b34801561011057600080fd5b506100d36103e0565b6100806004803603602081101561012f57600080fd5b50356001600160a01b0316610158565b34801561014b57600080fd5b506100d36103ef565b3390565b60005460ff166101af576040805162461bcd60e51b815260206004820152601f60248201527f5265656e7472616e637947756172643a207265656e7472616e742063616c6c00604482015290519081900360640190fd5b6000805460ff19169055346101c48282610403565b60006101cf8261049e565b6003549091506101e5908363ffffffff6104bb16565b6003556101f2838261051c565b826001600160a01b0316610204610154565b6001600160a01b03167f6faf93231a456e552dbc9961f58d9713ee4f2e69d15f1975b050ef0911053a7b8484604051808381526020018281526020019250505060405180910390a3610256838361049a565b61025e610526565b610268838361049a565b50506000805460ff1916600117905550565b60025490565b60035490565b6001546001600160a01b031690565b60006103db6102a26103ef565b60048054604080517f70a082310000000000000000000000000000000000000000000000000000000081526001600160a01b0392831693810193909352519216916370a0823191602480820192602092909190829003018186803b15801561030957600080fd5b505afa15801561031d573d6000803e3d6000fd5b505050506040513d602081101561033357600080fd5b505161033d6103ef565b60048054604080517fdd62ed3e0000000000000000000000000000000000000000000000000000000081526001600160a01b03928316938101939093523060248401525192169163dd62ed3e91604480820192602092909190829003018186803b1580156103aa57600080fd5b505afa1580156103be573d6000803e3d6000fd5b505050506040513d60208110156103d457600080fd5b5051610562565b905090565b6004546001600160a01b031690565b60005461010090046001600160a01b031690565b6001600160a01b0382166104485760405162461bcd60e51b815260040180806020018281038252602a8152602001806108a6602a913960400191505060405180910390fd5b8061049a576040805162461bcd60e51b815260206004820152601960248201527f43726f776473616c653a20776569416d6f756e74206973203000000000000000604482015290519081900360640190fd5b5050565b60006104b56002548361057890919063ffffffff16565b92915050565b600082820183811015610515576040805162461bcd60e51b815260206004820152601b60248201527f536166654d6174683a206164646974696f6e206f766572666c6f770000000000604482015290519081900360640190fd5b9392505050565b61049a82826105d1565b6001546040516001600160a01b03909116903480156108fc02916000818181858888f1935050505015801561055f573d6000803e3d6000fd5b50565b60008183106105715781610515565b5090919050565b600082610587575060006104b5565b8282028284828161059457fe5b04146105155760405162461bcd60e51b81526004018080602001828103825260218152602001806108856021913960400191505060405180910390fd5b60045461049a906001600160a01b031683836105eb6103ef565b6001600160a01b031692919063ffffffff61060216565b604080516001600160a01b0385811660248301528416604482015260648082018490528251808303909101815260849091019091526020810180517bffffffffffffffffffffffffffffffffffffffffffffffffffffffff167f23b872dd0000000000000000000000000000000000000000000000000000000017905261068a908590610690565b50505050565b6106a2826001600160a01b0316610848565b6106f3576040805162461bcd60e51b815260206004820152601f60248201527f5361666545524332303a2063616c6c20746f206e6f6e2d636f6e747261637400604482015290519081900360640190fd5b60006060836001600160a01b0316836040518082805190602001908083835b602083106107315780518252601f199092019160209182019101610712565b6001836020036101000a0380198251168184511680821785525050505050509050019150506000604051808303816000865af19150503d8060008114610793576040519150601f19603f3d011682016040523d82523d6000602084013e610798565b606091505b5091509150816107ef576040805162461bcd60e51b815260206004820181905260248201527f5361666545524332303a206c6f772d6c6576656c2063616c6c206661696c6564604482015290519081900360640190fd5b80511561068a5780806020019051602081101561080b57600080fd5b505161068a5760405162461bcd60e51b815260040180806020018281038252602a8152602001806108d0602a913960400191505060405180910390fd5b6000813f7fc5d2460186f7233c927e7db2dcc703c0e500b653ca82273b7bfad8045d85a47081811480159061087c57508115155b94935050505056fe536166654d6174683a206d756c7469706c69636174696f6e206f766572666c6f7743726f776473616c653a2062656e656669636961727920697320746865207a65726f20616464726573735361666545524332303a204552433230206f7065726174696f6e20646964206e6f742073756363656564a265627a7a72315820d41da1564e4052b626bd3ee02c04f87ec0659901fca2d305294bcb9f6c9a649664736f6c63430005100032416c6c6f77616e636543726f776473616c653a20746f6b656e2077616c6c657420697320746865207a65726f206164647265737343726f776473616c653a20746f6b656e20697320746865207a65726f206164647265737343726f776473616c653a2077616c6c657420697320746865207a65726f2061646472657373",
  "linkReferences": {},
  "deployedLinkReferences": {}
}